:100000000C9469040C9401300C94A1040C94A10488
:100010000C94A1040C94A1040C94A1040C94A104CC
:100020000C94A1040C94A1040C9448270C9404276C
:100030000C949B280C94A1040C94A1040C94A1048E
:100040000C94A1040C94A1040C94A1040C94A1049C
:100050000C94A1040C9477280C94A1040C94A10492
:100060000C94A1040C94A1040C94A1040C94A1047C
:100070000C94A1040C94A1040C94A1040C94A1046C
:100080000C94A1040C94A1040C94A1040C94A1045C
:100090000C94A1040C94A1040C94A1040C94A1044C
:1000A0000C94A1040C94A1040C94A1040631FF0942
:1000B00074A1010975150026FF00952075088102BD
:1000C0000976150026FF00952075089102C00501EC
:1000D0000980A101850319012AB700150126B7007F
:1000E000950175108100C0050C0901A10185041955
:1000F000012AA002150126A002950175108100C0F9
:100100000660FF0961A1010962150026FF00952024
:10011000750881020963150026FF00952075089176
:1001200002C005010906A101050719E029E715002C
:100130002501950875018102950175088101050762
:10014000190029FF150026FF009506750881000596
:10015000081901290595057501910295017503910D
:1001600001C00000000000000000000000000000CE
:10017000000000000000000000000000000000007F
:100180000000000000007E0F00D4FFFFFFC700004A
:10019000007800000000000000002A2B280000006A
:1001A0000000000000000000000000000029000026
:1001B00000002C1E3420212224342627252E362D03
:1001C0003738271E1F202122232425263333362E9D
:1001D00037381F0405060708090A0B0C0D0E0F100F
:1001E0001112131415161718191A1B1C1D2F313054
:1001F000232D350405060708090A0B0C0D0E0F10F8
:100200001112131415161718191A1B1C1D2F313033
:10021000354C726762206D617472697820746F6703
:10022000676C65205B25735D3A207267625F6D6164
:10023000747269785F636F6E6669672E656E61625E
:100240006C65203D2025750A0044454255473A20FB
:1002500064697361626C65642E0A004445425547C7
:100260003A20656E61626C65642E0A004F6E65739C
:10027000686F743A206163746976653A2025640A70
:10028000000A002530325820006B6579626F617278
:10029000645F7265706F72743A20005461726765B2
:1002A0007420636F6E6E65637465640D0A0054613B
:1002B0007267657420646973636F6E6E65637465DD
:1002C000642C207468726F74746C696E6720636F3D
:1002D0006E6E656374696F6E20617474656D7074A1
:1002E000730D0A004661696C656420746F2065783F
:1002F00065637574652025730A007267625F6D61BE
:10030000747269785F636F6E6669672E666C616789
:1003100073203D2025640A007267625F6D6174720C
:1003200069785F636F6E6669672E737065656420B8
:100330003D2025640A007267625F6D61747269789E
:100340005F636F6E6669672E6873762E76203D2038
:1003500025640A007267625F6D61747269785F6319
:100360006F6E6669672E6873762E73203D20256454
:100370000A007267625F6D61747269785F636F6EA5
:100380006669672E6873762E68203D2025640A0012
:100390007267625F6D61747269785F636F6E6669C0
:1003A000672E6D6F6465203D2025640A00726762C8
:1003B0005F6D61747269785F636F6E6669672E65E1
:1003C0006E61626C65203D2025640A007267625F81
:1003D0006D61747269785F636F6E66696720454509
:1003E00050524F4D0A007267625F6D617472697896
:1003F0005F696E69745F6472697665727320726793
:10040000625F6D61747269785F636F6E6669672E93
:100410006D6F6465203D20302E2057726974652011
:1004200064656661756C742076616C7565732074A3
:100430006F20454550524F4D2E0A007267625F6D26
:1004400061747269785F696E69745F6472697665F8
:100450007273206565636F6E666967206973206ECD
:100460006F7420656E61626C65642E0A005B735D5B
:10047000000A0025303862003A200025303258004A
:100480000A722F632030313233343536370A000A8E
:100490000025303258006C65645F7461736B3A20DC
:1004A0000000010101010101010101020202020239
:1004B000020202020303030303030303040404040C
:1004C00004040405050505050606060606070707D4
:1004D000070708080808090909090A0A0A0B0B0B8B
:1004E0000C0C0C0D0D0D0E0E0E0F0F0F1010111128
:1004F00011121213131414151516161717181819AC
:10050000191A1A1B1B1C1D1D1E1E1F202021222212
:10051000232424252626272829292A2B2C2D2D2E55
:100520002F30313232333435363738393A3B3C3D6F
:100530003E3F404142434445464748494A4C4D4E60
:100540004F50515354555658595A5B5D5E5F616226
:1005500064656668696B6C6D6F7072737577787AB5
:100560007B7D7E8082838587888A8C8E8F91939510
:1005700096989A9C9EA0A2A3A5A7A9ABADAFB1B334
:10058000B5B7BABCBEC0C2C4C6C9CBCDCFD1D4D614
:10059000D8DBDDDFE2E4E7E9EBEEF0F3F5F8FAFDB6
:1005A000FF6565636F6E6669675F7570646174652A
:1005B0005F7267625F6D61747269785F64656661BE
:1005C000756C740A00726762206D617472697820BC
:1005D0006D6F6465205B25735D3A2025750A007296
:1005E0006762206D61747269782073657420687326
:1005F00076205B25735D3A2025752C25752C257595
:100600000A00726762206D61747269782073657484
:10061000207370656564205B25735D3A2025750A3B
:100620000000571E001F002000210022002B001494
:10063000001A00080015001700E00004001600076B
:100640000009000A00E1001D001B0006001900055A
:100650000000000000E300105F2A624A002A002721
:100660000026002500240023004C00130012000C7B
:100670000018001C00340033000F000E000D000BAA
:1006800000E50038003700360010001100000000BF
:1006900000AC5D115F2C414D0035021E021F02208F
:1006A0000221022202005C1E001F00200021002205
:1006B000004C00010050004F0052002F00C05C01B0
:1006C000000100010051002F0200000000010001A4
:1006D000004C0026022A00270226022502240223BB
:1006E0000201002700260025002400230031022EED
:1006F000025E005D005C00300001002D005B005ACE
:10070000005900300200000000620001004C002788
:100710000245003A003B003C003D003E00C25C1E2A
:10072000021F02200221022202C35CAC00AB00A91E
:10073000004B002D02A800AD00AE00AA004E002D17
:1007400000000000000100010001002602440043F7
:10075000004200410040003F000100270226022520
:1007600002240223023100C95CC75CC55C4A002E2A
:10077000000100CA5CC85CC65C4D002E020000008F
:100780000001000100010001000100010001000161
:100790000001000100010001000100010001000151
:1007A0000001000100010001000100010001000141
:1007B0000001000100010001000000000001000133
:1007C0000001000100010001000100010001000121
:1007D0000001000100010001000100010001000111
:1007E0000001000100010001000100010001000101
:1007F00000010001000000000001000100010001F3
:10080000005B435D005B445D005B535D005B575DD7
:10081000005B525D0009027B00040100A0FA09049C
:100820000000010301010009211101000122400023
:10083000070581030800010904010002030000000C
:100840000921110100012222000705820320000175
:100850000705030320000109040200010300000052
:100860000921110100012232000705840320000143
:100870000904030002030000000921110100012204
:10088000220007058503200001070505032000015C
:10089000120100020000000810CB5664200601027D
:1008A00000011A0349007200690073002000520021
:1008B000650076002E0020003600620000000E0366
:1008C0004B0065006500620069006F0000000403D2
:1008D000090411241FBECFEFDAE0DEBFCDBF04B69E
:1008E00003FE18C080914C0590914D05A0914E05D6
:1008F000B0914F058730904BA740B04B59F4109200
:100900004C0510924D0510924E0510924F05E0E0F7
:10091000F8E3099525E0AAEEB2E001C01D92AC34DF
:10092000B207E1F712E0A0E0B1E0EEEDF5E602C0BB
:1009300005900D92AA3EB107D9F70E94C2280C94E7
:10094000BC320C940000FF93EF93E091EA02F09127
:10095000EB02309709F00995EF91FF910895FC01A2
:100960008591803011F0EFDFFBCF0895FF27E0E2A3
:1009700030E247FF0CC0419597FF09C0EDE260955A
:10098000709580959095611D711D811D911D27FFAA
:1009900002C0219530E350E2AA27660F771F881F17
:1009A000991FAA1FA41710F0A41B63955A95A9F7C5
:1009B000AA3008F0A95FA05DAF93F39561157105AA
:1009C0008105910541F7ED3211F4EF93F395F2179C
:1009D00018F43F93F395FBCF8F91B5DFFA95E1F7CC
:1009E0000895E991F9918591803021F0853219F0CF
:1009F000AADFF9CF089520E0E89455915532C1F36C
:100A0000503311F4689455915A3348F4505390F38D
:100A1000220F022E220F220F200D250FF4CF0EF4ED
:100A2000219589919991533619F3533729F153350B
:100A300059F1BC0188279927E8945C3621F4899103
:100A4000999168945591543639F446EF7EF077FFCA
:100A50000DC08FEF9FEF0AC055374AE039F0583587
:100A600040E121F0523642E009F00895FF93EF9300
:100A70007DDFEF91FF91B7CFFF93EF93FC01819161
:100A80008030B9F360DFFBCFFF93EF9368DFF1CFE6
:100A9000DF93CF93CDB7DEB72596A3DFCF91DF915C
:100AA0000895FC01AC014B5F5F4F8FEF91E3219103
:100AB000822728E030E087FF09C0880F892721506E
:100AC0003109C9F7E417F50791F70895880FF7CFB3
:100AD000E8EDF0E080818E7F80831092E20010923A
:100AE000DA001092E100A0EEB0E08C9181608C936E
:100AF00080818F77808319BCA7EDB0E08C918E7FC9
:100B00008C9380818F7E80831092020508952091BE
:100B1000E4003091E50095E6A9012091EC00822FD8
:100B2000817020FF06C08091E80080FF06C080E051
:100B300008952091E80022FD1AC080910F058823B6
:100B400089F0853089F08091EB0085FD0FC0209100
:100B5000E4003091E50042175307F9F29150E1F6B5
:100B600084E0089582E0089583E0089581E0089587
:100B7000EF92FF920F931F93CF937C018B010E9402
:100B80008705C82F811117C08091E80085FD0BC033
:100B90008091E8008E778093E8000E948705882383
:100BA00099F3C82F08C0F70181917F018093F1006C
:100BB0000150110949F78C2FCF911F910F91FF9090
:100BC000EF9008958091110587FF13C08091E80090
:100BD00082FF06C08091E8008B778093E80004C014
:100BE00080910F058111F2CF089580910F05882320
:100BF000D9F38091E80080FFF8CF8091E8008E77EC
:100C0000ECCF982F9093E900242F762F50E089178E
:100C100031F07091EC002091ED005091F00021FD39
:100C200007C09F5F973071F78093E90081E00895D6
:100C30003091EB003E7F3093EB003091ED003D7F33
:100C40003093ED003091EB0031603093EB00709306
:100C5000EC002093ED005093F0002091EE0027FD72
:100C6000E0CF80E00895B0E0A0E0E9E3F6E00C9486
:100C70002731C8EDD0E088818F7E8883E7EDF0E0F2
:100C800080818160808384E082BF81E0809302055F
:100C900088818E7F888302EE10E0F8011082109226
:100CA000DA0081EEC82ED12CF601108288818F7770
:100CB000888388818068888388818F7D888319BC38
:100CC00010920F051092100510920E0510920D054E
:100CD00090EEE92EF12CF70180818B7F8083888153
:100CE0008160888342E060E080E00E940106F601B6
:100CF00080818E7F8083F801808181608083808104
:100D000088608083F70180818E7F80838881806105
:100D10008883CDB7DEB7E8E00C944331FC018091C5
:100D200017059091180586179707A0F061157105B2
:100D300029F49091E8009E779093E80090E0611587
:100D4000710551F4911108C08091E80082FF34C010
:100D500080E00895BC01F2CF80910F058823C1F196
:100D60008530C1F18091E80083FD30C08091E800BA
:100D700082FDEACF8091E80080FFE1CF8091F3000F
:100D80002091F200382F6115710519F028303105D6
:100D900058F091E02830310509F090E02091E8000A
:100DA0002E772093E800CBCF81918093F1006150A2
:100DB00071092F5F3F4FE7CF80910F05882341F0E6
:100DC000853041F08091E80083FFBECF81E0089537
:100DD00082E0089583E008950895089580910405C0
:100DE00008959C014FB7F8948091F8049091F9040C
:100DF000A091FA04B091FB044FBF821B930B08959E
:100E00002FB7F8946091F8047091F9048091FA0476
:100E10009091FB042FBF08952FB7F8948091F804A8
:100E20009091F904A091FA04B091FB042FBF0895AA
:100E30009C01FC0132969FEF80E04191461751F0F2
:100E40009F3F19F4411101C0982F8F5F8630A9F799
:100E50009F3F09F40895290F311D97FD3A95F90137
:100E6000628308952091F5043091F604281739071C
:100E700071F09093F6048093F504E091F304F091FF
:100E8000F404309721F00084F185E02D0995089550
:100E90002091F1043091F2042817390771F09093F2
:100EA000F2048093F104E091F304F091F40430979C
:100EB00021F00680F781E02D09950895FA0181114E
:100EC00001C0FB010995089580934F01809142056F
:100ED000837080934E010E94A40C83E080935001A4
:100EE000089522E8241B08F420E0620F089540953D
:100EF000282F429F412D1124842F08950E945D08C0
:100F00000895FF920F931F93CF93DF93182F062F0F
:100F1000F42ED0E0C0E02F2D402F612FCE010E9493
:100F20007E072196C434D105B1F7CDB7DEB7E5E031
:100F30000C944631E42FF0E0EE0FFF1FE25EFD4F10
:100F4000408134EE439F412D1124E82FF0E050E022
:100F5000445E5F4FDA01A21BB1099D01B7FF03C0D8
:100F600031952195310993E0220F331F9A95E1F7CE
:100F7000AF01421B530B9A0157FD20E0582F259FCC
:100F8000212D1124822F0895AF92BF92CF92DF922C
:100F9000FF920F931F93CF93DF93362F472FE82FA6
:100FA000F0E0EF55FB4F71110FC0E4918E2F2E2F03
:100FB0006E2F722FDF91CF911F910F91FF90DF90D5
:100FC000CF90BF90AF900895C72FD0E02491F22E1C
:100FD000022F10E056E0659FC0011124EFEFF0E012
:100FE000BF010E946031832F90E0880F991F35E583
:100FF000369FD001379FB00D11248A1B9B0B982F71
:10100000990F980F6F01CC1ADD0AC09ED001C19EC6
:10101000B00DD09EB00D11248B2F499FA00111243B
:10102000452F55276F01C41AD50AC09EA001C19E45
:10103000500DD09E500D11245F01A91AB108AC9E2D
:101040006001AD9ED00CBC9ED00C1124CD2CDD24B3
:10105000EC19FD09E09FE001E19FD00DF09FD00D5C
:101060001124ED2F62307105A1F050F46115710566
:1010700009F49ECF6130710581F0EB2F852F98CF59
:101080006430710569F080F06630710509F490CF25
:10109000F4CFE22F2B2F8D2F8BCFE22F252F88CF50
:1010A000EB2F822F2D2F84CF2B2F8F2DE52F80CF4D
:1010B00089B185FB882780F90895FF920F931F93CC
:1010C000CF93DF93EC01F62E042F122F0E945808C5
:1010D00081110FC0C232D1057CF0A297FE01EE0F44
:1010E000FF1FEC0FFD1FE05EFB4FF18200831283B8
:1010F00003C0C232D10594F3CDB7DEB7E5E00C945E
:101100004631CF93C82F0E945808882329F081E0E8
:10111000C23228F080E003C081E0C434D8F7CF9118
:101120000895B0E0A0E0E7E9F8E00C9425317C01F7
:10113000C09152018EE0C89FC02D11241EE01C0FEB
:10114000153408F014E40E945808882319F013326B
:1011500008F012E20E945808811103C0C23208F45C
:10116000C2E22091460531E0230F08F42FEF30E072
:1011700050E040E06FEF7FEF80E090E00E94593256
:101180006901D0E001E0B12CA12C2C2FC11740F057
:10119000812F0E948108CDB7DEB7EAE00C9441317F
:1011A000FE01EA55FD4F808190915301892329F179
:1011B000809119058150082E000C990B87FF1FC0E4
:1011C000B60130914605300F08F43FEFA501639F4B
:1011D000412D739F400D511D112460914305709165
:1011E000440580914505F70109950E94C407462FE3
:1011F000282F672FCE010E947E072196C6CFFC01C3
:10120000E75EFA4F318932130AC0FC01EE0FFF1F6F
:10121000E75EFA4F618D728D6C157D0590F2019736
:10122000CDCFF894E82FE295EF70F0E031A1282FB0
:101230002F7081E090E001C0880F2A95EAF7982F7F
:101240009095932391A392A1892B82A378940895DA
:1012500090918E0392FF06C0282F28712830F9F450
:10126000877F846093FF06C0282F28712831F1F40E
:10127000877E846120918F0320FF06C0382F38714C
:101280003830D9F4877F816021FF06C0282F28716C
:101290002831D1F4877E816194FD877E0895282FBF
:1012A00024712430F9F68B7F8860DCCF282F2471DD
:1012B000243101F78B7E8861DDCF382F31713130D9
:1012C00019F78E7F8860E0CF282F2171213121F717
:1012D0008E7E8861E1CFCF93DF93EC018238910558
:1012E000B1F108F040C08133910509F49DC048F583
:1012F0008932910509F48DC08A9709F49CC0C11503
:1013000022E5D20708F0BDC0C11531E5D30708F0CA
:1013100024C1C83ED10508F0A3C0C13ED10588F55F
:10132000C83AD10508F08EC0C53AD10508F0F6C01C
:10133000C130D10531F1209721F1C430D10508F534
:1013400045C08533910509F45FC0C997C1F6809106
:101350008E03837009F036C180918F0383FF11C023
:10136000C9E2D0E00EC0833E910599F170F4803E51
:10137000910501F1823E910511F680918E0382FD67
:1013800021C0CE01DF91CF910895863E910561F194
:10139000873E910571F1843E910509F0B0CF8091AF
:1013A0008F0381FFEECF80918E03C7EED0E084FDE6
:1013B0000DC0E7CF80918E0380FD33C090918F03E5
:1013C00090FFDFCFC3EED0E084FFDBCFD0E0C0E002
:1013D000D8CF80918E0382FDF2C090918F0390FD53
:1013E000F1C084FFCECFF2CF80918E0383FDDDCF9D
:1013F000C8CF80918E0383FDE8C090918F0391FF49
:10140000F0CFC4EED0E0BDCF80918E0385FFB9CF81
:10141000A7CF80918E0385FDDBC080918F0383FF72
:10142000B0CFC9E3D0E0ADCF80918E0386FFA9CFC6
:10143000CAE2D0E0A6CF80918E0386FFA2CFC1E39F
:10144000D0E09FCFCF3BD10508F6C85AD0E0CC0FF3
:10145000DD1FCE56DE4F0990D881C02DD46491CFC8
:10146000C11540E5D40708F064C0C11580E4D80771
:1014700008F05CC0CE019A9581159F4108F481CF98
:10148000A5CFC11536E5D30718F5C11545E5D40735
:1014900008F07CC0C11584E5D80708F072C09E0131
:1014A000237033279C2F96959695C115D34508F444
:1014B00059C0C1E0D0E002C0CC0FDD1F2A95E2F791
:1014C00030E2939FC0011124C82BD92BDA6859CF81
:1014D000C1158AE5D80778F4C11529E5D20708F0C7
:1014E00060C0C11538E5D30708F470CFDC2FCC27D6
:1014F000C06FD06A46CFCE0190568115904208F059
:1015000065CF8D2F8F710E94280990E0982F882732
:1015100088279F719C012C2BE90141C0C55AD0E05E
:10152000C157DE4FC881D0E0D0642BCFDF70D06AC6
:1015300028CFCE018370992721E030E002C0220F2E
:10154000331F8A95E2F7C695C69580E2C89FE001F1
:101550001124C22BD32BDD6814CFDC2FCC27C16F15
:10156000D06A0FCFC1E0D0E002C0CC0FDD1F2A95BA
:10157000E2F720E2929FC0011124C82BD92BDC682E
:1015800000CFDC2FCC27C46FD06AFBCE8C2F0E94FB
:101590002809C82FD0E0DC2FCC27CC27DF71D06200
:1015A000F0CE8C2F8F700E94280934E0D695C79515
:1015B0003A95E1F7CF709C2FEC01D069E2CEC2EEF4
:1015C000D0E0DFCEC0EED0E0DCCEC6EED0E0D9CEAB
:1015D000C5E3D0E0D6CE80914E03811110924E0328
:1015E000089580959091ED0498239093ED040895CB
:1015F00080959091EE0498239093EE040895809145
:10160000440390911303981301C008958F5F87706E
:10161000FACF292F9A3078F5863068F590E036E0D9
:10162000239F800D911D1124682F677023E09695EC
:1016300087952A95E1F7FC01EE0FFF1FE80FF91FD0
:10164000EB50FD4F50E040E080E0219130E0062E6D
:1016500002C0369527950A94E2F721703327042EAD
:1016600001C0220F0A94EAF7822B4F5F5F4F43308D
:10167000510559F7089580E00895292F9A3098F57B
:10168000863088F590E036E0239F800D911D11246F
:10169000282F277041E001C0440F2A95EAF723E084
:1016A000969587952A95E1F7FC01EE0FFF1FE80F4D
:1016B000F91FEB50FD4F30E020E070E05191DF0169
:1016C0001197CB01022E02C0969587950A94E2F7F6
:1016D000817081958527842385278C932F5F3F4FC9
:1016E0002330310559F70895829590E09C01220F2F
:1016F000331F220F331F2C7C9595879595958795E1
:101700008373282B30E0C901880F991F8A7A359599
:1017100027952575822B08959C013A9521153F4107
:1017200050F5FC01EE27F170BC0166277270AC0128
:10173000442754709C012227387094FF0EC080E12A
:10174000EF2B09F480E0672B09F08062452B09F04C
:101750008064232B89F08068089581E0EF2B09F4E1
:1017600080E0672B09F08260452B09F08460232B11
:1017700019F08860089580E008959FB7F89410925A
:1017800000059FBF90910F05943009F048C020914B
:10179000E9002F703091EC00932F917030FD90E8AC
:1017A000922B25E02093E9002091EB0020FF34C02C
:1017B0002091EE0027FF30C02091FF04222321F06A
:1017C0002091E80025FF28C01092FF0426E0309108
:1017D000E80035FF14C08093F1008091E80085FD9A
:1017E00027C08091E80080FFFCCF8091E8008E77D1
:1017F0008093E8009F709093E90080E00895309115
:101800000F05343049F43091EB0035FD05C021500F
:1018100041F481E08093FF049F709093E9008FEF83
:101820000895EFE9FFE03197F1F700C00000CFCF56
:101830008FB7F89421E0209300058FBFDBCF809312
:10184000FC047093FE046093FD0480910F058430C6
:10185000F9F48093E9008FEF9091E800815095FDB5
:1018600006C095ED9A95F1F700008111F5CF8091B2
:10187000E80085FF0DC050E040E063E070E08CEFD1
:1018800094E00E94B8058091E8008E778093E8008C
:101890000895BC0184E00E941F0C0895BC0183E000
:1018A0000E941F0C0895CF93DF93EC0181E0809399
:1018B000E9008FEF9091E800815095FD06C095ED0D
:1018C0009A95F1F700008111F5CF8091E80085FF2E
:1018D00014C050E040E068E070E0CE010E94B8051E
:1018E0008091E8008E778093E80088E0FE01A5E013
:1018F000B5E001900D928A95E1F7DF91CF910895BF
:1019000081E08093E00080E28093D8001092C900CB
:101910008FE19EE40197F1F700C0000087E090EBB3
:10192000DC0180934C0590934D05A0934E05B09338
:101930004F0588E19CE00FB6F894A895809360006D
:101940000FBE90936000FFCF6E9A3EB13F7B2EB1E9
:1019500020644FB7F89480E294E0FC015191CF01EC
:1019600068E02EB9000000C057FF3EB9550F0000D7
:1019700000C000C000C03EB900C06A9591F7F4E015
:101980008C3E9F0751F74FBF8FE594E00197F1F729
:1019900000C00000089580915A03811110C0809109
:1019A000D80080618093D8008AE18A95F1F700C061
:1019B0008091D90080FF0AC081E080935A0381E0C2
:1019C00090915A03913009F080E0089582E080936D
:1019D0005A030E94680510920F05F1CF0E94CB0CAC
:1019E000882359F0E091F304F091F404309729F042
:1019F0000190F081E02D0995089580E008950F93FE
:101A00001F930E94CB0C882329F00E9400071F918E
:101A10000F9108950E94000700917E0310917F03AB
:101A20002091800330918103600F711F821F931FEB
:101A3000EECFCF92DF92EF92FF926B017C010E947A
:101A4000CB0C8823A1F02FB7F8946091F804709123
:101A5000F9048091FA049091FB042FBF6C197D0961
:101A60008E099F09FF90EF90DF90CF9008950E941C
:101A7000FF0CF4CFCF93DF93C7E0D2E060E0CE015C
:101A80000E9435322196C11584E0D807B9F7DF915D
:101A9000CF9108951F93CF93DF93122F8430E0F4FA
:101AA0006A30D0F44630C0F4C42FD0E0CC0FDD1F34
:101AB0009CE0699FC00DD11D112498E7899FC00D3E
:101AC000D11D1124632FCE0187960E943532612FDC
:101AD000CE0188960E943532DF91CF911F910895F3
:101AE000AF92BF92CF92DF92EF92FF921F93CF936C
:101AF000DF9381E2C82E86E0D82ED0E07601C0E0E8
:101B000014C0F50125913491412F6C2F8D2F0E9427
:101B10004A0D82E0A80EB11C1F5F163091F78CE0D1
:101B2000E80EF11CCF5FCA3019F0570110E0E9CF81
:101B3000DF5F88E7C80ED11CD43001F7DF91CF9169
:101B40001F91FF90EF90DF90CF90BF90AF900895DE
:101B5000CF93C82F6FEF811162E283E290E00E9481
:101B600035326FEFC11160E184E290E00E943532BE
:101B70006FEFC11164E085E290E00E943532CF91B1
:101B8000089580E00E94A80D60E086E290E00E9447
:101B900035320E94700D0E943A0D81E00E94A80D1E
:101BA00008950F931F93CF93DF93843030F56A30FD
:101BB00020F5463010F5C42FD0E0CC0FDD1F2CE00F
:101BC000629FC00DD11D112438E7839FC00DD11D28
:101BD0001124CE0187960E941732082F10E0102F93
:101BE0000027CE0188960E9417329801282BC90140
:101BF000DF91CF911F910F91089590E080E0F8CF91
:101C0000462F843040F47A3030F4663020F4672F69
:101C10000E94D10D089590E080E00895CF92DF9268
:101C2000FF920F931F93CF93DF936C0100914B05AD
:101C300080914F03082BC7E0D0E010E0FC2EC801D4
:101C40000C2E02C0959587950A94E2F780FD0CC092
:101C50002197A0F7F12C8F2DDF91CF911F910F913C
:101C6000FF90DF90CF900895B6018C2F0E94000E58
:101C70000E946B09019761F3EECFCF93DF93EC01E4
:101C80000E940E0EBE010E94000E0E946B09DF91A1
:101C9000CF910895FC0183819481892B29F0808163
:101CA000918189238F3F51F480E00895843FE1F7CB
:101CB00017C0883EA8F0813FB9F712C0808191819A
:101CC0000E943D0E92959F70963099F358F4925F62
:101CD0009F70923048F7803F19F040F7883E20F718
:101CE00081E008959A5FF4CFA5E0B0E0EAE7FEE076
:101CF0000C942C3149835A8389819A81662399F007
:101D0000222389F00E940E0E182F682F89819A8154
:101D10000E943D0B69817A81812F0E94000E2596D9
:101D2000E3E00C9448310E94090B182FF3CF83E2B3
:101D300090E00E941732823289F484E290E00E949F
:101D40001732803159F485E290E00E94173291E019
:101D5000843009F090E0892F8170089580E0FCCFF5
:101D6000CF9384E090E00E941732C82F82E290E087
:101D70000E941732982F8C2FCF91089546E050E0A3
:101D80006CE170E082E495E00E94253210921F041D
:101D900008958093460590911F04962B90931F04FD
:101DA00090911E0490FF16C023E631E0662311F0E7
:101DB00025E631E01F928F933F932F9382E096E0C8
:101DC0009F938F930E9448050F900F900F900F9054
:101DD0000F900F9008958091460520E1382F321B17
:101DE00008F430E0832F61E00E94C90E08958091CD
:101DF000460520E1382F320F08F43FEF832F61E0D2
:101E00000E94C90E089530914205337071F180939C
:101E1000430560934405493708F048E7409345057A
:101E200030911F04322B30931F0430911E0430FF79
:101E30001CC050E09927211119C023E631E05F93BF
:101E40004F931F926F939F938F933F932F938FED99
:101E500095E09F938F930E9448058DB79EB70A9691
:101E60000FB6F8949EBF0FBE8DBF089525E631E0F2
:101E7000E6CFE2E4F5E0438120E1421B08F440E0D4
:101E8000818121E0628190E00E94030F0895E2E4E5
:101E9000F5E0438120E1420F08F44FEF818121E01A
:101EA000628190E00E94030F0895E2E4F5E0628110
:101EB00020E1621B08F460E0818121E0438190E031
:101EC0000E94030F0895E2E4F5E0628120E1620FD1
:101ED00008F46FEF818121E0438190E00E94030FBD
:101EE0000895E2E4F5E0818121E043816281885038
:101EF000990B0E94030F0895E2E4F5E0818190E0E0
:101F000021E04381628108960E94030F0895909119
:101F10004205937051F1811129C09460909342055C
:101F20001092500180911F04862B80931F04809192
:101F30001E0480FF1AC0209142052695269583E64F
:101F400091E0662311F085E691E01F922F939F9315
:101F50008F9385EC95E09F938F930E9448050F9097
:101F60000F900F900F900F900F900895883010F001
:101F70009C61D4CF880F880F982BD0CF80914205D9
:101F800086958695815009F487E061E00E94870F6D
:101F9000089580914205869586958F5F883008F078
:101FA00081E061E00E94870F089580911E0480FF08
:101FB00008C081EA95E09F938F930E9448050F9097
:101FC0000F908DE0809342058091550190915601CC
:101FD000A09157018093430590934405A093450534
:101FE00088E7809346058FEF809347050E94BE0ED9
:101FF0000895B0E0A0E0EFEFFFE00C9422317C0107
:102000005B01842E752E690180915B0301E010E075
:102010008A3010F40AE010E0C1E0D0E0B501C70159
:10202000F6010995982E811114C021960C171D07F1
:10203000B4F480911E0480FF0CC07F928F9284EED6
:1020400092E09F938F930E9448050F900F900F90FE
:102050000F90892DCDB7DEB7EDE00C943E31CC9FCB
:102060009001CD9F300D300D112490E080E045E3CC
:102070004A95F1F70000019628173907C1F7CECF2E
:10208000B0E0A0E0E6E4F0E10C942031182F80915C
:102090004F01811323C090914205937020914E010E
:1020A00030E081E09217130609F480E0817080939C
:1020B00054018091470590915301981739F080930E
:1020C000530140E060E080E00E948107183060F436
:1020D000E12FF0E0E254FD4C0C94883181E0E6CF32
:1020E00080915401811102C080E0A0C040E060E016
:1020F00080E00E948107F8CFC09152018EE0C89F16
:10210000C02D11240EE00C0F053408F004E40E94E9
:102110005808882319F0033208F002E20E94580898
:10212000811103C0C23208F4C2E26091430570918C
:102130004405809145050E94C407F62EE72ED82E4F
:10214000D0E0C01710F0802F6FC0FE01EA55FD4FA0
:10215000808190915301892331F02D2D4F2D6E2DCB
:10216000CE010E947E072196ECCFE0905201DEE086
:10217000ED9ED02D1124CEE0CD0FC53408F0C4E47F
:102180000E945808882319F0C33208F0C2E20E9466
:102190005808811103C0D23208F4D2E2609143059D
:1021A0007091440540914505E0911904F0911A049D
:1021B0008091460586958695869530E020E0E89FDB
:1021C000212DF89F200D311D1124922F96FD209571
:1021D000322F3F7096FD3F5F2695269526952670F7
:1021E000E22FF0E0EA53FE4F8181839F802D312D55
:1021F000112482958F703295307F832B2081820F3E
:1022000097FD819587FD8195880F282F249F212D8B
:102210001124822F0E94C407062FD72EC82EED2E20
:10222000F12CEC16D8F08C2F0E948108909152016D
:102230009F5F9093520181110CC082E08093500106
:1022400080915401811105C0111103C083E0809376
:102250005001CDB7DEB7EFE00C943C31F701EA5501
:10226000FD4F808190915301892331F02C2D402F17
:102270006D2DC7010E947E074FEFE41AF40AD1CFFB
:10228000C09152018EE0C89FC02D11240EE00C0FAA
:10229000053408F004E40E945808882319F003323A
:1022A00008F002E20E945808811103C0C23208F40B
:1022B000C2E2309146053695369521E0320F08F49A
:1022C0003FEF4091190450911A0490E080E0439F41
:1022D000812D539F800D911D1124F82ED0E0C01741
:1022E00008F031CFFE01EA55FD4F808190915301F6
:1022F000892391F0609143057091440580914505D3
:102300002F2D4C2F0E949A070E94C407462F282F7A
:10231000672FCE010E947E072196E1CFE090520107
:102320008EE0E89EE02C11247EE0F72EFE0C94E473
:102330009F1510F464E4F62E0E945808882329F0B3
:10234000A2E2AF1510F452E2F52E0E945808811156
:1023500005C0B2E2EB1610F442E2E42E8091540183
:10236000882361F040E060E080E00E948107E0EBBC
:10237000F3E08CE3DF011D928A95E9F78091520129
:10238000811115C08091AC039091AD030E94F106BC
:1023900021E08931910508F420E02093AB034997AF
:1023A00030F00E940C079093AD038093AC03A12CF6
:1023B000912CB12C96E0792E25E5622E3AEA832EF7
:1023C0005524539405C0ADE0A91508F453C0B12CB1
:1023D0002B2D30E07A9CE0011124FE01EE51FE4FDE
:1023E000E20FF31FC080CE1408F43CC0CF1408F0F5
:1023F00039C09394D12CF601EA55FD4F808190911C
:102400005301892309F42EC0C055DC4FC20FD31FDE
:102410000881302F262D321B08F430E070914405DE
:10242000282D200F08F42FEF40914505822F880FAB
:10243000820F8E5F282F249F212D1124822F682D3B
:10244000631B0E94C407462F282F672FC6010E94D6
:102450007E078091AB03882329F0452D041B08F4E7
:1024600000E00883B39486E0B812B2CFA3949AE058
:10247000A912A9CF8F2DD8CE00914505B3E00B9FAF
:10248000E0011124D695C795D695C7955C2EA02E50
:10249000B12C8FEF90E0B5010E947431762E8091BF
:1024A0005401882371F040E060E080E00E948107E1
:1024B000E0EBF3E08CE3DF011D928A95E9F71092DF
:1024C000AF038091AE038F5F8093AE03F12CE12CBC
:1024D000AC1ABD0A6701612CD701A055BC4F4D0154
:1024E0008091AF03862909F045C00E94E13185350E
:1024F00095400CF03FC0F4010083F601EE51FE4F11
:10250000E081EF3FD1F0D601A055BC4F2C91F0E017
:10251000521608F040C030E02C1B3D0B2C9FC00130
:102520002D9F900D3C9F900D1124B5010E946031AC
:10253000262F402FCF010E947E076394F6E0CF0E36
:10254000D11C2AE06212CCCF4FEFE41AF40A86E0E5
:10255000E816F10409F0BECF8091AE03781202C0F4
:102560001092AE038091AF038F5F8D31F0F48093B2
:10257000AF03BACDF601E055FC4F8081882309F402
:10258000BCCF801708F0B9CF9091AE037912B5CFC8
:1025900081508083B2CF029FC0011124BE010E94EE
:1025A0006031462F20E060E0C5CF1092AF0320EEEF
:1025B00033E089E09FEF900FE0EBF3E0D901893041
:1025C00021F446A9041301C096AB4D91401730F099
:1025D000ED012197988315960C931597319643E05A
:1025E000E63BF40761F78150265031098111E4CFB1
:1025F0007BCD87E797E00E94910818CE81E797E0AE
:10260000FACF4F925F926F927F928F929F92AF928A
:10261000BF92CF92DF92EF92FF926091150470917A
:10262000160480911704909118040E94190D6B01F3
:102630007C010E94FF0C4B015C018092150490927A
:102640001604A0921704B0921804A091EC03ECEECB
:10265000F3E08A2F90E04FEF5FEF60E070E04C19FD
:102660005D096E097F09A91328C08093EC0380914E
:102670001D04811135C090914205892F837019F096
:10268000892F8695869590915001913009F441C02B
:10269000992341F1923009F43FC0933009F43FC0CF
:1026A000FF90EF90DF90CF90BF90AF909F908F9072
:1026B0007F906F905F904F900895218D328D29010A
:1026C000712C612C441555056605770520F4815061
:1026D0009F5F3296C8CF2C0D3D1D328F218FF8CFD2
:1026E00080E0D1CF109252018092190490921A0486
:1026F000A0921B04B0921C0489E2ECEEF3E0A9E185
:10270000B5E001900D928A95E1F781E08093500148
:10271000C7CF0E944010C4CF0E946407C1CF8091F0
:102720001F0481110E94BE0E6091190470911A0459
:1027300080911B0490911C040E94190D6031710559
:102740008105910508F4ACCF10925001A9CFAFE0FC
:10275000B0E0EDEAF3E10C9422318E010F5F1F4FE0
:102760008AE0D8011D928A95E9F78EE2C82E81E0B1
:10277000D82EF12CE12CAA24A394B12C2EE2822E87
:1027800021E0922EF60181916F018F3F09F442C042
:10279000F894E82FE295EF70F0E021A18F70A50189
:1027A00002C0440F551F8A95E2F7CA01922F982B59
:1027B00091A392A18095892382A3789400C0E8E236
:1027C000F1E0712C31E021912F3F09F46BC0A22F71
:1027D000A295AF70B0E090968C9190E02F7002C0FF
:1027E000959587952A95E2F780FD5CC0832F782A1E
:1027F000330F8E169F0639F7F601319780818F3F90
:1028000011F00E94110950EA5A95F1F7F801EE0D06
:10281000FF1D70828FEFE81AF80AA5E0EA16F104AE
:1028200009F0B0CF4AE050E0B80182E893E00E949E
:10283000F131009741F02AE0F801A2E8B3E00190FD
:102840000D922A95E1F700918D03892B69F181E0C2
:10285000809352030E940C0790935103809350037E
:1028600080915003909151030E94F106059700F169
:1028700010E00F551C4F45E050E062E873E0C801DE
:102880000E94F131C12C892B51F085E0E2E8F3E0A0
:10289000D80101900D928A95E1F7CC24C39410924F
:1028A000520307C080E0A3CF809152038111D8CF9B
:1028B000C12C0E94CB0CD82EE0918D03882309F403
:1028C00092C07E01BBE0EB0EF11C85E0D7011D92AA
:1028D0008A95E9F70E2F10E00F551C4FB0905B035F
:1028E000B9E0BB15E0F12DEA3BE14CE651E0B70160
:1028F000C8010E94F90F882309F453C025EF3AE17B
:1029000049E751E0B701C8010E94F90F882309F493
:1029100048C02BE43BE144E851E0B701C8010E9404
:10292000F90F8823F1F1F9E0FB1508F453C0109278
:102930005B0380918C0390E045E050E0B7018F5538
:102940009C4F0E94F13121E020935903892BE1F43F
:10295000D12C8D2D8C292F96EDE00C943E31809159
:102960005303909154030E94F106843F914008F074
:10297000BACF80915903882359F385E0D7011D927E
:102980008A95E9F710925903A0918C03B0E0AF55F6
:10299000BC4F85E0FE013B9601900D928A95E1F7D0
:1029A000D8CF80915B038F3F31F08F5F80935B03C3
:1029B0008A3008F4BECF0E940C0790935403809392
:1029C000530380911E0480FFD4CF8EEA92E00E94D0
:1029D000AF04CFCF80911E0480FFA9CF8BE992E096
:1029E0000E94AF04A4CFF0E0EF55FC4F85E0AAE6CB
:1029F000B3E001900D928A95E1F78AE693E00E9498
:102A000051058093690380906F0390907003A090AC
:102A10007103B09072038091550390915603A09179
:102A20005703B091580388169906AA06BB06D1F041
:102A30008092550390925603A0925703B092580388
:102A40000E94CB0C81110EC00E940007861A970AC3
:102A5000A80AB90A80927E0390927F03A092800315
:102A6000B092810386E0E3E7F3E0A2E4B5E00190F1
:102A70000D928A95E1F710917903112349F0809125
:102A80001D04811105C00E94401080E00E9464076F
:102A900010931D045ECF0F931F93CF93DF9380910C
:102AA000EE049091ED04892B8093EC0290914E03FB
:102AB000992391F0892B8093EC0220E08EEE92E036
:102AC000FC013191CF0131112F5FF2E0843F9F076C
:102AD000B9F721110E94EB0A48E050E066E473E088
:102AE0008CEE92E00E94F131892B09F441C088E01C
:102AF000ECEEF2E0A6E4B3E001900D928A95E1F7E6
:102B0000E091F304F091F404309791F10280F381A5
:102B1000E02D8CEE92E0099580911E0482FF28C082
:102B200080FF04C089E892E00E94AF04D0E0C0E0DA
:102B300003E812E080911E0480FF0EC0FE01E45104
:102B4000FD4F80811F928F931F930F930E94480522
:102B50000F900F900F900F902196C830D10551F72C
:102B600080911E0480FF04C081E892E00E94AF04BF
:102B7000DF91CF911F910F910895CF93DF93EC01D7
:102B8000EA85FB85309719F06C857D8509958B81E9
:102B90000E94F10A8C810E94F80A0E944B1586E07F
:102BA000FE0111928A95E9F7DF91CF910895CF93B5
:102BB000DF93EC018D8181FD18C082608D8380914F
:102BC000ED049B81892B8093ED048091EE049C8120
:102BD000892B8093EE040E944B15E885F985309788
:102BE00021F06C857D85CE0109951092F00410923C
:102BF000EF048D8180FD03C0CE010E94BD15DF91E1
:102C0000CF91089590E080E00E94480790E080E036
:102C10000E9432071092ED040E944B150895809394
:102C20004B050E940216089580914B05982F9670CF
:102C3000963021F488600E940F160895877FFBCF9D
:102C400021E030E001C0220F8A95EAF720958091BB
:102C50004B0582230E940F1608959091450380959D
:102C6000892380934503282F277091F4282F082E5D
:102C7000000C330B9217130659F090918F0392FFBB
:102C800007C08595859585950E942016109245036D
:102C90000895CF93DF93D82FC0918F03C2FB88276D
:102CA00080F98D1711F1D0FBC2F9C0938F036091A9
:102CB0008E0384E090E00E9435326C2F82E290E037
:102CC0000E94353282E00E942D1680911E0480FF02
:102CD0000CC01F92DF938CE692E09F938F930E942B
:102CE00048050F900F900F900F90DF91CF910895AE
:102CF00021E030E001C0220F8A95EAF780914B0570
:102D0000822B0E940F16089580934F030E94021693
:102D100008951092EE04EEEEF2E086E0DF011D92DF
:102D20008A95E9F70E9402160895AAE2B0E0EBE95D
:102D3000F6E10C942C3181E195E02091F100DC0169
:102D40002D93CD01B5E089319B07B9F7809112052C
:102D5000833009F472C0B8F4813009F449C082307C
:102D600009F4B3C08091E80083FF91C280911105FE
:102D7000909112059A3008F08AC2E92FF0E0EA53E8
:102D8000FD4C0C9488318A3009F48EC08B3009F4E4
:102D900071C0893039F780911105813219F780911E
:102DA000150590911605009711F00297D9F68091BC
:102DB000E800877F8093E8008091E80082FF38C0B8
:102DC0009091F3008091F200029731F48091F1002C
:102DD000813011F0863021F48091F1008093040558
:102DE0008091E8008B778093E8000E94E205BACFDB
:102DF00080911105813A09F0B5CF8091E800877F75
:102E00008093E8008091150590911605892B61F457
:102E100068E085E095E070E00E948E068091E80011
:102E20008B778093E8009ECF60E090E080E0F3CF66
:102E300080910F058111C0CF95CF80911105813A06
:102E400009F090CF8091150590911605892B09F016
:102E500089CF8091E800877F8093E8008091E80027
:102E600080FFFCCF809151018093F1008091E800B8
:102E70008E77B9CF80911105813209F073CF80919F
:102E8000150590911605892B09F06CCF8091E8000B
:102E9000877F8093E8000E94E2058091130580936C
:102EA00051010E9489165ECF80911105813209F08F
:102EB00059CF8091E800877F8093E8000E94E20567
:102EC00080911405809303054DCF80911105813ABF
:102ED00009F048CF8091E800877F8093E8008091D7
:102EE000E80080FFFCCF80910305BECF803899F0C9
:102EF000823809F0CCC1809115058F70873008F0B9
:102F0000C6C18093E9008091EB0085FB882780F99A
:102F10001092E90006C080910D0590910E05911167
:102F200082609091E800977F9093E8008093F10091
:102F30001092F1008091E8008E77A5C1882309F4F2
:102F400093C1823009F0A3C180911305811196C10C
:102F5000809115058F702FEF280F263008F097C14C
:102F60008093E9002091EB0020FF88C1933031F479
:102F70008091EB0080628093EB0080C19091EB0028
:102F800090619093EB0021E030E001C0220F8A9520
:102F9000EAF72093EA001092EA008091EB00886043
:102FA000EACF811174C1109113051F778091E3005E
:102FB0008078812B8093E3008091E800877F809365
:102FC000E8000E94E2058091E80080FFFCCF80913C
:102FD000E30080688093E30082E0111183E0809336
:102FE0000F0555C18058823008F051C1209113055A
:102FF000309114052C3DE3E03E07A1F583E08A8380
:103000008AE289834FB7F894DE01139620E03EE010
:1030100051E2E32FF0E050935700E49120FF03C00A
:10302000E295EF703F5FEF708E2F90E0EA30C0F0D6
:10303000C7968D939D932F5F243159F74FBF809191
:10304000E800877F8093E8006AE270E0CE01019695
:103050000E948E068091E8008B778093E80017C16C
:10306000C096E7CF8091150590911605432F5527FF
:103070004330510509F44AC078F54130510509F44F
:103080007AC08BE790E0E5E1F8E04230510509F0C5
:10309000FEC02091E800277F2093E80020911705CB
:1030A000309118058217930708F49C0140E0211520
:1030B000310509F065C0411163C08091E80082FDCF
:1030C000C9CF80910F05882329F2853019F28091AC
:1030D000E80083FFF2CFBECF4132510509F43CC076
:1030E0004232510509F0D3C08430910508F0CFC0B9
:1030F000FC01EE0FFF1FEE52FE4F0190F081E02D1C
:1031000082539E4FDC018C9190E01AC0332721300E
:103110003105D1F02115310561F02230310509F07A
:10312000B6C0E2EAF8E0E4918E2F90E0E2EAF8E03F
:1031300007C0EEECF8E0E4918E2F90E0EEECF8E0C2
:10314000009709F4A4C0A5CFEEEBF8E0E4918E2F30
:1031500090E0EEEBF8E0F4CF8430910508F097C0F2
:10316000880F991FFC01E652FE4F0190F081E02D7F
:1031700089E090E08ECF82E190E0E0E9F8E089CF4D
:1031800080910F05882309F465CF853009F462CF5B
:103190008091E80083FD5ECF8091E80082FD8DCFB5
:1031A0008091E80080FF83CF9091F3008091F2003E
:1031B0002115310519F08830910550F041E008974C
:1031C00009F040E08091E8008E778093E8006FCFAF
:1031D00044914093F1003196215031090196E8CF96
:1031E000803809F054C08091E800877F8093E80020
:1031F000809110058093F1009DCE811148C01091FF
:103200001305123008F043C08091E800877F809357
:10321000E800109310050E94E205112311F084E0EC
:1032200005C08091E30087FDFACF81E080930F0510
:1032300042E061EC81E00E94010642E261EC84E040
:103240000E94010642E261EC82E00E94010642E235
:1032500060EC83E00E94010642E261EC85E00E949E
:10326000010680910F0513C080911305813079F418
:1032700081E0933009F080E080930E051092E90020
:103280008091E800877F8093E8000E94E2058091AA
:10329000E80083FF0AC08091E800877F8093E80000
:1032A0008091EB0080628093EB00AA96E3E00C949F
:1032B00048310E9489162FEF84E39CE02150804022
:1032C0009040E1F700C0000088E19CE00FB6F89460
:1032D000A895809360000FBE90936000FFCF882375
:1032E00021F00E94F10A0E944B1508958091EC0490
:1032F000882329F082E20E946F191092EC0408954D
:10330000882339F09091ED04982B9093ED040E945E
:103310004B150895882321F00E94F80A0E944B154E
:103320000895882339F09091EE04982B9093EE0441
:103330000E944B150895882391F19CEF980F913AC4
:1033400080F4EEEEF2E024EF32E09191891303C0B5
:10335000DF0111971C922E173F07B9F70E944B15FA
:10336000089590E2980F983050F4877091E001C072
:10337000990F8A95EAF7892F0E94F80AEFCF9BE50B
:10338000980F933028F490E080E00E944807089559
:10339000885A873120F490E080E00E943207089537
:1033A000CF93DF93EC010E949B19CE010E948C0BFE
:1033B0009E01205E31092830310510F0CD2B29F413
:1033C0000E948A19DF91CF9108950E946F19FACF58
:1033D000FC018281813031F4FB01808191810E9466
:1033E000D01908958230E9F7FB0182819381F7CFEC
:1033F000CF93C82F8823B1F08CEF8C0F813A00F562
:10340000EEEEF2E084EF92E0DF012D91C21761F061
:103410008A179B07D1F76C2F8CEE92E00E94180759
:103420000E944B15CF9108952191C21303C0DF0173
:1034300011971C928E179F07B9F70E944B15EBCF7F
:1034400080E28C0F883068F4C77021E030E001C062
:10345000220FCA95EAF78091EE04822B8093EE0446
:10346000DFCFEBE5EC0FE33040F4F0E0E157FE4F47
:10347000808190E00E944807D5CFC85AC73190F6A6
:10348000EC2FF0E0EE0FFF1FEE56FE4F8081918192
:103490000E943207C7CF1F93CF93DF93182FD0E03E
:1034A000C0E0893311F4C0E5D0E0812F0E94F81903
:1034B000209739F4812F0E949B19DF91CF911F91A2
:1034C00008958FE99FE00197F1F700C00000219770
:1034D000EFCF0F931F93CF93DF93C62FD42F022FDD
:1034E000FC0182818823A9F060934A050E940C07A1
:1034F0009093490580934805C77081E001C0880F0B
:10350000CA95EAF70E949119DF91CF911F910F910F
:10351000089580914A05681332C0809148059091C2
:1035200049050E94F106883C910548F510E21D0FFF
:10353000CD17B9F080E28C0F883040F4C77081E07D
:1035400001C0880FCA95EAF70E948A19183048F41A
:1035500081E09D2F977001C0880F9A95EAF70E942D
:103560009119802F0E944B1A183070F6D77081E0A5
:1035700001C0880FDA95EAF70E948A19C5CFC77093
:1035800081E001C0880FCA95EAF7F6CFCF93DF93A9
:10359000EC010E948C0B9E01205E31092830310520
:1035A00010F0209741F40E9491198C2F0E94F81975
:1035B000DF91CF9108950E948019F7CFFB018081A0
:1035C00091810E94C61A0895CF93DF93EC018A81FE
:1035D000823041F4FB01828193810E94C61A8D8161
:1035E00082608D83DF91CF910895A4E0B0E0EBEF8E
:1035F000FAE10C942C31409165035091660360917F
:103600006703709168032FB7F8948091F804909144
:10361000F904A091FA04B091FB042FBF841B950B11
:10362000A60BB70B11E084369105A105B10570F129
:103630000E94FF0C6E5F7F4F8F4F9F4F69837A838D
:103640008B839C838091190190911A0187599C4F1B
:103650004091180150E04530510510F044E050E031
:10366000BE016F5F7F4F0E94FE3182E090E00E94BA
:10367000A730182F882351F00E940007609365033C
:10368000709366038093670390936803812F249659
:10369000E3E00C944831A7E0B0E0E1E5FBE10C94F5
:1036A0002B3186E0E2E4F5E0DE01119601900D9207
:1036B0008A95E1F780911D048F8347E050E063E72E
:1036C00073E0CE0101960E94F13100917A031091CE
:1036D0007B0320917C0330917D03EFB7F8944091F8
:1036E000F8045091F9046091FA047091FB04EFBF63
:1036F000401B510B620B730B44365105610571057C
:1037000018F411E0892B21F180912101909122017F
:1037100087599C4F4091200150E04830510510F0EE
:1037200047E050E0BE016F5F7F4F0E94FE3183E0B3
:1037300090E00E94A730182F882351F00E940007C4
:1037400060937A0370937B0380937C0390937D0353
:10375000812F2796E4E00C944731EF92FF921F935C
:10376000CF93DF9300D000D000D0CDB7DEB77B0180
:1037700090E080E00E94A730182F882309F480C0D1
:1037800040910B0150E04115510511F041E050E02E
:1037900060910C0170910D0167597C4FCE01069626
:1037A0000E94FE3140916103509162036091630376
:1037B000709164032FB7F8948091F8049091F90404
:1037C000A091FA04B091FB042FBF841B950BA60BAC
:1037D000B70B84369105A105B10540F48AE693E064
:1037E0000E9451059E81891709F44AC081E090E04A
:1037F0000E94A730811116C010E085E0ECE5F3E0EF
:10380000D70101900D928A95E1F7812F26960FB688
:10381000F894DEBF0FBECDBFDF91CF911F91FF9017
:10382000EF9008954091130150E04630510510F09B
:1038300045E050E0609114017091150167597C4F8B
:10384000CE0101960E94FE318AE693E00E94510566
:103850009E818913D1CF0E9400076093610370930A
:103860006203809363039093640385E0FE013196C5
:10387000ACE5B3E001900D928A95E1F711E0BDCF80
:1038800085E0EAE6F3E0DE01119601900D928A955B
:10389000E1F71111EACFB1CF90E080E00E941F3232
:1038A000883E9E4F19F40E94970E089580E0089577
:1038B00068EE7EEF90E080E00E94533260E082E0AC
:1038C00090E00E94353260E083E090E00E94353263
:1038D00010924F0360E084E090E00E94353264E093
:1038E00082E290E00E94353260E085E090E00E9444
:1038F000353260E086E090E00E9435326FEF87E07D
:1039000090E00E94353240E050E0BA0188E090E05B
:103910000E94473260E08DE090E00E94353240E046
:1039200050E0BA0188E190E00E94473260E087E110
:1039300090E00E94353240E050E0BA018CE190E026
:103940000E94473270E060E080E290E00E945332D3
:1039500040E050E0BA0188E190E00E94473280E008
:103960000E94A80D0E94C10D40E050E0BA018FE016
:1039700090E00E94473240E050E0BA0183E190E0DD
:103980000E9447320895A4E0B0E0E9ECFCE10C9419
:103990001E318C01DC0113968D919C911497892B1B
:1039A00049F04C9111965C911197842F85238F3F9C
:1039B00009F06AC62496E1E10C943A318114E4E0FE
:1039C0009E0609F4C8C6C4010E941732811101C0C5
:1039D000EA94FFEF8F1A9F0A9BC64701CE0101961A
:1039E0007C01D7012C91222309F49AC6213009F0D9
:1039F0004BC011969C91119712968C91913031F495
:103A0000B2E0EB0EF11C0E944B1A07C0923049F451
:103A1000E2E0EE0EF11C0E94F819EFEFEE1AFE0A3A
:103A2000E0CF933031F4F2E0EF0EF11C0E949B19CD
:103A3000F4CF943021F02FEFE21AF20AEECF32E009
:103A4000E30EF11C30E020E0B7016F5F7F4FD7013C
:103A500011964C918053990B8A30910550F021506A
:103A60003109D8F2EFE9FFE03197F1F700C000002B
:103A7000F6CF329EF001339EF00D11249C012E0FE3
:103A80003F1F842F7B01E0CFE22FF0E0EE56FE4F88
:103A90005490822F86958695869590E0FC01EE578E
:103AA000FE4F64902770712C022E02C075946794AB
:103AB0000A94E2F731E063227724FC01EE58FE4FCE
:103AC000A490B12C022E02C0B594A7940A94E2F7F8
:103AD000A1E0AA22BB24FC01EE59FE4FC490D12CD8
:103AE00002C0D594C7942A95E2F7B1E0CB22DD2439
:103AF0006114710419F081EE0E94F819A114B10447
:103B000019F086EE0E94F819852D0E944B1AA11417
:103B1000B10419F086EE0E949B196114710419F02A
:103B200081EE0E949B19C114D10409F476CF8CE276
:103B30006ACF81E00E9478160E9414160CC681E0BC
:103B40000E942016F9CF82E0F5CF9E2D8F2D53C510
:103B5000FD01858181FF53C5CD010E94BD154FC573
:103B6000FCEAEF16FDE5FF0609F049C5882309F4D4
:103B7000F2C58091EC04882319F00E947619EBC5F8
:103B80001092EE040E94EB0A0E940C0788579C4E8C
:103B900090939F0380939E0381E08093EC04DBC5A8
:103BA000E11482E5F80608F05FC5D80112968C9101
:103BB000882309F4E2C510924A05B3E0EB16BDE58F
:103BC000FB0608F0DBC0EAEFEE16ECE5FE0630F48B
:103BD000C70182509C45449708F0DDC00E94B00E9A
:103BE00090938F0380938E0382E1E8168CE5F806AC
:103BF00009F4F8C108F036C1A9E0EA16ACE5FA0606
:103C000009F4CEC108F0F9C0E5E0EE16ECE5FE06D9
:103C100009F4BAC108F0DDC023E0E2162CE5F20693
:103C200009F4AAC108F0ACC182E0E8168CE5F806F8
:103C300009F49AC160918E03F0908F0384E090E0C4
:103C40000E9435326F2D82E290E00E9435320E9450
:103C5000891681C5E11499E5F90660F4E114A8E537
:103C6000FA0608F0A2CFB4E1EB16B5E5FB0609F0C1
:103C7000FBC49BCFC70190568115904208F0F4C455
:103C8000D80115968C91807F91F58F2D8F7182319F
:103C900039F110F5823021F10E94761923EFE216F6
:103CA0002CE5F20609F45BC008F042C088EDE81686
:103CB0008CE5F80609F44FC099EDE9169CE5F90684
:103CC00009F459C0A7EDEA16ACE5FA0609F06DCF84
:103CD00026E241EE61EE3BC0843101F38631E1F62C
:103CE0001092ED04D9CFF8018581807FB9F2C70128
:103CF00099271092ED048832910548F48E31910590
:103D000068F4049748F282E08093ED0407C08D3296
:103D10009105C9F330F48A9709F0BECF0E944B1584
:103D2000BDCF8C349105D1F38D329240B9F3B4CF2D
:103D3000B5EFEB16BCE5FB06D1F0A8F027E245EEA7
:103D400066EEF6EFEF16FCE5FF0609F02ECFC80190
:103D50000E94691A00C527E245EE65EEF8CF26E21B
:103D600041EE60EEF4CF27E245EE64EEF0CF26E2BE
:103D700041EE62EEECCF28E241E0EFCFF5EAEF163C
:103D8000FDE5FF0609F42ACFF0F431E6E3163DE540
:103D9000F30609F423CF86E1E8168CE5F80609F06E
:103DA00087C58091EE048A7A91E009F490E09093BF
:103DB000F40269E2811165E38CEE92E00E9418073B
:103DC0000E944B15C8C4C7018D5A9D45039718F72B
:103DD00005CF80918E03806297E0E9169CE5F90695
:103DE000F1F180918E038061A8E0EA16ACE5FA0655
:103DF000B0F180918E03806432C0BDE0EB16BCE56B
:103E0000FB0609F4D7C0A0F480918E038E7FFBE0FF
:103E1000EF16FCE5FF0619F180918E038C602CE013
:103E2000E2162CE5F206D8F080918E038D7F17C044
:103E30003FE0E3163CE5F30609F4CCC008F4BEC04D
:103E400090E1E9169CE5F90609F4C8C080918E035B
:103E50008F7BA1E1EA16ACE5FA0609F0EBCE809380
:103E60008E03E8CEBFEFEB16BCE5FB0609F4C4C039
:103E7000D8F5FAEFEF16FCE5FF0609F489C0D0F497
:103E800034E1E3163CE5F30609F4C4C008F4B0C01D
:103E900095E1E9169CE5F90609F0CCCE80918E03F8
:103EA00082FB992790F921E0922790FB82F990FB01
:103EB00083F9D5CFACEFEA16ACE5FA0609F482C077
:103EC00008F46AC0EDEFEE16ECE5FE0609F47EC0DC
:103ED00080918F038360FEEFEF16FCE5FF0609F08B
:103EE000A9CE80938F03A6CE21E6E2162DE5F20639
:103EF00009F49BC0A0F481E0E8168DE5F80609F40A
:103F000092C008F47DC060E0A2E0EA16ADE5FA06D2
:103F100009F090CE8EE090E00E9435328BCEBDEA63
:103F2000EB16BDE5FB0621F168F490918E03892F15
:103F30008E7F90FF8160F5EAEF16FDE5FF0609F43C
:103F40008ECF78CE2EEAE2162DE5F20679F13FEA21
:103F5000E3163DE5F30609F06DCE90918F03892FAE
:103F6000877F93FF8860BDCF80918E03816077CF7C
:103F700080918F038860B5CF80918E0382606FCF70
:103F800080918E0384606BCF80918E03886067CFB1
:103F900080918F038160A5CF80918F038260A1CF34
:103FA0000E94891680918E03806859CF80918F037B
:103FB000877F97CF80918E038B7F51CF80918E0327
:103FC000877F4DCF80918F038E7F8BCF80918F0322
:103FD0008D7F87CF80918E038F7E41CF80918E031E
:103FE0008F7D3DCF0E94891680918E038F7737CFCA
:103FF00080918E03837F33CF80918F038C7F71CF2D
:1040000080918F03982F909591708E7F892B90FBD4
:1040100081F967CF0E94891690918E03892F97FBB3
:1040200087F980581CCF61E075CF90918E03892F5E
:104030008F7E94FF806113CF8091F40281110FC0B5
:1040400089E2EEEEF2E024EF32E09191891303C0B1
:10405000DF0111971C922E173F07B9F7B1CE85E308
:10406000F0CF4EEB5FE069EC7FE00E945E0773C328
:1040700049EC5FE06EEB7FE0F8CF41E75FE06CE793
:104080007FE0F3CF49E35FE067E47FE0EECF61E0FC
:1040900081E00E94870F5FC390911E04892F8E7F5D
:1040A00090FF816080931E0480FF05C08BE592E045
:1040B0000E94AF0450C389E492E0FACF0E94581CDA
:1040C0000E94591980918F0382FB882780F991E023
:1040D00089270E944916D80112968C911297ED906B
:1040E000FC90882309F445C0C7010E940E0ED82E0B
:1040F000682FC7010E943D0BB7018D2D0E94000E55
:104100000E946B097C01882EF801D280B580B294A0
:104110003FE0B322809145038770C1F0AD2CDD20D4
:10412000B1F08F2D807F803421F080E28E0D8830B9
:1041300068F080918F0382FF09C082E00E942D16F3
:10414000809145038770AA24A3948111A12C9F2CF0
:1041500092942FE09222FBE0F91508F46FC0E92D4C
:10416000F0E0E053FD4C0C94883181E0B2CF80E068
:10417000B0CFC7010E94090BD82EBECF2F2D2F70B4
:10418000C22E8F2D807F19F0C29490EFC922DD20BE
:10419000B9F0CC2069F080E28E0D883010F08110EB
:1041A00009C08091EE04C82AC092EE040E944B150B
:1041B0008E2D42C08091ED04C82AC092ED04F6CF46
:1041C0008E2D0E949B19CC20C9F180E28E0D883083
:1041D00010F0811004C08C2D0E94F80A03C08C2DB1
:1041E0000E94F10A0E944B1529C03F2D3F70C32E3B
:1041F0008F2D807F803219F0C29480EFC8228820F2
:1042000059F081E0881609F471C0DD2009F47BC003
:10421000BB2009F471C0CCCF20918F0322FD43C095
:10422000DD20D9F1CC2039F08091EE04C82AC0926B
:10423000EE040E944B1580E00E94F819A92DA850A9
:10424000BB0B149710F40E94EE0CAA20A9F08091E9
:10425000450380FD11C0F8011282859585958595ED
:104260000E947816C8010E94C31C80914503859561
:10427000859585950E94201620E0D8014C911196D5
:104280005C91119712966C91129713967C911397EB
:1042900014968C910E94740E8DCB80E00E949B1925
:1042A000CC2061F298CFDD20A1F090914E038C2DAF
:1042B000892BB11003C00E949119C0CFA1E0BA129E
:1042C000FACF22FFBBCF981709F4B8CF80934E03E3
:1042D000B5CFB11006C00E94EB0A8C2D0E948A193E
:1042E000ADCFB1E0BB1609F4A9CFF5CFDD2031F099
:1042F000E5E0EB1508F4A2CF8C2DDDCFF4E0FB1543
:1043000008F49CCFEACFBB2041F329E3821209C015
:104310003FEF87EE93E0315080409040E1F700C0DE
:1043200000008E2D0E949B1989CF8F2D8695869532
:10433000837061F0813009F081CFC7019370D11093
:1043400002C090E080E00E94320778CFC7019370EE
:10435000D11002C090E080E00E9448076FCF8F2DFF
:10436000837091F5D1106ACF4E2D429546954770D6
:10437000440F440F8E2D8F70042E01C0880F0A94B5
:10438000EAF72E2D2071E4FE07C02FE030E001C0D7
:10439000220F4A95EAF720953F2D369536953370D2
:1043A000323069F050F440914F03313029F0822BC4
:1043B00084230E94841642CF842B822BFACF282B91
:1043C00080914F038227F5CF8695DD2011F08F2D48
:1043D0008170882309F432CF4E2D4295469547705F
:1043E000440F440F8E2D8F70042E01C0880F0A9445
:1043F000EAF72E2D2071E4FE07C02FE030E001C067
:10440000220F4A95EAF720953F2D36953695337061
:10441000323069F050F440914B05313029F0822B55
:1044200084230E940F160ACF842B822BFACF282BCD
:1044300080914B058227F5CFAF2DAF70FA2EDD208E
:1044400029F08A2F0E9478168E2D35CF8E2D0E944E
:104450008A198F2D0E942016F1CE8E2DB2EF8B1669
:10446000B1F1B81570F0E0EF8E16D1F0F1EF8F16C4
:1044700091F0DD2009F45EC0B1109ACE8F2D8F71BE
:104480002AC023EF821651F134EF8312F2CF8091CC
:104490008F0382FD2FC08F2D8F71DD20D9F21BC0BD
:1044A000DD2081F084E08B1508F4C8CE2F2D2F710C
:1044B00081E090E001C0880F2A95EAF790914B05C2
:1044C0008927AFCF95E09B1508F4B8CEEFCF8F2D9D
:1044D0008F71D110BFCF0E947816B0CE80E0DD2062
:1044E00009F49FCF9F2D9F7181E001C0880F9A959D
:1044F000EAF797CFDD2099F0AF2DAF71FA2E8A2F12
:104500000E94781680918F0382FF07C0B8E0FB9E5F
:10451000C00111248360809345038F2DDCCF81E09F
:104520000E942D16E1E0EB1508F088CE82E00E9493
:104530002D1684CEBB2059F0893309F0F2CEFFEF5F
:1045400027EE33E0F15020403040E1F7E8CE8F2DE8
:104550008F7180CFB0E1EB16BFE5FB0609F4E9CA25
:10456000E1E1EE16EFE5FE0609F4EDCA97013755D5
:104570002F3F310511F008F0F3CA5701BB242EE09C
:10458000E29EF0011124DF01A05CBE4F6D01EB5BE8
:10459000FE4F908180FB90F99083882309F4D8CA5C
:1045A0000E940C0790939D0380939C03F6018281E7
:1045B0008F5F82838091ED049091EE04892B838339
:1045C00080914E0384830680F781E02D309731F08F
:1045D000D6011C966D917C91C60109958EE08A9D4D
:1045E000F0018B9DF00D1124E05CFE4F858181FF71
:1045F000ACCA90E080E09093EF048093F004809147
:10460000EC04882309F44ACBC090EE04D0904E030A
:104610000E940C0788579C4E90939F0380939E03A3
:10462000D80112968C91882309F438CB8D2D8C29D2
:104630008D7909F031CBE114B5E5FB0608F00ACB22
:10464000E114E3E5FE0608F0B0CAE114F0E5FF0668
:1046500008F0A6CAE11420E4F20608F044CB36EED6
:10466000E316F10409F4A1CAC70143CBF0E1EF1648
:10467000FFE5FF0609F463CA21E1E2162FE5F20621
:1046800009F074CF82E05CCA21E012966C91129717
:1046900013967C91139714968C910E94740E7C0152
:1046A000F80182818823E1F08091EF049091F00479
:1046B0000097B1F08E159F0599F0BEE08B9FC00169
:1046C0001124FC01EB5BFE4F208124602083805C81
:1046D0009E4FFC01F182E0820E94D7151092ED04FA
:1046E000D80112968C91882309F2970122513F45F7
:1046F0002031310508F02ECF8FEF93E00E94173262
:10470000811129C0BEEEEB0E57E0852E52E0952EAA
:10471000E11054C91C821B82442443944AE0342E85
:1047200074012FEFE21AF20AC4010E941732898342
:104730001A82882381F09FEF980F933008F04DC9BB
:104740008A83498232E0830E911CC7010E9417328E
:104750008B83811143C980914503877009F42AC96D
:10476000F8018281882309F425C980918F0382FF93
:1047700021C982E00E942D161DC9F6E1EF16FCE565
:10478000FF0609F459CC8091EE04827229ECE216FE
:104790002CE5F20609F476CC08F056C095ECE91643
:1047A0009CE5F90609F469CCB0F5B3ECEB16BCE571
:1047B000FB0609F456CC08F05BCCF2ECEF16FCE5F6
:1047C000FF0609F088CC80914205982F937021E074
:1047D00092278C7F892B8093420510925001809103
:1047E0001F04816080931F0480911E0480FFB3CF5B
:1047F0001F929F9385E691E09F938F9382E192E0D1
:104800009F938F930E9448050F900F900F900F90E9
:104810000F900F90A0CF45E55FE063E67FE027ECC7
:10482000E2162CE5F20609F420CC4CE75FE061E7E4
:104830007FE038ECE3163CE5F30608F416CC43E6DB
:104840005FE065E57FE011CC9DECE9169CE5F9069B
:1048500009F41DCCC8F44BEE5EE067EF7EE0BBECE4
:10486000EB16BCE5FB0609F400CC47E45FE069E326
:104870007FE0ECECEE16ECE5FE0608F4F6CB47EF35
:104880005EE06BEE7EE0F1CBF6EDEF16FCE5FF06A9
:1048900048F461E082E02FECE2162CE5F20608F421
:1048A000F8CB59CF3DE5E316F30609F454CF13CC0A
:1048B0008AE5E8168DE5F80609F457CCF0F4A1E096
:1048C000EA16ACE5FA0609F4E7CBBEEDEB16BCE55B
:1048D000FB0609F4F3CBE114ECE5FE0609F0FBCB93
:1048E0000E9489169FEFA4E3BCE09150A040B04025
:1048F000E1F700C000000E94800CFCE5EF16FDE52A
:10490000FF0609F4DFCB08F432CC37EAE3163DE5C5
:10491000F30609F4D5CBDFCB1F93CF93DF938091C0
:104920001203807F09F049C080910F03882309F4A6
:1049300044C080914403D091130360910D037091A2
:104940000E03A0911003B0911103C62FC72316E0E8
:10495000D81799F190E0109711F0CF3F19F4019614
:104960008770F6CF189F9001199F300D1124F9011F
:10497000EC5EFC4F41814713F2CF40814613EFCFED
:1049800042814111ECCF438154814A1B5B0B483C6F
:10499000510528F7809112038F7080618093120374
:1049A000F901E75EFC4F80818F70806180838DE02C
:1049B00093E00E94C31C0E94FF0ADF91CF911F91D8
:1049C0000895A1E1B0E0E7EEF4E20C9423318C010C
:1049D00085E0F801DE011D9601900D928A95E1F7C0
:1049E000D801DC901196CC9011971296EC9012970A
:1049F00013968D909C9020E040910D0350910E03F2
:104A000060910F0370911003809111030E94740E46
:104A1000AC018DE0A82E83E0B82E60911003709158
:104A200011036115710509F44CC190910D0320919A
:104A30000E03892F82238F3F09F443C1F0900F03A7
:104A4000F401E61BF70BFF2009F4F9C08091120373
:104A5000382F307FE83CF10508F0BDC0D801119631
:104A60004C911197311178C0FE2C421315C02C9136
:104A7000291312C0E11010C08F708061809312035F
:104A8000C5010E94C31C80911203F80185838F2DFC
:104A90006196ECE00C943F318114910429F08D2D46
:104AA0008C218F3F09F028C180E0F82FF170BF2ED4
:104AB00080FF3DC0809144032091130336E08213B0
:104AC00016C0DD86CE868D859E850E943D0E292FDF
:104AD00022952F702230F8F0243020F59F70F9F0E5
:104AE000D80115969C91907FD1F4B12C1EC090E016
:104AF000389FF001399FF00D1124EC5EFC4F41818D
:104B0000C41206C04081D41203C04281E4120FC017
:104B100001968770D4CF9F7011F0882331F3805EA7
:104B2000883018F3C8010E94C31CFB2CB0CFEE20C4
:104B300009F4ADCF809112038160809312038DE060
:104B400093E00E94C31C86E0EDE0F3E0DF011D92DC
:104B50008A95E9F7F12C9BCF421313C0F80120810D
:104B600029130FC0E1100DC08583C8010E94C31C2A
:104B700086E0F801ADE0B3E001900D928A95E1F78F
:104B800086CFC8010E944A0E882309F1EE20F9F071
:104B900080911203803270F020910D0330910E034A
:104BA00038872F8319869B868A868C87CE01079645
:104BB0000E94C31C86E0F801ADE0B3E001900D92C5
:104BC0008A95E1F70E948C24FF24F39460CFC801FA
:104BD0000E94C31CF9CF311107C08DE093E00E9401
:104BE000C31C86E0D501B3CFF801318132130FC069
:104BF000208129130CC0E1100AC08583C8010E94DE
:104C0000C31C86E0D5011D928A95E9F740CFC80103
:104C10000E944A0E8823D9F2EE20C9F28091120335
:104C2000803240F220910D0330910E033A832983A4
:104C30001B829D828C828E83CE010196B9CFE83C87
:104C4000F105C8F5FE2CEE2011F2F80181818213E6
:104C500024C08081891321C04C32F1E45F0709F43C
:104C600087CF4A32524609F483CF9091120390FDC8
:104C70007FCF907F09F47CCF80911203D8011596E5
:104C80008C931597903F09F470CF982F907F905F89
:104C90008F70892B15968C9368CFC8010E944A0E9D
:104CA000811188CF80911203816080931203C80123
:104CB0000E94C31CECCE86E0F50111928A95E9F7BB
:104CC000E6CEEE2009F483CFC8010E944A0EF82EEA
:104CD000882309F47CCF86E0F801ADE0B3E00190D1
:104CE0000D928A95E1F780910D0390910E030E9439
:104CF0003D0E0E948C24CBCE81E08E25D6CEA7E13E
:104D0000B0E0E5E8F6E20C942C314B8B5C8B6D8BBC
:104D10007E8B8F8B61111092ED041A8A198A85E0BF
:104D2000FE017396DE011D9601900D928A95E1F7C2
:104D300086E0FE013D96DE01179601900D928A9560
:104D4000E1F7CE0107960E94E124882359F016E08E
:104D50008091440390911303891343C06796E3E065
:104D60000C94483186E0FE013796DE0111960190E1
:104D70000D928A95E1F78A859B85892B41F38F8176
:104D8000988589238F3F19F32091130330E0C901DF
:104D9000019687709927409144034817190671F4CA
:104DA0000E948916109213031092440386E0EDE0EE
:104DB000F3E0DF011D928A95E9F7C9CF96E0929F53
:104DC000D001939FB00D1124AC5EBC4FFE01319613
:104DD00001900D929A95E1F7809313030E94FF0AC8
:104DE000B6CF819FC00111248C5E9C4F0E94E124AC
:104DF000882309F4B3CF8091440390E00196877033
:104E0000992780934403A4CF1F920F920FB60F925D
:104E100011242F933F934F935F936F937F938F93BF
:104E20009F93AF93BF93CF93DF93EF93FF93D09173
:104E3000E900DF708091EC00C82FC17080FDC0E8F0
:104E40001092E9008091F000877F8093F0007894C1
:104E50000E9495161092E9008091F000886080937E
:104E6000F000CD2BCF70C093E900FF91EF91DF915F
:104E7000CF91BF91AF919F918F917F916F915F91F2
:104E80004F913F912F910F900FBE0F901F9018954B
:104E90001F920F920FB60F9211242F933F934F93AF
:104EA0005F936F937F938F939F93AF93BF93EF9392
:104EB000FF938091E10082FF15C08091E20082FFA4
:104EC00011C08091E1008B7F8093E100209101056A
:104ED0002F5F822F62E30E945431992309F4C0C0EE
:104EE000209301058091DA0080FF28C08091D800CE
:104EF00080FF24C08091DA008E7F8093DA00809159
:104F0000D90080FFE3C080E189BD82E189BD09B499
:104F100000FEFDCF81E080930F0581E098E00E94C4
:104F2000AF0480910205811109C00E9468050E94AA
:104F300033068091E20084608093E2008091E1007A
:104F400080FF1BC08091E20080FF17C08091E200CB
:104F50008E7F8093E2008091E20080618093E20086
:104F60008091D80080628093D80019BC85E080933E
:104F70000F0589E098E00E94AF048091E10084FF72
:104F80002FC08091E20084FF2BC080E189BD82E1C7
:104F900089BD89B5982F917080FFFBCF8091D80093
:104FA0008F7D8093D8008091E1008F7E8093E10017
:104FB0008091E2008F7E8093E2008091E200816028
:104FC0008093E20080911005882309F489C084E071
:104FD00080930F058DE098E00E94AF0480910F054B
:104FE0008091E10083FF2BC08091E20083FF27C006
:104FF0008091E100877F8093E10082E080930F053C
:10500000109210058091E1008E7F8093E1008091E5
:10501000E2008E7F8093E2008091E20080618093C5
:10502000E20042E060E080E00E9401068091F00032
:1050300088608093F00081E198E00E94AF04FF91C6
:10504000EF91BF91AF919F918F917F916F915F9100
:105050004F913F912F910F900FBE0F901F90189579
:105060001092010580910005882309F43BCF8091BF
:105070000F058430C1F49091E9009F702091EC00FD
:10508000822F817020FD80E8892B95E09093E900C4
:105090009091EB0090FF04C09091EE0097FD08C046
:1050A0008F708093E900109200051CCF1092F100E0
:1050B0009091E80095FDFACF9091E80090FFF0CF35
:1050C0009091E8009E779093E800EACF19BC109287
:1050D0000F0585E098E00E94AF04109202052ECFE4
:1050E0008091E30087FD93E090930F0573CF789450
:1050F0001F921FB61F9211248F939F93AF93BF935C
:105100008091F8049091F904A091FA04B091FB0405
:105110000196A11DB11D8093F8049093F904A0930A
:10512000FA04B093FB04BF91AF919F918F911F90B0
:105130001FBE1F9018951F921FB61F9211248F93A8
:105140009F93AF93BF938091F704811113C0809117
:10515000F8049091F904A091FA04B091FB044196EF
:10516000A11DB11D8093F8049093F904A093FA0453
:10517000B093FB04BF91AF919F918F911F901FBE81
:105180001F901895CDB7DEB7E6970FB6F894DEBF3F
:105190000FBECDBF85B7806885BF85B7806885BFE6
:1051A00084B7877F84BF0FB6F894A895809160007C
:1051B000886180936000109260000FBE80E890E0EC
:1051C0000FB6F89480936100909361000FBE8DEB51
:1051D0009BE09093EB028093EA020E9468050E9494
:1051E00033068091E20084608093E200789480919D
:1051F0000F058823A1F01091E9001F709091EC0039
:10520000892F817090FD80E8182B1092E900809121
:10521000E80083FD0E9495161F701093E90082E05C
:1052200084BD93E095BD9AEF97BD80936E00109278
:105230007E0310927F0310928003109281030E94DC
:10524000970E811102C00E94C10D55985D988FE89C
:1052500091E00197F1F700C000000E945808809388
:1052600033010E94CB0C81110E94BB2F809133012E
:1052700081112CC085E0E8E5F1E0DE019196019016
:105280000D928A95E1F789A180932E018AA18093DE
:105290002F018BA1809330018CA1809331018DA1CE
:1052A0008093320186E0EDE5F1E0DE011196019098
:1052B0000D928A95E1F7FE013196A8E2B1E0CE01A8
:1052C000079621912D93E817F907D9F780913301BB
:1052D00095E0811190E090938D0385E0891B809388
:1052E0008C030EE211E0D8018D918D018F3F11F0FA
:1052F0000E941109B1E003331B07A9F708E211E08E
:10530000F80181918F018F3F11F00E941109F1E0A6
:105310000E321F07A9F78AE0E1EAF3E0DF01282F48
:105320001D922A95E9F7E2E8F3E0DF011D928A95E4
:10533000E9F70E944C1C811102C00E94581C82E0B7
:1053400090E00E94173280931E040E94B00E90934A
:105350008F0380938E030E94A713EFE3FCE931973C
:10536000F1F700C000000E94A7138091A10380FF05
:1053700008C06FEF7FEF90E080E00E9453320E9400
:10538000800C83E090E00E9417320E9484161092F5
:1053900019058FEF9FEF909333058093320590931B
:1053A00035058093340590933705809336059093A7
:1053B00039058093380590933B0580933A05909387
:1053C0003D0580933C0590933F0580933E05909367
:1053D0004105809340051092EC039093060480935E
:1053E0000504909308048093070490930A04809323
:1053F000090490930C0480930B0490930E04809303
:105400000D049093100480930F04909312048093E2
:10541000110490931404809313040E944C1C811176
:1054200010C080911E0480FF08C08BE394E09F931E
:105430008F930E9448050F900F900E94581C0E9465
:10544000D50F46E050E06CE170E082E495E00E9408
:10545000073210921F04809142058C7F71F4809175
:105460001E0480FF08C086EE93E09F938F930E94F6
:1054700048050F900F900E94D50F80911E0480FF69
:1054800089C08CEC93E09F938F930E944805809194
:105490001E040F900F9080FF7DC0809142058370A5
:1054A0001F928F938DEA93E09F938F930E944805FC
:1054B00080911E040F900F900F900F9080FF6AC094
:1054C00080914205869586951F928F9380E993E09F
:1054D0009F938F930E94480580911E040F900F9018
:1054E0000F900F9080FF56C0809143051F928F93BD
:1054F00082E793E09F938F930E94480580911E045A
:105500000F900F900F900F9080FF44C08091440542
:105510001F928F9384E593E09F938F930E94480599
:1055200080911E040F900F900F900F9080FF32C05B
:10553000809145051F928F9386E393E09F938F930D
:105540000E94480580911E040F900F900F900F90BD
:1055500080FF20C0809146051F928F9388E193E0E1
:105560009F938F930E94480580911E040F900F9087
:105570000F900F9080FF0EC0809147051F928F9370
:105580008AEF92E09F938F930E9448050F900F90AF
:105590000F900F900E94CB0C811102C00E94BE2F71
:1055A00084E391E09093F4048093F30481EA93E020
:1055B000FAE0F80FFEAB80910F058530A9F48DE677
:1055C00094E00E94AF0420E4F22EEE24E39400E184
:1055D00012E180910F05853009F4A8C00E94891658
:1055E0000E94EE0C10921D040E94A71342E953E0A2
:1055F0005CA74BA781EA93E09EA78DA72CE933E037
:10560000DC01FA0191918D912E173F0709F4D3C067
:105610009817C1F380911E0481FD78C10E94CB0CC4
:10562000782EA1EAB3E0B8ABAFA7F12C312C212C36
:10563000AFA5B8A9BD90B8ABAFA7EBA5FCA581916C
:10564000FCA7EBA78B1509F401C28B2589AB61017F
:10565000E12CAA24A39489A98A2109F4EBC14A2C3C
:105660004B20772099F0EEA2FFA281E0411001C00B
:1056700080E088A70E940C078160782F9AA789A7ED
:105680004EA15FA168A58AA50E947F26442039F01B
:10569000F601EE51FE4F80818F3F09F06DC1512C14
:1056A000052D10E08091EC03800F912F911D09973B
:1056B0006CF1F8E08F2E912C801A910AB801635199
:1056C0007C4FA4018DEE93E00E94FE31B8016B5037
:1056D0007C4FA40185EF93E00E94FE31A401440FAA
:1056E000551FB801660F771F6B5F7B4F85E094E015
:1056F0000E94FE31B80163507C4FA4018DEF93E00E
:105700000E94FE3188E085198093EC038091EC03C0
:1057100090E0A62DB0E09D01220F331F225E3D4F89
:10572000AA0FBB1FBD01615E7D4F3EC180910F0579
:10573000843009F430C00E94011380911D0481114E
:1057400005C00E94401080E00E946407E0921D04A2
:105750001092F70428E130E00FB6F894A895209352
:1057600060000FBEF092600083B7817F846083BFCA
:1057700083B7816083BF7894889583B78E7F83BF1A
:105780000FB6F894A89580916000886180936000BE
:10579000109260000FBE80910E05882309F419CF86
:1057A0000E94A713E1EAF3E0819181116DC33EA944
:1057B0003E13FACF0ECF98132DCF0E940C078C0109
:1057C000809190039091910308171907A1F08FEF32
:1057D00089A38AA31BA20E940C078160782F9DA336
:1057E0008CA349A15AA16BA18DA10E947F26109381
:1057F0009103009390030E94CB0C882379F10091D0
:10580000EF041091F00401151105B9F080919C038B
:1058100090919D030E94F106893C910570F0AEE0E5
:105820000A9FC0011124FC01EB5BFE4F208122FD89
:1058300004C0805C9E4F0E94D7158091EC048823A1
:1058400069F00E940C0720919E0330919F03821BF8
:10585000930B8F3F9F4710F40E9476190E9401130B
:105860000E94EE0C182F8091A003181731F11093AD
:10587000A0030E94000780911E0482FF1EC080FFCB
:105880001CC086E994E00E94AF0480911E0480FF52
:1058900014C01F921F9381E994E09F938F930E94FD
:1058A000480580911E040F900F900F900F9080FF7D
:1058B00004C08FE894E00E94AF0480910F0584300B
:1058C00009F079CE83E08093E9008091E80082FFBF
:1058D00072CE8091E80090E085FF06C00E948705A7
:1058E000882309F428C191E08091E8008B778093A8
:1058F000E800992309F45FCEE981E150E33108F033
:105900008EC1F0E0E452FD4C0C94883180E894E0C4
:105910000E94AF0411EAC12E13E0D12E10E000E086
:105920008BE7A82E84E0B82E93E7E92E94E0F92EB9
:105930001F930F93BF92AF920E94480588E794E0AF
:105940000E94AF04F60181916F010E94740B1F92B7
:105950008F93FF92EF920E94480581E794E00E94A6
:10596000AF040F5F1F4F0FB6F894DEBF0FBECDBF61
:105970000A301105E9F652CE682E5524539490CE84
:1059800090E0FC01E451FC4FD9015C915183DB01B3
:105990005C915187618A880F991FFC01E451FC4F8B
:1059A000128E118E91E0842F41E0480F951540F33F
:1059B0008093EC03442009F43DC0809142058C7F24
:1059C0008031C1F5F601EE51FE4F80818F3F91F19C
:1059D000B0E070E060E090E09C01220F331FF9011D
:1059E000E25EFD4FFBABEAAB215E3D4F3DAB2CAB26
:1059F000A60140555C4F4A0110E2AB01A0E0FA015C
:105A0000EE51FE4FE081EF3F51F0FB1229C0EA1248
:105A100027C0F4012081210F08F42FEF2083AF5F0E
:105A20004F5F5F4FA63059F7BF5F6A5F7F4F6C33A0
:105A3000710519F7E394AA0C2FEFC21AD20A36E0C7
:105A4000E31209CEEBA5FCA53197B082F39446E0B2
:105A5000240E311C5AE0F512EBCD0E940007CBCE8C
:105A60004E2E512CEAA9FBA92081C201880F991F53
:105A7000825E9D4FFC018081281B330BECA9FDA9A0
:105A80008081F201EE0FFF1FEE51FE4F95AD891B95
:105A9000990B229FF001239FF00DF00D1124889F98
:105AA0009001899F300D300D11242E0F3F1F022FC2
:105AB000223031054CF155245A94213EFEE13F0736
:105AC0004CF4C901F5E096958795FA95E1F708E061
:105AD000502E580E01E0E02FE50DFF27FF1FCF01EC
