:100000000C9469040C942D340C94A1040C94A10458
:100010000C94A1040C94A1040C94A1040C94A104CC
:100020000C94A1040C94A1040C94242C0C94E02BAB
:100030000C94772D0C94A1040C94A1040C94A104AD
:100040000C94A1040C94A1040C94A1040C94A1049C
:100050000C94A1040C94532D0C94A1040C94A104B1
:100060000C94A1040C94A1040C94A1040C94A1047C
:100070000C94A1040C94A1040C94A1040C94A1046C
:100080000C94A1040C94A1040C94A1040C94A1045C
:100090000C94A1040C94A1040C94A1040C94A1044C
:1000A0000C94A1040C94A1040C94A1040631FF0942
:1000B00074A1010975150026FF00952075088102BD
:1000C0000976150026FF00952075089102C00501EC
:1000D0000980A101850319012AB700150126B7007F
:1000E000950175108100C0050C0901A10185041955
:1000F000012AA002150126A002950175108100C0F9
:100100000660FF0961A1010962150026FF00952024
:10011000750881020963150026FF00952075089176
:1001200002C005010906A101050719E029E715002C
:100130002501950875018102950175088101050762
:10014000190029FF150026FF009506750881000596
:10015000081901290595057501910295017503910D
:1001600001C00000000000000000000000000000CE
:10017000000000000000000000000000000000007F
:100180000000000000007E0F00D4FFFFFFC700004A
:10019000007800000000000000002A2B280000006A
:1001A0000000000000000000000000000029000026
:1001B00000002C1E3420212224342627252E362D03
:1001C0003738271E1F202122232425263333362E9D
:1001D00037381F0405060708090A0B0C0D0E0F100F
:1001E0001112131415161718191A1B1C1D2F313054
:1001F000232D350405060708090A0B0C0D0E0F10F8
:100200001112131415161718191A1B1C1D2F313033
:10021000354C726762206D617472697820746F6703
:10022000676C65205B25735D3A207267625F6D6164
:10023000747269785F636F6E6669672E656E61625E
:100240006C65203D2025750A0044454255473A20FB
:1002500064697361626C65642E0A004445425547C7
:100260003A20656E61626C65642E0A004F6E65739C
:10027000686F743A206163746976653A2025640A70
:10028000000A002530325820006B6579626F617278
:10029000645F7265706F72743A20005461726765B2
:1002A0007420636F6E6E65637465640D0A0054613B
:1002B0007267657420646973636F6E6E65637465DD
:1002C000642C207468726F74746C696E6720636F3D
:1002D0006E6E656374696F6E20617474656D7074A1
:1002E000730D0A004661696C656420746F2065783F
:1002F00065637574652025730A007267625F6D61BE
:10030000747269785F636F6E6669672E666C616789
:1003100073203D2025640A007267625F6D6174720C
:1003200069785F636F6E6669672E737065656420B8
:100330003D2025640A007267625F6D61747269789E
:100340005F636F6E6669672E6873762E76203D2038
:1003500025640A007267625F6D61747269785F6319
:100360006F6E6669672E6873762E73203D20256454
:100370000A007267625F6D61747269785F636F6EA5
:100380006669672E6873762E68203D2025640A0012
:100390007267625F6D61747269785F636F6E6669C0
:1003A000672E6D6F6465203D2025640A00726762C8
:1003B0005F6D61747269785F636F6E6669672E65E1
:1003C0006E61626C65203D2025640A007267625F81
:1003D0006D61747269785F636F6E66696720454509
:1003E00050524F4D0A007267625F6D617472697896
:1003F0005F696E69745F6472697665727320726793
:10040000625F6D61747269785F636F6E6669672E93
:100410006D6F6465203D20302E2057726974652011
:1004200064656661756C742076616C7565732074A3
:100430006F20454550524F4D2E0A007267625F6D26
:1004400061747269785F696E69745F6472697665F8
:100450007273206565636F6E666967206973206ECD
:100460006F7420656E61626C65642E0A005B735D5B
:10047000000A0025303862003A200025303258004A
:100480000A722F632030313233343536370A000A8E
:100490000025303258006C65645F7461736B3A20DC
:1004A0000000010101010101010101020202020239
:1004B000020202020303030303030303040404040C
:1004C00004040405050505050606060606070707D4
:1004D000070708080808090909090A0A0A0B0B0B8B
:1004E0000C0C0C0D0D0D0E0E0E0F0F0F1010111128
:1004F00011121213131414151516161717181819AC
:10050000191A1A1B1B1C1D1D1E1E1F202021222212
:10051000232424252626272829292A2B2C2D2D2E55
:100520002F30313232333435363738393A3B3C3D6F
:100530003E3F404142434445464748494A4C4D4E60
:100540004F50515354555658595A5B5D5E5F616226
:1005500064656668696B6C6D6F7072737577787AB5
:100560007B7D7E8082838587888A8C8E8F91939510
:1005700096989A9C9EA0A2A3A5A7A9ABADAFB1B334
:10058000B5B7BABCBEC0C2C4C6C9CBCDCFD1D4D614
:10059000D8DBDDDFE2E4E7E9EBEEF0F3F5F8FAFDB6
:1005A000FF6565636F6E6669675F7570646174652A
:1005B0005F7267625F6D61747269785F64656661BE
:1005C000756C740A00726762206D617472697820BC
:1005D0006D6F6465205B25735D3A2025750A007296
:1005E0006762206D61747269782073657420687326
:1005F00076205B25735D3A2025752C25752C257595
:100600000A00726762206D61747269782073657484
:10061000207370656564205B25735D3A2025750A3B
:100620000000571E001F002000210022002B001494
:10063000001A00080015001700E00004001600076B
:100640000009000A00E1001D001B0006001900055A
:100650000000000000E300105F2A624A002A002721
:100660000026002500240023004C00130012000C7B
:100670000018001C00340033000F000E000D000BAA
:1006800000E50038003700360010001100000000BF
:1006900000AC5D115F2C414D0035021E021F02208F
:1006A0000221022202005C1E001F00200021002205
:1006B000004C00010050004F0052002F00C05C01B0
:1006C000000100010051002F0200000000010001A4
:1006D000004C0026022A00270226022502240223BB
:1006E0000201002700260025002400230031022EED
:1006F000025E005D005C00300001002D005B005ACE
:10070000005900300200000000620001004C002788
:100710000245003A003B003C003D003E00C25C1E2A
:10072000021F02200221022202C35CAC00AB00A91E
:10073000004B002D02A800AD00AE00AA004E002D17
:1007400000000000000100010001002602440043F7
:10075000004200410040003F000100270226022520
:1007600002240223023100C95CC75CC55C4A002E2A
:10077000000100CA5CC85CC65C4D002E020000008F
:100780000001000100010001000100010001000161
:100790000001000100010001000100010001000151
:1007A0000001000100010001000100010001000141
:1007B0000001000100010001000000000001000133
:1007C0000001000100010001000100010001000121
:1007D0000001000100010001000100010001000111
:1007E0000001000100010001000100010001000101
:1007F00000010001000000000001000100010001F3
:10080000005B435D005B445D005B535D005B575DD7
:10081000005B525D0009027B00040100A0FA09049C
:100820000000010301010009211101000122400023
:10083000070581030800010904010002030000000C
:100840000921110100012222000705820320000175
:100850000705030320000109040200010300000052
:100860000921110100012232000705840320000143
:100870000904030002030000000921110100012204
:10088000220007058503200001070505032000015C
:10089000120100020000000810CB5664200601027D
:1008A00000011A0349007200690073002000520021
:1008B000650076002E0020003600620000000E0366
:1008C0004B0065006500620069006F0000000403D2
:1008D000090411241FBECFEFDAE0DEBFCDBF04B69E
:1008E00003FE18C08091070590910805A0910905A5
:1008F000B0910A058730904BA740B04B59F4109245
:100900000705109208051092090510920A05E0E00B
:10091000F8E3099512E0A0E0B1E0E0E7FDE602C0EF
:1009200005900D92A63EB107D9F725E0A6EEB2E0FC
:1009300001C01D92A730B207E1F70E949E2D0C94D2
:100940006A360C940000FF93EF93E091E602F09179
:10095000E702309709F00995EF91FF910895FC01A6
:100960008591803011F0EFDFFBCF0895FF27E0E2A3
:1009700030E247FF0CC0419597FF09C0EDE260955A
:10098000709580959095611D711D811D911D27FFAA
:1009900002C0219530E350E2AA27660F771F881F17
:1009A000991FAA1FA41710F0A41B63955A95A9F7C5
:1009B000AA3008F0A95FA05DAF93F39561157105AA
:1009C0008105910541F7ED3211F4EF93F395F2179C
:1009D00018F43F93F395FBCF8F91B5DFFA95E1F7CC
:1009E0000895E991F9918591803021F0853219F0CF
:1009F000AADFF9CF089520E0E89455915532C1F36C
:100A0000503311F4689455915A3348F4505390F38D
:100A1000220F022E220F220F200D250FF4CF0EF4ED
:100A2000219589919991533619F3533729F153350B
:100A300059F1BC0188279927E8945C3621F4899103
:100A4000999168945591543639F446EF7EF077FFCA
:100A50000DC08FEF9FEF0AC055374AE039F0583587
:100A600040E121F0523642E009F00895FF93EF9300
:100A70007DDFEF91FF91B7CFFF93EF93FC01819161
:100A80008030B9F360DFFBCFFF93EF9368DFF1CFE6
:100A9000DF93CF93CDB7DEB72596A3DFCF91DF915C
:100AA0000895FC01AC014B5F5F4F8FEF91E3219103
:100AB000822728E030E087FF09C0880F892721506E
:100AC0003109C9F7E417F50791F70895880FF7CFB3
:100AD000E8EDF0E080818E7F80831092E20010923A
:100AE000DA001092E100A0EEB0E08C9181608C936E
:100AF00080818F77808319BCA7EDB0E08C918E7FC9
:100B00008C9380818F7E80831092B9040895209108
:100B1000E4003091E50095E6A9012091EC00822FD8
:100B2000817020FF06C08091E80080FF06C080E051
:100B300008952091E80022FD1AC08091C604882300
:100B400089F0853089F08091EB0085FD0FC0209100
:100B5000E4003091E50042175307F9F29150E1F6B5
:100B600084E0089582E0089583E0089581E0089587
:100B7000EF92FF920F931F93CF937C018B010E9402
:100B80008705C82F811117C08091E80085FD0BC033
:100B90008091E8008E778093E8000E948705882383
:100BA00099F3C82F08C0F70181917F018093F1006C
:100BB0000150110949F78C2FCF911F910F91FF9090
:100BC000EF9008958091C80487FF13C08091E800DA
:100BD00082FF06C08091E8008B778093E80004C014
:100BE0008091C6048111F2CF08958091C6048823B4
:100BF000D9F38091E80080FFF8CF8091E8008E77EC
:100C0000ECCF982F9093E900242F762F50E089178E
:100C100031F07091EC002091ED005091F00021FD39
:100C200007C09F5F973071F78093E90081E00895D6
:100C30003091EB003E7F3093EB003091ED003D7F33
:100C40003093ED003091EB0031603093EB00709306
:100C5000EC002093ED005093F0002091EE0027FD72
:100C6000E0CF80E00895B0E0A0E0E9E3F6E00C9486
:100C70005335C8EDD0E088818F7E8883E7EDF0E0C2
:100C800080818160808384E082BF81E08093B904A9
:100C900088818E7F888302EE10E0F8011082109226
:100CA000DA0081EEC82ED12CF601108288818F7770
:100CB000888388818068888388818F7D888319BC38
:100CC0001092C6041092C7041092C5041092C40476
:100CD00090EEE92EF12CF70180818B7F8083888153
:100CE0008160888342E060E080E00E940106F601B6
:100CF00080818E7F8083F801808181608083808104
:100D000088608083F70180818E7F80838881806105
:100D10008883CDB7DEB7E8E00C946F35FC01809195
:100D2000CE049091CF0486179707A0F06115710546
:100D300029F49091E8009E779093E80090E0611587
:100D4000710551F4911108C08091E80082FF34C010
:100D500080E00895BC01F2CF8091C6048823C1F1E0
:100D60008530C1F18091E80083FD30C08091E800BA
:100D700082FDEACF8091E80080FFE1CF8091F3000F
:100D80002091F200382F6115710519F028303105D6
:100D900058F091E02830310509F090E02091E8000A
:100DA0002E772093E800CBCF81918093F1006150A2
:100DB00071092F5F3F4FE7CF8091C604882341F030
:100DC000853041F08091E80083FFBECF81E0089537
:100DD00082E0089583E00895089508958091BB040A
:100DE00008959C014FB7F8948091AF049091B0049E
:100DF000A091B104B091B2044FBF821B930B089530
:100E00002FB7F8946091AF047091B0048091B10451
:100E10009091B2042FBF08952FB7F8948091AF043A
:100E20009091B004A091B104B091B2042FBF089585
:100E30009C01FC0132969FEF80E04191461751F0F2
:100E40009F3F19F4411101C0982F8F5F8630A9F799
:100E50009F3F09F40895290F311D97FD3A95F90137
:100E6000628308952091AC043091AD0428173907AE
:100E700071F09093AD048093AC04E091AA04F091DA
:100E8000AB04309721F00084F185E02D0995089599
:100E90002091A8043091A9042817390771F0909384
:100EA000A9048093A804E091AA04F091AB043097C0
:100EB00021F00680F781E02D09950895FA0181114E
:100EC00001C0FB010995089580934B018091D404E2
:100ED000837080934A010E94271483E080934C0121
:100EE0000895EF92FF920F939701201B31092F3F36
:100EF000310519F010F02FEF30E02095382F320F28
:100F000008F43FEF832F0F91FF90EF900895EF9239
:100F1000FF920F939701201B31092F3F310519F0E4
:100F200010F02FEF30E0322F3095482F430F08F4A8
:100F30004FEF842F620F0F91FF90EF900895EF9283
:100F4000FF920F93972F093438F4B701601B710992
:100F50006F3F710519F010F06FEF70E0485F5F4F61
:100F60004131510540F0A901485F5F4F41315105C2
:100F700010F06FEF70E06095482F460F08F44FEFC8
:100F8000842F37FF02C02D5F3F4F3595279535954C
:100F900027956091D504620F792F0F91FF90EF9004
:100FA0000895EF92FF920F931F930E0D1F2D111DA9
:100FB000F90137FF03C0F195E195F10924E0EE0F47
:100FC000FF1F2A95E1F7EF3FF10519F014F0EFEF5D
:100FD000F0E09A0157FF03C031952195310994E063
:100FE000220F331F9A95E1F72E173F070CF4F901F2
:100FF000E00FF11FEF3FF10519F010F0EFEFF0E017
:10100000E095282F3E2F230F08F42FEF822F1F91FA
:101010000F91FF90EF900895EF92FF920F93970139
:1010200095E0099F200D311D11242F3F310519F046
:1010300010F02FEF30E02095382F320F08F43FEFFB
:10104000832F0F91FF90EF90089522E8241B08F45E
:1010500020E0620F08954095282F429F412D1124D2
:10106000842F08950F931F9310E0F801EE0FFF1FD8
:10107000E65EFD4F9081905797FD9195000F111FEF
:10108000F801E252FE4F05AD0052110B2003F001B2
:10109000219FF00D112408E310E0091B110997FDB1
:1010A000139540039001419F300D1124E20FF31F6F
:1010B0009F01220F331F2E0F3F1F37FF02C0215801
:1010C0003F4F220F232F221F330B620F1F910F91CF
:1010D00008950F931F93522F10E0F801EE0FFF1F9A
:1010E000E252FE4FA5ADA052BB0B9D015203F00191
:1010F000539FF00D1124000F111FD801A65EBD4FA4
:101100000C910057110B40039001419F300D1124A9
:101110002E0F3F1F37FF02C0215C3F4F96E03595F1
:1011200027959A95E1F7620F1F910F9108950F93FC
:101130001F93522F10E0F801EE0FFF1FE252FE4FF7
:10114000A5ADA052BB0B9D015203F001539FF00DC2
:101150001124000F111FD801A65EBD4F0C9100573E
:10116000110B40039001419F300D11242E0F3F1FA2
:1011700037FF02C021583F4F220F232F221F330B6E
:10118000620F1F910F910895EF920F93972F23E015
:10119000029FB0011124759567956E0D792F0F91FF
:1011A000EF900895322F50E0FA01EE0FFF1FE25248
:1011B000FE4F95AD905297FD9195440F551FFA0142
:1011C000E65EFD4F2081231B330B290F311D97FD58
:1011D0003A95620F0895E42FF0E0EE0FFF1FE25200
:1011E000FE4F65AD621B0895E42FF0E0EE0FFF1F88
:1011F000E65EFD4F6081621B0895622F0895E42F23
:10120000F0E0EE0FFF1FE65EFD4F408134EE439F9E
:10121000412D1124E82FF0E050E0445E5F4FDA01E9
:10122000A21BB1099D01B7FF03C03195219531097A
:1012300093E0220F331F9A95E1F7AF01421B530B46
:101240009A0157FD20E0582F259F212D1124822F30
:101250000895E42FF0E0EE0FFF1FE65EFD4F4081A2
:1012600034EE439F412D1124E72FF0E050E0445E1F
:101270005F4FDA01A21BB1099D01B7FF03C0319591
:101280002195310993E0220F331F9A95E1F7AF01C1
:10129000421B530B9A0157FD20E0279F212D11245B
:1012A000722F08950E94540B0895FF920F931F937D
:1012B000CF93DF93182F062FF42ED0E0C0E02F2D10
:1012C000402F612FCE010E9452092196C434D105CE
:1012D000B1F7CDB7DEB7E5E00C947235FC019B01A8
:1012E000009729F480E077FF2BC080E80895AC01D7
:1012F00097FF04C044275527481B590BB901640FB9
:10130000751F37FD10C0241B350BC901A5E0880FE0
:10131000991FAA95E1F70E94A03580E2861BF7FF8E
:101320000FC081950895CB0165E0880F991F6A95DC
:10133000E1F7BA01621B730B0E94A03580E6EECF85
:101340000895EF920F93CF93DF93D72FC82FC90142
:101350000E19BA010E946E09602F681B7D2F8C2F19
:10136000DF91CF910F91EF9008950F93CF93DF937B
:10137000D72FC82FC901BA010E946E09682F600FCC
:101380007D2F8C2FDF91CF910F910895EF920F93C6
:101390001F93CF93DF93D62FC72F182FC9010E1994
:1013A000010FBA010E946E09081B202F219F212DD9
:1013B0001124822F6D2F7C2FDF91CF911F910F91E0
:1013C000EF900895EF920F931F93CF93DF93D62F53
:1013D000172FC82FC9010E19070FBA010E946E09F5
:1013E000702F781B719F712D11246D2F8C2FDF9121
:1013F000CF911F910F91EF9008950F931F93CF936B
:10140000DF93D62FC72F182FC901212F201B022FA2
:10141000BA010E946E09982F990F990F891B800FAE
:10142000282F219F212D1124822F6D2F7C2FDF91BA
:10143000CF911F910F9108950F931F93CF93DF9337
:10144000D62F172FC82FC901272F201B022FBA0113
:101450000E946E09982F990F990F782F791B700FA2
:10146000719F712D11246D2F8C2FDF91CF911F91C2
:101470000F910895E82F86FDE0952E2F2F7086FDA1
:101480002F5FE695E695E695E670F0E0EE53FE4FA9
:101490009181929F902D212D112492959F702295DC
:1014A000207F922B2081920F87FD919580E8890FF4
:1014B0000895AC018230910508F408959FEF413EF4
:1014C0008EE1580740F49A0195E0369527959A9554
:1014D000E1F798E0920F61E0E62FE90FFF27FF1F89
:1014E0009F0135952795822F229FF001239FF00DB4
:1014F000F00D11244E175F0738F49FEF920F9617E7
:1015000058F78FEF860F08952F3FE9F361E0620FE0
:10151000F6CF0F93CF93DF93D72FC82F47FD419579
:1015200088E390E0841B910947FD9395889FB00163
:10153000899F700D700D1124229FC001239F900D73
:10154000900D1124860F971F0E94590A982F990F0A
:10155000890F682F600F7D2F8C2FDF91CF910F9116
:10156000089530E020E0869F212D969F200D311DAB
:101570001124C9010895AF92BF92CF92DF92FF92DA
:101580000F931F93CF93DF93362F472FE82FF0E071
:10159000EF55FB4F71110FC0E4918E2F2E2F6E2F40
:1015A000722FDF91CF911F910F91FF90DF90CF901D
:1015B000BF90AF900895C72FD0E02491F22E022F54
:1015C00010E056E0659FC0011124EFEFF0E0BF018D
:1015D0000E948C35832F90E0880F991F35E5369F48
:1015E000D001379FB00D11248A1B9B0B982F990FA8
:1015F000980F6F01CC1ADD0AC09ED001C19EB00DBC
:10160000D09EB00D11248B2F499FA0011124452F8E
:1016100055276F01C41AD50AC09EA001C19E500D66
:10162000D09E500D11245F01A91AB108AC9E600133
:10163000AD9ED00CBC9ED00C1124CD2CDD24EC1919
:10164000FD09E09FE001E19FD00DF09FD00D112436
:10165000ED2F62307105A1F050F46115710509F4A8
:101660009ECF6130710581F0EB2F852F98CF6430CC
:10167000710569F080F06630710509F490CFF4CF00
:10168000E22F2B2F8D2F8BCFE22F252F88CFEB2F03
:10169000822F2D2F84CF2B2F8F2DE52F80CF89B137
:1016A00085FB882780F90895FF920F931F93CF93AE
:1016B000DF93EC01F62E042F122F0E944F0B8111A5
:1016C0000FC0C232D1057CF0A297FE01EE0FFF1FC2
:1016D000EC0FFD1FE952FC4FF1820083128303C01F
:1016E000C232D10594F3CDB7DEB7E5E00C94723584
:1016F000CF93C82F0E944F0B882329F081E0C2327C
:1017000028F080E003C081E0C434D8F7CF91089579
:10171000A8E0B0E0EEE8FBE00C944935282E7C838D
:101720006B8320914E018EE0289F802D11248D83A4
:10173000825F8983853410F034E439830E944F0B33
:10174000882329F08981833210F092E299830E94E4
:101750004F0B811105C0ED81E23210F4F2E2FD83FE
:101760002091DA042A839D81892F90E098878F83C6
:10177000880F991FFC01E252FE4F6F01822D90E00D
:101780009C012F5F3F4F3E832D8389819F81981756
:1017900030F00E94780B2896E2E10C946535EF81D9
:1017A000F885EE55FD4F808190914F018923F9F026
:1017B0003090D5044090D6048D819E8186529B4FF7
:1017C0003C01522C10E0FA815F16D8F02091D7042A
:1017D000129F112D1124632D742D812F0E94BB0A9D
:1017E000462F282F672F8F8198850E9452092F81BD
:1017F00038852F5F3F4F38872F8332E0C30ED11CCF
:10180000C4CFF30181913F01F601A4ACA81ABB0833
:1018100085ACF3018781881A9908AA9C9001AB9C3A
:10182000300D300D1124889CC001899C900D900DC5
:101830001124820F931F0E94590A082F6091D80427
:1018400021E0620F08F46FEFF301EE0FFF1FEA5D76
:10185000F440858996890E94B10A7C019401A50112
:10186000632D742D812FEB81FC810995362E472E37
:101870005394182FA8CFB0E0A0E0E1E4FCE00C9472
:1018800053357C01C0914E018EE0C89FC02D1124BC
:101890001EE01C0F153408F014E40E944F0B88233F
:1018A00019F0133208F012E20E944F0B811103C0AD
:1018B000C23208F4C2E22091D80431E0230F08F4C8
:1018C0002FEF30E050E040E06FEF7FEF80E090E0FE
:1018D0000E94B4356901D0E001E02C2FC11740F01F
:1018E000812F0E94780BCDB7DEB7E8E00C946F35FE
:1018F000FE01EE55FD4F808190914F01892309F142
:101900004091DA044150042E000C550B47FF1BC0D8
:10191000C6016091D804600F08F46FEF0E94B10A0D
:10192000AC016091D5047091D6048091D704F70181
:1019300009950E94BB0A462F282F672FCE010E94CF
:1019400052092196CACFFA01E652FB4F81898213D0
:101950000AC0FA01EE0FFF1FE652FB4F818D928DF8
:101960008C159D05B0F241505109D0CFB0E0A0E0F8
:10197000ECEBFCE00C9451356C01C0914E018EE013
:10198000C89FC02D11241EE01C0F153408F014E46C
:101990000E944F0B882319F0133208F012E20E94C4
:1019A0004F0B811103C0C23208F4C2E26091D80427
:1019B000669566958091D0049091D1040E94B10AF9
:1019C000F82E80E48F0D0E943A0A90E8B92EB80EE6
:1019D0008F2D0E943A0A20E8A22EA80ED0E0C1174F
:1019E00040F0812F0E94780BCDB7DEB7EAE00C946F
:1019F0006D35FE01EE55FD4F808190914F01892399
:101A0000A1F06091D5047091D6048091D704EF2C99
:101A10000C2F2A2D4B2DF60109950E94BB0A462F4B
:101A2000282F672FCE010E9452092196D8CFB0E00F
:101A3000A0E0EDE1FDE00C944D355C01C0914E015C
:101A40008EE0C89FC02D11241EE01C0F153408F035
:101A500014E40E944F0B882319F0133208F012E2AD
:101A60000E944F0B811103C0C23208F4C2E26091A0
:101A7000D80466958091D0049091D1040E94B10A57
:101A8000F82ED0E0CE01880F991F9C0122523E4FC4
:101A90006901C11740F0812F0E94780BCDB7DEB7E6
:101AA000EEE00C946935FE01EE55FD4F808190917A
:101AB0004F01892379F1F60184AD282F2057330B8C
:101AC000490185ADE82FE052FF0B3F01889C900152
:101AD000899C300D300D1124EE9FC001EF9F900DB9
:101AE000900D1124820F931F0E94590A082F6091B4
:101AF000D5047091D6048091D704EF2C9301A401F2
:101B0000F50109950E94BB0A462F282F672FCE01A9
:101B10000E945209F2E0CF0ED11C2196BACFB0E05C
:101B2000A0E0E5E9FDE00C9452356C01C0914E0156
:101B30008EE0C89FC02D11241EE01C0F153408F044
:101B400014E40E944F0B882319F0133208F012E2BC
:101B50000E944F0B811103C0C23208F4C2E26091AF
:101B6000D80466958091D0049091D1040E94B10A66
:101B7000B82ED0E0CE01880F991F9C0122523E4F13
:101B80007901C11740F0812F0E94780BCDB7DEB7E5
:101B9000E9E00C946E35FE01EE55FD4F8081909189
:101BA0004F018923C1F0F70125AD2052330B44AD1D
:101BB0004057550B6091D5047091D6048091D7049D
:101BC0000B2DF60109950E94BB0A462F282F672F7F
:101BD000CE010E945209F2E0EF0EF11C2196D1CF06
:101BE000EF92FF920F931F93CF93DF937C01C091ED
:101BF0004E018EE0C89FC02D11241EE01C0F15342D
:101C000008F014E40E944F0B882319F0133208F0F7
:101C100012E20E944F0B811103C0C23208F4C2E2EB
:101C20006091D8046695669521E0620F08F46FEF25
:101C30008091D0049091D1040E94B10A082FD0E085
:101C4000C11740F0812F0E94780BCDB7DEB7E6E0D8
:101C50000C947135FE01EE55FD4F808190914F013E
:101C6000892391F06091D5047091D6048091D704B6
:101C7000202F4C2FF70109950E94BB0A462F282FD1
:101C8000672FCE010E9452092196DACFB0E0A0E082
:101C9000ECE4FEE00C945135182F80914B01811338
:101CA00023C09091D404937020914A0130E081E0E8
:101CB0009217130609F480E081708093500180919F
:101CC000D90490914F01981739F080934F0140E06B
:101CD00060E080E00E945509133288F4E12FF0E0C3
:101CE000E459F94C0C94D33581E0E6CF8091500152
:101CF000882389F140E060E080E00E94550980E09F
:101D00002AC0C0914E018EE0C89FC02D11240EE064
:101D10000C0F053408F004E40E944F0B882319F0DF
:101D2000033208F002E20E944F0B811103C0C2325D
:101D300008F4C2E26091D5047091D6048091D70472
:101D40000E94BB0AF62EE72ED82ED0E0C017D8F09E
:101D5000802F0E94780B90914E019F5F90934E01CF
:101D600081110CC082E080934C018091500181115F
:101D700005C0111103C083E080934C01CDB7DEB7DD
:101D8000EAE00C946D35FE01EE55FD4F8081909197
:101D90004F01892331F02D2D4F2D6E2DCE010E9444
:101DA00052092196D3CFC0914E018EE0C89FC02D1D
:101DB00011240EE00C0F053408F004E40E944F0BD0
:101DC000882319F0033208F002E20E944F0B8111C0
:101DD00003C0C23208F4C2E2E090D604F090D70407
:101DE000D091D5046D2F7E2D8F2D0E94BB0AD62E4B
:101DF000C72EB82E6091D8046D0F7E2D8F2D0E94B6
:101E0000BB0AF62EE72EA82ED0E0C01708F0A0CF10
:101E1000FE01EE55FD4F908180914F01892359F0CD
:101E20002A2D4F2D6E2D90FD03C02B2D4D2D6C2D89
:101E3000CE010E9452092196E8CFC0914E018EE05A
:101E4000C89FC02D11240EE00C0F053408F004E4E7
:101E50000E944F0B882319F0033208F002E20E941F
:101E60004F0B811103C0C23208F4C2E2E090D604E5
:101E7000D090D7042091D80450E4F52E3F2D329F06
:101E8000312D1124F32ED0E0C01708F061CFFE01F0
:101E9000EE55FD4F808190914F018923B9F0FE01ED
:101EA000EE0FFF1FE252FE4F85AD82958F7060915D
:101EB000D5048F9D600D11247E2D8D2D0E94BB0AAF
:101EC000462F282F672FCE010E9452092196DCCF82
:101ED000C0914E018EE0C89FC02D11240EE00C0F62
:101EE000053408F004E40E944F0B882319F00332F4
:101EF00008F002E20E944F0B811103C0C23208F4C5
:101F0000C2E2E090D604D090D7042091D80430E407
:101F1000F32E3F2D329F312D1124F32ED0E0C01728
:101F200008F016CFFE01EE55FD4F808190914F01D4
:101F30008923D9F0FE01EE0FFF1FE252FE4F64AD80
:101F4000F69EB001112495E0759567959A95E1F795
:101F50008091D504680F7E2D8D2D0E94BB0A462FDF
:101F6000282F672FCE010E9452092196D8CFC09109
:101F70004E018EE0C89FC02D11240EE00C0F0534D9
:101F800008F004E40E944F0B882319F0033208F094
:101F900002E20E944F0B811103C0C23208F4C2E278
:101FA000F090D504D091D604E090D7046091D80485
:101FB0006695669566958091D0049091D1040E94B3
:101FC000B10A0E943A0A805887FD8195880F282F10
:101FD0003E2D239F212D1124822F6F2D7D2F0E94B6
:101FE000BB0AF62EE72ED82ED0E0C01708F0B0CEF0
:101FF000FE01EE55FD4F808190914F01892331F014
:102000002D2D4F2D6E2DCE010E9452092196EDCF20
:1020100089E299E00E94F00D9ECE8FEF98E0FACF12
:102020008CE19AE00E948F0D96CE8DEF99E0FACF69
:1020300082EE99E00E94170D8ECE86EC99E0FACFE1
:102040008DEF98E0E7CF84EF98E0E4CF8BEE98E057
:10205000E1CF82ED98E0DECF84EC98E0EBCF89E829
:102060009AE0E0CF85EB99E0DDCF81EA99E0E2CF1D
:1020700087E998E00E94B60C6ECE89E698E0FACF28
:1020800082E398E0F7CF8BE298E00E943B0C63CEAE
:1020900085E298E0FACF8091DA0421E0382F321BF4
:1020A00008F430E0832F6CE078E00E94880B53CE78
:1020B0006CE078E080E0F9CF8091DA0421E0382FFD
:1020C000321B08F430E0832F61ED77E0EECF61ED55
:1020D00077E0F0CF8091DA0421E0382F321B08F44A
:1020E00030E0832F6FE977E0E0CF6FE977E0E2CF70
:1020F0008091DA0421E0382F321B08F430E0832F7E
:1021000067E877E0D2CF67E877E0D4CF8091DA0450
:1021100021E0382F321B08F430E0832F61E777E0AD
:10212000C4CF61E777E0C6CFF894E82FE295EF706F
:10213000F0E031A1282F2F7081E090E001C0880FDE
:102140002A95EAF7982F9095932391A392A1892B32
:1021500082A37894089590918A0392FF06C0282F55
:1021600028712830F9F4877F846093FF06C0282FF8
:1021700028712831F1F4877E846120918B0320FF40
:1021800006C0382F38713830D9F4877F816021FF3D
:1021900006C0282F28712831D1F4877E816194FDF3
:1021A000877E0895282F24712430F9F68B7F88606C
:1021B000DCCF282F2471243101F78B7E8861DDCF9D
:1021C000382F3171313019F78E7F8860E0CF282F9A
:1021D0002171213121F78E7E8861E1CFCF93DF938A
:1021E000EC0182389105B1F108F040C081339105CE
:1021F00009F49DC048F58932910509F48DC08A978C
:1022000009F49CC0C11522E5D20708F0BDC0C11574
:1022100031E5D30708F024C1C83ED10508F0A3C0BA
:10222000C13ED10588F5C83AD10508F08EC0C53A3F
:10223000D10508F0F6C0C130D10531F1209721F168
:10224000C430D10508F545C08533910509F45FC058
:10225000C997C1F680918A03837009F036C18091D5
:102260008B0383FF11C0C9E2D0E00EC0833E91050D
:1022700099F170F4803E910501F1823E910511F6CD
:1022800080918A0382FD21C0CE01DF91CF91089514
:10229000863E910561F1873E910571F1843E91057D
:1022A00009F0B0CF80918B0381FFEECF80918A033C
:1022B000C7EED0E084FD0DC0E7CF80918A0380FD9A
:1022C00033C090918B0390FFDFCFC3EED0E084FF4B
:1022D000DBCFD0E0C0E0D8CF80918A0382FDF2C08E
:1022E00090918B0390FDF1C084FFCECFF2CF80910F
:1022F0008A0383FDDDCFC8CF80918A0383FDE8C0C8
:1023000090918B0391FFF0CFC4EED0E0BDCF8091D0
:102310008A0385FFB9CFA7CF80918A0385FDDBC0F3
:1023200080918B0383FFB0CFC9E3D0E0ADCF809124
:102330008A0386FFA9CFCAE2D0E0A6CF80918A03A4
:1023400086FFA2CFC1E3D0E09FCFCF3BD10508F6F7
:10235000C85AD0E0CC0FDD1FC257DE4F0990D8819C
:10236000C02DD46491CFC11540E5D40708F064C0F6
:10237000C11580E4D80708F05CC0CE019A9581159C
:102380009F4108F481CFA5CFC11536E5D30718F5D5
:10239000C11545E5D40708F07CC0C11584E5D80710
:1023A00008F072C09E01237033279C2F9695969556
:1023B000C115D34508F459C0C1E0D0E002C0CC0F2C
:1023C000DD1F2A95E2F730E2939FC0011124C82B4C
:1023D000D92BDA6859CFC1158AE5D80778F4C11529
:1023E00029E5D20708F060C0C11538E5D30708F425
:1023F00070CFDC2FCC27C06FD06A46CFCE0190566D
:102400008115904208F065CF8D2F8F710E94AB101F
:1024100090E0982F882788279F719C012C2BE90139
:1024200041C0C55AD0E0C557DE4FC881D0E0D06466
:102430002BCFDF70D06A28CFCE018370992721E09F
:1024400030E002C0220F331F8A95E2F7C695C69589
:1024500080E2C89FE0011124C22BD32BDD6814CF8A
:10246000DC2FCC27C16FD06A0FCFC1E0D0E002C013
:10247000CC0FDD1F2A95E2F720E2929FC0011124C4
:10248000C82BD92BDC6800CFDC2FCC27C46FD06AD7
:10249000FBCE8C2F0E94AB10C82FD0E0DC2FCC27B6
:1024A000CC27DF71D062F0CE8C2F8F700E94AB10E2
:1024B00034E0D695C7953A95E1F7CF709C2FEC01A3
:1024C000D069E2CEC2EED0E0DFCEC0EED0E0DCCE0E
:1024D000C6EED0E0D9CEC5E3D0E0D6CE80914A0397
:1024E000811110924A03089580959091A404982335
:1024F0009093A404089580959091A50498239093B7
:10250000A50408958091400390910F03981301C092
:1025100008958F5F8770FACF292F9A3078F586302B
:1025200068F590E036E0239F800D911D1124682FFF
:10253000677023E0969587952A95E1F7FC01EE0FE9
:10254000FF1FE80FF91FEF50FD4F50E040E080E023
:10255000219130E0062E02C0369527950A94E2F7C5
:1025600021703327042E01C0220F0A94EAF7822B30
:102570004F5F5F4F4330510559F7089580E008954C
:10258000292F9A3098F5863088F590E036E0239F21
:10259000800D911D1124282F277041E001C0440FA8
:1025A0002A95EAF723E0969587952A95E1F7FC01AD
:1025B000EE0FFF1FE80FF91FEF50FD4F30E020E056
:1025C00070E05191DF011197CB01022E02C0969568
:1025D00087950A94E2F78170819585278423852762
:1025E0008C932F5F3F4F2330310559F70895829523
:1025F00090E09C01220F331F220F331F2C7C9595F6
:102600008795959587958373282B30E0C901880FAE
:10261000991F8A7A359527952575822B08959C01F7
:102620003A9521153F4150F5FC01EE27F170BC01B0
:1026300066277270AC01442754709C0122273870C1
:1026400094FF0EC080E1EF2B09F480E0672B09F0C6
:102650008062452B09F08064232B89F080680895FF
:1026600081E0EF2B09F480E0672B09F08260452BB5
:1026700009F08460232B19F08860089580E00895A4
:102680009FB7F8941092B7049FBF9091C6049430FE
:1026900009F048C02091E9002F703091EC00932F91
:1026A000917030FD90E8922B25E02093E900209175
:1026B000EB0020FF34C02091EE0027FF30C02091B6
:1026C000B604222321F02091E80025FF28C01092B3
:1026D000B60426E03091E80035FF14C08093F10085
:1026E0008091E80085FD27C08091E80080FFFCCF45
:1026F0008091E8008E778093E8009F709093E900C6
:1027000080E008953091C604343049F43091EB00F4
:1027100035FD05C0215041F481E08093B6049F70DF
:102720009093E9008FEF0895EFE9FFE03197F1F71B
:1027300000C00000CFCF8FB7F89421E02093B704FA
:102740008FBFDBCF8093B3047093B5046093B40460
:102750008091C6048430F9F48093E9008FEF909162
:10276000E800815095FD06C095ED9A95F1F70000BF
:102770008111F5CF8091E80085FF0DC050E040E069
:1027800063E070E083EB94E00E94B8058091E8007C
:102790008E778093E8000895BC0184E00E94A21324
:1027A0000895BC0183E00E94A2130895CF93DF93A4
:1027B000EC0181E08093E9008FEF9091E800815077
:1027C00095FD06C095ED9A95F1F700008111F5CFC2
:1027D0008091E80085FF14C050E040E068E070E0C0
:1027E000CE010E94B8058091E8008E778093E800C2
:1027F00088E0FE01ACEBB4E001900D928A95E1F720
:10280000DF91CF91089581E08093E00080E2809392
:10281000D8001092C9008FE19EE40197F1F700C043
:10282000000087E090EBDC0180930705909308059A
:10283000A0930905B0930A0588E19CE00FB6F894CF
:10284000A895809360000FBE90936000FFCF6E9AB2
:102850003EB13F7B2EB120644FB7F89487ED93E0F3
:10286000FC015191CF0168E02EB9000000C057FF74
:102870003EB9550F000000C000C000C03EB900C006
:102880006A9591F7F4E0833A9F0751F74FBF8FE5C0
:1028900094E00197F1F700C000000895809156037D
:1028A000811110C08091D80080618093D8008AE1A6
:1028B0008A95F1F700C08091D90080FF0AC081E0BD
:1028C0008093560381E090915603913009F080E0A7
:1028D000089582E0809356030E9468051092C60412
:1028E000F1CF0E944E14882359F0E091AA04F09190
:1028F000AB04309729F00190F081E02D09950895FF
:1029000080E008950F931F930E944E14882329F0AE
:102910000E9400071F910F9108950E9400070091E7
:102920007A0310917B0320917C0330917D03600F2B
:10293000711F821F931FEECFCF92DF92EF92FF9213
:102940006B017C010E944E148823A1F02FB7F894EC
:102950006091AF047091B0048091B1049091B20481
:102960002FBF6C197D098E099F09FF90EF90DF90B2
:10297000CF9008950E948214F4CFCF93DF93C7E0E5
:10298000D2E060E0CE010E9430362196C11584E08D
:10299000D807B9F7DF91CF9108951F93CF93DF93B5
:1029A000122F8430E0F46A30D0F44630C0F4C42FE3
:1029B000D0E0CC0FDD1F9CE0699FC00DD11D11241C
:1029C00098E7899FC00DD11D1124632FCE018796F2
:1029D0000E943036612FCE0188960E943036DF91FA
:1029E000CF911F910895AF92BF92CF92DF92EF9255
:1029F000FF921F93CF93DF9381E2C82E86E0D82EFB
:102A0000D0E07601C0E014C0F50125913491412F4A
:102A10006C2F8D2F0E94CD1482E0A80EB11C1F5F79
:102A2000163091F78CE0E80EF11CCF5FCA3019F038
:102A3000570110E0E9CFDF5F88E7C80ED11CD43022
:102A400001F7DF91CF911F91FF90EF90DF90CF9032
:102A5000BF90AF900895CF93C82F6FEF811162E2BE
:102A600083E290E00E9430366FEFC11160E184E2B2
:102A700090E00E9430366FEFC11164E085E290E093
:102A80000E943036CF91089580E00E942B1560E0BF
:102A900086E290E00E9430360E94F3140E94BD143A
:102AA00081E00E942B1508950F931F93CF93DF931E
:102AB000843030F56A3020F5463010F5C42FD0E070
:102AC000CC0FDD1F2CE0629FC00DD11D112438E713
:102AD000839FC00DD11D1124CE0187960E9412360E
:102AE000082F10E0102F0027CE0188960E94123682
:102AF0009801282BC901DF91CF911F910F91089563
:102B000090E080E0F8CF462F843040F47A3030F403
:102B1000663020F4672F0E945415089590E080E0FD
:102B20000895CF92DF92FF920F931F93CF93DF937D
:102B30006C010091060580914B03082BC7E0D0E0A3
:102B400010E0FC2EC8010C2E02C0959587950A94C2
:102B5000E2F780FD0CC02197A0F7F12C8F2DDF91BB
:102B6000CF911F910F91FF90DF90CF900895B60104
:102B70008C2F0E9483150E94EE10019761F3EECF17
:102B8000CF93DF93EC010E949115BE010E94831543
:102B90000E94EE10DF91CF910895FC018381948112
:102BA000892B29F08081918189238F3F51F480E026
:102BB0000895843FE1F717C0883EA8F0813FB9F738
:102BC00012C0808191810E94C01592959F709630AD
:102BD00099F358F4925F9F70923048F7803F19F054
:102BE00040F7883E20F781E008959A5FF4CFA5E092
:102BF000B0E0EDEFF5E10C94583549835A838981B3
:102C00009A81662399F0222389F00E949115182F4A
:102C1000682F89819A810E94C01269817A81812FEF
:102C20000E9483152596E3E00C9474350E948C1263
:102C3000182FF3CF83E290E00E941236823289F49B
:102C400084E290E00E941236803159F485E290E0EF
:102C50000E94123691E0843009F090E0892F817053
:102C6000089580E0FCCFCF9384E090E00E9412367C
:102C7000C82F82E290E00E941236982F8C2FCF91BD
:102C8000089546E050E06CE170E084ED94E00E942D
:102C900020361092D60308954F925F926F927F92E2
:102CA0008F929F92AF92BF92CF92DF92EF92FF925C
:102CB0006091D0037091D1038091D2039091D3039E
:102CC0000E949C146B017C010E9482144B015C01E8
:102CD0008092D0039092D103A092D203B092D303FA
:102CE000A091A703E7EAF3E08A2F90E04FEF5FEFB0
:102CF00060E070E04C195D096E097F09A91328C0D6
:102D00008093A7038091D403811135C09091D4049E
:102D1000892F837019F0892F8695869590914C01A3
:102D2000913009F441C0992341F1923009F43FC038
:102D3000933009F43FC0FF90EF90DF90CF90BF90A9
:102D4000AF909F908F907F906F905F904F9008957D
:102D5000218D328D2901712C612C44155505660594
:102D6000770520F481509F5F3296C8CF2C0D3D1D12
:102D7000328F218FF8CF80E0D1CF10924E01809218
:102D8000D0049092D104A092D204B092D30489E2EC
:102D9000E7EAF3E0AAEDB4E001900D928A95E1F73D
:102DA00081E080934C01C7CF0E94460EC4CF0E94A1
:102DB0006407C1CF8091D60381110E9441166091B2
:102DC000D0047091D1048091D2049091D3040E94D8
:102DD0009C14603171058105910508F4ACCF109207
:102DE0004C01A9CF8093D8049091D603962B909351
:102DF000D6039091D50390FF16C02FE531E06623EE
:102E000011F021E631E01F928F933F932F9382E0E0
:102E100096E09F938F930E9448050F900F900F901C
:102E20000F900F900F9008958091D80420E1382FD3
:102E3000321B08F430E0832F61E00E94F2160895FF
:102E40008091D80420E1382F320F08F43FEF832F10
:102E500061E00E94F21608953091D404337071F14C
:102E60008093D5046093D604493708F048E740932F
:102E7000D7043091D603322B3093D6033091D5034B
:102E800030FF1CC050E09927211119C02FE531E017
:102E90005F934F931F926F939F938F933F932F93C3
:102EA0008FED95E09F938F930E9448058DB79EB755
:102EB0000A960FB6F8949EBF0FBE8DBF089521E607
:102EC00031E0E6CFE4EDF4E0438120E1421B08F479
:102ED00040E0818121E0628190E00E942C170895FA
:102EE000E4EDF4E0438120E1420F08F44FEF8181EB
:102EF00021E0628190E00E942C170895E4EDF4E057
:102F0000628120E1621B08F460E0818121E043815D
:102F100090E00E942C170895E4EDF4E0628120E136
:102F2000620F08F46FEF818121E0438190E00E94FD
:102F30002C170895E4EDF4E0818121E04381628162
:102F40008850990B0E942C170895E4EDF4E08181DC
:102F500090E021E04381628108960E942C17089539
:102F60009091D404937051F1811129C09460909391
:102F7000D40410924C018091D603862B8093D60303
:102F80008091D50380FF1AC02091D4042695269500
:102F90008FE591E0662311F081E691E01F922F9377
:102FA0009F938F9385EC95E09F938F930E944805A4
:102FB0000F900F900F900F900F900F900895833205
:102FC00010F09868D4CF880F880F982BD0CF8091BD
:102FD000D40486958695815009F482E261E00E94CE
:102FE000B01708958091D404869586958F5F8332BB
:102FF00008F081E061E00E94B01708958091D50348
:1030000080FF08C081EA95E09F938F930E94480556
:103010000F900F908DE18093D40480915101909195
:103020005201A09153018093D5049093D604A093AC
:10303000D70488E78093D8048FEF8093D9040E9447
:1030400041160895B0E0A0E0E8E2F8E10C944E35B6
:103050007C015B01842E752E69018091570301E08C
:1030600010E08A3010F40AE010E0C1E0D0E0B501D1
:10307000C701F6010995982E811114C021960C17ED
:103080001D07B4F48091D50380FF0CC07F928F920E
:1030900084EE92E09F938F930E9448050F900F90CB
:1030A0000F900F90892DCDB7DEB7EDE00C946A3507
:1030B000CC9F9001CD9F300D300D112490E080E029
:1030C00045E34A95F1F70000019628173907C1F743
:1030D000CECFAFE0B0E0EFE6F8E10C944E358E01D4
:1030E0000F5F1F4F8AE0D8011D928A95E9F78AE2A7
:1030F000C82E81E0D82EF12CE12CAA24A394B12C67
:103100002AE2822E21E0922EF60181916F018F3FFB
:1031100009F442C0F894E82FE295EF70F0E021A1A5
:103120008F70A50102C0440F551F8A95E2F7CA01AE
:10313000922F982B91A392A18095892382A37894B2
:1031400000C0E4E2F1E0712C31E021912F3F09F45D
:103150006BC0A22FA295AF70B0E090968C9190E0DA
:103160002F7002C0959587952A95E2F780FD5CC087
:10317000832F782A330F8E169F0639F7F601319781
:1031800080818F3F11F00E94941050EA5A95F1F718
:10319000F801EE0DFF1D70828FEFE81AF80AA5E026
:1031A000EA16F10409F0B0CF4AE050E0B8018EE72A
:1031B00093E00E945436009741F02AE0F801AEE710
:1031C000B3E001900D922A95E1F700918903892BD4
:1031D00069F181E080934E030E940C0790934D03A8
:1031E00080934C0380914C0390914D030E94F10613
:1031F000059700F110E003561C4F45E050E06EE7E4
:1032000073E0C8010E945436C12C892B51F085E02F
:10321000EEE7F3E0D80101900D928A95E1F7CC2416
:10322000C39410924E0307C080E0A3CF80914E0359
:103230008111D8CFC12C0E944E14D82EE091890361
:10324000882309F492C07E01BBE0EB0EF11C85E0FF
:10325000D7011D928A95E9F70E2F10E003561C4FF7
:10326000B0905703B9E0BB15E0F12FE630E248E635
:1032700051E0B701C8010E942218882309F453C005
:1032800027EB3FE145E751E0B701C8010E94221852
:10329000882309F448C02DE030E240E851E0B7014E
:1032A000C8010E9422188823F1F1F9E0FB1508F407
:1032B00053C0109257038091880390E045E050E09E
:1032C000B70183569C4F0E94543621E0209355034A
:1032D000892BE1F4D12C8D2D8C292F96EDE00C94C7
:1032E0006A3580914F03909150030E94F106843F0C
:1032F000914008F0BACF80915503882359F385E0B7
:10330000D7011D928A95E9F710925503A091880381
:10331000B0E0A356BC4F85E0FE013B9601900D92B4
:103320008A95E1F7D8CF809157038F3F31F08F5FB7
:10333000809357038A3008F4BECF0E940C07909305
:10334000500380934F038091D50380FFD4CF8EEA42
:1033500092E00E94AF04CFCF8091D50380FFA9CF28
:103360008BE992E00E94AF04A4CFF0E0E356FC4F5B
:1033700085E0A6E6B3E001900D928A95E1F786E636
:1033800093E00E9451058093650380906B039090B9
:103390006C03A0906D03B0906E03809151039091E7
:1033A0005203A0915303B091540388169906AA06BC
:1033B000BB06D1F08092510390925203A092530326
:1033C000B09254030E944E1481110EC00E94000757
:1033D000861A970AA80AB90A80927A0390927B0308
:1033E000A0927C03B0927D0386E0EFE6F3E0A4EDCB
:1033F000B4E001900D928A95E1F7109175031123C5
:1034000049F08091D403811105C00E94460E80E0EE
:103410000E9464071093D4035ECF0F931F93CF9342
:10342000DF938091A5049091A404892B8093E802F6
:1034300090914A03992391F0892B8093E80220E030
:103440008AEE92E0FC013191CF0131112F5FF2E061
:10345000803F9F07B9F721110E946E1248E050E0AB
:1034600062E473E088EE92E00E945436892B09F4FE
:1034700041C088E0E8EEF2E0A2E4B3E001900D92F2
:103480008A95E1F7E091AA04F091AB04309791F1AD
:103490000280F381E02D88EE92E009958091D503BA
:1034A00082FF28C080FF04C089E892E00E94AF0438
:1034B000D0E0C0E003E812E08091D50380FF0EC0A9
:1034C000FE01E851FD4F80811F928F931F930F9350
:1034D0000E9448050F900F900F900F902196C830D2
:1034E000D10551F78091D50380FF04C081E892E0B7
:1034F0000E94AF04DF91CF911F910F910895CF9358
:10350000DF93EC01EA85FB85309719F06C857D85AA
:1035100009958B810E9474128C810E947B120E94FB
:103520000D1A86E0FE0111928A95E9F7DF91CF919D
:103530000895CF93DF93EC018D8181FD18C08260E7
:103540008D838091A4049B81892B8093A404809116
:10355000A5049C81892B8093A5040E940D1AE885FF
:10356000F985309721F06C857D85CE010995109203
:10357000A7041092A6048D8180FD03C0CE010E9495
:103580007F1ADF91CF91089590E080E00E94480774
:1035900090E080E00E9432071092A4040E940D1A6D
:1035A0000895809306050E94C41A08958091060527
:1035B000982F9670963021F488600E94D11A089551
:1035C000877FFBCF21E030E001C0220F8A95EAF728
:1035D00020958091060582230E94D11A089590912A
:1035E00041038095892380934103282F277091F40C
:1035F000282F082E000C330B9217130659F09091C8
:103600008B0392FF07C08595859585950E94E21AE8
:10361000109241030895CF93DF93D82FC0918B036D
:10362000C2FB882780F98D1711F1D0FBC2F9C09336
:103630008B0360918A0384E090E00E9430366C2F07
:1036400082E290E00E94303682E00E94EF1A809180
:10365000D50380FF0CC01F92DF938CE692E09F930E
:103660008F930E9448050F900F900F900F90DF915D
:10367000CF91089521E030E001C0220F8A95EAF74A
:1036800080910605822B0E94D11A089580934B03E6
:103690000E94C41A08951092A504EAEEF2E086E0B2
:1036A000DF011D928A95E9F70E94C41A0895AAE2E3
:1036B000B0E0EDE5FBE10C94583588EC94E0209106
:1036C000F100DC012D93CD01B4E0803D9B07B9F7FB
:1036D0008091C904833009F472C0B8F4813009F4D0
:1036E00049C0823009F4B3C08091E80083FF91C2E1
:1036F0008091C8049091C9049A3008F08AC2E92FD9
:10370000F0E0E157F94C0C94D3358A3009F48EC0BF
:103710008B3009F471C0893039F78091C804813247
:1037200019F78091CC049091CD04009711F0029785
:10373000D9F68091E800877F8093E8008091E800C7
:1037400082FF38C09091F3008091F200029731F42B
:103750008091F100813011F0863021F48091F100E8
:103760008093BB048091E8008B778093E8000E94EF
:10377000E205BACF8091C804813A09F0B5CF8091B3
:10378000E800877F8093E8008091CC049091CD047D
:10379000892B61F468E08CEB94E070E00E948E0667
:1037A0008091E8008B778093E8009ECF60E090E006
:1037B00080E0F3CF8091C6048111C0CF95CF809176
:1037C000C804813A09F090CF8091CC049091CD0447
:1037D000892B09F089CF8091E800877F8093E800EA
:1037E0008091E80080FFFCCF80914D018093F10033
:1037F0008091E8008E77B9CF8091C804813209F0BA
:1038000073CF8091CC049091CD04892B09F06CCFBB
:103810008091E800877F8093E8000E94E205809114
:10382000CA0480934D010E944B1B5ECF8091C80457
:10383000813209F059CF8091E800877F8093E800BA
:103840000E94E2058091CB048093BA044DCF809111
:10385000C804813A09F048CF8091E800877F8093BF
:10386000E8008091E80080FFFCCF8091BA04BECFD1
:10387000803899F0823809F0CCC18091CC048F70E7
:10388000873008F0C6C18093E9008091EB0085FB8A
:10389000882780F91092E90006C08091C4049091B5
:1038A000C504911182609091E800977F9093E800A1
:1038B0008093F1001092F1008091E8008E77A5C10D
:1038C000882309F493C1823009F0A3C18091CA040E
:1038D000811196C18091CC048F702FEF280F263074
:1038E00008F097C18093E9002091EB0020FF88C188
:1038F000933031F48091EB0080628093EB0080C1C3
:103900009091EB0090619093EB0021E030E001C0DA
:10391000220F8A95EAF72093EA001092EA0080913C
:10392000EB008860EACF811174C11091CA041F773F
:103930008091E3008078812B8093E3008091E80000
:10394000877F8093E8000E94E2058091E80080FF75
:10395000FCCF8091E30080688093E30082E0111146
:1039600083E08093C60455C18058823008F051C16D
:103970002091CA043091CB042C3DE3E03E07A1F531
:1039800083E08A838AE289834FB7F894DE01139635
:1039900020E03EE051E2E32FF0E050935700E49145
:1039A00020FF03C0E295EF703F5FEF708E2F90E035
:1039B000EA30C0F0C7968D939D932F5F243159F75D
:1039C0004FBF8091E800877F8093E8006AE270E053
:1039D000CE0101960E948E068091E8008B7780933D
:1039E000E80017C1C096E7CF8091CC049091CD0438
:1039F000432F55274330510509F44AC078F541302B
:103A0000510509F47AC08BE790E0E5E1F8E0423037
:103A1000510509F0FEC02091E800277F2093E800BF
:103A20002091CE043091CF048217930708F49C01B3
:103A300040E02115310509F065C0411163C0809156
:103A4000E80082FDC9CF8091C604882329F2853021
:103A500019F28091E80083FFF2CFBECF41325105C9
:103A600009F43CC04232510509F0D3C084309105BD
:103A700008F0CFC0FC01EE0FFF1FE253FE4F019094
:103A8000F081E02D86539E4FDC018C9190E01AC0AE
:103A9000332721303105D1F02115310561F0223075
:103AA000310509F0B6C0E2EAF8E0E4918E2F90E02B
:103AB000E2EAF8E007C0EEECF8E0E4918E2F90E047
:103AC000EEECF8E0009709F4A4C0A5CFEEEBF8E027
:103AD000E4918E2F90E0EEEBF8E0F4CF8430910586
:103AE00008F097C0880F991FFC01EA52FE4F019021
:103AF000F081E02D89E090E08ECF82E190E0E0E976
:103B0000F8E089CF8091C604882309F465CF853019
:103B100009F462CF8091E80083FD5ECF8091E800D8
:103B200082FD8DCF8091E80080FF83CF9091F300DC
:103B30008091F2002115310519F08830910550F07F
:103B400041E0089709F040E08091E8008E7780938B
:103B5000E8006FCF44914093F10031962150310934
:103B60000196E8CF803809F054C08091E800877F43
:103B70008093E8008091C7048093F1009DCE81116D
:103B800048C01091CA04123008F043C08091E80088
:103B9000877F8093E8001093C7040E94E2051123F9
:103BA00011F084E005C08091E30087FDFACF81E049
:103BB0008093C60442E061EC81E00E94010642E28B
:103BC00061EC84E00E94010642E261EC82E00E9426
:103BD000010642E260EC83E00E94010642E261ECF1
:103BE00085E00E9401068091C60413C08091CA043A
:103BF000813079F481E0933009F080E08093C5044E
:103C00001092E9008091E800877F8093E8000E948D
:103C1000E2058091E80083FF0AC08091E800877F79
:103C20008093E8008091EB0080628093EB00AA967D
:103C3000E3E00C9474350E944B1B2FEF84E39CE06F
:103C4000215080409040E1F700C0000088E19CE0F6
:103C50000FB6F894A895809360000FBE9093600013
:103C6000FFCF882321F00E9474120E940D1A08953C
:103C70008091A304882329F082E20E94311E1092D1
:103C8000A3040895882339F09091A404982B90936D
:103C9000A4040E940D1A0895882321F00E947B122B
:103CA0000E940D1A0895882339F09091A504982B4D
:103CB0009093A5040E940D1A0895882391F19CEF1A
:103CC000980F913A80F4EAEEF2E020EF32E0919121
:103CD000891303C0DF0111971C922E173F07B9F714
:103CE0000E940D1A089590E2980F983050F4877052
:103CF00091E001C0990F8A95EAF7892F0E947B1203
:103D0000EFCF9BE5980F933028F490E080E00E947D
:103D100048070895885A873120F490E080E00E9497
:103D200032070895CF93DF93EC010E945D1ECE0110
:103D30000E940F139E01205E31092830310510F0DA
:103D4000CD2B29F40E944C1EDF91CF9108950E9443
:103D5000311EFACFFC018281813031F4FB01808178
:103D600091810E94921E08958230E9F7FB018281C1
:103D70009381F7CFCF93C82F8823B1F08CEF8C0FAE
:103D8000813A00F5EAEEF2E080EF92E0DF012D915A
:103D9000C21761F08A179B07D1F76C2F88EE92E06B
:103DA0000E9418070E940D1ACF9108952191C21305
:103DB00003C0DF0111971C928E179F07B9F70E946D
:103DC0000D1AEBCF80E28C0F883068F4C77021E0C9
:103DD00030E001C0220FCA95EAF78091A504822B3A
:103DE0008093A504DFCFEBE5EC0FE33040F4F0E087
:103DF000E557FE4F808190E00E944807D5CFC85A12
:103E0000C73190F6EC2FF0E0EE0FFF1FE257FE4FA8
:103E1000808191810E943207C7CF1F93CF93DF9398
:103E2000182FD0E0C0E0893311F4C0E5D0E0812F35
:103E30000E94BA1E209739F4812F0E945D1EDF91E7
:103E4000CF911F9108958FE99FE00197F1F700C08E
:103E500000002197EFCF0F931F93CF93DF93C62FCF
:103E6000D42F022FFC0182818823A9F060930505DD
:103E70000E940C079093040580930305C77081E0AE
:103E800001C0880FCA95EAF70E94531EDF91CF91B7
:103E90001F910F91089580910505681332C080919C
:103EA0000305909104050E94F106883C910548F5B0
:103EB00010E21D0FCD17B9F080E28C0F883040F46E
:103EC000C77081E001C0880FCA95EAF70E944C1EB6
:103ED000183048F481E09D2F977001C0880F9A95A3
:103EE000EAF70E94531E802F0E940D1F183070F6B3
:103EF000D77081E001C0880FDA95EAF70E944C1E66
:103F0000C5CFC77081E001C0880FCA95EAF7F6CF28
:103F1000CF93DF93EC010E940F139E01205E3109C5
:103F20002830310510F0209741F40E94531E8C2F49
:103F30000E94BA1EDF91CF9108950E94421EF7CFD2
:103F4000FB01808191810E94881F0895CF93DF93A8
:103F5000EC018A81823041F4FB01828193810E94CD
:103F6000881F8D8182608D83DF91CF910895A4E0B9
:103F7000B0E0EDEBFFE10C945835409161035091B6
:103F8000620360916303709164032FB7F89480918A
:103F9000AF049091B004A091B104B091B2042FBFCE
:103FA000841B950BA60BB70B11E084369105A10578
:103FB000B10570F10E9482146E5F7F4F8F4F9F4F4B
:103FC00069837A838B839C8380911501909116017C
:103FD0008B599C4F4091140150E04530510510F031
:103FE00044E050E0BE016F5F7F4F0E94613682E087
:103FF00090E00E94D334182F882351F00E940007CC
:1040000060936103709362038093630390936403EE
:10401000812F2496E3E00C947435A7E0B0E0E3E14F
:10402000F0E20C94573586E0E4EDF4E0DE01119601
:1040300001900D928A95E1F78091D4038F8347E038
:1040400050E06FE673E0CE0101960E945436009175
:104050007603109177032091780330917903EFB7BD
:10406000F8944091AF045091B0046091B104709104
:10407000B204EFBF401B510B620B730B443651056A
:104080006105710518F411E0892B21F180911D0162
:1040900090911E018B599C4F40911C0150E048307B
:1040A000510510F047E050E0BE016F5F7F4F0E9466
:1040B000613683E090E00E94D334182F882351F0BA
:1040C0000E940007609376037093770380937803D0
:1040D00090937903812F2796E4E00C947335EF9247
:1040E000FF921F93CF93DF9300D000D000D0CDB7C5
:1040F000DEB77B0190E080E00E94D334182F882344
:1041000009F480C04091070150E04115510511F0BC
:1041100041E050E060910801709109016B597C4FBA
:10412000CE0106960E94613640915D0350915E0378
:1041300060915F03709160032FB7F8948091AF0492
:104140009091B004A091B104B091B2042FBF841B30
:10415000950BA60BB70B84369105A105B10540F46C
:1041600086E693E00E9451059E81891709F44AC0B2
:1041700081E090E00E94D334811116C010E085E008
:10418000E8E5F3E0D70101900D928A95E1F7812FE0
:1041900026960FB6F894DEBF0FBECDBFDF91CF914C
:1041A0001F91FF90EF90089540910F0150E046302D
:1041B000510510F045E050E060911001709111013F
:1041C0006B597C4FCE0101960E94613686E693E0E2
:1041D0000E9451059E818913D1CF0E9400076093F0
:1041E0005D0370935E0380935F039093600385E0AB
:1041F000FE013196A8E5B3E001900D928A95E1F7B2
:1042000011E0BDCF85E0E6E6F3E0DE011196019016
:104210000D928A95E1F71111EACFB1CF90E080E0DD
:104220000E941A36883E9E4F19F40E941A1608956D
:1042300080E0089568EE7EEF90E080E00E944E36C8
:1042400060E082E090E00E94303660E083E090E041
:104250000E94303610924B0360E084E090E00E94B0
:10426000303664E082E290E00E94303660E085E023
:1042700090E00E94303660E086E090E00E943036A8
:104280006FEF87E090E00E94303640E050E0BA01E6
:1042900088E090E00E94423660E08DE090E00E946D
:1042A000303640E050E0BA0188E190E00E944236AA
:1042B00060E087E190E00E94303640E050E0BA01D3
:1042C0008CE190E00E94423670E060E080E290E095
:1042D0000E944E3640E050E0BA0188E190E00E9432
:1042E000423680E00E942B150E94441540E050E0C9
:1042F000BA018FE090E00E94423640E050E0BA01FF
:1043000083E190E00E9442360895A4E0B0E0EBE83B
:10431000F1E20C944A358C01DC0113968D919C914D
:104320001497892B49F04C9111965C911197842F29
:1043300085238F3F09F073C62496E1E10C9466351E
:104340008114E4E09E0609F4D1C6C4010E9412362D
:10435000811101C0EA94FFEF8F1A9F0AA4C647019A
:10436000CE0101967C01D7012C91222309F4A3C62A
:10437000213009F04BC011969C91119712968C91A7
:10438000913031F4B2E0EB0EF11C0E940D1F07C01A
:10439000923049F4E2E0EE0EF11C0E94BA1EEFEFFB
:1043A000EE1AFE0AE0CF933031F4F2E0EF0EF11C8A
:1043B0000E945D1EF4CF943021F02FEFE21AF20A32
:1043C000EECF32E0E30EF11C30E020E0B7016F5F8A
:1043D0007F4FD70111964C918053990B8A309105EC
:1043E00050F021503109D8F2EFE9FFE03197F1F7B1
:1043F00000C00000F6CF329EF001339EF00D112474
:104400009C012E0F3F1F842F7B01E0CFE22FF0E0B5
:10441000EE56FE4F5490822F86958695869590E0B5
:10442000FC01EE57FE4F64902770712C022E02C0E3
:10443000759467940A94E2F731E063227724FC01D3
:10444000EE58FE4FA490B12C022E02C0B594A79452
:104450000A94E2F7A1E0AA22BB24FC01EE59FE4F28
:10446000C490D12C02C0D594C7942A95E2F7B1E04C
:10447000CB22DD246114710419F081EE0E94BA1E72
:10448000A114B10419F086EE0E94BA1E852D0E9477
:104490000D1FA114B10419F086EE0E945D1E611477
:1044A000710419F081EE0E945D1EC114D10409F45B
:1044B00076CF8CE26ACF81E00E943A1B0E94D61A26
:1044C00015C681E00E94E21AF9CF82E0F5CF9E2D59
:1044D0008F2D5CC5FD01858181FF5CC5CD010E94EA
:1044E0007F1A58C5FCEAEF16FDE5FF0609F052C534
:1044F000882309F4FBC58091A304882319F00E9446
:10450000381EF4C51092A5040E946E120E940C077A
:1045100088579C4E90939B0380939A0381E08093ED
:10452000A304E4C5E11482E5F80608F068C5D801E3
:1045300012968C91882309F4EBC510920505B3E01F
:10454000EB16BDE5FB0608F0DBC0EAEFEE16ECE586
:10455000FE0630F4C70182509C45449708F0DDC048
:104560000E94331690938B0380938A0382E1E816AE
:104570008CE5F80609F4F8C108F036C1A9E0EA169E
:10458000ACE5FA0609F4CEC108F0F9C0E5E0EE1694
:10459000ECE5FE0609F4BAC108F0DDC023E0E2163E
:1045A0002CE5F20609F4AAC108F0ACC182E0E816D5
:1045B0008CE5F80609F49AC160918A03F0908B03A8
:1045C00084E090E00E9430366F2D82E290E00E94FD
:1045D00030360E944B1B8AC5E11499E5F90660F458
:1045E000E114A8E5FA0608F0A2CFB4E1EB16B5E5B0
:1045F000FB0609F004C59BCFC70190568115904278
:1046000008F0FDC4D80115968C91807F91F58F2D0F
:104610008F71823139F110F5823021F10E94381EFC
:1046200023EFE2162CE5F20609F45BC008F042C065
:1046300088EDE8168CE5F80609F44FC099EDE91607
:104640009CE5F90609F459C0A7EDEA16ACE5FA06AF
:1046500009F06DCF26E241EE61EE3BC0843101F3FB
:104660008631E1F61092A404D9CFF8018581807FCC
:10467000B9F2C70199271092A4048832910548F431
:104680008E31910568F4049748F282E08093A40487
:1046900007C08D329105C9F330F48A9709F0BECF77
:1046A0000E940D1ABDCF8C349105D1F38D3292400A
:1046B000B9F3B4CFB5EFEB16BCE5FB06D1F0A8F02B
:1046C00027E245EE66EEF6EFEF16FCE5FF0609F091
:1046D0002ECFC8010E942B1F09C527E245EE65EECB
:1046E000F8CF26E241EE60EEF4CF27E245EE64EE2D
:1046F000F0CF26E241EE62EEECCF28E241E0EFCFD0
:10470000F5EAEF16FDE5FF0609F42ACFF0F431E6ED
:10471000E3163DE5F30609F423CF86E1E8168CE5C0
:10472000F80609F00EC58091A5048A7A91E009F493
:1047300090E09093F00269E2811165E388EE92E0E7
:104740000E9418070E940D1AD1C4C7018D5A9D45B9
:10475000039718F705CF80918A03806297E0E916E6
:104760009CE5F906F1F180918A038061A8E0EA16E0
:10477000ACE5FA06B0F180918A03806432C0BDE0F6
:10478000EB16BCE5FB0609F4D7C0A0F480918A03C0
:104790008E7FFBE0EF16FCE5FF0619F180918A039E
:1047A0008C602CE0E2162CE5F206D8F080918A03AA
:1047B0008D7F17C03FE0E3163CE5F30609F4CCC05B
:1047C00008F4BEC090E1E9169CE5F90609F4C8C0FA
:1047D00080918A038F7BA1E1EA16ACE5FA0609F025
:1047E000EBCE80938A03E8CEBFEFEB16BCE5FB0669
:1047F00009F4C4C0D8F5FAEFEF16FCE5FF0609F49A
:1048000089C0D0F434E1E3163CE5F30609F4C4C0F2
:1048100008F4B0C095E1E9169CE5F90609F0CCCEA4
:1048200080918A0382FB992790F921E0922790FBDF
:1048300082F990FB83F9D5CFACEFEA16ACE5FA0626
:1048400009F482C008F46AC0EDEFEE16ECE5FE064E
:1048500009F47EC080918B038360FEEFEF16FCE5C8
:10486000FF0609F0A9CE80938B03A6CE21E6E216BF
:104870002DE5F20609F49BC0A0F481E0E8168DE571
:10488000F80609F492C008F47DC060E0A2E0EA16E0
:10489000ADE5FA0609F090CE8EE090E00E94303649
:1048A0008BCEBDEAEB16BDE5FB0621F168F49091D5
:1048B0008A03892F8E7F90FF8160F5EAEF16FDE570
:1048C000FF0609F48ECF78CE2EEAE2162DE5F20629
:1048D00079F13FEAE3163DE5F30609F06DCE9091DC
:1048E0008B03892F877F93FF8860BDCF80918A03D8
:1048F000816077CF80918B038860B5CF80918A03E8
:1049000082606FCF80918A0384606BCF80918A032D
:10491000886067CF80918B038160A5CF80918B03E6
:104920008260A1CF0E944B1B80918A03806859CF7F
:1049300080918B03877F97CF80918A038B7F51CFA4
:1049400080918A03877F4DCF80918B038E7F8BCFA1
:1049500080918B038D7F87CF80918A038F7E41CF9B
:1049600080918A038F7D3DCF0E944B1B80918A03EB
:104970008F7737CF80918A03837F33CF80918B03EA
:104980008C7F71CF80918B03982F909591708E7F43
:10499000892B90FB81F967CF0E944B1B90918A0372
:1049A000892F97FB87F980581CCF61E075CF9091D4
:1049B0008A03892F8F7E94FF806113CF85E3B3C371
:1049C00047EE57E162EF77E10E945E078FC342EF47
:1049D00057E167EE77E1F8CF4AE957E165EA77E119
:1049E000F3CF45EA57E16AE977E1EECF4EE757E1C9
:1049F0006CE877E1E9CF4CE857E16EE777E1E4CF87
:104A000040E757E162E677E1DFCF44E157E160E25A
:104A100077E1DACF40E257E164E177E1D5CF61E0B9
:104A200081E00E94B01762C361E08DE0FACF9091FF
:104A3000D503892F8E7F90FF81608093D50380FFFF
:104A400005C08BE592E00E94AF0450C389E492E078
:104A5000FACF0E941A210E941B1E80918B0382FBB9
:104A6000882780F991E089270E940B1BD8011296B4
:104A70008C911297ED90FC90882309F445C0C701F2
:104A80000E949115D82E682FC7010E94C012B7014D
:104A90008D2D0E9483150E94EE107C01882EF80156
:104AA000D280B580B2943FE0B322809141038770F9
:104AB000C1F0AD2CDD20B1F08F2D807F803421F04E
:104AC00080E28E0D883068F080918B0382FF09C0F0
:104AD00082E00E94EF1A809141038770AA24A39478
:104AE0008111A12C9F2C92942FE09222FBE0F915CA
:104AF00008F46FC0E92DF0E0E756F94C0C94D3357B
:104B000081E0B2CF80E0B0CFC7010E948C12D82ED6
:104B1000BECF2F2D2F70C22E8F2D807F19F0C29403
:104B200090EFC922DD20B9F0CC2069F080E28E0D33
:104B3000883010F0811009C08091A504C82AC09265
:104B4000A5040E940D1A8E2D42C08091A404C82A8B
:104B5000C092A404F6CF8E2D0E945D1ECC20C9F118
:104B600080E28E0D883010F0811004C08C2D0E94E0
:104B70007B1203C08C2D0E9474120E940D1A29C052
:104B80003F2D3F70C32E8F2D807F803219F0C2944D
:104B900080EFC822882059F081E0881609F471C09E
:104BA000DD2009F47BC0BB2009F471C0CCCF20917B
:104BB0008B0322FD43C0DD20D9F1CC2039F0809158
:104BC000A504C82AC092A5040E940D1A80E00E9484
:104BD000BA1EA92DA850BB0B149710F40E94711493
:104BE000AA20A9F08091410380FD11C0F801128232
:104BF0008595859585950E943A1BC8010E9485215F
:104C0000809141038595859585950E94E21A20E063
:104C1000D8014C9111965C91119712966C91129754
:104C200013967C91139714968C910E94F71584CB60
:104C300080E00E945D1ECC2061F298CFDD20A1F0C3
:104C400090914A038C2D892BB11003C00E94531EF2
:104C5000C0CFA1E0BA12FACF22FFBBCF981709F458
:104C6000B8CF80934A03B5CFB11006C00E946E1230
:104C70008C2D0E944C1EADCFB1E0BB1609F4A9CF1C
:104C8000F5CFDD2031F0E5E0EB1508F4A2CF8C2D57
:104C9000DDCFF4E0FB1508F49CCFEACFBB2041F355
:104CA00029E3821209C03FEF87EE93E03150804044
:104CB0009040E1F700C000008E2D0E945D1E89CF5C
:104CC0008F2D86958695837061F0813009F081CFB4
:104CD000C7019370D11002C090E080E00E943207BB
:104CE00078CFC7019370D11002C090E080E00E949D
:104CF00048076FCF8F2D837091F5D1106ACF4E2D5D
:104D0000429546954770440F440F8E2D8F70042EA8
:104D100001C0880F0A94EAF72E2D2071E4FE07C027
:104D20002FE030E001C0220F4A95EAF720953F2D91
:104D3000369536953370323069F050F440914B031C
:104D4000313029F0822B84230E94461B42CF842BD2
:104D5000822BFACF282B80914B038227F5CF8695A3
:104D6000DD2011F08F2D8170882309F432CF4E2D74
:104D7000429546954770440F440F8E2D8F70042E38
:104D800001C0880F0A94EAF72E2D2071E4FE07C0B7
:104D90002FE030E001C0220F4A95EAF720953F2D21
:104DA000369536953370323069F050F440910605EF
:104DB000313029F0822B84230E94D11A0ACF842B10
:104DC000822BFACF282B809106058227F5CFAF2DB5
:104DD000AF70FA2EDD2029F08A2F0E943A1B8E2D0B
:104DE00035CF8E2D0E944C1E8F2D0E94E21AF1CEDF
:104DF0008E2DB2EF8B16B1F1B81570F0E0EF8E1674
:104E0000D1F0F1EF8F1691F0DD2009F45EC0B11002
:104E10009ACE8F2D8F712AC023EF821651F134EF75
:104E20008312F2CF80918B0382FD2FC08F2D8F7163
:104E3000DD20D9F21BC0DD2081F084E08B1508F461
:104E4000C8CE2F2D2F7181E090E001C0880F2A95E8
:104E5000EAF7909106058927AFCF95E09B1508F4F6
:104E6000B8CEEFCF8F2D8F71D110BFCF0E943A1BDC
:104E7000B0CE80E0DD2009F49FCF9F2D9F7181E0AF
:104E800001C0880F9A95EAF797CFDD2099F0AF2DF2
:104E9000AF71FA2E8A2F0E943A1B80918B0382FFFA
:104EA00007C0B8E0FB9EC0011124836080934103DA
:104EB0008F2DDCCF81E00E94EF1AE1E0EB1508F0C6
:104EC00088CE82E00E94EF1A84CEBB2059F089334D
:104ED00009F0F2CEFFEF27EE33E0F15020403040F2
:104EE000E1F7E8CE8F2D8F7180CFB0E1EB16BFE5F3
:104EF000FB0609F4E0CAE1E1EE16EFE5FE0609F46F
:104F0000E4CA970137552F3F310511F008F0EACA7E
:104F10005701BB242EE0E29EF0011124DF01A45CC6
:104F2000BE4F6D01EF5BFE4F908180FB90F9908347
:104F3000882309F4CFCA0E940C07909399038093A9
:104F40009803F60182818F5F82838091A4049091FF
:104F5000A504892B838380914A0384830680F7818B
:104F6000E02D309731F0D6011C966D917C91C601F1
:104F700009958EE08A9DF0018B9DF00D1124E45C73
:104F8000FE4F858181FFA3CA90E080E09093A60444
:104F90008093A7048091A304882309F441CBC09097
:104FA000A504D0904A030E940C0788579C4E90930A
:104FB0009B0380939A03D80112968C91882309F45D
:104FC0002FCB8D2D8C298D7909F028CBE114B5E5F7
:104FD000FB0608F001CBE114E3E5FE0608F0A7CAE2
:104FE000E114F0E5FF0608F09DCAE11420E4F206A2
:104FF00008F03BCB36EEE316F10409F498CAC7017A
:105000003ACBF0E1EF16FFE5FF0609F45ACA21E1B9
:10501000E2162FE5F20609F074CF82E053CA21E0D0
:1050200012966C91129713967C91139714968C910B
:105030000E94F7157C01F80182818823E1F08091BC
:10504000A6049091A7040097B1F08E159F0599F0E2
:10505000BEE08B9FC0011124FC01EF5BFE4F20815D
:1050600024602083845C9E4FFC01F182E0820E94D8
:10507000991A1092A404D80112968C91882309F2EF
:10508000970122513F452031310508F02ECF8FEF97
:1050900093E00E941236811129C0BEEEEB0E57E05C
:1050A000852E52E0952EE1104BC91C821B824424B0
:1050B00043944AE0342E74012FEFE21AF20AC4013D
:1050C0000E94123689831A82882381F09FEF980FFD
:1050D000933008F044C98A83498232E0830E911CE0
:1050E000C7010E9412368B8381113AC98091410316
:1050F000877009F421C9F8018281882309F41CC949
:1051000080918B0382FF18C982E00E94EF1A14C9B4
:10511000F6E1EF16FCE5FF0609F047C08091F002CA
:1051200081114CCC89E2EAEEF2E020EF32E091917D
:10513000891303C0DF0111971C922E173F07B9F79F
:1051400001CB2AE5E2162DE5F20609F4D9CCF0F4FC
:1051500081E0E8168CE5F80609F469CC9EEDE916C5
:105160009CE5F90609F475CCE114ACE5FA0609F002
:105170007DCC0E944B1B9FEFA4E3BCE09150A0406C
:10518000B040E1F700C000000E940314BCE5EB163C
:10519000BDE5FB0609F461CC08F4B4CCF7EAEF16E0
:1051A000FDE5FF0609F457CC61CC8091A50482721D
:1051B0002AECE2162CE5F20609F422CC08F056C0DF
:1051C00095ECE9169CE5F90609F406CCB0F5B3ECCC
:1051D000EB16BCE5FB0609F4F3CB08F0F8CBF2ECD8
:1051E000EF16FCE5FF0609F041CC8091D404982F1E
:1051F000937021E092278C7F892B8093D4041092A6
:105200004C018091D60381608093D6038091D503B1
:1052100080FF6CCF1F929F9381E691E09F938F93C5
:1052200082E192E09F938F930E9448050F900F9028
:105230000F900F900F900F9059CF27ECE2162CE5AE
:10524000F20609F4D3CB08F4CCCB98ECE9169CE534
:10525000F90609F4D0CB42E657E160E777E1A9EC23
:10526000EA16ACE5FA0609F4AFCB00CCBFECEB16BE
:10527000BCE5FB0609F4D8CBB8F4FCECEF16FCE572
:10528000FF0609F4C7CB08F4C0CB3DECE3163CE5C0
:10529000F30609F4C4CB8EECE8168CE5F80609F0A9
:1052A000E5CB61E085E0BDCB96EDE9169CE5F9061E
:1052B00048F461E082E1A1EDEA16ACE5FA0608F4F3
:1052C000B0CB14CFBDE5EB16FB0609F40FCFCECB68
:1052D0001F93CF93DF9380910E03807F09F049C025
:1052E00080910B03882309F444C080914003D0913E
:1052F0000F036091090370910A03A0910C03B09110
:105300000D03C62FC72316E0D81799F190E0109728
:1053100011F0CF3F19F401968770F6CF189F9001D6
:10532000199F300D1124F901E05FFC4F41814713B3
:10533000F2CF40814613EFCF42814111ECCF438140
:1053400054814A1B5B0B483C510528F780910E03A2
:105350008F70806180930E03F901EB5EFC4F8081BA
:105360008F708061808389E093E00E9485210E9494
:105370008212DF91CF911F910895A1E1B0E0E3EC9B
:10538000F9E20C944F358C0185E0F801DE011D96A1
:1053900001900D928A95E1F7D801DC901196CC909E
:1053A00011971296EC90129713968D909C9020E096
:1053B0004091090350910A0360910B0370910C0313
:1053C00080910D030E94F715AC0189E0A82E83E0BF
:1053D000B82E60910C0370910D036115710509F4ED
:1053E0004CC19091090320910A03892F82238F3F9A
:1053F00009F443C1F0900B03F401E61BF70BFF2007
:1054000009F4F9C080910E03382F307FE83CF10594
:1054100008F0BDC0D80111964C911197311178C098
:10542000FE2C421315C02C91291312C0E11010C09C
:105430008F70806180930E03C5010E948521809149
:105440000E03F80185838F2D6196ECE00C946B358B
:105450008114910429F08D2D8C218F3F09F028C1F2
:1054600080E0F82FF170BF2E80FF3DC08091400397
:1054700020910F0336E0821316C0DD86CE868D851F
:105480009E850E94C015292F22952F702230F8F09A
:10549000243020F59F70F9F0D80115969C91907FEB
:1054A000D1F4B12C1EC090E0389FF001399FF00D6F
:1054B0001124E05FFC4F4181C41206C04081D41228
:1054C00003C04281E4120FC001968770D4CF9F7051
:1054D00011F0882331F3805E883018F3C8010E94F0
:1054E0008521FB2CB0CFEE2009F4ADCF80910E03C7
:1054F000816080930E0389E093E00E94852186E01D
:10550000E9E0F3E0DF011D928A95E9F7F12C9BCFEA
:10551000421313C0F801208129130FC0E1100DC000
:105520008583C8010E94852186E0F801A9E0B3E0E7
:1055300001900D928A95E1F786CFC8010E94CD15A2
:10554000882309F1EE20F9F080910E03803270F08B
:105550002091090330910A0338872F8319869B868F
:105560008A868C87CE0107960E94852186E0F80105
:10557000A9E0B3E001900D928A95E1F70E946829B5
:10558000FF24F39460CFC8010E948521F9CF311127
:1055900007C089E093E00E94852186E0D501B3CF62
:1055A000F801318132130FC0208129130CC0E110A2
:1055B0000AC08583C8010E94852186E0D5011D921D
:1055C0008A95E9F740CFC8010E94CD158823D9F20A
:1055D000EE20C9F280910E03803240F2209109033F
:1055E00030910A033A8329831B829D828C828E83A9
:1055F000CE010196B9CFE83CF105C8F5FE2CEE20AE
:1056000011F2F8018181821324C08081891321C0A5
:105610004C32F1E45F0709F487CF4A32524609F46D
:1056200083CF90910E0390FD7FCF907F09F47CCFC4
:1056300080910E03D80115968C931597903F09F42D
:1056400070CF982F907F905F8F70892B15968C93D9
:1056500068CFC8010E94CD15811188CF80910E03BB
:10566000816080930E03C8010E948521ECCE86E004
:10567000F50111928A95E9F7E6CEEE2009F483CF81
:10568000C8010E94CD15F82E882309F47CCF86E04E
:10569000F801A9E0B3E001900D928A95E1F78091BD
:1056A000090390910A030E94C0150E946829CBCE7D
:1056B00081E08E25D6CEA7E1B0E0E1E6FBE20C94D6
:1056C00058354B8B5C8B6D8B7E8B8F8B6111109261
:1056D000A4041A8A198A85E0FE017396DE011D96DC
:1056E00001900D928A95E1F786E0FE013D96DE017C
:1056F000179601900D928A95E1F7CE0107960E94C8
:10570000BD29882359F016E08091400390910F0342
:10571000891343C06796E3E00C94743586E0FE017C
:105720003796DE01119601900D928A95E1F78A85F0
:105730009B85892B41F38F81988589238F3F19F3AE
:1057400020910F0330E0C90101968770992740919D
:1057500040034817190671F40E944B1B10920F0367
:105760001092400386E0E9E0F3E0DF011D928A95A4
:10577000E9F7C9CF96E0929FD001939FB00D112415
:10578000A05FBC4FFE01319601900D929A95E1F712
:1057900080930F030E948212B6CF819FC001112413
:1057A000805F9C4F0E94BD29882309F4B3CF80916C
:1057B000400390E001968770992780934003A4CF1F
:1057C0001F920F920FB60F9211242F933F934F9376
:1057D0005F936F937F938F939F93AF93BF93CF9379
:1057E000DF93EF93FF93D091E900DF708091EC009D
:1057F000C82FC17080FDC0E81092E9008091F000D0
:10580000877F8093F00078940E94571B1092E900E4
:105810008091F00088608093F000CD2BCF70C09312
:10582000E900FF91EF91DF91CF91BF91AF919F91EF
:105830008F917F916F915F914F913F912F910F9039
:105840000FBE0F901F9018951F920F920FB60F92D8
:1058500011242F933F934F935F936F937F938F9375
:105860009F93AF93BF93EF93FF938091E10082FFEB
:1058700015C08091E20082FF11C08091E1008B7F12
:105880008093E1002091B8042F5F822F62E30E9491
:105890008035992309F4C0C02093B8048091DA00C0
:1058A00080FF28C08091D80080FF24C08091DA005A
:1058B0008E7F8093DA008091D90080FFE3C080E181
:1058C00089BD82E189BD09B400FEFDCF81E08093EE
:1058D000C60481E098E00E94AF048091B904811170
:1058E00009C00E9468050E9433068091E20084602E
:1058F0008093E2008091E10080FF1BC08091E20074
:1059000080FF17C08091E2008E7F8093E20080913B
:10591000E20080618093E2008091D80080628093F1
:10592000D80019BC85E08093C60489E098E00E9405
:10593000AF048091E10084FF2FC08091E20084FFDA
:105940002BC080E189BD82E189BD89B5982F917016
:1059500080FFFBCF8091D8008F7D8093D80080910D
:10596000E1008F7E8093E1008091E2008F7E809342
:10597000E2008091E20081608093E2008091C704A0
:10598000882309F489C084E08093C6048DE098E000
:105990000E94AF048091C6048091E10083FF2BC078
:1059A0008091E20083FF27C08091E100877F809390
:1059B000E10082E08093C6041092C7048091E10068
:1059C0008E7F8093E1008091E2008E7F8093E200E1
:1059D0008091E20080618093E20042E060E080E03C
:1059E0000E9401068091F00088608093F00081E1C0
:1059F00098E00E94AF04FF91EF91BF91AF919F910A
:105A00008F917F916F915F914F913F912F910F9067
:105A10000FBE0F901F9018951092B8048091B70494
:105A2000882309F43BCF8091C6048430C1F490915F
:105A3000E9009F702091EC00822F817020FD80E8AA
:105A4000892B95E09093E9009091EB0090FF04C0C2
:105A50009091EE0097FD08C08F708093E90010923E
:105A6000B7041CCF1092F1009091E80095FDFACF99
:105A70009091E80090FFF0CF9091E8009E7790938E
:105A8000E800EACF19BC1092C60485E098E00E94B5
:105A9000AF041092B9042ECF8091E30087FD93E00C
:105AA0009093C60473CF78941F921FB61F9211244F
:105AB0008F939F93AF93BF938091AF049091B00465
:105AC000A091B104B091B2040196A11DB11D8093C3
:105AD000AF049093B004A093B104B093B204BF910B
