:100000000C9469040C948C310C94A1040C94A104FC
:100010000C94A1040C94A1040C94A1040C94A104CC
:100020000C94A1040C94A1040C94B4290C94702990
:100030000C94072B0C94A1040C94A1040C94A1041F
:100040000C94A1040C94A1040C94A1040C94A1049C
:100050000C94A1040C94E32A0C94A1040C94A10424
:100060000C94A1040C94A1040C94A1040C94A1047C
:100070000C94A1040C94A1040C94A1040C94A1046C
:100080000C94A1040C94A1040C94A1040C94A1045C
:100090000C94A1040C94A1040C94A1040C94A1044C
:1000A0000C94A1040C94A1040C94A1040631FF0942
:1000B00074A1010975150026FF00952075088102BD
:1000C0000976150026FF00952075089102C00501EC
:1000D0000980A101850319012AB700150126B7007F
:1000E000950175108100C0050C0901A10185041955
:1000F000012AA002150126A002950175108100C0F9
:100100000660FF0961A1010962150026FF00952024
:10011000750881020963150026FF00952075089176
:1001200002C005010906A101050719E029E715002C
:100130002501950875018102950175088101050762
:10014000190029FF150026FF009506750881000596
:10015000081901290595057501910295017503910D
:1001600001C00000000000000000000000000000CE
:10017000000000000000000000000000000000007F
:100180000000000000007E0F00D4FFFFFFC700004A
:10019000007800000000000000002A2B280000006A
:1001A0000000000000000000000000000029000026
:1001B00000002C1E3420212224342627252E362D03
:1001C0003738271E1F202122232425263333362E9D
:1001D00037381F0405060708090A0B0C0D0E0F100F
:1001E0001112131415161718191A1B1C1D2F313054
:1001F000232D350405060708090A0B0C0D0E0F10F8
:100200001112131415161718191A1B1C1D2F313033
:10021000354C726762206D617472697820746F6703
:10022000676C65205B25735D3A207267625F6D6164
:10023000747269785F636F6E6669672E656E61625E
:100240006C65203D2025750A0044454255473A20FB
:1002500064697361626C65642E0A004445425547C7
:100260003A20656E61626C65642E0A004F6E65739C
:10027000686F743A206163746976653A2025640A70
:10028000000A002530325820006B6579626F617278
:10029000645F7265706F72743A20005461726765B2
:1002A0007420636F6E6E65637465640D0A0054613B
:1002B0007267657420646973636F6E6E65637465DD
:1002C000642C207468726F74746C696E6720636F3D
:1002D0006E6E656374696F6E20617474656D7074A1
:1002E000730D0A004661696C656420746F2065783F
:1002F00065637574652025730A007267625F6D61BE
:10030000747269785F636F6E6669672E666C616789
:1003100073203D2025640A007267625F6D6174720C
:1003200069785F636F6E6669672E737065656420B8
:100330003D2025640A007267625F6D61747269789E
:100340005F636F6E6669672E6873762E76203D2038
:1003500025640A007267625F6D61747269785F6319
:100360006F6E6669672E6873762E73203D20256454
:100370000A007267625F6D61747269785F636F6EA5
:100380006669672E6873762E68203D2025640A0012
:100390007267625F6D61747269785F636F6E6669C0
:1003A000672E6D6F6465203D2025640A00726762C8
:1003B0005F6D61747269785F636F6E6669672E65E1
:1003C0006E61626C65203D2025640A007267625F81
:1003D0006D61747269785F636F6E66696720454509
:1003E00050524F4D0A007267625F6D617472697896
:1003F0005F696E69745F6472697665727320726793
:10040000625F6D61747269785F636F6E6669672E93
:100410006D6F6465203D20302E2057726974652011
:1004200064656661756C742076616C7565732074A3
:100430006F20454550524F4D2E0A007267625F6D26
:1004400061747269785F696E69745F6472697665F8
:100450007273206565636F6E666967206973206ECD
:100460006F7420656E61626C65642E0A005B735D5B
:10047000000A0025303862003A200025303258004A
:100480000A722F632030313233343536370A000A8E
:100490000025303258006C65645F7461736B3A20DC
:1004A0000000010101010101010101020202020239
:1004B000020202020303030303030303040404040C
:1004C00004040405050505050606060606070707D4
:1004D000070708080808090909090A0A0A0B0B0B8B
:1004E0000C0C0C0D0D0D0E0E0E0F0F0F1010111128
:1004F00011121213131414151516161717181819AC
:10050000191A1A1B1B1C1D1D1E1E1F202021222212
:10051000232424252626272829292A2B2C2D2D2E55
:100520002F30313232333435363738393A3B3C3D6F
:100530003E3F404142434445464748494A4C4D4E60
:100540004F50515354555658595A5B5D5E5F616226
:1005500064656668696B6C6D6F7072737577787AB5
:100560007B7D7E8082838587888A8C8E8F91939510
:1005700096989A9C9EA0A2A3A5A7A9ABADAFB1B334
:10058000B5B7BABCBEC0C2C4C6C9CBCDCFD1D4D614
:10059000D8DBDDDFE2E4E7E9EBEEF0F3F5F8FAFDB6
:1005A000FF6565636F6E6669675F7570646174652A
:1005B0005F7267625F6D61747269785F64656661BE
:1005C000756C740A00726762206D617472697820BC
:1005D0006D6F6465205B25735D3A2025750A007296
:1005E0006762206D61747269782073657420687326
:1005F00076205B25735D3A2025752C25752C257595
:100600000A00726762206D61747269782073657484
:10061000207370656564205B25735D3A2025750A3B
:100620000029001E001F002000210022002B0014C2
:10063000001A00080015001700E00004001600076B
:100640000009000A00E1001D001B0006001900055A
:100650000000000000E300105F28004A002A002785
:100660000026002500240023004C00130012000C7B
:100670000018001C00340033000F000E000D000BAA
:1006800000E50038003700360010001100000000BF
:1006900000E600115F2C004D0035021E021F0220F3
:1006A0000221022202005C1E001F00200021002205
:1006B000004C00010050004F0052002F00C05C01B0
:1006C000000100010051002F0200000000010001A4
:1006D000004C0026022A00270226022502240223BB
:1006E0000201002700260025002400230031022EED
:1006F000025E005D005C00300001002D005B005ACE
:10070000005900300200000000620001004C002788
:100710000245003A003B003C003D003E00C25C1E2A
:10072000021F02200221022202C35CAC00AB00A91E
:10073000004B002D02A800AD00AE00AA004E002D17
:1007400000000000000100010001002602440043F7
:10075000004200410040003F000100270226022520
:1007600002240223023100C95CC75CC55C4A002E2A
:10077000000100CA5CC85CC65C4D002E020000008F
:100780000001000100010001000100010001000161
:100790000001000100010001000100010001000151
:1007A0000001000100010001000100010001000141
:1007B0000001000100010001000000000001000133
:1007C0000001000100010001000100010001000121
:1007D0000001000100010001000100010001000111
:1007E0000001000100010001000100010001000101
:1007F00000010001000000000001000100010001F3
:10080000005B435D005B445D005B535D005B575DD7
:10081000005B525D0009027B00040100A0FA09049C
:100820000000010301010009211101000122400023
:10083000070581030800010904010002030000000C
:100840000921110100012222000705820320000175
:100850000705030320000109040200010300000052
:100860000921110100012232000705840320000143
:100870000904030002030000000921110100012204
:10088000220007058503200001070505032000015C
:10089000120100020000000810CB5664200601027D
:1008A00000011A0349007200690073002000520021
:1008B000650076002E0020003600620000000E0366
:1008C0004B0065006500620069006F0000000403D2
:1008D000090411241FBECFEFDAE0DEBFCDBF04B69E
:1008E00003FE18C08091EE049091EF04A091F004F3
:1008F000B091F1048730904BA740B04B59F410925F
:10090000EE041092EF041092F0041092F104E0E073
:10091000F8E3099512E0A0E0B1E0EEE2F8E602C0EB
:1009200005900D92A43DB107D9F724E0A4EDB2E003
:1009300001C01D92AE3EB207E1F70E942E2B0C942F
:10094000C9330C940000FF93EF93E091D402F0912F
:10095000D502309709F00995EF91FF910895FC01B8
:100960008591803011F0EFDFFBCF0895FF27E0E2A3
:1009700030E247FF0CC0419597FF09C0EDE260955A
:10098000709580959095611D711D811D911D27FFAA
:1009900002C0219530E350E2AA27660F771F881F17
:1009A000991FAA1FA41710F0A41B63955A95A9F7C5
:1009B000AA3008F0A95FA05DAF93F39561157105AA
:1009C0008105910541F7ED3211F4EF93F395F2179C
:1009D00018F43F93F395FBCF8F91B5DFFA95E1F7CC
:1009E0000895E991F9918591803021F0853219F0CF
:1009F000AADFF9CF089520E0E89455915532C1F36C
:100A0000503311F4689455915A3348F4505390F38D
:100A1000220F022E220F220F200D250FF4CF0EF4ED
:100A2000219589919991533619F3533729F153350B
:100A300059F1BC0188279927E8945C3621F4899103
:100A4000999168945591543639F446EF7EF077FFCA
:100A50000DC08FEF9FEF0AC055374AE039F0583587
:100A600040E121F0523642E009F00895FF93EF9300
:100A70007DDFEF91FF91B7CFFF93EF93FC01819161
:100A80008030B9F360DFFBCFFF93EF9368DFF1CFE6
:100A9000DF93CF93CDB7DEB72596A3DFCF91DF915C
:100AA0000895FC01AC014B5F5F4F8FEF91E3219103
:100AB000822728E030E087FF09C0880F892721506E
:100AC0003109C9F7E417F50791F70895880FF7CFB3
:100AD000E8EDF0E080818E7F80831092E20010923A
:100AE000DA001092E100A0EEB0E08C9181608C936E
:100AF00080818F77808319BCA7EDB0E08C918E7FC9
:100B00008C9380818F7E80831092A0040895209121
:100B1000E4003091E50095E6A9012091EC00822FD8
:100B2000817020FF06C08091E80080FF06C080E051
:100B300008952091E80022FD1AC08091AD04882319
:100B400089F0853089F08091EB0085FD0FC0209100
:100B5000E4003091E50042175307F9F29150E1F6B5
:100B600084E0089582E0089583E0089581E0089587
:100B7000EF92FF920F931F93CF937C018B010E9402
:100B80008705C82F811117C08091E80085FD0BC033
:100B90008091E8008E778093E8000E948705882383
:100BA00099F3C82F08C0F70181917F018093F1006C
:100BB0000150110949F78C2FCF911F910F91FF9090
:100BC000EF9008958091AF0487FF13C08091E800F3
:100BD00082FF06C08091E8008B778093E80004C014
:100BE0008091AD048111F2CF08958091AD048823E6
:100BF000D9F38091E80080FFF8CF8091E8008E77EC
:100C0000ECCF982F9093E900242F762F50E089178E
:100C100031F07091EC002091ED005091F00021FD39
:100C200007C09F5F973071F78093E90081E00895D6
:100C30003091EB003E7F3093EB003091ED003D7F33
:100C40003093ED003091EB0031603093EB00709306
:100C5000EC002093ED005093F0002091EE0027FD72
:100C6000E0CF80E00895B0E0A0E0E9E3F6E00C9486
:100C7000B232C8EDD0E088818F7E8883E7EDF0E066
:100C800080818160808384E082BF81E08093A004C2
:100C900088818E7F888302EE10E0F8011082109226
:100CA000DA0081EEC82ED12CF601108288818F7770
:100CB000888388818068888388818F7D888319BC38
:100CC0001092AD041092AE041092AC041092AB04DA
:100CD00090EEE92EF12CF70180818B7F8083888153
:100CE0008160888342E060E080E00E940106F601B6
:100CF00080818E7F8083F801808181608083808104
:100D000088608083F70180818E7F80838881806105
:100D10008883CDB7DEB7E8E00C94CE32FC01809139
:100D2000B5049091B60486179707A0F06115710578
:100D300029F49091E8009E779093E80090E0611587
:100D4000710551F4911108C08091E80082FF34C010
:100D500080E00895BC01F2CF8091AD048823C1F1F9
:100D60008530C1F18091E80083FD30C08091E800BA
:100D700082FDEACF8091E80080FFE1CF8091F3000F
:100D80002091F200382F6115710519F028303105D6
:100D900058F091E02830310509F090E02091E8000A
:100DA0002E772093E800CBCF81918093F1006150A2
:100DB00071092F5F3F4FE7CF8091AD04882341F049
:100DC000853041F08091E80083FFBECF81E0089537
:100DD00082E0089583E00895089508958091A20423
:100DE00008959C014FB7F8948091960490919704D0
:100DF000A0919804B09199044FBF821B930B089562
:100E00002FB7F8946091960470919704809198049C
:100E1000909199042FBF08952FB7F894809196046C
:100E200090919704A0919804B09199042FBF0895D0
:100E30009C01FC0132969FEF80E04191461751F0F2
:100E40009F3F19F4411101C0982F8F5F8630A9F799
:100E50009F3F09F40895290F311D97FD3A95F90137
:100E600062830895209193043091940428173907E0
:100E700071F09093940480939304E0919104F09125
:100E80009204309721F00084F185E02D09950895B2
:100E900020918F04309190042817390771F09093B6
:100EA000900480938F04E0919104F0919204309724
:100EB00021F00680F781E02D09950895FA0181114E
:100EC00001C0FB0109950895809339018091BB040D
:100ED0008370809338010E94EF1383E080933A017E
:100EE0000895EF92FF920F939701201B31092F3F36
:100EF000310519F010F02FEF30E02095382F320F28
:100F000008F43FEF832F0F91FF90EF900895EF9239
:100F1000FF920F939701201B31092F3F310519F0E4
:100F200010F02FEF30E0322F3095482F430F08F4A8
:100F30004FEF842F620F0F91FF90EF900895EF9283
:100F4000FF920F93972F093438F4B701601B710992
:100F50006F3F710519F010F06FEF70E0485F5F4F61
:100F60004131510540F0A901485F5F4F41315105C2
:100F700010F06FEF70E06095482F460F08F44FEFC8
:100F8000842F37FF02C02D5F3F4F3595279535954C
:100F900027956091BC04620F792F0F91FF90EF901D
:100FA0000895EF92FF920F931F930E0D1F2D111DA9
:100FB000F90137FF03C0F195E195F10924E0EE0F47
:100FC000FF1F2A95E1F7EF3FF10519F014F0EFEF5D
:100FD000F0E09A0157FF03C031952195310994E063
:100FE000220F331F9A95E1F72E173F070CF4F901F2
:100FF000E00FF11FEF3FF10519F010F0EFEFF0E017
:10100000E095282F3E2F230F08F42FEF822F1F91FA
:101010000F91FF90EF900895EF92FF920F93970139
:1010200095E0099F200D311D11242F3F310519F046
:1010300010F02FEF30E02095382F320F08F43FEFFB
:10104000832F0F91FF90EF90089522E8241B08F45E
:1010500020E0620F08954095282F429F412D1124D2
:10106000842F08950F931F9310E0F801EE0FFF1FD8
:10107000E85FFD4F9081905797FD9195000F111FEC
:10108000F801E453FE4F05AD0052110B2003F001AF
:10109000219FF00D112408E310E0091B110997FDB1
:1010A000139540039001419F300D1124E20FF31F6F
:1010B0009F01220F331F2E0F3F1F37FF02C0215801
:1010C0003F4F220F232F221F330B620F1F910F91CF
:1010D00008950F931F93522F10E0F801EE0FFF1F9A
:1010E000E453FE4FA5ADA052BB0B9D015203F0018E
:1010F000539FF00D1124000F111FD801A85FBD4FA1
:101100000C910057110B40039001419F300D1124A9
:101110002E0F3F1F37FF02C0215C3F4F96E03595F1
:1011200027959A95E1F7620F1F910F9108950F93FC
:101130001F93522F10E0F801EE0FFF1FE453FE4FF4
:10114000A5ADA052BB0B9D015203F001539FF00DC2
:101150001124000F111FD801A85FBD4F0C9100573B
:10116000110B40039001419F300D11242E0F3F1FA2
:1011700037FF02C021583F4F220F232F221F330B6E
:10118000620F1F910F910895EF920F93972F23E015
:10119000029FB0011124759567956E0D792F0F91FF
:1011A000EF900895322F50E0FA01EE0FFF1FE45345
:1011B000FE4F95AD905297FD9195440F551FFA0142
:1011C000E85FFD4F2081231B330B290F311D97FD55
:1011D0003A95620F0895E42FF0E0EE0FFF1FE453FD
:1011E000FE4F65AD621B0895E42FF0E0EE0FFF1F88
:1011F000E85FFD4F6081621B0895622F0895E42F20
:10120000F0E0EE0FFF1FE85FFD4F408134EE439F9B
:10121000412D1124E82FF0E050E0445E5F4FDA01E9
:10122000A21BB1099D01B7FF03C03195219531097A
:1012300093E0220F331F9A95E1F7AF01421B530B46
:101240009A0157FD20E0582F259F212D1124822F30
:101250000895E42FF0E0EE0FFF1FE85FFD4F40819F
:1012600034EE439F412D1124E72FF0E050E0445E1F
:101270005F4FDA01A21BB1099D01B7FF03C0319591
:101280002195310993E0220F331F9A95E1F7AF01C1
:10129000421B530B9A0157FD20E0279F212D11245B
:1012A000722F08950E94540B0895FF920F931F937D
:1012B000CF93DF93182F062FF42ED0E0C0E02F2D10
:1012C000402F612FCE010E9452092196C434D105CE
:1012D000B1F7CDB7DEB7E5E00C94D132FC019B014C
:1012E000009729F480E077FF2BC080E80895AC01D7
:1012F00097FF04C044275527481B590BB901640FB9
:10130000751F37FD10C0241B350BC901A5E0880FE0
:10131000991FAA95E1F70E94FF3280E2861BF7FF32
:101320000FC081950895CB0165E0880F991F6A95DC
:10133000E1F7BA01621B730B0E94FF3280E6EECF29
:101340000895EF920F93CF93DF93D72FC82FC90142
:101350000E19BA010E946E09602F681B7D2F8C2F19
:10136000DF91CF910F91EF9008950F93CF93DF937B
:10137000D72FC82FC901BA010E946E09682F600FCC
:101380007D2F8C2FDF91CF910F910895EF920F93C6
:101390001F93CF93DF93D62FC72F182FC9010E1994
:1013A000010FBA010E946E09081B202F219F212DD9
:1013B0001124822F6D2F7C2FDF91CF911F910F91E0
:1013C000EF900895EF920F931F93CF93DF93D62F53
:1013D000172FC82FC9010E19070FBA010E946E09F5
:1013E000702F781B719F712D11246D2F8C2FDF9121
:1013F000CF911F910F91EF9008950F931F93CF936B
:10140000DF93D62FC72F182FC901212F201B022FA2
:10141000BA010E946E09982F990F990F891B800FAE
:10142000282F219F212D1124822F6D2F7C2FDF91BA
:10143000CF911F910F9108950F931F93CF93DF9337
:10144000D62F172FC82FC901272F201B022FBA0113
:101450000E946E09982F990F990F782F791B700FA2
:10146000719F712D11246D2F8C2FDF91CF911F91C2
:101470000F910895E82F86FDE0952E2F2F7086FDA1
:101480002F5FE695E695E695E670F0E0E055FE4FB5
:101490009181929F902D212D112492959F702295DC
:1014A000207F922B2081920F87FD919580E8890FF4
:1014B0000895AC018230910508F408959FEF413EF4
:1014C0008EE1580740F49A0195E0369527959A9554
:1014D000E1F798E0920F61E0E62FE90FFF27FF1F89
:1014E0009F0135952795822F229FF001239FF00DB4
:1014F000F00D11244E175F0738F49FEF920F9617E7
:1015000058F78FEF860F08952F3FE9F361E0620FE0
:10151000F6CF0F93CF93DF93D72FC82F47FD419579
:1015200088E390E0841B910947FD9395889FB00163
:10153000899F700D700D1124229FC001239F900D73
:10154000900D1124860F971F0E94590A982F990F0A
:10155000890F682F600F7D2F8C2FDF91CF910F9116
:10156000089530E020E0869F212D969F200D311DAB
:101570001124C9010895AF92BF92CF92DF92FF92DA
:101580000F931F93CF93DF93362F472FE82FF0E071
:10159000EF55FB4F71110FC0E4918E2F2E2F6E2F40
:1015A000722FDF91CF911F910F91FF90DF90CF901D
:1015B000BF90AF900895C72FD0E02491F22E022F54
:1015C00010E056E0659FC0011124EFEFF0E0BF018D
:1015D0000E94EB32832F90E0880F991F35E5369FEC
:1015E000D001379FB00D11248A1B9B0B982F990FA8
:1015F000980F6F01CC1ADD0AC09ED001C19EB00DBC
:10160000D09EB00D11248B2F499FA0011124452F8E
:1016100055276F01C41AD50AC09EA001C19E500D66
:10162000D09E500D11245F01A91AB108AC9E600133
:10163000AD9ED00CBC9ED00C1124CD2CDD24EC1919
:10164000FD09E09FE001E19FD00DF09FD00D112436
:10165000ED2F62307105A1F050F46115710509F4A8
:101660009ECF6130710581F0EB2F852F98CF6430CC
:10167000710569F080F06630710509F490CFF4CF00
:10168000E22F2B2F8D2F8BCFE22F252F88CFEB2F03
:10169000822F2D2F84CF2B2F8F2DE52F80CF89B137
:1016A00085FB882780F90895FF920F931F93CF93AE
:1016B000DF93EC01F62E042F122F0E944F0B8111A5
:1016C0000FC0C232D1057CF0A297FE01EE0FFF1FC2
:1016D000EC0FFD1FED53FC4FF1820083128303C01A
:1016E000C232D10594F3CDB7DEB7E5E00C94D13228
:1016F000CF93C82F0E944F0B882329F081E0C2327C
:1017000028F080E003C081E0C434D8F7CF91089579
:10171000A8E0B0E0EEE8FBE00C94A832282E7C8331
:101720006B8320913C018EE0289F802D11248D83B6
:10173000825F8983853410F034E439830E944F0B33
:10174000882329F08981833210F092E299830E94E4
:101750004F0B811105C0ED81E23210F4F2E2FD83FE
:101760002091C1042A839D81892F90E098878F83DF
:10177000880F991FFC01E453FE4F6F01822D90E00A
:101780009C012F5F3F4F3E832D8389819F81981756
:1017900030F00E94780B2896E2E10C94C432EF817D
:1017A000F885E057FD4F808190913D018923F9F044
:1017B0003090BC044090BD048D819E818F539B4F1F
:1017C0003C01522C10E0FA815F16D8F02091BE0443
:1017D000129F112D1124632D742D812F0E94BB0A9D
:1017E000462F282F672F8F8198850E9452092F81BD
:1017F00038852F5F3F4F38872F8332E0C30ED11CCF
:10180000C4CFF30181913F01F601A4ACA81ABB0833
:1018100085ACF3018781881A9908AA9C9001AB9C3A
:10182000300D300D1124889CC001899C900D900DC5
:101830001124820F931F0E94590A082F6091BF0440
:1018400021E0620F08F46FEFF301EE0FFF1FE15C80
:10185000F440858996890E94B10A7C019401A50112
:10186000632D742D812FEB81FC810995362E472E37
:101870005394182FA8CFB0E0A0E0E1E4FCE00C9472
:10188000B2327C01C0913C018EE0C89FC02D112472
:101890001EE01C0F153408F014E40E944F0B88233F
:1018A00019F0133208F012E20E944F0B811103C0AD
:1018B000C23208F4C2E22091BF0431E0230F08F4E1
:1018C0002FEF30E050E040E06FEF7FEF80E090E0FE
:1018D0000E9413336901D0E001E02C2FC11740F0C2
:1018E000812F0E94780BCDB7DEB7E8E00C94CE32A2
:1018F000FE01E057FD4F808190913D01892309F160
:101900004091C1044150042E000C550B47FF1BC0F1
:10191000C6016091BF04600F08F46FEF0E94B10A26
:10192000AC016091BC047091BD048091BE04F701CC
:1019300009950E94BB0A462F282F672FCE010E94CF
:1019400052092196CACFFA01EF53FB4F81898213C6
:101950000AC0FA01EE0FFF1FEF53FB4F818D928DEE
:101960008C159D05B0F241505109D0CFB0E0A0E0F8
:10197000ECEBFCE00C94B0326C01C0913C018EE0C9
:10198000C89FC02D11241EE01C0F153408F014E46C
:101990000E944F0B882319F0133208F012E20E94C4
:1019A0004F0B811103C0C23208F4C2E26091BF0440
:1019B000669566958091B7049091B8040E94B10A2B
:1019C000F82E80E48F0D0E943A0A90E8B92EB80EE6
:1019D0008F2D0E943A0A20E8A22EA80ED0E0C1174F
:1019E00040F0812F0E94780BCDB7DEB7EAE00C946F
:1019F000CC32FE01E057FD4F808190913D0189235B
:101A0000A1F06091BC047091BD048091BE04EF2CE4
:101A10000C2F2A2D4B2DF60109950E94BB0A462F4B
:101A2000282F672FCE010E9452092196D8CFB0E00F
:101A3000A0E0EDE1FDE00C94AC325C01C0913C0112
:101A40008EE0C89FC02D11241EE01C0F153408F035
:101A500014E40E944F0B882319F0133208F012E2AD
:101A60000E944F0B811103C0C23208F4C2E26091A0
:101A7000BF0466958091B7049091B8040E94B10AA2
:101A8000F82ED0E0CE01880F991F9C0124533E4FC1
:101A90006901C11740F0812F0E94780BCDB7DEB7E6
:101AA000EEE00C94C832FE01E057FD4F808190912A
:101AB0003D01892379F1F60184AD282F2057330B9E
:101AC000490185ADE82FE052FF0B3F01889C900152
:101AD000899C300D300D1124EE9FC001EF9F900DB9
:101AE000900D1124820F931F0E94590A082F6091B4
:101AF000BC047091BD048091BE04EF2C9301A4013D
:101B0000F50109950E94BB0A462F282F672FCE01A9
:101B10000E945209F2E0CF0ED11C2196BACFB0E05C
:101B2000A0E0E5E9FDE00C94B1326C01C0913C010C
:101B30008EE0C89FC02D11241EE01C0F153408F044
:101B400014E40E944F0B882319F0133208F012E2BC
:101B50000E944F0B811103C0C23208F4C2E26091AF
:101B6000BF0466958091B7049091B8040E94B10AB1
:101B7000B82ED0E0CE01880F991F9C0124533E4F10
:101B80007901C11740F0812F0E94780BCDB7DEB7E5
:101B9000E9E00C94CD32FE01E057FD4F8081909139
:101BA0003D018923C1F0F70125AD2052330B44AD2F
:101BB0004057550B6091BC047091BD048091BE04E8
:101BC0000B2DF60109950E94BB0A462F282F672F7F
:101BD000CE010E945209F2E0EF0EF11C2196D1CF06
:101BE000EF92FF920F931F93CF93DF937C01C091ED
:101BF0003C018EE0C89FC02D11241EE01C0F15343F
:101C000008F014E40E944F0B882319F0133208F0F7
:101C100012E20E944F0B811103C0C23208F4C2E2EB
:101C20006091BF046695669521E0620F08F46FEF3E
:101C30008091B7049091B8040E94B10A082FD0E0B7
:101C4000C11740F0812F0E94780BCDB7DEB7E6E0D8
:101C50000C94D032FE01E057FD4F808190913D0100
:101C6000892391F06091BC047091BD048091BE0401
:101C7000202F4C2FF70109950E94BB0A462F282FD1
:101C8000672FCE010E9452092196DACFB0E0A0E082
:101C9000ECE4FEE00C94B032182F809139018113EE
:101CA00023C09091BB0493702091380130E081E013
:101CB0009217130609F480E0817080933E018091B1
:101CC000C00490913D01981739F080933D0140E0A8
:101CD00060E080E00E945509133288F4E12FF0E0C3
:101CE000E553FC4C0C94323381E0E6CF80913E0109
:101CF000882389F140E060E080E00E94550980E09F
:101D00002AC0C0913C018EE0C89FC02D11240EE076
:101D10000C0F053408F004E40E944F0B882319F0DF
:101D2000033208F002E20E944F0B811103C0C2325D
:101D300008F4C2E26091BC047091BD048091BE04BD
:101D40000E94BB0AF62EE72ED82ED0E0C017D8F09E
:101D5000802F0E94780B90913C019F5F90933C01F3
:101D600081110CC082E080933A0180913E01811183
:101D700005C0111103C083E080933A01CDB7DEB7EF
:101D8000EAE00C94CC32FE01E057FD4F8081909147
:101D90003D01892331F02D2D4F2D6E2DCE010E9456
:101DA00052092196D3CFC0913C018EE0C89FC02D2F
:101DB00011240EE00C0F053408F004E40E944F0BD0
:101DC000882319F0033208F002E20E944F0B8111C0
:101DD00003C0C23208F4C2E2E090BD04F090BE0439
:101DE000D091BC046D2F7E2D8F2D0E94BB0AD62E64
:101DF000C72EB82E6091BF046D0F7E2D8F2D0E94CF
:101E0000BB0AF62EE72EA82ED0E0C01708F0A0CF10
:101E1000FE01E057FD4F908180913D01892359F0EB
:101E20002A2D4F2D6E2D90FD03C02B2D4D2D6C2D89
:101E3000CE010E9452092196E8CFC0913C018EE06C
:101E4000C89FC02D11240EE00C0F053408F004E4E7
:101E50000E944F0B882319F0033208F002E20E941F
:101E60004F0B811103C0C23208F4C2E2E090BD04FE
:101E7000D090BE042091BF0450E4F52E3F2D329F38
:101E8000312D1124F32ED0E0C01708F061CFFE01F0
:101E9000E057FD4F808190913D018923B9F0FE010B
:101EA000EE0FFF1FE453FE4F85AD82958F7060915A
:101EB000BC048F9D600D11247E2D8D2D0E94BB0AC8
:101EC000462F282F672FCE010E9452092196DCCF82
:101ED000C0913C018EE0C89FC02D11240EE00C0F74
:101EE000053408F004E40E944F0B882319F00332F4
:101EF00008F002E20E944F0B811103C0C23208F4C5
:101F0000C2E2E090BD04D090BE042091BF0430E452
:101F1000F32E3F2D329F312D1124F32ED0E0C01728
:101F200008F016CFFE01E057FD4F808190913D01F2
:101F30008923D9F0FE01EE0FFF1FE453FE4F64AD7D
:101F4000F69EB001112495E0759567959A95E1F795
:101F50008091BC04680F7E2D8D2D0E94BB0A462FF8
:101F6000282F672FCE010E9452092196D8CFC09109
:101F70003C018EE0C89FC02D11240EE00C0F0534EB
:101F800008F004E40E944F0B882319F0033208F094
:101F900002E20E944F0B811103C0C23208F4C2E278
:101FA000F090BC04D091BD04E090BE046091BF04E9
:101FB0006695669566958091B7049091B8040E94E5
:101FC000B10A0E943A0A805887FD8195880F282F10
:101FD0003E2D239F212D1124822F6F2D7D2F0E94B6
:101FE000BB0AF62EE72ED82ED0E0C01708F0B0CEF0
:101FF000FE01E057FD4F808190913D01892331F032
:102000002D2D4F2D6E2DCE010E9452092196EDCF20
:1020100089E299E00E94F00D9ECE8FEF98E0FACF12
:102020008CE19AE00E948F0D96CE8DEF99E0FACF69
:1020300082EE99E00E94170D8ECE86EC99E0FACFE1
:102040008DEF98E0E7CF84EF98E0E4CF8BEE98E057
:10205000E1CF82ED98E0DECF84EC98E0EBCF89E829
:102060009AE0E0CF85EB99E0DDCF81EA99E0E2CF1D
:1020700087E998E00E94B60C6ECE89E698E0FACF28
:1020800082E398E0F7CF8BE298E00E943B0C63CEAE
:1020900085E298E0FACF8091C10421E0382F321B0D
:1020A00008F430E0832F6CE078E00E94880B53CE78
:1020B0006CE078E080E0F9CF8091C10421E0382F16
:1020C000321B08F430E0832F61ED77E0EECF61ED55
:1020D00077E0F0CF8091C10421E0382F321B08F463
:1020E00030E0832F6FE977E0E0CF6FE977E0E2CF70
:1020F0008091C10421E0382F321B08F430E0832F97
:1021000067E877E0D2CF67E877E0D4CF8091C10469
:1021100021E0382F321B08F430E0832F61E777E0AD
:10212000C4CF61E777E0C6CFF894E82FE295EF706F
:10213000F0E031A1282F2F7081E090E001C0880FDE
:102140002A95EAF7982F9095932391A392A1892B32
:1021500082A37894089590917A0392FF06C0282F65
:1021600028712830F9F4877F846093FF06C0282FF8
:1021700028712831F1F4877E846120917B0320FF50
:1021800006C0382F38713830D9F4877F816021FF3D
:1021900006C0282F28712831D1F4877E816194FDF3
:1021A000877E0895282F24712430F9F68B7F88606C
:1021B000DCCF282F2471243101F78B7E8861DDCF9D
:1021C000382F3171313019F78E7F8860E0CF282F9A
:1021D0002171213121F78E7E8861E1CFCF93DF938A
:1021E000EC0182389105B1F108F040C081339105CE
:1021F00009F49DC048F58932910509F48DC08A978C
:1022000009F49CC0C11522E5D20708F0BDC0C11574
:1022100031E5D30708F024C1C83ED10508F0A3C0BA
:10222000C13ED10588F5C83AD10508F08EC0C53A3F
:10223000D10508F0F6C0C130D10531F1209721F168
:10224000C430D10508F545C08533910509F45FC058
:10225000C997C1F680917A03837009F036C18091E5
:102260007B0383FF11C0C9E2D0E00EC0833E91051D
:1022700099F170F4803E910501F1823E910511F6CD
:1022800080917A0382FD21C0CE01DF91CF91089524
:10229000863E910561F1873E910571F1843E91057D
:1022A00009F0B0CF80917B0381FFEECF80917A035C
:1022B000C7EED0E084FD0DC0E7CF80917A0380FDAA
:1022C00033C090917B0390FFDFCFC3EED0E084FF5B
:1022D000DBCFD0E0C0E0D8CF80917A0382FDF2C09E
:1022E00090917B0390FDF1C084FFCECFF2CF80911F
:1022F0007A0383FDDDCFC8CF80917A0383FDE8C0E8
:1023000090917B0391FFF0CFC4EED0E0BDCF8091E0
:102310007A0385FFB9CFA7CF80917A0385FDDBC013
:1023200080917B0383FFB0CFC9E3D0E0ADCF809134
:102330007A0386FFA9CFCAE2D0E0A6CF80917A03C4
:1023400086FFA2CFC1E3D0E09FCFCF3BD10508F6F7
:10235000C85AD0E0CC0FDD1FC458DE4F0990D88199
:10236000C02DD46491CFC11540E5D40708F064C0F6
:10237000C11580E4D80708F05CC0CE019A9581159C
:102380009F4108F481CFA5CFC11536E5D30718F5D5
:10239000C11545E5D40708F07CC0C11584E5D80710
:1023A00008F072C09E01237033279C2F9695969556
:1023B000C115D34508F459C0C1E0D0E002C0CC0F2C
:1023C000DD1F2A95E2F730E2939FC0011124C82B4C
:1023D000D92BDA6859CFC1158AE5D80778F4C11529
:1023E00029E5D20708F060C0C11538E5D30708F425
:1023F00070CFDC2FCC27C06FD06A46CFCE0190566D
:102400008115904208F065CF8D2F8F710E94AB101F
:1024100090E0982F882788279F719C012C2BE90139
:1024200041C0C55AD0E0C758DE4FC881D0E0D06463
:102430002BCFDF70D06A28CFCE018370992721E09F
:1024400030E002C0220F331F8A95E2F7C695C69589
:1024500080E2C89FE0011124C22BD32BDD6814CF8A
:10246000DC2FCC27C16FD06A0FCFC1E0D0E002C013
:10247000CC0FDD1F2A95E2F720E2929FC0011124C4
:10248000C82BD92BDC6800CFDC2FCC27C46FD06AD7
:10249000FBCE8C2F0E94AB10C82FD0E0DC2FCC27B6
:1024A000CC27DF71D062F0CE8C2F8F700E94AB10E2
:1024B00034E0D695C7953A95E1F7CF709C2FEC01A3
:1024C000D069E2CEC2EED0E0DFCEC0EED0E0DCCE0E
:1024D000C6EED0E0D9CEC5E3D0E0D6CE80913A03A7
:1024E000811110923A0308958095909139039823B1
:1024F00090933903089580912E039091FD029813D3
:1025000001C008958F5F8770FACF292F9A3078F530
:10251000863068F590E036E0239F800D911D1124F0
:10252000682F677023E0969587952A95E1F7FC015F
:10253000EE0FFF1FE80FF91FE152FD4F50E040E0A2
:1025400080E0219130E0062E02C0369527950A944E
:10255000E2F721703327042E01C0220F0A94EAF714
:10256000822B4F5F5F4F4330510559F7089580E04C
:102570000895292F9A3098F5863088F590E036E056
:10258000239F800D911D1124282F277041E001C049
:10259000440F2A95EAF723E0969587952A95E1F767
:1025A000FC01EE0FFF1FE80FF91FE152FD4F30E075
:1025B00020E070E05191DF011197CB01022E02C0A3
:1025C000969587950A94E2F78170819585278423F3
:1025D00085278C932F5F3F4F2330310559F708959E
:1025E000829590E09C01220F331F220F331F2C7C19
:1025F00095958795959587958373282B30E0C9012C
:10260000880F991F8A7A359527952575822B08950D
:102610009FB7F89410929E049FBF9091AD049430A0
:1026200009F048C02091E9002F703091EC00932F01
:10263000917030FD90E8922B25E02093E9002091E5
:10264000EB0020FF34C02091EE0027FF30C0209126
:102650009D04222321F02091E80025FF28C010923C
:102660009D0426E03091E80035FF14C08093F1000E
:102670008091E80085FD27C08091E80080FFFCCFB5
:102680008091E8008E778093E8009F709093E90036
:1026900080E008953091AD04343049F43091EB007E
:1026A00035FD05C0215041F481E080939D049F7069
:1026B0009093E9008FEF0895EFE9FFE03197F1F78C
:1026C00000C00000CFCF8FB7F89421E020939E0484
:1026D0008FBFDBCF80939A0470939C0460939B041C
:1026E0008091AD048430F9F48093E9008FEF9091EC
:1026F000E800815095FD06C095ED9A95F1F7000030
:102700008111F5CF8091E80085FF0DC050E040E0D9
:1027100063E070E08AE994E00E94B8058091E800E7
:102720008E778093E8000895BC0184E00E946A13CC
:102730000895BC0183E00E946A130895CF93DF934C
:10274000EC0181E08093E9008FEF9091E8008150E7
:1027500095FD06C095ED9A95F1F700008111F5CF32
:102760008091E80085FF14C050E040E068E070E030
:10277000CE010E94B8058091E8008E778093E80032
:1027800088E0FE01A3EAB4E001900D928A95E1F79A
:10279000DF91CF91089581E08093E00080E2809303
:1027A000D8001092C9008FE19EE40197F1F700C0B4
:1027B000000087E090EBDC018093EE049093EF043F
:1027C000A093F004B093F10488E19CE00FB6F89474
:1027D000A895809360000FBE90936000FFCF6E9A23
:1027E0003EB13F7B2EB120644FB7F89483EC93E069
:1027F000FC015191CF0168E02EB9000000C057FFE5
:102800003EB9550F000000C000C000C03EB900C076
:102810006A9591F7F4E08F389F0751F74FBF8FE526
:1028200094E00197F1F700C00000089580914603FD
:10283000811110C08091D80080618093D8008AE116
:102840008A95F1F700C08091D90080FF0AC081E02D
:102850008093460381E090914603913009F080E037
:10286000089582E0809346030E9468051092AD04AB
:10287000F1CF0E941614882359F0E0919104F09151
:102880009204309729F00190F081E02D0995089588
:1028900080E008950F931F930E941614882329F057
:1028A0000E9400071F910F9108950E940007009158
:1028B0006A0310916B0320916C0330916D03600FDC
:1028C000711F821F931FEECFCF92DF92EF92FF9284
:1028D0006B017C010E9416148823A1F02FB7F89495
:1028E0006091960470919704809198049091990456
:1028F0002FBF6C197D098E099F09FF90EF90DF9023
:10290000CF9008950E944A14F4CFCF93DF93C7E08D
:10291000D2E060E0CE010E948F332196C11584E0A1
:10292000D807B9F7DF91CF9108951F93CF93DF9325
:10293000122F8430E0F46A30D0F44630C0F4C42F53
:10294000D0E0CC0FDD1F9CE0699FC00DD11D11248C
:1029500098E7899FC00DD11D1124632FCE01879662
:102960000E948F33612FCE0188960E948F33DF91B2
:10297000CF911F910895AF92BF92CF92DF92EF92C5
:10298000FF921F93CF93DF9381E2C82E86E0D82E6B
:10299000D0E07601C0E014C0F50125913491412FBB
:1029A0006C2F8D2F0E94951482E0A80EB11C1F5F22
:1029B000163091F78CE0E80EF11CCF5FCA3019F0A9
:1029C000570110E0E9CFDF5F88E7C80ED11CD43093
:1029D00001F7DF91CF911F91FF90EF90DF90CF90A3
:1029E000BF90AF900895CF93C82F6FEF811162E22F
:1029F00083E290E00E948F336FEFC11169E084E2BF
:102A000090E00E948F336FEFC11160E385E290E0A8
:102A10000E948F33CF91089580E00E94F31460E00C
:102A200086E290E00E948F330E94BB140E948514BE
:102A300081E00E94F31408950F931F93CF93DF93C7
:102A4000843030F56A3020F5463010F5C42FD0E0E0
:102A5000CC0FDD1F2CE0629FC00DD11D112438E783
:102A6000839FC00DD11D1124CE0187960E94713322
:102A7000082F10E0102F0027CE0188960E94713396
:102A80009801282BC901DF91CF911F910F910895D3
:102A900090E080E0F8CF462F843040F47A3030F474
:102AA000663020F4672F0E941C15089590E080E0A6
:102AB0000895CF92DF92FF920F931F93CF93DF93EE
:102AC0006C010091ED0480913B03082BC7E0D0E03E
:102AD00010E0FC2EC8010C2E02C0959587950A9433
:102AE000E2F780FD0CC02197A0F7F12C8F2DDF912C
:102AF000CF911F910F91FF90DF90CF900895B60175
:102B00008C2F0E944B150E94EE10019761F3EECFBF
:102B1000CF93DF93EC010E945915BE010E944B1523
:102B20000E94EE10DF91CF910895FC018381948182
:102B3000892B29F08081918189238F3F51F480E096
:102B40000895843FE1F717C0883EA8F0813FB9F7A8
:102B500012C0808191810E94881592959F70963055
:102B600099F358F4925F9F70923048F7803F19F0C4
:102B700040F7883E20F781E008959A5FF4CF83E222
:102B800090E00E947133823289F484E290E00E94E6
:102B90007133893059F485E290E00E94713391E0FD
:102BA000803309F090E0892F8170089580E0FCCF98
:102BB000CF9384E090E00E947133C82F82E290E0CE
:102BC0000E947133982F8C2FCF91089546E050E0EA
:102BD0006CE170E08BEB94E00E947F331092C203B3
:102BE00008954F925F926F927F928F929F92AF92D1
:102BF000BF92CF92DF92EF92FF926091BC037091EF
:102C0000BD038091BE039091BF030E9464146B01C9
:102C10007C010E944A144B015C018092BC0390929B
:102C2000BD03A092BE03B092BF03A0919303E3E95A
:102C3000F3E08A2F90E04FEF5FEF60E070E04C1917
:102C40005D096E097F09A91328C0809393038091C1
:102C5000C003811135C09091BB04892F837019F096
:102C6000892F8695869590913A01913009F441C05B
:102C7000992341F1923009F43FC0933009F43FC0E9
:102C8000FF90EF90DF90CF90BF90AF909F908F908C
:102C90007F906F905F904F900895218D328D290124
:102CA000712C612C441555056605770520F481507B
:102CB0009F5F3296C8CF2C0D3D1D328F218FF8CFEC
:102CC00080E0D1CF10923C018092B7049092B8047A
:102CD000A092B904B092BA0489E2E3E9F3E0A1EC6E
:102CE000B4E001900D928A95E1F781E080933A017A
:102CF000C7CF0E94460EC4CF0E946407C1CF809107
:102D0000C20381110E94E6156091B7047091B80466
:102D10008091B9049091BA040E94641460317105E5
:102D20008105910508F4ACCF10923A01A9CF8093A8
:102D3000BF049091C203962B9093C2039091C1035C
:102D400090FF16C02DE431E0662311F02FE431E04E
:102D50001F928F933F932F9382E096E09F938F93E0
:102D60000E9448050F900F900F900F900F900F90BA
:102D700008958091BF0420E1382F321B08F430E021
:102D8000832F61E00E94971608958091BF0420E18F
:102D9000382F320F08F43FEF832F61E00E9497161F
:102DA00008953091BB04337071F18093BC0460933B
:102DB000BD04493708F048E74093BE043091C20390
:102DC000322B3093C2033091C10330FF1CC050E05E
:102DD0009927211119C02DE431E05F934F931F9281
:102DE0006F939F938F933F932F938FED95E09F93D6
:102DF0008F930E9448058DB79EB70A960FB6F89438
:102E00009EBF0FBE8DBF08952FE431E0E6CFEBEB00
:102E1000F4E0438120E1421B08F440E0818121E09D
:102E2000628190E00E94D1160895EBEBF4E04381BB
:102E300020E1420F08F44FEF818121E0628190E0B0
:102E40000E94D1160895EBEBF4E0628120E1621B51
:102E500008F460E0818121E0438190E00E94D11676
:102E60000895EBEBF4E0628120E1620F08F46FEF6C
:102E7000818121E0438190E00E94D1160895EBEB1F
:102E8000F4E0818121E0438162818850990B0E94A6
:102E9000D1160895EBEBF4E0818190E021E04381CD
:102EA000628108960E94D11608959091BB04937098
:102EB00051F1811129C094609093BB0410923A01A2
:102EC0008091C203862B8093C2038091C10380FF4F
:102ED0001AC02091BB04269526958DE491E06623C7
:102EE00011F08FE491E01F922F939F938F9385ECC5
:102EF00095E09F938F930E9448050F900F900F903D
:102F00000F900F900F900895833210F09868D4CFEF
:102F1000880F880F982BD0CF8091BB04869586951B
:102F2000815009F482E261E00E9455170895809172
:102F3000BB04869586958F5F833208F081E061E05F
:102F40000E94551708958091C10380FF08C081EA4F
:102F500095E09F938F930E9448050F900F9085E313
:102F60008093BB0480913F0190914001A091410169
:102F70008093BC049093BD04A093BE048FE780931C
:102F8000BF048FEF8093C0040E94E6150895B0E05F
:102F9000A0E0EDECF7E10C94AD327C015B01842EF6
:102FA000752E69018091470301E010E08A3010F42A
:102FB0000AE010E0C1E0D0E0B501C701F6010995D3
:102FC000982E811114C021960C171D07B4F480911E
:102FD000C10380FF0CC07F928F9284EE92E09F939A
:102FE0008F930E9448050F900F900F900F90892D9E
:102FF000CDB7DEB7EDE00C94C932CC9F9001CD9FE8
:10300000300D300D112490E080E045E34A95F1F752
:103010000000019628173907C1F7CECFAFE0B0E026
:10302000E4E1F8E10C94AD328E010F5F1F4F8AE0AE
:10303000D8011D928A95E9F786E2C82E81E0D82E44
:10304000F12CE12CAA24A394B12C26E2822E21E0BB
:10305000922EF60181916F018F3F09F442C0F894DE
:10306000E82FE295EF70F0E021A18F70A50102C07A
:10307000440F551F8A95E2F7CA01922F982B91A30E
:1030800092A18095892382A3789400C0E0E2F1E0C8
:10309000712C31E021912F3F09F46BC0A22FA29532
:1030A000AF70B0E090968C9190E02F7002C0959533
:1030B00087952A95E2F780FD5CC0832F782A330F2D
:1030C0008E169F0639F7F601319780818F3F11F0F8
:1030D0000E94941050EA5A95F1F7F801EE0DFF1D89
:1030E00070828FEFE81AF80AA5E0EA16F10409F0F9
:1030F000B0CF4AE050E0B8018EE693E00E94B333CF
:10310000009741F02AE0F801AEE6B3E001900D929D
:103110002A95E1F700917903892B69F181E0809389
:103120003E030E940C0790933D0380933C038091E3
:103130003C0390913D030E94F106059700F110E0D9
:1031400007571C4F45E050E06EE673E0C8010E944F
:10315000B333C12C892B51F085E0EEE6F3E0D801C2
:1031600001900D928A95E1F7CC24C39410923E030E
:1031700007C080E0A3CF80913E038111D8CFC12C3E
:103180000E941614D82EE0917903882309F492C086
:103190007E01BBE0EB0EF11C85E0D7011D928A9504
:1031A000E9F70E2F10E007571C4FB0904703B9E026
:1031B000BB15E0F12DE53FE146E551E0B701C8015F
:1031C0000E94C717882309F453C025EA3EE143E66D
:1031D00051E0B701C8010E94C717882309F448C00D
:1031E0002BEF3EE14EE651E0B701C8010E94C71740
:1031F0008823F1F1F9E0FB1508F453C0109247035E
:103200008091780390E045E050E0B70187579C4FEC
:103210000E94B33321E020934503892BE1F4D12CA4
:103220008D2D8C292F96EDE00C94C93280913F03AF
:10323000909140030E94F106843F914008F0BACF7C
:1032400080914503882359F385E0D7011D928A9523
:10325000E9F710924503A0917803B0E0A757BC4F5F
:1032600085E0FE013B9601900D928A95E1F7D8CF5B
:10327000809147038F3F31F08F5F809347038A30FF
:1032800008F4BECF0E940C079093400380933F0345
:103290008091C10380FFD4CF8EEA92E00E94AF04F8
:1032A000CFCF8091C10380FFA9CF8BE992E00E942C
:1032B000AF04A4CFF0E0E757FC4F85E0A6E5B3E00C
:1032C00001900D928A95E1F786E593E00E94510501
:1032D0008093550380905B0390905C03A0905D0306
:1032E000B0905E038091410390914203A09143030B
:1032F000B091440388169906AA06BB06D1F08092C5
:10330000410390924203A0924303B09244030E946F
:10331000161481110EC00E940007861A970AA80A87
:10332000B90A80926A0390926B03A0926C03B092E8
:103330006D0386E0EFE5F3E0ABEBB4E001900D92B6
:103340008A95E1F710916503112349F08091C0033C
:10335000811105C00E94460E80E00E946407109310
:10336000C0035ECF0F931F93CF93DF9380913903F8
:1033700090913803892B8093D60290913A03992338
:1033800091F0892B8093D60220E088ED92E0FC0139
:103390003191CF0131112F5FF2E08E3D9F07B9F7D8
:1033A00021110E946E1248E050E060E373E086ED68
:1033B00092E00E94B333892B09F441C088E0E6ED26
:1033C000F2E0A0E3B3E001900D928A95E1F7E0917D
:1033D0009104F0919204309791F10280F381E02DF5
:1033E00086ED92E009958091C10382FF28C080FF9D
:1033F00004C089E892E00E94AF04D0E0C0E003E896
:1034000012E08091C10380FF0EC0FE01EA52FD4F21
:1034100080811F928F931F930F930E9448050F90F6
:103420000F900F900F902196C830D10551F78091E1
:10343000C10380FF04C081E892E00E94AF04DF91E5
:10344000CF911F910F91089590E080E00E9448076E
:1034500090E080E00E943207109238030E94B21977
:1034600008958093ED040E94241A08958091ED043C
:10347000982F9670963021F488600E94311A089532
:10348000877FFBCF21E030E001C0220F8A95EAF769
:1034900020958091ED0482230E94311A0895909125
:1034A0002F038095892380932F03282F277091F471
:1034B000282F082E000C330B9217130659F0909109
:1034C0007B0392FF07C08595859585950E94421ADA
:1034D00010922F030895CF93DF93D82FC0917B03D1
:1034E000C2FB882780F98D1711F1D0FBC2F9C09378
:1034F0007B0360917A0384E090E00E948F336C2F0D
:1035000082E290E00E948F3382E00E944F1A809105
:10351000C10380FF0CC01F92DF938CE692E09F9363
:103520008F930E9448050F900F900F900F90DF919E
:10353000CF91089521E030E001C0220F8A95EAF78B
:103540008091ED04822B0E94311A089580933B03F1
:103550000E94241A089510923903E8EDF2E086E003
:10356000DF011D928A95E9F70E94241A0895AAE2C4
:10357000B0E0EDEBFAE10C94B7328FEA94E02091E1
:10358000F100DC012D93CD01B4E0873B9B07B9F737
:103590008091B004833009F472C0B8F4813009F42A
:1035A00049C0823009F4B3C08091E80083FF91C222
:1035B0008091AF049091B0049A3008F08AC2E92F4C
:1035C000F0E0E251FC4C0C9432338A3009F48EC0A6
:1035D0008B3009F471C0893039F78091AF048132A2
:1035E00019F78091B3049091B404009711F00297F9
:1035F000D9F68091E800877F8093E8008091E80009
:1036000082FF38C09091F3008091F200029731F46C
:103610008091F100813011F0863021F48091F10029
:103620008093A2048091E8008B778093E8000E9449
:10363000E205BACF8091AF04813A09F0B5CF80910D
:10364000E800877F8093E8008091B3049091B404F0
:10365000892B61F468E083EA94E070E00E948E06B2
:103660008091E8008B778093E8009ECF60E090E047
:1036700080E0F3CF8091AD048111C0CF95CF8091D0
:10368000AF04813A09F090CF8091B3049091B404D3
:10369000892B09F089CF8091E800877F8093E8002B
:1036A0008091E80080FFFCCF80913B018093F10086
:1036B0008091E8008E77B9CF8091AF04813209F014
:1036C00073CF8091B3049091B404892B09F06CCF2F
:1036D0008091E800877F8093E8000E94E205809156
:1036E000B10480933B010E94AB1A5ECF8091AF047E
:1036F000813209F059CF8091E800877F8093E800FC
:103700000E94E2058091B2048093A1044DCF809184
:10371000AF04813A09F048CF8091E800877F809319
:10372000E8008091E80080FFFCCF8091A104BECF2B
:10373000803899F0823809F0CCC18091B3048F7041
:10374000873008F0C6C18093E9008091EB0085FBCB
:10375000882780F91092E90006C08091AB0490910F
:10376000AC04911182609091E800977F9093E800FB
:103770008093F1001092F1008091E8008E77A5C14E
:10378000882309F493C1823009F0A3C18091B10468
:10379000811196C18091B3048F702FEF280F2630CE
:1037A00008F097C18093E9002091EB0020FF88C1C9
:1037B000933031F48091EB0080628093EB0080C104
:1037C0009091EB0090619093EB0021E030E001C01C
:1037D000220F8A95EAF72093EA001092EA0080917E
:1037E000EB008860EACF811174C11091B1041F779A
:1037F0008091E3008078812B8093E3008091E80042
:10380000877F8093E8000E94E2058091E80080FFB6
:10381000FCCF8091E30080688093E30082E0111187
:1038200083E08093AD0455C18058823008F051C1C7
:103830002091B1043091B2042C3DE3E03E07A1F5A4
:1038400083E08A838AE289834FB7F894DE01139676
:1038500020E03EE051E2E32FF0E050935700E49186
:1038600020FF03C0E295EF703F5FEF708E2F90E076
:10387000EA30C0F0C7968D939D932F5F243159F79E
:103880004FBF8091E800877F8093E8006AE270E094
:10389000CE0101960E948E068091E8008B7780937E
:1038A000E80017C1C096E7CF8091B3049091B404AB
:1038B000432F55274330510509F44AC078F541306C
:1038C000510509F47AC08BE790E0E5E1F8E0423079
:1038D000510509F0FEC02091E800277F2093E80001
:1038E0002091B5043091B6048217930708F49C0127
:1038F00040E02115310509F065C0411163C0809198
:10390000E80082FDC9CF8091AD04882329F285307B
:1039100019F28091E80083FFF2CFBECF413251050A
:1039200009F43CC04232510509F0D3C084309105FE
:1039300008F0CFC0FC01EE0FFF1FE454FE4F0190D2
:10394000F081E02D88549E4FDC018C9190E01AC0EC
:10395000332721303105D1F02115310561F02230B6
:10396000310509F0B6C0E2EAF8E0E4918E2F90E06C
:10397000E2EAF8E007C0EEECF8E0E4918E2F90E088
:10398000EEECF8E0009709F4A4C0A5CFEEEBF8E068
:10399000E4918E2F90E0EEEBF8E0F4CF84309105C7
:1039A00008F097C0880F991FFC01EC53FE4F01905F
:1039B000F081E02D89E090E08ECF82E190E0E0E9B7
:1039C000F8E089CF8091AD04882309F465CF853074
:1039D00009F462CF8091E80083FD5ECF8091E8001A
:1039E00082FD8DCF8091E80080FF83CF9091F3001E
:1039F0008091F2002115310519F08830910550F0C1
:103A000041E0089709F040E08091E8008E778093CC
:103A1000E8006FCF44914093F10031962150310975
:103A20000196E8CF803809F054C08091E800877F84
:103A30008093E8008091AE048093F1009DCE8111C7
:103A400048C01091B104123008F043C08091E800E2
:103A5000877F8093E8001093AE040E94E205112353
:103A600011F084E005C08091E30087FDFACF81E08A
:103A70008093AD0442E061EC81E00E94010642E2E5
:103A800061EC84E00E94010642E261EC82E00E9467
:103A9000010642E260EC83E00E94010642E261EC32
:103AA00085E00E9401068091AD0413C08091B104AD
:103AB000813079F481E0933009F080E08093AC04A8
:103AC0001092E9008091E800877F8093E8000E94CF
:103AD000E2058091E80083FF0AC08091E800877FBB
:103AE0008093E8008091EB0080628093EB00AA96BF
:103AF000E3E00C94D3320E94AB1A2FEF84E39CE0F6
:103B0000215080409040E1F700C0000088E19CE037
:103B10000FB6F894A895809360000FBE9093600054
:103B2000FFCF882321F00E9474120E94B2190895D9
:103B3000882339F090913903982B909339030E9490
:103B4000B2190895882391F19CEF980F913A80F46F
:103B5000E8EDF2E02EED32E09191891303C0DF0130
:103B600011971C922E173F07B9F70E94B2190895BA
:103B700090E2980F983050F4877091E001C0990F4F
:103B80008A95EAF7892F0E947412EFCF9BE5980F70
:103B9000933028F490E080E00E9448070895885A06
:103BA000873120F490E080E00E9432070895CF939F
:103BB000C82F8823B1F08CEF8C0F813A00F5E8ED27
:103BC000F2E08EED92E0DF012D91C21761F08A17CD
:103BD0009B07D1F76C2F86ED92E00E9418070E9498
:103BE000B219CF9108952191C21303C0DF0111973B
:103BF0001C928E179F07B9F70E94B219EBCF80E293
:103C00008C0F883068F4C77021E030E001C0220FCB
:103C1000CA95EAF780913903822B80933903DFCF6D
:103C2000EBE5EC0FE33040F4F0E0E758FE4F808125
:103C300090E00E944807D5CFC85AC73190F6EC2FC4
:103C4000F0E0EE0FFF1FE458FE4F808191810E944B
:103C50003207C7CF1F93CF93DF93182FD0E0C0E078
:103C6000893311F4C0E5D0E0812F0E94D71D209741
:103C700039F4812F0E94A21DDF91CF911F910895E9
:103C80008FE99FE00197F1F700C000002197EFCF87
:103C90000F931F93CF93DF93C62FD42F022FFC01D6
:103CA00082818823A9F06093EC040E940C07909312
:103CB000EB048093EA04C77081E001C0880FCA95C5
:103CC000EAF70E94981DDF91CF911F910F910895FF
:103CD0008091EC04681332C08091EA049091EB0467
:103CE0000E94F106883C910548F510E21D0FCD17A2
:103CF000B9F080E28C0F883040F4C77081E001C0D9
:103D0000880FCA95EAF70E94911D183048F481E0A7
:103D10009D2F977001C0880F9A95EAF70E94981D11
:103D2000802F0E942A1E183070F6D77081E001C0E3
:103D3000880FDA95EAF70E94911DC5CFC77081E020
:103D400001C0880FCA95EAF7F6CFA4E0B0E0EBEA2D
:103D5000FEE10C94B73240915103509152036091AF
:103D60005303709154032FB7F89480919604909167
:103D70009704A0919804B09199042FBF841B950BD0
:103D8000A60BB70B11E084369105A105B10570F1C2
:103D90000E944A146E5F7F4F8F4F9F4F69837A83D3
:103DA0008B839C8380911101909112018B5A9C4FBF
:103DB0004091100150E04530510510F044E050E0D2
:103DC000BE016F5F7F4F0E94C03382E090E00E948F
:103DD0003232182F882351F00E940007609351035C
:103DE000709352038093530390935403812F24962E
:103DF000E3E00C94D332A7E0B0E0E1E0FFE10C9403
:103E0000B63286E0EBEBF4E0DE01119601900D9204
:103E10008A95E1F78091C0038F8347E050E06FE51A
:103E200073E0CE0101960E94B333009166031091B6
:103E300067032091680330916903EFB7F8944091CC
:103E40009604509197046091980470919904EFBF83
:103E5000401B510B620B730B443651056105710514
:103E600018F411E0892B21F18091190190911A0128
:103E70008B5A9C4F4091180150E04830510510F08A
:103E800047E050E0BE016F5F7F4F0E94C03383E088
:103E900090E00E943232182F882351F00E940007D0
:103EA000609366037093670380936803909369033C
:103EB000812F2796E4E00C94D232EF92FF921F9369
:103EC000CF93DF9300D000D000D0CDB7DEB77B0119
:103ED00090E080E00E943232182F882309F480C0DD
:103EE0004091030150E04115510511F041E050E0CF
:103EF00060910401709105016B5A7C4FCE010696CA
:103F00000E94C03340914D0350914E0360914F0386
:103F1000709150032FB7F894809196049091970474
:103F2000A0919804B09199042FBF841B950BA60B08
:103F3000B70B84369105A105B10540F486E593E001
:103F40000E9451059E81891709F44AC081E090E0E2
:103F50000E943232811116C010E085E0E8E4F3E0FF
:103F6000D70101900D928A95E1F7812F26960FB621
:103F7000F894DEBF0FBECDBFDF91CF911F91FF90B0
:103F8000EF90089540910B0150E04630510510F03C
:103F900045E050E060910C0170910D016B5A7C4F2F
:103FA000CE0101960E94C03386E593E00E94510540
:103FB0009E818913D1CF0E94000760934D037093B7
:103FC0004E0380934F039093500385E0FE0131969A
:103FD000A8E4B3E001900D928A95E1F711E0BDCF1E
:103FE00085E0E6E5F3E0DE01119601900D928A95F9
:103FF000E1F71111EACFB1CF90E080E00E94793370
:10400000883E9E4F19F40E94BF15089580E00895E0
:1040100068EE7EEF90E080E00E94AD3360E082E0E9
:1040200090E00E948F3360E083E090E00E948F3345
:1040300010923B0360E084E090E00E948F3364E0E4
:1040400082E290E00E948F3360E085E090E00E9481
:104050008F3360E086E090E00E948F336FEF87E05F
:1040600090E00E948F3340E050E0BA0188E090E099
:104070000E94A13360E08DE090E00E948F3340E029
:1040800050E0BA0188E190E00E94A13360E087E14E
:1040900090E00E948F3340E050E0BA018CE190E064
:1040A0000E94A13370E060E080E290E00E94AD33B6
:1040B00040E050E0BA0188E190E00E94A13380E046
:1040C0000E94F3140E940C1540E050E0BA018FE00A
:1040D00090E00E94A13340E050E0BA0183E190E01B
:1040E0000E94A1330895A5E0B0E0E9E7F0E20C9466
:1040F000A9328C01FC0183819481892B31F080816C
:10410000918189238F3F09F0D2C52596E1E10C9476
:10411000C5320E945915F82E682F89819A810E9414
:10412000B91269817A818F2D0E944B157C01F801AB
:104130008281882309F4AEC5970122513F45203181
:10414000310508F07AC58FEF93E00E947133811139
:1041500028C0FEEEEF0E57E0852E52E0952EE110BE
:1041600032C01C821B82442443944AE0342E7401E2
:104170008FEFE81AF80AC4010E94713389831A820A
:10418000882379F09FEF980F933058F58A834982FE
:1041900092E0890E911CC7010E9471338B838111BB
:1041A00021C080912F03877009F4AFCFF80182817D
:1041B000882309F4AACF80917B0382FFA6CF82E0F7
:1041C0000E944F1AA2CF811424E0920651F3C40139
:1041D0000E947133811101C0EA943FEF831A930A60
:1041E000BECF4701FE0131967F01F70120812223D6
:1041F00009F4BDCF213009F047C09181828191300F
:1042000031F4F2E0EF0EF11C0E942A1E07C092303A
:1042100049F422E0E20EF11C0E94D71D3FEFE31AA1
:10422000F30AE3CF933031F432E0E30EF11C0E9445
:10423000A21DF4CF943021F08FEFE81AF80AEECFE8
:1042400092E0E90EF11C30E020E0B7016F5F7F4F94
:10425000F70141818053990B8A30910550F021502C
:104260003109E0F28FE99FE00197F1F700C000000B
:10427000F6CF329EF001339EF00D11249C012E0FDB
:104280003F1F842F7B01E1CFE22FF0E0EE56FE4F7F
:104290005490822F86958695869590E0FC01EE5786
:1042A000FE4F64902770712C022E02C075946794A3
:1042B0000A94E2F7E1E06E227724FC01EE58FE4F0B
:1042C000A490B12C022E02C0B594A7940A94E2F7F0
:1042D000F1E0AF22BB24FC01EE59FE4FC490D12C7B
:1042E00002C0D594C7942A95E2F721E0C222DD24CA
:1042F0006114710419F081EE0E94D71DA114B1045C
:1043000019F086EE0E94D71D852D0E942A1EA11449
:10431000B10419F086EE0E94A21D6114710419F017
:1043200081EE0E94A21DC114D10409F477CF8CE262
:104330006BCF81E00E949A1A0E94361A32CF81E038
:104340000E94421AF9CF82E0F5CF95EFE9169CE57D
:10435000F90609F46CC008F466C027E245EE66EE83
:10436000F6EFEF16FCE5FF0609F490C4882309F484
:10437000AFC41092EC0423E0E2162DE5F20608F03B
:104380005DC03AEFE3163CE5F30630F4C701825016
:104390009C45449708F05FC00E94D81590937B031A
:1043A00080937A03F2E1EF16FCE5FF0609F478C189
:1043B00008F0B6C039E0E3163CE5F30609F44EC157
:1043C00008F079C095E0E9169CE5F90609F436C1D4
:1043D00008F05FC0F3E0EF16FCE5FF0609F426C124
:1043E00008F028C180917A03816032E0E3163CE551
:1043F000F30609F492C060917A03F0907B0384E0A5
:1044000090E00E948F336F2D82E290E00E948F3304
:104410000E94AB1AC6CE27E245EE65EE37C426E20F
:1044200041EE60EE33C427E245EE64EE2FC426E28F
:1044300041EE62EE2BC428E241E0EFCF85EAE816B8
:104440008DE5F80609F4A8CFF0F4E1E6EE16EDE507
:10445000FE0609F4A1CF96E1E9169CE5F90609F0FC
:10446000D0C4809139038A7A91E009F490E0909366
:10447000DE0269E2811165E386ED92E00E94180791
:104480000E94B2198ECEC7018D5A9D45039718F729
:1044900083CF87E0E8168CE5F80609F4DBC080914D
:1044A0007A03806198E0E9169CE5F906B0F1809105
:1044B0007A03806432C0EDE0EE16ECE5FE0609F406
:1044C000D7C0A0F480917A038E7F2BE0E2162CE512
:1044D000F20619F180917A038C603CE0E3163CE52A
:1044E000F306D8F080917A038D7F17C08FE0E8162D
:1044F0008CE5F80609F4CCC008F4BEC0E0E1EE1685
:10450000ECE5FE0609F4C8C080917A038F7BF1E1E7
:10451000EF16FCE5FF0609F06ECF80937A036BCFB0
:104520002FEFE2162CE5F20609F4C4C0D8F58AEFA5
:10453000E8168CE5F80609F485C0D0F4E4E1EE163F
:10454000ECE5FE0609F4C4C008F4B0C025E1E216AB
:104550002CE5F20609F04FCF80917A0382FB992770
:1045600090F921E0922790FB82F990FB83F9D5CF57
:104570003CEFE3163CE5F30609F482C008F466C09C
:104580009DEFE9169CE5F90609F47EC080917B0356
:104590008360EEEFEE16ECE5FE0609F02CCF80937B
:1045A0007B0329CFF1E6EF16FDE5FF0609F49BC07A
:1045B000A0F431E0E3163DE5F30609F492C008F4F7
:1045C0007DC060E092E0E9169DE5F90609F013CFA1
:1045D0008EE090E00E948F330ECFEDEAEE16EDE50F
:1045E000FE0601F168F490917A03892F8E7F90FF87
:1045F000816025EAE2162DE5F20609F48ECFFBCEA6
:104600003EEAE3163DE5F30679F18FEAE8168DE51B
:10461000F80609F0F0CE90917B03892F877F93FFF6
:104620008860BDCF80917B038860B9CF80917A0389
:10463000826073CF80917A0384606FCF80917A0318
:1046400088606BCF80917B038160A9CF80917B03D1
:104650008260A5CF80917A0380625FCF0E94AB1AFF
:1046600080917A03806859CF80917B03877F97CFB1
:1046700080917A038B7F51CF80917A03877F4DCFD2
:1046800080917B038E7F8BCF80917B038D7F87CF43
:1046900080917A038F7E41CF80917A038F7D3DCFC9
:1046A0000E94AB1A80917A038F7737CF80917A037B
:1046B000837F33CF80917B038C7F71CF80917B038D
:1046C000982F909591708E7F892B90FB81F967CF01
:1046D0000E94AB1A90917A03892F97FB87F9805833
:1046E0001CCF61E075CF90917A03892F8F7E94FF64
:1046F000806113CF8091DE0281110FC089E2E8ED65
:10470000F2E02EED32E09191891303C0DF011197A1
:104710001C922E173F07B9F7B3CE85E3F0CF4CE8D4
:1047200057E167E977E10E945E073BCD47E957E132
:104730006CE877E1F8CF4FE357E16AE477E1F3CF34
:104740004AE457E16FE377E1EECF43E257E161E3FB
:1047500077E1E9CF41E357E163E277E1E4CF45E177
:1047600057E167E077E1DFCF49EB56E165EC76E1B1
:10477000DACF45EC56E169EB76E1D5CF61E081E037
:104780000E9455170ECD61E08DE0FACF9091C103E4
:10479000892F8E7F90FF81608093C10380FF05C0C9
:1047A0008BE592E00E94AF04FCCC89E492E0FACF62
:1047B0000E9408200E947B1D80917B0382FB88273A
:1047C00080F991E089270E946B1AF8018281E080CC
:1047D000F180882309F445C0C7010E945915D82EDD
:1047E000682FC7010E94B912B7018D2D0E944B1589
:1047F0000E94EE107C01882EF801D280B580B29420
:104800003FE0B32280912F038770C1F0AD2CDD20F3
:10481000B1F08F2D807F803421F080E28E0D8830C2
:1048200068F080917B0382FF09C082E00E944F1AEA
:1048300080912F038770AA24A3948111A12C9F2C0F
:1048400092942FE09222FBE0F91508F479C0E92D4B
:10485000F0E0E850FC4C0C94323381E0B4CF80E0BF
:10486000B2CFC7010E948512D82EBECF2F2D2F7038
:10487000C22E8F2D807F19F0C29490EFC922DD20C7
:10488000B9F0CC2069F080E28E0D883010F08110F4
:1048900009C080913903C82AC09239030E94B21915
:1048A0008E2D4CC080913803C82AC0923803F6CFB1
:1048B0008E2D0E94A21DCC2009F442C080E28E0DF4
:1048C000883010F0811004C08C2D0E94741206C034
:1048D000C09480913803C822C09238030E94B21954
:1048E0002FC03F2D3F70C32E8F2D807F803219F057
:1048F000C29480EFC822882089F081E0881609F4EC
:1049000068C0DD2009F472C0BB2009F468C0F8015A
:10491000858180FFC5CF8F70858361C020917B0327
:1049200022FD35C0DD2069F1CC2039F080913903BA
:10493000C82AC09239030E94B21980E00E94D71D94
:10494000292D2850330B2430310510F40E943914DE
:10495000AA2009F4DACB80912F0380FDD6CBF80191
:1049600012828595859585950E949A1AC8010E94A4
:10497000732080912F038595859585950E94421A15
:10498000C4CB80E00E94A21DCC20D1F29DCFDD20BF
:1049900099F090913A038C2D892BB11003C00E949D
:1049A000981DCECFE1E0BE12FACF22FFC9CF9817F3
:1049B00039F280933A03C4CFB11006C00E946E1240
:1049C0008C2D0E94911DBCCFF1E0BF1609F4B8CF29
:1049D000F5CFDD2031F025E02B1508F4B1CF8C2D7B
:1049E000DECF34E03B1508F4ABCFEACFBB2041F378
:1049F000F9E38F1209C02FEF37EE83E021503040EA
:104A00008040E1F700C000008E2D0E94A21D98CFCB
:104A10008F2D86958695837061F0813009F090CF57
:104A2000C7019370D11002C090E080E00E9432076D
:104A300087CFC7019370D11002C090E080E00E9440
:104A400048077ECF8F2D837091F5D11079CF4E2DF1
:104A5000429546954770440F440F8E2D8F70042E5B
:104A600001C0880F0A94EAF72E2D2071E4FE07C0DA
:104A70002FE030E001C0220F4A95EAF720953F2D44
:104A8000369536953370323069F050F440913B03DF
:104A9000313029F0822B84230E94A61A51CF842B17
:104AA000822BFACF282B80913B038227F5CF869566
:104AB000DD2011F08F2D8170882309F441CF4E2D18
:104AC000429546954770440F440F8E2D8F70042EEB
:104AD00001C0880F0A94EAF72E2D2071E4FE07C06A
:104AE0002FE030E001C0220F4A95EAF720953F2DD4
:104AF000369536953370323069F050F44091ED04BC
:104B0000313029F0822B84230E94311A19CF842B53
:104B1000822BFACF282B8091ED048227F5CF9F2D91
:104B20009F70F92EDD2029F0892F0E949A1A8E2D70
:104B300036CF8E2D0E94911D8F2D0E94421A00CFDC
:104B40008E2DE2EF8E16B1F1E81570F0F0EF8F16B2
:104B5000D1F021EF821691F0DD2009F45EC0B11092
:104B60009FCE8F2D8F712AC033EF831651F194EFB2
:104B70008912F2CF80917B0382FD2FC08F2D8F7120
:104B8000DD20D9F21BC0DD2081F0E4E0EB1508F454
:104B9000D7CE2F2D2F7181E090E001C0880F2A958C
:104BA000EAF79091ED048927AFCFF5E0FB1508F403
:104BB000C7CEEFCF8F2D8F71D110BFCF0E949A1A21
:104BC000BFCE80E0DD2009F49FCF9F2D9F7181E053
:104BD00001C0880F9A95EAF797CFDD2099F02F2D25
:104BE0002F71F22E822F0E949A1A80917B0382FFEE
:104BF00007C038E0F39EC0011124836080932F0327
:104C00008F2DDCCF81E00E944F1A81E08B1508F0D8
:104C100097CE82E00E944F1A93CEBB2059F0893381
:104C200009F0F2CE9FEFE7EEF3E09150E040F04064
:104C3000E1F7E8CE8F2D8F7180CFF0E1EF16FFE521
:104C4000FF0609F476CB21E1E2162FE5F20609F41E
:104C50007ACB93EFE9169CE5F90609F4E0CB08F06E
:104C600074CBF8EDEF16FCE5FF0609F4D4CB29ED83
:104C7000E2162CE5F20609F4DECB37EDE3163CE54F
:104C8000F30609F073CB26E241EE61EEC8010E9403
:104C9000481E87CA30E1E3163FE5F30609F44FCB1F
:104CA00091E1E9169FE5F906A1F682E049CB85E09E
:104CB000DE01119601900D928A95E1F7F8012281AB
:104CC00089819A81211125CA0E948512F82E29CA4C
:104CD000F6E1EF16FCE5FF0609F40CCD80913903EF
:104CE00082722AECE2162CE5F20609F438CD08F0BF
:104CF00056C095ECE9169CE5F90609F41CCDB0F513
:104D0000F3ECEF16FCE5FF0609F409CD08F00ECD33
:104D100032ECE3163CE5F30609F057CD8091BB0475
:104D2000982F937021E092278C7F892B8093BB046E
:104D300010923A018091C20381608093C2038091F6
:104D4000C10380FF2ECA1F929F938FE491E09F932F
:104D50008F9382E192E09F938F930E9448050F907A
:104D60000F900F900F900F900F901BCA97ECE916C1
:104D70009CE5F90609F4E9CC08F4E2CCF8ECEF166E
:104D8000FCE5FF0609F4E6CC47E057E165E177E191
:104D900029ECE2162CE5F20609F4C5CC16CD3FEC61
:104DA000E3163CE5F30609F4EECCB8F4ECECEE16B1
:104DB000ECE5FE0609F4DDCC08F4D6CC2DECE216C9
:104DC0002CE5F20609F4DACC61E085E03EECE3166E
:104DD0003CE5F30609F4D4CCF8CC86EDE8168CE576
:104DE000F80648F461E082E191EDE9169CE5F906E8
:104DF00008F4C6CCD6C9EDE5EE16FE0609F4D1C915
:104E0000E4CCFAE5EF16FDE5FF0609F426CDF0F453
:104E100031E0E3163CE5F30609F4B8CC8EEDE81674
:104E20008CE5F80609F4C4CCE1149CE5F90609F018
:104E3000CCCC0E94AB1AEFEFF4E32CE0E150F04051
:104E40002040E1F700C000000E94CB13ECE5EE1615
:104E5000EDE5FE0609F4B0CC08F401CD27EAE21630
:104E60002DE5F20609F4A6CCB0CC1F93CF93DF93C7
:104E70008091FC02807F09F049C08091F90288236B
:104E800009F444C080912E03D091FD026091F70295
:104E90007091F802A091FA02B091FB02C62FC723CD
:104EA00016E0D81799F190E0109711F0CF3F19F460
:104EB00001968770F6CF189F9001199F300D11242D
:104EC000F901E250FD4F41814713F2CF4081461373
:104ED000EFCF42814111ECCF438154814A1B5B0BE0
:104EE000483C510528F78091FC028F7080618093C7
:104EF000FC02F901ED5FFC4F80818F70806180833F
:104F000087EF92E00E9473200E947B12DF91CF9185
:104F10001F910895A1E1B0E0E0E9F7E20C94B0320E
:104F20008C0185E0F801DE011D9601900D928A95B5
:104F3000E1F7F801E28087EFA82E82E0B82E6091B9
:104F4000FA027091FB026115710509F426C1909176
:104F5000F7024091F802892F84238F3F09F41DC185
:104F600020813181C380D480F090F902F601E61BE4
:104F7000F70BFF2009F4DCC08091FC02582F507F12
:104F8000E83CF10508F09FC051116BC0FE2C4313A3
:104F900014C0921312C0E11010C08F708061809312
:104FA000FC02C5010E9473208091FC02F8018583F8
:104FB0008F2D6196EAE00C94CC32C114D10429F013
:104FC000822F83238F3F09F003C180E0F82FF17017
:104FD000DF2E80FF3CC080912E034091FD0256E001
:104FE000841315C02D873E878D859E850E94881568
:104FF000292F22952F702230F0F0243018F59F7061
:10500000F1F0F8019581907FD1F4D12C1EC090E091
:10501000589FF001599FF00D1124E250FD4F61811E
:10502000361306C06081261303C06281E6120FC0EA
:1050300001968770D5CF9F7011F0882331F3805E81
:10504000883018F3C8010E947320FD2CB1CFEE20E8
:1050500009F4AECF8091FC0281608093FC02F12CB8
:10506000A7CF431306C0921304C0F801EE2009F441
:1050700079C0C8010E949515882309F1EE20F9F046
:105080008091FC02803270F02091F7023091F8029A
:1050900038872F831986DB86CA868C87CE010796D0
:1050A0000E94732086E0F801A7EFB2E001900D9214
:1050B0008A95E1F70E943527FF24F39479CFC80140
:1050C0000E947320F9CF51110AC087EF92E00E942D
:1050D000732086E0F50111928A95E9F7C0CF43135A
:1050E0000FC092130DC0E1100BC0F8018583C801F9
:1050F0000E94732086E0F50111928A95E9F758CF56
:10510000C8010E9495158823D1F2EE20C1F280914A
:10511000FC02803238F22091F7023091F8023A8393
:1051200029831B82DD82CC828E83CE010196B8CF8B
:10513000E83CF105F8F6FE2CEE2009F243131FC0FF
:1051400092131DC08091FC0280FD10C0982F907FAB
:1051500069F0F8018583903F31F0982F907F905F40
:105160008F70892B8583C8010E94732086E0F80127
:10517000A7EFB2E001900D928A95E1F719CFC8012F
:105180000E94951581118ECF8091FC0281608093E1
:10519000FC02C8010E9473200BCFEE2009F48FCFD0
:1051A000C8010E949515F82E882309F488CF86E05F
:1051B000F801A7EFB2E001900D928A95E1F7809196
:1051C000F7029091F8020E9488150E943527F0CED0
:1051D00081E08E25FBCEA7E1B0E0E1EFF8E20C9490
:1051E000B7324B8B5C8B6D8B7E8B8F8B61111092EA
:1051F00038031A8A198A85E0FE017396DE011D962E
:1052000001900D928A95E1F786E0FE013D96DE0160
:10521000179601900D928A95E1F7CE0107960E94AC
:105220008A27882359F016E080912E039091FD0281
:10523000891343C06796E3E00C94D33286E0FE0105
:105240003796DE01119601900D928A95E1F78A85D5
:105250009B85892B41F38F81988589238F3F19F393
:105260002091FD0230E0C901019687709927409195
:105270002E034817190671F40E94AB1A1092FD0212
:1052800010922E0386E0E7EFF2E0DF011D928A958F
:10529000E9F7C9CF96E0929FD001939FB00D1124FA
:1052A000A250BD4FFE01319601900D929A95E1F703
:1052B0008093FD020E947B12B6CF819FC001112412
:1052C00082509D4F0E948A27882309F4B3CF809192
:1052D0002E0390E001968770992780932E03A4CF28
:1052E0001F920F920FB60F9211242F933F934F935B
:1052F0005F936F937F938F939F93AF93BF93CF935E
:10530000DF93EF93FF93D091E900DF708091EC0081
:10531000C82FC17080FDC0E81092E9008091F000B4
:10532000877F8093F00078940E94B71A1092E9006A
:105330008091F00088608093F000CD2BCF70C093F7
:10534000E900FF91EF91DF91CF91BF91AF919F91D4
:105350008F917F916F915F914F913F912F910F901E
:105360000FBE0F901F9018951F920F920FB60F92BD
:1053700011242F933F934F935F936F937F938F935A
:105380009F93AF93BF93EF93FF938091E10082FFD0
:1053900015C08091E20082FF11C08091E1008B7FF7
:1053A0008093E10020919F042F5F822F62E30E948F
:1053B000DF32992309F4C0C020939F048091DA0062
:1053C00080FF28C08091D80080FF24C08091DA003F
:1053D0008E7F8093DA008091D90080FFE3C080E166
:1053E00089BD82E189BD09B400FEFDCF81E08093D3
:1053F000AD0481E098E00E94AF048091A004811187
:1054000009C00E9468050E9433068091E200846012
:105410008093E2008091E10080FF1BC08091E20058
:1054200080FF17C08091E2008E7F8093E200809120
:10543000E20080618093E2008091D80080628093D6
:10544000D80019BC85E08093AD0489E098E00E9403
:10545000AF048091E10084FF2FC08091E20084FFBF
:105460002BC080E189BD82E189BD89B5982F9170FB
:1054700080FFFBCF8091D8008F7D8093D8008091F2
:10548000E1008F7E8093E1008091E2008F7E809327
:10549000E2008091E20081608093E2008091AE049E
:1054A000882309F489C084E08093AD048DE098E0FE
:1054B0000E94AF048091AD048091E10083FF2BC076
:1054C0008091E20083FF27C08091E100877F809375
:1054D000E10082E08093AD041092AE048091E1007F
:1054E0008E7F8093E1008091E2008E7F8093E200C6
:1054F0008091E20080618093E20042E060E080E021
:105500000E9401068091F00088608093F00081E1A4
:1055100098E00E94AF04FF91EF91BF91AF919F91EE
:105520008F917F916F915F914F913F912F910F904C
:105530000FBE0F901F90189510929F0480919E04AB
:10554000882309F43BCF8091AD048430C1F490915D
:10555000E9009F702091EC00822F817020FD80E88F
:10556000892B95E09093E9009091EB0090FF04C0A7
:105570009091EE0097FD08C08F708093E900109223
:105580009E041CCF1092F1009091E80095FDFACF97
:105590009091E80090FFF0CF9091E8009E77909373
:1055A000E800EACF19BC1092AD0485E098E00E94B3
:1055B000AF041092A0042ECF8091E30087FD93E00A
:1055C0009093AD0473CF78941F921FB61F9211244D
:1055D0008F939F93AF93BF9380919604909197047C
:1055E000A0919804B09199040196A11DB11D8093DA
:1055F000960490939704A0939804B0939904BF9154
:10560000AF919F918F911F901FBE1F9018951F9271
:105610001FB61F9211248F939F93AF93BF938091D6
:105620009504811113C08091960490919704A091E4
:105630009804B09199044196A11DB11D80939604E0
:1056400090939704A0939804B0939904BF91AF915D
:105650009F918F911F901FBE1F901895CDB7DEB7F9
:10566000E1970FB6F894DEBF0FBECDBF85B7806857
:1056700085BF85B7806885BF84B7877F84BF0FB635
:10568000F894A895809160008861809360001092E2
:1056900060000FBE80E890E00FB6F8948093610040
:1056A000909361000FBE88E093E19093D5028093C0
:1056B000D4020E9468050E9433068091E200846053
:1056C0008093E20078948091AD048823A1F010913A
:1056D000E9001F709091EC00892F817090FD80E8A7
:1056E000182B1092E9008091E80083FD0E94B71A00
:1056F0001F701093E90082E084BD93E095BD9AEF9E
:1057000097BD80936E0010926A0310926B03109203
:105710006C0310926D030E94BF15811102C00E949C
:105720000C1555985D988FE891E00197F1F700C04E
:1057300000000E944F0B80932B010E9416148111D0
:105740000E94463180912B0181112CC085E0E2E45A
:10575000F1E0DE01919601900D928A95E1F789A121
:10576000809326018AA1809327018BA18093280131
:105770008CA1809329018DA180932A0186E0E7E422
:10578000F1E0DE01119601900D928A95E1F7FE019C
:105790003196A0E2B1E0CE01079621912D93E81752
:1057A000F907D9F780912B0195E0811190E0909352
:1057B000790385E0891B8093780306E211E0D80124
:1057C0008D918D018F3F11F00E949410B1E00B324A
:1057D0001B07A9F700E211E0F80181918F018F3FCB
:1057E00011F00E949410F1E006321F07A9F78AE039
:1057F000E9E8F3E0DF01282F1D922A95E9F7EEE6AC
:10580000F3E0DF011D928A95E9F70E94FC1F8111E8
:1058100002C00E94082082E090E00E9471338093D1
:10582000C1030E94D81590937B0380937A030E9452
:105830000E18EFE3FCE93197F1F700C000000E9479
:105840000E188091890380FF08C06FEF7FEF90E012
:1058500080E00E94AD330E94CB1383E090E00E9471
:1058600071330E94A61A1092C1048FEF9FEF90939C
:10587000DB048093DA049093DD048093DC0490933E
:10588000DF048093DE049093E1048093E00490931E
:10589000E3048093E2049093E5048093E4049093FE
:1058A000E7048093E6049093E9048093E80410925F
:1058B00093039093AD038093AC039093AF038093D5
:1058C000AE039093B1038093B0039093B30380939E
:1058D000B2039093B5038093B4039093B70380937E
:1058E000B6039093B9038093B8039093BB0380935E
:1058F000BA030E94FC1F811110C08091C10380FF78
:1059000008C08BE394E09F938F930E9448050F900B
:105910000F900E9408200E94A31746E050E06CE11F
:1059200070E08BEB94E00E9461331092C20380918F
:10593000BB048C7F71F48091C10380FF08C086EEA8
:1059400093E09F938F930E9448050F900F900E94C1
:10595000A3178091C10380FF89C08CEC93E09F93D3
:105960008F930E9448058091C1030F900F9080FF94
:105970007DC08091BB0483701F928F938DEA93E06A
:105980009F938F930E9448058091C1030F900F90C1
:105990000F900F9080FF6AC08091BB04869586951A
:1059A0001F928F9380E993E09F938F930E94480505
:1059B0008091C1030F900F900F900F9080FF56C001
:1059C0008091BC041F928F9382E793E09F938F9303
:1059D0000E9448058091C1030F900F900F900F9087
:1059E00080FF44C08091BD041F928F9384E593E0B3
:1059F0009F938F930E9448058091C1030F900F9051
:105A00000F900F9080FF32C08091BE041F928F9341
:105A100086E393E09F938F930E9448058091C10392
:105A20000F900F900F900F9080FF20C08091BF04C7
:105A30001F928F9388E193E09F938F930E94480574
:105A40008091C1030F900F900F900F9080FF0EC0B8
:105A50008091C0041F928F938AEF92E09F938F935F
:105A60000E9448050F900F900F900F900E941614FF
:105A7000811102C00E9449318CE291E0909392041E
:105A80008093910489E893E0FAE0F80FF9AB8091F4
:105A9000AD048530A9F48DE694E00E94AF0440E4A3
:105AA000F42EEE24E39400E112E18091AD04853000
:105AB00009F4C7C00E94AB1A0E9439141092C003A7
:105AC0000E940E18AEE7B3E0BCA7ABA739E8232EBF
:105AD00033E0332ED101EEE7F3E091918D9123E095
