:100000000C94FD040C945B310C9435050C9435056F
:100010000C9435050C9435050C9435050C94350578
:100020000C9435050C9435050C94A2280C945E288C
:100030000C94F5290C9435050C9435050C94350574
:100040000C9435050C9435050C9435050C94350548
:100050000C9435050C94D1290C9435050C94350578
:100060000C9435050C9435050C9435050C94350528
:100070000C9435050C9435050C9435050C94350518
:100080000C9435050C9435050C9435050C94350508
:100090000C9435050C9435050C9435050C943505F8
:1000A0000C9435050C9435050C9435050631FF0983
:1000B00074A1010975150026FF00952075088102BD
:1000C0000976150026FF00952075089102C00501EC
:1000D0000980A101850319012AB700150126B7007F
:1000E000950175108100C0050C0901A10185041955
:1000F000012AA002150126A002950175108100C0F9
:100100000660FF0961A1010962150026FF00952024
:10011000750881020963150026FF00952075089176
:1001200002C005010906A101050719E029E715002C
:100130002501950875018102950175088101050762
:10014000190029FF150026FF009506750881000596
:10015000081901290595057501910295017503910D
:1001600001C0010143010432337C010111006874B4
:100170007470733A2F2F716D6B2E666D2F0A0054B9
:10018000657374696E6720312C20322C20332E2E3B
:100190002E20202054657374696E6720312C203224
:1001A0002C20332E2E2E00726762206D61747269CE
:1001B0007820746F67676C65205B25735D3A2072E9
:1001C00067625F6D61747269785F636F6E6669679D
:1001D0002E656E61626C65203D2025750A004445E0
:1001E0004255473A2064697361626C65642E0A0067
:1001F00044454255473A20656E61626C65642E0A3B
:10020000004F6E6573686F743A2061637469766538
:100210003A2025640A000A002530325820006B6518
:1002200079626F6172645F7265706F72743A2000F8
:1002300054617267657420636F6E6E656374656484
:100240000D0A0054617267657420646973636F6E90
:100250006E65637465642C207468726F74746C6965
:100260006E6720636F6E6E656374696F6E20617474
:1002700074656D7074730D0A004661696C65642065
:10028000746F20657865637574652025730A007244
:1002900067625F6D61747269785F636F6E666967CC
:1002A0002E666C616773203D2025640A00726762C8
:1002B0005F6D61747269785F636F6E6669672E73D4
:1002C00070656564203D2025640A007267625F6D79
:1002D00061747269785F636F6E6669672E687376A2
:1002E0002E76203D2025640A007267625F6D61747E
:1002F0007269785F636F6E6669672E6873762E73B6
:10030000203D2025640A007267625F6D6174726926
:10031000785F636F6E6669672E6873762E68203D1E
:100320002025640A007267625F6D61747269785F8C
:10033000636F6E6669672E6D6F6465203D2025646E
:100340000A007267625F6D61747269785F636F6ED5
:100350006669672E656E61626C65203D2025640AC2
:10036000007267625F6D61747269785F636F6E6659
:10037000696720454550524F4D0A007267625F6DB4
:1003800061747269785F696E69745F6472697665B9
:100390007273207267625F6D61747269785F636FF8
:1003A0006E6669672E6D6F6465203D20302E205784
:1003B000726974652064656661756C742076616C21
:1003C00075657320746F20454550524F4D2E0A00BD
:1003D0007267625F6D61747269785F696E69745F7C
:1003E00064726976657273206565636F6E666967AE
:1003F000206973206E6F7420656E61626C65642E77
:100400000A005B735D000A0025303862003A200064
:1004100025303258000A722F6320303132333435A0
:1004200036370A000A0025303258006C65645F7464
:1004300061736B3A2000000101010101010101011A
:100440000202020202020202020303030303030385
:100450000304040404040404050505050506060652
:100460000606070707070708080808090909090A0F
:100470000A0A0B0B0B0C0C0C0D0D0D0E0E0E0F0FB4
:100480000F10101111111212131314141515161642
:100490001717181819191A1A1B1B1C1D1D1E1E1FB1
:1004A0002020212222232424252626272829292A00
:1004B0002B2C2D2D2E2F3031323233343536373828
:1004C000393A3B3C3D3E3F40414243444546474824
:1004D000494A4C4D4E4F50515354555658595A5BFA
:1004E0005D5E5F616264656668696B6C6D6F70729A
:1004F000737577787A7B7D7E8082838587888A8C06
:100500008E8F91939596989A9C9EA0A2A3A5A7A939
:10051000ABADAFB1B3B5B7BABCBEC0C2C4C6C9CB30
:10052000CDCFD1D4D6D8DBDDDFE2E4E7E9EBEEF0E6
:10053000F3F5F8FAFDFF6565636F6E6669675F75D1
:1005400070646174655F7267625F6D61747269780F
:100550005F64656661756C740A00726762206D6124
:1005600074726978206D6F6465205B25735D3A2035
:1005700025750A00726762206D6174726978207354
:10058000657420687376205B25735D3A2025752C91
:1005900025752C25750A00726762206D6174726979
:1005A0007820736574207370656564205B25735DC6
:1005B0003A2025750A00000000000000000000003D
:1005C000000000000000000000000000000000002B
:1005D000000000000000000000007E0F00D4FFFFBC
:1005E000FFC70000007800000000000000002A2B78
:1005F00028000000000000000000000000000000D3
:100600000029000000002C1E34202122243426273B
:10061000252E362D3738271E1F202122232425265C
:100620003333362E37381F0405060708090A0B0C2A
:100630000D0E0F101112131415161718191A1B1C72
:100640001D2F3130232D350405060708090A0B0C30
:100650000D0E0F101112131415161718191A1B1C52
:100660001D2F3130354C29001E001F0020002100B5
:1006700022002E0014001A000900130005002D00AE
:1006800004001500160017000A002F001D001B00B3
:1006900006000700190000000000E200E0002A62E6
:1006A0002B41005727002600250024002300350099
:1006B00033001C0018000F000D00340012000C0065
:1006C00008001100100030003800370036000B0021
:1006D0000E0000000000AC5D01572C414C7245003B
:1006E0003A003B003C003D003E002E0246004B001D
:1006F0005200490028002D022602500051004F00F0
:1007000027022F021E024E004A004D002402000064
:1007100000000100010001002A00440043004200E3
:10072000410040003F0035022E00610060005F0084
:100730003100340233025E005D005C0025023002AD
:1007400038025B005A0059003102000000006200CC
:1007500001002C00010045023A023B023C023D022E
:100760003E02C55C135F145F155F165F175FC65CC2
:10077000185F195F1A5F1B5F1C5F005C1D5F1E5FC7
:100780001F5F205F215F00000000010001000100E9
:100790000100440243024202410240023F02155F4F
:1007A000145FBB00A900BC00135FCB5CC95CAE004A
:1007B000AA00AD00C35CCC5CCA5CAB00A800AC0076
:1007C000C45C0000000001530100C25C0100010094
:1007D0000100010001000100010001000100010011
:1007E0000100010001000100010001000100010001
:1007F00001000100010001000100010001000000F2
:1008000000000100010001000100010001000100E1
:1008100001000100010001000100010001000100D0
:1008200001000100010001000100010001000100C0
:1008300001000100010001000100000000000100B2
:1008400001000100010029001E001F0020002100FE
:1008500022002B0014001A00080015001700E00009
:1008600004001600070009000A00E1001D001B003B
:1008700006001900050000000000E300105F2A6276
:100880004A002A00270026002500240023004C00EF
:10089000130012000C0018001C00340033000F007D
:1008A0000E000D000B00E500380037003600100088
:1008B000110000000000AC5D01002C414D0029003A
:1008C0001E001F002000210022002B0014001A002F
:1008D000080015001700E0000400160007000900DA
:1008E0000A00E1001D001B000600190005000000C1
:1008F0000000E300105F2A624A002A002700260059
:100900002500240023004C00130012000C001800E6
:100910001C00340033000F000E000D000B00E5003A
:100920003800370036001000110000000000AC5DF8
:1009300001002C414D005B435D005B445D005B5357
:100940005D005B575D005B525D0009027B000401A6
:1009500000A0FA09040000010301010009211101AE
:10096000000122400007058103080001090401007D
:1009700002030000000921110100012222000705E5
:10098000820320000107050303200001090402007F
:1009900001030000000921110100012232000705B6
:1009A0008403200001090403000203000000092160
:1009B000110100012222000705850320000107051F
:1009C0000503200001120100020000000810CB56B0
:1009D000631006010200010C0356006900720069F1
:1009E00000730000000E034B0065006500620069A3
:1009F000006F000000040309040011241FBECFEFA4
:100A0000DAE0DEBFCDBF04B603FE18C080915C05FE
:100A100090915D05A0915E05B0915F058730904B88
:100A2000A740B04B59F410925C0510925D051092EE
:100A30005E0510925F05E0E0F8E3099525E0AAEF76
:100A4000B2E001C01D92AC35B207E1F712E0A0E0C0
:100A5000B1E0E4EAF8E602C005900D92AA3FB107C2
:100A6000D9F70E941C2A0C9416340C940000FF93B2
:100A7000EF93E091FA02F091FB02309709F00995AB
:100A8000EF91FF910895FC018591803011F0EFDF27
:100A9000FBCF0895FF27E0E230E247FF0CC041950D
:100AA00097FF09C0EDE26095709580959095611D66
:100AB000711D811D911D27FF02C0219530E350E279
:100AC000AA27660F771F881F991FAA1FA41710F067
:100AD000A41B63955A95A9F7AA3008F0A95FA05DF9
:100AE000AF93F395611571058105910541F7ED32DD
:100AF00011F4EF93F395F21718F43F93F395FBCFAE
:100B00008F91B5DFFA95E1F70895E991F991859113
:100B1000803021F0853219F0AADFF9CF089520E066
:100B2000E89455915532C1F3503311F468945591BE
:100B30005A3348F4505390F3220F022E220F220F03
:100B4000200D250FF4CF0EF42195899199915336FC
:100B500019F3533729F1533559F1BC0188279927E7
:100B6000E8945C3621F489919991689455915436B2
:100B700039F446EF7EF077FF0DC08FEF9FEF0AC08C
:100B800055374AE039F0583540E121F0523642E01D
:100B900009F00895FF93EF937DDFEF91FF91B7CFB9
:100BA000FF93EF93FC0181918030B9F360DFFBCFBD
:100BB000FF93EF9368DFF1CFDF93CF93CDB7DEB72D
:100BC0002596A3DFCF91DF910895FC01AC014B5F27
:100BD0005F4F8FEF91E32191822728E030E087FF7C
:100BE00009C0880F892721503109C9F7E417F50793
:100BF00091F70895880FF7CFE8EDF0E080818E7FC0
:100C000080831092E2001092DA001092E100A0EED0
:100C1000B0E08C9181608C9380818F77808319BC48
:100C2000A7EDB0E08C918E7F8C9380818F7E808346
:100C30001092120508952091E4003091E50095E6A8
:100C4000A9012091EC00822F817020FF06C08091C5
:100C5000E80080FF06C080E008952091E80022FDB2
:100C60001AC080911F05882389F0853089F0809112
:100C7000EB0085FD0FC02091E4003091E5004217A4
:100C80005307F9F29150E1F684E0089582E0089567
:100C900083E0089581E00895EF92FF920F931F93F0
:100CA000CF937C018B010E941B06C82F811117C0B6
:100CB0008091E80085FD0BC08091E8008E778093DD
:100CC000E8000E941B06882399F3C82F08C0F7018B
:100CD00081917F018093F1000150110949F78C2F18
:100CE000CF911F910F91FF90EF9008958091210572
:100CF00087FF13C08091E80082FF06C08091E80062
:100D00008B778093E80004C080911F058111F2CF9A
:100D1000089580911F058823D9F38091E80080FF12
:100D2000F8CF8091E8008E77ECCF982F9093E90070
:100D3000242F762F50E0891731F07091EC0020912C
:100D4000ED005091F00021FD07C09F5F973071F7D3
:100D50008093E90081E008953091EB003E7F30936D
:100D6000EB003091ED003D7F3093ED003091EB00D2
:100D700031603093EB007093EC002093ED005093C2
:100D8000F0002091EE0027FDE0CF80E00895B0E074
:100D9000A0E0EDECF6E00C948132C8EDD0E0888163
:100DA0008F7E8883E7EDF0E080818160808384E03E
:100DB00082BF81E08093120588818E7F888302EE56
:100DC00010E0F80110821092DA0081EEC82ED12CCA
:100DD000F601108288818F77888388818068888374
:100DE00088818F7D888319BC10921F051092200581
:100DF00010921E0510921D0590EEE92EF12CF701C0
:100E000080818B7F808388818160888342E060E07D
:100E100080E00E949506F60180818E7F8083F80134
:100E2000808181608083808188608083F7018081F8
:100E30008E7F8083888180618883CDB7DEB7E8E0CC
:100E40000C949D32FC01809127059091280586170E
:100E50009707A0F06115710529F49091E8009E773D
:100E60009093E80090E06115710551F4911108C06C
:100E70008091E80082FF34C080E00895BC01F2CF89
:100E800080911F058823C1F18530C1F18091E80070
:100E900083FD30C08091E80082FDEACF8091E800B8
:100EA00080FFE1CF8091F3002091F200382F61158F
:100EB000710519F02830310558F091E028303105DE
:100EC00009F090E02091E8002E772093E800CBCF46
:100ED00081918093F100615071092F5F3F4FE7CFFF
:100EE00080911F05882341F0853041F08091E80012
:100EF00083FFBECF81E0089582E0089583E00895E6
:100F0000089508958091140508959C014FB7F894B1
:100F10008091080590910905A0910A05B0910B05F3
:100F20004FBF821B930B08952FB7F894609108056B
:100F30007091090580910A0590910B052FBF0895C6
:100F40002FB7F8948091080590910905A0910A05A2
:100F5000B0910B052FBF08959C01FC0132969FEFC5
:100F600080E04191461751F09F3F19F4411101C0B3
:100F7000982F8F5F8630A9F79F3F09F40895290FB6
:100F8000311D97FD3A95F901628308952091050579
:100F9000309106052817390771F090930605809364
:100FA0000505E0910305F0910405309721F00084D8
:100FB000F185E02D099508952091010530910205F4
:100FC0002817390771F09093020580930105E0918D
:100FD0000305F0910405309721F00680F781E02D9C
:100FE00009950895FA01811101C0FB010995089541
:100FF00080935F0180915205837080935E010E940F
:10100000380D83E080936001089522E8241B08F4E2
:1010100020E0620F08954095282F429F412D112412
:10102000842F08950E94F1080895FF920F931F9353
:10103000CF93DF93182F062FF42ED0E0C0E02F2D92
:10104000402F612FCE010E9412082196C434D10591
:10105000B1F7CDB7DEB7E5E00C94A032E42FF0E0B5
:10106000EE0FFF1FE25DFD4F408134EE439F412DA7
:101070001124E82FF0E050E0445E5F4FDA01A21B3C
:10108000B1099D01B7FF03C031952195310993E066
:10109000220F331F9A95E1F7AF01421B530B9A01C0
:1010A00057FD20E0582F259F212D1124822F0895D0
:1010B000AF92BF92CF92DF92FF920F931F93CF9385
:1010C000DF93362F472FE82FF0E0EA5CFB4F7111DA
:1010D0000FC0E4918E2F2E2F6E2F722FDF91CF91A4
:1010E0001F910F91FF90DF90CF90BF90AF90089528
:1010F000C72FD0E02491F22E022F10E056E0659F1A
:10110000C0011124EFEFF0E0BF010E94BA32832F3B
:1011100090E0880F991F35E5369FD001379FB00DBD
:1011200011248A1B9B0B982F990F980F6F01CC1AD3
:10113000DD0AC09ED001C19EB00DD09EB00D11241D
:101140008B2F499FA0011124452F55276F01C41AE9
:10115000D50AC09EA001C19E500DD09E500D1124F5
:101160005F01A91AB108AC9E6001AD9ED00CBC9E77
:10117000D00C1124CD2CDD24EC19FD09E09FE001F9
:10118000E19FD00DF09FD00D1124ED2F623071053D
:10119000A1F050F46115710509F49ECF613071051D
:1011A00081F0EB2F852F98CF6430710569F080F0C6
:1011B0006630710509F490CFF4CFE22F2B2F8D2FDD
:1011C0008BCFE22F252F88CFEB2F822F2D2F84CF8F
:1011D0002B2F8F2DE52F80CF89B185FB882780F9B4
:1011E0000895FF920F931F93CF93DF93EC01F62E98
:1011F000042F122F0E94EC0881110FC0C232D105BA
:101200007CF0A297FE01EE0FFF1FEC0FFD1FE05DCB
:10121000FB4FF1820083128303C0C232D10594F3E5
:10122000CDB7DEB7E5E00C94A032CF93C82F0E9473
:10123000EC08882329F081E0C23228F080E003C066
:1012400081E0C434D8F7CF910895B0E0A0E0EBE29C
:10125000F9E00C947F327C01C09162018EE0C89F5E
:10126000C02D11241EE01C0F153408F014E40E9458
:10127000EC08882319F0133208F012E20E94EC08FF
:10128000811103C0C23208F4C2E22091560531E058
:10129000230F08F42FEF30E050E040E06FEF7FEFD6
:1012A00080E090E00E94B3336901D0E001E0B12C0E
:1012B000A12C2C2FC11740F0812F0E941509CDB70A
:1012C000DEB7EAE00C949B32FE01EA54FD4F8081C8
:1012D00090916301892329F1809129058150082E7D
:1012E000000C990B87FF1FC0B60130915605300FD7
:1012F00008F43FEFA501639F412D739F400D511DE1
:101300001124609153057091540580915505F701A2
:1013100009950E945808462F282F672FCE010E945A
:1013200012082196C6CFFC01E75DFA4F31893213CE
:101330000AC0FC01EE0FFF1FE75DFA4F618D728D51
:101340006C157D0590F20197CDCFF894E82FE295CA
:10135000EF70F0E031A1282F2F7081E090E001C004
:10136000880F2A95EAF7982F9095932391A392A13D
:10137000892B82A37894089590919E0392FF06C0D2
:10138000282F28712830F9F4877F846093FF06C0E6
:10139000282F28712831F1F4877E846120919F03E2
:1013A00020FF06C0382F38713830D9F4877F81602C
:1013B00021FF06C0282F28712831D1F4877E816152
:1013C00094FD877E0895282F24712430F9F68B7FB1
:1013D0008860DCCF282F2471243101F78B7E88614F
:1013E000DDCF382F3171313019F78E7F8860E0CF33
:1013F000282F2171213121F78E7E8861E1CFCF9393
:10140000DF93EC0182389105B1F108F040C08133DF
:10141000910509F49DC048F58932910509F48DC004
:101420008A9709F49CC0C11522E5D20708F0BDC017
:10143000C11531E5D30708F024C1C83ED10508F035
:10144000A3C0C13ED10588F5C83AD10508F08EC0C9
:10145000C53AD10508F0F6C0C130D10531F1209769
:1014600021F1C430D10508F545C08533910509F453
:101470005FC0C997C1F680919E03837009F036C1A1
:1014800080919F0383FF11C0C9E2D0E00EC0833E6C
:10149000910599F170F4803E910501F1823E91052C
:1014A00011F680919E0382FD21C0CE01DF91CF9184
:1014B0000895863E910561F1873E910571F1843E64
:1014C000910509F0B0CF80919F0381FFEECF80910D
:1014D0009E03C7EED0E084FD0DC0E7CF80919E0350
:1014E00080FD33C090919F0390FFDFCFC3EED0E02B
:1014F00084FFDBCFD0E0C0E0D8CF80919E0382FD97
:10150000F2C090919F0390FDF1C084FFCECFF2CF47
:1015100080919E0383FDDDCFC8CF80919E0383FD24
:10152000E8C090919F0391FFF0CFC4EED0E0BDCF13
:1015300080919E0385FFB9CFA7CF80919E0385FD43
:10154000DBC080919F0383FFB0CFC9E3D0E0ADCF74
:1015500080919E0386FFA9CFCAE2D0E0A6CF8091FA
:101560009E0386FFA2CFC1E3D0E09FCFCF3BD10542
:1015700008F6C85AD0E0CC0FDD1FCE55DE4F0990DB
:10158000D881C02DD46491CFC11540E5D40708F0AF
:1015900064C0C11580E4D80708F05CC0CE019A95FC
:1015A00081159F4108F481CFA5CFC11536E5D3073A
:1015B00018F5C11545E5D40708F07CC0C11584E5D0
:1015C000D80708F072C09E01237033279C2F969590
:1015D0009695C115D34508F459C0C1E0D0E002C0CA
:1015E000CC0FDD1F2A95E2F730E2939FC001112452
:1015F000C82BD92BDA6859CFC1158AE5D80778F4FA
:10160000C11529E5D20708F060C0C11538E5D30738
:1016100008F470CFDC2FCC27C06FD06A46CFCE0144
:1016200090568115904208F065CF8D2F8F710E94E2
:10163000BC0990E0982F882788279F719C012C2B4C
:10164000E90141C0C55AD0E0C156DE4FC881D0E0A3
:10165000D0642BCFDF70D06A28CFCE01837099275A
:1016600021E030E002C0220F331F8A95E2F7C695D1
:10167000C69580E2C89FE0011124C22BD32BDD6800
:1016800014CFDC2FCC27C16FD06A0FCFC1E0D0E0E0
:1016900002C0CC0FDD1F2A95E2F720E2929FC00125
:1016A0001124C82BD92BDC6800CFDC2FCC27C46FCA
:1016B000D06AFBCE8C2F0E94BC09C82FD0E0DC2F53
:1016C000CC27CC27DF71D062F0CE8C2F8F700E9498
:1016D000BC0934E0D695C7953A95E1F7CF709C2FB9
:1016E000EC01D069E2CEC2EED0E0DFCEC0EED0E0B9
:1016F000DCCEC6EED0E0D9CEC5E3D0E0D6CE809128
:101700005E03811110925E03089580959091FD040F
:1017100098239093FD04089580959091FE0498235A
:101720009093FE040895809154039091230398139D
:1017300001C008958F5F8770FACF292F9A3078F50E
:10174000863068F590E036E0239F800D911D1124CE
:10175000682F677023E0969587952A95E1F7FC013D
:10176000EE0FFF1FE80FF91FEB5FFC4F50E040E06A
:1017700080E0219130E0062E02C0369527950A942C
:10178000E2F721703327042E01C0220F0A94EAF7F2
:10179000822B4F5F5F4F4330510559F7089580E02A
:1017A0000895292F9A3098F5863088F590E036E034
:1017B000239F800D911D1124282F277041E001C027
:1017C000440F2A95EAF723E0969587952A95E1F745
:1017D000FC01EE0FFF1FE80FF91FEB5FFC4F30E03D
:1017E00020E070E05191DF011197CB01022E02C081
:1017F000969587950A94E2F78170819585278423D1
:1018000085278C932F5F3F4F2330310559F708957B
:10181000829590E09C01220F331F220F331F2C7CF6
:1018200095958795959587958373282B30E0C90109
:10183000880F991F8A7A359527952575822B0895EB
:101840009C013A9521153F4150F5FC01EE27F170BE
:10185000BC0166277270AC01442754709C0122279A
:10186000387094FF0EC080E1EF2B09F480E0672B05
:1018700009F08062452B09F08064232B89F0806891
:10188000089581E0EF2B09F480E0672B09F0826076
:10189000452B09F08460232B19F08860089580E0BF
:1018A00008959FB7F894109210059FBF90911F055F
:1018B000943009F048C02091E9002F703091EC007D
:1018C000932F917030FD90E8922B25E02093E90052
:1018D0002091EB0020FF34C02091EE0027FF30C0A4
:1018E00020910F05222321F02091E80025FF28C038
:1018F00010920F0526E03091E80035FF14C0809368
:10190000F1008091E80085FD27C08091E80080FF0C
:10191000FCCF8091E8008E778093E8009F709093D1
:10192000E90080E0089530911F05343049F430918A
:10193000EB0035FD05C0215041F481E080930F0597
:101940009F709093E9008FEF0895EFE9FFE03197E2
:10195000F1F700C00000CFCF8FB7F89421E02093BB
:1019600010058FBFDBCF80930C0570930E0560933D
:101970000D0580911F058430F9F48093E9008FEF05
:101980009091E800815095FD06C095ED9A95F1F78C
:1019900000008111F5CF8091E80085FF0DC050E077
:1019A00040E063E070E08CE095E00E944C0680919E
:1019B000E8008E778093E8000895BC0184E00E94DF
:1019C000B30C0895BC0183E00E94B30C0895CF933B
:1019D000DF93EC0181E08093E9008FEF9091E800C4
:1019E000815095FD06C095ED9A95F1F700008111A3
:1019F000F5CF8091E80085FF14C050E040E068E03A
:101A000070E0CE010E944C068091E8008E778093B2
:101A1000E80088E0FE01A5E1B5E001900D928A950D
:101A2000E1F7DF91CF91089581E08093E00080E2BB
:101A30008093D8001092C9008FE19EE40197F1F7DE
:101A400000C0000087E090EBDC0180935C05909380
:101A50005D05A0935E05B0935F0588E19CE00FB63D
:101A6000F894A895809360000FBE90936000FFCF1C
:101A70006E9A3EB13F7B2EB120644FB7F89480E35D
:101A800094E0FC015191CF0168E02EB9000000C044
:101A900057FF3EB9550F000000C000C000C03EB95E
:101AA00000C06A9591F7F4E08C3F9F0751F74FBF54
:101AB0008FE594E00197F1F700C000000895809150
:101AC0006A03811110C08091D80080618093D80092
:101AD0008AE18A95F1F700C08091D90080FF0AC0A1
:101AE00081E080936A0381E090916A03913009F06C
:101AF00080E0089582E080936A030E94FC051092C2
:101B00001F05F1CF0E945F0D882359F0E091030576
:101B1000F0910405309729F00190F081E02D0995AE
:101B2000089580E008950F931F930E945F0D88230E
:101B300029F00E9494071F910F9108950E94940725
:101B400000918E0310918F032091900330919103A7
:101B5000600F711F821F931FEECFCF92DF92EF9223
:101B6000FF926B017C010E945F0D8823A1F02FB7CB
:101B7000F894609108057091090580910A0590918B
:101B80000B052FBF6C197D098E099F09FF90EF90FF
:101B9000DF90CF9008950E94930DF4CFCF93DF9301
:101BA000C7EFD2E060E0CE010E948F332196C115CD
:101BB00084E0D807B9F7DF91CF9108951F93CF93B1
:101BC000DF93122F8630E0F46A30D0F44630C0F450
:101BD000C42FD0E0CC0FDD1F9CE0699FC00DD11D4C
:101BE000112498E7899FC00DD11D1124632FCE01C8
:101BF00087960E948F33612FCE0188960E948F3383
:101C0000DF91CF911F910895AF92BF92CF92DF9253
:101C1000EF92FF921F93CF93DF9386E6C82E86E064
:101C2000D82ED0E07601C0E014C0F50125913491A2
:101C3000412F6C2F8D2F0E94DE0D82E0A80EB11C6B
:101C40001F5F163091F78CE0E80EF11CCF5FCA30B1
:101C500019F0570110E0E9CFDF5F88E7C80ED11C0B
:101C6000D63001F7DF91CF911F91FF90EF90DF9079
:101C7000CF90BF90AF900895CF93C82F6FEF811191
:101C800062E283E290E00E948F336FEFC11160E166
:101C900084E290E00E948F336FEFC11162E185E230
:101CA00090E00E948F33CF91089580E00E943C0E17
:101CB00060E086E290E00E948F330E94040E0E9452
:101CC000CE0D81E00E943C0E08950F931F93CF9399
:101CD000DF93863030F56A3020F5463010F5C42F9A
:101CE000D0E0CC0FDD1F2CE0629FC00DD11D112470
:101CF00038E7839FC00DD11D1124CE0187960E9425
:101D00007133082F10E0102F0027CE0188960E9413
:101D100071339801282BC901DF91CF911F910F9149
:101D2000089590E080E0F8CF462F863040F47A3076
:101D300030F4663020F4672F0E94650E089590E01D
:101D400080E00895CF92DF92FF920F931F93CF937D
:101D5000DF936C0100915B0580915F03082BC7E066
:101D6000D0E010E0FC2EC8010C2E02C0959587959E
:101D70000A94E2F780FD0CC02197A0F7F12C8F2D7B
:101D8000DF91CF911F910F91FF90DF90CF90089539
:101D9000B6018C2F0E94940E0E94FF09019761F3F7
:101DA000EECFCF93DF93EC010E94A20EBE010E9402
:101DB000940E0E94FF09DF91CF910895FC01838169
:101DC0009481892B29F08081918189238F3F51F45F
:101DD00080E00895843FE1F717C0883EA8F0813F76
:101DE000B9F712C0808191810E94D10E92959F70A7
:101DF000963099F358F4925F9F70923048F7803F85
:101E000019F040F7883E20F781E008959A5FF4CFFB
:101E1000A5E0B0E0EEE0FFE00C94863249835A83FF
:101E200089819A81662399F0222389F00E94A20E6B
:101E3000182F682F89819A810E94D10B69817A813C
:101E4000812F0E94940E2596E3E00C94A2320E940A
:101E50009D0B182FF3CF83E290E00E947133823202
:101E600089F484E290E00E947133803159F485E274
:101E700090E00E94713391E0823109F090E0892F67
:101E80008170089580E0FCCFCF9384E090E00E94C1
:101E90007133C82F82E290E00E947133982F8C2F0B
:101EA000CF91089546E050E06CE170E082E595E066
:101EB0000E947F3310922F040895809356059091CD
:101EC0002F04962B90932F0490912E0490FF16C010
:101ED00023E731E0662311F025E731E01F928F936D
:101EE0003F932F9387E995E09F938F930E94DC05A2
:101EF0000F900F900F900F900F900F90089580917A
:101F0000560520E1382F321B08F430E0832F61E0C2
:101F10000E945D0F08958091560520E1382F320F01
:101F200008F43FEF832F61E00E945D0F0895309128
:101F30005205337071F1809353056093540549370E
:101F400008F048E74093550530912F04322B309329
:101F50002F0430912E0430FF1CC050E0992721112E
:101F600019C023E731E05F934F931F926F939F93C4
:101F70008F933F932F9384E795E09F938F930E94D5
:101F8000DC058DB79EB70A960FB6F8949EBF0FBEBC
:101F90008DBF089525E731E0E6CFE2E5F5E0438126
:101FA00020E1421B08F440E0818121E0628190E061
:101FB0000E94970F0895E2E5F5E0438120E1420F8A
:101FC00008F44FEF818121E0628190E00E94970F39
:101FD0000895E2E5F5E0628120E1621B08F460E02B
:101FE000818121E0438190E00E94970F0895E2E50E
:101FF000F5E0628120E1620F08F46FEF818121E05A
:10200000438190E00E94970F0895E2E5F5E0818119
:1020100021E0438162818850990B0E94970F0895B7
:10202000E2E5F5E0818190E021E04381628108965C
:102030000E94970F089590915205937051F181116C
:1020400029C09460909352051092600180912F04F2
:10205000862B80932F0480912E0480FF1AC020913C
:1020600052052695269583E791E0662311F085E7D2
:1020700091E01F922F939F938F938AE595E09F9312
:102080008F930E94DC050F900F900F900F900F9090
:102090000F900895883010F09C61D4CF880F880F7E
:1020A000982BD0CF8091520586958695815009F462
:1020B00087E061E00E941B1008958091520586958B
:1020C00086958F5F883008F081E061E00E941B10E8
:1020D000089580912E0480FF08C086E395E09F93C9
:1020E0008F930E94DC050F900F908DE08093520536
:1020F0008091650190916601A091670180935305DD
:1021000090935405A093550588E7809356058FEF6B
:10211000809357050E94520F0895B0E0A0E0E3E9D4
:10212000F0E10C947C327C015B01842E752E6901F8
:1021300080916B0301E010E08A3010F40AE010E0B7
:10214000C1E0D0E0B501C701F6010995982E8111D3
:1021500014C021960C171D07B4F480912E0480FF43
:102160000CC07F928F9289E792E09F938F930E9499
:10217000DC050F900F900F900F90892DCDB7DEB733
:10218000EDE00C949832CC9F9001CD9F300D300D36
:10219000112490E080E045E34A95F1F700000196B4
:1021A00028173907C1F7CECFB0E0A0E0EAEDF0E1A3
:1021B0000C947A32182F80915F01811323C0909183
:1021C0005205937020915E0130E081E09217130672
:1021D00009F480E0817080936401809157059091AB
:1021E0006301981739F08093630140E060E080E07C
:1021F0000E941508183060F4E12FF0E0E85EFB4C17
:102200000C94E23281E0E6CF80916401811102C03A
:1022100080E0A0C040E060E080E00E941508F8CFB8
:10222000C09162018EE0C89FC02D11240EE00C0FFA
:10223000053408F004E40E94EC08882319F0033206
:1022400008F002E20E94EC08811103C0C23208F4D7
:10225000C2E26091530570915405809155050E942A
:102260005808F62EE72ED82ED0E0C01710F0802F99
:102270006FC0FE01EA54FD4F808190916301892374
:1022800031F02D2D4F2D6E2DCE010E94120821967A
:10229000ECCFE0906201DEE0ED9ED02D1124CEE087
:1022A000CD0FC53408F0C4E40E94EC08882319F06F
:1022B000C33208F0C2E20E94EC08811103C0D2329E
:1022C00008F4D2E260915305709154054091550590
:1022D000E0912904F0912A0480915605869586950F
:1022E000869530E020E0E89F212DF89F200D311DDC
:1022F0001124922F96FD2095322F3F7096FD3F5F5F
:102300002695269526952670E22FF0E0EA52FE4F9C
:102310008181839F802D312D112482958F7032957C
:10232000307F832B2081820F97FD819587FD8195DA
:10233000880F282F249F212D1124822F0E945808B6
:10234000062FD72EC82EED2EF12CEC16D8F08C2FA0
:102350000E941509909162019F5F90936201811123
:102360000CC082E08093600180916401811105C0FE
:10237000111103C083E080936001CDB7DEB7EFE0B9
:102380000C949632F701EA54FD4F808190916301DD
:10239000892331F02C2D402F6D2DC7010E9412088A
:1023A0004FEFE41AF40AD1CFC09162018EE0C89FCA
:1023B000C02D11240EE00C0F053408F004E40E9437
:1023C000EC08882319F0033208F002E20E94EC08BE
:1023D000811103C0C23208F4C2E23091560536952D
:1023E000369521E0320F08F43FEF409129045091D7
:1023F0002A0490E080E0439F812D539F800D911D22
:102400001124F82ED0E0C01708F031CFFE01EA54B5
:10241000FD4F808190916301892391F06091530574
:1024200070915405809155052F2D4C2F0E942E0838
:102430000E945808462F282F672FCE010E941208AD
:102440002196E1CFE09062018EE0E89EE02C11241D
:102450007EE0F72EFE0C94E49F1510F464E4F62E53
:102460000E94EC08882329F0A2E2AF1510F452E292
:10247000F52E0E94EC08811105C0B2E2EB1610F4B3
:1024800042E2E42E80916401882361F040E060E044
:1024900080E00E941508E0ECF3E08CE3DF011D9280
:1024A0008A95E9F780916201811115C08091BC0382
:1024B0009091BD030E94850721E08931910508F4C0
:1024C00020E02093BB03499730F00E94A00790932F
:1024D000BD038093BC03A12C912CB12C96E0792EE6
:1024E00025E5622E3AEA832E5524539405C0ADE0CB
:1024F000A91508F453C0B12C2B2D30E07A9CE001D3
:102500001124FE01EE50FE4FE20FF31FC080CE14E7
:1025100008F43CC0CF1408F039C09394D12CF601D4
:10252000EA54FD4F808190916301892309F42EC004
:10253000C054DC4FC20FD31F0881302F262D321B11
:1025400008F430E070915405282D200F08F42FEF87
:1025500040915505822F880F820F8E5F282F249F70
:10256000212D1124822F682D631B0E945808462FAD
:10257000282F672FC6010E9412088091BB03882371
:1025800029F0452D041B08F400E00883B39486E08D
:10259000B812B2CFA3949AE0A912A9CF8F2DD8CEAA
:1025A00000915505B3E00B9FE0011124D695C79526
:1025B000D695C7955C2EA02EB12C8FEF90E0B5017B
:1025C0000E94CE32762E80916401882371F040E023
:1025D00060E080E00E941508E0ECF3E08CE3DF01AE
:1025E0001D928A95E9F71092BF038091BE038F5F19
:1025F0008093BE03F12CE12CAC1ABD0A6701612C5B
:10260000D701A054BC4F4D018091BF03862909F02A
:1026100045C00E943B33853595400CF03FC0F40126
:102620000083F601EE50FE4FE081EF3FD1F0D6017E
:10263000A054BC4F2C91F0E0521608F040C030E09E
:102640002C1B3D0B2C9FC0012D9F900D3C9F900D8E
:102650001124B5010E94BA32262F402FCF010E94CB
:1026600012086394F6E0CF0ED11C2AE06212CCCFA0
:102670004FEFE41AF40A86E0E816F10409F0BECF41
:102680008091BE03781202C01092BE038091BF03F6
:102690008F5F8D31F0F48093BF03BACDF601E05423
:1026A000FC4F8081882309F4BCCF801708F0B9CF94
:1026B0009091BE037912B5CF81508083B2CF029F33
:1026C000C0011124BE010E94BA32462F20E060E012
:1026D000C5CF1092BF0320EF33E089E09FEF900F4A
:1026E000E0ECF3E0D901893021F446A9041301C0DC
:1026F00096AB4D91401730F0ED01219798831596D8
:102700000C931597319643E0E63CF40761F781504E
:10271000265031098111E4CF7BCD8BE098E00E94F7
:10272000250918CE85E098E0FACF4F925F926F921C
:102730007F928F929F92AF92BF92CF92DF92EF9251
:10274000FF92609125047091260480912704909156
:1027500028040E94AD0D6B017C010E94930D4B017A
:102760005C018092250490922604A0922704B092E6
:102770002804A091FC03ECEFF3E08A2F90E04FEFE8
:102780005FEF60E070E04C195D096E097F09A913E5
:1027900028C08093FC0380912D04811135C0909155
:1027A0005205892F837019F0892F8695869590910F
:1027B0006001913009F441C0992341F1923009F44C
:1027C0003FC0933009F43FC0FF90EF90DF90CF906F
:1027D000BF90AF909F908F907F906F905F904F9041
:1027E0000895218D328D2901712C612C44155505D8
:1027F0006605770520F481509F5F3296C8CF2C0D77
:102800003D1D328F218FF8CF80E0D1CF1092620131
:102810008092290490922A04A0922B04B0922C0456
:1028200089E2ECEFF3E0A9E2B5E001900D928A9520
:10283000E1F781E080936001C7CF0E94D410C4CF3C
:102840000E94F807C1CF80912F0481110E94520F7E
:102850006091290470912A0480912B0490912C049A
:102860000E94AD0D603171058105910508F4ACCF72
:1028700010926001A9CFAFE0B0E0E1E4F4E10C9484
:102880007C328E010F5F1F4F8AE0D8011D928A951E
:10289000E9F780E3C82E81E0D82EF12CE12CAA24A0
:1028A000A394B12C20E3822E21E0922EF601819197
:1028B0006F018F3F09F442C0F894E82FE295EF7062
:1028C000F0E021A18F70A50102C0440F551F8A9529
:1028D000E2F7CA01922F982B91A392A180958923A8
:1028E00082A3789400C0EAE2F1E0712C31E02191FA
:1028F0002F3F09F46BC0A22FA295AF70B0E0909665
:102900008C9190E02F7002C0959587952A95E2F7FB
:1029100080FD5CC0832F782A330F8E169F0639F70F
:10292000F601319780818F3F11F00E94A50950EA8E
:102930005A95F1F7F801EE0DFF1D70828FEFE81A3E
:10294000F80AA5E0EA16F10409F0B0CF4AE050E039
:10295000B80182E993E00E944B33009741F02AE0EE
:10296000F801A2E9B3E001900D922A95E1F70091F8
:102970009D03892B69F181E0809362030E94A00787
:102980009093610380936003809160039091610351
:102990000E948507059700F110E00F541C4F45E099
:1029A00050E062E973E0C8010E944B33C12C892BCF
:1029B00051F085E0E2E9F3E0D80101900D928A95AB
:1029C000E1F7CC24C3941092620307C080E0A3CF48
:1029D000809162038111D8CFC12C0E945F0DD82E47
:1029E000E0919D03882309F492C07E01BBE0EB0EC9
:1029F000F11C85E0D7011D928A95E9F70E2F10E0B2
:102A00000F541C4FB0906B03B9E0BB15E0F128E800
:102A10003DE14CE751E0B701C8010E948D108823C9
:102A200009F453C020ED3CE149E851E0B701C80189
:102A30000E948D10882309F448C026E23DE144E954
:102A400051E0B701C8010E948D108823F1F1F9E02F
:102A5000FB1508F453C010926B0380919C0390E027
:102A600045E050E0B7018F549C4F0E944B3321E06A
:102A700020936903892BE1F4D12C8D2D8C292F967D
:102A8000EDE00C94983280916303909164030E946E
:102A90008507843F914008F0BACF8091690388236D
:102AA00059F385E0D7011D928A95E9F710926903E1
:102AB000A0919C03B0E0AF54BC4F85E0FE013B9673
:102AC00001900D928A95E1F7D8CF80916B038F3FEB
:102AD00031F08F5F80936B038A3008F4BECF0E9481
:102AE000A007909364038093630380912E0480FF7A
:102AF000D4CF83E492E00E944305CFCF80912E048F
:102B000080FFA9CF80E392E00E944305A4CFF0E0CC
:102B1000EF54FC4F85E0AAE7B3E001900D928A954F
:102B2000E1F78AE793E00E94E505809379038090BE
:102B30007F0390908003A0908103B09082038091E6
:102B4000650390916603A0916703B09168038816AE
:102B50009906AA06BB06D1F080926503909266039F
:102B6000A0926703B09268030E945F0D81110EC0AE
:102B70000E949407861A970AA80AB90A80928E03BF
:102B800090928F03A0929003B092910386E0E3E8C5
:102B9000F3E0A2E5B5E001900D928A95E1F710917E
:102BA0008903112349F080912D04811105C00E94F1
:102BB000D41080E00E94F80710932D045ECF0F938D
:102BC0001F93CF93DF938091FE049091FD04892B96
:102BD0008093FC0290915E03992391F0892B80935E
:102BE000FC0220E08EEF92E0FC013191CF01311127
:102BF0002F5FF3E084309F07B9F721110E947F0B0C
:102C000048E050E066E573E08CEF92E00E944B33C1
:102C1000892B09F441C088E0ECEFF2E0A6E5B3E0CF
:102C200001900D928A95E1F7E0910305F09104057A
:102C3000309791F10280F381E02D8CEF92E00995BD
:102C400080912E0482FF28C080FF04C08EE192E0B4
:102C50000E944305D0E0C0E008E112E080912E041C
:102C600080FF0EC0FE01E450FD4F80811F928F93C4
:102C70001F930F930E94DC050F900F900F900F9001
:102C80002196C830D10551F780912E0480FF04C0F1
:102C900086E192E00E944305DF91CF911F910F9151
:102CA0000895CF93DF93EC01EA85FB85309719F007
:102CB0006C857D8509958B810E94850B8C810E9496
:102CC0008C0B0E94DF1586E0FE0111928A95E9F7D0
:102CD000DF91CF910895CF93DF93EC018D8181FD3A
:102CE00018C082608D838091FD049B81892B809325
:102CF000FD048091FE049C81892B8093FE040E9438
:102D0000DF15E885F985309721F06C857D85CE014A
:102D10000995109200051092FF048D8180FD03C07B
:102D2000CE010E945116DF91CF91089590E080E08E
:102D30000E94DC0790E080E00E94C6071092FD042C
:102D40000E94DF15089580935B050E9496160895F2
:102D500080915B05982F9670963021F488600E94D0
:102D6000A3160895877FFBCF21E030E001C0220F3A
:102D70008A95EAF7209580915B0582230E94A3162D
:102D80000895909155038095892380935503282FAA
:102D9000277091F4282F082E000C330B921713067E
:102DA00059F090919F0392FF07C085958595859571
:102DB0000E94B416109255030895CF93DF93D82F35
:102DC000C0919F03C2FB882780F98D1711F1D0FBBA
:102DD000C2F9C0939F0360919E0384E090E00E943B
:102DE0008F336C2F82E290E00E948F3382E00E944A
:102DF000C11680912E0480FF0CC01F92DF9381E0EA
:102E000092E09F938F930E94DC050F900F900F909C
:102E10000F90DF91CF91089521E030E001C0220FA3
:102E20008A95EAF780915B05822B0E94A31608958C
:102E300080935F030E94961608951092FE04EEEFB1
:102E4000F2E086E0DF011D928A95E9F70E9496166E
:102E50000895AAE2B0E0EFE2F7E10C94863281E255
:102E600095E02091F100DC012D93CD01B5E0893290
:102E70009B07B9F780912205833009F472C0B8F43A
:102E8000813009F449C0823009F4B3C08091E80070
:102E900083FF91C280912105909122059A3008F01C
:102EA0008AC2E92FF0E0E05EFB4C0C94E2328A30FB
:102EB00009F48EC08B3009F471C0893039F78091E4
:102EC0002105813219F780912505909126050097FB
:102ED00011F00297D9F68091E800877F8093E8008F
:102EE0008091E80082FF38C09091F3008091F20059
:102EF000029731F48091F100813011F0863021F495
:102F00008091F100809314058091E8008B77809385
:102F1000E8000E947606BACF80912105813A09F037
:102F2000B5CF8091E800877F8093E80080912505E8
:102F300090912605892B61F468E085E195E070E0C9
:102F40000E9422078091E8008B778093E8009ECF53
:102F500060E090E080E0F3CF80911F058111C0CF49
:102F600095CF80912105813A09F090CF8091250578
:102F700090912605892B09F089CF8091E800877F01
:102F80008093E8008091E80080FFFCCF8091610190
:102F90008093F1008091E8008E77B9CF8091210570
:102FA000813209F073CF8091250590912605892BF8
:102FB00009F06CCF8091E800877F8093E8000E9441
:102FC000760680912305809361010E941D175ECFD4
:102FD00080912105813209F059CF8091E800877FE7
:102FE0008093E8000E947606809124058093130563
:102FF0004DCF80912105813A09F048CF8091E800BA
:10300000877F8093E8008091E80080FFFCCF80916B
:103010001305BECF803899F0823809F0CCC1809179
:1030200025058F70873008F0C6C18093E900809134
:10303000EB0085FB882780F91092E90006C080919B
:103040001D0590911E05911182609091E800977F77
:103050009093E8008093F1001092F1008091E800D5
:103060008E77A5C1882309F493C1823009F0A3C1EA
:1030700080912305811196C1809125058F702FEFD6
:10308000280F263008F097C18093E9002091EB00CB
:1030900020FF88C1933031F48091EB0080628093EF
:1030A000EB0080C19091EB0090619093EB0021E0E8
:1030B00030E001C0220F8A95EAF72093EA001092CF
:1030C000EA008091EB008860EACF811174C1109111
:1030D00023051F778091E3008078812B8093E300A4
:1030E0008091E800877F8093E8000E9476068091B7
:1030F000E80080FFFCCF8091E30080688093E300CC
:1031000082E0111183E080931F0555C18058823001
:1031100008F051C120912305309124052C3DE3E0B6
:103120003E07A1F583E08A838AE289834FB7F8944A
:10313000DE01139620E03EE051E2E32FF0E05093F1
:103140005700E49120FF03C0E295EF703F5FEF70FE
:103150008E2F90E0EA30C0F0C7968D939D932F5F3D
:10316000243159F74FBF8091E800877F8093E800B2
:103170006AE270E0CE0101960E9422078091E80089
:103180008B778093E80017C1C096E7CF8091250523
:1031900090912605432F55274330510509F44AC025
:1031A00078F54130510509F47AC08BE790E0EAE404
:1031B000F9E04230510509F0FEC02091E800277F78
:1031C0002093E80020912705309128058217930766
:1031D00008F49C0140E02115310509F065C041115A
:1031E00063C08091E80082FDC9CF80911F058823CC
:1031F00029F2853019F28091E80083FFF2CFBECF2B
:103200004132510509F43CC04232510509F0D3C0A6
:103210008430910508F0CFC0FC01EE0FFF1FEE5186
:10322000FE4F0190F081E02D82529E4FDC018C9187
:1032300090E01AC0332721303105D1F02115310536
:1032400061F02230310509F0B6C0E7EDF9E0E49114
:103250008E2F90E0E7EDF9E007C0E5EFF9E0E491AB
:103260008E2F90E0E5EFF9E0009709F4A4C0A5CF18
:10327000E5EEF9E0E4918E2F90E0E5EEF9E0F4CF91
:103280008430910508F097C0880F991FFC01E65122
:10329000FE4F0190F081E02D89E090E08ECF82E139
:1032A00090E0E5ECF9E089CF80911F05882309F4CF
:1032B00065CF853009F462CF8091E80083FD5ECF51
:1032C0008091E80082FD8DCF8091E80080FF83CF60
:1032D0009091F3008091F2002115310519F08830AA
:1032E000910550F041E0089709F040E08091E80036
:1032F0008E778093E8006FCF44914093F100319630
:10330000215031090196E8CF803809F054C08091EE
:10331000E800877F8093E800809120058093F1008A
:103320009DCE811148C010912305123008F043C092
:103330008091E800877F8093E800109320050E9429
:103340007606112311F084E005C08091E30087FD2B
:10335000FACF81E080931F0542E061EC81E00E949A
:10336000950642E261EC84E00E94950642E261EC3F
:1033700082E00E94950642E260EC83E00E9495069E
:1033800042E261EC85E00E94950680911F0513C022
:1033900080912305813079F481E0933009F080E059
:1033A00080931E051092E9008091E800877F80934A
:1033B000E8000E9476068091E80083FF0AC08091B1
:1033C000E800877F8093E8008091EB008062809323
:1033D000EB00AA96E3E00C94A2320E941D172FEF97
:1033E00084E39CE0215080409040E1F700C0000061
:1033F00088E19CE00FB6F894A895809360000FBE1A
:1034000090936000FFCF882321F00E94850B0E94DB
:10341000DF1508958091FC04882329F082E20E9440
:10342000031A1092FC040895882339F09091FD044A
:10343000982B9093FD040E94DF150895882321F0B6
:103440000E948C0B0E94DF150895882339F090911B
:10345000FE04982B9093FE040E94DF1508958823A4
:1034600091F19CEF980F913A80F4EEEFF2E024E0B6
:1034700033E09191891303C0DF0111971C922E173D
:103480003F07B9F70E94DF15089590E2980F983032
:1034900050F4877091E001C0990F8A95EAF7892F5F
:1034A0000E948C0BEFCF9BE5980F933028F490E0AF
:1034B00080E00E94DC070895885A873120F490E06C
:1034C00080E00E94C6070895CF93DF93EC010E942D
:1034D0002F1ACE010E94200C9E01205E3109283057
:1034E000310510F0CD2B29F40E941E1ADF91CF91E7
:1034F00008950E94031AFACFFC018281813031F4D1
:10350000FB01808191810E94641A08958230E9F75D
:10351000FB0182819381F7CFCF93C82F8823B1F02D
:103520008CEF8C0F813A00F5EEEFF2E084E093E04F
:10353000DF012D91C21761F08A179B07D1F76C2F1D
:103540008CEF92E00E94AC070E94DF15CF910895A6
:103550002191C21303C0DF0111971C928E179F07A0
:10356000B9F70E94DF15EBCF80E28C0F883068F44A
:10357000C77021E030E001C0220FCA95EAF78091C0
:10358000FE04822B8093FE04DFCFEBE5EC0FE330EB
:1035900040F4F0E0E156FE4F808190E00E94DC07AD
:1035A000D5CFC85AC73190F6EC2FF0E0EE0FFF1FD1
:1035B000EE55FE4F808191810E94C607C7CF1F93B1
:1035C000CF93DF93182FD0E0C0E0893311F4C0E52A
:1035D000D0E0812F0E948C1A209739F4812F0E940D
:1035E0002F1ADF91CF911F9108958FE99FE00197E6
:1035F000F1F700C000002197EFCF0F931F93CF93F7
:10360000DF93C62FD42F022FFC0182818823A9F0DB
:1036100060935A050E94A00790935905809358051E
:10362000C77081E001C0880FCA95EAF70E94251A89
:10363000DF91CF911F910F91089580915A056813E2
:1036400032C080915805909159050E948507883CA9
:10365000910548F510E21D0FCD17B9F080E28C0FEF
:10366000883040F4C77081E001C0880FCA95EAF73E
:103670000E941E1A183048F481E09D2F977001C0F7
:10368000880F9A95EAF70E94251A802F0E94DF1A68
:10369000183070F6D77081E001C0880FDA95EAF72C
:1036A0000E941E1AC5CFC77081E001C0880FCA955D
:1036B000EAF7F6CFB0E0A0E0E0E6FBE10C9482325E
:1036C000E82FF0E0EA51FA4FD490282F269526955E
:1036D000269530E0F901EA52FA4F0491877010E024
:1036E000082E02C0159507950A94E2F7017011277C
:1036F000F901EA53FA4FE490F12C082E02C0F59438
:10370000E7940A94E2F791E0E922FF24F901EA54F0
:10371000FA4FC491D0E002C0D595C7958A95E2F7DB
:10372000C170DD270115110519F081EE0E948C1A78
:10373000E114F10419F086EE0E948C1A8D2D0E947E
:10374000DF1AE114F10419F086EE0E942F1A011518
:10375000110519F081EE0E942F1ACD2B19F08CE281
:103760000E94DF1ACDB7DEB7E7E00C949E32FF92DD
:103770000F931F93CF93DF938C018AE0F82EF8010B
:103780008491882309F44BC0813009F044C0E801DA
:103790002196FE018491813049F42196FE018491A5
:1037A0000E94DF1A8E010F5F1F4FE9CF823039F47C
:1037B000E8012296FE0184910E948C1AF3CF833097
:1037C00039F4E8012296FE0184910E942F1AEACF73
:1037D000843041F7E8012296FE01249190E080E0D8
:1037E000FE0131962053330B2A30310548F0019702
:1037F000C8F2EFE9FFE03197F1F700C00000F7CF22
:10380000F89EA001F99E500D1124C901840F951F47
:103810002491EF01E5CF0E945A1BE801C3CFCDB739
:10382000DEB7E5E00C94A0320F931F93CF93DF93A4
:103830008C01E0910901E250E93040F4F0E0E65DEE
:10384000FB4C0C94E23282E00E94B4161092090103
:10385000DF91CF911F910F91089583E0F5CF85E01F
:10386000F3CF80E00E940C17F1CF88E20E94DF1AAC
:103870002196F80182818C171D0609F0B4F788E2C1
:103880000E942F1AE3CFC1E0D0E0F3CFCF93DF93B4
:10389000EC010E94200C9E01205E31092830310588
:1038A00010F0209741F40E94251A8C2F0E948C1A48
:1038B000DF91CF9108950E94141AF7CFFB01808108
:1038C00091810E94461C0895CF93DF93EC018A8179
:1038D000823041F4FB01828193810E94461C8D81DC
:1038E00082608D83DF91CF910895FC0192819130A8
:1038F00099F4858182FF09C080FD07C082E0809332
:10390000090188E20E948C1A089580FFF7CF83E0B6
:103910008093090182E038C0923071F4858182FF82
:1039200002C080FF3BC080FD34C084E08093090169
:1039300088E20E94DF1AE5CF9330D1F4858182FFBF
:1039400002C080FF24C080FD1BC087E08093090176
:1039500081E00E94B41682E00E94B41683E00E94C7
:10396000B41684E00E94B41685E00E94B41608954F
:10397000943020F481E08093090108958AE0BFCF5C
:1039800088E08093090185E00E940C17089589E082
:10399000B6CF85E08093090183E0F6CF86E0C6CFFD
:1039A000A4E0B0E0E6EDFCE10C94863240917503B2
:1039B0005091760360917703709178032FB7F89454
:1039C0008091080590910905A0910A05B0910B0519
:1039D0002FBF841B950BA60BB70B11E08436910506
:1039E000A105B10570F10E94930D6E5F7F4F8F4F5F
:1039F0009F4F69837A838B839C8380911B01909175
:103A00001C0187589C4F40911A0150E045305105E8
:103A100010F044E050E0BE016F5F7F4F0E945833CA
:103A200082E090E00E940132182F882351F00E941A
:103A30009407609375037093760380937703909354
:103A40007803812F2496E3E00C94A232A7E0B0E043
:103A5000ECE2FDE10C94853286E0E2E5F5E0DE0182
:103A6000119601900D928A95E1F780912D048F8334
:103A700047E050E063E873E0CE0101960E944B33CB
:103A800000918A0310918B0320918C0330918D0358
:103A9000EFB7F894409108055091090560910A0527
:103AA00070910B05EFBF401B510B620B730B44363B
:103AB00051056105710518F411E0892B21F1809100
:103AC00023019091240187589C4F4091220150E09E
:103AD0004830510510F047E050E0BE016F5F7F4F66
:103AE0000E94583383E090E00E940132182F88230F
:103AF00051F00E94940760938A0370938B03809324
:103B00008C0390938D03812F2796E4E00C94A132CF
:103B1000EF92FF921F93CF93DF9300D000D000D09D
:103B2000CDB7DEB77B0190E080E00E940132182F14
:103B3000882309F480C040910D0150E041155105E2
:103B400011F041E050E060910E0170910F01675853
:103B50007C4FCE0106960E945833409171035091DC
:103B6000720360917303709174032FB7F89480917E
:103B7000080590910905A0910A05B0910B052FBF8A
:103B8000841B950BA60BB70B84369105A105B105D7
:103B900040F48AE793E00E94E5059E81891709F4C5
:103BA0004AC081E090E00E940132811116C010E00D
:103BB00085E0ECE6F3E0D70101900D928A95E1F7FC
:103BC000812F26960FB6F894DEBF0FBECDBFDF91D2
:103BD000CF911F91FF90EF9008954091150150E013
:103BE0004630510510F045E050E0609116017091AB
:103BF000170167587C4FCE0101960E9458338AE71F
:103C000093E00E94E5059E818913D1CF0E9494071D
:103C100060937103709372038093730390937403A2
:103C200085E0FE013196ACE6B3E001900D928A95F5
:103C3000E1F711E0BDCF85E0EAE7F3E0DE011196A0
:103C400001900D928A95E1F71111EACFB1CF90E082
:103C500080E00E947933883E9E4F19F40E942B0F1A
:103C6000089580E0089568EE7EEF90E080E00E9485
:103C7000AD3360E082E090E00E948F3360E083E04B
:103C800090E00E948F3310925F0360E084E090E048
:103C90000E948F3364E082E290E00E948F3360E004
:103CA00085E090E00E948F3360E086E090E00E9423
:103CB0008F336FEF87E090E00E948F3340E050E059
:103CC000BA0188E090E00E94A13360E08DE090E0CE
:103CD0000E948F3340E050E0BA0188E190E00E94FA
:103CE000A13360E087E190E00E948F3340E050E034
:103CF000BA018CE190E00E94A13370E060E080E2C4
:103D000090E00E94AD3340E050E0BA0188E190E0DD
:103D10000E94A13380E00E943C0E0E94550E40E0BC
:103D200050E0BA018FE090E00E94A13340E050E003
:103D3000BA0183E190E00E94A1330895A4E0B0E0CD
:103D4000E4EAFEE10C947D327C01DC0113968D9156
:103D50009C911497892B49F04C9111965C91119785
:103D6000842F85238F3F09F0FFC52496ECE00C9447
:103D70009932C114B4E0DB0609F45BC6C6010E94A7
:103D80007133811101C00150EFEFCE1ADE0A2FC648
:103D900068018E010F5F1F4FD8018C91882309F4B1
:103DA0002EC6813009F044C011969C91119712964D
:103DB0008C91913039F40E5F1F4F0E94DF1A0F5F14
:103DC0001F4FEACF923029F40E5F1F4F0E948C1ACA
:103DD000F6CF933029F40E5F1F4F0E942F1AEFCFBA
:103DE000943019F00F5F1F4FEACF0E5F1F4F30E086
:103DF00020E0B8016F5F7F4FF80141818053990B3C
:103E00008A30910550F021503109C8F28FE99FE0C6
:103E10000197F1F700C00000F6CFA29EF001A39E2B
:103E2000F00D11249C012E0F3F1F842F8B01E1CF39
:103E30000E945A1BC4CF81E00E940C170E94A81652
:103E4000F8C581E00E94B416F9CF82E0F5CF88234F
:103E500009F4FDC48EE691E0F8C4882309F4F7C4A0
:103E600082E691E0F2C4902F812F39C5F601858159
:103E700081FF39C5C6010E94511635C50C3AFDE5D2
:103E80001F0709F030C5D70112968C91882309F4D9
:103E9000D0C58091FC04882319F00E940A1AC9C574
:103EA0001092FE040E947F0B0E94A00788579C4E30
:103EB0009093AF038093AE0381E08093FC04B9C577
:103EC000011592E5190708F041C5D70112968C91AA
:103ED000882309F4C0C510925A050330BDE51B07BD
:103EE00008F0CDC00A3FECE51E0730F4C80182504F
:103EF0009C45449708F0CEC00E94440F90939F03C6
:103F000080939E0302318CE5180709F4D3C108F0B1
:103F10001FC10930ACE51A0709F4AAC108F0E9C0CD
:103F20000530ECE51E0709F497C108F0D0C0033056
:103F30002CE5120709F488C108F08AC102308CE52B
:103F4000180709F479C160919E0310919F0384E0E2
:103F500090E00E948F33612F82E290E00E948F33C5
:103F60000E941D1766C50115A9E51A0758F4011529
:103F7000B8E51B0708F0A9CF0431E5E51E0709F0F5
:103F8000E5C4A3CFC80190568115904208F0DEC465
:103F9000D70115968C91807F71F5812F8F718231B9
:103FA00019F1F0F4823001F10E940A1A033F2CE566
:103FB000120709F455C008F03EC0083D8CE518070B
:103FC00009F44AC0093D9CE5190709F455C0073DAD
:103FD000ACE51A0709F079CF26E241EE61EE38C070
:103FE000843121F3863101F71092FD04DDCFF70112
:103FF0008581807FD9F2C80199271092FD0488320B
:10400000910548F48E31910560F4049768F282E0DE
:104010008093FD0406C08D329105C9F328F48A9778
:1040200019F60E94DF15C2CF8C349105D1F38D3281
:104030009240B9F3B9CF053FBCE51B07C9F0A0F02A
:1040400027E245EE66EE063FFCE51F0709F03DCF8F
:10405000C7010E94FD1AEDC427E245EE65EEF8CFD8
:1040600026E241EE60EEF4CF27E245EE64EEF0CFBB
:1040700026E241EE62EEECCF28E241E0EFCF053AD6
:10408000FDE51F0709F438CFE0F401363DE51307DD
:1040900009F432CF06318CE5180709F06AC5809122
:1040A000FE048A7A91E009F490E09093040369E2B7
:1040B000811165E38CEF92E00E94AC070E94DF154E
:1040C000B8C4C8018D5A9D45039720F715CF80913C
:1040D0009E03806207309CE51907B9F180919E0329
:1040E00080610830ACE51A0780F180919E038064FE
:1040F0002CC00D30BCE51B0709F4C4C090F48091BE
:104100009E038E7F0B30FCE51F07F9F080919E0324
:104110008C600C302CE51207C0F080919E038D7FDF
:1041200014C00F303CE5130709F4BCC008F4AEC05E
:1041300000319CE5190709F4B9C080919E038F7B7B
:104140000131ACE51A0709F0FECE80939E03FBCE49
:104150000F3FBCE51B0709F4B7C0A8F50A3FFCE513
:104160001F0709F47DC0C0F404313CE5130709F4CE
:10417000B9C008F4A5C005319CE5190709F0E3CEE4
:1041800080919E0382FB992790F921E0922790FB72
:1041900082F990FB83F9D9CF0C3FACE51A0709F4FB
:1041A00079C008F461C00D3FECE51E0709F476C044
:1041B00080919F0383600E3FFCE51F0709F0C3CE8B
:1041C00080939F03C0CE01362DE5120709F495C0F8
:1041D00090F401308DE5180709F48DC008F478C01B
:1041E00060E00230ADE51A0709F0ADCE8EE090E058
:1041F0000E948F33A8CE0D3ABDE51B0709F160F48C
:1042000090919E03892F8E7F90FF8160053AFDE596
:104210001F0709F49ACF97CE0E3A2DE5120771F1D8
:104220000F3A3DE5130709F08ECE90919F03892F39
:10423000877F93FF8860C4CF80919E03816085CF84
:1042400080919F038860BCCF80919E0382607DCF68
:1042500080919E03846079CF80919E03886075CFA2
:1042600080919F038160ACCF80919F038260A8CF33
:104270000E941D1780919E03806867CF80919F03E5
:10428000877F9ECF80919E038B7F5FCF80919E031F
:10429000877F5BCF80919F038E7F92CF80919F031A
:1042A0008D7F8ECF80919E038F7E4FCF80919E0316
:1042B0008F7D4BCF0E941D1780919E038F7745CF36
:1042C00080919E03837F41CF80919F038C7F78CF25
:1042D00080919F03982F909591708E7F892B90FBF2
:1042E00081F96ECF0E941D1790919E03892F97FB35
:1042F00087F980582ACF61E079CF90919E03892F6A
:104300008F7E94FF806121CF8091040381110FC0C3
:1043100089E2EEEFF2E024E033E09191891303C0EB
:10432000DF0111971C922E173F07B9F7C7CE85E31F
:10433000F0CF42E550E16DE570E10E94F20779C3EC
:104340004DE550E162E570E1F8CF45E050E160E114
:1043500070E1F3CF4DEC5FE06BED7FE0EECF61E01D
:1043600081E00E941B1065C390912E04892F8E7FDF
:1043700090FF816080932E0480FF05C080EF91E064
:104380000E94430556C38EED91E0FACF0E94331E82
:104390000E94ED1980919F0382FB882780F991E0AC
:1043A00089270E94DD16D70112968C9112970D91E4
:1043B0001C91882309F445C0C8010E94A20ED82E82
:1043C000682FC8010E94D10BB8018D2D0E94940E58
:1043D0000E94FF098C01882EF701D280B580B2942B
:1043E0003FE0B322809155038770C1F0AD2CDD20F2
:1043F000B1F0812F807F803421F080E2800F8830FF
:1044000068F080919F0382FF09C082E00E94C1167C
:10441000809155038770AA24A3948111A12C912E19
:1044200092942FE09222FBE0F91508F46BC0E92D7D
:10443000F0E0ED5CFB4C0C94E23281E0B2CF80E026
:10444000B0CFC8010E949D0BD82EBECF212F2F7058
:10445000C22E107F19F0C29490EFC922DD20B9F06E
:10446000CC2069F080E2800F883010F0811009C004
:104470008091FE04C82AC092FE040E94DF15802F9E
:104480003FC08091FD04C82AC092FD04F6CF802F62
:104490000E942F1ACC20B1F1005E8C2D083010F054
:1044A000811003C00E948C0B02C00E94850B0E94E9
:1044B000DF1528C0312F3F70C32E107F103219F046
:1044C000C29480EFC822882059F081E0881609F450
:1044D00072C0DD2009F47CC0BB2009F472C0CFCFCC
:1044E00020919F0322FD44C0DD20D9F1CC2039F07A
:1044F0008091FE04C82AC092FE040E94DF1580E06D
:104500000E948C1AA92DA850BB0B149710F40E947E
:10451000820DAA20A9F08091550380FD11C0F701FA
:1045200012828595859585950E940C17C7010E947A
:104530009E1E809155038595859585950E94B4169C
:1045400020E0D7014C9111965C91119712966C91D5
:10455000129713967C91139714968C910E94080FD2
:1045600004CC80E00E942F1ACC2061F28C2D9ACFCF
:10457000DD20A1F090915E038C2D892BB11003C03A
:104580000E94251ABFCFA1E0BA12FACF22FFBACFFC
:10459000981709F4B7CF80935E03B4CFB11006C06B
:1045A0000E947F0B8C2D0E941E1AACCFB1E0BB166F
:1045B00009F4A8CFF5CFDD2031F0E5E0EB1508F4E4
:1045C000A1CF8C2DDDCFF4E0FB1508F49BCFEACF13
:1045D000BB2041F329E3821209C03FEF87EE93E04D
:1045E000315080409040E1F700C00000802F0E94D1
:1045F0002F1A88CF812F86958695837061F0813040
:1046000009F080CFC8019370D11002C090E080E023
:104610000E94C60777CFC8019370D11002C090E006
:1046200080E00E94DC076ECF812F837089F5D11066
:1046300069CF402F429546954770440F440F802F15
:104640008F70042E01C0880F0A94EAF7202F207182
:1046500004FF07C02FE030E001C0220F4A95EAF7BF
:104660002095169516951370123069F050F430911C
:104670005F03113029F0822B83230E94181742CF49
:10468000832B822BFACF282B80915F038227F5CFD3
:104690008695DD2011F0812F8170882309F432CFB7
:1046A000402F429546954770440F440F802F8F70DE
:1046B000042E01C0880F0A94EAF7202F207104FF0E
:1046C00007C02FE030E001C0220F4A95EAF720959D
:1046D000169516951370123069F050F430915B0501
:1046E000113029F0822B83230E94A3160BCF832B3A
:1046F000822BFACF282B80915B058227F5CF1F7084
:10470000DD2029F0812F0E940C17802F39CF802FB8
:104710000E941E1A812F0E94B416F4CE802FA2EFA1
:104720008A16B1F1A81570F0B0EF8B16D1F0E1EF59
:104730008E1691F0DD2009F45CC0B110A0CE812F5F
:104740008F712AC0F3EF8F1651F124EF8212F2CF4E
:1047500080919F0382FD2FC0812F8F71DD20D9F2C0
:104760001BC0DD2081F034E03B1508F4CBCE1F7177
:1047700081E090E0012E01C0880F0A94EAF7909141
:104780005B058927B1CF85E08B1508F4BBCEEFCF51
:10479000812F8F71D110BFCF0E940C17B3CE80E054
:1047A000DD2009F4A1CF1F7181E0012E01C0880F27
:1047B0000A94EAF799CFDD2089F01F71812F0E94BA
:1047C0000C1780919F0382FF07C0A8E01A9FC001C9
:1047D0001124836080935503812FDECF81E00E94F6
:1047E000C116B1E0BB1508F08DCE82E00E94C11663
:1047F00089CEBB2059F0893309F0F8CEEFEFF7EE00
:1048000023E0E150F0402040E1F7EECE812F8F71A0
:1048100082CF0031BFE51B0709F40DCB0131EFE575
:104820001E0709F412CB023BADE51A0709F40FCBC2
:10483000033BBDE51B0709F410CB013BEDE51E076B
:1048400031F4882321F08FE791E00E94B71BC80163
:1048500097558F3F910511F008F010CB5801BB24FC
:104860002EE0029FF0011124CF018E5B9E4F6C0160
:10487000D70112968C91E95BFE4F908180FB90F9F5
:104880009083882309F4F2CA0E94A0079093AD0395
:104890008093AC03F60182818F5F82838091FD0457
:1048A0009091FE04892B838380915E03848306802C
:1048B000F781E02D309731F0D6011C966D917C91F7
:1048C000C60109958EE08A9DF0018B9DF00D1124A3
:1048D000EE5BFE4F858181FFC6CA90E080E0909339
:1048E000FF04809300058091FC04882309F45ECBCB
:1048F000C090FE04D0905E030E94A00788579C4E93
:104900009093AF038093AE03F7018281882309F46B
:104910004DCB8D2D8C298D7909F046CB0115F5E510
:104920001F0708F020CB011523E5120708F0CDCAB8
:10493000011530E5130708F0C3CA011580E4180714
:1049400008F055CB063E110509F4BFCAC80155CB86
:104950000031FFE51F0709F474CA01312FE5120782
:1049600009F061CF82E06ECA21E012966C91129735
:1049700013967C91139714968C910E94080F8C01CA
:10498000F70182818823E1F08091FF049091000576
:104990000097B1F08017910799F0BEE08B9FC0019E
:1049A0001124FC01E95BFE4F2081246020838E5B93
:1049B0009E4FFC01118300830E946B161092FD0430
:1049C000D70112968C91882319F2980122513F4504
:1049D0002031310508F01DCF8FEF93E00E94713335
:1049E000811127C0025157EFC52E52E0D52E01117B
:1049F000C0C91C821B82BB24B3944AE0A42E86014A
:104A00000F5F1F4FC6010E94713389831A8288236A
:104A100081F09FEF980F933008F0BAC98A83B9826A
:104A2000F2E0CF0ED11CC8010E9471338B8381113B
:104A3000B0C980915503877009F497C9F701828145
:104A4000882309F492C980919F0382FF8EC982E076
:104A50000E94C1168AC90631FCE51F0709F454CC2F
:104A60008091FE048272093C2CE5120709F472CC95
:104A700008F051C0053C9CE5190709F466CCA0F587
:104A8000033CBCE51B0709F454CC08F059CC023CAC
:104A9000FCE51F0709F087CC80915205982F937091
:104AA00021E092278C7F892B809352051092600120
:104AB00080912F04816080932F0480912E0480FFC9
:104AC000B8CF1F929F9385E791E09F938F9387EADA
:104AD00091E09F938F930E94DC050F900F900F90B1
:104AE0000F900F900F90A5CF49EE5FE067EF7FE04A
:104AF000073C2CE5120709F420CC40E150E165E0C9
:104B000070E1083C3CE5130708F417CC47EF5FE081
:104B100069EE7FE012CC0D3C9CE5190709F41FCC2F
:104B2000B8F44FE75FE06BE87FE00B3CBCE51B07A8
:104B300009F403CC4BED5FE06DEC7FE00C3CECE561
:104B40001E0708F4FACB4BE85FE06FE77FE0F5CB98
:104B5000063DFCE51F0740F461E082E00F3C2CE5D8
:104B6000120708F4FECB65CF0D35100709F461CFAD
:104B70001ACC0A358DE5180709F45FCCD8F401305A
:104B8000ACE51A0709F4F0CB0E3DBCE51B0709F4B0
:104B9000FDCB01151C4509F006CC0E941D179FEFA7
:104BA000A4E3BCE09150A040B040E1F700C0000099
:104BB0000E94140D0C35FDE51F0709F4EBCB08F43A
:104BC0003ECC073A1D4509F4E3CBEDCB1F93CF93C1
:104BD000DF9380912203807F09F049C080911F03F9
:104BE000882309F444C080915403D0912303609139
:104BF0001D0370911E03A0912003B0912103C62FC5
:104C0000C72316E0D81799F190E0109711F0CF3F25
:104C100019F401968770F6CF189F9001199F300DF7
:104C20001124F901EC5DFC4F41814713F2CF408123
:104C30004613EFCF42814111ECCF438154814A1B8F
:104C40005B0B483C510528F7809122038F708061EF
:104C500080932203F901E75DFC4F80818F708061B2
:104C600080838DE193E00E949E1E0E94930BDF9152
:104C7000CF911F910895A1E1B0E0E1E4F6E20C9438
:104C80007D328C0185E0F801DE011D9601900D92C8
:104C90008A95E1F7D801DC901196CC901197129685
:104CA000EC90129713968D909C9020E040911D03FC
:104CB00050911E0360911F03709120038091210386
:104CC0000E94080FAC018DE1A82E83E0B82E609100
:104CD0002003709121036115710509F44CC1909175
:104CE0001D0320911E03892F82238F3F09F443C1A6
:104CF000F0901F03F401E61BF70BFF2009F4F9C045
:104D000080912203382F307FE83CF10508F0BDC0C8
:104D1000D80111964C911197311178C0FE2C421395
:104D200015C02C91291312C0E11010C08F70806142
:104D300080932203C5010E949E1E80912203F801E8
:104D400085838F2D6196ECE00C9499328114910447
:104D500029F08D2D8C218F3F09F028C180E0F82F9C
:104D6000F170BF2E80FF3DC080915403209123033A
:104D700036E0821316C0DD86CE868D859E850E9424
:104D8000D10E292F22952F702230F8F0243020F5F3
:104D90009F70F9F0D80115969C91907FD1F4B12CB9
:104DA0001EC090E0389FF001399FF00D1124EC5D9A
:104DB000FC4F4181C41206C04081D41203C042811D
:104DC000E4120FC001968770D4CF9F7011F0882332
:104DD00031F3805E883018F3C8010E949E1EFB2CC0
:104DE000B0CFEE2009F4ADCF809122038160809393
:104DF00022038DE193E00E949E1E86E0EDE1F3E048
:104E0000DF011D928A95E9F7F12C9BCF421313C065
:104E1000F801208129130FC0E1100DC08583C8015E
:104E20000E949E1E86E0F801ADE1B3E001900D9274
:104E30008A95E1F786CFC8010E94DE0E882309F12A
:104E4000EE20F9F080912203803270F020911D0352
:104E500030911E0338872F8319869B868A868C871C
:104E6000CE0107960E949E1E86E0F801ADE1B3E0F8
:104E700001900D928A95E1F70E94E625FF24F394B4
:104E800060CFC8010E949E1EF9CF311107C08DE18D
:104E900093E00E949E1E86E0D501B3CFF8013181D8
:104EA00032130FC0208129130CC0E1100AC0858382
:104EB000C8010E949E1E86E0D5011D928A95E9F7E1
:104EC00040CFC8010E94DE0E8823D9F2EE20C9F23D
:104ED00080912203803240F220911D0330911E0305
:104EE0003A8329831B829D828C828E83CE01019618
:104EF000B9CFE83CF105C8F5FE2CEE2011F2F8011F
:104F00008181821324C08081891321C04C32F1E455
:104F10005F0709F487CF4A32524609F483CF909154
:104F2000220390FD7FCF907F09F47CCF80912203F4
:104F3000D80115968C931597903F09F470CF982F50
:104F4000907F905F8F70892B15968C9368CFC801E6
:104F50000E94DE0E811188CF8091220381608093B0
:104F60002203C8010E949E1EECCE86E0F50111923C
:104F70008A95E9F7E6CEEE2009F483CFC8010E94B6
:104F8000DE0EF82E882309F47CCF86E0F801ADE12F
:104F9000B3E001900D928A95E1F780911D03909105
:104FA0001E030E94D10E0E94E625CBCE81E08E2505
:104FB000D6CEA7E1B0E0EFEDF7E20C9486324B8B52
:104FC0005C8B6D8B7E8B8F8B61111092FD041A8A26
:104FD000198A85E0FE017396DE011D9601900D92FF
:104FE0008A95E1F786E0FE013D96DE011796019075
:104FF0000D928A95E1F7CE0107960E943B26882301
:1050000059F016E08091540390912303891343C013
:105010006796E3E00C94A23286E0FE013796DE014B
:10502000119601900D928A95E1F78A859B85892BCF
:1050300041F38F81988589238F3F19F320912303B2
:1050400030E0C901019687709927409154034817B1
:10505000190671F40E941D17109223031092540335
:1050600086E0EDE1F3E0DF011D928A95E9F7C9CF13
:1050700096E0929FD001939FB00D1124AC5DBC4F80
:10508000FE01319601900D929A95E1F780932303EA
:105090000E94930BB6CF819FC00111248C5D9C4F61
:1050A0000E943B26882309F4B3CF8091540390E0FB
:1050B00001968770992780935403A4CF1F920F9273
:1050C0000FB60F9211242F933F934F935F936F93DB
:1050D0007F938F939F93AF93BF93CF93DF93EF9380
:1050E000FF93D091E900DF708091EC00C82FC17070
:1050F00080FDC0E81092E9008091F000877F8093E6
:10510000F00078940E9429171092E9008091F00035
:1051100088608093F000CD2BCF70C093E900FF91A1
:10512000EF91DF91CF91BF91AF919F918F917F913F
:105130006F915F914F913F912F910F900FBE0F9004
:105140001F9018951F920F920FB60F9211242F9354
:105150003F934F935F936F937F938F939F93AF93FF
:10516000BF93EF93FF938091E10082FF15C0809180
:10517000E20082FF11C08091E1008B7F8093E1000B
:10518000209111052F5F822F62E30E94AE32992396
:1051900009F4C0C0209311058091DA0080FF28C077
:1051A0008091D80080FF24C08091DA008E7F8093A8
:1051B000DA008091D90080FFE3C080E189BD82E1FF
:1051C00089BD09B400FEFDCF81E080931F0586E311
:1051D00099E00E94430580911205811109C00E9447
:1051E000FC050E94C7068091E20084608093E20083
:1051F0008091E10080FF1BC08091E20080FF17C01A
:105200008091E2008E7F8093E2008091E2008061D5
:105210008093E2008091D80080628093D80019BC0E
:1052200085E080931F058EE399E00E9443058091FD
:10523000E10084FF2FC08091E20084FF2BC080E159
:1052400089BD82E189BD89B5982F917080FFFBCF20
:105250008091D8008F7D8093D8008091E1008F7E6F
:105260008093E1008091E2008F7E8093E200809144
:10527000E20081608093E20080912005882309F498
:1052800089C084E080931F0582E499E00E94430571
:1052900080911F058091E10083FF2BC08091E20087
:1052A00083FF27C08091E100877F8093E10082E047
:1052B00080931F05109220058091E1008E7F8093DE
:1052C000E1008091E2008E7F8093E2008091E20015
:1052D00080618093E20042E060E080E00E949506F9
:1052E0008091F00088608093F00086E499E00E944D
:1052F0004305FF91EF91BF91AF919F918F917F9166
:105300006F915F914F913F912F910F900FBE0F9032
:105310001F9018951092110580911005882309F4AB
:105320003BCF80911F058430C1F49091E9009F70BC
:105330002091EC00822F817020FD80E8892B95E080
:105340009093E9009091EB0090FF04C09091EE00E3
:1053500097FD08C08F708093E900109210051CCF54
:105360001092F1009091E80095FDFACF9091E8003D
:1053700090FFF0CF9091E8009E779093E800EACFFD
:1053800019BC10921F058AE399E00E944305109210
:1053900012052ECF8091E30087FD93E090931F05C7
:1053A00073CF78941F921FB61F9211248F939F93EF
:1053B000AF93BF938091080590910905A0910A05CC
:1053C000B0910B050196A11DB11D80930805909326
:1053D0000905A0930A05B0930B05BF91AF919F916A
:1053E0008F911F901FBE1F9018951F921FB61F927E
:1053F00011248F939F93AF93BF93809107058111E1
:1054000013C08091080590910905A0910A05B091FB
:105410000B054196A11DB11D8093080590930905C8
:10542000A0930A05B0930B05BF91AF919F918F9107
:105430001F901FBE1F901895CDB7DEB7E6970FB629
:10544000F894DEBF0FBECDBF85B7806885BF85B736
:10545000806885BF84B7877F84BF0FB6F894A8950E
:1054600080916000886180936000109260000FBEA0
:1054700080E890E00FB6F89480936100909361000B
:105480000FBE81E59CE09093FB028093FA020E949C
:10549000FC050E94C7068091E20084608093E200D0
:1054A000789480911F058823A1F01091E9001F7066
:1054B0009091EC00892F817090FD80E8182B10925C
:1054C000E9008091E80083FD0E9429171F70109366
:1054D000E90082E084BD93E095BD9AEF97BD80938B
:1054E0006E0010928E0310928F0310929003109210
:1054F00091030E942B0F811102C00E94550E5598F6
:105500005D988FE891E00197F1F700C000000E94DC
:10551000EC08809335010E945F0D81110E941531C6
:105520008091350181112CC085E0E8E6F1E0DE01D3
:10553000919601900D928A95E1F789A180933001AF
:105540008AA1809331018BA1809332018CA1809339
:1055500033018DA18093340186E0EDE6F1E0DE01B8
:10556000119601900D928A95E1F7FE013196AAE21B
:10557000B1E0CE01079621912D93E817F907D9F7ED
:105580008091350195E0811190E090939D0385E035
:10559000891B80939C0300E311E0D8018D918D015C
:1055A0008F3F11F00E94A509B1E005331B07A9F751
:1055B0000AE211E0F80181918F018F3F11F00E9402
:1055C000A509F1E000331F07A9F78AE0E1EBF3E05A
:1055D000DF01282F1D922A95E9F7E2E9F3E0DF01C8
:1055E0001D928A95E9F70E94271E811102C00E9430
:1055F000331E82E090E00E94713380932E040E945B
:10560000440F90939F0380939E030E943B14EFE30B
:10561000FCE93197F1F700C000000E943B14809133
:10562000B10380FF08C06FEF7FEF90E080E00E9441
:10563000AD330E94140D83E090E00E9471330E940C
:105640001817109229058FEF9FEF909343058093D1
:1056500042059093450580934405909347058093B8
:105660004605909349058093480590934B05809398
:105670004A0590934D0580934C0590934F05809378
:105680004E0590935105809350051092FC03909322
:105690001604809315049093180480931704909334
:1056A0001A048093190490931C0480931B04909314
:1056B0001E0480931D049093200480931F049093F4
:1056C00022048093210490932404809323040E9455
:1056D000271E811110C080912E0480FF08C080ED2C
:1056E00093E09F938F930E94DC050F900F900E9490
:1056F000331E0E94691046E050E06CE170E082E5E4
:1057000095E00E94613310922F04809152058C7FA6
:1057100071F480912E0480FF08C08BE793E09F9383
:105720008F930E94DC050F900F900E94691080916A
:105730002E0480FF89C081E693E09F938F930E949F
:10574000DC0580912E040F900F9080FF7DC080912A
:10575000520583701F928F9382E493E09F938F93FF
:105760000E94DC0580912E040F900F900F900F90F7
:1057700080FF6AC080915205869586951F928F930F
:1057800085E293E09F938F930E94DC0580912E0425
:105790000F900F900F900F9080FF56C0809153058F
:1057A0001F928F9387E093E09F938F930E94DC0575
:1057B00080912E040F900F900F900F9080FF44C0A7
:1057C000809154051F928F9389EE92E09F938F935F
:1057D0000E94DC0580912E040F900F900F900F9087
:1057E00080FF32C0809155051F928F938BEC92E021
:1057F0009F938F930E94DC0580912E040F900F9051
:105800000F900F9080FF20C0809156051F928F93BC
:105810008DEA92E09F938F930E94DC0580912E0485
:105820000F900F900F900F9080FF0EC08091570542
:105830001F928F938FE892E09F938F930E94DC05D5
:105840000F900F900F900F900E945F0D811102C07A
:105850000E94183186E391E090930405809303053C
:1058600081EB93E0FAE0F80FFEAB80911F058530E5
:10587000A9F482E094E00E94430520E4F22EEE2495
:10588000E39400E112E180911F05853009F4A8C07E
:105890000E941D170E94820D10922D040E943B143D
:1058A00042EA53E05CA74BA781EB93E09EA78DA74C
:1058B0002CEA33E0DC01FA0191918D912E173F071C
:1058C00009F4D3C09817C1F380912E0481FD78C1EB
:1058D0000E945F0D782EA1EBB3E0B8ABAFA7F12C1F
:1058E000312C212CAFA5B8A9BD90B8ABAFA7EBA5C3
:1058F000FCA58191FCA7EBA78B1509F401C28B25B0
:1059000089AB6101E12CAA24A39489A98A2109F415
:10591000EBC14A2C4B20772099F0EEA2FFA281E048
:10592000411001C080E088A70E94A0078160782F05
:105930009AA789A74EA15FA168A58AA50E94D92729
:10594000442039F0F601EE50FE4F80818F3F09F080
:105950006DC1512C052D10E08091FC03800F912F1B
:10596000911D09976CF1F8E08F2E912C801A910A05
:10597000B80163507C4FA4018DEF93E00E9458332F
:10598000B8016B5F7B4FA40185E094E00E9458331F
:10599000A401440F551FB801660F771F6B5E7B4F44
:1059A00085E194E00E945833B801635F7B4FA40106
:1059B0008DE094E00E94583388E085198093FC03C1
:1059C0008091FC0390E0A62DB0E09D01220F331FD3
:1059D000225D3D4FAA0FBB1FBD01615D7D4F3EC1E2
:1059E00080911F05843009F430C00E949513809186
:1059F0002D04811105C00E94D41080E00E94F80798
:105A0000E0922D041092070528E130E00FB6F894DB
:105A1000A895209360000FBEF092600083B7817F4D
:105A2000846083BF83B7816083BF7894889583B790
:105A30008E7F83BF0FB6F894A8958091600088612F
:105A400080936000109260000FBE80911E05882335
:105A500009F419CF0E943B14E1EBF3E0819181112D
:105A60006DC33EA93E13FACF0ECF98132DCF0E94DF
:105A7000A0078C018091A0039091A103081719073A
:105A8000A1F08FEF89A38AA31BA20E94A0078160C7
:105A9000782F9DA38CA349A15AA16BA18DA10E942F
:105AA000D9271093A1030093A0030E945F0D8823C0
:105AB00079F10091FF041091000501151105B9F06D
:105AC0008091AC039091AD030E948507893C9105BC
:105AD00070F0AEE00A9FC0011124FC01E95BFE4FAB
