:100000000C9439050C9404320C9471050C94710510
:100010000C9471050C9471050C9471050C94710588
:100020000C9471050C9471050C946F290C942B2978
:100030000C94C22A0C9471050C9471050C947105F2
:100040000C9471050C9471050C9471050C94710558
:100050000C9471050C949E2A0C9471050C947105F6
:100060000C9471050C9471050C9471050C94710538
:100070000C9471050C9471050C9471050C94710528
:100080000C9471050C9471050C9471050C94710518
:100090000C9471050C9471050C9471050C94710508
:1000A0000C9471050C9471050C9471050631FF09CF
:1000B00074A1010975150026FF00952075088102BD
:1000C0000976150026FF00952075089102C00501EC
:1000D0000980A101850319012AB700150126B7007F
:1000E000950175108100C0050C0901A10185041955
:1000F000012AA002150126A002950175108100C0F9
:100100000660FF0961A1010962150026FF00952024
:10011000750881020963150026FF00952075089176
:1001200002C005010906A101050719E029E715002C
:100130002501950875018102950175088101050762
:10014000190029FF150026FF009506750881000596
:10015000081901290595057501910295017503910D
:1001600001C0010143010432337C010111007075AB
:10017000626C69632073746174696320766F69646B
:10018000206D61696E28537472696E675B5D2061D2
:1001900072677329207B7D010150010128004043D3
:1001A0006F6D706F7361626C65010128006D6F6423
:1001B0006966696572203D204D6F64696669657284
:1001C000006D6F6469666965723A204D6F64696697
:1001D000696572203D204D6F646966696572004DE6
:1001E0004548280048595052280054657374696E78
:1001F0006720312C20322C20332E2E2E202020540C
:10020000657374696E6720312C20322C20332E2EBA
:100210002E0044454255473A2064697361626C651B
:10022000642E0A0044454255473A20656E61626C6F
:1002300065642E0A004F6E6573686F743A206163BF
:10024000746976653A2025640A000A002530325820
:1002500020006B6579626F6172645F7265706F72A6
:10026000743A200054617267657420636F6E6E6526
:10027000637465640D0A0054617267657420646973
:1002800073636F6E6E65637465642C207468726F3F
:1002900074746C696E6720636F6E6E656374696FEA
:1002A0006E20617474656D7074730D0A0046616927
:1002B0006C656420746F20657865637574652025AE
:1002C000730A007267625F6D61747269785F636F51
:1002D0006E6669672E666C616773203D2025640A2F
:1002E000007267625F6D61747269785F636F6E66DA
:1002F00069672E7370656564203D2025640A00726D
:1003000067625F6D61747269785F636F6E6669675B
:100310002E6873762E76203D2025640A007267626F
:100320005F6D61747269785F636F6E6669672E686E
:1003300073762E73203D2025640A007267625F6D1C
:1003400061747269785F636F6E6669672E68737631
:100350002E68203D2025640A007267625F6D61741B
:100360007269785F636F6E6669672E6D6F64652072
:100370003D2025640A007267625F6D61747269785E
:100380005F636F6E6669672E656E61626C65203DA6
:100390002025640A007267625F6D61747269785F1C
:1003A000636F6E66696720454550524F4D0A007273
:1003B00067625F6D61747269785F696E69745F64AA
:1003C000726976657273207267625F6D61747269BB
:1003D000785F636F6E6669672E6D6F6465203D2080
:1003E000302E2057726974652064656661756C747F
:1003F0002076616C75657320746F20454550524FAF
:100400004D2E0A007267625F6D61747269785F6970
:100410006E69745F64726976657273206565636F77
:100420006E666967206973206E6F7420656E616205
:100430006C65642E0A005B735D000A00253038622B
:10044000003A200025303258000A722F63203031E4
:100450003233343536370A000A0025303258006C02
:1004600065645F7461736B3A200000010101010152
:10047000010101010202020202020202020303035D
:10048000030303030304040404040404050505052D
:1004900005060606060607070707070808080809ED
:1004A0000909090A0A0A0B0B0B0C0C0C0D0D0D0E99
:1004B0000E0E0F0F0F10101111111212131314142E
:1004C000151516161717181819191A1A1B1B1C1DA3
:1004D0001D1E1E1F202021222223242425262627FC
:1004E0002829292A2B2C2D2D2E2F3031323233342E
:1004F00035363738393A3B3C3D3E3F404142434434
:1005000045464748494A4C4D4E4F50515354555615
:1005100058595A5B5D5E5F616264656668696B6CC1
:100520006D6F7072737577787A7B7D7E808283853C
:1005300087888A8C8E8F91939596989A9C9EA0A27C
:10054000A3A5A7A9ABADAFB1B3B5B7BABCBEC0C286
:10055000C4C6C9CBCDCFD1D4D6D8DBDDDFE2E4E74A
:10056000E9EBEEF0F3F5F8FAFDFF6565636F6E6693
:1005700069675F7570646174655F7267625F6D6102
:10058000747269785F64656661756C740A0072677D
:1005900062206D617472697820746F67676C652082
:1005A0005B25735D3A207267625F6D617472697872
:1005B0005F636F6E6669672E656E61626C65203D74
:1005C0002025750A00726762206D61747269782057
:1005D0006D6F6465205B25735D3A2025750A007296
:1005E0006762206D61747269782073657420687326
:1005F00076205B25735D3A2025752C25752C257595
:100600000A00726762206D61747269782073657484
:10061000207370656564205B25735D3A2025750A3B
:1006200000000000000000000000000000000000CA
:1006300000000000000000000000000000000000BA
:1006400000000000007E0F00D4FFFFFFC700000085
:100650007800000000000000002A2B2800000000A5
:100660000000000000000000000000002900000061
:10067000002C1E3420212224342627252E362D3707
:1006800038271E1F202122232425263333362E37D8
:10069000381F0405060708090A0B0C0D0E0F101170
:1006A00012131415161718191A1B1C1D2F3130237D
:1006B0002D350405060708090A0B0C0D0E0F101145
:1006C00012131415161718191A1B1C1D2F3130354B
:1006D0004C29001E001F002000210022002E0014C3
:1006E000001A000900130005002D00040015001673
:1006F0000017000A002F001D001B0006000700194C
:100700000000000000E200E0002A224C41005727D0
:10071000002600250024002300350033001C0018AB
:10072000000F000D00340012000C00080011001032
:100730000030003800370036000B000E00000000CB
:1007400000015702572C412B3245003A003B003C38
:10075000003D003E002E0246004B0052004900289A
:10076000002D022602500051004F0027022F021ECA
:10077000024E004A004D002402000000000100016A
:100780000001002A00010043004200410040003FF8
:100790000044002E002600250024003100340233DE
:1007A0000223002200210025023002380020001F11
:1007B000001E00310200000000270001002C000193
:1007C0000045023A023B023C023D023E02237822EF
:1007D00078BC00A900BB00217824782778AD00AA56
:1007E00000AE002978007C2878AC00A800AB002A75
:1007F0007800000000010001000100010001004339
:10080000024202410240023F0200774D7E497E488B
:100810007E477E4A7E01774E7E467E457E447E4BF5
:100820007E407E4F7E437E427E417E4C7E000000B5
:10083000006152010020780100290F1E0F1F0F20B8
:100840000F210F220F2E0F140F1A0F090F130F0570
:100850000F2D0F040F150F160F170F0A0F2F0F1D57
:100860000F1B0F060F070F190F00000000010001FA
:1008700000010001000100270F260F250F240F2380
:100880000F350F330F1C0F180F0F0F0D0F340F12F2
:100890000F0C0F080F280F100F300F380F370F36BF
:1008A0000F0B0F0E0F00000000625201002C4101DF
:1008B0000029001E001F002000210022002B001430
:1008C000001A00080015001700E0000400160007D9
:1008D0000009000A00E1001D001B000600190005C8
:1008E00000000000000100010001004A0001002793
:1008F0000026002500240023004C00130012000CE9
:100900000018001C00340033000F000E000D000B17
:1009100000E500380037003600100011000000002C
:1009200000015701002C414D0029001E001F00202E
:1009300000210022002B0014001A000800150017E7
:1009400000E00004001600070009000A00E1001D95
:10095000001B000600190005000000000001000156
:100960000001004A00010027002600250024002382
:10097000004C00130012000C0018001C003400335F
:10098000000F000E000D000B00E5003800370036A8
:10099000001000110000000000015701002C414D23
:1009A000005B435D005B445D005B535D005B575D36
:1009B000005B525D0009027B00040100A0FA0904FB
:1009C0000000010301010009211101000122400082
:1009D000070581030800010904010002030000006B
:1009E00009211101000122220007058203200001D4
:1009F00007050303200001090402000103000000B1
:100A000009211101000122320007058403200001A1
:100A10000904030002030000000921110100012262
:100A200022000705850320000107050503200001BA
:100A3000120100020000000810CB567200070102EC
:100A400000011A035600690072006900730020005B
:100A50005200650076002E002000370000000E03D3
:100A60004B0065006500620069006F000000040330
:100A7000090411241FBECFEFDAE0DEBFCDBF04B6FC
:100A800003FE18C08091710590917205A0917305C5
:100A9000B09174058730904BA740B04B59F4109239
:100AA0007105109272051092730510927405E0E0C2
:100AB000F8E3099525E0A4E0B3E001C01D92A13759
:100AC000B207E1F713E0A0E0B1E0ECE9FAE602C01A
:100AD00005900D92A430B107D9F70E94E92A0C9431
:100AE000BF340C940000FF93EF93E0910403F09166
:100AF0000503309709F00995EF91FF910895FC01E6
:100B00008591803011F0EFDFFBCF0895FF27E0E201
:100B100030E247FF0CC0419597FF09C0EDE26095B8
:100B2000709580959095611D711D811D911D27FF08
:100B300002C0219530E350E2AA27660F771F881F75
:100B4000991FAA1FA41710F0A41B63955A95A9F723
:100B5000AA3008F0A95FA05DAF93F3956115710508
:100B60008105910541F7ED3211F4EF93F395F217FA
:100B700018F43F93F395FBCF8F91B5DFFA95E1F72A
:100B80000895E991F9918591803021F0853219F02D
:100B9000AADFF9CF089520E0E89455915532C1F3CA
:100BA000503311F4689455915A3348F4505390F3EC
:100BB000220F022E220F220F200D250FF4CF0EF44C
:100BC000219589919991533619F3533729F153356A
:100BD00059F1BC0188279927E8945C3621F4899162
:100BE000999168945591543639F446EF7EF077FF29
:100BF0000DC08FEF9FEF0AC055374AE039F05835E6
:100C000040E121F0523642E009F00895FF93EF935E
:100C10007DDFEF91FF91B7CFFF93EF93FC018191BF
:100C20008030B9F360DFFBCFFF93EF9368DFF1CF44
:100C3000DF93CF93CDB7DEB72596A3DFCF91DF91BA
:100C40000895811527E5920739F048F083309745DC
:100C500030F48CE291E0089587EA91E008958BE703
:100C600090E00895482F20913F059091060557E0A8
:100C7000291302C080E0089530E0529FF001539F95
:100C8000F00D1124E95FFA4F8181681306C080815D
:100C9000481303C085818111EECF2F5F3F4F27702E
:100CA000E7CFFC01AC014B5F5F4F8FEF91E32191E8
:100CB000822728E030E087FF09C0880F892721506C
:100CC0003109C9F7E417F50791F70895880FF7CFB1
:100CD000E8EDF0E080818E7F80831092E200109238
:100CE000DA001092E100A0EEB0E08C9181608C936C
:100CF00080818F77808319BCA7EDB0E08C918E7FC7
:100D00008C9380818F7E80831092EF0408952091D0
:100D1000E4003091E50095E6A9012091EC00822FD6
:100D2000817020FF06C08091E80080FF06C080E04F
:100D300008952091E80022FD1AC08091FC048823C8
:100D400089F0853089F08091EB0085FD0FC02091FE
:100D5000E4003091E50042175307F9F29150E1F6B3
:100D600084E0089582E0089583E0089581E0089585
:100D70008091FE0487FF13C08091E80082FF06C0C7
:100D80008091E8008B778093E80004C08091FC0498
:100D90008111F2CF08958091FC048823D9F38091CA
:100DA000E80080FFF8CF8091E8008E77ECCF982F95
:100DB0009093E900242F762F50E0891731F070913D
:100DC000EC002091ED005091F00021FD07C09F5FE5
:100DD000973071F78093E90081E008953091EB003E
:100DE0003E7F3093EB003091ED003D7F3093ED007E
:100DF0003091EB0031603093EB007093EC00209366
:100E0000ED005093F0002091EE0027FDE0CF80E050
:100E10000895B0E0A0E0EFE0F7E00C942A33C8EDCD
:100E2000D0E088818F7E8883E7EDF0E0808181606B
:100E3000808384E082BF81E08093EF0488818E7F8D
:100E4000888302EE10E0F80110821092DA0081EE41
:100E5000C82ED12CF601108288818F7788838881F3
:100E60008068888388818F7D888319BC1092FC04F8
:100E70001092FD041092FB041092FA0490EEE92EF9
:100E8000F12CF70180818B7F80838881816088834A
:100E900042E060E080E00E94D706F60180818E7F0C
:100EA0008083F80180818160808380818860808375
:100EB000F70180818E7F8083888180618883CDB7B0
:100EC000DEB7E8E00C944633FC0180910405909174
:100ED000050586179707A0F06115710529F4909113
:100EE000E8009E779093E80090E06115710551F459
:100EF000911108C08091E80082FF34C080E008951D
:100F0000BC01F2CF8091FC048823C1F18530C1F18E
:100F10008091E80083FD30C08091E80082FDEACF37
:100F20008091E80080FFE1CF8091F3002091F200F2
:100F3000382F6115710519F02830310558F091E00E
:100F40002830310509F090E02091E8002E772093B9
:100F5000E800CBCF81918093F100615071092F5F40
:100F60003F4FE7CF8091FC04882341F0853041F06A
:100F70008091E80083FFBECF81E0089582E008956C
:100F800083E0089508958091F10408959C014FB77E
:100F9000F8948091E8049091E904A091EA04B0915A
:100FA000EB044FBF821B930B08952FB7F894609109
:100FB000E8047091E9048091EA049091EB042FBF5A
:100FC00008952FB7F8948091E8049091E904A091D6
:100FD000EA04B091EB042FBF08959C01FC01329606
:100FE0009FEF80E04191461751F09F3F19F4411166
:100FF00001C0982F8F5F8630A9F79F3F09F40895AD
:10100000290F311D97FD3A95F90162830895A3E0F8
:10101000B0E0EDE0F8E00C9430332091E50430913D
:10102000E60428173907A1F09093E6048093E504BD
:10103000E091E304F091E404309751F024E0298337
:101040009B838A830680F781E02DCE010196099566
:101050002396E2E00C944C33A3E0B0E0E2E3F8E046
:101060000C9430332091E1043091E20428173907C1
:10107000A1F09093E2048093E104E091E304F09105
:10108000E404309751F023E029839B838A83068010
:10109000F781E02DCE01019609952396E2E00C94AC
:1010A0004C33FA01811101C0FB0109950895809329
:1010B0006501809169058370809364010E943E0EF2
:1010C00083E080936601089522E8241B08F420E061
:1010D000620F08954095282F429F412D1124842F9F
:1010E00008950E9450090895FF920F931F93CF9384
:1010F000DF93182F062FF42ED0E0C0E02F2D402FC5
:10110000612FCE010E9471082196C434D105B1F738
:10111000CDB7DEB7E5E00C944933E42FF0E0EE0FF5
:10112000FF1FE85CFD4F408134EE439F412D1124A9
:10113000E82FF0E050E0445E5F4FDA01A21BB109F6
:101140009D01B7FF03C031952195310993E0220F2E
:10115000331F9A95E1F7AF01421B530B9A0157FDDC
:1011600020E0582F259F212D1124822F0895AF9222
:10117000BF92CF92DF92FF920F931F93CF93DF9393
:10118000362F472FE82FF0E0E659FB4F71110FC0C3
:10119000E4918E2F2E2F6E2F722FDF91CF911F9102
:1011A0000F91FF90DF90CF90BF90AF900895C72F21
:1011B000D0E02491F22E022F10E056E0659FC0018E
:1011C0001124EFEFF0E0BF010E946333832F90E022
:1011D000880F991F35E5369FD001379FB00D112438
:1011E0008A1B9B0B982F990F980F6F01CC1ADD0A61
:1011F000C09ED001C19EB00DD09EB00D11248B2F8A
:10120000499FA0011124452F55276F01C41AD50A03
:10121000C09EA001C19E500DD09E500D11245F01B3
:10122000A91AB108AC9E6001AD9ED00CBC9ED00C3A
:101230001124CD2CDD24EC19FD09E09FE001E19F94
:10124000D00DF09FD00D1124ED2F62307105A1F06B
:1012500050F46115710509F49ECF6130710581F07C
:10126000EB2F852F98CF6430710569F080F06630E0
:10127000710509F490CFF4CFE22F2B2F8D2F8BCF58
:10128000E22F252F88CFEB2F822F2D2F84CF2B2FCE
:101290008F2DE52F80CF89B185FB882780F90895B0
:1012A000FF920F931F93CF93DF93EC01F62E042F41
:1012B000122F0E944B0981110FC0C232D1057CF060
:1012C000A297FE01EE0FFF1FEC0FFD1FE55FFB4F26
:1012D000F1820083128303C0C232D10594F3CDB7EB
:1012E000DEB7E5E00C944933CF93C82F0E944B0939
:1012F000882329F081E0C23228F080E003C081E039
:10130000C434D8F7CF910895B0E0A0E0EAE8F9E05E
:101310000C9428337C01C09168018EE0C89FC02DD9
:1013200011241EE01C0F153408F014E40E944B0930
:10133000882319F0133208F012E20E944B09811140
:1013400003C0C23208F4C2E220916D0531E0230FE0
:1013500008F42FEF30E050E040E06FEF7FEF80E0E7
:1013600090E00E945C346901D0E001E0B12CA12C36
:101370002C2FC11740F0812F0E947409CDB7DEB722
:10138000EAE00C944433FE01E054FD4F80819091DB
:101390006901892329F1809140058150082E000CB4
:1013A000990B87FF1FC0B60130916D05300F08F40F
:1013B0003FEFA501639F412D739F400D511D1124E7
:1013C00060916A0570916B0580916C05F701099534
:1013D0000E94B708462F282F672FCE010E94710860
:1013E0002196C6CFFC01E05CFA4F318932130AC066
:1013F000FC01EE0FFF1FE05CFA4F618D728D6C15E2
:101400007D0590F20197CDCFF894E82FE295EF702B
:10141000F0E031A1282F2F7081E090E001C0880F0B
:101420002A95EAF7982F9095932391A392A1892B5F
:1014300082A37894089590917D0392FF06C0282F8F
:1014400028712830F9F4877F846093FF06C0282F25
:1014500028712831F1F4877E846120917E0320FF7A
:1014600006C0382F38713830D9F4877F816021FF6A
:1014700006C0282F28712831D1F4877E816194FD20
:10148000877E0895282F24712430F9F68B7F886099
:10149000DCCF282F2471243101F78B7E8861DDCFCA
:1014A000382F3171313019F78E7F8860E0CF282FC7
:1014B0002171213121F78E7E8861E1CF823891053B
:1014C000B9F1B0F48133910509F47DC048F4893253
:1014D000910509F46DC08A32910509F47BC0089525
:1014E0008533910509F45FC08933910509F10895A9
:1014F000833E9105D9F138F4803E910529F1823E71
:10150000910579F10895863E9105D9F1873E9105BF
:1015100009F43EC0843E910541F520917E0321FFF0
:1015200024C080917D0384FD19C087EE90E008956A
:1015300020917D03237009F05AC020917E0323FF80
:1015400014C089E290E0089520917D0320FD38C009
:1015500030917E0330FF09C024FF43C090E080E05B
:10156000089520917D0322FDF7CF089520917D03FA
:1015700022FD3AC030917E0330FD39C024FFF5CF03
:10158000EDCF20917D0323FFF0CF24FDE7CFCDCF1A
:1015900020917D0323FD2EC030917E0331FFEECFDD
:1015A00084EE90E0089520917D0325FFDECFC9CF22
:1015B00020917D0325FD21C020917E0323FFD5CFFF
:1015C00089E390E0D2CF20917D0326FFCECF8AE23F
:1015D00090E0089520917D0326FFC7CF81E390E03E
:1015E000089583EE90E0089582EE90E0089580EEF5
:1015F00090E0089586EE90E0089585E390E00895E8
:101600001F93CF93DF930E945E0AEC01C11580E522
:10161000D807F0F5C11580E4D80708F09CC0C03E9B
:10162000D10520F5CD3CD10508F082C0C83AD105DE
:1016300078F4C53AD10508F073C0C130D10519F16D
:10164000209709F1C430D105F0F4D0E0C0E01BC010
:10165000C33CD105D0F7C85AD0E0CC0FDD1FC85528
:10166000DE4F0990D881C02DD4640DC0C11580E231
:10167000D80708F0D1C0C11581E0D80708F05AC0DA
:10168000C83ED10510F7CE01DF91CF911F9108958B
:10169000C03682E5D80718F5C03482E5D80708F0CF
:1016A0006BC0C03282E5D80708F05FC0C11582E583
:1016B000D80708F497C02C2F2695269580E2289FFE
:1016C000900111248C2F8370C1E0D0E002C0CC0FB8
:1016D000DD1F8A95E2F7C22BD32BDD68D4CFC03A49
:1016E00082E5D80760F4C03882E5D80708F459C00D
:1016F000CF71D0E0DC2FCC27C46FD06AC4CFC03C00
:1017000082E5D80708F462C0C03E82E5D80708F039
:101710009CCFDC2FCC27CC27DF71C06FD06AB3CF32
:10172000C55AD0E0CB55DE4FC881D0E0D064ABCFF6
:10173000D065A9CF8D2F0E941B0A182FCE019927A3
:101740000E945E0AC12FD0E0DC2FCC27CC27DF71AE
:10175000C82BD92B98CFCE0199270E945E0ACC279F
:10176000DF70C82BD92BD06A8ECFCF71D0E0DC2FA1
:10177000CC27C16FD06A87CF2C2F2695269527704E
:1017800080E2289F900111248C2F8370C1E0D0E06B
:1017900002C0CC0FDD1F8A95E2F7C22BD32BDC6889
:1017A00072CF2C2F26952695277080E2289F9001D6
:1017B00011248C2F8370C1E0D0E002C0CC0FDD1F5C
:1017C0008A95E2F7C22BD32BDA685DCF8C2F8F710D
:1017D0000E941B0AC82FD0E0DC2FCC27CC27DF715A
:1017E000D06251CF8C2F8F710E941B0A55E0D69585
:1017F000C7955A95E1F7CF70D0E0DC2FCC27282F82
:1018000030E084FF05C044E0220F331F4A95E1F722
:10181000C22BD32BD06937CF8D2F8F710E941B0A1B
:10182000182FCE0199270E945E0AC12FD0E0DC2F2D
:10183000CC27CC27DF71C82BD92BD2CF809138038E
:1018400081111092380308958091D90481110FC03D
:101850001092DE040E941E0C0E94E10788579C4EE5
:101860009093D8048093D70481E08093D90408959D
:1018700080959091DD0498239093DD0408958095E0
:101880009091DE0498239093DE04089580913F05A3
:1018900090910605981301C008958F5F8770FACF65
:1018A000292F9A3078F5863068F590E036E0239F4E
:1018B000800D911D1124682F677023E09695879500
:1018C0002A95E1F7FC01EE0FFF1FE80FF91FE05F1B
:1018D000FC4F50E040E080E0219130E0062E02C055
:1018E000369527950A94E2F721703327042E01C01C
:1018F000220F0A94EAF7822B4F5F5F4F4330510566
:1019000059F7089580E00895292F9A3098F5863088
:1019100088F590E036E0239F800D911D1124282F3B
:10192000277041E001C0440F2A95EAF723E096951D
:1019300087952A95E1F7FC01EE0FFF1FE80FF91FCD
:10194000E05FFC4F30E020E070E05191DF01119743
:10195000CB01022E02C0969587950A94E2F781701A
:1019600081958527842385278C932F5F3F4F2330D4
:10197000310559F7089580937C03089590917C0375
:1019800021E030E0F90101C0EE0F8A95EAF7D901B4
:1019900002C0AA0FBB1F6A95E2F7EA2B01C0220F13
:1019A0004A95EAF7892F8E23E81305C0292B822F49
:1019B0000E94BB0C089520952923F9CF21E030E047
:1019C00001C0220F8A95EAF7209580917C0382233B
:1019D0000E94BB0C089590912F03809589238093DA
:1019E0002F03282F277069F4891759F090917E03EF
:1019F00092FF07C08695869586950E94DE0C109210
:101A00002F03089521E030E001C0220F8A95EAF704
:101A100080917C03822B0E94BB0C08958093390334
:101A20000895829590E09C01220F331F220F331FEF
:101A30002C7C95958795959587958373282B30E019
:101A4000C901880F991F8A7A359527952575822BAC
:101A500008959C01832F817031FD82600895FC01FF
:101A60009281913049F4858182FF02C080FF1EC0BF
:101A700080FF1CC083E00895923049F4858182FF85
:101A800002C080FF15C080FD15C084E0089593302A
:101A900049F4858182FF02C080FF0EC080FD0EC028
:101AA00087E00895943060F481E0089582E008951D
:101AB00086E0089585E0089589E0089588E0089516
:101AC0008AE008959FB7F8941092ED049FBF90911B
:101AD000FC04943009F048C02091E9002F70309147
:101AE000EC00932F917030FD90E8922B25E020932D
:101AF000E9002091EB0020FF34C02091EE0027FF89
:101B000030C02091EC04222321F02091E80025FF31
:101B100028C01092EC0426E03091E80035FF14C094
:101B20008093F1008091E80085FD27C08091E80056
:101B300080FFFCCF8091E8008E778093E8009F7053
:101B40009093E90080E008953091FC04343049F42A
:101B50003091EB0035FD05C0215041F481E08093C8
:101B6000EC049F709093E9008FEF0895EFE9FFE098
:101B70003197F1F700C00000CFCF8FB7F89421E084
:101B80002093ED048FBFDBCF0F931F93CF93DF9391
:101B90008B01EA019091FC04943061F58093E90097
:101BA0008FEF9091E800815095FD06C095ED9A95D4
:101BB000F1F700008111F5CF8091E80085FF1AC090
:101BC0000E948706811111C08091E80085FD06C042
:101BD0008091E8008E778093E800F2CFF801819140
:101BE0008F018093F100219779F78091E8008E773B
:101BF0008093E800DF91CF911F910F91089543E00A
:101C000050E0BC0184E00E94C40D0895CF93DF939F
:101C1000EC0148E050E0BC0181E00E94C40D88E086
:101C2000FE01A2EFB4E001900D928A95E1F7DF91F9
:101C3000CF91089581E08093E00080E28093D80006
:101C40001092C9008FE19EE40197F1F700C00000F7
:101C500087E090EBDC018093710590937205A0936F
:101C60007305B093740588E19CE00FB6F894A895CD
:101C7000809360000FBE90936000FFCF6E9A3EB1DC
:101C80003F7B2EB120644FB7F8948BE094E0FC01C9
:101C90005191CF0168E02EB9000000C057FF3EB956
:101CA000550F000000C000C000C03EB900C06A95DA
:101CB00091F7F4E0873D9F0751F74FBF8FE594E020
:101CC0000197F1F700C0000008958091460381114B
:101CD00010C08091D80080618093D8008AE18A95F5
:101CE000F1F700C08091D90080FF0AC081E08093A5
:101CF000460381E090914603913009F080E0089519
:101D000082E0809346030E9468061092FC04F1CFA3
:101D10000E94650E882359F0E091E304F091E404F9
:101D2000309729F00190F081E02D0995089580E029
:101D300008950F931F930E94650E882329F00E9437
:101D4000D5071F910F9108950E94D50700916C034C
:101D500010916D0320916E0330916F03600F711F1E
:101D6000821F931FEECFCF92DF92EF92FF926B0113
:101D70007C010E94650E8823A1F02FB7F894609132
:101D8000E8047091E9048091EA049091EB042FBF7C
:101D90006C197D098E099F09FF90EF90DF90CF901D
:101DA00008950E94990EF4CFCF93DF93C9EFD2E04C
:101DB00060E0CE010E9438342196C11584E0D80736
:101DC000B9F7DF91CF9108951F93CF93DF93122F2F
:101DD0008630E0F46A30D0F44630C0F4C42FD0E04E
:101DE000CC0FDD1F9CE0699FC00DD11D112498E729
:101DF000899FC00DD11D1124632FCE0189960E94A9
:101E00003834612FCE018A960E943834DF91CF9109
:101E10001F910895AF92BF92CF92DF92EF92FF92FF
:101E20001F93CF93DF9381EDC82E86E0D82ED0E0AC
:101E30007601C0E014C0F50125913491412F6C2F3B
:101E40008D2F0E94E40E82E0A80EB11C1F5F163099
:101E500091F78CE0E80EF11CCF5FCA3019F0570102
:101E600010E0E9CFDF5F88E7C80ED11CD63001F75C
:101E7000DF91CF911F91FF90EF90DF90CF90BF90B7
:101E8000AF900895CF93C82F6FEF811163E285E281
:101E900090E00E9438346FEFC11166E086E290E076
:101EA0000E9438346FEFC11169E187E290E00E942F
:101EB0003834CF91089580E00E94420F60E088E2BC
:101EC00090E00E9438340E940A0F0E94D40E81E0F4
:101ED0000E94420F08950F931F93CF93DF93863094
:101EE00030F56A3020F5463010F5C42FD0E0CC0F25
:101EF000DD1F2CE0629FC00DD11D112438E7839FA8
:101F0000C00DD11D1124CE0189960E941A34082FCC
:101F100010E0102F0027CE018A960E941A349801F3
:101F2000282BC901DF91CF911F910F91089590E067
:101F300080E0F8CF462F7A3040F4663030F48630B7
:101F400020F4672F0E946B0F089590E080E00895C1
:101F5000CF92DF92FF920F931F93CF93DF936C0189
:101F600000917C0380913903082BC5E0D0E010E09C
:101F7000FC2EC8010C2E02C0959587950A94E2F7B5
:101F800080FD0CC02197A0F7F12C8F2DDF91CF9110
:101F90001F910F91FF90DF90CF900895B6018C2F85
:101FA0000E949A0F0E94000B019761F3EECFCF932E
:101FB000DF93EC010E94A80FBE010E949A0F0E94BD
:101FC000000BDF91CF910895FC0124812223C1F001
:101FD000808191810E94D70F92959F70963091F0E9
:101FE00058F4925F9F70923058F4803F19F030F4AB
:101FF000883E30F481E008959A5FF4CF843FD1F3B6
:1020000080E00895883EB0F3813FD1F7F3CFA6E09A
:10201000B0E0EDE0F0E10C942F3326E0FC01DE01AE
:10202000119601900D922A95E1F7FC012581898195
:102030009A81222399F0662389F00E94A80F182F15
:10204000682F89819A810E94840C69817A81812F0D
:102050000E949A0F2696E3E00C944B330E94500C9A
:10206000182FF3CF85E290E00E941A34833289F46E
:1020700086E290E00E941A34863059F487E290E0BC
:102080000E941A3491E0893109F090E0892F817023
:10209000089580E0FCCF48E050E068E170E089E618
:1020A00095E00E94283410920A04089580936D05EB
:1020B00090910A04962B90930A049091090490FF42
:1020C00016C029E731E0662311F02BE731E01F92BB
:1020D0008F933F932F9382E096E09F938F930E947C
:1020E00018060F900F900F900F900F900F9008957B
:1020F00080916D0520E1382F321B08F430E0832FEA
:1021000061E00E945610089580916D0520E1382FFE
:10211000320F08F43FEF832F61E00E9456100895BC
:1021200030916905337071F180936A0560936B0596
:10213000493708F048E740936C0530910A04322B88
:1021400030930A043091090430FF1CC050E09927F5
:10215000211119C029E731E05F934F931F926F93CC
:102160009F938F933F932F938FED95E09F938F9342
:102170000E9418068DB79EB70A960FB6F8949EBFB8
:102180000FBE8DBF08952BE731E0E6CFE9E6F5E01D
:10219000438120E1421B08F440E0818121E062811B
:1021A00090E00E9490100895E9E6F5E0438120E177
:1021B000420F08F44FEF818121E0628190E00E949C
:1021C00090100895E9E6F5E0628120E1621B08F4D1
:1021D00060E0818121E0438190E00E9490100895A9
:1021E000E9E6F5E0628120E1620F08F46FEF81819A
:1021F00021E0438190E00E9490100895E9E6F5E027
:10220000818121E0438162818850990B0E94901066
:102210000895E9E6F5E0818190E021E04381628163
:1022200008960E949010089590916905937051F15D
:10223000811129C094609093690510926601809184
:102240000A04862B80930A048091090480FF1AC037
:10225000209169052695269589E791E0662311F07E
:102260008BE791E01F922F939F938F9385EC95E0DE
:102270009F938F930E9418060F900F900F900F90CE
:102280000F900F900895883010F09C61D4CF880F84
:10229000880F982BD0CF80916905869586958150BF
:1022A00009F487E061E00E941411089580916905A6
:1022B000869586958F5F883008F081E061E00E9406
:1022C0001411089590916905292F237031E0232777
:1022D0009C7F922B909369051092660190910A045D
:1022E000982B90930A049091090490FF14C08111D7
:1022F00013C089E791E01F922F939F938F938EE8ED
:1023000095E09F938F930E9418060F900F900F9067
:102310000F900F900F9008958BE791E0ECCF809194
:10232000090480FF08C08AE695E09F938F930E947E
:1023300018060F900F908DE08093690580916B01D6
:1023400090916C01A0916D0180936A0590936B054B
:10235000A0936C0588E780936D058FEF80936E05E1
:102360000E944B100895B0E0A0E0E9EBF1E10C947D
:1023700025337C015B01842E752E69018091470312
:1023800001E010E08A3010F40AE010E0C1E0D0E093
:10239000B501C701F6010995982E811114C0219647
:1023A0000C171D07B4F48091090480FF0CC07F92C4
:1023B0008F928DEA92E09F938F930E9418060F9060
:1023C0000F900F900F90892DCDB7DEB7EDE00C94F4
:1023D0004133CC9F9001CD9F300D300D112490E002
:1023E00080E045E34A95F1F7000001962817390788
:1023F000C1F7CECFB0E0A0E0E0E0F2E10C942333EF
:10240000182F80916501811323C090916905937005
:102410002091640130E081E09217130609F480E016
:10242000817080936A0180916E059091690198177F
:1024300039F08093690140E060E080E00E94740818
:10244000183060F4E12FF0E0EF53FB4C0C948B3329
:1024500081E0E6CF80916A01811102C080E0A0C0D6
:1024600040E060E080E00E947408F8CFC09168010D
:102470008EE0C89FC02D11240EE00C0F053408F02B
:1024800004E40E944B09882319F0033208F002E2A9
:102490000E944B09811103C0C23208F4C2E260916C
:1024A0006A0570916B0580916C050E94B708F62E45
:1024B000E72ED82ED0E0C01710F0802F6FC0FE019D
:1024C000E054FD4F808190916901892331F02D2DD9
:1024D0004F2D6E2DCE010E9471082196ECCFE09019
:1024E0006801DEE0ED9ED02D1124CEE0CD0FC53485
:1024F00008F0C4E40E944B09882319F0C33208F0A5
:10250000C2E20E944B09811103C0D23208F4D2E228
:1025100060916A0570916B0540916C05E09104042F
:10252000F091050480916D0586958695869530E03D
:1025300020E0E89F212DF89F200D311D1124922FBE
:1025400096FD2095322F3F7096FD3F5F269526958C
:1025500026952670E22FF0E0E052FE4F8181839FA6
:10256000802D312D112482958F703295307F832BF1
:102570002081820F97FD819587FD8195880F282FF7
:10258000249F212D1124822F0E94B708062FD72EB9
:10259000C82EED2EF12CEC16D8F08C2F0E94740969
:1025A000909168019F5F9093680181110CC082E057
:1025B0008093660180916A01811105C0111103C0E9
:1025C00083E080936601CDB7DEB7EFE00C943F3334
:1025D000F701E054FD4F808190916901892331F02A
:1025E0002C2D402F6D2DC7010E9471084FEFE41A6A
:1025F000F40AD1CFC09168018EE0C89FC02D11248C
:102600000EE00C0F053408F004E40E944B09882307
:1026100019F0033208F002E20E944B09811103C055
:10262000C23208F4C2E230916D053695369521E04C
:10263000320F08F43FEF409104045091050490E0FC
:1026400080E0439F812D539F800D911D1124F82E12
:10265000D0E0C01708F031CFFE01E054FD4F80817B
:1026600090916901892391F060916A0570916B05E1
:1026700080916C052F2D4C2F0E948D080E94B70869
:10268000462F282F672FCE010E9471082196E1CF97
:10269000E09068018EE0E89EE02C11247EE0F72EA9
:1026A000FE0C94E49F1510F464E4F62E0E944B098E
:1026B000882329F0A2E2AF1510F452E2F52E0E9411
:1026C0004B09811105C0B2E2EB1610F442E2E42E90
:1026D00080916A01882361F040E060E080E00E9420
:1026E0007408EBE9F3E08CE3DF011D928A95E9F7CA
:1026F00080916801811115C0809197039091980392
:102700000E94C60721E08931910508F420E020935A
:102710009603499730F00E94E107909398038093C5
:102720009703A12C912CB12C96E0792E25E5622EF1
:102730003AEA832E5524539405C0ADE0A91508F458
:1027400053C0B12C2B2D30E07A9CE0011124FE0106
:10275000E450FE4FE20FF31FC080CE1408F43CC0DB
:10276000CF1408F039C09394D12CF601E054FD4FFA
:10277000808190916901892309F42EC0C556DC4FF0
:10278000C20FD31F0881302F262D321B08F430E0F2
:1027900070916B05282D200F08F42FEF40916C05E8
:1027A000822F880F820F8E5F282F249F212D1124C6
:1027B000822F682D631B0E94B708462F282F672F92
:1027C000C6010E94710880919603882329F0452D47
:1027D000041B08F400E00883B39486E0B812B2CF7B
:1027E000A3949AE0A912A9CF8F2DD8CE00916C05A1
:1027F000B3E00B9FE0011124D695C795D695C795F8
:102800005C2EA02EB12C8FEF90E0B5010E947733A3
:10281000762E80916A01882371F040E060E080E0CC
:102820000E947408EBE9F3E08CE3DF011D928A95C6
:10283000E9F710929A03809199038F5F809399032F
:10284000F12CE12CAC1ABD0A6701612CD701A55609
:10285000BC4F4D0180919A03862909F045C00E9422
:10286000E433853595400CF03FC0F4010083F60158
:10287000E450FE4FE081EF3FD1F0D601A556BC4FAA
:102880002C91F0E0521608F040C030E02C1B3D0BBC
:102890002C9FC0012D9F900D3C9F900D1124B501E0
:1028A0000E946333262F402FCF010E94710863944A
:1028B000F6E0CF0ED11C2AE06212CCCF4FEFE41A23
:1028C000F40A86E0E816F10409F0BECF809199037E
:1028D000781202C01092990380919A038F5F8D3114
:1028E000F0F480939A03BACDF601E556FC4F80814F
:1028F000882309F4BCCF801708F0B9CF90919903D1
:102900007912B5CF81508083B2CF029FC0011124CC
:10291000BE010E946333462F20E060E0C5CF1092D5
:102920009A032BEC33E089E09FEF900FEBE9F3E0A3
:10293000D901893021F446A9041301C096AB4D9109
:10294000401730F0ED012197988315960C93159759
:10295000319643E0E13AF40761F78150265031099E
:102960008111E4CF7BCD8AE698E00E94840918CEDD
:1029700084E698E0FACF4F925F926F927F928F92A7
:102980009F92AF92BF92CF92DF92EF92FF92CF933E
:1029900060910004709101048091020490910304FD
:1029A0000E94B30E6B017C010E94990E4B015C01E9
:1029B0008092000490920104A0920204B092030459
:1029C000A091D703E7EDF3E08A2F90E04FEF5FEFA0
:1029D00060E070E04C195D096E097F09A9132AC0F7
:1029E0008093D70380910804C0E0811108C08091D2
:1029F0006905C82FC37019F0C82FC695C695809178
:102A00006601813009F440C0882339F1823009F42D
:102A100045C0833009F446C0CF91FF90EF90DF901E
:102A2000CF90BF90AF909F908F907F906F905F906E
:102A30004F900895218D328D2901712C612C441500
:102A400055056605770520F481509F5F3296C6CF05
:102A50002C0D3D1D328F218FF8CF1092680180928E
:102A6000040490920504A0920604B092070489E23F
:102A7000E7EDF3E0A0E4B5E001900D928A95E1F76F
:102A800081E080936601C8CF8C2F0E94FA11CC237D
:102A900019F20E944B090E944B09BECF8C2F0E9455
:102AA0005708BACF80910A0481110E944B1060919F
:102AB00004047091050480910604909107040E941B
:102AC000B30E603171058105910508F4A5CF109210
:102AD0006601A2CFCF93C82F80917E0382FB9927F6
:102AE00090F99C17F9F0C0FB82F980937E03609106
:102AF0007D0370917E0384E090E00E94563482E072
:102B00000E94EB0C8091090480FF0CC01F92CF93B0
:102B100085E392E09F938F930E9418060F900F9089
:102B20000F900F90CF91089590E080E00E942234A2
:102B3000863E9E4F19F40E943210089580E0089559
:102B4000AFE0B0E0E6EAF5E10C9425338E010F5FCB
:102B50001F4F8AE0D8011D928A95E9F78CE2C82EB2
:102B600081E0D82EF12CE12CAA24A394B12C2CE2E4
:102B7000822E21E0922EF60181916F018F3F09F4A0
:102B800042C0F894E82FE295EF70F0E021A18F7039
:102B9000A50102C0440F551F8A95E2F7CA01922F82
:102BA000982B91A392A18095892382A3789400C049
:102BB000E6E2F1E0712C31E021912F3F09F46BC086
:102BC000A22FA295AF70B0E090968C9190E02F70FC
:102BD00002C0959587952A95E2F780FD5CC0832F0A
:102BE000782A330F8E169F0639F7F60131978081C8
:102BF0008F3F11F00E94040A50EA5A95F1F7F8014C
:102C0000EE0DFF1D70828FEFE81AF80AA5E0EA16B4
:102C1000F10409F0B0CF4AE050E0B80180E793E05A
:102C20000E94F433009741F02AE0F801A0E7B3E0F6
:102C300001900D922A95E1F700917B03892B69F1B0
:102C400081E080933E030E94E10790933D038093CF
:102C50003C0380913C0390913D030E94C607059779
:102C600000F110E004571C4F45E050E060E773E0CE
:102C7000C8010E94F433C12C892B51F085E0E0E7B4
:102C8000F3E0D80101900D928A95E1F7CC24C3942A
:102C900010923E0307C080E0A3CF80913E038111D4
:102CA000D8CFC12C0E94650ED82EE0917B038823DB
:102CB00009F492C07E01BBE0EB0EF11C85E0D70168
:102CC0001D928A95E9F70E2F10E004571C4FB09023
:102CD0004703B9E0BB15E0F12BE138E242E851E0EF
:102CE000B701C8010E94B311882309F453C023E639
:102CF00037E24FE851E0B701C8010E94B3118823C1
:102D000009F448C029EB37E24AE951E0B701C801AC
:102D10000E94B3118823F1F1F9E0FB1508F453C0C8
:102D20001092470380917A0390E045E050E0B701AC
:102D300084579C4F0E94F43321E020934503892B54
:102D4000E1F4D12C8D2D8C292F96EDE00C9441339C
:102D500080913F03909140030E94C607843F9140B9
:102D600008F0BACF80914503882359F385E0D70155
:102D70001D928A95E9F710924503A0917A03B0E07D
:102D8000A457BC4F85E0FE013B9601900D928A95B9
:102D9000E1F7D8CF809147038F3F31F08F5F809369
:102DA00047038A3008F4BECF0E94E10790934003A6
:102DB00080933F038091090480FFD4CF87E792E09E
:102DC0000E947F05CFCF8091090480FFA9CF84E6C0
:102DD00092E00E947F05A4CFF0E0E457FC4F85E02D
:102DE000A6E5B3E001900D928A95E1F786E593E0C0
:102DF0000E9451068093550380905B0390905C0382
:102E0000A0905D03B0905E038091410390914203D6
:102E1000A0914303B091440388169906AA06BB0605
:102E2000D1F08092410390924203A0924303B0926A
:102E300044030E94650E81110EC00E94D507861AB8
:102E4000970AA80AB90A80926C0390926D03A09227
:102E50006E03B0926F0388E0EFE5F3E0A9E6B5E01A
:102E600001900D928A95E1F710916703112349F0C3
:102E700080910804811105C00E94FA1180E00E942F
:102E80005708109308045ECF0F931F93CF93DF93DF
:102E90008091DE049091DD04892B8093060390914C
:102EA0003803992391F0892B8093060320E088E072
:102EB00093E0FC013191CF0131112F5FF3E08E30AF
:102EC0009F07B9F721110E941E0C48E050E060E313
:102ED00073E086E093E00E94F433892B09F441C04B
:102EE00088E0E6E0F3E0A0E3B3E001900D928A957C
:102EF000E1F7E091E304F091E404309791F102806E
:102F0000F381E02D86E093E009958091090482FF2A
:102F100028C080FF04C082E592E00E947F05D0E0D7
:102F2000C0E00CE412E08091090480FF0EC0FE01B5
:102F3000EA5FFC4F80811F928F931F930F930E9433
:102F400018060F900F900F900F902196C830D10562
:102F500051F78091090480FF04C08AE492E00E9446
:102F60007F05DF91CF911F910F910895CF93DF934C
:102F7000EC01EA85FB85309719F06C857D85099514
:102F80008B810E94380C8C810E943F0C0E94441758
:102F900086E0FE0111928A95E9F7DF91CF910895BD
:102FA000CF93DF93EC018D8181FD18C082608D830A
:102FB0008091DD049B81892B8093DD048091DE0468
:102FC0009C81892B8093DE040E944417E885F98553
:102FD000309721F06C857D85CE0109951092E00433
:102FE0001092DF048D8180FD03C0CE010E94B617D0
:102FF000DF91CF9108951092DE04E8E0F3E086E0DF
:10300000DF011D928A95E9F790E080E00E942C088C
:1030100090E080E00E9407081092DD040E944417AF
:103020000895AAE2B0E0E7E1F8E10C942F338EEFC7
:1030300094E02091F100DC012D93CD01B5E08630C4
:103040009B07B9F78091FF04833009F472C0B8F48C
:10305000813009F449C0823009F4B3C08091E8009E
:1030600083FF91C28091FE049091FF049A3008F092
:103070008AC2E92FF0E0E753FB4C0C948B338A3083
:1030800009F48EC08B3009F471C0893039F7809112
:10309000FE04813219F78091020590910305009793
:1030A00011F00297D9F68091E800877F8093E800BD
:1030B0008091E80082FF38C09091F3008091F20087
:1030C000029731F48091F100813011F0863021F4C3
:1030D0008091F1008093F1048091E8008B778093D8
:1030E000E8000E94B806BACF8091FE04813A09F048
:1030F000B5CF8091E800877F8093E800809102053A
:1031000090910305892B61F468E082EF94E070E010
:103110000E9464078091E8008B778093E8009ECF3F
:1031200060E090E080E0F3CF8091FC048111C0CF9B
:1031300095CF8091FE04813A09F090CF80910205ED
:1031400090910305892B09F089CF8091E800877F52
:103150008093E8008091E80080FFFCCF80916701B8
:103160008093F1008091E8008E77B9CF8091FE04C2
:10317000813209F073CF8091020590910305892B6C
:1031800009F06CCF8091E800877F8093E8000E946F
:10319000B80680910005809367010E94FB175ECFFF
:1031A0008091FE04813209F059CF8091E800877F39
:1031B0008093E8000E94B806809101058093F00496
:1031C0004DCF8091FE04813A09F048CF8091E8000C
:1031D000877F8093E8008091E80080FFFCCF80919A
:1031E000F004BECF803899F0823809F0CCC18091CC
:1031F00002058F70873008F0C6C18093E900809186
:10320000EB0085FB882780F91092E90006C08091C9
:10321000FA049091FB04911182609091E800977FED
:103220009093E8008093F1001092F1008091E80003
:103230008E77A5C1882309F493C1823009F0A3C118
:1032400080910005811196C1809102058F702FEF4A
:10325000280F263008F097C18093E9002091EB00F9
:1032600020FF88C1933031F48091EB00806280931D
:10327000EB0080C19091EB0090619093EB0021E016
:1032800030E001C0220F8A95EAF72093EA001092FD
:10329000EA008091EB008860EACF811174C110913F
:1032A00000051F778091E3008078812B8093E300F5
:1032B0008091E800877F8093E8000E94B8068091A3
:1032C000E80080FFFCCF8091E30080688093E300FA
:1032D00082E0111183E08093FC0455C18058823054
:1032E00008F051C120910005309101052C3DE3E02B
:1032F0003E07A1F583E08A838AE289834FB7F89479
:10330000DE01139620E03EE051E2E32FF0E050931F
:103310005700E49120FF03C0E295EF703F5FEF702C
:103320008E2F90E0EA30C0F0C7968D939D932F5F6B
:10333000243159F74FBF8091E800877F8093E800E0
:103340006AE270E0CE0101960E9464078091E80075
:103350008B778093E80017C1C096E7CF8091020574
:1033600090910305432F55274330510509F44AC076
:1033700078F54130510509F47AC08BE790E0E5EB30
:10338000F9E04230510509F0FEC02091E800277FA6
:103390002093E800209104053091050582179307DA
:1033A00008F49C0140E02115310509F065C0411188
:1033B00063C08091E80082FDC9CF8091FC0488231E
:1033C00029F2853019F28091E80083FFF2CFBECF59
:1033D0004132510509F43CC04232510509F0D3C0D5
:1033E0008430910508F0CFC0FC01EE0FFF1FE451BF
:1033F000FE4F0190F081E02D88519E4FDC018C91B1
:1034000090E01AC0332721303105D1F02115310564
:1034100061F02230310509F0B6C0E2E4FAE0E4914F
:103420008E2F90E0E2E4FAE007C0EEE6FAE0E491E5
:103430008E2F90E0EEE6FAE0009709F4A4C0A5CF45
:10344000EEE5FAE0E4918E2F90E0EEE5FAE0F4CFBD
:103450008430910508F097C0880F991FFC01EC504B
:10346000FE4F0190F081E02D89E090E08ECF82E167
:1034700090E0E0E3FAE089CF8091FC04882309F42E
:1034800065CF853009F462CF8091E80083FD5ECF7F
:103490008091E80082FD8DCF8091E80080FF83CF8E
:1034A0009091F3008091F2002115310519F08830D8
:1034B000910550F041E0089709F040E08091E80064
:1034C0008E778093E8006FCF44914093F10031965E
:1034D000215031090196E8CF803809F054C080911D
:1034E000E800877F8093E8008091FD048093F100DD
:1034F0009DCE811148C010910005123008F043C0E4
:103500008091E800877F8093E8001093FD040E947B
:10351000B806112311F084E005C08091E30087FD17
:10352000FACF81E08093FC0442E061EC81E00E94EC
:10353000D70642E261EC84E00E94D70642E261ECE9
:1035400082E00E94D70642E260EC83E00E94D70648
:1035500042E261EC85E00E94D7068091FC0413C032
:1035600080910005813079F481E0933009F080E0AA
:103570008093FB041092E9008091E800877F80939C
:10358000E8000E94B8068091E80083FF0AC080919D
:10359000E800877F8093E8008091EB008062809351
:1035A000EB00AA96E3E00C944B330E94FB172FEF3D
:1035B00084E39CE0215080409040E1F700C000008F
:1035C00088E19CE00FB6F894A895809360000FBE48
:1035D00090936000FFCF882321F00E94380C0E9456
:1035E000441708958091D904882329F082E20E942B
:1035F000EB1A1092D9040895882339F09091DD04D4
:10360000982B9093DD040E9444170895882321F09D
:103610000E943F0C0E9444170895882339F090912E
:10362000DE04982B9093DE040E94441708958823AB
:1036300091F19CEF980F913A80F4E8E0F3E02EE0EE
:1036400033E09191891303C0DF0111971C922E176B
:103650003F07B9F70E944417089590E2980F9830F9
:1036600050F4877091E001C0990F8A95EAF7892F8D
:103670000E943F0CEFCF9BE5980F933028F490E029
:1036800080E00E942C080895885A8B3120F490E045
:1036900080E00E940708089580910501843069F058
:1036A00040F4833071F081E00E94DE0C109205013D
:1036B0000895853069F08630B1F789E30E94171BC1
:1036C000F2CF84E00E94061B81E00E94DE0CEBCF6B
:1036D00085E0F8CF80910501843061F038F48230C4
:1036E00069F0833079F0109205010895853071F00A
:1036F0008630C9F784E00E94020DF5CF87EE0E9464
:10370000171BF1CF80E80E94061BEDCF80E80E94D6
:10371000061B81E00E94DE0CE6CFCF93C82F8823E2
:10372000B1F08CEF8C0F813A00F5E8E0F3E08EE029
:1037300093E0DF012D91C21761F08A179B07D1F743
:103740006C2F86E093E00E94ED070E944417CF9112
:1037500008952191C21303C0DF0111971C928E17A7
:103760009F07B9F70E944417EBCF80E28C0F883097
:1037700068F4C77021E030E001C0220FCA95EAF773
:103780008091DE04822B8093DE04DFCFEBE5EC0F2B
:10379000E33040F4F0E0EB55FE4F808190E00E9472
:1037A0002C08D5CFC85ACB3190F6EC2FF0E0EE0FB5
:1037B000FF1FE855FE4F808191810E940708C7CF07
:1037C0001F93CF93DF93182FD0E0C0E0893311F41B
:1037D000C0E5D0E0812F0E948D1B209739F4812F06
:1037E0000E94171BDF91CF911F9108958FE99FE0F1
:1037F0000197F1F700C000002197EFCFB0E0A0E003
:10380000E4E0FCE10C942A336B01C42FD22FFC01BD
:1038100085818823A9F04093DC040E94E1079093FE
:10382000DB048093DA04C77081E001C0880FCA9579
:10383000EAF70E940D1BCDB7DEB7E8E00C944633E3
:103840001091DC04141337C08091DA049091DB04EA
:103850000E94C6077C01C6010E942106E816F906EF
:1038600050F5C0E2CD0F1D17C1F080E2810F883006
:1038700048F4177081E0012E01C0880F0A94EAF71E
:103880000E94061BC83048F481E09D2F977001C04C
:10389000880F9A95EAF70E940D1B802F0E94E01B6B
:1038A000C83048F6D77081E001C0880FDA95EAF792
:1038B0000E94061BC0CFC77081E001C0880FCA9567
:1038C000EAF7F6CFB0E0A0E0E8E6FCE10C942B3399
:1038D000E82FF0E0EF5AF94FD490282F269526953F
:1038E000269530E0F901EF5BF94F0491877010E005
:1038F000082E02C0159507950A94E2F7017011276A
:10390000F901EF5CF94FE490F12C082E02C0F59418
:10391000E7940A94E2F791E0E922FF24F901EF5DD0
:10392000F94FC491D0E002C0D595C7958A95E2F7CA
:10393000C170DD270115110519F081EE0E948D1B64
:10394000E114F10419F086EE0E948D1B8D2D0E946A
:10395000E01BE114F10419F086EE0E94171B01151B
:10396000110519F081EE0E94171BCD2B19F08CE286
:103970000E94E01BCDB7DEB7E7E00C944733FF921F
:103980000F931F93CF93DF938C018AE0F82EF801F9
:103990008491882309F44BC0813009F044C0E801C8
:1039A0002196FE018491813049F42196FE01849193
:1039B0000E94E01B8E010F5F1F4FE9CF823039F468
:1039C000E8012296FE0184910E948D1BF3CF833083
:1039D00039F4E8012296FE0184910E94171BEACF78
:1039E000843041F7E8012296FE01249190E080E0C6
:1039F000FE0131962053330B2A30310548F00197F0
:103A0000C8F2EFE9FFE03197F1F700C00000F7CF0F
:103A1000F89EA001F99E500D1124C901840F951F35
:103A20002491EF01E5CF0E94621CE801C3CFCDB71E
:103A3000DEB7E5E00C944933E0910501E250E8304F
:103A400038F5F0E0ED52FB4C0C948B3388E20E9489
:103A5000171B1092DE0410920501089582E00E9467
:103A6000DE0CF7CF83E0FBCF88E20E94171B88E2D1
:103A70000E94E01BEECF85E0F2CF80E00E94020DB5
:103A8000E8CF88E20E94171B88E20E94E01BEFCF7C
:103A900088E20E94E01BF8CFFC0182818150990BE3
:103AA000039718F088E20E94E01B08950F931F937C
:103AB000CF93DF93C82F8B010E94290DD82F0E942E
:103AC000FC1A8C2F0E948D1B0115110559F48C2FA7
:103AD0000E94171B8D2F0E94EB1ADF91CF911F912F
:103AE0000F9108958FE99FE00197F1F700C0000062
:103AF00001501109E9CF0E942F0D809305018430F8
:103B0000F1F028F4823041F0833081F0089585305F
:103B1000A1F08630A1F008958091D904882319F08E
:103B20000E94F21A08950E94240C089584E00E94D5
:103B30000D1B81E00E94020D089585E0F8CF0E94E0
:103B4000F21A89E30E948D1B08950E942F0D809325
:103B500005018430D1F028F4823041F0833051F0F7
:103B60000895853059F0863081F0089587EE0E94DF
:103B70008D1B089580E80E940D1B089580E80E9427
:103B80000D1B81E00E94020D089581E00E94DE0C71
:103B900082E00E94DE0C83E00E94DE0C85E00E9441
:103BA000DE0C08950E942F0D80930501825088300D
:103BB000F0F4E82FF0E0E552FB4C0C948B3388E2F4
:103BC0000E948D1B089582E00E94020D089583E0FB
:103BD000FBCF85E0F9CF81E00E94DE0C82E00E94FD
:103BE000DE0C83E00E94DE0C84E00E94DE0C08956F
:103BF000A8E0B0E0EEEFFDE10C9426337C01DC019F
:103C000014968C91882309F4D1C061E0C7010E9409
:103C100007108C01F7018581882309F18091DF0469
:103C20009091E0040097D9F008171907C1F0FEE061
:103C30008F9FC0011124FC01E15CFE4F20812460B4
:103C40002083865C9E4FDC010D931C930E94D0174D
:103C50001092DD0461E0C7010E9407108C01F7019A
:103C60008581882309F4F9C0980137572038310538
:103C700008F062C6003108F089C08FEF93E00E941F
:103C80001A34811183C059EFC52E52E0D52E01118F
:103C90004AC0FE01339686E0DF011D928A95E9F75E
:103CA0004AE0B42E86010F5F1F4FC6010E941A34EE
:103CB00089831A82882309F469C0813009F07AC0A7
:103CC0004601B2E08B0E911CC8010E941A348A830F
:103CD000882309F45BC09FEF980F933090F5E3E0E1
:103CE000CE0ED11CC4010E941A348B83882309F4A0
:103CF0004DC01C828E010F5F1F4FD8018C9188230D
:103D000089F2813009F08FC011969C91119712961B
:103D10008C91913009F050C00E5F1F4F0E94E01B44
:103D20000F5F1F4FEACFC114F4E0DF0679F1C6013F
:103D30000E941A34811101C001502FEFC21AD20A19
:103D4000A6CF64018430B1F602E010E06401FFEF19
:103D5000CF1ADF0AC4010E941A34E1E0F0E0EC0F50
:103D6000FD1FE00FF11F8083882381F08C3741F421
:103D7000E2E0F0E0EC0FFD1FE00FF11F1082BACF80
:103D80000F5F1F4F46010730110501F780912F0388
:103D9000877061F0D70115968C91882339F0809156
:103DA0007E0382FF03C082E00E94EB0C2896ECE0C9
:103DB0000C94423368019ECF923029F40E5F1F4F5E
:103DC0000E948D1BADCF933029F40E5F1F4F0E94D0
:103DD000171BA6CF943019F00F5F1F4FA1CF0E5FB6
:103DE0001F4F30E020E0B8016F5F7F4FF801418145
:103DF0008053990B8A30910558F02150310908F40D
:103E00008FCF8FE99FE00197F1F700C00000F5CF59
:103E1000B29EF001B39EF00D11249C012E0F3F1FA6
:103E2000842F8B01E0CF0E94621C7ACF8AEE91E052
:103E30000E94BF1C12C0882381F084EE91E00E9492
:103E4000BF1C70E060E08FE491E00E94561D70E0BE
:103E500060E087E292E00E94561DC80197558F3FAF
:103E6000910511F008F0B1C05801BB24AEE00A9FE3
:103E7000F00111249F01265C3E4F6901D701159680
:103E80008C91E15CFE4F908180FB90F990838823B8
:103E900009F493C00E94E10790938A0380938903F9
:103EA000F60182818F5F82838091DD049091DE0430
:103EB000892B83838091380384830680F781E02DEA
:103EC000309731F0D6011C966D917C91C601099511
:103ED0008EE08A9DF0018B9DF00D1124E65CFE4F73
:103EE000858181FF67C090E080E09093DF0480933C
:103EF000E0048091D904882309F4ADC0C090DE04A9
:103F0000D09038030E94E10788579C4E9093D804C4
:103F10008093D704F7018581882309F49CC08D2DF7
:103F20008C298D7909F0B6C00034F2E51F0708F03E
:103F30007CC0011522E5120708F08DC0011530E4A0
:103F4000130708F057C0011580E2180708F095C064
:103F5000063E110509F47FC0C80157C0882309F443
:103F60007CCF8FED91E06BCF882309F476CF70E0A2
:103F700060E087E391E06FCF882309F46ECF81EC96
:103F800091E056CF882309F468CF8DEA91E050CFB5
:103F9000882309F462CF8EE991E04ACF882309F49F
:103FA0005CCF8EE691E044CF882309F456CF82E6B9
:103FB00091E03ECF902F812F98CFF901858181FF2D
:103FC00098CFC9010E94B61794CF0337FCE71F07AB
:103FD00009F08FCFD70115968C91882309F4D6CE9E
:103FE0008091D904882319F00E94F21ACFCE0E9442
:103FF000240CCCCE011590E5190708F0ADCFF701E0
:104000008681807F41F1C80199271092DD048832B2
:10401000910508F049C08E31910508F04CC0049715
:10402000C8F182E08093DD0446C0003EA2E51A0795
:10403000E8F4003CB2E51B0770F40036E2E51E0729
:1040400008F48ACF003AF2E51F0728F0043B22E586
:10405000120709F081CFF801E851FC47E730F1057C
:1040600008F060C0ED51FB4C0C948B33C8018757AE
:104070009C47029708F070CFEECFD70116968C912F
:10408000807F09F0C0CF812F8F71823151F028F4E9
:10409000823039F00E94F21ADECF8431E1F28631AB
:1040A000C9F71092DD04F6CF8D32910509F4B9CF2E
:1040B00028F48A9779F70E944417CDCF8C34910564
:1040C000D1F38D329240B9F3E5CF06E221EE41EE15
:1040D0006AE17CE7C7010E94FE1B58CE07E225EE8D
:1040E00045EE6BE17CE7F6CF06E221EE40EE68E1BB
:1040F0007CE7F0CF07E225EE44EE69E17CE7EACF0A
:1041000006E221EE42EE6CE17CE7E4CF07E225EE29
:1041100046EE6DE17CE7DECF08E221E045EE6EE1A0
:104120007CE7D8CFD70115968C91882309F4ECC38E
:104130001092DC04C8019057839708F0CFC384E045
:1041400090E00E94223490937E0380937D03F801D7
:10415000E150F047E232F10520F4E651FB4C0C94BB
:104160008B3380917D03816080937D0395C0809126
:104170007E03886080937E038FC080917D03826080
:10418000F3CF80917D038460EFCF80917D038860C1
:10419000EBCF80917E038160EDCF80917E038260C2
:1041A000E9CF80917D038061DFCF80917D038062C4
:1041B000DBCF80917D038064D7CF0E94FB17809175
:1041C0007D038068D1CF80917D038C60CDCF8091BD
:1041D0007E038360CFCF80917D038E7FC5CF80919A
:1041E0007E03877FC7CF80917D038D7FBDCF809178
:1041F0007D038B7FB9CF80917D03877FB5CF809181
:104200007E038E7FB7CF80917E038D7FB3CF809169
:104210007D038F7EA9CF80917D038F7DA5CF809177
:104220007D038F7BA1CF0E94FB1780917D038F7749
:104230009BCF80917D03837F97CF80917E038C7F7E
:1042400099CF80917D0382FB992790F921E09227F5
:1042500090FB82F990FB83F987CF80917E03982FA2
:10426000909591708E7F892B90FB81F983CF9091EF
:104270007D03892F8F7B96FF806476CF0E94FB178A
:1042800090917D03892F97FB87F980586DCF61E06E
:104290008EE090E00E94383460917D0370917E033F
:1042A00084E090E00E9456340E94FB176FCD60E0DE
:1042B000EFCF90917D03892F8F7E94FF806154CF43
:1042C00090917D03892F8E7F90FF81604DCF9091DB
:1042D0007E03892F877F93FF88604CCF85E31EC3C1
:1042E0008091DE048272F801E052F847E531F10571
:1042F00008F044C0E45FFA4C0C948B3381E00E94D8
:10430000621144CD4BE451E166E571E10E94510830
:104310003DCD46E551E16BE471E1F8CF4EEF50E160
:1043200069E071E1F3CF49E051E16EEF70E1EECF6A
:1043300042EE50E160EF70E1E9CF40EF50E162EE14
:1043400070E1E4CF46EC50E164ED70E1DFCF44ED85
:1043500050E166EC70E1DACF48E750E164E870E1E3
:10436000D5CF44E850E168E770E1D0CF61E081E06B
:104370000E9414110BCD61E082E0FACF0737BCE751
:104380001B0709F45AC00837ECE71E0709F45EC0A2
:10439000F701858100811181882309F4A8C0C80133
:1043A0000E94A80FD82E682FC8010E94840CB80163
:1043B0008D2D0E949A0F0E94000B8C01882ED70130
:1043C0001596AC90159716969C9092943FE0932288
:1043D00080912F038770F1F0CA2CAA20E1F0812F81
:1043E000807F803451F080E2800F883098F0911007
:1043F00004C0812F807E803269F080917E0382FF2D
:1044000009C082E00E94EB0C80912F038770CC24BE
:10441000C3948111C12CB12EB2942FE0B222BBE023
:10442000BB1508F4C5C0EB2DF0E0EF5DFA4C0C9421
:104430008B3381E00E94020D03C081E00E94DE0CFC
:1044400043E062E081E00E94BE0CA0CC82E0F6CFA7
:104450000330FCE71F07B9F1B0F401303CE7130764
:10446000C1F1F8F401151C4709F092CF0E94FB1727
:10447000FFEF24E33CE0F15020403040E1F700C082
:1044800000000E941A0E0B35ACE71A0771F10C35CB
:10449000BCE71B0701F10A351C4709F079CF81E021
:1044A00021C090910904892F8E7F90FF81608093B5
:1044B000090480FF05C084E292E00E947F0566CC7B
:1044C00082E192E0FACF6FEF7FEF90E080E00E9410
:1044D00056340E94D51A80917E0382FB882780F98A
:1044E00091E089270E946A1553CF80E0FBCFC80175
:1044F0000E94500CD82E5BCFE12FEF70DE2E107F84
:1045000019F0D29490EFD922AA20B9F0DD2069F0F9
:1045100080E2800F883010F0811009C08091DE04A5
:10452000D82AD092DE040E944417802F3FC0809189
:10453000DD04D82AD092DD04F6CF802F0E94171B0D
:10454000DD20B1F1005E8D2D083010F0811003C028
:104550000E943F0C02C00E94380C0E94441728C0E1
:10456000F12FFF70DF2E107F103219F0D29480EF00
:10457000D822882059F021E0821609F473C0AA20BD
:1045800009F47FC0992009F442C0CFCF80917E0307
:1045900082FD39C0AA2081F1DD2039F08091DE044E
:1045A000D82AD092DE040E94441780E00E948D1B1E
:1045B000EB2DE850FF0B349710F40E94880ECC20AE
:1045C000B1F080912F0380FD12C0D70115961C9287
:1045D0008695869586950E94020DC7010E94F81D5A
:1045E00080912F038695869586950E94DE0C60E06B
:1045F000C7010E940710DACB80E00E94171BDD2064
:10460000B9F28D2DA5CFAA2099F0911004C08D2D5F
:104610000E940D1BCDCF31E09312CACF8091380399
:104620009D2D9823D91621F2D82AD0923803C0CFD5
:104630009110BECF8D2D0E94061B909138038D2DB9
:10464000892329F08D2D80958923809338038091CB
:104650000F039D2D982309F4ABCFD094D822D0928C
:104660000F03A6CFAA2029F085E0891508F4A0CF72
:10467000CECF94E0991508F49BCF8D2D0E94061B98
:1046800097CF9920D1F3A9E38A1209C0BFEFE7EED3
:10469000F3E0B150E040F040E1F700C00000802FAF
:1046A0000E94171B85CF812F86958695837061F0B8
:1046B000813009F07DCFC8019370A11002C080E065
:1046C00090E00E94070874CFC8019370A11002C047
:1046D00080E090E00E942C086BCF812F837089F5D9
:1046E000A11066CF402F429546954770440F440F66
:1046F000802F8F70042E01C0880F0A94EAF7202FB4
:10470000207104FF07C02FE030E001C0220F4A955E
:10471000EAF72095169516951370123069F050F44B
:1047200030913903113029F0822B83230E940E0D22
:104730003FCF832B822BFACF282B809139038227FE
:10474000F5CF8695AA2011F0812F8170882309F476
:104750002FCF402F429546954770440F440F802F2E
:104760008F70042E01C0880F0A94EAF7202F207161
:1047700004FF07C02FE030E001C0220F4A95EAF79E
:104780002095169516951370123069F050F43091FB
:104790007C03113029F0822B83230E94BB0C08CFAD
:1047A000832B822BFACF282B80917C038227F5CF95
:1047B0001F70AA2029F0812F0E94020D802F28CF80
:1047C000802F0E94061B812F0E94DE0CF1CE802FCD
:1047D00022EF8216B1F1281570F030EF8316D1F078
:1047E00091EF891691F0AA2009F45CC091109DCE3A
:1047F000812F8F712AC0A3EF8A1651F1B4EF8B126B
:10480000F2CF80917E0382FD2FC0812F8F71AA206D
:10481000D9F21BC0AA2081F0E4E0E91508F4C8CE63
:104820001F7181E090E0012E01C0880F0A94EAF721
:1048300090917C038927B1CFF5E0F91508F4B8CE43
:10484000EFCF812F8F71A110BFCF0E94020DB0CE8C
:1048500080E0AA2009F4A1CF1F7181E0012E01C0E0
:10486000880F0A94EAF799CFAA2089F01F71812F47
:104870000E94020D80917E0382FF07C028E0129FF4
:10488000C0011124836080932F03812FDECF81E04C
:104890000E94EB0C31E0391508F08ACE82E00E94CC
:1048A000EB0C86CE992059F0893309F0F8CE8FEFC2
:1048B00097EEA3E081509040A040E1F7EECE812F2B
:1048C0008F7182CF0737BCE71B0709F4B2CD0837D9
:1048D000ECE71E0709F0BCCD82E0ACCD0631FCE769
:1048E0001F0781F78091DE048A7A91E009F490E055
:1048F00090930E0369E2811165E386E093E00E94E4
:10490000ED070E94441742CA06312CE7120709F04E
:10491000E7CC80910E038111E1CC89E2E8E0F3E07D
:104920002EE033E09191891303C0DF0111971C92AF
:104930002E173F07B9F7E5CFF801E054FE47EE30F8
:10494000F10508F08ACAE35DFA4C0C948B33B0E0B1
:10495000A0E0EDEAF4E20C942B3380912E03807FEB
:1049600009F051C080912D03882309F44CC0E091D7
:104970003F0587E0D82E809106058E1709F443C0C5
:104980000E2F10E0ED9DF0011124E95FFA4F8481B4
:104990008823F1F1D09EE001D19ED00D1124FE01BB
:1049A000E95FFA4F918180912903981331C090817A
:1049B0008091280398132CC08581811129C0E28041
:1049C000F38080912A0390912B03E81AF90A60E0A2
:1049D00088E293E00E9407100E942106E816F9067B
:1049E000B8F480912E038F70806180932E03C35F93
:1049F000DA4F88818F708061888388E293E00E941B
:104A0000F81D0E94460CCDB7DEB7E7E00C944733A3
:104A1000F8013196E770AFCFA4E1B0E0E2E1F5E252
:104A20000C9423338C0186E0F801DE011F9601907F
:104A30000D928A95E1F7D80114967C9014971596FB
:104A4000EC9088E2A82E83E0B82E80912C0381118F
:104A50002AC0711003C0FF24F3941CC0EE20F9F0AB
:104A6000C8010E94E40FF82E8823C9F087E0F801FE
:104A7000A8E2B3E001900D928A95E1F780912C03B2
:104A8000813031F480912803909129030E94D70F3F
:104A90000E94A7248F2D6496EFE00C943F33C80149
:104AA0000E94F81DD8CFF801C280D380F0902D036A
:104AB00080912A0390912B034601881A990AFF20BE
:104AC00009F4F8C05080618060E088E293E00E94C1
:104AD00007100E9421068816990608F0AEC07720BC
:104AE00009F4B9CF80912E03382F307F209129030C
:104AF000D80111969C91119731115FC0291315C0EF
:104B0000209128039C91291310C0E11050C08F7090
:104B1000806180932E0388E293E00E94F81D8091CB
:104B20002E03F8018683F12CB5CFE11040C0662D2D
:104B3000852D0E943206E82E882361F088E293E0FA
:104B40000E94F81D87E0E8E2F3E0DF011D928A95FC
:104B5000E9F7E9CF5F86688A8F8598890E94D70F29
:104B6000292F22952F70243058F49F70223088F01E
:104B7000992399F0F8019681907F79F4FE2C8ACFE1
:104B80002A5F2F70223068F0C8010E94F81DEF2CB8
:104B9000F5CF992311F0882389F3805E883070F374
:104BA000F3CF803F58F3815F833070F7E7CF809178
:104BB0002E03816080932E03B6CF291315C0209158
:104BC00028039C91291310C0E1100EC016968C93F7
:104BD000C8010E94F81D87E0F801A8E2B3E0019047
:104BE0000D928A95E1F756CFC8010E94E40F882301
:104BF00009F455CFEE2009F452CF80912E03803274
:104C000088F0209128033091290339872887DB8693
:104C1000CA8690912C039C871D868E87CE010896AC
:104C20000E94F81D87E0F801A8E2B3E001900D9220
:104C30008A95E1F70E94A7240ECF80912E03982F2A
:104C4000907F09F47BCF772009F405CF20912903C9
:104C5000F8019181291311C0209128039081291313
:104C60000CC0E1100AC08683C8010E94F81D87E0CD
:104C7000D5011D928A95E9F70DCFC8010E94E40F76
:104C8000882309F40CCFEE2009F409CF80912E037C
:104C9000803240F220912803309129033A832983FE
:104CA000DC82CB8290912C039D831E828F83CE0168
:104CB0000196B6CF60E088E293E00E9407100E9460
:104CC00021068816990608F04EC0772009F4C3CE55
:104CD000FE2CEE2009F4E3CE90912903F8018181A6
:104CE000981333C090912803808198132EC080912F
:104CF0002A0390912B03C81AD90A60E088E293E056
:104D00000E9407108A32F2E29F0709F464CF8C32C6
:104D1000914409F460CF8BE7C816D10408F05BCF4B
:104D200080912E0380FD57CF982F907F09F453CFA9
:104D3000D80116968C931697903F09F449CF982F77
:104D4000907F905F8F70892B41CFC8010E94E40F44
:104D5000811168CF80912E03816080932E03C8015A
:104D60000E94F81D97CE87E0F50111928A95E9F728
:104D700091CEABE1B0E0EFEBF6E20C942F334E8B2B
:104D80005F8B688F798F8A8F9B8F91111092DD04D2
:104D90001D8A86E0FE017696DE011F9601900D9237
:104DA0008A95E1F78B89882329F061E0CE010F967F
:104DB0000E94071087E0FE013F96DE0118960190E1
:104DC0000D928A95E1F7CE0108960E940C2581117B
:104DD0000CC087E0FE013896DE01119601900D921D
:104DE0008A95E1F78C8581110BC017E080913F0512
:104DF00090910605891331C06B96E3E00C944B3318
:104E00002091060530E0C9010196877099274091ED
:104E10003F054817190699F097E0929FD001939F9C
:104E2000B00D1124A95FBA4FFE01319601900D9289
:104E30009A95E1F7809306050E94460CD6CF0E9412
:104E4000FB171092060510923F0587E0E8E2F3E0B9
:104E5000DF011D928A95E9F7C8CF819FC001112417
:104E6000895F9A4F0E940C25882331F280913F057B
:104E700090E001968770992780933F05B7CFA6E011
:104E8000B0E0E5E4F7E20C942E330E94E1078C01D8
:104E900080913A0390913B038017910781F019822A
:104EA0001A820E94E107682F49815A81792F80E098
:104EB00090E00E94B92610933B0300933A03269694
:104EC000E4E00C944A33A4E0B0E0E9E6F7E20C94A5
:104ED0002F334091510350915203609153037091CD
:104EE00054032FB7F8948091E8049091E904A091BD
:104EF000EA04B091EB042FBF841B950BA60BB70BF4
:104F000011E084369105A105B10570F10E94990E5A
:104F10006E5F7F4F8F4F9F4F69837A838B839C8314
:104F200080911701909118018B5A9C4F4091160166
:104F300050E04530510510F044E050E0BE016F5F95
:104F40007F4F0E94013482E090E00E94AA32182F25
:104F5000882351F00E94D507609351037093520348
:104F60008093530390935403812F2496E3E00C9491
:104F70004B33A9E0B0E0EFEBF7E20C942E3388E07E
:104F8000E9E6F5E0DE01119601900D928A95E1F7D0
:104F900080910804898749E050E06FE573E0CE0115
:104FA00001960E94F43300916803109169032091E7
:104FB0006A0330916B03EFB7F8944091E804509185
:104FC000E9046091EA047091EB04EFBF401B510BC0
:104FD000620B730B443651056105710518F411E03D
:104FE000892B21F180911F01909120018B5A9C4FB8
:104FF00040911E0150E04A30510510F049E050E068
:10500000BE016F5F7F4F0E94013483E090E00E94F9
:10501000AA32182F882351F00E94D50760936803A5
:105020007093690380936A0390936B03812F299691
:10503000E4E00C944A33EF92FF921F93CF93DF93F7
:1050400000D000D000D0CDB7DEB77B0190E080E08B
:105050000E94AA32182F882309F480C040910901C8
:1050600050E04115510511F041E050E060910A0116
:1050700070910B016B5A7C4FCE0106960E94013451
:1050800040914D0350914E0360914F037091500336
:105090002FB7F8948091E8049091E904A091EA0474
:1050A000B091EB042FBF841B950BA60BB70B843676
:1050B0009105A105B10540F486E593E00E945106F3
:1050C0009E81891709F44AC081E090E00E94AA32CB
:1050D000811116C010E085E0E8E4F3E0D70101900B
:1050E0000D928A95E1F7812F26960FB6F894DEBFD0
:1050F0000FBECDBFDF91CF911F91FF90EF9008952C
:105100004091110150E04630510510F045E050E06B
:1051100060911201709113016B5A7C4FCE01019680
:105120000E94013486E593E00E9451069E81891316
:10513000D1CF0E94D50760934D0370934E038093A7
:105140004F039093500385E0FE013196A8E4B3E04D
:1051500001900D928A95E1F711E0BDCF85E0E6E57B
:10516000F3E0DE01119601900D928A95E1F711119D
:10517000EACFB1CFA8E0B0E0E0ECF8E20C94303335
:1051800066EE7EEF90E080E00E94563460E082E0C0
:1051900090E00E94383460E083E090E00E94383470
:1051A0001092390360E074E184E090E00E9456348C
:1051B00060E086E090E00E9438346FEF87E090E096
:1051C0000E94383440E050E0BA0188E090E00E944C
:1051D0004A3460E084E290E00E94383460E087E185
:1051E00090E00E94383460E08CE090E00E94383417
:1051F00060E08DE090E00E94383419821A821B82B0
:105200001C821D821E821F82188648E050E068E1E1
:1052100070E0CE0101960E94283440E050E0BA01CF
:1052200080E290E00E944A3480E00E94420F0E9497
:105230005B0F40E050E0BA018FE090E00E944A34FA
:1052400040E050E0BA0183E190E00E944A342896A1
:10525000E2E00C944C331F920F920FB60F92112480
:105260002F933F934F935F936F937F938F939F936E
:10527000AF93BF93CF93DF93EF93FF93D091E90068
:10528000DF708091EC00C82FC17080FDC0E81092E3
:10529000E9008091F000877F8093F00078940E946D
:1052A00011181092E9008091F00088608093F0005E
:1052B000CD2BCF70C093E900FF91EF91DF91CF919B
:1052C000BF91AF919F918F917F916F915F914F911E
:1052D0003F912F910F900FBE0F901F9018951F9226
:1052E0000F920FB60F9211242F933F934F935F931A
:1052F0006F937F938F939F93AF93BF93EF93FF939E
:105300008091E10082FF15C08091E20082FF11C010
:105310008091E1008B7F8093E1002091EE042F5F6C
:10532000822F62E30E945733992309F4C0C020936F
:10533000EE048091DA0080FF28C08091D80080FFC1
:1053400024C08091DA008E7F8093DA008091D900AA
:1053500080FFE3C080E189BD82E189BD09B400FE20
:10536000FDCF81E08093FC0481EA99E00E947F05F3
:105370008091EF04811109C00E9468060E9409070C
:105380008091E20084608093E2008091E10080FFE0
:105390001BC08091E20080FF17C08091E2008E7FE9
:1053A0008093E2008091E20080618093E20080912E
:1053B000D80080628093D80019BC85E08093FC04FB
:1053C00089EA99E00E947F058091E10084FF2FC067
:1053D0008091E20084FF2BC080E189BD82E189BD1C
:1053E00089B5982F917080FFFBCF8091D8008F7D79
:1053F0008093D8008091E1008F7E8093E1008091BE
:10540000E2008F7E8093E2008091E20081608093D1
:10541000E2008091FD04882309F489C084E0809330
:10542000FC048DEA99E00E947F058091FC04809144
:10543000E10083FF2BC08091E20083FF27C08091B1
:10544000E100877F8093E10082E08093FC0410926A
:10545000FD048091E1008E7F8093E1008091E20065
:105460008E7F8093E2008091E20080618093E20071
:1054700042E060E080E00E94D7068091F000886002
:105480008093F00081EB99E00E947F05FF91EF91FE
:10549000BF91AF919F918F917F916F915F914F914C
:1054A0003F912F910F900FBE0F901F901895109263
:1054B000EE048091ED04882309F43BCF8091FC0435
:1054C0008430C1F49091E9009F702091EC00822F0C
:1054D000817020FD80E8892B95E09093E900909100
:1054E000EB0090FF04C09091EE0097FD08C08F7014
:1054F0008093E9001092ED041CCF1092F10090917E
:10550000E80095FDFACF9091E80090FFF0CF9091E0
:10551000E8009E779093E800EACF19BC1092FC0453
:1055200085EA99E00E947F051092EF042ECF8091CA
:10553000E30087FD93E09093FC0473CF78941F926F
:105540001FB61F9211248F939F93AF93BF938091A7
:10555000E8049091E904A091EA04B091EB0401966B
:10556000A11DB11D8093E8049093E904A093EA047F
:10557000B093EB04BF91AF919F918F911F901FBE8D
:105580001F9018951F921FB61F9211248F939F93FF
:10559000AF93BF938091E704811113C08091E80419
:1055A0009091E904A091EA04B091EB044196A11D09
:1055B000B11D8093E8049093E904A093EA04B093AA
:1055C000EB04BF91AF919F918F911F901FBE1F90D1
:1055D0001895CDB7DEB7E0970FB6F894DEBF0FBED3
:1055E000CDBF85B7806885BF85B7806885BF84B724
:1055F000877F84BF0FB6F894A8958091600088617A
:1056000080936000109260000FBE80E890E00FB6BB
:10561000F89480936100909361000FBE82E69DE054
:1056200090930503809304030E9468060E94090773
:105630008091E20084608093E20078948091FC0481
:105640008823A1F01091E9001F709091EC00892F40
:10565000817090FD80E8182B1092E9008091E8009D
:1056600083FD0E9411181F701093E90082E084BD31
:1056700093E095BD9AEF97BD80936E0010926C03F6
:1056800010926D0310926E0310926F030E943210FD
:10569000811102C00E945B0F55985D988FE891E0E0
:1056A0000197F1F700C000000E944B09809331017F
:1056B0000E94650E81110E94BE31809131018111DD
:1056C0002CC085E0EEE6F1E0DE01919601900D92AE
:1056D0008A95E1F789A180932C018AA180932D01FD
:1056E0008BA180932E018CA180932F018DA180939B
:1056F000300186E0E3E7F1E0DE01119601900D92C2
:105700008A95E1F7FE013196A6E2B1E0CE01079657
:1057100021912D93E817F907D9F78091310195E090
:10572000811190E090937B0385E0891B80937A033D
:105730000CE211E0D8018D918D018F3F11F00E9494
:10574000040AB1E001331B07A9F706E211E0F801F2
:1057500081918F018F3F11F00E94040AF1E00C3219
:105760001F07A9F78AE0ECE8F3E0DF01282F1D927C
:105770002A95E9F7E0E7F3E0DF011D928A95E9F762
:105780000E949415811102C00E94BA2882E090E024
:105790000E941A348093090484E090E00E9422342D
:1057A00090937E0380937D030E94A015BFEFE6E7F0
:1057B000F1E0B150E040F040E1F700C000000E948D
:1057C000A01580918C0380FF08C06FEF7FEF90E001
:1057D00080E00E9456340E941A0E83E090E00E94FE
:1057E0001A340E940E0D109240058FEF9FEF909398
:1057F0005A058093590590935C0580935B059093BF
:105800005E0580935D059093600580935F0590939E
:10581000620580936105909364058093630590937E
:1058200066058093650590936805809367051092DF
:10583000D7039093F1038093F0039093F303809345
:10584000F2039093F5038093F4039093F70380930E
:10585000F6039093F9038093F8039093FB038093EE
:10586000FA039093FD038093FC039093FF038093CE
:10587000FE030E949415811110C08091090480FFDD
:1058800008C084E094E09F938F930E9418060F90C5
:105890000F900E94BA280E948F1181E080930A0421
:1058A00048E050E068E170E089E695E00E940A3443
:1058B00010920A04809169058C7F71F4809109042B
:1058C00080FF08C08FEA93E09F938F930E94180691
:1058D0000F900F900E948F118091090480FF89C062
:1058E00085E993E09F938F930E94180680910904A5
:1058F0000F900F9080FF7DC08091690583701F928B
:105900008F9386E793E09F938F930E941806809170
:1059100009040F900F900F900F9080FF6AC0809144
:105920006905869586951F928F9389E593E09F93ED
:105930008F930E941806809109040F900F900F908A
:105940000F9080FF56C080916A051F928F938BE362
:1059500093E09F938F930E941806809109040F9003
:105960000F900F900F9080FF44C080916B051F92A5
:105970008F938DE193E09F938F930E9418068091FF
:1059800009040F900F900F900F9080FF32C080910C
:105990006C051F928F938FEF92E09F938F930E94DD
:1059A0001806809109040F900F900F900F9080FFC0
:1059B00020C080916D051F928F9381EE92E09F939E
:1059C0008F930E941806809109040F900F900F90FA
:1059D0000F9080FF0EC080916E051F928F9383EC15
:1059E00092E09F938F930E9418060F900F900F9054
:1059F0000F900E94650E811102C00E94C13182E3A6
:105A000091E09093E4048093E3048CE893E02AE02F
:105A1000280F28AB8091FC048530A9F486E394E03C
:105A20000E947F0520E4F22EEE24E39400E112E1CF
:105A30008091FC04853009F4A4C00E94FB170E94E9
:105A4000880E109208040E94A0158FE793E098A793
:105A50008FA3ACE8B3E0BAA7A9A729E833E0FC011B
:105A600091918D912E173F0709F4D0C09817C1F37B
:105A70008091090481FD5EC10E94650E782EF12C93
:105A8000512C412CA9A5BAA5BD90BAA7A9A7EFA1F1
:105A9000F8A58191F8A7EFA38B1509F4EBC18B252D
:105AA0008BA76201E12CAA24A3948BA58A2109F477
:105AB000D5C12B2C2A207720A1F0E9A2FAA20E94BE
:105AC000E1079CA38BA3F1E0FDA391E0211001C0AD
:105AD00090E09EA349A15AA16BA17CA18DA10E9437
