:100000000C9442050C94AD310C947A050C947A054D
:100010000C947A050C947A050C947A050C947A0564
:100020000C947A050C947A050C9420290C94DC2805
:100030000C94732A0C947A050C947A050C947A0526
:100040000C947A050C947A050C947A050C947A0534
:100050000C947A050C944F2A0C947A050C947A052A
:100060000C947A050C947A050C947A050C947A0514
:100070000C947A050C947A050C947A050C947A0504
:100080000C947A050C947A050C947A050C947A05F4
:100090000C947A050C947A050C947A050C947A05E4
:1000A0000C947A050C947A050C947A050631FF09B4
:1000B00074A1010975150026FF00952075088102BD
:1000C0000976150026FF00952075089102C00501EC
:1000D0000980A101850319012AB700150126B7007F
:1000E000950175108100C0050C0901A10185041955
:1000F000012AA002150126A002950175108100C0F9
:100100000660FF0961A1010962150026FF00952024
:10011000750881020963150026FF00952075089176
:1001200002C005010906A101050719E029E715002C
:100130002501950875018102950175088101050762
:10014000190029FF150026FF009506750881000596
:10015000081901290595057501910295017503910D
:1001600001C0010143010432337C010111007075AB
:10017000626C69632073746174696320766F69646B
:10018000206D61696E28537472696E675B5D2061D2
:1001900072677329207B7D0101500101280053798A
:1001A0007374656D2E6F75742E7072696E74662827
:1001B0002222293B010150010150010150005379D5
:1001C0007374656D2E6F75742E7072696E746C6EBB
:1001D000282222293B010150010150010150005306
:1001E000797374656D2E6F75742E7072696E7428D4
:1001F0002222293B010150010150010150004D45CF
:1002000048280048595052280054657374696E6735
:1002100020312C20322C20332E2E2E2020205465ED
:100220007374696E6720312C20322C20332E2E2ED1
:100230000044454255473A2064697361626C6564C5
:100240002E0A0044454255473A20656E61626C654E
:10025000642E0A004F6E6573686F743A2061637490
:100260006976653A2025640A000A00253032582054
:10027000006B6579626F6172645F7265706F727432
:100280003A200054617267657420636F6E6E656317
:100290007465640D0A005461726765742064697343
:1002A000636F6E6E65637465642C207468726F741E
:1002B000746C696E6720636F6E6E656374696F6ED0
:1002C00020617474656D7074730D0A004661696C09
:1002D000656420746F206578656375746520257387
:1002E0000A007267625F6D61747269785F636F6E36
:1002F0006669672E666C616773203D2025640A007D
:100300007267625F6D61747269785F636F6E666950
:10031000672E7370656564203D2025640A0072674E
:10032000625F6D61747269785F636F6E6669672E74
:100330006873762E76203D2025640A007267625F1E
:100340006D61747269785F636F6E6669672E68733A
:10035000762E73203D2025640A007267625F6D610E
:10036000747269785F636F6E6669672E6873762E44
:1003700068203D2025640A007267625F6D617472B7
:1003800069785F636F6E6669672E6D6F6465203D87
:100390002025640A007267625F6D61747269785F1C
:1003A000636F6E6669672E656E61626C65203D20C5
:1003B00025640A007267625F6D61747269785F63B9
:1003C0006F6E66696720454550524F4D0A0072674F
:1003D000625F6D61747269785F696E69745F64727F
:1003E0006976657273207267625F6D617472697895
:1003F0005F636F6E6669672E6D6F6465203D2030A8
:100400002E2057726974652064656661756C74206E
:1004100076616C75657320746F20454550524F4D61
:100420002E0A007267625F6D61747269785F696E2F
:1004300069745F64726976657273206565636F6E57
:10044000666967206973206E6F7420656E61626CE7
:1004500065642E0A005B735D000A00253038620077
:100460003A200025303258000A722F632030313292
:1004700033343536370A000A0025303258006C65AF
:10048000645F7461736B3A20000001010101010196
:10049000010101020202020202020202030303033B
:1004A000030303030404040404040405050505050B
:1004B00006060606060707070707080808080909C9
:1004C00009090A0A0A0B0B0B0C0C0C0D0D0D0E0E74
:1004D0000E0F0F0F10101111111212131314141507
:1004E0001516161717181819191A1A1B1B1C1D1D7B
:1004F0001E1E1F20202122222324242526262728D1
:1005000029292A2B2C2D2D2E2F3031323233343500
:10051000363738393A3B3C3D3E3F40414243444503
:10052000464748494A4C4D4E4F50515354555658E2
:10053000595A5B5D5E5F616264656668696B6C6D8C
:100540006F7072737577787A7B7D7E808283858702
:10055000888A8C8E8F91939596989A9C9EA0A2A340
:10056000A5A7A9ABADAFB1B3B5B7BABCBEC0C2C445
:10057000C6C9CBCDCFD1D4D6D8DBDDDFE2E4E7E905
:10058000EBEEF0F3F5F8FAFDFF6565636F6E6669F3
:10059000675F7570646174655F7267625F6D6174D7
:1005A0007269785F64656661756C740A007267626F
:1005B000206D617472697820746F67676C65205B69
:1005C00025735D3A207267625F6D61747269785F4E
:1005D000636F6E6669672E656E61626C65203D2093
:1005E00025750A00726762206D6174726978206DEA
:1005F0006F6465205B25735D3A2025750A0072677C
:1006000062206D61747269782073657420687376F6
:10061000205B25735D3A2025752C25752C25750AE0
:1006200000726762206D617472697820736574204E
:100630007370656564205B25735D3A2025750A003B
:1006400000000000000000000000000000000000AA
:10065000000000000000000000000000000000009A
:10066000000000007E0F00D4FFFFFFC700000078ED
:1006700000000000000000002A2B280000000000FD
:100680000000000000000000000000290000000041
:100690002C1E3420212224342627252E362D3738AF
:1006A000271E1F202122232425263333362E3738B8
:1006B0001F0405060708090A0B0C0D0E0F10111276
:1006C000131415161718191A1B1C1D2F3130232D42
:1006D000350405060708090A0B0C0D0E0F10111240
:1006E000131415161718191A1B1C1D2F3130354CF1
:1006F00029001E001F002000210022002E001400EF
:100700001A000900130005002D0004001500160052
:1007100017000A002F001D001B000600070019002B
:1007200000000000E200E0002A224C4100572700B0
:100730002600250024002300350033001C0018008B
:100740000F000D00340012000C0008001100100012
:1007500030003800370036000B000E0000000000AB
:10076000015702572C412B3245003A003B003C0018
:100770003D003E002E0246004B005200490028007A
:100780002D022602500051004F0027022F021E02A8
:100790004E004A004D00240200000000010001004C
:1007A00001002A00010043004200410040003F00D8
:1007B00035022E00260025002400310034023302C9
:1007C00023002200210025023002270020001F0004
:1007D0001E00310200000000440001002C00010056
:1007E00045023A023B023C023D023E022378227857
:1007F000BC00A900BB00217824782778AD00AA00AE
:10080000AE002978007C2878AC00A800AB002A78DC
:10081000000000000100010001000100010043028E
:100820004202410240023F0200774D7E497E487EEF
:10083000477E4A7E01774E7E467E457E447E4B7ED5
:10084000407E4F7E437E427E417E4C7E0000000013
:100850006152010020780100290F1E0F1F0F200F89
:10086000210F220F2E0F140F1A0F090F130F050F50
:100870002D0F040F150F160F170F0A0F2F0F1D0F37
:100880001B0F060F070F190F0000000001000100E9
:10089000010001000100270F260F250F240F230F51
:1008A000350F330F1C0F180F0F0F0D0F340F120FD2
:1008B0000C0F080F280F100F300F380F370F360F9F
:1008C0000B0F0E0F0000000062520100010001003A
:1008D00029001E001F002000210022002B00140010
:1008E0001A00080015001700E000040016000700B9
:1008F00009000A00E1001D001B00060019000500A8
:10090000000000000100010001004A000100270072
:1009100026002500240023004C00130012000C00C8
:1009200018001C00340033000F000E000D000B00F7
:10093000E50038003700360010001100000000000C
:10094000015701002C414D0029001E001F0020000E
:10095000210022002B0014001A00080015001700C7
:10096000E00004001600070009000A00E1001D0075
:100970001B00060019000500000000000100010036
:100980002A224A0001002700260025002400230017
:100990004C00130012000C0018001C00340033003F
:1009A0000F000E000D000B00E50038003700360088
:1009B0001000110000000000015701002C414D0003
:1009C0005B435D005B445D005B535D005B575D0016
:1009D0005B525D0009027B00040100A0FA090400DB
:1009E000000103010100092111010001224000075B
:1009F0000581030800010904010002030000000949
:100A000021110100012222000705820320000107B5
:100A1000050303200001090402000103000000098E
:100A20002111010001223200070584032000010981
:100A30000403000203000000092111010001222229
:100A400000070585032000010705050320000112AA
:100A50000100020000000810CB56631006010200DE
:100A6000010C035600690072006900730000000E5B
:100A7000034B0065006500620069006F0000000420
:100A80000309040011241FBECFEFDAE0DEBFCDBFA3
:100A900004B603FE18C08091630590916405A0918F
:100AA0006505B09166058730904BA740B04B59F46F
:100AB0001092630510926405109265051092660508
:100AC000E0E0F8E3099525E0A4E0B3E001C01D9261
:100AD000A336B207E1F713E0A0E0B1E0EEEEF9E6ED
:100AE00002C005900D92A430B107D9F70E949A2A4E
:100AF0000C9468340C940000FF93EF93E09104038E
:100B0000F0910503309709F00995EF91FF91089551
:100B1000FC018591803011F0EFDFFBCF0895FF27B6
:100B2000E0E230E247FF0CC0419597FF09C0EDE2DB
:100B30006095709580959095611D711D811D911D29
:100B400027FF02C0219530E350E2AA27660F771FE6
:100B5000881F991FAA1FA41710F0A41B63955A950C
:100B6000A9F7AA3008F0A95FA05DAF93F3956115CE
:100B700071058105910541F7ED3211F4EF93F3957D
:100B8000F21718F43F93F395FBCF8F91B5DFFA95E9
:100B9000E1F70895E991F9918591803021F085324E
:100BA00019F0AADFF9CF089520E0E8945591553265
:100BB000C1F3503311F4689455915A3348F45053AB
:100BC00090F3220F022E220F220F200D250FF4CFBB
:100BD0000EF4219589919991533619F3533729F1E0
:100BE000533559F1BC0188279927E8945C3621F4E4
:100BF0008991999168945591543639F446EF7EF075
:100C000077FF0DC08FEF9FEF0AC055374AE039F0EC
:100C1000583540E121F0523642E009F00895FF9343
:100C2000EF937DDFEF91FF91B7CFFF93EF93FC013F
:100C300081918030B9F360DFFBCFFF93EF9368DFE2
:100C4000F1CFDF93CF93CDB7DEB72596A3DFCF915A
:100C5000DF910895FC01AC014B5F5F4F8FEF91E393
:100C60002191822728E030E087FF09C0880F89277B
:100C700021503109C9F7E417F50791F70895880F56
:100C8000F7CFE8EDF0E080818E7F80831092E20064
:100C90001092DA001092E100A0EEB0E08C91816039
:100CA0008C9380818F77808319BCA7EDB0E08C9105
:100CB0008E7F8C9380818F7E808310921A05089599
:100CC0002091E4003091E50095E6A9012091EC0027
:100CD000822F817020FF06C08091E80080FF06C04F
:100CE00080E008952091E80022FD1AC08091270538
:100CF000882389F0853089F08091EB0085FD0FC055
:100D00002091E4003091E50042175307F9F2915029
:100D1000E1F684E0089582E0089583E0089581E09B
:100D200008958091290587FF13C08091E80082FF14
:100D300006C08091E8008B778093E80004C0809122
:100D400027058111F2CF0895809127058823D9F3D3
:100D50008091E80080FFF8CF8091E8008E77ECCF9B
:100D6000982F9093E900242F762F50E0891731F0C7
:100D70007091EC002091ED005091F00021FD07C032
:100D80009F5F973071F78093E90081E0089530917B
:100D9000EB003E7F3093EB003091ED003D7F3093D0
:100DA000ED003091EB0031603093EB007093EC007C
:100DB0002093ED005093F0002091EE0027FDE0CF4E
:100DC00080E00895B0E0A0E0E8EEF6E00C94D332C5
:100DD000C8EDD0E088818F7E8883E7EDF0E08081E8
:100DE0008160808384E082BF81E080931A058881DE
:100DF0008E7F888302EE10E0F80110821092DA00F4
:100E000081EEC82ED12CF601108288818F778883DD
:100E100088818068888388818F7D888319BC10923F
:100E2000270510922805109226051092250590EEB0
:100E3000E92EF12CF70180818B7F8083888181608E
:100E4000888342E060E080E00E94B006F601808185
:100E50008E7F8083F80180818160808380818860BB
:100E60008083F70180818E7F808388818061888381
:100E7000CDB7DEB7E8E00C94EF32FC0180912F058E
:100E80009091300586179707A0F06115710529F438
:100E90009091E8009E779093E80090E061157105CD
:100EA00051F4911108C08091E80082FF34C080E0C5
:100EB0000895BC01F2CF809127058823C1F18530C8
:100EC000C1F18091E80083FD30C08091E80082FD8F
:100ED000EACF8091E80080FFE1CF8091F30020917C
:100EE000F200382F6115710519F02830310558F0DE
:100EF00091E02830310509F090E02091E8002E774C
:100F00002093E800CBCF81918093F100615071096B
:100F10002F5F3F4FE7CF80912705882341F0853031
:100F200041F08091E80083FFBECF81E0089582E028
:100F3000089583E00895089580911C0508959C010B
:100F40004FB7F8948091130590911405A091150561
:100F5000B09116054FBF821B930B08952FB7F894DD
:100F600060911305709114058091150590911605F7
:100F70002FBF08952FB7F894809113059091140511
:100F8000A0911505B09116052FBF08959C01FC0195
:100F900032969FEF80E04191461751F09F3F19F440
:100FA000411101C0982F8F5F8630A9F79F3F09F448
:100FB0000895290F311D97FD3A95F901628308952F
:100FC000A3E0B0E0E6EEF7E00C94D93220911005F2
:100FD0003091110528173907A1F0909311058093DE
:100FE0001005E0910E05F0910F05309751F024E0C7
:100FF00029839B838A830680F781E02DCE010196A9
:1010000009952396E2E00C94F532A3E0B0E0EBE022
:10101000F8E00C94D93220910C0530910D05281779
:101020003907A1F090930D0580930C05E0910E0512
:10103000F0910F05309751F023E029839B838A8339
:101040000680F781E02DCE01019609952396E2E016
:101050000C94F532FA01811101C0FB010995089544
:101060008093650180915A058370809364010E948A
:101070003C0E83E080936601089522E8241B08F467
:1010800020E0620F08954095282F429F412D1124A2
:10109000842F08950E9429090895FF920F931F93AA
:1010A000CF93DF93182F062FF42ED0E0C0E02F2D22
:1010B000402F612FCE010E944A082196C434D105E9
:1010C000B1F7CDB7DEB7E5E00C94F232E42FF0E0F3
:1010D000EE0FFF1FE85CFD4F408134EE439F412D32
:1010E0001124E82FF0E050E0445E5F4FDA01A21BCC
:1010F000B1099D01B7FF03C031952195310993E0F6
:10110000220F331F9A95E1F7AF01421B530B9A014F
:1011100057FD20E0582F259F212D1124822F08955F
:10112000AF92BF92CF92DF92FF920F931F93CF9314
:10113000DF93362F472FE82FF0E0E757FB4F711171
:101140000FC0E4918E2F2E2F6E2F722FDF91CF9133
:101150001F910F91FF90DF90CF90BF90AF900895B7
:10116000C72FD0E02491F22E022F10E056E0659FA9
:10117000C0011124EFEFF0E0BF010E940C33832F78
:1011800090E0880F991F35E5369FD001379FB00D4D
:1011900011248A1B9B0B982F990F980F6F01CC1A63
:1011A000DD0AC09ED001C19EB00DD09EB00D1124AD
:1011B0008B2F499FA0011124452F55276F01C41A79
:1011C000D50AC09EA001C19E500DD09E500D112485
:1011D0005F01A91AB108AC9E6001AD9ED00CBC9E07
:1011E000D00C1124CD2CDD24EC19FD09E09FE00189
:1011F000E19FD00DF09FD00D1124ED2F62307105CD
:10120000A1F050F46115710509F49ECF61307105AC
:1012100081F0EB2F852F98CF6430710569F080F055
:101220006630710509F490CFF4CFE22F2B2F8D2F6C
:101230008BCFE22F252F88CFEB2F822F2D2F84CF1E
:101240002B2F8F2DE52F80CF89B185FB882780F943
:101250000895FF920F931F93CF93DF93EC01F62E27
:10126000042F122F0E94240981110FC0C232D10510
:101270007CF0A297FE01EE0FFF1FEC0FFD1FE75C55
:10128000FB4FF1820083128303C0C232D10594F375
:10129000CDB7DEB7E5E00C94F232CF93C82F0E94B1
:1012A0002409882329F081E0C23228F080E003C0BD
:1012B00081E0C434D8F7CF910895B0E0A0E0E3E630
:1012C000F9E00C94D1327C01C09168018EE0C89F96
:1012D000C02D11241EE01C0F153408F014E40E94E8
:1012E0002409882319F0133208F012E20E9424091D
:1012F000811103C0C23208F4C2E220915E0531E0E0
:10130000230F08F42FEF30E050E040E06FEF7FEF65
:1013100080E090E00E9405346901D0E001E0B12C4A
:10132000A12C2C2FC11740F0812F0E944D09CDB761
:10133000DEB7EAE00C94ED32FE01E054FD4F80810F
:1013400090916901892329F1809131058150082EFE
:10135000000C990B87FF1FC0B60130915E05300F5E
:1013600008F43FEFA501639F412D739F400D511D70
:10137000112460915B0570915C0580915D05F7011A
:1013800009950E949008462F282F672FCE010E94B2
:101390004A082196C6CFFC01EF5CFA4F318932131F
:1013A0000AC0FC01EE0FFF1FEF5CFA4F618D728DDA
:1013B0006C157D0590F20197CDCFF894E82FE2955A
:1013C000EF70F0E031A1282F2F7081E090E001C094
:1013D000880F2A95EAF7982F9095932391A392A1CD
:1013E000892B82A3789408959091AB0392FF06C055
:1013F000282F28712830F9F4877F846093FF06C076
:10140000282F28712831F1F4877E84612091AC0364
:1014100020FF06C0382F38713830D9F4877F8160BB
:1014200021FF06C0282F28712831D1F4877E8161E1
:1014300094FD877E0895282F24712430F9F68B7F40
:101440008860DCCF282F2471243101F78B7E8861DE
:10145000DDCF382F3171313019F78E7F8860E0CFC2
:10146000282F2171213121F78E7E8861E1CF8238CA
:101470009105B9F1B0F48133910509F47DC048F4C8
:101480008932910509F46DC08A32910509F47BC057
:1014900008958533910509F45FC08933910509F1F9
:1014A0000895833E9105D9F138F4803E910529F1E4
:1014B000823E910579F10895863E9105D9F1873EE6
:1014C000910509F43EC0843E910541F52091AC039D
:1014D00021FF24C08091AB0384FD19C087EE90E00A
:1014E00008952091AB03237009F05AC02091AC03FA
:1014F00023FF14C089E290E008952091AB0320FD02
:1015000038C03091AC0330FF09C024FF43C090E0E5
:1015100080E008952091AB0322FDF7CF089520913C
:10152000AB0322FD3AC03091AC0330FD39C024FF3B
:10153000F5CFEDCF2091AB0323FFF0CF24FDE7CF14
:10154000CDCF2091AB0323FD2EC03091AC0331FFF2
:10155000EECF84EE90E008952091AB0325FFDECF1F
:10156000C9CF2091AB0325FD21C02091AC0323FFFF
:10157000D5CF89E390E0D2CF2091AB0326FFCECF29
:101580008AE290E008952091AB0326FFC7CF81E364
:1015900090E0089583EE90E0089582EE90E0089543
:1015A00080EE90E0089586EE90E0089585E390E067
:1015B00008951F93CF93DF930E94370AEC01C11562
:1015C00080E5D807F0F5C11580E4D80708F09CC085
:1015D000C03ED10520F5CD3CD10508F082C0C83A07
:1015E000D10578F4C53AD10508F073C0C130D105F2
:1015F00019F1209709F1C430D105F0F4D0E0C0E032
:101600001BC0C33CD105D0F7C85AD0E0CC0FDD1FBA
:10161000C855DE4F0990D881C02DD4640DC0C115C6
:1016200080E2D80708F0D1C0C11581E0D80708F0E2
:101630005AC0C83ED10510F7CE01DF91CF911F915E
:101640000895C03682E5D80718F5C03482E5D8077A
:1016500008F06BC0C03282E5D80708F05FC0C11542
:1016600082E5D80708F497C02C2F2695269580E2AE
:10167000289F900111248C2F8370C1E0D0E002C01C
:10168000CC0FDD1F8A95E2F7C22BD32BDD68D4CFB8
:10169000C03A82E5D80760F4C03882E5D80708F47C
:1016A00059C0CF71D0E0DC2FCC27C46FD06AC4CF33
:1016B000C03C82E5D80708F462C0C03E82E5D80786
:1016C00008F09CCFDC2FCC27CC27DF71C06FD06A0D
:1016D000B3CFC55AD0E0CB55DE4FC881D0E0D0643F
:1016E000ABCFD065A9CF8D2F0E94F409182FCE0162
:1016F00099270E94370AC12FD0E0DC2FCC27CC27B6
:10170000DF71C82BD92B98CFCE0199270E94370AB9
:10171000CC27DF70C82BD92BD06A8ECFCF71D0E009
:10172000DC2FCC27C16FD06A87CF2C2F269526952A
:10173000277080E2289F900111248C2F8370C1E0D4
:10174000D0E002C0CC0FDD1F8A95E2F7C22BD32B6D
:10175000DC6872CF2C2F26952695277080E2289F73
:10176000900111248C2F8370C1E0D0E002C0CC0F17
:10177000DD1F8A95E2F7C22BD32BDA685DCF8C2F61
:101780008F710E94F409C82FD0E0DC2FCC27CC2722
:10179000DF71D06251CF8C2F8F710E94F40955E018
:1017A000D695C7955A95E1F7CF70D0E0DC2FCC27BE
:1017B000282F30E084FF05C044E0220F331F4A95F4
:1017C000E1F7C22BD32BD06937CF8D2F8F710E94B9
:1017D000F409182FCE0199270E94370AC12FD0E0B3
:1017E000DC2FCC27CC27DF71C82BD92BD2CF80910F
:1017F0006803811110926803089580910705811193
:101800000FC0109209050E94F70B0E94BA07885773
:101810009C4E909306058093050581E08093070513
:101820000895809590910805982390930805089550
:10183000809590910905982390930905089520912A
:101840005E0390912D0356E0291302C080E00895B5
:1018500030E0529FF001539FF00D1124E25DFC4FE8
:101860007181761306C07081781303C0728174137E
:1018700004C02F5F3F4F2770E7CF81E0089580912C
:101880005E0390912D03981301C008958F5F8770B8
:10189000FACF292F9A3078F5863068F590E036E057
:1018A000239F800D911D1124682F677023E096956A
:1018B00087952A95E1F7FC01EE0FFF1FE80FF91F4E
:1018C000E15FFC4F50E040E080E0219130E0062EE7
:1018D00002C0369527950A94E2F721703327042E2B
:1018E00001C0220F0A94EAF7822B4F5F5F4F43300B
:1018F000510559F7089580E00895292F9A3098F5F9
:10190000863088F590E036E0239F800D911D1124EC
:10191000282F277041E001C0440F2A95EAF723E001
:10192000969587952A95E1F7FC01EE0FFF1FE80FCA
:10193000F91FE15FFC4F30E020E070E05191DF01E2
:101940001197CB01022E02C0969587950A94E2F773
:10195000817081958527842385278C932F5F3F4F46
:101960002330310559F708958093AA030895909183
:10197000AA0321E030E0F90101C0EE0F8A95EAF7F1
:10198000D90102C0AA0FBB1F6A95E2F7EA2B01C07A
:10199000220F4A95EAF7892F8E23E81305C0292BD9
:1019A000822F0E94B40C089520952923F9CF21E0BD
:1019B00030E001C0220F8A95EAF720958091AA03B2
:1019C00082230E94B40C089590915F03809589232F
:1019D00080935F03282F277091F4282F082E000C86
:1019E000330B9217130659F09091AC0392FF07C086
:1019F0008595859585950E94D70C10925F03089573
:101A000021E030E001C0220F8A95EAF78091AA0315
:101A1000822B0E94B40C08958093690308958295E7
:101A200090E09C01220F331F220F331F2C7C9595D1
:101A30008795959587958373282B30E0C901880F8A
:101A4000991F8A7A359527952575822B08959C01D3
:101A5000832F817031FD82600895FC019281913065
:101A600049F4858182FF02C080FF1EC080FF1CC038
:101A700083E00895923049F4858182FF02C080FF9F
:101A800015C080FD15C084E00895933049F4858128
:101A900082FF02C080FF0EC080FD0EC087E0089567
:101AA000943060F481E0089582E0089586E008951E
:101AB00085E0089589E0089588E008958AE0089512
:101AC0009FB7F894109218059FBF90912705943006
:101AD00009F048C02091E9002F703091EC00932F5D
:101AE000917030FD90E8922B25E02093E900209141
:101AF000EB0020FF34C02091EE0027FF30C0209182
:101B00001705222321F02091E80025FF28C010921C
:101B1000170526E03091E80035FF14C08093F100EE
:101B20008091E80085FD27C08091E80080FFFCCF10
:101B30008091E8008E778093E8009F709093E90091
:101B400080E0089530912705343049F43091EB005E
:101B500035FD05C0215041F481E0809317059F7049
:101B60009093E9008FEF0895EFE9FFE03197F1F7E7
:101B700000C00000CFCF8FB7F89421E02093180564
:101B80008FBFDBCF0F931F93CF93DF938B01EA01BE
:101B900090912705943061F58093E9008FEF909143
:101BA000E800815095FD06C095ED9A95F1F700008B
:101BB0008111F5CF8091E80085FF1AC00E94600670
:101BC000811111C08091E80085FD06C08091E80078
:101BD0008E778093E800F2CFF80181918F01809396
:101BE000F100219779F78091E8008E778093E800E3
:101BF000DF91CF911F910F91089543E050E0BC0118
:101C000084E00E94C20D0895CF93DF93EC0148E079
:101C100050E0BC0181E00E94C20D88E0FE01ADE110
:101C2000B5E001900D928A95E1F7DF91CF9108958B
:101C300081E08093E00080E28093D8001092C90098
:101C40008FE19EE40197F1F700C0000087E090EB80
:101C5000DC018093630590936405A0936505B093C0
:101C6000660588E19CE00FB6F894A8958093600023
:101C70000FBE90936000FFCF6E9A3EB13F7B2EB1B6
:101C800020644FB7F89489E394E0FC015191CF01AF
:101C900068E02EB9000000C057FF3EB9550F0000A4
:101CA00000C000C000C03EB900C06A9591F7F5E0E1
:101CB00085309F0751F74FBF8FE594E00197F1F70B
:101CC00000C00000089580917603811110C08091BA
:101CD000D80080618093D8008AE18A95F1F700C02E
:101CE0008091D90080FF0AC081E08093760381E073
:101CF00090917603913009F080E0089582E080931E
:101D000076030E94410610922705F1CF0E94630ED0
:101D1000882359F0E0910E05F0910F05309729F0D6
:101D20000190F081E02D0995089580E008950F93CA
:101D30001F930E94630E882329F00E94AE071F9113
:101D40000F9108950E94AE0700919A0310919B0392
:101D500020919C0330919D03600F711F821F931F80
:101D6000EECFCF92DF92EF92FF926B017C010E9447
:101D7000630E8823A1F02FB7F8946091130570913A
:101D8000140580911505909116052FBF6C197D09DA
:101D90008E099F09FF90EF90DF90CF9008950E94E9
:101DA000970EF4CFCF93DF93C6EFD2E060E0CE0181
:101DB0000E94E1332196C11584E0D807B9F7DF917D
:101DC000CF9108951F93CF93DF93122F8630E0F4C5
:101DD0006A30D0F44630C0F4C42FD0E0CC0FDD1F01
:101DE0009CE0699FC00DD11D112498E7899FC00D0B
:101DF000D11D1124632FCE0186960E94E133612FFD
:101E0000CE0187960E94E133DF91CF911F91089513
:101E1000AF92BF92CF92DF92EF92FF921F93CF9338
:101E2000DF9380EFC82E86E0D82ED0E07601C0E0A8
:101E300014C0F50125913491412F6C2F8D2F0E94F4
:101E4000E20E82E0A80EB11C1F5F163091F78CE005
:101E5000E80EF11CCF5FCA3019F0570110E0E9CF4E
:101E6000DF5F88E7C80ED11CD63001F7DF91CF9134
:101E70001F91FF90EF90DF90CF90BF90AF900895AB
:101E8000CF93C82F6FEF811163E282E290E00E944E
:101E9000E1336FEFC11164E083E290E00E94E1332F
:101EA0006FEFC11166E084E290E00E94E133CF91D0
:101EB000089580E00E94400F60E085E290E00E947B
:101EC000E1330E94080F0E94D20E81E00E94400F71
:101ED00008950F931F93CF93DF93863030F56A30C8
:101EE00020F5463010F5C42FD0E0CC0FDD1F2CE0DC
:101EF000629FC00DD11D112438E7839FC00DD11DF5
:101F00001124CE0186960E94C333082F10E0102FB3
:101F10000027CE0187960E94C3339801282BC90160
:101F2000DF91CF911F910F91089590E080E0F8CF5D
:101F3000462F7A3040F4663030F4863020F4672F34
:101F40000E94690F089590E080E00895CF92DF929B
:101F5000FF920F931F93CF93DF936C010091AA031D
:101F600080916903082BC5E0D0E010E0FC2EC80189
:101F70000C2E02C0959587950A94E2F780FD0CC05F
:101F80002197A0F7F12C8F2DDF91CF911F910F9109
:101F9000FF90DF90CF900895B6018C2F0E94980F8C
:101FA0000E94D90A019761F3EECFCF93DF93EC0142
:101FB0000E94A60FBE010E94980F0E94D90ADF91CD
:101FC000CF910895FC0183819481892B29F0808130
:101FD000918189238F3F51F480E00895843FE1F798
:101FE00017C0883EA8F0813FB9F712C08081918167
:101FF0000E94D50F92959F70963099F358F4925F96
:102000009F70923048F7803F19F040F7883E20F7E4
:1020100081E008959A5FF4CFA5E0B0E0E2E1F0E15D
:102020000C94D83225E0FC01DE01119601900D924E
:102030002A95E1F7FC01228189819A81222399F076
:10204000662389F00E94A60F182F682F89819A8134
:102050000E947D0C69817A81812F0E94980F2596BC
:10206000E3E00C94F4320E94490C182FF3CF82E283
:1020700090E00E94C333833289F483E290E00E94AF
:10208000C333843059F484E290E00E94C33391E07A
:10209000863009F090E0892F8170089580E0FCCFB0
:1020A00046E050E06CE170E08AE595E00E94D133B3
:1020B00010923804089580935E0590913804962B11
:1020C000909338049091370490FF16C029E731E0CF
:1020D000662311F02BE731E01F928F933F932F93EC
:1020E00081E296E09F938F930E9421060F900F90BC
:1020F0000F900F900F900F90089580915E0520E152
:10210000382F321B08F430E0832F61E00E945B100F
:10211000089580915E0520E1382F320F08F43FEFDB
:10212000832F61E00E945B10089530915A0533704F
:1021300071F180935B0560935C05493708F048E7CF
:1021400040935D0530913804322B30933804309140
:10215000370430FF1CC050E09927211119C029E72E
:1021600031E05F934F931F926F939F938F933F93B1
:102170002F938EEF95E09F938F930E9421068DB74A
:102180009EB70A960FB6F8949EBF0FBE8DBF0895F6
:102190002BE731E0E6CFEAE5F5E0438120E1421BA1
:1021A00008F440E0818121E0628190E00E94951076
:1021B0000895EAE5F5E0438120E1420F08F44FEF8E
:1021C000818121E0628190E00E9495100895EAE506
:1021D000F5E0628120E1621B08F460E0818121E08A
:1021E000438190E00E9495100895EAE5F5E0628150
:1021F00020E1620F08F46FEF818121E0438190E0DC
:102200000E9495100895EAE5F5E0818121E043817F
:1022100062818850990B0E9495100895EAE5F5E0D7
:10222000818190E021E04381628108960E949510AF
:10223000089590915A05937051F1811129C09460CD
:1022400090935A051092660180913804862B8093F2
:1022500038048091370480FF1AC020915A052695D2
:10226000269589E791E0662311F08BE791E01F92B4
:102270002F939F938F9384EE95E09F938F930E946B
:1022800021060F900F900F900F900F900F900895D0
:10229000883010F09C61D4CF880F880F982BD0CF56
:1022A00080915A0586958695815009F487E061E012
:1022B0000E941911089580915A05869586958F5F21
:1022C000883008F081E061E00E9419110895909132
:1022D0005A05292F237031E023279C7F922B90935E
:1022E0005A051092660190913804982B9093380407
:1022F0009091370490FF14C0811113C089E791E0D9
:102300001F922F939F938F938DEA95E09F938F93C6
:102310000E9421060F900F900F900F900F900F903A
:1023200008958BE791E0ECCF8091370480FF08C0DF
:1023300089E895E09F938F930E9421060F900F905C
:102340008DE080935A0580916B0190916C01A09172
:102350006D0180935B0590935C05A0935D0588E714
:1023600080935E058FEF80935F050E945010089563
:10237000B0E0A0E0EEEBF1E10C94CE327C015B0129
:10238000842E752E69018091770301E010E08A3078
:1023900010F40AE010E0C1E0D0E0B501C701F60199
:1023A0000995982E811114C021960C171D07B4F4BD
:1023B0008091370480FF0CC07F928F928CEC92E06A
:1023C0009F938F930E9421060F900F900F900F9074
:1023D000892DCDB7DEB7EDE00C94EA32CC9F9001A9
:1023E000CD9F300D300D112490E080E045E34A95FB
:1023F000F1F70000019628173907C1F7CECFB0E0FA
:10240000A0E0E5E0F2E10C94CC32182F8091650158
:10241000811323C090915A0593702091640130E09C
:1024200081E09217130609F480E0817080936A01BD
:1024300080915F0590916901981739F08093690147
:1024400040E060E080E00E944D08183060F4E12F29
:10245000F0E0E659FB4C0C94343381E0E6CF8091F8
:102460006A01811102C080E0A0C040E060E080E02D
:102470000E944D08F8CFC09168018EE0C89FC02D22
:1024800011240EE00C0F053408F004E40E94240926
:10249000882319F0033208F002E20E942409811116
:1024A00003C0C23208F4C2E260915B0570915C0522
:1024B00080915D050E949008F62EE72ED82ED0E080
:1024C000C01710F0802F6FC0FE01E054FD4F8081D7
:1024D00090916901892331F02D2D4F2D6E2DCE0164
:1024E0000E944A082196ECCFE0906801DEE0ED9E64
:1024F000D02D1124CEE0CD0FC53408F0C4E40E94E5
:102500002409882319F0C33208F0C2E20E9424098A
:10251000811103C0D23208F4D2E260915B05709160
:102520005C0540915D05E0913204F09133048091A7
:102530005E0586958695869530E020E0E89F212D02
:10254000F89F200D311D1124922F96FD2095322FDA
:102550003F7096FD3F5F2695269526952670E22FC3
:10256000F0E0E052FE4F8181839F802D312D1124B8
:1025700082958F703295307F832B2081820F97FD5B
:10258000819587FD8195880F282F249F212D112467
:10259000822F0E949008062FD72EC82EED2EF12CE8
:1025A000EC16D8F08C2F0E944D09909168019F5F26
:1025B0009093680181110CC082E080936601809144
:1025C0006A01811105C0111103C083E08093660187
:1025D000CDB7DEB7EFE00C94E832F701E054FD4FE1
:1025E000808190916901892331F02C2D402F6D2D30
:1025F000C7010E944A084FEFE41AF40AD1CFC091F4
:1026000068018EE0C89FC02D11240EE00C0F053428
:1026100008F004E40E942409882319F0033208F02A
:1026200002E20E942409811103C0C23208F4C2E20E
:1026300030915E053695369521E0320F08F43FEF74
:10264000409132045091330490E080E0439F812D0B
:10265000539F800D911D1124F82ED0E0C01708F073
:1026600031CFFE01E054FD4F8081909169018923B3
:1026700091F060915B0570915C0580915D052F2D57
:102680004C2F0E9466080E949008462F282F672F23
:10269000CE010E944A082196E1CFE09068018EE0C9
:1026A000E89EE02C11247EE0F72EFE0C94E49F15AA
:1026B00010F464E4F62E0E942409882329F0A2E293
:1026C000AF1510F452E2F52E0E942409811105C0C5
:1026D000B2E2EB1610F442E2E42E80916A01882304
:1026E00061F040E060E080E00E944D08E9ECF3E03A
:1026F0008CE3DF011D928A95E9F7809168018111D1
:1027000015C08091C5039091C6030E949F0721E0E8
:102710008931910508F420E02093C403499730F0F3
:102720000E94BA079093C6038093C503A12C912CF5
:10273000B12C96E0792E25E5622E3AEA832E5524B7
:10274000539405C0ADE0A91508F453C0B12C2B2D4E
:1027500030E07A9CE0011124FE01E450FE4FE20FCC
:10276000F31FC080CE1408F43CC0CF1408F039C069
:102770009394D12CF601E054FD4F80819091690132
:10278000892309F42EC0C753DC4FC20FD31F088121
:10279000302F262D321B08F430E070915C05282D77
:1027A000200F08F42FEF40915D05822F880F820FD4
:1027B0008E5F282F249F212D1124822F682D631BCB
:1027C0000E949008462F282F672FC6010E944A08B2
:1027D0008091C403882329F0452D041B08F400E0F0
:1027E0000883B39486E0B812B2CFA3949AE0A912FA
:1027F000A9CF8F2DD8CE00915D05B3E00B9FE001EE
:102800001124D695C795D695C7955C2EA02EB12CD0
:102810008FEF90E0B5010E942033762E80916A01FF
:10282000882371F040E060E080E00E944D08E9EC10
:10283000F3E08CE3DF011D928A95E9F71092C8035B
:102840008091C7038F5F8093C703F12CE12CAC1AF2
:10285000BD0A6701612CD701A753BC4F4D01809180
:10286000C803862909F045C00E948D3385359540FF
:102870000CF03FC0F4010083F601E450FE4FE0810C
:10288000EF3FD1F0D601A753BC4F2C91F0E0521688
:1028900008F040C030E02C1B3D0B2C9FC0012D9F49
:1028A000900D3C9F900D1124B5010E940C33262FF2
:1028B000402FCF010E944A086394F6E0CF0ED11C4E
:1028C0002AE06212CCCF4FEFE41AF40A86E0E81651
:1028D000F10409F0BECF8091C703781202C01092B4
:1028E000C7038091C8038F5F8D31F0F48093C803D4
:1028F000BACDF601E753FC4F8081882309F4BCCFA1
:10290000801708F0B9CF9091C7037912B5CF8150E5
:102910008083B2CF029FC0011124BE010E940C33FC
:10292000462F20E060E0C5CF1092C80329EF33E0C6
:1029300089E09FEF900FE9ECF3E0D901893021F4B1
:1029400046A9041301C096AB4D91401730F0ED013C
:102950002197988315960C931597319643E0EF3C99
:10296000F40761F78150265031098111E4CF7BCD06
:1029700083E498E00E945D0918CE8DE398E0FACFD9
:102980004F925F926F927F928F929F92AF92BF927F
:10299000CF92DF92EF92FF9260912E0470912F04FC
:1029A00080913004909131040E94B10E6B017C0142
:1029B0000E94970E4B015C0180922E0490922F048E
:1029C000A0923004B0923104A0910504E5E0F4E057
:1029D0008A2F90E04FEF5FEF60E070E04C195D09E7
:1029E0006E097F09A91328C08093050480913604DD
:1029F000811135C090915A05892F837019F0892F64
:102A00008695869590916601913009F441C099238D
:102A100041F1923009F43FC0933009F43FC0FF9078
:102A2000EF90DF90CF90BF90AF909F908F907F906E
:102A30006F905F904F900895218D328D2901712CF8
:102A4000612C441555056605770520F481509F5F7C
:102A50003296C8CF2C0D3D1D328F218FF8CF80E0EC
:102A6000D1CF109268018092320490923304A092E8
:102A70003404B092350489E2E5E0F4E0A1E3B5E086
:102A800001900D928A95E1F781E080936601C7CFAE
:102A90000E94FF11C4CF0E943008C1CF809138043A
:102AA00081110E9450106091320470913304809122
:102AB0003404909135040E94B10E60317105810596
:102AC000910508F4ACCF10926601A9CFCF93C82F1F
:102AD0008091AC0382FB992790F99C17F9F0C0FB19
:102AE00082F98093AC036091AB037091AC0384E0F6
:102AF00090E00E94FF3382E00E94E40C8091370452
:102B000080FF0CC01F92CF9384E592E09F938F9338
:102B10000E9421060F900F900F900F90CF91089573
:102B200090E080E00E94CB33873E9E4F19F40E94D4
:102B30003710089580E00895AFE0B0E0E2EAF5E1F3
:102B40000C94CE328E010F5F1F4F8AE0D8011D9288
:102B50008A95E9F78CE2C82E81E0D82EF12CE12C81
:102B6000AA24A394B12C2CE2822E21E0922EF6010D
:102B700081916F018F3F09F442C0F894E82FE295EC
:102B8000EF70F0E021A18F70A50102C0440F551F26
:102B90008A95E2F7CA01922F982B91A392A1809572
:102BA000892382A3789400C0E6E2F1E0712C31E041
:102BB00021912F3F09F46BC0A22FA295AF70B0E016
:102BC00090968C9190E02F7002C0959587952A95EC
:102BD000E2F780FD5CC0832F782A330F8E169F06A4
:102BE00039F7F601319780818F3F11F00E94DD099E
:102BF00050EA5A95F1F7F801EE0DFF1D70828FEF44
:102C0000E81AF80AA5E0EA16F10409F0B0CF4AE0A4
:102C100050E0B8018EE993E00E949D33009741F0A7
:102C20002AE0F801AEE9B3E001900D922A95E1F7B0
:102C30000091A903892B69F181E080936E030E94C2
:102C4000BA0790936D0380936C0380916C0390910D
:102C50006D030E949F07059700F110E006541C4F7A
:102C600045E050E06EE973E0C8010E949D33C12C3D
:102C7000892B51F085E0EEE9F3E0D80101900D9247
:102C80008A95E1F7CC24C39410926E0307C080E0CC
:102C9000A3CF80916E038111D8CFC12C0E94630E07
:102CA000D82EE091A903882309F492C07E01BBE0ED
:102CB000EB0EF11C85E0D7011D928A95E9F70E2FE6
:102CC00010E006541C4FB0907703B9E0BB15E0F15B
:102CD0002BED37E242E851E0B701C8010E94B8117C
:102CE000882309F453C023E237E24FE851E0B701EB
:102CF000C8010E94B811882309F448C029E737E2C7
:102D00004AE951E0B701C8010E94B8118823F1F1E6
:102D1000F9E0FB1508F453C0109277038091A803E3
:102D200090E045E050E0B70186549C4F0E949D33EF
:102D300021E020937503892BE1F4D12C8D2D8C2972
:102D40002F96EDE00C94EA3280916F03909170031E
:102D50000E949F07843F914008F0BACF809175038D
:102D6000882359F385E0D7011D928A95E9F71092DF
:102D70007503A091A803B0E0A654BC4F85E0FE0106
:102D80003B9601900D928A95E1F7D8CF8091770319
:102D90008F3F31F08F5F809377038A3008F4BECF86
:102DA0000E94BA079093700380936F038091370459
:102DB00080FFD4CF86E992E00E948805CFCF809132
:102DC000370480FFA9CF83E892E00E948805A4CF52
:102DD000F0E0E654FC4F85E0A6E8B3E001900D92E8
:102DE0008A95E1F786E893E00E942A06809385039E
:102DF00080908B0390908C03A0908D03B0908E03F5
:102E00008091710390917203A0917303B091740348
:102E100088169906AA06BB06D1F08092710390929B
:102E20007203A0927303B09274030E94630E811127
:102E30000EC00E94AE07861A970AA80AB90A8092A5
:102E40009A0390929B03A0929C03B0929D0386E00C
:102E5000EFE8F3E0AAE5B5E001900D928A95E1F77D
:102E600010919503112349F080913604811105C01A
:102E70000E94FF1180E00E943008109336045ECF5C
:102E80000F931F93CF93DF938091090590910805CD
:102E9000892B8093060390916803992391F0892BE5
:102EA0008093060320E088E093E0FC013191CF019C
:102EB00031112F5FF3E08E309F07B9F721110E9487
:102EC000F70B48E050E060E673E086E093E00E9494
:102ED0009D33892B09F441C088E0E6E0F3E0A0E6E9
:102EE000B3E001900D928A95E1F7E0910E05F09123
:102EF0000F05309791F10280F381E02D86E093E099
:102F000009958091370482FF28C080FF04C081E7C3
:102F100092E00E948805D0E0C0E00BE612E08091CC
:102F2000370480FF0EC0FE01EA5FFC4F80811F92D4
:102F30008F931F930F930E9421060F900F900F9075
:102F40000F902196C830D10551F78091370480FF4A
:102F500004C089E692E00E948805DF91CF911F911D
:102F60000F910895CF93DF93EC01EA85FB853097AD
:102F700019F06C857D8509958B810E94110C8C81DF
:102F80000E94180C0E94401786E0FE0111928A955B
:102F9000E9F7DF91CF910895CF93DF93EC018D8115
:102FA00081FD18C082608D83809108059B81892BEB
:102FB00080930805809109059C81892B80930905E0
:102FC0000E944017E885F985309721F06C857D8552
:102FD000CE01099510920B0510920A058D8180FD96
:102FE00003C0CE010E94B217DF91CF9108951092D5
:102FF0000905E8E0F3E086E0DF011D928A95E9F734
:1030000090E080E00E94050890E080E00E94E007E8
:10301000109208050E9440170895AAE2B0E0E3E18B
:10302000F8E10C94D83289E295E02091F100DC01BE
:103030002D93CD01B5E081339B07B9F780912A0527
:10304000833009F472C0B8F4813009F449C0823089
:1030500009F4B3C08091E80083FF91C280912905F3
:1030600090912A059A3008F08AC2E92FF0E0EE58D4
:10307000FB4C0C9434338A3009F48EC08B3009F445
:1030800071C0893039F780912905813219F7809113
:103090002D0590912E05009711F00297D9F6809199
:1030A000E800877F8093E8008091E80082FF38C0C5
:1030B0009091F3008091F200029731F48091F10039
:1030C000813011F0863021F48091F10080931C054D
:1030D0008091E8008B778093E8000E949106BACF38
:1030E00080912905813A09F0B5CF8091E800877F6A
:1030F0008093E80080912D0590912E05892B61F435
:1031000068E08DE195E070E00E943D078091E80065
:103110008B778093E8009ECF60E090E080E0F3CF73
:10312000809127058111C0CF95CF80912905813AE3
:1031300009F090CF80912D0590912E05892B09F0F3
:1031400089CF8091E800877F8093E8008091E80034
:1031500080FFFCCF809167018093F1008091E800AF
:103160008E77B9CF80912905813209F073CF809194
:103170002D0590912E05892B09F06CCF8091E800E8
:10318000877F8093E8000E94910680912B058093B1
:1031900067010E94F7175ECF80912905813209F0FF
:1031A00059CF8091E800877F8093E8000E949106C4
:1031B00080912C0580931B054DCF80912905813A84
:1031C00009F048CF8091E800877F8093E8008091E4
:1031D000E80080FFFCCF80911B05BECF803899F0BE
:1031E000823809F0CCC180912D058F70873008F0AE
:1031F000C6C18093E9008091EB0085FB882780F9A8
:103200001092E90006C08091250590912605911144
:1032100082609091E800977F9093E8008093F1009E
:103220001092F1008091E8008E77A5C1882309F4FF
:1032300093C1823009F0A3C180912B05811196C101
:1032400080912D058F702FEF280F263008F097C141
:103250008093E9002091EB0020FF88C1933031F486
:103260008091EB0080628093EB0080C19091EB0035
:1032700090619093EB0021E030E001C0220F8A952D
:10328000EAF72093EA001092EA008091EB00886050
:10329000EACF811174C110912B051F778091E30053
:1032A0008078812B8093E3008091E800877F809372
:1032B000E8000E9491068091E80080FFFCCF809199
:1032C000E30080688093E30082E0111183E0809343
:1032D000270555C18058823008F051C120912B0537
:1032E00030912C052C3DE3E03E07A1F583E08A8375
:1032F0008AE289834FB7F894DE01139620E03EE01E
:1033000051E2E32FF0E050935700E49120FF03C017
:10331000E295EF703F5FEF708E2F90E0EA30C0F0E3
:10332000C7968D939D932F5F243159F74FBF80919E
:10333000E800877F8093E8006AE270E0CE010196A2
:103340000E943D078091E8008B778093E80017C1C9
:10335000C096E7CF80912D0590912E05432F5527DC
:103360004330510509F44AC078F54130510509F45C
:103370007AC08BE790E0E4EDF9E04230510509F0C6
:10338000FEC02091E800277F2093E80020912F05C0
:10339000309130058217930708F49C0140E0211515
:1033A000310509F065C0411163C08091E80082FDDC
:1033B000C9CF80912705882329F2853019F28091A1
:1033C000E80083FFF2CFBECF4132510509F43CC083
:1033D0004232510509F0D3C08430910508F0CFC0C6
:1033E000FC01EE0FFF1FE451FE4F0190F081E02D34
:1033F00088519E4FDC018C9190E01AC03327213018
:103400003105D1F02115310561F02230310509F087
:10341000B6C0E1E6FAE0E4918E2F90E0E1E6FAE052
:1034200007C0EFE7FAE0E4918E2F90E0EFE7FAE0D3
:10343000009709F4A4C0A5CFEFE6FAE0E4918E2F3F
:1034400090E0EFE6FAE0F4CF8430910508F097C001
:10345000880F991FFC01EC50FE4F0190F081E02D88
:1034600089E090E08ECF82E190E0EFE4FAE089CF4E
:1034700080912705882309F465CF853009F462CF50
:103480008091E80083FD5ECF8091E80082FD8DCFC2
:103490008091E80080FF83CF9091F3008091F2004B
:1034A0002115310519F08830910550F041E0089759
:1034B00009F040E08091E8008E778093E8006FCFBC
:1034C00044914093F1003196215031090196E8CFA3
:1034D000803809F054C08091E800877F8093E8002D
:1034E000809128058093F1009DCE811148C01091F4
:1034F0002B05123008F043C08091E800877F80934D
:10350000E800109328050E949106112311F084E031
:1035100005C08091E30087FDFACF81E08093270505
:1035200042E061EC81E00E94B00642E261EC84E09E
:103530000E94B00642E261EC82E00E94B00642E2E4
:1035400060EC83E00E94B00642E261EC85E00E94FC
:10355000B0068091270513C080912B05813079F446
:1035600081E0933009F080E0809326051092E90015
:103570008091E800877F8093E8000E949106809107
:10358000E80083FF0AC08091E800877F8093E8000D
:103590008091EB0080628093EB00AA96E3E00C94AC
:1035A000F4320E94F7172FEF84E39CE02150804013
:1035B0009040E1F700C0000088E19CE00FB6F8946D
:1035C000A895809360000FBE90936000FFCF882382
:1035D00021F00E94110C0E94401708958091070568
:1035E000882329F082E20E94E71A109207050895C5
:1035F000882339F090910805982B909308050E9434
:1036000040170895882321F00E94180C0E9440174B
:103610000895882339F090910905982B9093090516
:103620000E9440170895882391F19CEF980F913ADA
:1036300080F4E8E0F3E02EE033E09191891303C0D9
:10364000DF0111971C922E173F07B9F70E94401710
:10365000089590E2980F983050F4877091E001C07F
:10366000990F8A95EAF7892F0E94180CEFCF9BE5F6
:10367000980F933028F490E080E00E9405080895A8
:10368000885A8B3120F490E080E00E94E007089592
:1036900080910501843069F040F4833071F081E05D
:1036A0000E94D70C109205010895853069F086308C
:1036B000B1F789E30E94131BF2CF84E00E94021B42
:1036C00081E00E94D70CEBCF85E0F8CF8091050117
:1036D000843061F038F4823069F0833079F01092F0
:1036E00005010895853071F08630C9F784E00E94A5
:1036F000000DF5CF87EE0E94131BF1CF80E80E94EA
:10370000021BEDCF80E80E94021B81E00E94D70CD3
:10371000E6CFCF93C82F8823B1F08CEF8C0F813A7E
:1037200000F5E8E0F3E08EE093E0DF012D91C217B1
:1037300061F08A179B07D1F76C2F86E093E00E9417
:10374000C6070E944017CF9108952191C21303C06C
:10375000DF0111971C928E179F07B9F70E9440173F
:10376000EBCF80E28C0F883068F4C77021E030E046
:1037700001C0220FCA95EAF780910905822B809338
:103780000905DFCFEBE5EC0FE33040F4F0E0EB555B
:10379000FE4F808190E00E940508D5CFC85ACB31FA
:1037A00090F6EC2FF0E0EE0FFF1FE855FE4F808102
:1037B00091810E94E007C7CF1F93CF93DF93182F0B
:1037C000D0E0C0E0893311F4C0E5D0E0812F0E9441
:1037D000891B209739F4812F0E94131BDF91CF9111
:1037E0001F9108958FE99FE00197F1F700C0000055
:1037F0002197EFCF0F931F93CF93DF93C62FD42F33
:10380000022FFC0182818823A9F0609362050E9447
:10381000BA079093610580936005C77081E001C08D
:10382000880FCA95EAF70E94091BDF91CF911F917B
:103830000F91089580916205681332C080916005F0
:10384000909161050E949F078F3A910548F510E21B
:103850001D0FCD17B9F080E28C0F883040F4C7708F
:1038600081E001C0880FCA95EAF70E94021B183058
:1038700048F481E09D2F977001C0880F9A95EAF770
:103880000E94091B802F0E94DC1B183070F6D77035
:1038900081E001C0880FDA95EAF70E94021BC5CFCC
:1038A000C77081E001C0880FCA95EAF7F6CFB0E093
:1038B000A0E0EDE5FCE10C94D432E82FF0E0E05913
:1038C000F94FD490282F26952695269530E0F901BA
:1038D000E05AF94F0491877010E0082E02C0159548
:1038E00007950A94E2F701701127F901E05BF94F9F
:1038F000E490F12C082E02C0F594E7940A94E2F7C4
:1039000091E0E922FF24F901E05CF94FC491D0E095
:1039100002C0D595C7958A95E2F7C170DD270115DC
:10392000110519F081EE0E94891BE114F10419F0D0
:1039300086EE0E94891B8D2D0E94DC1BE114F10490
:1039400019F086EE0E94131B0115110519F081EE86
:103950000E94131BCD2B19F08CE20E94DC1BCDB70B
:10396000DEB7E7E00C94F032FF920F931F93CF93F2
:10397000DF938C018AE0F82EF8018491882309F402
:103980004BC0813009F044C0E8012196FE018491CA
:10399000813049F42196FE0184910E94DC1B8E0146
:1039A0000F5F1F4FE9CF823039F4E8012296FE0104
:1039B00084910E94891BF3CF833039F4E801229669
:1039C000FE0184910E94131BEACF843041F7E80185
:1039D0002296FE01249190E080E0FE013196205372
:1039E000330B2A30310548F00197C8F2EFE9FFE0C8
:1039F0003197F1F700C00000F7CFF89EA001F99EC3
:103A0000500D1124C901840F951F2491EF01E5CFBA
:103A10000E94571CE801C3CFCDB7DEB7E5E00C9498
:103A2000F232E0910501E250E83038F5F0E0E45878
:103A3000FB4C0C94343388E20E94131B109209054E
:103A400010920501089582E00E94D70CF7CF83E021
:103A5000FBCF88E20E94131B88E20E94DC1BEECFA2
:103A600085E0F2CF80E00E94000DE8CF88E20E945E
:103A7000131B88E20E94DC1BEFCF88E20E94DC1B54
:103A8000F8CFFC0182818150990B039718F088E2EE
:103A90000E94DC1B08950F931F93CF93DF93C82FD1
:103AA0008B010E94270DD82F0E94F81A8C2F0E949C
:103AB000891B0115110559F48C2F0E94131B8D2FA2
:103AC0000E94E71ADF91CF911F910F9108958FE91E
:103AD0009FE00197F1F700C0000001501109E9CF04
:103AE0000E942D0D809305018430F1F028F482307E
:103AF00041F0833081F008958530A1F08630A1F047
:103B0000089580910705882319F00E94EE1A089500
:103B10000E94FD0B089584E00E94091B81E00E9431
:103B2000000D089585E0F8CF0E94EE1A89E30E9407
:103B3000891B08950E942D0D809305018430D1F0DA
:103B400028F4823041F0833051F00895853059F0E7
:103B5000863081F0089587EE0E94891B089580E8E1
:103B60000E94091B089580E80E94091B81E00E94C1
:103B7000000D089581E00E94D70C82E00E94D70CCE
:103B800083E00E94D70C85E00E94D70C08950E9424
:103B90002D0D8093050182508830C0F4E82FF0E0AD
:103BA000EC57FB4C0C94343388E20E94891B089537
:103BB00082E00E94000D089583E0FBCF85E0F9CFFD
:103BC00081E00E94D70C84E00E94D70C0895A8E001
:103BD000B0E0EDEEFDE10C94CF327C01DC011396F8
:103BE0008D919C911497892B39F08C9111969C9111
:103BF00089238F3F09F0B6C52896ECE00C94EB3290
:103C0000C114B4E0DB0681F1C6010E94C333811107
:103C100001C00150EFEFCE1ADE0AE8C5650184301D
:103C200009F018C602E010E06501FFEFCF1ADF0AC5
:103C3000C5010E94C333E1E0F0E0EC0FFD1FE00F8F
:103C4000F11F8083882381F08C3741F4E2E0F0E0BB
:103C5000EC0FFD1FE00FF11F1082FCC50F5F1F4F1F
:103C600056010730110501F780915F03877021F23B
:103C7000D70112968C91882309F4BECF8091AC03B2
:103C800082FFBACF82E00E94E40CB6CF6801E2C5A1
:103C9000923029F40E5F1F4F0E94891BF1C59330AB
:103CA00029F40E5F1F4F0E94131BEAC5943019F0D0
:103CB0000F5F1F4FE5C50E5F1F4F30E020E0B801DA
:103CC0006F5F7F4FF80141818053990B8A309105D6
:103CD00058F02150310908F4D3C58FE99FE00197CE
:103CE000F1F700C00000F5CF929EF001939EF00D19
:103CF00011249C012E0F3F1F842F8B01E0CF0E94C7
:103D0000571CBEC589E092E00E94B41C12C08823F3
:103D100081F083E092E00E94B41C70E060E08FE4E8
:103D200091E00E944B1D70E060E087E292E00E940B
:103D30004B1DC80197558F3F910511F008F0B1C098
:103D40005801BB24AEE00A9FF00111249F01265CBC
:103D50003E4F6901D70112968C91E15CFE4F908134
:103D600080FB90F99083882309F493C00E94BA07DE
:103D70009093B8038093B703F60182818F5F8283AB
:103D80008091080590910905892B838380916803B0
:103D900084830680F781E02D309731F0D6011C96A0
:103DA0006D917C91C60109958EE08A9DF0018B9DF5
:103DB000F00D1124E65CFE4F858181FF67C090E025
:103DC00080E090930A0580930B0580910705882376
:103DD00009F4DCC0C0900905D09068030E94BA07BE
:103DE00088579C4E9093060580930505F7018281C4
:103DF000882309F4CBC08D2D8C298D7909F0C4C09E
:103E00000034F2E51F0708F07FC0011522E5120714
:103E100008F089C0011530E4130708F057C00115F8
:103E200080E2180708F0A4C0063E110509F47BC023
:103E3000C80159C0882309F47CCF8EEF91E06BCF85
:103E4000882309F476CF70E060E087E391E06FCFDC
:103E5000882309F46ECF8FED91E056CF882309F4C3
:103E600068CF8EEB91E050CF882309F462CF8EE9C2
:103E700091E04ACF882309F45CCF8EE691E044CFED
:103E8000882309F456CF82E691E03ECF902F812F10
:103E900098CFF901858181FF98CFC9010E94B2179F
:103EA00094CF0337FCE71F0709F08FCFD701129695
:103EB0008C91882309F4D8CE80910705882319F0C6
:103EC0000E94EE1AD1CE0E94FD0BCECE011590E5D8
:103ED000190708F0ADCFD70115968C91807F09F4B2
:103EE00055C0C8019927109208058832910508F03D
:103EF0005EC08E31910508F061C0049708F444C09B
:103F000082E0809308055AC0043BA2E51A0759F0E5
:103F1000C801053BB2E51B0728F580569245803461
:103F2000910508F085CFF7018281882309F4CDC47B
:103F300010926205C8019057839708F0B0C484E0DE
:103F400090E00E94CB339093AC038093AB03F801D5
:103F5000E150F047E232F10508F058C0E457FB4C5D
:103F60000C943433805C9245809708F061CFDBCFAE
:103F7000F7018581807F09F0B4CF812F8F71823165
:103F800099F070F4823081F00E94EE1AF801E85145
:103F9000FC47E730F10538F6E255FB4C0C9434331E
:103FA0008431A1F3863181F710920805EDCF8D326F
:103FB000910509F4A5CF28F48A9731F70E9440179C
:103FC000E5CF8C349105D1F38D329240B9F3DCCF3B
:103FD00026E241EE61EEC7010E94FA1B45CE27E2C0
:103FE00045EE65EEF8CF26E241EE60EEF4CF27E233
:103FF00045EE64EEF0CF26E241EE62EEECCF27E232
:1040000045EE66EEE8CF28E241E0EBCF8091AB03CE
:1040100081608093AB0395C08091AC0388608093EE
:10402000AC038FC08091AB038260F3CF8091AB0370
:104030008460EFCF8091AB038860EBCF8091AC03BD
:104040008160EDCF8091AC038260E9CF8091AB03BA
:104050008061DFCF8091AB038062DBCF8091AB03C7
:104060008064D7CF0E94F7178091AB038068D1CFCF
:104070008091AB038C60CDCF8091AC038360CFCFB8
:104080008091AB038E7FC5CF8091AC03877FC7CF74
:104090008091AB038D7FBDCF8091AB038B7FB9CF78
:1040A0008091AB03877FB5CF8091AC038E7FB7CF74
:1040B0008091AC038D7FB3CF8091AB038F7EA9CF6E
:1040C0008091AB038F7DA5CF8091AB038F7BA1CF78
:1040D0000E94F7178091AB038F779BCF8091AB0342
:1040E000837F97CF8091AC038C7F99CF8091AB0376
:1040F00082FB992790F921E0922790FB82F990FBAF
:1041000083F987CF8091AC03982F909591708E7F23
:10411000892B90FB81F983CF9091AB03892F8F7B03
:1041200096FF806476CF0E94F7179091AB03892F9A
:1041300097FB87F980586DCF61E08EE090E00E9498
:10414000E1336091AB037091AC0384E090E00E9496
:10415000FF330E94F71788CD60E0EFCF9091AB035B
:10416000892F8F7E94FF806154CF9091AB03892F6C
:104170008E7F90FF81604DCF9091AC03892F877F18
:1041800093FF88604CCF85E3AAC3809109058272B2
:10419000F801E052F847E531F10508F044C0EB546E
:1041A000FB4C0C94343381E00E9467115DCD40E5F7
:1041B00051E16BE571E10E942A0856CD4BE551E1D2
:1041C00060E571E1F8CF43E051E16EE071E1F3CFDA
:1041D0004EE051E163E071E1EECF47EE50E165EF73
:1041E00070E1E9CF45EF50E167EE70E1E4CF4BECD1
:1041F00050E169ED70E1DFCF49ED50E16BEC70E12A
:10420000DACF4DE750E169E870E1D5CF49E850E1F8
:104210006DE770E1D0CF61E081E00E94191124CDFB
:1042200061E082E0FACF0737FCE71F0709F45AC0C4
:1042300008372CE7120709F45EC0F701828100817C
:104240001181882309F4A8C0C8010E94A60FD82EA6
:10425000682FC8010E947D0CB8018D2D0E94980F17
:104260000E94D90A8C01882ED7011296DC901297F1
:104270001596BC90B2943FE0B32280915F038770A3
:10428000F1F0AD2CDD20E1F0812F807F803451F002
:1042900080E2800F883098F0B11004C0812F807EBA
:1042A000803269F08091AC0382FF09C082E00E94F5
:1042B000E40C80915F038770AA24A3948111A12C40
:1042C000912E92942FE09222BBE0B91508F4CBC056
:1042D000E92DF0E0E653FB4C0C94343381E00E946E
:1042E000000D03C081E00E94D70C43E062E081E052
:1042F0000E94B70CB9CC82E0F6CF03303CE713073D
:10430000B9F1B0F401309CE71907C1F1F8F40115D7
:104310001C4709F092CF0E94F7173FEF84E39CE01F
:10432000315080409040E1F700C000000E94180E1C
:104330000B35ECE71E0771F10C35FCE71F0701F1A7
:104340000A351C4709F079CF81E021C090913704EC
:10435000892F8E7F90FF81608093370480FF05C096
:1043600083E492E00E9488057FCC81E392E0FACF5B
:104370006FEF7FEF90E080E00E94FF330E94D11A40
:104380008091AC0382FB882780F991E089270E9405
:10439000661553CF80E0FBCFC8010E94490CD82E90
:1043A0005BCFE12FEF70CE2E107F19F0C29490EF0B
:1043B000C922DD20B9F0CC2069F080E2800F88307E
:1043C00010F0811009C080910905C82AC092090522
:1043D0000E944017802F45C080910805C82AC092CE
:1043E0000805F6CF802F0E94131BCC20E1F1005E60
:1043F0008C2D083010F0811003C00E94180C02C0F0
:104400000E94110C0E9440172EC0F12FFF70CF2E7A
:10441000107F103219F0C29480EFC822882089F0F2
:1044200021E0821609F470C0DD2009F47AC0BB20B7
:1044300009F470C0F701858180FFCCCF8F70858330
:1044400069C02091AC0322FD38C0DD2079F1CC2079
:1044500039F080910905C82AC09209050E944017C9
:1044600080E00E94891BA92DA850BB0B149710F463
:104470000E94860EAA20A9F080915F0380FD11C0E2
:10448000F70112828595859585950E94000DC701DB
:104490000E94E71D80915F038595859585950E9413
:1044A000D70C60E0C7010E940C10A6CB80E00E94F0
:1044B000131BCC20C1F28C2DA0CFDD2099F0909160
:1044C0006803892F8C29B11003C00E94091BCBCF30
:1044D00031E0B312FACF22FFC6CF891721F28093C1
:1044E0006803C1CFB11006C00E94F70B8C2D0E944B
:1044F000021BB9CF81E0B81609F4B5CF8C2D0E940C
:10450000021B0E94F70BAFCFDD2031F095E09B1529
:1045100008F4A9CF8C2DD9CFA4E0AB1508F4A3CF14
:10452000E5CFBB2019F3F9E38F1209C02FEF37EE67
:1045300083E0215030408040E1F700C00000802F30
:104540000E94131B90CF812F86958695837061F012
:10455000813009F088CFC8019370D11002C080E08B
:1045600090E00E94E0077FCFC8019370D11002C095
:1045700080E090E00E94050876CF812F837089F556
:10458000D11071CF402F429546954770440F440F8C
:10459000802F8F70042E01C0880F0A94EAF7202F15
:1045A000207104FF07C02FE030E001C0220F4A95C0
:1045B000EAF72095169516951370123069F050F4AD
:1045C00030916903113029F0822B83230E940C0D56
:1045D0004ACF832B822BFACF282B80916903822725
:1045E000F5CF8695DD2011F0812F8170882309F4A5
:1045F0003ACF402F429546954770440F440F802F85
:104600008F70042E01C0880F0A94EAF7202F2071C2
:1046100004FF07C02FE030E001C0220F4A95EAF7FF
:104620002095169516951370123069F050F430915C
:10463000AA03113029F0822B83230E94B40C13CFDC
:10464000832B822BFACF282B8091AA038227F5CFC8
:104650001F70DD2029F0812F0E94000D802F35CFA3
:10466000802F0E94021B812F0E94D70CFCCE802F2E
:1046700092EF8916B1F1981570F0A0EF8A16D1F07B
:10468000B1EF8B1691F0DD2009F45CC0B110A2CE21
:10469000812F8F712AC0E3EF8E1651F1F4EF8F1244
:1046A000F2CF8091AC0382FD2FC0812F8F71DD206E
:1046B000D9F21BC0DD2081F024E02B1508F4D3CE05
:1046C0001F7181E090E0012E01C0880F0A94EAF783
:1046D0009091AA038927B1CF35E03B1508F4C3CEEA
:1046E000EFCF812F8F71D110BFCF0E94000DBBCEB5
:1046F00080E0DD2009F4A1CF1F7181E0012E01C00F
:10470000880F0A94EAF799CFDD2089F01F71812F75
:104710000E94000D8091AC0382FF07C0A8E01A9FA1
:10472000C0011124836080935F03812FDECF81E07D
:104730000E94E40CB1E0BB1508F095CE82E00E9427
:10474000E40C91CEBB2059F0893309F0F8CEEFEF9D
:10475000F7EE23E0E150F0402040E1F7EECE812F6C
:104760008F7182CF61E0C7010E940C108C01D701CC
:1047700012968C91882309F180910A0590910B057E
:104780000097D9F008171907C1F0BEE08B9FC00150
:104790001124FC01E15CFE4F208124602083865CB3
:1047A0009E4FFC01118300830E94CC1710920805D4
:1047B00061E0C7010E940C108C01D70112968C9108
:1047C000882309F4B6CA980137572038310508F014
:1047D00094C0003108F048CA8FEF93E00E94C333C1
:1047E000811142CA56EFC52E52E0D52E011108CADA
:1047F000FE01339686E0DF011D928A95E9F74AE0D3
:10480000942E86010F5F1F4FC6010E94C333898318
:104810001A82882309F428CA813009F037CA560160
:10482000B2E0AB0EB11CC8010E94C3338A83882357
:1048300009F41ACA9FEF980F933008F0EFC9E3E02C
:10484000CE0ED11CC5010E94C3338B83882309F48B
:104850000BCA1C828E010F5F1F4FD8018C918823D9
:1048600081F2813009F04BCA11969C9111971296F2
:104870008C91913009F00CCA0E5F1F4F0E94DC1B17
:104880000F5F1F4FEACF0737BCE71B0709F426CDA0
:104890000837ECE71E0709F030CD82E020CD063165
:1048A000FCE71F0781F7809109058A7A91E009F4F6
:1048B00090E090930E0369E2811165E386E093E056
:1048C0000E94C6070E944017CFC906312CE7120785
:1048D00009F05BCC80910E03811155CC89E2E8E0B0
:1048E000F3E02EE033E09191891303C0DF011197CB
:1048F0001C922E173F07B9F7E5CFF801E054FE47A9
:10490000EE30F10508F015CAEA52FB4C0C94343332
:104910001F93CF93DF9380912C03807F09F04BC0CE
:1049200080912903882309F446C080915E03C091D9
:104930002D03409127035091280360912A03709121
:104940002B03D42FD52316E0C817A9F190E06115E9
:104950007105A9F1DF3F99F1189FF001199FF00D42
:104960001124DF01A25DBC4F11962C9111972513E4
:1049700026C02C91241323C012962C91129721113A
:104980001EC013962D913C91261B370B2F3A3105F3
:10499000B0F480912C038F70806180932C03ED5CC8
:1049A000FC4F80818F708061808387E293E00E945A
:1049B000E71D0E943F0CDF91CF911F910895019652
:1049C0008770C2CFA1E1B0E0E8EEF4E20C94CF3200
:1049D0008C0185E0F801DE011D9601900D928A950B
:1049E000E1F7D8011296EC90129787E2882E83E0C7
:1049F000982E40912A0350912B034115510509F43B
:104A00005AC19091270320912803892F82238F3F39
:104A100009F451C1DC901196CC9011971396AD908A
:104A2000BC90F0902903F501E41BF50BFF2009F47D
:104A3000FEC080912C03382F307FEF3AF10508F04B
:104A4000C4C0311184C0FE2C2C1115C09D1113C09F
:104A5000E11011C08F70806180932C03C4010E940B
:104A6000E71D80912C03D80115968C938F2D6196AC
:104A7000ECE00C94EB32A114B104C9F18D2D8C2122
:104A80008F3FA9F181E08E2580FF05C04E2D6C2D52
:104A90008D2D0E941F0CA114B10459F18D2D8C2174
:104AA0008F3F39F181E08E25B82FB170BB2E80FF8A
:104AB00039C04E2D6C2D8D2D0E941F0CA82E8111FA
:104AC00031C0DD86CE868D859E850E94D50F292F2B
:104AD00022952F70243078F49F702230A8F099230B
:104AE000B9F0F8019581907F99F4FA2CBFCF80E05E
:104AF000CBCF80E0D9CF2A5F2F70223068F0C80179
:104B00000E94E71DAB2CF1CF992311F0882369F3A4
:104B1000805E883050F3F3CF803F38F3815F83307D
:104B200070F7E3CFEE2009F4A1CF80912C038160D0
:104B300080932C0387E293E00E94E71D86E0E7E282
:104B4000F3E0DF011D928A95E9F7F12C8FCF2C114C
:104B500012C09D1110C0E1100EC0F8018583C8017C
:104B60000E94E71D86E0F801A7E2B3E001900D92F4
:104B70008A95E1F77BCFC8010E94E20F882309F1F3
:104B8000EE20F9F080912C03803270F02091270301
:104B90003091280338872F831986BB86AA868C8795
:104BA000CE0107960E94E71D86E0F801A7E2B3E078
:104BB00001900D928A95E1F70E948824FF24F394D6
:104BC00055CFC8010E94E71DF9CF311107C087E218
:104BD00093E00E94E71D86E0D401B4CF2C110FC0F2
:104BE0009D110DC0E1100BC0F8018583C8010E9422
:104BF000E71D86E0D4011D928A95E9F737CFC801F9
:104C00000E94E20F8823E9F2EE20D9F280912C0372
:104C1000803250F220912703309128033A83298370
:104C20001B82BD82AC828E83CE010196BBCFEF3A50
:104C3000F105D8F5FE2CEE2021F22C1128C09D1193
:104C400026C060E087E293E00E940C108A32B2E254
:104C50009B0709F487CF8C32914409F483CF90915C
:104C60002C0390FD7FCF907F09F47CCF80912C03A3
:104C7000D80115968C931597903F09F470CF982F13
:104C8000907F905F8F70892B15968C9368CFC801A9
:104C90000E94E20F811188CF80912C038160809364
:104CA0002C03C8010E94E71DE1CE86E0F4011192B9
:104CB0008A95E9F7DBCEEE2009F483CFC8010E9484
:104CC000E20FF82E882309F47CCF86E0F801A7E2F2
:104CD000B3E001900D928A95E1F7809127039091BE
:104CE00028030E94D50F0E948824C0CEA7E1B0E01F
:104CF000ECE7F6E20C94D8324B8B5C8B6D8B7E8BA1
:104D00008F8B6111109208051A8A198A85E0FE01BD
:104D10007396DE011D9601900D928A95E1F786E06B
:104D2000FE013D96DE01179601900D928A95E1F7FE
:104D3000CE0107960E94E224882359F016E0809164
:104D40005E0390912D03891343C06796E3E00C94B2
:104D5000F43286E0FE013796DE01119601900D9245
:104D60008A95E1F78A859B85892B41F38F81988508
:104D700089238F3F19F320912D0330E0C90101965B
:104D80008770992740915E034817190671F40E94B5
:104D9000F71710922D0310925E0386E0E7E2F3E02E
:104DA000DF011D928A95E9F7C9CF96E0929FD00165
:104DB000939FB00D1124A25DBC4FFE01319601906E
:104DC0000D929A95E1F780932D030E943F0CB6CF88
:104DD000819FC0011124825D9C4F0E94E2248823A0
:104DE00009F4B3CF80915E0390E001968770992714
:104DF00080935E03A4CFA5E0B0E0E1E0F7E20C947D
:104E0000D7320E94BA078C0180916A0390916B039C
:104E100080179107A1F08FEF89838A831B820E94FC
:104E2000BA078160782F9D838C8349815A816B8179
:104E30008D810E94762610936B0300936A0325965A
:104E4000E4E00C94F332A4E0B0E0E9E2F7E20C9481
:104E5000D832409181035091820360918303709115
:104E600084032FB7F8948091130590911405A091B5
:104E70001505B09116052FBF841B950BA60BB70B1C
:104E800011E084369105A105B10570F10E94970EDD
:104E90006E5F7F4F8F4F9F4F69837A838B839C8395
:104EA00080911701909118018B579C4F40911601EA
:104EB00050E04530510510F044E050E0BE016F5F16
:104EC0007F4F0E94AA3382E090E00E945332182F55
:104ED000882351F00E94AE07609381037093820390
:104EE0008093830390938403812F2496E3E00C94B2
:104EF000F432A7E0B0E0EFE7F7E20C94D73286E0B7
:104F0000EAE5F5E0DE01119601900D928A95E1F750
:104F1000809136048F8347E050E06FE873E0CE0164
:104F200001960E949D330091960310919703209162
:104F3000980330919903EFB7F8944091130550917D
:104F400014056091150570911605EFBF401B510BBC
:104F5000620B730B443651056105710518F411E0BD
:104F6000892B21F180911F01909120018B579C4F3B
:104F700040911E0150E04830510510F047E050E0EC
:104F8000BE016F5F7F4F0E94AA3383E090E00E94D2
:104F90005332182F882351F00E94AE076093960376
:104FA000709397038093980390939903812F27968A
:104FB000E4E00C94F332EF92FF921F93CF93DF93D0
:104FC00000D000D000D0CDB7DEB77B0190E080E00C
:104FD0000E945332182F882309F480C040910901A0
:104FE00050E04115510511F041E050E060910A0197
:104FF00070910B016B577C4FCE0106960E94AA332D
:1050000040917D0350917E0360917F0370918003F6
:105010002FB7F8948091130590911405A091150570
:10502000B09116052FBF841B950BA60BB70B8436CA
:105030009105A105B10540F486E893E00E942A0697
:105040009E81891709F44AC081E090E00E945332A2
:10505000811116C010E085E0E8E7F3E0D701019088
:105060000D928A95E1F7812F26960FB6F894DEBF50
:105070000FBECDBFDF91CF911F91FF90EF900895AC
:105080004091110150E04630510510F045E050E0EC
:1050900060911201709113016B577C4FCE01019604
:1050A0000E94AA3386E893E00E942A069E81891313
:1050B000D1CF0E94AE0760937D0370937E038093EF
:1050C0007F039093800385E0FE013196A8E7B3E06B
:1050D00001900D928A95E1F711E0BDCF85E0E6E8F9
:1050E000F3E0DE01119601900D928A95E1F711111E
:1050F000EACFB1CF67EE7EEF90E080E00E94FF3311
:1051000060E082E090E00E94E13360E083E090E0C4
:105110000E94E1331092690360E074E184E090E062
:105120000E94FF3360E086E090E00E94E1336FEF81
:1051300087E090E00E94E13340E050E0BA0188E06F
:1051400090E00E94F33360E08DE090E00E94E13354
:1051500040E050E0BA0188E190E00E94F33360E063
:1051600087E190E00E94E13340E050E0BA018CE139
:1051700090E00E94F33370E060E080E290E00E94F3
:10518000FF3340E050E0BA0188E190E00E94F33341
:1051900080E00E94400F0E94590F40E050E0BA01A9
:1051A0008FE090E00E94F33340E050E0BA0183E1E9
:1051B00090E00E94F33308951F920F920FB60F9262
:1051C00011242F933F934F935F936F937F938F930C
:1051D0009F93AF93BF93CF93DF93EF93FF93D091C0
:1051E000E900DF708091EC00C82FC17080FDC0E83D
:1051F0001092E9008091F000877F8093F00078940E
:105200000E940D181092E9008091F0008860809350
:10521000F000CD2BCF70C093E900FF91EF91DF91AB
:10522000CF91BF91AF919F918F917F916F915F913E
:105230004F913F912F910F900FBE0F901F90189597
:105240001F920F920FB60F9211242F933F934F93FB
:105250005F936F937F938F939F93AF93BF93EF93DE
:10526000FF938091E10082FF15C08091E20082FFF0
:1052700011C08091E1008B7F8093E100209119059E
:105280002F5F822F62E30E940033992309F4C0C08C
:10529000209319058091DA0080FF28C08091D80002
:1052A00080FF24C08091DA008E7F8093DA008091A5
:1052B000D90080FFE3C080E189BD82E189BD09B4E6
:1052C00000FEFDCF81E08093270580EC99E00E94ED
:1052D000880580911A05811109C00E9441060E942B
:1052E000E2068091E20084608093E2008091E10018
:1052F00080FF1BC08091E20080FF17C08091E20018
:105300008E7F8093E2008091E20080618093E200D2
:105310008091D80080628093D80019BC85E080938A
:10532000270588EC99E00E9488058091E10084FFC0
:105330002FC08091E20084FF2BC080E189BD82E113
:1053400089BD89B5982F917080FFFBCF8091D800DF
:105350008F7D8093D8008091E1008F7E8093E10063
:105360008091E2008F7E8093E2008091E200816074
:105370008093E20080912805882309F489C084E0A5
:10538000809327058CEC99E00E9488058091270581
:105390008091E10083FF2BC08091E20083FF27C052
:1053A0008091E100877F8093E10082E08093270570
:1053B000109228058091E1008E7F8093E10080911A
:1053C000E2008E7F8093E2008091E2008061809312
:1053D000E20042E060E080E00E94B0068091F000D0
:1053E00088608093F00080ED99E00E948805FF912D
:1053F000EF91BF91AF919F918F917F916F915F914D
:105400004F913F912F910F900FBE0F901F901895C5
:105410001092190580911805882309F43BCF8091DB
:1054200027058430C1F49091E9009F702091EC0031
:10543000822F817020FD80E8892B95E09093E90010
:105440009091EB0090FF04C09091EE0097FD08C092
:105450008F708093E900109218051CCF1092F10014
:105460009091E80095FDFACF9091E80090FFF0CF81
:105470009091E8009E779093E800EACF19BC1092D3
:10548000270584EC99E00E94880510921A052ECF1A
:105490008091E30087FD93E09093270573CF789484
:1054A0001F921FB61F9211248F939F93AF93BF93A8
:1054B0008091130590911405A0911505B0911605E2
:1054C0000196A11DB11D8093130590931405A0931F
:1054D0001505B0931605BF91AF919F918F911F90C5
:1054E0001FBE1F9018951F921FB61F9211248F93F5
:1054F0009F93AF93BF9380911205811113C0809148
:10550000130590911405A0911505B09116054196CB
:10551000A11DB11D8093130590931405A09315054B
:10552000B0931605BF91AF919F918F911F901FBEB1
:105530001F901895CDB7DEB7AF970FB6F894DEBFC2
:105540000FBECDBF85B7806885BF85B7806885BF32
:1055500084B7877F84BF0FB6F894A89580916000C8
:10556000886180936000109260000FBE80E890E038
:105570000FB6F89480936100909361000FBE80E6AF
:105580009DE090930503809304030E9441060E94CE
:10559000E2068091E20084608093E200789480913A
:1055A00027058823A1F01091E9001F709091EC006D
:1055B000892F817090FD80E8182B1092E90080916E
:1055C000E80083FD0E940D181F701093E90082E02F
:1055D00084BD93E095BD9AEF97BD80936E001092C5
:1055E0009A0310929B0310929C0310929D030E94B9
:1055F0003710811102C00E94590F55985D988FE8AD
:1056000091E00197F1F700C000000E942409809307
:1056100031010E94630E81110E9467318091310136
:1056200081112CC085E0EEE6F1E0DE01919601905B
:105630000D928A95E1F789A180932C018AA180932C
:105640002D018BA180932E018CA180932F018DA120
:105650008093300186E0E3E7F1E0DE0111960190EE
:105660000D928A95E1F7FE013196A6E2B1E0CE01F6
:10567000079621912D93E817F907D9F78091310109
:1056800095E0811190E09093A90385E0891B8093B8
:10569000A8030CE211E0D8018D918D018F3F11F02C
:1056A0000E94DD09B1E001331B07A9F706E211E012
:1056B000F80181918F018F3F11F00E94DD09F1E027
:1056C0000C321F07A9F78AE0EAEBF3E0DF01282F8D
:1056D0001D922A95E9F7EEE9F3E0DF011D928A9524
:1056E000E9F70E949015811102C00E947A2882E099
:1056F00090E00E94C3338093370484E090E00E94DE
:10570000CB339093AC038093AB030E949C15EFE3E3
:10571000FCE93197F1F700C000000E949C158091D0
:10572000BA0380FF08C06FEF7FEF90E080E00E9437
:10573000FF330E94180E83E090E00E94C3330E9462
:105740000C0D109231058FEF9FEF90934B058093D6
:105750004A0590934D0580934C0590934F05809397
:105760004E05909351058093500590935305809377
:105770005205909355058093540590935705809357
:1057800056059093590580935805109205049093FF
:105790001F0480931E04909321048093200490930F
:1057A00023048093220490932504809324049093EF
:1057B00027048093260490932904809328049093CF
:1057C0002B0480932A0490932D0480932C040E9430
:1057D0009015811110C08091370480FF08C083E2CA
:1057E00094E09F938F930E9421060F900F900E9448
:1057F0007A280E94941181E08093380446E050E0BA
:105800006CE170E08AE595E00E94B33310923804B1
:1058100080915A058C7F71F48091370480FF08C015
:105820008EEC93E09F938F930E9421060F900F9030
:105830000E9494118091370480FF89C084EB93E02B
:105840009F938F930E942106809137040F900F90B1
:1058500080FF7DC080915A0583701F928F9385E9E8
:1058600093E09F938F930E942106809137040F90BD
:105870000F900F900F9080FF6AC080915A05869517
:1058800086951F928F9388E793E09F938F930E9452
:105890002106809137040F900F900F900F9080FF9A
:1058A00056C080915B051F928F938AE593E09F938A
:1058B0008F930E942106809137040F900F900F90D4
:1058C0000F9080FF44C080915C051F928F938CE302
:1058D00093E09F938F930E942106809137040F904D
:1058E0000F900F900F9080FF32C080915D051F9246
:1058F0008F938EE193E09F938F930E942106809176
:1059000037040F900F900F900F9080FF20C0809170
:105910005E051F928F9380E093E09F938F930E9488
:105920002106809137040F900F900F900F9080FF09
:105930000EC080915F051F928F9382EE92E09F933D
:105940008F930E9421060F900F900F900F900E944E
:10595000630E811102C00E946A3182E391E090934C
:105960000F0580930E058AEB93E0FAE0F80FFFA78E
:10597000809127058530A9F485E594E00E9488058B
:1059800020E4F22EEE24E39400E112E18091270559
:10599000853009F4A3C00E94F7170E94860E10926A
:1059A00036040E949C154DEA53E05FA34EA38AEB98
:1059B00093E099A788A7DC01FA0191918D9123E0EA
:1059C000E73BF20709F4CFC09817B9F38091370489
:1059D00081FD59C10E94630E782EF12C512C412C6F
:1059E000A8A5B9A5BD90B9A7A8A7EEA1FFA18191CF
:1059F000FFA3EEA38B1509F4E6C18B258AA76201EC
:105A0000E12CAA24A3948AA58A2109F4D0C12B2CC5
:105A10002A20772099F0E9A2FAA281E0211001C0A2
:105A200080E08BA30E94BA078160782F9DA38CA38E
:105A300049A15AA16BA18DA10E947626222039F09E
:105A4000F601E450FE4F80818F3F09F052C1312CA6
:105A5000032D10E080910504800F912F911D09976F
:105A60006CF1F8E08F2E912C801A910AB8016A5FD0
:105A70007B4FA40186E094E00E94AA33B801625FE4
:105A80007B4FA4018EE094E00E94AA33A401440F4E
:105A9000551FB801660F771F625E7B4F8EE194E061
:105AA0000E94AA33B8016A5E7B4FA40186E194E0AC
:105AB0000E94AA3388E0831980930504809105042D
:105AC00090E0A62DB0E09D01220F331F285C3D4FD2
:105AD000AA0FBB1FBD01675C7D4F23C180912705C5
