:100000000C9442050C948A320C947A050C947A056F
:100010000C947A050C947A050C947A050C947A0564
:100020000C947A050C947A050C94CD290C948929AA
:100030000C94202B0C947A050C947A050C947A0578
:100040000C947A050C947A050C947A050C947A0534
:100050000C947A050C94FC2A0C947A050C947A057D
:100060000C947A050C947A050C947A050C947A0514
:100070000C947A050C947A050C947A050C947A0504
:100080000C947A050C947A050C947A050C947A05F4
:100090000C947A050C947A050C947A050C947A05E4
:1000A0000C947A050C947A050C947A050631FF09B4
:1000B00074A1010975150026FF00952075088102BD
:1000C0000976150026FF00952075089102C00501EC
:1000D0000980A101850319012AB700150126B7007F
:1000E000950175108100C0050C0901A10185041955
:1000F000012AA002150126A002950175108100C0F9
:100100000660FF0961A1010962150026FF00952024
:10011000750881020963150026FF00952075089176
:1001200002C005010906A101050719E029E715002C
:100130002501950875018102950175088101050762
:10014000190029FF150026FF009506750881000596
:10015000081901290595057501910295017503910D
:1001600001C07075626C6963207374617469632087
:100170000053797374656D2E6F75742E7072696E8D
:10018000746C6E282222293B0101500101500101AB
:10019000500053797374656D2E6F75742E7072698B
:1001A0006E74282222293B010150010150010150A7
:1001B000007075626C696320737461746963207682
:1001C0006F6964206D61696E28537472696E675B34
:1001D0005D206172677329207B7D01015001012838
:1001E00001012801012801015200010143010432EB
:1001F000337C010111004859505228005465737432
:10020000696E6720312C20322C20332E2E2E202098
:100210002054657374696E6720312C20322C203392
:100220002E2E2E00726762206D61747269782074C0
:100230006F67676C65205B25735D3A207267625F4C
:100240006D61747269785F636F6E6669672E656E43
:1002500061626C65203D2025750A00444542554782
:100260003A2064697361626C65642E0A00444542F9
:1002700055473A20656E61626C65642E0A004F6EC8
:100280006573686F743A206163746976653A2025F6
:10029000640A000A002530325820006B6579626FCD
:1002A0006172645F7265706F72743A20005461729B
:1002B00067657420636F6E6E65637465640D0A0014
:1002C00054617267657420646973636F6E6E6563F1
:1002D0007465642C207468726F74746C696E672026
:1002E000636F6E6E656374696F6E20617474656DA3
:1002F0007074730D0A004661696C656420746F2028
:10030000657865637574652025730A007267625F9E
:100310006D61747269785F636F6E6669672E666C73
:10032000616773203D2025640A007267625F6D611A
:10033000747269785F636F6E6669672E7370656546
:1003400064203D2025640A007267625F6D617472EB
:1003500069785F636F6E6669672E6873762E7620A4
:100360003D2025640A007267625F6D61747269786E
:100370005F636F6E6669672E6873762E73203D200B
:1003800025640A007267625F6D61747269785F63E9
:100390006F6E6669672E6873762E68203D2025642F
:1003A0000A007267625F6D61747269785F636F6E75
:1003B0006669672E6D6F6465203D2025640A0072B2
:1003C00067625F6D61747269785F636F6E6669679B
:1003D0002E656E61626C65203D2025640A0072679F
:1003E000625F6D61747269785F636F6E66696720C2
:1003F000454550524F4D0A007267625F6D617472DD
:1004000069785F696E69745F64726976657273207A
:100410007267625F6D61747269785F636F6E66693F
:10042000672E6D6F6465203D20302E2057726974F1
:10043000652064656661756C742076616C756573A2
:1004400020746F20454550524F4D2E0A007267624E
:100450005F6D61747269785F696E69745F647269F7
:1004600076657273206565636F6E66696720697370
:10047000206E6F7420656E61626C65642E0A005B8D
:10048000735D000A0025303862003A2000253032C2
:1004900058000A722F632030313233343536370A30
:1004A000000A0025303258006C65645F7461736B1C
:1004B0003A200000010101010101010101020202D3
:1004C0000202020202020303030303030303040400
:1004D00004040404040505050505060606060607CA
:1004E0000707070708080808090909090A0A0A0B83
:1004F0000B0B0C0C0C0D0D0D0E0E0E0F0F0F101024
:1005000011111112121313141415151616171718AA
:100510001819191A1A1B1B1C1D1D1E1E1F20202115
:100520002222232424252626272829292A2B2C2D5C
:100530002D2E2F30313232333435363738393A3B7D
:100540003C3D3E3F404142434445464748494A4C72
:100550004D4E4F50515354555658595A5B5D5E5F3E
:10056000616264656668696B6C6D6F7072737577D4
:10057000787A7B7D7E8082838587888A8C8E8F9136
:10058000939596989A9C9EA0A2A3A5A7A9ABADAF60
:10059000B1B3B5B7BABCBEC0C2C4C6C9CBCDCFD14A
:1005A000D4D6D8DBDDDFE2E4E7E9EBEEF0F3F5F8F3
:1005B000FAFDFF6565636F6E6669675F75706461FC
:1005C00074655F7267625F6D61747269785F64659C
:1005D0006661756C740A00726762206D617472697D
:1005E00078206D6F6465205B25735D3A2025750A60
:1005F00000726762206D617472697820736574207F
:10060000687376205B25735D3A2025752C25752C43
:1006100025750A00726762206D61747269782073B3
:100620006574207370656564205B25735D3A2025D1
:10063000750A00000000000000000000000000003B
:1006400000000000000000000000000000000000AA
:10065000000000000000007E0F00D4FFFFFFC70075
:1006600000007800000000000000002A2B28000095
:100670000000000000000000000000000000290051
:100680000000002C1E3420212224342627252E365B
:100690002D3738271E1F20212223242526333336C9
:1006A0002E37381F0405060708090A0B0C0D0E0F1C
:1006B000101112131415161718191A1B1C1D2F319F
:1006C00030232D350405060708090A0B0C0D0E0F03
:1006D000101112131415161718191A1B1C1D2F317F
:1006E00030354C29001E001F002000210022002E62
:1006F0000014001A000900130005002D0004001565
:1007000000160017000A002F001D001B000600073E
:1007100000190000000000E200E0002A622B410006
:100720005727002600250024002300350033001C35
:100730000018000F000D00340012000C000800111A
:1007400000100030003800370036000B000E0000AB
:10075000000000015702572C414C7245003A003B03
:10076000003C003D003E002E0246004B0052004976
:100770000028002D022602500051004F0027022FB2
:10078000021E024E004A004D00240200000000013B
:1007900000010001002A0001004300420041004026
:1007A000003F0035022E00610060005F0031003420
:1007B0000233025E005D005C002502300238025BFD
:1007C000005A005900310200000000620001002CB4
:1007D00000010045023A023B023C023D023E02C5D6
:1007E0005CC45CBC00A900BB00C35CC65CC95CAD5A
:1007F00000AA00AE00CB5C005CCA5CAC00A800ABF9
:1008000000CC5C00000000010001000100010001BB
:100810000043024202410240023F02125FBE5DBA43
:100820005DB95DB85DBB5D135FBF5DB75DB65DB5BE
:100830005DBC5DB15DC05DB45DB35DB25DBD5D00CD
:1008400000000001530100C25C0100290F1E0F1FB0
:100850000F200F210F220F2E0F140F1A0F090F1345
:100860000F050F2D0F040F150F160F170F0A0F2F5F
:100870000F1D0F1B0F060F070F190F0000000001BF
:10088000000100010001000100270F260F250F24A1
:100890000F230F350F330F1C0F180F0F0F0D0F34D1
:1008A0000F120F0C0F080F110F100F300F380F37EA
:1008B0000F360F0B0F0E0F00000000025301000156
:1008C00000010029001E001F002000210022002B33
:1008D0000014001A00080015001700E000040016BC
:1008E00000070009000A00E1001D001B00060019B6
:1008F00000050000000000E300105F01004A000155
:1009000000270026002500240023004C00130012BD
:10091000000C0018001C00340033000F000E000D06
:10092000000B00E500380037003600100011000011
:10093000000000015701002C414D0029001E001F3E
:10094000002000210022002B0014001A00080015CE
:10095000001700E00004001600070009000A00E18B
:10096000001D001B0006001900050000000000E348
:1009700000105F2A624A000100270026002500249B
:100980000023004C00130012000C0018001C00345F
:100990000033000F000E000D000B00E5003800379B
:1009A0000036001000110000000000015701002C6B
:1009B000414D005B435D005B445D005B535D005B4C
:1009C000575D005B525D0009027B00040100A0FA44
:1009D00009040000010301010009211101000122A5
:1009E000400007058103080001090401000203001B
:1009F00000000921110100012222000705820320C5
:100A0000000107050303200001090402000103009F
:100A10000000092111010001223200070584032092
:100A20000001090403000203000000092111010074
:100A30000122220007058503200001070505032088
:100A40000001120100020000000810CB56642006CD
:100A5000010200011A0349007200690073002000BE
:100A60005200650076002E00200036006200000073
:100A70000E034B0065006500620069006F00000016
:100A80000403090411241FBECFEFDAE0DEBFCDBF9F
:100A900004B603FE18C08091660590916705A09189
:100AA0006805B09169058730904BA740B04B59F469
:100AB00010926605109267051092680510926905FC
:100AC000E0E0F8E3099525E0A4E0B3E001C01D9261
:100AD000A636B207E1F713E0A0E0B1E0EEEFFAE6E8
:100AE00002C005900D92A430B107D9F70E94472BA0
:100AF0000C9445350C940000FF93EF93E0910403B0
:100B0000F0910503309709F00995EF91FF91089551
:100B1000FC018591803011F0EFDFFBCF0895FF27B6
:100B2000E0E230E247FF0CC0419597FF09C0EDE2DB
:100B30006095709580959095611D711D811D911D29
:100B400027FF02C0219530E350E2AA27660F771FE6
:100B5000881F991FAA1FA41710F0A41B63955A950C
:100B6000A9F7AA3008F0A95FA05DAF93F3956115CE
:100B700071058105910541F7ED3211F4EF93F3957D
:100B8000F21718F43F93F395FBCF8F91B5DFFA95E9
:100B9000E1F70895E991F9918591803021F085324E
:100BA00019F0AADFF9CF089520E0E8945591553265
:100BB000C1F3503311F4689455915A3348F45053AB
:100BC00090F3220F022E220F220F200D250FF4CFBB
:100BD0000EF4219589919991533619F3533729F1E0
:100BE000533559F1BC0188279927E8945C3621F4E4
:100BF0008991999168945591543639F446EF7EF075
:100C000077FF0DC08FEF9FEF0AC055374AE039F0EC
:100C1000583540E121F0523642E009F00895FF9343
:100C2000EF937DDFEF91FF91B7CFFF93EF93FC013F
:100C300081918030B9F360DFFBCFFF93EF9368DFE2
:100C4000F1CFDF93CF93CDB7DEB72596A3DFCF915A
:100C5000DF910895823027E5920770F4811527E52A
:100C6000920780F48C3221E4920749F08832924452
:100C700061F08FEA90E008958A329246D1F786E9D2
:100C800090E008958CE291E0089588EC90E008955A
:100C9000FC01AC014B5F5F4F8FEF91E32191822705
:100CA00028E030E087FF09C0880F892721503109EB
:100CB000C9F7E417F50791F70895880FF7CFE8ED26
:100CC000F0E080818E7F80831092E2001092DA0043
:100CD0001092E100A0EEB0E08C9181608C93808155
:100CE0008F77808319BCA7EDB0E08C918E7F8C93B9
:100CF00080818F7E808310921F0508952091E400EB
:100D00003091E50095E6A9012091EC00822F8170D9
:100D100020FF06C08091E80080FF06C080E00895B3
:100D20002091E80022FD1AC080912C05882389F0CB
:100D3000853089F08091EB0085FD0FC02091E400A3
:100D40003091E50042175307F9F29150E1F684E043
:100D5000089582E0089583E0089581E00895EF9278
:100D6000FF920F931F93CF937C018B010E947E060D
:100D7000C82F811117C08091E80085FD0BC08091BC
:100D8000E8008E778093E8000E947E06882399F31E
:100D9000C82F08C0F70181917F018093F1000150B5
:100DA000110949F78C2FCF911F910F91FF90EF9070
:100DB000089580912E0587FF13C08091E80082FF7F
:100DC00006C08091E8008B778093E80004C0809192
:100DD0002C058111F2CF089580912C058823D9F339
:100DE0008091E80080FFF8CF8091E8008E77ECCF0B
:100DF000982F9093E900242F762F50E0891731F037
:100E00007091EC002091ED005091F00021FD07C0A1
:100E10009F5F973071F78093E90081E008953091EA
:100E2000EB003E7F3093EB003091ED003D7F30933F
:100E3000ED003091EB0031603093EB007093EC00EB
:100E40002093ED005093F0002091EE0027FDE0CFBD
:100E500080E00895B0E0A0E0E0E3F7E00C94B03368
:100E6000C8EDD0E088818F7E8883E7EDF0E0808157
:100E70008160808384E082BF81E080931F05888148
:100E80008E7F888302EE10E0F80110821092DA0063
:100E900081EEC82ED12CF601108288818F7788834D
:100EA00088818068888388818F7D888319BC1092AF
:100EB0002C0510922D0510922B0510922A0590EE0C
:100EC000E92EF12CF70180818B7F808388818160FE
:100ED000888342E060E080E00E94F806F6018081AD
:100EE0008E7F8083F801808181608083808188602B
:100EF0008083F70180818E7F8083888180618883F1
:100F0000CDB7DEB7E8E00C94CC33FC01809134051A
:100F10009091350586179707A0F06115710529F4A2
:100F20009091E8009E779093E80090E0611571053C
:100F300051F4911108C08091E80082FF34C080E034
:100F40000895BC01F2CF80912C058823C1F1853032
:100F5000C1F18091E80083FD30C08091E80082FDFE
:100F6000EACF8091E80080FFE1CF8091F3002091EB
:100F7000F200382F6115710519F02830310558F04D
:100F800091E02830310509F090E02091E8002E77BB
:100F90002093E800CBCF81918093F10061507109DB
:100FA0002F5F3F4FE7CF80912C05882341F085309C
:100FB00041F08091E80083FFBECF81E0089582E098
:100FC000089583E008950895089580912105089576
:100FD0009C014FB7F8948091150590911605A0914A
:100FE0001705B09118054FBF821B930B08952FB7BB
:100FF000F8946091150570911605809117059091F0
:1010000018052FBF08952FB7F8948091150590917A
:101010001605A0911705B09118052FBF08959C01E2
:10102000FC0132969FEF80E04191461751F09F3FBF
:1010300019F4411101C0982F8F5F8630A9F79F3FA7
:1010400009F40895290F311D97FD3A95F90162833E
:10105000089520911205309113052817390771F072
:101060009093130580931205E0911005F0911105FE
:10107000309721F00084F185E02D099508952091A5
:101080000E0530910F052817390771F090930F0561
:1010900080930E05E0911005F0911105309721F035
:1010A0000680F781E02D09950895FA01811101C0AC
:1010B000FB01099508958093690180915F05837014
:1010C000809368010E94C40D83E080936A010895B3
:1010D00022E8241B08F420E0620F08954095282F91
:1010E000429F412D1124842F08950E945409089590
:1010F000FF920F931F93CF93DF93182F062FF42E99
:10110000D0E0C0E02F2D402F612FCE010E94750846
:101110002196C434D105B1F7CDB7DEB7E5E00C9424
:10112000CF33E42FF0E0EE0FFF1FE85CFD4F40816E
:1011300034EE439F412D1124E82FF0E050E0445E4F
:101140005F4FDA01A21BB1099D01B7FF03C03195C2
:101150002195310993E0220F331F9A95E1F7AF01F2
:10116000421B530B9A0157FD20E0582F259F212D3C
:101170001124822F0895AF92BF92CF92DF92FF92F7
:101180000F931F93CF93DF93362F472FE82FF0E075
:10119000ED54FB4F71110FC0E4918E2F2E2F6E2F47
:1011A000722FDF91CF911F910F91FF90DF90CF9021
:1011B000BF90AF900895C72FD0E02491F22E022F58
:1011C00010E056E0659FC0011124EFEFF0E0BF0191
:1011D0000E94E933832F90E0880F991F35E5369FF1
:1011E000D001379FB00D11248A1B9B0B982F990FAC
:1011F000980F6F01CC1ADD0AC09ED001C19EB00DC0
:10120000D09EB00D11248B2F499FA0011124452F92
:1012100055276F01C41AD50AC09EA001C19E500D6A
:10122000D09E500D11245F01A91AB108AC9E600137
:10123000AD9ED00CBC9ED00C1124CD2CDD24EC191D
:10124000FD09E09FE001E19FD00DF09FD00D11243A
:10125000ED2F62307105A1F050F46115710509F4AC
:101260009ECF6130710581F0EB2F852F98CF6430D0
:10127000710569F080F06630710509F490CFF4CF04
:10128000E22F2B2F8D2F8BCFE22F252F88CFEB2F07
:10129000822F2D2F84CF2B2F8F2DE52F80CF89B13B
:1012A00085FB882780F90895FF920F931F93CF93B2
:1012B000DF93EC01F62E042F122F0E944F098111AB
:1012C0000FC0C232D1057CF0A297FE01EE0FFF1FC6
:1012D000EC0FFD1FE85CFB4FF1820083128303C01B
:1012E000C232D10594F3CDB7DEB7E5E00C94CF332D
:1012F000CF93C82F0E944F09882329F081E0C23282
:1013000028F080E003C081E0C434D8F7CF9108957D
:10131000B0E0A0E0EEE8F9E00C94AE337C01C091BF
:101320006C018EE0C89FC02D11241EE01C0F1534E7
:1013300008F014E40E944F09882319F0133208F0D2
:1013400012E20E944F09811103C0C23208F4C2E2C6
:101350002091630531E0230F08F42FEF30E050E0D7
:1013600040E06FEF7FEF80E090E00E94E23469019F
:10137000D0E001E0B12CA12C2C2FC11740F0812F1F
:101380000E947809CDB7DEB7EAE00C94CA33FE01BB
:10139000E054FD4F808190916D01892329F1809166
:1013A00036058150082E000C990B87FF1FC0B6012F
:1013B00030916305300F08F43FEFA501639F412D85
:1013C000739F400D511D112460916005709161055E
:1013D00080916205F70109950E94BB08462F282FCE
:1013E000672FCE010E9475082196C6CFFC01EA5CEA
:1013F000FA4F318932130AC0FC01EE0FFF1FEA5C7D
:10140000FA4F618D728D6C157D0590F20197CDCFED
:10141000F894E82FE295EF70F0E031A1282F2F70BB
:1014200081E090E001C0880F2A95EAF7982F909507
:10143000932391A392A1892B82A3789408959091EC
:10144000A80392FF06C0282F28712830F9F4877F5F
:10145000846093FF06C0282F28712831F1F4877E1D
:1014600084612091A90320FF06C0382F38713830DD
:10147000D9F4877F816021FF06C0282F2871283189
:10148000D1F4877E816194FD877E0895282F247191
:101490002430F9F68B7F8860DCCF282F247124312B
:1014A00001F78B7E8861DDCF382F3171313019F72C
:1014B0008E7F8860E0CF282F2171213121F78E7E29
:1014C0008861E1CFCF93DF93EC0182389105B1F1D0
:1014D00008F040C08133910509F49DC048F5893278
:1014E000910509F48DC08A9709F49CC0C11522E5C5
:1014F000D20708F0BDC0C11531E5D30708F024C1FB
:10150000C83ED10508F0A3C0C13ED10588F5C83A50
:10151000D10508F08EC0C53AD10508F0F6C0C1303B
:10152000D10531F1209721F1C430D10508F545C02E
:101530008533910509F45FC0C997C1F68091A8036E
:10154000837009F036C18091A90383FF11C0C9E2FD
:10155000D0E00EC0833E910599F170F4803E910574
:1015600001F1823E910511F68091A80382FD21C010
:10157000CE01DF91CF910895863E910561F1873EBE
:10158000910571F1843E910509F0B0CF8091A903D6
:1015900081FFEECF8091A803C7EED0E084FD0DC09F
:1015A000E7CF8091A80380FD33C09091A90390FFFD
:1015B000DFCFC3EED0E084FFDBCFD0E0C0E0D8CFF8
:1015C0008091A80382FDF2C09091A90390FDF1C023
:1015D00084FFCECFF2CF8091A80383FDDDCFC8CFAB
:1015E0008091A80383FDE8C09091A90391FFF0CFFB
:1015F000C4EED0E0BDCF8091A80385FFB9CFA7CFBF
:101600008091A80385FDDBC08091A90383FFB0CF43
:10161000C9E3D0E0ADCF8091A80386FFA9CFCAE28D
:10162000D0E0A6CF8091A80386FFA2CFC1E3D0E08F
:101630009FCFCF3BD10508F6C85AD0E0CC0FDD1FB5
:10164000C455DE4F0990D881C02DD46491CFC11507
:1016500040E5D40708F064C0C11580E4D80708F05D
:101660005CC0CE019A9581159F4108F481CFA5CF2A
:10167000C11536E5D30718F5C11545E5D40708F0BF
:101680007CC0C11584E5D80708F072C09E012370A4
:1016900033279C2F96959695C115D34508F459C0CC
:1016A000C1E0D0E002C0CC0FDD1F2A95E2F730E2A6
:1016B000939FC0011124C82BD92BDA6859CFC115CB
:1016C0008AE5D80778F4C11529E5D20708F060C08B
:1016D000C11538E5D30708F470CFDC2FCC27C06FD5
:1016E000D06A46CFCE0190568115904208F065CF62
:1016F0008D2F8F710E941F0A90E0982F88278827CE
:101700009F719C012C2BE90141C0C55AD0E0C755FF
:10171000DE4FC881D0E0D0642BCFDF70D06A28CFF5
:10172000CE018370992721E030E002C0220F331FE1
:101730008A95E2F7C695C69580E2C89FE00111241C
:10174000C22BD32BDD6814CFDC2FCC27C16FD06A1E
:101750000FCFC1E0D0E002C0CC0FDD1F2A95E2F729
:1017600020E2929FC0011124C82BD92BDC6800CF46
:10177000DC2FCC27C46FD06AFBCE8C2F0E941F0AAF
:10178000C82FD0E0DC2FCC27CC27DF71D062F0CE81
:101790008C2F8F700E941F0A34E0D695C7953A951A
:1017A000E1F7CF709C2FEC01D069E2CEC2EED0E021
:1017B000DFCEC0EED0E0DCCEC6EED0E0D9CEC5E3C1
:1017C000D0E0D6CE8091680381111092680308950D
:1017D0008091060581110FC010920B050E94E20B4B
:1017E0000E94030888579C4E90930505809304053A
:1017F00081E0809306050895809590910A059823CD
:1018000090930A050895809590910B0598239093E5
:101810000B050895452B39F0682381E06F3F09F0EF
:1018200080E08170089581E0FCCF80915E0390910B
:101830002D03981301C008958F5F8770FACF292F69
:101840009A3078F5863068F590E036E0239F800D79
:10185000911D1124682F677023E0969587952A952E
:10186000E1F7FC01EE0FFF1FE80FF91FE15FFC4FEE
:1018700050E040E080E0219130E0062E02C0369535
:1018800027950A94E2F721703327042E01C0220F16
:101890000A94EAF7822B4F5F5F4F4330510559F7A7
:1018A000089580E00895292F9A3098F5863088F5BC
:1018B00090E036E0239F800D911D1124282F277082
:1018C00041E001C0440F2A95EAF723E096958795F9
:1018D0002A95E1F7FC01EE0FFF1FE80FF91FE15F0A
:1018E000FC4F30E020E070E05191DF011197CB0117
:1018F000022E02C0969587950A94E2F78170819531
:101900008527842385278C932F5F3F4F2330310514
:1019100059F70895829590E09C01220F331F220F02
:10192000331F2C7C95958795959587958373282BE8
:1019300030E0C901880F991F8A7A3595279525755A
:10194000822B08959C01832F817031FD8260FB0101
:1019500009950895FC019281913049F4858182FFB7
:1019600002C080FF1EC080FF1CC083E0089592303B
:1019700049F4858182FF02C080FF15C080FD15C03B
:1019800084E00895933049F4858182FF02C080FF8E
:101990000EC080FD0EC087E00895943060F481E0B1
:1019A000089582E0089586E0089585E0089589E02D
:1019B000089588E008958AE008959FB7F8941092FA
:1019C0001D059FBF90912C05943009F048C02091CF
:1019D000E9002F703091EC00932F917030FD90E86A
:1019E000922B25E02093E9002091EB0020FF34C0EA
:1019F0002091EE0027FF30C020911C05222321F00A
:101A00002091E80025FF28C010921C0526E03091A7
:101A1000E80035FF14C08093F1008091E80085FD57
:101A200027C08091E80080FFFCCF8091E8008E778E
:101A30008093E8009F709093E90080E008953091D2
:101A40002C05343049F43091EB0035FD05C02150B0
:101A500041F481E080931C059F709093E9008FEF23
:101A60000895EFE9FFE03197F1F700C00000CFCF14
:101A70008FB7F89421E020931D058FBFDBCF8093B3
:101A8000190570931B0560931A0580912C0584300D
:101A9000F9F48093E9008FEF9091E800815095FD73
:101AA00006C095ED9A95F1F700008111F5CF809170
:101AB000E80085FF0DC050E040E063E070E089E1A0
:101AC00095E00E94AF068091E8008E778093E80051
:101AD0000895BC0184E00E943F0D0895BC0183E09D
:101AE0000E943F0D0895CF93DF93EC0181E0809336
:101AF000E9008FEF9091E800815095FD06C095EDCB
:101B00009A95F1F700008111F5CF8091E80085FFEB
:101B100014C050E040E068E070E0CE010E94AF06E3
:101B20008091E8008E778093E80088E0FE01A2E2D1
:101B3000B5E001900D928A95E1F7DF91CF9108957C
:101B400081E08093E00080E28093D8001092C90089
:101B50008FE19EE40197F1F700C0000087E090EB71
:101B6000DC018093660590936705A0936805B093A8
:101B7000690588E19CE00FB6F894A8958093600011
:101B80000FBE90936000FFCF6E9A3EB13F7B2EB1A7
:101B900020644FB7F89488E394E0FC015191CF01A1
:101BA00068E02EB9000000C057FF3EB9550F000095
:101BB00000C000C000C03EB900C06A9591F7F5E0D2
:101BC00084309F0751F74FBF8FE594E00197F1F7FD
:101BD00000C00000089580917403811110C08091AD
:101BE000D80080618093D8008AE18A95F1F700C01F
:101BF0008091D90080FF0AC081E08093740381E066
:101C000090917403913009F080E0089582E0809310
:101C100074030E945F0610922C05F1CF0E94EB0D19
:101C2000882359F0E0911005F0911105309729F0C3
:101C30000190F081E02D0995089580E008950F93BB
:101C40001F930E94EB0D882329F00E94F7071F9134
:101C50000F9108950E94F70700919803109199033E
:101C600020919A0330919B03600F711F821F931F75
:101C7000EECFCF92DF92EF92FF926B017C010E9438
:101C8000EB0D8823A1F02FB7F894609115057091A2
:101C9000160580911705909118052FBF6C197D09C5
:101CA0008E099F09FF90EF90DF90CF9008950E94DA
:101CB0001F0EF4CFCF93DF93C7EFD2E060E0CE01E9
:101CC0000E94BE342196C11584E0D807B9F7DF9190
:101CD000CF9108951F93CF93DF93122F8630E0F4B6
:101CE0006A30D0F44630C0F4C42FD0E0CC0FDD1FF2
:101CF0009CE0699FC00DD11D112498E7899FC00DFC
:101D0000D11D1124632FCE0187960E94BE34612F0E
:101D1000CE0188960E94BE34DF91CF911F91089525
:101D2000AF92BF92CF92DF92EF92FF921F93CF9329
:101D3000DF9383EEC82E86E0D82ED0E07601C0E097
:101D400014C0F50125913491412F6C2F8D2F0E94E5
:101D50006A0E82E0A80EB11C1F5F163091F78CE06E
:101D6000E80EF11CCF5FCA3019F0570110E0E9CF3F
:101D7000DF5F88E7C80ED11CD63001F7DF91CF9125
:101D80001F91FF90EF90DF90CF90BF90AF9008959C
:101D9000CF93C82F6FEF811162E283E290E00E943F
:101DA000BE346FEFC11160E184E290E00E94BE3466
:101DB0006FEFC11168E185E290E00E94BE34CF91DF
:101DC000089580E00E94C80E60E086E290E00E94E4
:101DD000BE340E94900E0E945A0E81E00E94C80EEE
:101DE00008950F931F93CF93DF93863030F56A30B9
:101DF00020F5463010F5C42FD0E0CC0FDD1F2CE0CD
:101E0000629FC00DD11D112438E7839FC00DD11DE5
:101E10001124CE0187960E94A034082F10E0102FC5
:101E20000027CE0188960E94A0349801282BC90172
:101E3000DF91CF911F910F91089590E080E0F8CF4E
:101E4000462F863040F47A3030F4663020F4672F25
:101E50000E94F10E089590E080E00895CF92DF9205
:101E6000FF920F931F93CF93DF936C010091650551
:101E700080916903082BC7E0D0E010E0FC2EC80178
:101E80000C2E02C0959587950A94E2F780FD0CC050
:101E90002197A0F7F12C8F2DDF91CF911F910F91FA
:101EA000FF90DF90CF900895B6018C2F0E94200FF5
:101EB0000E94620A019761F3EECFCF93DF93EC01AA
:101EC0000E942E0FBE010E94200F0E94620ADF9125
:101ED000CF9108950F931F93CF938C01FC01438101
:101EE0005481618180810E940A0CC82F811123C016
:101EF000F801808191810E945D0F92959F709630CC
:101F0000A9F058F4925F9F70923058F4803F19F016
:101F100030F4883E30F4C1E004C09A5FF4CF843FCF
:101F2000D1F38C2FCF911F910F910895883E98F394
:101F3000813FB9F7F0CFC0E0F4CFA5E0B0E0E3EA2D
:101F4000FFE00C94B53325E0FC01DE011196019011
:101F50000D922A95E1F7FC01228189819A81222341
:101F600099F0662389F00E942E0F182F682F89811F
:101F70009A810E94530C69817A81812F0E94200FDF
:101F80002596E3E00C94D1330E941F0C182FF3CF59
:101F900083E290E00E94A034823289F484E290E0EF
:101FA0000E94A034803159F485E290E00E94A03470
:101FB00091E0883109F090E0892F8170089580E0E8
:101FC000FCCFCF9384E090E00E94A034C82F82E23F
:101FD00090E00E94A034982F8C2FCF91089546E076
:101FE00050E06CE170E08FE595E00E94AE34109215
:101FF000370408958093630590913704962B90934E
:1020000037049091360490FF16C02DE731E0662327
:1020100011F02FE731E01F928F933F932F9384E1CC
:1020200096E09F938F930E9421060F900F900F9040
:102030000F900F900F9008958091630520E1382F45
:10204000321B08F430E0832F61E00E94FA0F0895FC
:102050008091630520E1382F320F08F43FEF832F82
:1020600061E00E94FA0F089530915F05337071F1BD
:102070008093600560936105493708F048E7409315
:10208000620530913704322B309337043091360497
:1020900030FF1CC050E09927211119C02DE731E015
:1020A0005F934F931F926F939F938F933F932F93C1
:1020B00081EF95E09F938F930E9421068DB79EB785
:1020C0000A960FB6F8949EBF0FBE8DBF08952FE7F6
:1020D00031E0E6CFEFE5F5E0438120E1421B08F473
:1020E00040E0818121E0628190E00E9434100895F7
:1020F000EFE5F5E0438120E1420F08F44FEF8181E5
:1021000021E0628190E00E9434100895EFE5F5E04F
:10211000628120E1621B08F460E0818121E043815B
:1021200090E00E9434100895EFE5F5E0628120E12F
:10213000620F08F46FEF818121E0438190E00E94FB
:1021400034100895EFE5F5E0818121E0438162815B
:102150008850990B0E9434100895EFE5F5E08181D5
:1021600090E021E04381628108960E943410089536
:1021700090915F05937051F1811129C09460909303
:102180005F0510926A0180913704862B8093370493
:102190008091360480FF1AC020915F052695269510
:1021A0008DE791E0662311F08FE791E01F922F9366
:1021B0009F938F9387ED95E09F938F930E942106C5
:1021C0000F900F900F900F900F900F900895883000
:1021D00010F09C61D4CF880F880F982BD0CF8091BE
:1021E0005F0586958695815009F487E061E00E943D
:1021F000B810089580915F05869586958F5F883029
:1022000008F081E061E00E94B810089580913604E2
:1022100080FF08C083EB95E09F938F930E94210677
:102220000F900F908DE080935F0580916F019091EA
:102230007001A09171018093600590936105A09356
:10224000620588E7809363058FEF809364050E94A1
:10225000EF0F0895B0E0A0E0E0E3F1E10C94AB33C0
:102260007C015B01842E752E69018091750301E06C
:1022700010E08A3010F40AE010E0C1E0D0E0B501CF
:10228000C701F6010995982E811114C021960C17EB
:102290001D07B4F48091360480FF0CC07F928F92AA
:1022A00086EF92E09F938F930E9421060F900F90EC
:1022B0000F900F90892DCDB7DEB7EDE00C94C733AA
:1022C000CC9F9001CD9F300D300D112490E080E027
:1022D00045E34A95F1F70000019628173907C1F741
:1022E000CECFB0E0A0E0E7E7F1E10C94A933182FDE
:1022F00080916901811323C090915F0593702091B3
:10230000680130E081E09217130609F480E08170E3
:1023100080936E018091640590916D01981739F05A
:1023200080936D0140E060E080E00E947808183002
:1023300060F4E12FF0E0E95BFA4C0C94113481E099
:10234000E6CF80916E01811102C080E0A0C040E024
:1023500060E080E00E947808F8CFC0916C018EE0C8
:10236000C89FC02D11240EE00C0F053408F004E4C2
:102370000E944F09882319F0033208F002E20E94FC
:102380004F09811103C0C23208F4C2E260916005B6
:1023900070916105809162050E94BB08F62EE72EC0
:1023A000D82ED0E0C01710F0802F6FC0FE01E0548F
:1023B000FD4F808190916D01892331F02D2D4F2D9E
:1023C0006E2DCE010E9475082196ECCFE0906C0135
:1023D000DEE0ED9ED02D1124CEE0CD0FC53408F007
:1023E000C4E40E944F09882319F0C33208F0C2E206
:1023F0000E944F09811103C0D23208F4D2E26091E9
:1024000060057091610540916205E0913104F091A1
:1024100032048091630586958695869530E020E0AC
:10242000E89F212DF89F200D311D1124922F96FD3C
:102430002095322F3F7096FD3F5F26952695269575
:102440002670E22FF0E0E052FE4F8181839F802DC5
:10245000312D112482958F703295307F832B20810E
:10246000820F97FD819587FD8195880F282F249FE6
:10247000212D1124822F0E94BB08062FD72EC82E93
:10248000ED2EF12CEC16D8F08C2F0E94780990914B
:102490006C019F5F90936C0181110CC082E080936E
:1024A0006A0180916E01811105C0111103C083E0A2
:1024B00080936A01CDB7DEB7EFE00C94C533F70126
:1024C000E054FD4F808190916D01892331F02C2DD6
:1024D000402F6D2DC7010E9475084FEFE41AF40AD2
:1024E000D1CFC0916C018EE0C89FC02D11240EE0A9
:1024F0000C0F053408F004E40E944F09882319F0FA
:10250000033208F002E20E944F09811103C0C23277
:1025100008F4C2E2309163053695369521E0320F1A
:1025200008F43FEF409131045091320490E080E094
:10253000439F812D539F800D911D1124F82ED0E0D3
:10254000C01708F031CFFE01E054FD4F808190911B
:102550006D01892391F06091600570916105809112
:1025600062052F2D4C2F0E9491080E94BB08462F18
:10257000282F672FCE010E9475082196E1CFE090A9
:102580006C018EE0E89EE02C11247EE0F72EFE0C1C
:1025900094E49F1510F464E4F62E0E944F098823FA
:1025A00029F0A2E2AF1510F452E2F52E0E944F0975
:1025B000811105C0B2E2EB1610F442E2E42E8091E4
:1025C0006E01882361F040E060E080E00E947808BE
:1025D000E8ECF3E08CE3DF011D928A95E9F7809146
:1025E0006C01811115C08091C4039091C5030E94B4
:1025F000E80721E08931910508F420E02093C30326
:10260000499730F00E9403089093C5038093C40358
:10261000A12C912CB12C96E0792E25E5622E3AEA78
:10262000832E5524539405C0ADE0A91508F453C07A
:10263000B12C2B2D30E07A9CE0011124FE01E450F6
:10264000FE4FE20FF31FC080CE1408F43CC0CF143D
:1026500008F039C09394D12CF601E054FD4F8081ED
:1026600090916D01892309F42EC0C853DC4FC20F2D
:10267000D31F0881302F262D321B08F430E07091D3
:102680006105282D200F08F42FEF40916205822F5D
:10269000880F820F8E5F282F249F212D1124822FD7
:1026A000682D631B0E94BB08462F282F672FC60189
:1026B0000E9475088091C303882329F0452D041BCF
:1026C00008F400E00883B39486E0B812B2CFA39474
:1026D0009AE0A912A9CF8F2DD8CE00916205B3E060
:1026E0000B9FE0011124D695C795D695C7955C2E12
:1026F000A02EB12C8FEF90E0B5010E94FD33762E15
:1027000080916E01882371F040E060E080E00E94DB
:102710007808E8ECF3E08CE3DF011D928A95E9F795
:102720001092C7038091C6038F5F8093C603F12C7C
:10273000E12CAC1ABD0A6701612CD701A853BC4F2C
:102740004D018091C703862909F045C00E946A3473
:10275000853595400CF03FC0F4010083F601E4504C
:10276000FE4FE081EF3FD1F0D601A853BC4F2C9132
:10277000F0E0521608F040C030E02C1B3D0B2C9FBF
:10278000C0012D9F900D3C9F900D1124B5010E941A
:10279000E933262F402FCF010E9475086394F6E09D
:1027A000CF0ED11C2AE06212CCCF4FEFE41AF40A0C
:1027B00086E0E816F10409F0BECF8091C6037812D6
:1027C00002C01092C6038091C7038F5F8D31F0F471
:1027D0008093C703BACDF601E853FC4F808188236C
:1027E00009F4BCCF801708F0B9CF9091C6037912D5
:1027F000B5CF81508083B2CF029FC0011124BE01AA
:102800000E94E933462F20E060E0C5CF1092C70355
:1028100028EF33E089E09FEF900FE8ECF3E0D90177
:10282000893021F446A9041301C096AB4D9140179D
:1028300030F0ED012197988315960C9315973196FA
:1028400043E0EE3CF40761F78150265031098111D5
:10285000E4CF7BCD8EE698E00E94880918CE88E60A
:1028600098E0FACF4F925F926F927F928F929F92F1
:10287000AF92BF92CF92DF92EF92FF9260912D04C0
:1028800070912E0480912F04909130040E94390E93
:102890006B017C010E941F0E4B015C0180922D0494
:1028A00090922E04A0922F04B0923004A0910404C0
:1028B000E4E0F4E08A2F90E04FEF5FEF60E070E03B
:1028C0004C195D096E097F09A91328C0809304047F
:1028D00080913504811135C090915F05892F8370F7
:1028E00019F0892F8695869590916A01913009F4A7
:1028F00041C0992341F1923009F43FC0933009F46B
:102900003FC0FF90EF90DF90CF90BF90AF909F902F
:102910008F907F906F905F904F900895218D328DB2
:102920002901712C612C441555056605770520F4A5
:1029300081509F5F3296C8CF2C0D3D1D328F218F65
:10294000F8CF80E0D1CF10926C0180923104909248
:102950003204A0923304B092340489E2E4E0F4E05B
:10296000A6E3B5E001900D928A95E1F781E08093AE
:102970006A01C7CF0E947111C4CF0E945B08C1CF0A
:102980008091370481110E94EF0F609131047091A2
:10299000320480913304909134040E94390E6031E6
:1029A00071058105910508F4ACCF10926A01A9CF99
:1029B000AFE0B0E0EEEDF4E10C94AB338E010F5FCD
:1029C0001F4F8AE0D8011D928A95E9F78CE2C82E44
:1029D00081E0D82EF12CE12CAA24A394B12C2CE276
:1029E000822E21E0922EF60181916F018F3F09F432
:1029F00042C0F894E82FE295EF70F0E021A18F70CB
:102A0000A50102C0440F551F8A95E2F7CA01922F13
:102A1000982B91A392A18095892382A3789400C0DA
:102A2000E6E2F1E0712C31E021912F3F09F46BC017
:102A3000A22FA295AF70B0E090968C9190E02F708D
:102A400002C0959587952A95E2F780FD5CC0832F9B
:102A5000782A330F8E169F0639F7F6013197808159
:102A60008F3F11F00E94080A50EA5A95F1F7F801D9
:102A7000EE0DFF1D70828FEFE81AF80AA5E0EA1646
:102A8000F10409F0B0CF4AE050E0B8018CE993E0DE
:102A90000E947A34009741F02AE0F801ACE9B3E0F3
:102AA00001900D922A95E1F70091A703892B69F116
:102AB00081E080936C030E94030890936B038093E2
:102AC0006A0380916A0390916B030E94E80705975F
:102AD00000F110E007541C4F45E050E06CE973E052
:102AE000C8010E947A34C12C892B51F085E0ECE9B1
:102AF000F3E0D80101900D928A95E1F7CC24C394BC
:102B000010926C0307C080E0A3CF80916C03811109
:102B1000D8CFC12C0E94EB0DD82EE091A7038823BB
:102B200009F492C07E01BBE0EB0EF11C85E0D701F9
:102B30001D928A95E9F70E2F10E007541C4FB090B4
:102B40007503B9E0BB15E0F128E43EE146E851E049
:102B5000B701C8010E942A11882309F453C020E953
:102B60003DE143E951E0B701C8010E942A118823E1
:102B700009F448C026EE3DE14EE951E0B701C80135
:102B80000E942A118823F1F1F9E0FB1508F453C0E3
:102B9000109275038091A60390E045E050E0B701E4
:102BA00087549C4F0E947A3421E020937303892B31
:102BB000E1F4D12C8D2D8C292F96EDE00C94C733A8
:102BC00080916D0390916E030E94E807843F9140CD
:102BD00008F0BACF80917303882359F385E0D701B9
:102BE0001D928A95E9F710927303A091A603B0E0B5
:102BF000A754BC4F85E0FE013B9601900D928A954B
:102C0000E1F7D8CF809175038F3F31F08F5F8093CC
:102C100075038A3008F4BECF0E94030890936E03B8
:102C200080936D038091360480FFD4CF80EC92E0D6
:102C30000E948805CFCF8091360480FFA9CF8DEA0E
:102C400092E00E948805A4CFF0E0E754FC4F85E0B5
:102C5000A4E8B3E001900D928A95E1F784E893E04F
:102C60000E944806809383038090890390908A0392
:102C7000A0908B03B0908C0380916F0390917003B0
:102C8000A0917103B091720388169906AA06BB063B
:102C9000D1F080926F0390927003A0927103B09272
:102CA00072030E94EB0D81110EC00E94F707861A75
:102CB000970AA80AB90A8092980390929903A09261
:102CC0009A03B0929B0386E0EDE8F3E0AFE5B5E050
:102CD00001900D928A95E1F710919303112349F029
:102CE00080913504811105C00E94711180E00E941D
:102CF0005B08109335045ECF0F931F93CF93DF9340
:102D000080910B0590910A05892B80930603909181
:102D10006803992391F0892B8093060320E088E0D3
:102D200093E0FC013191CF0131112F5FF3E08E3040
:102D30009F07B9F721110E94E20B48E050E060E6DE
:102D400073E086E093E00E947A34892B09F441C055
:102D500088E0E6E0F3E0A0E6B3E001900D928A950A
:102D6000E1F7E0911005F0911105309791F10280A3
:102D7000F381E02D86E093E009958091360482FF8F
:102D800028C080FF04C08BE992E00E948805D0E053
:102D9000C0E005E912E08091360480FF0EC0FE011C
:102DA000EA5FFC4F80811F928F931F930F930E94C5
:102DB00021060F900F900F900F902196C830D105EB
:102DC00051F78091360480FF04C083E992E00E94AD
:102DD0008805DF91CF911F910F910895CF93DF93D5
:102DE000EC01EA85FB85309719F06C857D850995A6
:102DF0008B810E94FC0B8C810E94030C0E947C162C
:102E000086E0FE0111928A95E9F7DF91CF9108954E
:102E1000CF93DF93EC018D8181FD18C082608D839B
:102E200080910A059B81892B80930A0580910B056F
:102E30009C81892B80930B050E947C16E885F9857F
:102E4000309721F06C857D85CE01099510920D0596
:102E500010920C058D8180FD03C0CE010E94EE16FC
:102E6000DF91CF91089590E080E00E943F0890E0CC
:102E700080E00E94290810920A050E947C1608959D
:102E8000809365050E943317089580916505982FFA
:102E90009670963021F488600E9440170895877FCD
:102EA000FBCF21E030E001C0220F8A95EAF72095A0
:102EB0008091650582230E944017089590915F03D9
:102EC0008095892380935F03282F277091F4282F02
:102ED000082E000C330B9217130659F09091A9039A
:102EE00092FF07C08595859585950E945117109290
:102EF0005F030895CF93DF93D82FC091A903C2FB3E
:102F0000882780F98D1711F1D0FBC2F9C093A9036E
:102F10006091A80384E090E00E94BE346C2F82E2AE
:102F200090E00E94BE3482E00E945E1780913604D9
:102F300080FF0CC01F92DF938EE792E09F938F93E8
:102F40000E9421060F900F900F900F90DF91CF916C
:102F5000089521E030E001C0220F8A95EAF78091C0
:102F60006505822B0E9440170895FC018281823002
:102F700041F0833041F0813019F482E00E94A917BA
:102F8000089583E0FBCF85E0F9CF809369030E9429
:102F90003317089510920B05E8E0F3E086E0DF01B7
:102FA0001D928A95E9F70E9433170895AAE2B0E0CE
:102FB000ECEDF7E10C94B5338EE295E02091F10051
:102FC000DC012D93CD01B5E086339B07B9F78091E5
:102FD0002F05833009F472C0B8F4813009F449C078
:102FE000823009F4B3C08091E80083FF91C28091E0
:102FF0002E0590912F059A3008F08AC2E92FF0E053
:10300000E15BFA4C0C9411348A3009F48EC08B3099
:1030100009F471C0893039F780912E05813219F792
:103020008091320590913305009711F00297D9F6FF
:103030008091E800877F8093E8008091E80082FF1C
:1030400038C09091F3008091F200029731F48091A2
:10305000F100813011F0863021F48091F1008093ED
:1030600021058091E8008B778093E8000E94D906C3
:10307000BACF80912E05813A09F0B5CF8091E80052
:10308000877F8093E8008091320590913305892BEA
:1030900061F468E082E295E070E00E94850780912B
:1030A000E8008B778093E8009ECF60E090E080E0BE
:1030B000F3CF80912C058111C0CF95CF80912E0543
:1030C000813A09F090CF8091320590913305892B98
:1030D00009F089CF8091E800877F8093E800809194
:1030E000E80080FFFCCF80916B018093F10080911C
:1030F000E8008E77B9CF80912E05813209F073CF29
:103100008091320590913305892B09F06CCF809125
:10311000E800877F8093E8000E94D90680913005FF
:1031200080936B010E94CA175ECF80912E05813279
:1031300009F059CF8091E800877F8093E8000E94D2
:10314000D90680913105809320054DCF80912E05C1
:10315000813A09F048CF8091E800877F8093E800AA
:103160008091E80080FFFCCF80912005BECF8038A1
:1031700099F0823809F0CCC1809132058F70873088
:1031800008F0C6C18093E9008091EB0085FB882799
:1031900080F91092E90006C080912A0590912B05D4
:1031A000911182609091E800977F9093E80080935E
:1031B000F1001092F1008091E8008E77A5C188237C
:1031C00009F493C1823009F0A3C1809130058111C7
:1031D00096C1809132058F702FEF280F263008F0AE
:1031E00097C18093E9002091EB0020FF88C19330C4
:1031F00031F48091EB0080628093EB0080C190916C
:10320000EB0090619093EB0021E030E001C0220FD1
:103210008A95EAF72093EA001092EA008091EB0089
:103220008860EACF811174C1109130051F778091B9
:10323000E3008078812B8093E3008091E800877F12
:103240008093E8000E94D9068091E80080FFFCCFBF
:103250008091E30080688093E30082E0111183E0B5
:1032600080932C0555C18058823008F051C12091BF
:103270003005309131052C3DE3E03E07A1F583E0B8
:103280008A838AE289834FB7F894DE01139620E09F
:103290003EE051E2E32FF0E050935700E49120FF2D
:1032A00003C0E295EF703F5FEF708E2F90E0EA3041
:1032B000C0F0C7968D939D932F5F243159F74FBF70
:1032C0008091E800877F8093E8006AE270E0CE0199
:1032D00001960E9485078091E8008B778093E80033
:1032E00017C1C096E7CF8091320590913305432FE7
:1032F00055274330510509F44AC078F5413051054E
:1033000009F47AC08BE790E0E7ECF9E04230510530
:1033100009F0FEC02091E800277F2093E80020916B
:103320003405309135058217930708F49C0140E07D
:103330002115310509F065C0411163C08091E80095
:1033400082FDC9CF80912C05882329F2853019F29E
:103350008091E80083FFF2CFBECF4132510509F4DE
:103360003CC04232510509F0D3C08430910508F0C9
:10337000CFC0FC01EE0FFF1FE451FE4F0190F08122
:10338000E02D88519E4FDC018C9190E01AC03327CC
:1033900021303105D1F02115310561F022303105A0
:1033A00009F0B6C0E4E5FAE0E4918E2F90E0E4E5A0
:1033B000FAE007C0E0E8FAE0E4918E2F90E0E0E860
:1033C000FAE0009709F4A4C0A5CFE0E7FAE0E491A1
:1033D0008E2F90E0E0E7FAE0F4CF8430910508F01A
:1033E00097C0880F991FFC01EC50FE4F0190F081AF
:1033F000E02D89E090E08ECF82E190E0E2E4FAE017
:1034000089CF80912C05882309F465CF853009F494
:1034100062CF8091E80083FD5ECF8091E80082FD5D
:103420008DCF8091E80080FF83CF9091F300809151
:10343000F2002115310519F08830910550F041E076
:10344000089709F040E08091E8008E778093E800CB
:103450006FCF44914093F10031962150310901968C
:10346000E8CF803809F054C08091E800877F8093CE
:10347000E80080912D058093F1009DCE811148C018
:1034800010913005123008F043C08091E800877F2A
:103490008093E80010932D050E94D906112311F0A6
:1034A00084E005C08091E30087FDFACF81E080933E
:1034B0002C0542E061EC81E00E94F80642E261ECFA
:1034C00084E00E94F80642E261EC82E00E94F80685
:1034D00042E260EC83E00E94F80642E261EC85E0A3
:1034E0000E94F80680912C0513C080913005813030
:1034F00079F481E0933009F080E080932B051092FD
:10350000E9008091E800877F8093E8000E94D90657
:103510008091E80083FF0AC08091E800877F809354
:10352000E8008091EB0080628093EB00AA96E3E0D4
:103530000C94D1330E94CA172FEF84E39CE02150F2
:1035400080409040E1F700C0000088E19CE00FB6A9
:10355000F894A895809360000FBE90936000FFCF11
:10356000882321F00E94FC0B0E947C160895809114
:103570000605882329F082E20E94B01A10920605FF
:103580000895882339F090910A05982B90930A05A5
:103590000E947C160895882321F00E94030C0E944B
:1035A0007C160895882339F090910B05982B909301
:1035B0000B050E947C160895882391F19CEF980FCB
:1035C000913A80F4E8E0F3E02EE033E09191891342
:1035D00003C0DF0111971C922E173F07B9F70E9415
:1035E0007C16089590E2980F983050F4877091E01F
:1035F00001C0990F8A95EAF7892F0E94030CEFCF3B
:103600009BE5980F933028F490E080E00E943F08FB
:103610000895885A873120F490E080E00E942908BC
:10362000089580910501843051F028F4833059F0D9
:10363000109205010895853069F08630C9F789E355
:103640000E94DC1AF5CF84E00E94CB1A81E00E9430
:103650005117EECF85E0F8CF80910501843061F0FD
:1036600038F4823069F0833079F0109205010895C2
:10367000853071F08630C9F780E00E94A917F5CF38
:1036800087EE0E94DC1AF1CF80E80E94CB1AEDCFC2
:1036900080E80E94CB1A81E00E945117E6CFCF93B9
:1036A000C82F8823B1F08CEF8C0F813A00F5E8E049
:1036B000F3E08EE093E0DF012D91C21761F08A17ED
:1036C0009B07D1F76C2F86E093E00E940F080E94C1
:1036D0007C16CF9108952191C21303C0DF01119789
:1036E0001C928E179F07B9F70E947C16EBCF80E2E1
:1036F0008C0F883068F4C77021E030E001C0220FE1
:10370000CA95EAF780910B05822B80930B05DFCFDA
:10371000EBE5EC0FE33040F4F0E0E755FE4F80813D
:1037200090E00E943F08D5CFC85AC73190F6EC2FE1
:10373000F0E0EE0FFF1FE455FE4F808191810E9463
:103740002908C7CF1F93CF93DF93182FD0E0C0E095
:10375000893311F4C0E5D0E0812F0E944F1B2097E0
:1037600039F4812F0E94DC1ADF91CF911F910895C7
:103770008FE99FE00197F1F700C000002197EFCF9C
:10378000B0E0A0E0E6ECFBE10C94B0336B01C42F99
:10379000D22FFC0182818823A9F0409309050E9461
:1037A00003089093080580930705C77081E001C066
:1037B000880FCA95EAF70E94D21ACDB7DEB7E8E0C3
:1037C0000C94CC3310910905141337C08091070570
:1037D000909108050E94E8077C01C6010E942A0614
:1037E000E816F90650F5C0E2CD0F1D17C1F080E2D2
:1037F000810F883048F4177081E0012E01C0880FD6
:103800000A94EAF70E94CB1AC83048F481E09D2F51
:10381000977001C0880F9A95EAF70E94D21A802FFC
:103820000E94A21BC83048F6D77081E001C0880F03
:10383000DA95EAF70E94CB1AC0CFC77081E001C0C9
:10384000880FCA95EAF7F6CFB0E0A0E0EAE2FCE123
:103850000C94B133E82FF0E0ED59F94FD490282FB4
:1038600026952695269530E0F901ED5AF94F0491F9
:10387000877010E0082E02C0159507950A94E2F7AC
:1038800001701127F901ED5BF94FE490F12C082E3E
:1038900002C0F594E7940A94E2F791E0E922FF244C
:1038A000F901ED5CF94FC491D0E002C0D595C79500
:1038B0008A95E2F7C170DD270115110519F081EE37
:1038C0000E944F1BE114F10419F086EE0E944F1B79
:1038D0008D2D0E94A21BE114F10419F086EE0E94C6
:1038E000DC1A0115110519F081EE0E94DC1ACD2BAE
:1038F00019F08CE20E94A21BCDB7DEB7E7E00C9472
:10390000CD33FF920F931F93CF93DF938C018AE007
:10391000F82EF8018491882309F44BC0813009F016
:1039200044C0E8012196FE018491813049F421963A
:10393000FE0184910E94A21B8E010F5F1F4FE9CFF1
:10394000823039F4E8012296FE0184910E944F1BD7
:10395000F3CF833039F4E8012296FE0184910E946E
:10396000DC1AEACF843041F7E8012296FE01249167
:1039700090E080E0FE0131962053330B2A30310570
:1039800048F00197C8F2EFE9FFE03197F1F700C086
:103990000000F7CFF89EA001F99E500D1124C90137
:1039A000840F951F2491EF01E5CF0E94241CE801AC
:1039B000C3CFCDB7DEB7E5E00C94CF330F931F93A1
:1039C000CF93DF938C0180910501863011F1A0F433
:1039D0008230F9F08430E9F082E00E94511783E0F0
:1039E0000E94511785E00E94511710920501DF9146
:1039F000CF911F910F910895873079F08950C1E0E0
:103A0000D0E0823048F7F80182818C171D0609F05A
:103A100044F488E20E94DC1ADFCF80E00E94A917FC
:103A2000DBCF88E20E94A21B2196EDCF0E94AA0C58
:103A3000809305018430E1F028F4823041F0833036
:103A400081F008958530D1F0863091F0089580910D
:103A50000605882319F00E94B71A08950E94E80B02
:103A6000089584E00E94D21A81E00E94A917089567
:103A70000E94B71A89E30E944F1B089585E0F2CF98
:103A80000E94AA0C80930501843099F028F48230BA
:103A900041F0833051F008958530D9F0863049F0F7
:103AA000089587EE0E944F1B089580E80E94D21A65
:103AB000089581E00E94511782E00E94511783E02F
:103AC0000E94511784E00E94511785E00E9451170F
:103AD000089580E80E94D21A81E00E94A9170895F3
:103AE0000E94AA0C80930501863079F028F4823078
:103AF00041F0843051F00895873059F08950823078
:103B000070F488E20E944F1B089588E20E94A21B75
:103B1000F8CF81E00E94511784E00E945117089568
:103B2000A4E0B0E0E6E9FDE10C94B53340917F03F9
:103B30005091800360918103709182032FB7F894B4
:103B40008091150590911605A0911705B091180563
:103B50002FBF841B950BA60BB70B11E08436910584
:103B6000A105B10570F10E941F0E6E5F7F4F8F4F50
:103B70009F4F69837A838B839C83809117019091F7
:103B800018018D579C4F4091160150E0453051056A
:103B900010F044E050E0BE016F5F7F4F0E94873419
:103BA00082E090E00E943033182F882351F00E9469
:103BB000F70760937F037093800380938103909352
:103BC0008203812F2496E3E00C94D133A7E0B0E088
:103BD000ECEEFDE10C94B43386E0EFE5F5E0DE01B8
:103BE000119601900D928A95E1F7809135048F83AB
:103BF00047E050E06DE873E0CE0101960E947A3410
:103C000000919403109195032091960330919703AE
:103C1000EFB7F8944091150550911605609117057E
:103C200070911805EFBF401B510B620B730B4436AC
:103C300051056105710518F411E0892B21F180917E
:103C40001F01909120018D579C4F40911E0150E023
:103C50004830510510F047E050E0BE016F5F7F4FE4
:103C60000E94873483E090E00E943033182F88232D
:103C700051F00E94F707609394037093950380932B
:103C8000960390939703812F2796E4E00C94D0330A
:103C9000EF92FF921F93CF93DF9300D000D000D01C
:103CA000CDB7DEB77B0190E080E00E943033182F63
:103CB000882309F480C04091090150E04115510565
:103CC00011F041E050E060910A0170910B016D57D5
:103CD0007C4FCE0106960E94873440917B03509121
:103CE0007C0360917D0370917E032FB7F8948091DF
:103CF000150590911605A0911705B09118052FBFD5
:103D0000841B950BA60BB70B84369105A105B10555
:103D100040F484E893E00E9448069E81891709F4E4
:103D20004AC081E090E00E943033811116C010E05B
:103D300085E0E6E7F3E0D70101900D928A95E1F77F
:103D4000812F26960FB6F894DEBF0FBECDBFDF9150
:103D5000CF911F91FF90EF9008954091110150E095
:103D60004630510510F045E050E06091120170912D
:103D700013016D577C4FCE0101960E94873484E871
:103D800093E00E9448069E818913D1CF0E94F707D5
:103D900060937B0370937C0380937D0390937E03F9
:103DA00085E0FE013196A6E7B3E001900D928A9579
:103DB000E1F711E0BDCF85E0E4E8F3E0DE01119624
:103DC00001900D928A95E1F71111EACFB1CF90E001
:103DD00080E00E94A834883E9E4F19F40E94C80FCC
:103DE000089580E0089568EE7EEF90E080E00E9404
:103DF000DC3460E082E090E00E94BE3460E083E06A
:103E000090E00E94BE341092690360E084E090E08C
:103E10000E94BE3464E082E290E00E94BE3460E022
:103E200085E090E00E94BE3460E086E090E00E9471
:103E3000BE346FEF87E090E00E94BE3440E050E077
:103E4000BA0188E090E00E94D03460E08DE090E01C
:103E50000E94BE3440E050E0BA0188E190E00E9448
:103E6000D03460E087E190E00E94BE3440E050E052
:103E7000BA018CE190E00E94D03470E060E080E212
:103E800090E00E94DC3440E050E0BA0188E190E02C
:103E90000E94D03480E00E94C80E0E94E10E40E0F3
:103EA00050E0BA018FE090E00E94D03440E050E052
:103EB000BA0183E190E00E94D0340895A4E0B0E01C
:103EC000E4E6FFE10C94AC337C01DC0113964D91E8
:103ED0005C91149711966C9111978C910E940A0C29
:103EE000A82E81116CC061E0C7010E949D0F8C015A
:103EF000F70182818823E1F080910C0590910D05F6
:103F00000097B1F00817190799F0FEE08F9FC001E4
:103F10001124FC01ED5BFE4F208124602083825C34
:103F20009E4FDC010D931C930E94081710920A0506
:103F3000F7018281882309F44EC6980122513F453A
:103F40002031310508F05CC68FEF93E00E94A03469
:103F5000811126C0025157EFC52E52E0D52E011116
:103F600032C01C821B82BB24B3944AE0A42E86017B
:103F70000F5F1F4FC6010E94A03489831A828823D5
:103F800079F09FEF980F933060F58A83B98232E021
:103F9000C30ED11CC8010E94A0348B83811122C0A2
:103FA00080915F03877059F0F7018281882339F08F
:103FB0008091A90382FF03C082E00E945E172496CD
:103FC000ECE00C94C833C114F4E0DF0649F3C601F9
:103FD0000E94A034811101C001502FEFC21AD20AF1
:103FE000BECF68018E010F5F1F4FD8018C918823CF
:103FF00009F4BDCF813009F044C011969C9111970E
:1040000012968C91913039F40E5F1F4F0E94A21BC3
:104010000F5F1F4FEACF923029F40E5F1F4F0E94AF
:104020004F1BF6CF933029F40E5F1F4F0E94DC1A0E
:10403000EFCF943019F00F5F1F4FEACF0E5F1F4F85
:1040400030E020E0B8016F5F7F4FF801418180537D
:10405000990B8A30910550F021503109C8F28FE94F
:104060009FE00197F1F700C00000F6CFA29EF0019B
:10407000A39EF00D11249C012E0F3F1F842F8B0156
:10408000E1CF0E94241CC4CF81E00E94A9170E94A6
:10409000451786CF81E00E945117F9CF82E0FBCF10
:1040A000882379F18CEF91E00E94811C2AC088233B
:1040B00041F186EF91E00E94811C61EC7AE18FE48E
:1040C00091E00E94A20C8FE40E944F1B8FE40E949B
:1040D000DC1A60EB7AE18FE491E00E94A20C61ECC3
:1040E0007AE187E292E00E94A20C87E20E944F1BD5
:1040F00087E20E94DC1A60EB7AE187E292E00E949C
:10410000A20CC80197558F3F910511F008F0A3C08C
:1041100048019924AEE00A9FF00111249F01225C1E
:104120003E4F6901D70112968C91ED5BFE4F908155
:1041300080FB90F99083882309F485C00E940308CE
:104140009093B7038093B603F60182818F5F8283D9
:1041500080910A0590910B05892B838380916803D8
:1041600084830680F781E02D309731F0D6011C96CC
:104170006D917C91C60109958EE0889DF001899D25
:10418000F00D1124E25CFE4F858181FF59C090E063
:1041900080E090930C0580930D058091060588239F
:1041A00009F4E4C0C0900B05D09068030E94030896
:1041B00088579C4E9093050580930405F7018281F2
:1041C000882309F4D3C08D2D8C298D7909F0CCC0BA
:1041D0000115F5E51F0708F0A6C0011523E5120734
:1041E00008F053C0011530E5130708F049C0011568
:1041F00080E4180708F0E0C0063E110509F445C048
:10420000C801E0C0882309F47CCF8AEE91E04CCF4E
:10421000882309F476CF81EB91E046CF882309F417
:1042200070CF82E991E040CF882309F46ACF81E71B
:1042300091E03ACF882309F464CF82E691E034CF4D
:10424000902F812FA6CFF901858181FFA6CFC901CB
:104250000E94EE16A2CF0C3AFDE51F0709F09DCF94
:10426000D70112968C91882309F49ACE8091060585
:10427000882319F00E94B71A93CE0E94E80B90CEC3
:10428000011592E5190708F0BBCFD70112968C9162
:10429000882309F4C0C4109209050330BDE51B074B
:1042A00008F0DDC00A3FECE51E0730F4C80182507B
:1042B0009C45449708F0DEC00E94E10F9093A9034B
:1042C0008093A80302318CE5180709F4E3C108F0D4
:1042D0002FC10930ACE51A0709F4BAC108F0F9C0DA
:1042E0000530ECE51E0709F4A7C108F0E0C0033073
:1042F0002CE5120709F498C108F09AC102308CE548
:10430000180709F489C16091A8031091A90384E0FA
:1043100090E00E94BE34612F82E290E00E94BE34A1
:104320000E94CA173DCE0115A9E51A0758F40115D8
:10433000B8E51B0708F0A9CF0431E5E51E0709F031
:104340005FCFA3CFC80190568115904208F058CF97
:10435000D70115968C91807F99F5812F8F718231CD
:1043600041F118F5823029F10E94B71A033F2CE57C
:10437000120709F45CC008F044C0083D8CE518073A
:1043800009F44FC0093D9CE5190709F462C0073DD7
:10439000ACE51A0709F079CF06E221EE41EE67EDB0
:1043A0007CE5C7010E94C01BFBCD8431F9F2863148
:1043B000D9F610920A05D8CFF7018581807FB1F236
:1043C000C801992710920A058832910548F48E3168
:1043D000910568F4049740F282E080930A0507C0D3
:1043E0008D329105C9F330F48A9709F0BDCF0E9450
:1043F0007C16BCCF8C349105D1F38D329240B9F349
:10440000B3CF053FBCE51B07F1F0B8F0063FFCE574
:104410001F0709F03ACF07E225EE46EE66EF7CE58E
:10442000C0CF07E225EE45EE68ED7CE5BACF06E2A7
:1044300021EE40EE63EF7CE5B4CF07E225EE44EEDB
:1044400064EF7CE5AECF06E221EE42EE65EF7CE55F
:10445000A8CF08E221E045EE69ED7CE5A2CF053A60
:10446000FDE51F0709F428CFE0F401363DE5130709
:1044700009F422CF06318CE5180709F05AC480915F
:104480000B058A7A91E009F490E090930E0369E2BB
:10449000811165E386E093E00E940F080E947C167C
:1044A0007FCDC8018D5A9D45039720F705CF809198
:1044B000A803806207309CE51907B9F18091A80331
:1044C00080610830ACE51A0780F18091A803806410
:1044D0002CC00D30BCE51B0709F4C4C090F48091DA
:1044E000A8038E7F0B30FCE51F07F9F08091A8032D
:1044F0008C600C302CE51207C0F08091A8038D7FF2
:1045000014C00F303CE5130709F4BCC008F4AEC07A
:1045100000319CE5190709F4B9C08091A8038F7B8D
:104520000131ACE51A0709F0EECE8093A803EBCE7B
:104530000F3FBCE51B0709F4B7C0A8F50A3FFCE52F
:104540001F0709F47DC0C0F404313CE5130709F4EA
:10455000B9C008F4A5C005319CE5190709F0D3CE10
:104560008091A80382FB992790F921E0922790FB84
:1045700082F990FB83F9D9CF0C3FACE51A0709F417
:1045800079C008F461C00D3FECE51E0709F476C060
:104590008091A90383600E3FFCE51F0709F0B3CEAD
:1045A0008093A903B0CE01362DE5120709F495C01A
:1045B00090F401308DE5180709F48DC008F478C037
:1045C00060E00230ADE51A0709F09DCE8EE090E084
:1045D0000E94BE3498CE0D3ABDE51B0709F160F488
:1045E0009091A803892F8E7F90FF8160053AFDE5A9
:1045F0001F0709F49ACF87CE0E3A2DE5120771F105
:104600000F3A3DE5130709F07ECE9091A903892F5B
:10461000877F93FF8860C4CF8091A803816085CF96
:104620008091A9038860BCCF8091A80382607DCF70
:104630008091A803846079CF8091A803886075CFAA
:104640008091A9038160ACCF8091A9038260A8CF3B
:104650000E94CA178091A803806867CF8091A90340
:10466000877F9ECF8091A8038B7F5FCF8091A80327
:10467000877F5BCF8091A9038E7F92CF8091A90322
:104680008D7F8ECF8091A8038F7E4FCF8091A8031E
:104690008F7D4BCF0E94CA178091A8038F7745CF9B
:1046A0008091A803837F41CF8091A9038C7F78CF2D
:1046B0008091A903982F909591708E7F892B90FB04
:1046C00081F96ECF0E94CA179091A803892F97FB9A
:1046D00087F980582ACF61E079CF9091A803892F7C
:1046E0008F7E94FF806121CF80910E0381110FC0D6
:1046F00089E2E8E0F3E02EE033E09191891303C012
:10470000DF0111971C922E173F07B9F7C7CE85E33B
:10471000F0CF4FEE50E16AEF70E10E94550840CCB7
:104720004AEF50E16FEE70E1F8CF42EA50E16DEAF6
:1047300070E1F3CF4AE650E168E770E1EECF61E067
:1047400081E00E94B8102CCC90913604892F8E7F86
:1047500090FF81608093360480FF05C08DE692E073
:104760000E9488051DCC8BE592E0FACF0E94F31ED3
:104770000E949A1A8091A90382FB882780F991E010
:1047800089270E947A17D70112968C9112970D9162
:104790001C91882309F444C0C8010E942E0FD82E12
:1047A000682FC8010E94530CB8018D2D0E94200F64
:1047B0000E94620A8C01882EF701D280B580B294E3
:1047C0003FE0B32280915F038770C1F0DD20A9F044
:1047D000812F807F803421F080E2800F883070F05C
:1047E0008091A90382FF0AC082E00E945E17809137
:1047F0005F038770AA24A3948111A12C912E929417
:104800002FE09222FBE0F91508F46BC0E92DF0E0EF
:10481000E75AFA4C0C94113481E0B3CF80E0B1CF69
:10482000C8010E941F0CD82EBFCF212F2F70C22E7F
:10483000107F19F0C29490EFC922DD20B9F0CC208E
:1048400069F080E2800F883010F0811009C08091FB
:104850000B05C82AC0920B050E947C16802F3FC012
:1048600080910A05C82AC0920A05F6CF802F0E94BF
:10487000DC1ACC20B1F1005E8C2D083010F08110D4
:1048800003C00E94030C02C00E94FC0B0E947C1615
:1048900028C0312F3F70C32E107F103219F0C29400
:1048A00080EFC822882059F081E0881609F465C09D
:1048B000DD2009F46FC0BB2009F465C0CFCF209183
:1048C000A90322FD38C0DD2079F1CC2039F0809198
:1048D0000B05C82AC0920B050E947C1680E00E943E
:1048E0004F1BA92DA850BB0B149710F40E940E0E5D
:1048F000AA20A9F080915F0380FD11C0F701128208
:104900008595859585950E94A917C7010E945E1F10
:1049100080915F038595859585950E94511760E08C
:10492000C7010E949D0F4BCB80E00E94DC1ACC2077
:10493000C1F28C2DA6CFDD2099F0909168038C2DCB
:10494000892BB11003C00E94D21ACBCFA1E0BA12BA
:10495000FACF22FFC6CF981721F280936803C1CF08
:10496000B11006C00E94E20B8C2D0E94CB1AB9CF69
:10497000B1E0BB1609F4B5CFF5CFDD2031F0E5E0AD
:10498000EB1508F4AECF8C2DDECFF4E0FB1508F468
:10499000A8CFEACFBB2041F329E3821209C03FEF41
:1049A00087EE93E0315080409040E1F700C0000076
:1049B000802F0E94DC1A95CF812F86958695837073
:1049C00061F0813009F08DCFC8019370D11002C021
:1049D00090E080E00E94290884CFC8019370D11034
:1049E00002C090E080E00E943F087BCF812F83705F
:1049F00089F5D11076CF402F429546954770440FE8
:104A0000440F802F8F70042E01C0880F0A94EAF79C
:104A1000202F207104FF07C02FE030E001C0220FDB
:104A20004A95EAF72095169516951370123069F09D
:104A300050F430916903113029F0822B83230E94B6
:104A4000C5174FCF832B822BFACF282B8091690378
:104A50008227F5CF8695DD2011F0812F8170882384
:104A600009F43FCF402F429546954770440F440FBD
:104A7000802F8F70042E01C0880F0A94EAF7202F30
:104A8000207104FF07C02FE030E001C0220F4A95DB
:104A9000EAF72095169516951370123069F050F4C8
:104AA00030916505113029F0822B83230E94401735
:104AB00018CF832B822BFACF282B80916505822774
:104AC000F5CF1F70DD2029F0812F0E94A917802FBC
:104AD0003ACF802F0E94CB1A812F0E94511701CF0D
:104AE000802FA2EF8A16B1F1A81570F0B0EF8B16E7
:104AF000D1F0E1EF8E1691F0DD2009F45CC0B11029
:104B0000ADCE812F8F712AC0F3EF8F1651F124EFB4
:104B10008212F2CF8091A90382FD2FC0812F8F7165
:104B2000DD20D9F21BC0DD2081F034E03B1508F414
:104B3000D8CE1F7181E090E0012E01C0880F0A9449
:104B4000EAF7909165058927B1CF85E08B1508F4C8
:104B5000C8CEEFCF812F8F71D110BFCF0E94A91780
:104B6000C0CE80E0DD2009F4A1CF1F7181E0012ECD
:104B700001C0880F0A94EAF799CFDD2089F01F71F0
:104B8000812F0E94A9178091A90382FF07C0A8E086
:104B90001A9FC0011124836080935F03812FDECFB1
:104BA00081E00E945E17B1E0BB1508F09ACE82E06A
:104BB0000E945E1796CEBB2059F0893309F0F8CEDB
:104BC000EFEFF7EE23E0E150F0402040E1F7EECECA
:104BD000812F8F7182CF0031FFE51F0709F45ACA78
:104BE00001312FE5120709F459CAF801E15BFD45CF
:104BF000E730F10508F085CAEB59FA4C0C941134F2
:104C000000313FE5130709F43FCA01319FE5190759
:104C100061F782E03ACA0631ACE51A0709F464CDBF
:104C200080910B058272093CBCE51B0709F482CD1B
:104C300008F051C0053CFCE51F0709F476CDA0F54E
:104C4000033C3CE5130709F464CD08F069CD023C50
:104C5000ACE51A0709F097CD80915F05982F937006
:104C600021E092278C7F892B80935F0510926A0147
:104C7000809137048160809337048091360480FFEF
:104C80008FC91F929F938FE791E09F938F9384E248
:104C900092E09F938F930E9421060F900F900F90A8
:104CA0000F900F900F907CC946E850E164E970E1E5
:104CB000073CBCE51B0709F430CD4DEA50E162EA40
:104CC00070E1083CECE51E0708F427CD44E950E10B
:104CD00066E870E122CD0D3CFCE51F0709F42FCDFD
:104CE000B8F44CE150E168E270E10B3C3CE513079D
:104CF00009F413CD48E750E16AE670E10C3C9CE50D
:104D0000190708F40ACD48E250E16CE170E105CDE5
:104D1000063DACE51A0740F461E082E00F3CBCE5DB
:104D20001B0708F40ECD3CC90D35100709F438C92E
:104D30002ACD0A35FDE51F0709F46ECDD8F4013000
:104D40003CE5130709F400CD0E3D8CE5180709F486
:104D50000DCD01151C4509F016CD0E94CA179FEF15
:104D6000A4E3BCE09150A040B040E1F700C00000D7
:104D70000E94A00D0C35ADE51A0709F4FBCC08F430
:104D80004DCD073A1D4509F4F3CCFDCCB0E0A0E0D1
:104D9000ECECF6E20C94AF3380912C03807F09F0A9
:104DA00050C080912903882309F44BC0C0915E0351
:104DB00086E0B82E80912D038C1709F442C0F09044
:104DC0002703E0902803C0902A03D0902B03A6016C
:104DD0006E2D8F2D0E940A0CD0E0811137C0BC9E31
:104DE0008001BD9E100D1124F801E25DFC4F818110
:104DF0008E112CC080818F1129C08281811126C023
:104E0000E380F480EC18FD0860E087E293E00E9404
:104E10009D0F0E942A06E816F906C0F480912C0323
:104E20008F70806180932C03F801ED5CFC4F8081D2
:104E30008F708061808387E293E00E945E1F0E94F2
:104E4000150CCDB7DEB7E9E00C94CB332196C770D3
:104E5000B1CFA1E1B0E0EFE2F7E20C94A7338C010F
:104E600085E0F801DE011D9601900D928A95E1F72B
:104E7000D8014C9011963C90119712966C90129715
:104E80001396ED90FC9060E087E293E00E949D0F06
:104E90005C0187E2C82E83E0D82E80902A03909090
:104EA0002B03A40160912803809127030E940A0C20
:104EB000582E811190C170902903F701E819F90962
:104EC0004F0160E0772009F426C1C6010E949D0FC2
:104ED0000E942A06B0902C038816990608F0D7C0C5
:104EE00040912A0350912B03D0902703C0902803B0
:104EF0008B2D807F6C2D09F085C08D2D0E940A0CB2
:104F0000762C81111DC0D80111968C9111978C11AE
:104F100017C08C918D1114C0611012C08B2D8F7031
:104F2000806180932C0387E293E00E945E1F809152
:104F30002C03F8018583872D6196E1E10C94C3333E
:104F4000A701632D842D0E940A0C811124C081E0E9
:104F50008625F82FF170FF2E80FF3FC080915E0301
:104F600020912D0336E0821318C04D863E868D8534
:104F70009E850E945D0F292F22952F70223008F107
:104F8000243030F59F7009F1D80115969C91907FDF
:104F9000E1F4752CD0CF80E0DCCF90E0389FF001B9
:104FA000399FF00D1124E25DFC4F4181431106C091
:104FB0004081441103C0428164120FC00196877082
:104FC000D2CF9F7011F0882321F3805E883008F3E0
:104FD000C8010E945E1F5F2CDCCF662009F4ABCFB6
:104FE00080912C03816080932C0387E293E00E94E0
:104FF0005E1F86E0E7E2F3E0DF011D928A95E9F7A4
:10500000712C99CF8D2D0E940A0C811116C0F801C8
:1050100081818C1112C080818D110FC061100DC073
:10502000B582C8010E945E1F86E0F801A7E2B3E0E6
:1050300001900D928A95E1F77ECFC8010E946A0F18
:10504000882309F16620F9F080912C03803270F0FA
:10505000209127033091280338872F831986FB86F8
:10506000EA868C87CE0107960E945E1F86E0F801D3
:10507000A7E2B3E001900D928A95E1F70E94C6265F
:105080007724739458CFC8010E945E1FF9CF8B2DEF
:10509000807F39F487E293E00E945E1F86E0D601AC
:1050A000ACCFA09027039090280340912A03509101
:1050B0002B03692D8A2D0E940A0C811113C0F8015F
:1050C000818189110FC080818A110CC061100AC0D2
:1050D000B582C8010E945E1F86E0D6011D928A95A6
:1050E000E9F729CFC8010E946A0F882361F2662080
:1050F00051F280912C03803208F4B8CF209127031D
:10510000309128033A8329831B82FD82EC828E83AF
:10511000CE010196A9CF87E293E00E949D0F0E94E5
:105120002A068816990608F050C0762C662009F4E5
:10513000AACFF0902703E090280340912A035091D2
:105140002B036E2D8F2D0E940A0C811130C0F801A7
:1051500081818E112CC080818F1129C0F8E2AF1699
:10516000F2E4BF0609F460CF2AE2A21622E6B206F4
:1051700009F45ACF8CE2A81681E4B80609F454CF9A
:1051800080912C0380FD50CF982F907F09F44CCF55
:10519000D80115968C931597903F09F442CF982F1C
:1051A000907F905F8F70892B15968C933ACFC801B2
:1051B0000E946A0F81115ACF80912C0381608093E5
:1051C0002C03C8010E945E1FB6CE86E0F601119244
:1051D0008A95E9F7B0CE662009F455CFC8010E9440
:1051E0006A0F782E882309F44ECF86E0F801A7E2F3
:1051F000B3E001900D928A95E1F780912703909199
:1052000028030E945D0F0E94C62695CEA7E1B0E05C
:10521000ECE0F9E20C94B5334B8B5C8B6D8B7E8BA1
:105220008F8B611110920A051A8A198A85E0FE0196
:105230007396DE011D9601900D928A95E1F786E046
:10524000FE013D96DE01179601900D928A95E1F7D9
:10525000CE0107960E942927811111C086E0FE0128
:105260003796DE01119601900D928A95E1F74A85F5
:105270005B8568858F810E940A0C882359F016E0AF
:1052800080915E0390912D03891331C06796E3E00E
:105290000C94D13320912D0330E0C9010196877021
:1052A000992740915E034817190699F096E0929F5E
:1052B000D001939FB00D1124A25DBC4FFE01319629
:1052C00001900D929A95E1F780932D030E94150CA1
:1052D000D6CF0E94CA1710922D0310925E0386E06B
:1052E000E7E2F3E0DF011D928A95E9F7C8CF819FDD
:1052F000C0011124825D9C4F0E942927882331F22E
:1053000080915E0390E001968770992780935E03F9
:10531000B7CF1F920F920FB60F9211242F933F9386
:105320004F935F936F937F938F939F93AF93BF93AD
:10533000CF93DF93EF93FF93D091E900DF708091DB
:10534000EC00C82FC17080FDC0E81092E900809188
:10535000F000877F8093F00078940E94D617109217
:10536000E9008091F00088608093F000CD2BCF7031
:10537000C093E900FF91EF91DF91CF91BF91AF9181
:105380009F918F917F916F915F914F913F912F915D
:105390000F900FBE0F901F9018951F920F920FB68F
:1053A0000F9211242F933F934F935F936F937F93AB
:1053B0008F939F93AF93BF93EF93FF938091E100FF
:1053C00082FF15C08091E20082FF11C08091E10050
:1053D0008B7F8093E10020911E052F5F822F62E377
:1053E0000E94DD33992309F4C0C020931E058091EB
:1053F000DA0080FF28C08091D80080FF24C080910F
:10540000DA008E7F8093DA008091D90080FFE3C0BC
:1054100080E189BD82E189BD09B400FEFDCF81E054
:1054200080932C0583EB99E00E94880580911F05ED
:10543000811109C00E945F060E942A078091E20044
:1054400084608093E2008091E10080FF1BC0809126
:10545000E20080FF17C08091E2008E7F8093E2001F
:105460008091E20080618093E2008091D8008062A8
:105470008093D80019BC85E080932C058BEB99E0D4
:105480000E9488058091E10084FF2FC08091E20096
:1054900084FF2BC080E189BD82E189BD89B5982F49
:1054A000917080FFFBCF8091D8008F7D8093D800D2
:1054B0008091E1008F7E8093E1008091E2008F7EF9
:1054C0008093E2008091E20081608093E20080910D
:1054D0002D05882309F489C084E080932C058FEB87
:1054E00099E00E94880580912C058091E10083FF5E
:1054F0002BC08091E20083FF27C08091E100877F6D
:105500008093E10082E080932C0510922D0580911C
:10551000E1008E7F8093E1008091E2008E7F809396
:10552000E2008091E20080618093E20042E060E06E
:1055300080E00E94F8068091F00088608093F0007F
:1055400083EC99E00E948805FF91EF91BF91AF91A4
:105550009F918F917F916F915F914F913F912F918B
:105560000F900FBE0F901F90189510921E058091FE
:105570001D05882309F43BCF80912C058430C1F4AC
:105580009091E9009F702091EC00822F817020FDA6
:1055900080E8892B95E09093E9009091EB0090FFD3
:1055A00004C09091EE0097FD08C08F708093E900D1
:1055B00010921D051CCF1092F1009091E80095FD0E
:1055C000FACF9091E80090FFF0CF9091E8009E779D
:1055D0009093E800EACF19BC10922C0587EB99E074
:1055E0000E94880510921F052ECF8091E30087FD51
:1055F00093E090932C0573CF78941F921FB61F925F
:1056000011248F939F93AF93BF9380911505909131
:105610001605A0911705B09118050196A11DB11DA1
:105620008093150590931605A0931705B093180560
:10563000BF91AF919F918F911F901FBE1F901895A2
:105640001F921FB61F9211248F939F93AF93BF9306
:1056500080911405811113C0809115059091160554
:10566000A0911705B09118054196A11DB11D809319
:10567000150590931605A0931705B0931805BF91D3
:10568000AF919F918F911F901FBE1F901895CDB71E
:10569000DEB7E6970FB6F894DEBF0FBECDBF85B775
:1056A000806885BF85B7806885BF84B7877F84BFE2
:1056B0000FB6F894A895809160008861809360008F
:1056C000109260000FBE80E890E00FB6F8948093CF
:1056D0006100909361000FBE8DED9CE090930503F7
:1056E000809304030E945F060E942A078091E200D3
:1056F00084608093E200789480912C058823A1F047
:105700001091E9001F709091EC00892F817090FD3D
:1057100080E8182B1092E9008091E80083FD0E9438
:10572000D6171F701093E90082E084BD93E095BD09
:105730009AEF97BD80936E00109298031092990390
:1057400010929A0310929B030E94C80F811102C00D
:105750000E94E10E55985D988FE891E00197F1F76E
:1057600000C000000E944F09809331010E94EB0DA0
:1057700081110E9444328091310181112CC085E059
:10578000E2E7F1E0DE01919601900D928A95E1F752
:1057900089A180932C018AA180932D018BA18093F4
:1057A0002E018CA180932F018DA18093300186E082
:1057B000E7E7F1E0DE01119601900D928A95E1F79D
:1057C000FE013196A6E2B1E0CE01079621912D931C
:1057D000E817F907D9F78091310195E0811190E040
:1057E0009093A70385E0891B8093A6030CE211E048
:1057F000D8018D918D018F3F11F00E94080AB1E010
:1058000001331B07A9F706E211E0F80181918F012E
:105810008F3F11F00E94080AF1E00C321F07A9F730
:105820008AE0E9EBF3E0DF01282F1D922A95E9F7E2
:10583000ECE9F3E0DF011D928A95E9F70E94E71E8B
:10584000811102C00E94F31E82E090E00E94A03409
:10585000809336040E94E10F9093A9038093A803DC
:105860000E94D814EFE3FCE93197F1F700C0000083
:105870000E94D8148091B90380FF08C06FEF7FEFBA
:1058800090E080E00E94DC340E94A00D83E090E074
:105890000E94A0340E94C517109236058FEF9FEF2B
:1058A0009093500580934F05909352058093510536
:1058B0009093540580935305909356058093550516
:1058C000909358058093570590935A0580935905F6
:1058D00090935C0580935B0590935E0580935D05D6
:1058E0001092040490931E0480931D04909320044E
:1058F00080931F04909322048093210490932404A6
:105900008093230490932604809325049093280485
:105910008093270490932A048093290490932C0465
:1059200080932B040E94E71E811110C080913604E1
:1059300080FF08C08DE494E09F938F930E9421061E
:105940000F900F900E94F31E0E94061146E050E057
:105950006CE170E08FE595E00E949034109237047E
:1059600080915F058C7F71F48091360480FF08C0C0
:1059700088EF93E09F938F930E9421060F900F90E2
:105980000E9406118091360480FF89C08EED93E05D
:105990009F938F930E942106809136040F900F9061
:1059A00080FF7DC080915F0583701F928F938FEB86
:1059B00093E09F938F930E942106809136040F906D
:1059C0000F900F900F9080FF6AC080915F058695C1
:1059D00086951F928F9382EA93E09F938F930E9404
:1059E0002106809136040F900F900F900F9080FF4A
:1059F00056C0809160051F928F9384E893E09F9337
:105A00008F930E942106809136040F900F900F9083
:105A10000F9080FF44C0809161051F928F9386E6AE
:105A200093E09F938F930E942106809136040F90FC
:105A30000F900F900F9080FF32C0809162051F92EF
:105A40008F9388E493E09F938F930E942106809127
:105A500036040F900F900F900F9080FF20C0809120
:105A600063051F928F938AE293E09F938F930E9426
:105A70002106809136040F900F900F900F9080FFB9
:105A80000EC0809164051F928F938CE093E09F93EA
:105A90008F930E9421060F900F900F900F900E94FD
:105AA000EB0D811102C00E94473282E391E0909396
:105AB00011058093100589EB93E0FAE0F80FFEAB37
:105AC00080912C058530A9F48FE794E00E94880529
:105AD00020E4F22EEE24E39400E112E180912C0503
