:100000000C9432050C9424320C946A050C946A0505
:100010000C946A050C946A050C946A050C946A05A4
:100020000C946A050C946A050C9492290C944E2940
:100030000C94E52A0C946A050C946A050C946A05E4
:100040000C946A050C946A050C946A050C946A0574
:100050000C946A050C94C12A0C946A050C946A05E8
:100060000C946A050C946A050C946A050C946A0554
:100070000C946A050C946A050C946A050C946A0544
:100080000C946A050C946A050C946A050C946A0534
:100090000C946A050C946A050C946A050C946A0524
:1000A0000C946A050C946A050C946A050631FF09E4
:1000B00074A1010975150026FF00952075088102BD
:1000C0000976150026FF00952075089102C00501EC
:1000D0000980A101850319012AB700150126B7007F
:1000E000950175108100C0050C0901A10185041955
:1000F000012AA002150126A002950175108100C0F9
:100100000660FF0961A1010962150026FF00952024
:10011000750881020963150026FF00952075089176
:1001200002C005010906A101050719E029E715002C
:100130002501950875018102950175088101050762
:10014000190029FF150026FF009506750881000596
:10015000081901290595057501910295017503910D
:1001600001C0010143010432337C010111007075AB
:10017000626C69632073746174696320766F69646B
:10018000206D61696E28537472696E675B5D2061D2
:1001900072677329207B7D0101500101280053798A
:1001A0007374656D2E6F75742E7072696E746C6EDB
:1001B000282222293B010150010150010150005326
:1001C000797374656D2E6F75742E7072696E7428F4
:1001D0002222293B010150010150010150004D45EF
:1001E00048280048595052280054657374696E6756
:1001F00020312C20322C20332E2E2E20202054650E
:100200007374696E6720312C20322C20332E2E2EF1
:100210000044454255473A2064697361626C6564E5
:100220002E0A0044454255473A20656E61626C656E
:10023000642E0A004F6E6573686F743A20616374B0
:100240006976653A2025640A000A00253032582074
:10025000006B6579626F6172645F7265706F727452
:100260003A200054617267657420636F6E6E656337
:100270007465640D0A005461726765742064697363
:10028000636F6E6E65637465642C207468726F743E
:10029000746C696E6720636F6E6E656374696F6EF0
:1002A00020617474656D7074730D0A004661696C29
:1002B000656420746F2065786563757465202573A7
:1002C0000A007267625F6D61747269785F636F6E56
:1002D0006669672E666C616773203D2025640A009D
:1002E0007267625F6D61747269785F636F6E666971
:1002F000672E7370656564203D2025640A0072676F
:10030000625F6D61747269785F636F6E6669672E94
:100310006873762E76203D2025640A007267625F3E
:100320006D61747269785F636F6E6669672E68735A
:10033000762E73203D2025640A007267625F6D612E
:10034000747269785F636F6E6669672E6873762E64
:1003500068203D2025640A007267625F6D617472D7
:1003600069785F636F6E6669672E6D6F6465203DA7
:100370002025640A007267625F6D61747269785F3C
:10038000636F6E6669672E656E61626C65203D20E5
:1003900025640A007267625F6D61747269785F63D9
:1003A0006F6E66696720454550524F4D0A0072676F
:1003B000625F6D61747269785F696E69745F64729F
:1003C0006976657273207267625F6D6174726978B5
:1003D0005F636F6E6669672E6D6F6465203D2030C8
:1003E0002E2057726974652064656661756C74208F
:1003F00076616C75657320746F20454550524F4D82
:100400002E0A007267625F6D61747269785F696E4F
:1004100069745F64726976657273206565636F6E77
:10042000666967206973206E6F7420656E61626C07
:1004300065642E0A005B735D000A00253038620097
:100440003A200025303258000A722F6320303132B2
:1004500033343536370A000A0025303258006C65CF
:10046000645F7461736B3A200000010101010101B6
:10047000010101020202020202020202030303035B
:10048000030303030404040404040405050505052B
:1004900006060606060707070707080808080909E9
:1004A00009090A0A0A0B0B0B0C0C0C0D0D0D0E0E94
:1004B0000E0F0F0F10101111111212131314141527
:1004C0001516161717181819191A1A1B1B1C1D1D9B
:1004D0001E1E1F20202122222324242526262728F1
:1004E00029292A2B2C2D2D2E2F3031323233343521
:1004F000363738393A3B3C3D3E3F40414243444524
:10050000464748494A4C4D4E4F5051535455565802
:10051000595A5B5D5E5F616264656668696B6C6DAC
:100520006F7072737577787A7B7D7E808283858722
:10053000888A8C8E8F91939596989A9C9EA0A2A360
:10054000A5A7A9ABADAFB1B3B5B7BABCBEC0C2C465
:10055000C6C9CBCDCFD1D4D6D8DBDDDFE2E4E7E925
:10056000EBEEF0F3F5F8FAFDFF6565636F6E666913
:10057000675F7570646174655F7267625F6D6174F7
:100580007269785F64656661756C740A007267628F
:10059000206D617472697820746F67676C65205B89
:1005A00025735D3A207267625F6D61747269785F6E
:1005B000636F6E6669672E656E61626C65203D20B3
:1005C00025750A00726762206D6174726978206D0A
:1005D0006F6465205B25735D3A2025750A0072679C
:1005E00062206D6174726978207365742068737617
:1005F000205B25735D3A2025752C25752C25750A01
:1006000000726762206D617472697820736574206E
:100610007370656564205B25735D3A2025750A005B
:1006200000000000000000000000000000000000CA
:1006300000000000000000000000000000000000BA
:10064000000000007E0F00D4FFFFFFC7000000780D
:1006500000000000000000002A2B2800000000001D
:100660000000000000000000000000290000000061
:100670002C1E3420212224342627252E362D3738CF
:10068000271E1F202122232425263333362E3738D8
:100690001F0405060708090A0B0C0D0E0F10111296
:1006A000131415161718191A1B1C1D2F3130232D62
:1006B000350405060708090A0B0C0D0E0F10111260
:1006C000131415161718191A1B1C1D2F3130354C11
:1006D00029001E001F002000210022002E0014000F
:1006E0001A000900130005002D0004001500160073
:1006F00017000A002F001D001B000600070019004C
:1007000000000000E200E0002A224C4100572700D0
:100710002600250024002300350033001C001800AB
:100720000F000D00340012000C0008001100100032
:1007300030003800370036000B000E0000000000CB
:10074000015702572C412B3245003A003B003C0038
:100750003D003E002E0246004B005200490028009A
:100760002D022602500051004F0027022F021E02C8
:100770004E004A004D00240200000000010001006C
:1007800001002A00010043004200410040003F00F8
:1007900035022E00610060005F0031003402330238
:1007A0005E005D005C002502300262005B005A00C2
:1007B0005900310200000000620001002C0001001D
:1007C00045023A023B023C023D023E022378227877
:1007D000BC00A900BB00217824782778AD00AA00CE
:1007E000AE002978007C2878AC00A800AB002A78FD
:1007F00000000000010001000100010001004302AF
:100800004202410240023F0200774D7E497E487E0F
:10081000477E4A7E01774E7E467E457E447E4B7EF5
:10082000407E4F7E437E427E417E4C7E0000000033
:100830006152010020780100290F1E0F1F0F200FA9
:10084000210F220F2E0F140F1A0F090F130F050F70
:100850002D0F040F150F160F170F0A0F2F0F1D0F57
:100860001B0F060F070F190F000000000100010009
:10087000010001000100270F260F250F240F230F71
:10088000350F330F1C0F180F0F0F0D0F340F120FF2
:100890000C0F080F280F100F300F380F370F360FBF
:1008A0000B0F0E0F0000000062520100010001005A
:1008B00029001E001F002000210022002B00140030
:1008C0001A00080015001700E000040016000700D9
:1008D00009000A00E1001D001B00060019000500C8
:1008E000000000000100010001004A000100270093
:1008F00026002500240023004C00130012000C00E9
:1009000018001C00340033000F000E000D000B0017
:10091000E50038003700360010001100000000002C
:10092000015701002C414D0029001E001F0020002E
:10093000210022002B0014001A00080015001700E7
:10094000E00004001600070009000A00E1001D0095
:100950001B00060019000500000000000100010056
:100960002A224A0001002700260025002400230037
:100970004C00130012000C0018001C00340033005F
:100980000F000E000D000B00E500380037003600A8
:100990001000110000000000015701002C414D0023
:1009A0005B435D005B445D005B535D005B575D0036
:1009B0005B525D0009027B00040100A0FA090400FB
:1009C000000103010100092111010001224000077B
:1009D0000581030800010904010002030000000969
:1009E00021110100012222000705820320000107D6
:1009F00005030320000109040200010300000009AF
:100A000021110100012232000705840320000109A1
:100A10000403000203000000092111010001222249
:100A200000070585032000010705050320000112CA
:100A30000100020000000810CB56631006010200FE
:100A4000010C035600690072006900730000000E7B
:100A5000034B0065006500620069006F0000000440
:100A60000309040011241FBECFEFDAE0DEBFCDBFC3
:100A700004B603FE18C08091630590916405A091AF
:100A80006505B09166058730904BA740B04B59F48F
:100A90001092630510926405109265051092660528
:100AA000E0E0F8E3099525E0A4E0B3E001C01D9281
:100AB000A336B207E1F713E0A0E0B1E0ECEDFAE60F
:100AC00002C005900D92A430B107D9F70E940C2BFB
:100AD0000C94DF340C940000FF93EF93E091040337
:100AE000F0910503309709F00995EF91FF91089572
:100AF000FC018591803011F0EFDFFBCF0895FF27D7
:100B0000E0E230E247FF0CC0419597FF09C0EDE2FB
:100B10006095709580959095611D711D811D911D49
:100B200027FF02C0219530E350E2AA27660F771F06
:100B3000881F991FAA1FA41710F0A41B63955A952C
:100B4000A9F7AA3008F0A95FA05DAF93F3956115EE
:100B500071058105910541F7ED3211F4EF93F3959D
:100B6000F21718F43F93F395FBCF8F91B5DFFA9509
:100B7000E1F70895E991F9918591803021F085326E
:100B800019F0AADFF9CF089520E0E8945591553285
:100B9000C1F3503311F4689455915A3348F45053CB
:100BA00090F3220F022E220F220F200D250FF4CFDB
:100BB0000EF4219589919991533619F3533729F100
:100BC000533559F1BC0188279927E8945C3621F404
:100BD0008991999168945591543639F446EF7EF095
:100BE00077FF0DC08FEF9FEF0AC055374AE039F00D
:100BF000583540E121F0523642E009F00895FF9364
:100C0000EF937DDFEF91FF91B7CFFF93EF93FC015F
:100C100081918030B9F360DFFBCFFF93EF9368DF02
:100C2000F1CFDF93CF93CDB7DEB72596A3DFCF917A
:100C3000DF910895883222E49207A9F050F48A32B5
:100C400022E2920799F08C32914481F08FEA90E091
:100C50000895811527E5920761F081309745B1F736
:100C60008CE291E0089588EC90E0089586E990E0A8
:100C700008958AEF90E00895FC01AC014B5F5F4F4F
:100C80008FEF91E32191822728E030E087FF09C0B0
:100C9000880F892721503109C9F7E417F50791F723
:100CA0000895880FF7CFE8EDF0E080818E7F808394
:100CB0001092E2001092DA001092E100A0EEB0E093
:100CC0008C9181608C9380818F77808319BCA7ED94
:100CD000B0E08C918E7F8C9380818F7E8083109288
:100CE0001D0508952091E4003091E50095E6A901E5
:100CF0002091EC00822F817020FF06C08091E800D7
:100D000080FF06C080E008952091E80022FD1AC00F
:100D100080912A05882389F0853089F08091EB0045
:100D200085FD0FC02091E4003091E5004217530784
:100D3000F9F29150E1F684E0089582E0089583E0AD
:100D4000089581E0089580912C0587FF13C080915C
:100D5000E80082FF06C08091E8008B778093E8006E
:100D600004C080912A058111F2CF089580912A054F
:100D70008823D9F38091E80080FFF8CF8091E800C4
:100D80008E77ECCF982F9093E900242F762F50E0A8
:100D9000891731F07091EC002091ED005091F00036
:100DA00021FD07C09F5F973071F78093E90081E0D4
:100DB00008953091EB003E7F3093EB003091ED00D1
:100DC0003D7F3093ED003091EB0031603093EB00CC
:100DD0007093EC002093ED005093F0002091EE0012
:100DE00027FDE0CF80E00895B0E0A0E0EAEFF6E074
:100DF0000C944A33C8EDD0E088818F7E8883E7ED7C
:100E0000F0E080818160808384E082BF81E0809314
:100E10001D0588818E7F888302EE10E0F801108224
:100E20001092DA0081EEC82ED12CF6011082888152
:100E30008F77888388818068888388818F7D888385
:100E400019BC10922A0510922B05109229051092B8
:100E5000280590EEE92EF12CF70180818B7F8083AD
:100E600088818160888342E060E080E00E94C20661
:100E7000F60180818E7F8083F8018081816080838C
:100E8000808188608083F70180818E7F8083888164
:100E900080618883CDB7DEB7E8E00C946633FC014F
:100EA000809132059091330586179707A0F0611560
:100EB000710529F49091E8009E779093E80090E006
:100EC0006115710551F4911108C08091E80082FF0D
:100ED00034C080E00895BC01F2CF80912A058823B8
:100EE000C1F18530C1F18091E80083FD30C080916F
:100EF000E80082FDEACF8091E80080FFE1CF809199
:100F0000F3002091F200382F6115710519F0283097
:100F1000310558F091E02830310509F090E020913A
:100F2000E8002E772093E800CBCF81918093F100E9
:100F3000615071092F5F3F4FE7CF80912A058823C9
:100F400041F0853041F08091E80083FFBECF81E021
:100F5000089582E0089583E00895089580911F0523
:100F600008959C014FB7F89480911605909117054C
:100F7000A0911805B09119054FBF821B930B0895DE
:100F80002FB7F89460911605709117058091180598
:100F9000909119052FBF08952FB7F89480911605E9
:100FA00090911705A0911805B09119052FBF0895CC
:100FB0009C01FC0132969FEF80E04191461751F071
:100FC0009F3F19F4411101C0982F8F5F8630A9F718
:100FD0009F3F09F40895290F311D97FD3A95F901B6
:100FE00062830895A3E0B0E0E8EFF7E00C9450339B
:100FF000209113053091140528173907A1F090931B
:10100000140580931305E0911105F09112053097B6
:1010100051F024E029839B838A830680F781E02DA9
:10102000CE01019609952396E2E00C946C33A3E07F
:10103000B0E0EDE1F8E00C94503320910F053091D1
:10104000100528173907A1F09093100580930F051C
:10105000E0911105F0911205309751F023E02983BA
:101060009B838A830680F781E02DCE010196099546
:101070002396E2E00C946C33FA01811101C0FB016C
:10108000099508958093650180915D058370809333
:1010900064010E945A0E83E080936601089522E85D
:1010A000241B08F420E0620F08954095282F429FEA
:1010B000412D1124842F08950E943B090895FF9229
:1010C0000F931F93CF93DF93182F062FF42ED0E0AA
:1010D000C0E02F2D402F612FCE010E945C08219689
:1010E000C434D105B1F7CDB7DEB7E5E00C94693370
:1010F000E42FF0E0EE0FFF1FE85CFD4F408134EE7F
:10110000439F412D1124E82FF0E050E0445E5F4FF3
:10111000DA01A21BB1099D01B7FF03C031952195EA
:10112000310993E0220F331F9A95E1F7AF01421B7B
:10113000530B9A0157FD20E0582F259F212D112494
:10114000822F0895AF92BF92CF92DF92FF920F93BA
:101150001F93CF93DF93362F472FE82FF0E0E75907
:10116000FB4F71110FC0E4918E2F2E2F6E2F722F17
:10117000DF91CF911F910F91FF90DF90CF90BF90A3
:10118000AF900895C72FD0E02491F22E022F10E0E7
:1011900056E0659FC0011124EFEFF0E0BF010E940F
:1011A0008333832F90E0880F991F35E5369FD00158
:1011B000379FB00D11248A1B9B0B982F990F980F06
:1011C0006F01CC1ADD0AC09ED001C19EB00DD09E29
:1011D000B00D11248B2F499FA0011124452F5527B5
:1011E0006F01C41AD50AC09EA001C19E500DD09EA9
:1011F000500D11245F01A91AB108AC9E6001AD9E8B
:10120000D00CBC9ED00C1124CD2CDD24EC19FD0992
:10121000E09FE001E19FD00DF09FD00D1124ED2F54
:1012200062307105A1F050F46115710509F49ECF8B
:101230006130710581F0EB2F852F98CF64307105F7
:1012400069F080F06630710509F490CFF4CFE22F99
:101250002B2F8D2F8BCFE22F252F88CFEB2F822F97
:101260002D2F84CF2B2F8F2DE52F80CF89B185FB9C
:10127000882780F90895FF920F931F93CF93DF93F0
:10128000EC01F62E042F122F0E94360981110FC097
:10129000C232D1057CF0A297FE01EE0FFF1FEC0FCA
:1012A000FD1FE75CFB4FF1820083128303C0C23253
:1012B000D10594F3CDB7DEB7E5E00C946933CF9355
:1012C000C82F0E943609882329F081E0C23228F015
:1012D00080E003C081E0C434D8F7CF910895B0E036
:1012E000A0E0E5E7F9E00C9448337C01C091680187
:1012F0008EE0C89FC02D11241EE01C0F153408F08D
:1013000014E40E943609882319F0133208F012E21F
:101310000E943609811103C0C23208F4C2E2209152
:10132000610531E0230F08F42FEF30E050E040E09A
:101330006FEF7FEF80E090E00E947C346901D0E0A5
:1013400001E0B12CA12C2C2FC11740F0812F0E945D
:101350005F09CDB7DEB7EAE00C946433FE01E054D8
:10136000FD4F808190916901892329F18091340595
:101370008150082E000C990B87FF1FC0B6013091D9
:101380006105300F08F43FEFA501639F412D739F66
:10139000400D511D112460915E0570915F05809193
:1013A0006005F70109950E94A208462F282F672F94
:1013B000CE010E945C082196C6CFFC01EC5CFA4F7E
:1013C000318932130AC0FC01EE0FFF1FEC5CFA4FAB
:1013D000618D728D6C157D0590F20197CDCFF894DB
:1013E000E82FE295EF70F0E031A1282F2F7081E017
:1013F00090E001C0880F2A95EAF7982F90959323E3
:1014000091A392A1892B82A3789408959091AB0324
:1014100092FF06C0282F28712830F9F4877F846056
:1014200093FF06C0282F28712831F1F4877E84614C
:101430002091AC0320FF06C0382F38713830D9F422
:10144000877F816021FF06C0282F28712831D1F4C1
:10145000877E816194FD877E0895282F2471243032
:10146000F9F68B7F8860DCCF282F2471243101F7B7
:101470008B7E8861DDCF382F3171313019F78E7F47
:101480008860E0CF282F2171213121F78E7E88617D
:10149000E1CF82389105B9F1B0F48133910509F4B7
:1014A0007DC048F48932910509F46DC08A329105F6
:1014B00009F47BC008958533910509F45FC0893331
:1014C000910509F10895833E9105D9F138F4803EE4
:1014D000910529F1823E910579F10895863E9105A5
:1014E000D9F1873E910509F43EC0843E910541F54E
:1014F0002091AC0321FF24C08091AB0384FD19C06F
:1015000087EE90E008952091AB03237009F05AC054
:101510002091AC0323FF14C089E290E0089520914C
:10152000AB0320FD38C03091AC0330FF09C024FF6D
:1015300043C090E080E008952091AB0322FDF7CFF7
:1015400008952091AB0322FD3AC03091AC0330FDE9
:1015500039C024FFF5CFEDCF2091AB0323FFF0CFAF
:1015600024FDE7CFCDCF2091AB0323FD2EC03091DA
:10157000AC0331FFEECF84EE90E008952091AB03F1
:1015800025FFDECFC9CF2091AB0325FD21C02091DF
:10159000AC0323FFD5CF89E390E0D2CF2091AB03FA
:1015A00026FFCECF8AE290E008952091AB0326FF7C
:1015B000C7CF81E390E0089583EE90E0089582EE36
:1015C00090E0089580EE90E0089586EE90E0089512
:1015D00085E390E008951F93CF93DF930E94490A1B
:1015E000EC01C11580E5D807F0F5C11580E4D807F6
:1015F00008F09CC0C03ED10520F5CD3CD10508F0D7
:1016000082C0C83AD10578F4C53AD10508F073C054
:10161000C130D10519F1209709F1C430D105F0F49A
:10162000D0E0C0E01BC0C33CD105D0F7C85AD0E021
:10163000CC0FDD1FC855DE4F0990D881C02DD46472
:101640000DC0C11580E2D80708F0D1C0C11581E0F6
:10165000D80708F05AC0C83ED10510F7CE01DF9177
:10166000CF911F910895C03682E5D80718F5C03490
:1016700082E5D80708F06BC0C03282E5D80708F0D1
:101680005FC0C11582E5D80708F497C02C2F2695B6
:10169000269580E2289F900111248C2F8370C1E051
:1016A000D0E002C0CC0FDD1F8A95E2F7C22BD32B0E
:1016B000DD68D4CFC03A82E5D80760F4C03882E54F
:1016C000D80708F459C0CF71D0E0DC2FCC27C46F05
:1016D000D06AC4CFC03C82E5D80708F462C0C03EDF
:1016E00082E5D80708F09CCFDC2FCC27CC27DF7110
:1016F000C06FD06AB3CFC55AD0E0CB55DE4FC8819A
:10170000D0E0D064ABCFD065A9CF8D2F0E94060A60
:10171000182FCE0199270E94490AC12FD0E0DC2F53
:10172000CC27CC27DF71C82BD92B98CFCE01992796
:101730000E94490ACC27DF70C82BD92BD06A8ECFE4
:10174000CF71D0E0DC2FCC27C16FD06A87CF2C2F90
:1017500026952695277080E2289F900111248C2FD2
:101760008370C1E0D0E002C0CC0FDD1F8A95E2F7A4
:10177000C22BD32BDC6872CF2C2F26952695277091
:1017800080E2289F900111248C2F8370C1E0D0E06B
:1017900002C0CC0FDD1F8A95E2F7C22BD32BDA688B
:1017A0005DCF8C2F8F710E94060AC82FD0E0DC2FEE
:1017B000CC27CC27DF71D06251CF8C2F8F710E9444
:1017C000060A55E0D695C7955A95E1F7CF70D0E057
:1017D000DC2FCC27282F30E084FF05C044E0220F07
:1017E000331F4A95E1F7C22BD32BD06937CF8D2F0A
:1017F0008F710E94060A182FCE0199270E94490A6C
:10180000C12FD0E0DC2FCC27CC27DF71C82BD92B00
:10181000D2CF80916803811110926803089580915E
:10182000070581110FC010920C050E94090C0E943F
:10183000CC0788579C4E909306058093050581E060
:10184000809307050895809590910B0598239093B8
:101850000B050895809590910C05982390930C05A5
:10186000089520915E0390912D0356E0291302C044
:1018700080E0089530E0529FF001539FF00D112455
:10188000E25DFC4F7181761306C07081781303C04E
:101890007281741304C02F5F3F4F2770E7CF81E040
:1018A0000895452B41F0682381E06F3F09F080E007
:1018B00080958170089581E0FBCF80915E039091C7
:1018C0002D03981301C008958F5F8770FACF292FD9
:1018D0009A3078F5863068F590E036E0239F800DE9
:1018E000911D1124682F677023E0969587952A959E
:1018F000E1F7FC01EE0FFF1FE80FF91FE15FFC4F5E
:1019000050E040E080E0219130E0062E02C03695A4
:1019100027950A94E2F721703327042E01C0220F85
:101920000A94EAF7822B4F5F5F4F4330510559F716
:10193000089580E00895292F9A3098F5863088F52B
:1019400090E036E0239F800D911D1124282F2770F1
:1019500041E001C0440F2A95EAF723E09695879568
:101960002A95E1F7FC01EE0FFF1FE80FF91FE15F79
:10197000FC4F30E020E070E05191DF011197CB0186
:10198000022E02C0969587950A94E2F781708195A0
:101990008527842385278C932F5F3F4F2330310584
:1019A00059F708958093AA0308959091AA0321E01E
:1019B00030E0F90101C0EE0F8A95EAF7D90102C0C3
:1019C000AA0FBB1F6A95E2F7EA2B01C0220F4A95C6
:1019D000EAF7892F8E23E81305C0292B822F0E9456
:1019E000D20C089520952923F9CF21E030E001C0E1
:1019F000220F8A95EAF720958091AA0382230E94FC
:101A0000D20C089590915F038095892380935F03A2
:101A1000282F277091F4282F082E000C330B9217D3
:101A2000130659F09091AC0392FF07C085958595F8
:101A300085950E94F50C10925F03089521E030E037
:101A400001C0220F8A95EAF78091AA03822B0E9497
:101A5000D20C0895809369030895829590E09C01CB
:101A6000220F331F220F331F2C7C95958795959558
:101A700087958373282B30E0C901880F991F8A7AD4
:101A8000359527952575822B08959C01832F8170AC
:101A900031FD82600895FC019281913049F4858185
:101AA00082FF02C080FF1EC080FF1CC083E008953B
:101AB000923049F4858182FF02C080FF15C080FD0D
:101AC00015C084E00895933049F4858182FF02C0F7
:101AD00080FF0EC080FD0EC087E00895943060F452
:101AE00081E0089582E0089586E0089585E00895F4
:101AF00089E0089588E008958AE008959FB7F894F2
:101B000010921B059FBF90912A05943009F048C0A0
:101B10002091E9002F703091EC00932F917030FDEF
:101B200090E8922B25E02093E9002091EB0020FF24
:101B300034C02091EE0027FF30C020911A052223E7
:101B400021F02091E80025FF28C010921A0526E018
:101B50003091E80035FF14C08093F1008091E800D7
:101B600085FD27C08091E80080FFFCCF8091E800D0
:101B70008E778093E8009F709093E90080E008954D
:101B800030912A05343049F43091EB0035FD05C021
:101B9000215041F481E080931A059F709093E900F1
:101BA0008FEF0895EFE9FFE03197F1F700C00000F3
:101BB000CFCF8FB7F89421E020931B058FBFDBCFE9
:101BC0000F931F93CF93DF938B01EA0190912A0526
:101BD000943061F58093E9008FEF9091E800815097
:101BE00095FD06C095ED9A95F1F700008111F5CFAE
:101BF0008091E80085FF1AC00E947206811111C011
:101C00008091E80085FD06C08091E8008E77809382
:101C1000E800F2CFF80181918F018093F1002197C4
:101C200079F78091E8008E778093E800DF91CF917B
:101C30001F910F91089543E050E0BC0184E00E94A1
:101C4000E00D0895CF93DF93EC0148E050E0BC0134
:101C500081E00E94E00D88E0FE01A0E2B5E0019085
:101C60000D928A95E1F7DF91CF91089581E08093FD
:101C7000E00080E28093D8001092C9008FE19EE4DA
:101C80000197F1F700C0000087E090EBDC01809342
:101C9000630590936405A0936505B093660588E19C
:101CA0009CE00FB6F894A895809360000FBE9093C7
:101CB0006000FFCF6E9A3EB13F7B2EB120644FB7DC
:101CC000F89489E394E0FC015191CF0168E02EB9CA
:101CD000000000C057FF3EB9550F000000C000C013
:101CE00000C03EB900C06A9591F7F5E085309F07C6
:101CF00051F74FBF8FE594E00197F1F700C0000066
:101D0000089580917603811110C08091D800806180
:101D10008093D8008AE18A95F1F700C08091D900BC
:101D200080FF0AC081E08093760381E09091760382
:101D3000913009F080E0089582E0809376030E945C
:101D4000530610922A05F1CF0E94810E882359F084
:101D5000E0911105F0911205309729F00190F08182
:101D6000E02D0995089580E008950F931F930E9438
:101D7000810E882329F00E94C0071F910F910895BA
:101D80000E94C00700919A0310919B0320919C032D
:101D900030919D03600F711F821F931FEECFCF9272
:101DA000DF92EF92FF926B017C010E94810E8823EB
:101DB000A1F02FB7F89460911605709117058091E6
:101DC0001805909119052FBF6C197D098E099F097F
:101DD000FF90EF90DF90CF9008950E94B50EF4CF62
:101DE000CF93DF93C6EFD2E060E0CE010E9458347B
:101DF0002196C11584E0D807B9F7DF91CF910895F6
:101E00001F93CF93DF93122F8630E0F46A30D0F423
:101E10004630C0F4C42FD0E0CC0FDD1F9CE0699F9A
:101E2000C00DD11D112498E7899FC00DD11D11242B
:101E3000632FCE0186960E945834612FCE0187967B
:101E40000E945834DF91CF911F910895AF92BF92B5
:101E5000CF92DF92EF92FF921F93CF93DF9380EDAB
:101E6000C82E86E0D82ED0E07601C0E014C0F5017F
:101E700025913491412F6C2F8D2F0E94000F82E00D
:101E8000A80EB11C1F5F163091F78CE0E80EF11C14
:101E9000CF5FCA3019F0570110E0E9CFDF5F88E764
:101EA000C80ED11CD63001F7DF91CF911F91FF9062
:101EB000EF90DF90CF90BF90AF900895CF93C82F51
:101EC0006FEF811163E282E290E00E9458346FEF7D
:101ED000C11163E083E290E00E9458346FEFC111BA
:101EE00062E284E290E00E945834CF91089580E04D
:101EF0000E945E0F60E085E290E00E9458340E94EC
:101F0000260F0E94F00E81E00E945E0F08950F934D
:101F10001F93CF93DF93863030F56A3020F546303B
:101F200010F5C42FD0E0CC0FDD1F2CE0629FC00D58
:101F3000D11D112438E7839FC00DD11D1124CE017E
:101F400086960E943A34082F10E0102F0027CE0109
:101F500087960E943A349801282BC901DF91CF91CE
:101F60001F910F91089590E080E0F8CF462F7A30CE
:101F700040F4663030F4863020F4672F0E94870FDB
:101F8000089590E080E00895CF92DF92FF920F9342
:101F90001F93CF93DF936C010091AA038091690393
:101FA000082BC5E0D0E010E0FC2EC8010C2E02C0CA
:101FB000959587950A94E2F780FD0CC02197A0F7CC
:101FC000F12C8F2DDF91CF911F910F91FF90DF901A
:101FD000CF900895B6018C2F0E94B60F0E94EB0A95
:101FE000019761F3EECFCF93DF93EC010E94C40F12
:101FF000BE010E94B60F0E94EB0ADF91CF910895B7
:10200000FC0183819481892B29F08081918189232E
:102010008F3F51F480E00895843FE1F717C0883E78
:10202000A8F0813FB9F712C0808191810E94F30F1F
:1020300092959F70963099F358F4925F9F7092300A
:1020400048F7803F19F040F7883E20F781E0089577
:102050009A5FF4CFA5E0B0E0E0E3F0E10C944F33F9
:1020600025E0FC01DE01119601900D922A95E1F721
:10207000FC01228189819A81222399F0662389F0CB
:102080000E94C40F182F682F89819A810E949B0C8F
:1020900069817A81812F0E94B60F2596E3E00C9426
:1020A0006B330E94670C182FF3CF82E290E00E94FE
:1020B0003A34833289F483E290E00E943A348330E8
:1020C00059F484E290E00E943A3491E0823209F0BF
:1020D00090E0892F8170089580E0FCCF46E050E0C9
:1020E0006CE170E08DE595E00E9448341092380470
:1020F00008958093610590913804962B909338044D
:102100009091370490FF16C029E731E0662311F063
:102110002BE731E01F928F933F932F9381E096E05E
:102120009F938F930E9411060F900F900F900F9026
:102130000F900F9008958091610520E1382F321B98
:1021400008F430E0832F61E00E94791008958091B7
:10215000610520E1382F320F08F43FEF832F61E053
:102160000E947910089530915D05337071F180936C
:102170005E0560935F05493708F048E740936005C6
:1021800030913804322B309338043091370430FFCB
:102190001CC050E09927211119C029E731E05F9355
:1021A0004F931F926F939F938F933F932F938EED37
:1021B00095E09F938F930E9411068DB79EB70A9664
:1021C0000FB6F8949EBF0FBE8DBF08952BE731E088
:1021D000E6CFEDE5F5E0438120E1421B08F440E065
:1021E000818121E0628190E00E94B3100895EDE5C5
:1021F000F5E0438120E1420F08F44FEF818121E0B7
:10220000628190E00E94B3100895EDE5F5E06281EF
:1022100020E1621B08F460E0818121E0438190E0CD
:102220000E94B3100895EDE5F5E0628120E1620FB0
:1022300008F46FEF818121E0438190E00E94B310A8
:102240000895EDE5F5E0818121E0438162818850C8
:10225000990B0E94B3100895EDE5F5E0818190E0BF
:1022600021E04381628108960E94B3100895909105
:102270005D05937051F1811129C0946090935D05C3
:102280001092660180913804862B809338048091E7
:10229000370480FF1AC020915D052695269589E7B1
:1022A00091E0662311F08BE791E01F922F939F93AB
:1022B0008F9384EC95E09F938F930E9411060F906B
:1022C0000F900F900F900F900F900895883010F09E
:1022D0009C61D4CF880F880F982BD0CF80915D055B
:1022E00086958695815009F487E061E00E94371158
:1022F000089580915D05869586958F5F883008F0FA
:1023000081E061E00E943711089590915D05292FC9
:10231000237031E023279C7F922B90935D051092D0
:10232000660190913804982B90933804909137046B
:1023300090FF14C0811113C089E791E01F922F9381
:102340009F938F938DE895E09F938F930E94110642
:102350000F900F900F900F900F900F9008958BE7B4
:1023600091E0ECCF8091370480FF08C089E695E0CA
:102370009F938F930E9411060F900F908DE0809392
:102380005D0580916B0190916C01A0916D0180932E
:102390005E0590935F05A093600588E780936105D3
:1023A0008FEF809362050E946E100895B0E0A0E068
:1023B000ECEDF1E10C9445337C015B01842E752E2C
:1023C00069018091770301E010E08A3010F40AE09F
:1023D00010E0C1E0D0E0B501C701F6010995982EE3
:1023E000811114C021960C171D07B4F48091370495
:1023F00080FF0CC07F928F928CEA92E09F938F9324
:102400000E9411060F900F900F900F90892DCDB75D
:10241000DEB7EDE00C946133CC9F9001CD9F300D81
:10242000300D112490E080E045E34A95F1F700007B
:10243000019628173907C1F7CECFB0E0A0E0E3E25C
:10244000F2E10C944333182F80916501811323C06E
:1024500090915D0593702091640130E081E09217C6
:10246000130609F480E0817080936A01809162050F
:1024700090916901981739F08093690140E060E01C
:1024800080E00E945F08183060F4E12FF0E0EF5127
:10249000FB4C0C94AB3381E0E6CF80916A01811153
:1024A00002C080E0A0C040E060E080E00E945F08E1
:1024B000F8CFC09168018EE0C89FC02D11240EE0B6
:1024C0000C0F053408F004E40E943609882319F043
:1024D000033208F002E20E943609811103C0C232C1
:1024E00008F4C2E260915E0570915F05809160051D
:1024F0000E94A208F62EE72ED82ED0E0C01710F0CA
:10250000802F6FC0FE01E054FD4F808190916901E2
:10251000892331F02D2D4F2D6E2DCE010E945C08A8
:102520002196ECCFE0906801DEE0ED9ED02D1124E5
:10253000CEE0CD0FC53408F0C4E40E9436098823EC
:1025400019F0C33208F0C2E20E943609811103C0BB
:10255000D23208F4D2E260915E0570915F0540913D
:102560006005E0913204F091330480916105869515
:102570008695869530E020E0E89F212DF89F200D7C
:10258000311D1124922F96FD2095322F3F7096FD1C
:102590003F5F2695269526952670E22FF0E0E052C3
:1025A000FE4F8181839F802D312D112482958F7064
:1025B0003295307F832B2081820F97FD819587FD97
:1025C0008195880F282F249F212D1124822F0E946E
:1025D000A208062FD72EC82EED2EF12CEC16D8F01F
:1025E0008C2F0E945F09909168019F5F9093680112
:1025F00081110CC082E08093660180916A01811193
:1026000005C0111103C083E080936601CDB7DEB72A
:10261000EFE00C945F33F701E054FD4F808190911F
:102620006901892331F02C2D402F6D2DC7010E94A7
:102630005C084FEFE41AF40AD1CFC09168018EE034
:10264000C89FC02D11240EE00C0F053408F004E4DF
:102650000E943609882319F0033208F002E20E9432
:102660003609811103C0C23208F4C2E2309161051B
:102670003695369521E0320F08F43FEF4091320451
:102680005091330490E080E0439F812D539F800D53
:10269000911D1124F82ED0E0C01708F031CFFE01B3
:1026A000E054FD4F808190916901892391F0609100
:1026B0005E0570915F05809160052F2D4C2F0E9463
:1026C00078080E94A208462F282F672FCE010E946B
:1026D0005C082196E1CFE09068018EE0E89EE02C56
:1026E00011247EE0F72EFE0C94E49F1510F464E4B0
:1026F000F62E0E943609882329F0A2E2AF1510F4C5
:1027000052E2F52E0E943609811105C0B2E2EB16A5
:1027100010F442E2E42E80916A01882361F040E0E7
:1027200060E080E00E945F08E9ECF3E08CE3DF0109
:102730001D928A95E9F780916801811115C08091F9
:10274000C5039091C6030E94B10721E0893191052C
:1027500008F420E02093C403499730F00E94CC078E
:102760009093C6038093C503A12C912CB12C96E0C5
:10277000792E25E5622E3AEA832E5524539405C01E
:10278000ADE0A91508F453C0B12C2B2D30E07A9C94
:10279000E0011124FE01E450FE4FE20FF31FC08060
:1027A000CE1408F43CC0CF1408F039C09394D12C57
:1027B000F601E054FD4F808190916901892309F46D
:1027C0002EC0C753DC4FC20FD31F0881302F262DD8
:1027D000321B08F430E070915F05282D200F08F4BB
:1027E0002FEF40916005822F880F820F8E5F282F78
:1027F000249F212D1124822F682D631B0E94A20883
:10280000462F282F672FC6010E945C088091C403C1
:10281000882329F0452D041B08F400E00883B394B5
:1028200086E0B812B2CFA3949AE0A912A9CF8F2D57
:10283000D8CE00916005B3E00B9FE0011124D6953E
:10284000C795D695C7955C2EA02EB12C8FEF90E042
:10285000B5010E949733762E80916A01882371F02A
:1028600040E060E080E00E945F08E9ECF3E08CE388
:10287000DF011D928A95E9F71092C8038091C70382
:102880008F5F8093C703F12CE12CAC1ABD0A67015E
:10289000612CD701A753BC4F4D018091C8038629F5
:1028A00009F045C00E940434853595400CF03FC0C6
:1028B000F4010083F601E450FE4FE081EF3FD1F0D8
:1028C000D601A753BC4F2C91F0E0521608F040C03F
:1028D00030E02C1B3D0B2C9FC0012D9F900D3C9F89
:1028E000900D1124B5010E948333262F402FCF0174
:1028F0000E945C086394F6E0CF0ED11C2AE06212BD
:10290000CCCF4FEFE41AF40A86E0E816F10409F0A0
:10291000BECF8091C703781202C01092C703809186
:10292000C8038F5F8D31F0F48093C803BACDF601F0
:10293000E753FC4F8081882309F4BCCF801708F04F
:10294000B9CF9091C7037912B5CF81508083B2CFB0
:10295000029FC0011124BE010E948333462F20E054
:1029600060E0C5CF1092C80329EF33E089E09FEF04
:10297000900FE9ECF3E0D901893021F446A9041362
:1029800001C096AB4D91401730F0ED01219798832F
:1029900015960C931597319643E0EF3CF40761F7D9
:1029A0008150265031098111E4CF7BCD85E598E037
:1029B0000E946F0918CE8FE498E0FACF4F925F9291
:1029C0006F927F928F929F92AF92BF92CF92DF923F
:1029D000EF92FF9260912E0470912F048091300449
:1029E000909131040E94CF0E6B017C010E94B50EC4
:1029F0004B015C0180922E0490922F04A09230042F
:102A0000B0923104A0910504E5E0F4E08A2F90E053
:102A10004FEF5FEF60E070E04C195D096E097F09D0
:102A2000A91328C08093050480913604811135C014
:102A300090915D05892F837019F0892F8695869571
:102A400090916601913009F441C0992341F192308F
:102A500009F43FC0933009F43FC0FF90EF90DF903E
:102A6000CF90BF90AF909F908F907F906F905F902E
:102A70004F900895218D328D2901712C612C4415C0
:102A800055056605770520F481509F5F3296C8CFC3
:102A90002C0D3D1D328F218FF8CF80E0D1CF1092C9
:102AA00068018092320490923304A0923404B09270
:102AB000350489E2E5E0F4E0A4E3B5E001900D928D
:102AC0008A95E1F781E080936601C7CF0E941D12CD
:102AD000C4CF0E944208C1CF8091380481110E9466
:102AE0006E1060913204709133048091340490919F
:102AF00035040E94CF0E603171058105910508F4FF
:102B0000ACCF10926601A9CFCF93C82F8091AC03B0
:102B100082FB992790F99C17F9F0C0FB82F980930A
:102B2000AC036091AB037091AC0384E090E00E9431
:102B3000763482E00E94020D8091370480FF0CC041
:102B40001F92CF9384E392E09F938F930E9411068C
:102B50000F900F900F900F90CF91089590E080E02C
:102B60000E944234873E9E4F19F40E9455100895EA
:102B700080E00895AFE0B0E0E0ECF5E10C9445337F
:102B80008E010F5F1F4F8AE0D8011D928A95E9F7E9
:102B90008CE2C82E81E0D82EF12CE12CAA24A3943B
:102BA000B12C2CE2822E21E0922EF60181916F0150
:102BB0008F3F09F442C0F894E82FE295EF70F0E0FF
:102BC00021A18F70A50102C0440F551F8A95E2F71D
:102BD000CA01922F982B91A392A18095892382A359
:102BE000789400C0E6E2F1E0712C31E021912F3FB2
:102BF00009F46BC0A22FA295AF70B0E090968C91B3
:102C000090E02F7002C0959587952A95E2F780FD98
:102C10005CC0832F782A330F8E169F0639F7F60192
:102C2000319780818F3F11F00E94EF0950EA5A9549
:102C3000F1F7F801EE0DFF1D70828FEFE81AF80A28
:102C4000A5E0EA16F10409F0B0CF4AE050E0B8017F
:102C50008EE993E00E941434009741F02AE0F801D5
:102C6000AEE9B3E001900D922A95E1F70091A90336
:102C7000892B69F181E080936E030E94CC079093C9
:102C80006D0380936C0380916C0390916D030E949F
:102C9000B107059700F110E006541C4F45E050E0E5
:102CA0006EE973E0C8010E941434C12C892B51F0E5
:102CB00085E0EEE9F3E0D80101900D928A95E1F705
:102CC000CC24C39410926E0307C080E0A3CF809100
:102CD0006E038111D8CFC12C0E94810ED82EE091B5
:102CE000A903882309F492C07E01BBE0EB0EF11C1E
:102CF00085E0D7011D928A95E9F70E2F10E0065462
:102D00001C4FB0907703B9E0BB15E0F12DE438E239
:102D100042E851E0B701C8010E94D611882309F4A6
:102D200053C025E937E24FE851E0B701C8010E94DE
:102D3000D611882309F448C02BEE37E24AE951E066
:102D4000B701C8010E94D6118823F1F1F9E0FB1503
:102D500008F453C0109277038091A80390E045E0F7
:102D600050E0B70186549C4F0E94143421E0209318
:102D70007503892BE1F4D12C8D2D8C292F96EDE054
:102D80000C94613380916F03909170030E94B1079E
:102D9000843F914008F0BACF80917503882359F39E
:102DA00085E0D7011D928A95E9F710927503A091ED
:102DB000A803B0E0A654BC4F85E0FE013B9601900D
:102DC0000D928A95E1F7D8CF809177038F3F31F04C
:102DD0008F5F809377038A3008F4BECF0E94CC07C0
:102DE0009093700380936F038091370480FFD4CF5A
:102DF00086E792E00E947805CFCF8091370480FF6C
:102E0000A9CF83E692E00E947805A4CFF0E0E654D3
:102E1000FC4F85E0A6E8B3E001900D928A95E1F7BA
:102E200086E893E00E943C068093850380908B03A4
:102E300090908C03A0908D03B0908E0380917103CD
:102E400090917203A0917303B09174038816990650
:102E5000AA06BB06D1F08092710390927203A092F1
:102E60007303B09274030E94810E81110EC00E9400
:102E7000C007861A970AA80AB90A80929A03909204
:102E80009B03A0929C03B0929D0386E0EFE8F3E0E1
:102E9000ADE5B5E001900D928A95E1F710919503AB
:102EA000112349F080913604811105C00E941D1242
:102EB00080E00E944208109336045ECF0F931F9368
:102EC000CF93DF9380910C0590910B05892B809314
:102ED000060390916803992391F0892B8093060350
:102EE00020E088E093E0FC013191CF0131112F5FA8
:102EF000F3E08E309F07B9F721110E94090C48E0DA
:102F000050E060E673E086E093E00E941434892B81
:102F100009F441C088E0E6E0F3E0A0E6B3E0019008
:102F20000D928A95E1F7E0911105F0911205309725
:102F300091F10280F381E02D86E093E00995809184
:102F4000370482FF28C080FF04C081E592E00E9420
:102F50007805D0E0C0E00BE412E08091370480FFF8
:102F60000EC0FE01EA5FFC4F80811F928F931F937A
:102F70000F930E9411060F900F900F900F902196C3
:102F8000C830D10551F78091370480FF04C089E42F
:102F900092E00E947805DF91CF911F910F910895E3
:102FA000CF93DF93EC01EA85FB85309719F06C85B0
:102FB0007D8509958B810E94230C8C810E942A0CAF
:102FC0000E945E1786E0FE0111928A95E9F7DF9173
:102FD000CF910895CF93DF93EC018D8181FD18C0CF
:102FE00082608D8380910B059B81892B80930B05DB
:102FF00080910C059C81892B80930C050E945E17A3
:10300000E885F985309721F06C857D85CE0109959D
:1030100010920E0510920D058D8180FD03C0CE012A
:103020000E94D017DF91CF91089510920C05E8E02F
:10303000F3E086E0DF011D928A95E9F790E080E0F9
:103040000E94170890E080E00E94F20710920B05A2
:103050000E945E170895AAE2B0E0E1E3F8E10C9463
:103060004F338CE295E02091F100DC012D93CD01EE
:10307000B5E084339B07B9F780912D05833009F4BF
:1030800072C0B8F4813009F449C0823009F4B3C089
:103090008091E80083FF91C280912C0590912D05CD
:1030A0009A3008F08AC2E92FF0E0E751FB4C0C940B
:1030B000AB338A3009F48EC08B3009F471C089308B
:1030C00039F780912C05813219F780913005909164
:1030D0003105009711F00297D9F68091E800877FBB
:1030E0008093E8008091E80082FF38C09091F3005F
:1030F0008091F200029731F48091F100813011F05B
:10310000863021F48091F10080931F058091E800C2
:103110008B778093E8000E94A306BACF80912C059C
:10312000813A09F0B5CF8091E800877F8093E8006D
:103130008091300590913105892B61F468E080E23F
:1031400095E070E00E944F078091E8008B778093B4
:10315000E8009ECF60E090E080E0F3CF80912A0508
:103160008111C0CF95CF80912C05813A09F090CF85
:103170008091300590913105892B09F089CF80919C
:10318000E800877F8093E8008091E80080FFFCCF13
:10319000809167018093F1008091E8008E77B9CF2C
:1031A00080912C05813209F073CF80913005909188
:1031B0003105892B09F06CCF8091E800877F8093DF
:1031C000E8000E94A30680912E05809367010E946B
:1031D00015185ECF80912C05813209F059CF80916E
:1031E000E800877F8093E8000E94A30680912F0566
:1031F00080931E054DCF80912C05813A09F048CF70
:103200008091E800877F8093E8008091E80080FF4C
:10321000FCCF80911E05BECF803899F0823809F02E
:10322000CCC1809130058F70873008F0C6C1809383
:10323000E9008091EB0085FB882780F91092E90076
:1032400006C0809128059091290591118260909186
:10325000E800977F9093E8008093F1001092F100CE
:103260008091E8008E77A5C1882309F493C182304C
:1032700009F0A3C180912E05811196C1809130057E
:103280008F702FEF280F263008F097C18093E90048
:103290002091EB0020FF88C1933031F48091EB0046
:1032A00080628093EB0080C19091EB0090619093DD
:1032B000EB0021E030E001C0220F8A95EAF720936D
:1032C000EA001092EA008091EB008860EACF811159
:1032D00074C110912E051F778091E3008078812BB7
:1032E0008093E3008091E800877F8093E8000E944C
:1032F000A3068091E80080FFFCCF8091E300806806
:103300008093E30082E0111183E080932A0555C188
:103310008058823008F051C120912E0530912F0540
:103320002C3DE3E03E07A1F583E08A838AE28983AE
:103330004FB7F894DE01139620E03EE051E2E32F10
:10334000F0E050935700E49120FF03C0E295EF7046
:103350003F5FEF708E2F90E0EA30C0F0C7968D93FC
:103360009D932F5F243159F74FBF8091E800877FED
:103370008093E8006AE270E0CE0101960E944F0758
:103380008091E8008B778093E80017C1C096E7CF63
:103390008091300590913105432F552743305105D9
:1033A00009F44AC078F54130510509F47AC08BE739
:1033B00090E0E4EBF9E04230510509F0FEC02091C5
:1033C000E800277F2093E8002091320530913305F3
:1033D0008217930708F49C0140E02115310509F09C
:1033E00065C0411163C08091E80082FDC9CF809122
:1033F0002A05882329F2853019F28091E80083FF9D
:10340000F2CFBECF4132510509F43CC042325105E2
:1034100009F0D3C08430910508F0CFC0FC01EE0F55
:10342000FF1FE451FE4F0190F081E02D88519E4F27
:10343000DC018C9190E01AC0332721303105D1F0A6
:103440002115310561F02230310509F0B6C0E1E403
:10345000FAE0E4918E2F90E0E1E4FAE007C0EFE5B6
:10346000FAE0E4918E2F90E0EFE5FAE0009709F49E
:10347000A4C0A5CFEFE4FAE0E4918E2F90E0EFE452
:10348000FAE0F4CF8430910508F097C0880F991FB7
:10349000FC01EC50FE4F0190F081E02D89E090E0BE
:1034A0008ECF82E190E0EFE2FAE089CF80912A05A9
:1034B000882309F465CF853009F462CF8091E80054
:1034C00083FD5ECF8091E80082FD8DCF8091E80082
:1034D00080FF83CF9091F3008091F2002115310598
:1034E00019F08830910550F041E0089709F040E06C
:1034F0008091E8008E778093E8006FCF44914093ED
:10350000F1003196215031090196E8CF803809F059
:1035100054C08091E800877F8093E80080912B055C
:103520008093F1009DCE811148C010912E0512307C
:1035300008F043C08091E800877F8093E8001093F3
:103540002B050E94A306112311F084E005C0809191
:10355000E30087FDFACF81E080932A0542E061EC29
:1035600081E00E94C20642E261EC84E00E94C20651
:1035700042E261EC82E00E94C20642E260EC83E03B
:103580000E94C20642E261EC85E00E94C206809180
:103590002A0513C080912E05813079F481E09330A3
:1035A00009F080E0809329051092E9008091E800FD
:1035B000877F8093E8000E94A3068091E80083FF44
:1035C0000AC08091E800877F8093E8008091EB003B
:1035D00080628093EB00AA96E3E00C946B330E9428
:1035E00015182FEF84E39CE0215080409040E1F7D4
:1035F00000C0000088E19CE00FB6F894A895809385
:1036000060000FBE90936000FFCF882321F00E94DE
:10361000230C0E945E17089580910705882329F0E6
:1036200082E20E94051B109207050895882339F055
:1036300090910B05982B90930B050E945E170895AF
:10364000882321F00E942A0C0E945E170895882387
:1036500039F090910C05982B90930C050E945E1701
:103660000895882391F19CEF980F913A80F4E8E057
:10367000F3E02EE033E09191891303C0DF0111974D
:103680001C922E173F07B9F70E945E17089590E22B
:10369000980F983050F4877091E001C0990F8A9587
:1036A000EAF7892F0E942A0CEFCF9BE5980F933001
:1036B00028F490E080E00E9417080895885A8B3122
:1036C00020F490E080E00E94F207089580910501C7
:1036D000843069F040F4833071F081E00E94F50C91
:1036E000109205010895853069F08630B1F789E3BD
:1036F0000E94311BF2CF84E00E94201B81E00E94D7
:10370000F50CEBCF85E0F8CF80910501843061F0B6
:1037100038F4823069F0833079F010920501089511
:10372000853071F08630C9F784E00E941E0DF5CF18
:1037300087EE0E94311BF1CF80E80E94201BEDCF65
:1037400080E80E94201B81E00E94F50CE6CFCF9319
:10375000C82F8823B1F08CEF8C0F813A00F5E8E098
:10376000F3E08EE093E0DF012D91C21761F08A173C
:103770009B07D1F76C2F86E093E00E94D8070E9448
:103780005E17CF9108952191C21303C0DF011197F5
:103790001C928E179F07B9F70E945E17EBCF80E24D
:1037A0008C0F883068F4C77021E030E001C0220F30
:1037B000CA95EAF780910C05822B80930C05DFCF28
:1037C000EBE5EC0FE33040F4F0E0EB55FE4F808189
:1037D00090E00E941708D5CFC85ACB3190F6EC2F55
:1037E000F0E0EE0FFF1FE855FE4F808191810E94AF
:1037F000F207C7CF1F93CF93DF93182FD0E0C0E01D
:10380000893311F4C0E5D0E0812F0E94A71B2097D7
:1038100039F4812F0E94311BDF91CF911F910895C0
:103820008FE99FE00197F1F700C000002197EFCFEB
:10383000B0E0A0E0EEE1FCE10C944A336B01C42F50
:10384000D22FFC0182818823A9F040930A050E94AF
:10385000CC079093090580930805C77081E001C0EB
:10386000880FCA95EAF70E94271BCDB7DEB7E8E0BC
:103870000C94663310910A05141337C08091080523
:10388000909109050E94B1077C01C6010E941A06A9
:10389000E816F90650F5C0E2CD0F1D17C1F080E221
:1038A000810F883048F4177081E0012E01C0880F25
:1038B0000A94EAF70E94201BC83048F481E09D2F4B
:1038C000977001C0880F9A95EAF70E94271B802FF6
:1038D0000E94FA1BC83048F6D77081E001C0880FFB
:1038E000DA95EAF70E94201BC0CFC77081E001C0C3
:1038F000880FCA95EAF7F6CFB0E0A0E0E2E8FCE175
:103900000C944B33E82FF0E0E05BF94FD490282F74
:1039100026952695269530E0F901E05CF94F049153
:10392000877010E0082E02C0159507950A94E2F7FB
:1039300001701127F901E05DF94FE490F12C082E98
:1039400002C0F594E7940A94E2F791E0E922FF249B
:10395000F901E05EF94FC491D0E002C0D595C7955A
:103960008A95E2F7C170DD270115110519F081EE86
:103970000E94A71BE114F10419F086EE0E94A71B18
:103980008D2D0E94FA1BE114F10419F086EE0E94BD
:10399000311B0115110519F081EE0E94311BCD2B51
:1039A00019F08CE20E94FA1BCDB7DEB7E7E00C9469
:1039B0006733FF920F931F93CF93DF938C018AE0BD
:1039C000F82EF8018491882309F44BC0813009F066
:1039D00044C0E8012196FE018491813049F421968A
:1039E000FE0184910E94FA1B8E010F5F1F4FE9CFE9
:1039F000823039F4E8012296FE0184910E94A71BCF
:103A0000F3CF833039F4E8012296FE0184910E94BD
:103A1000311BEACF843041F7E8012296FE01249160
:103A200090E080E0FE0131962053330B2A303105BF
:103A300048F00197C8F2EFE9FFE03197F1F700C0D5
:103A40000000F7CFF89EA001F99E500D1124C90186
:103A5000840F951F2491EF01E5CF0E947C1CE801A3
:103A6000C3CFCDB7DEB7E5E00C946933E091050133
:103A7000E250E83038F5F0E0ED50FB4C0C94AB33FD
:103A800088E20E94311B10920C05109205010895E6
:103A900082E00E94F50CF7CF83E0FBCF88E20E9422
:103AA000311B88E20E94FA1BEECF85E0F2CF80E066
:103AB0000E941E0DE8CF88E20E94311B88E20E941E
:103AC000FA1BEFCF88E20E94FA1BF8CFFC0182813B
:103AD0008150990B039718F088E20E94FA1B089511
:103AE0000F931F93CF93DF93C82F8B010E94450D37
:103AF000D82F0E94161B8C2F0E94A71B01151105A1
:103B000059F48C2F0E94311B8D2F0E94051BDF91D1
:103B1000CF911F910F9108958FE99FE00197F1F7E1
:103B200000C0000001501109E9CF0E944B0D8093A5
:103B300005018430F1F028F4823041F0833081F0C7
:103B400008958530A1F08630A1F008958091070591
:103B5000882319F00E940C1B08950E940F0C0895F1
:103B600084E00E94271B81E00E941E0D089585E0DD
:103B7000F8CF0E940C1B89E30E94A71B08950E94A6
:103B80004B0D809305018430D1F028F4823041F050
:103B9000833051F00895853059F0863081F00895D2
:103BA00087EE0E94A71B089580E80E94271B0895B6
:103BB00080E80E94271B81E00E941E0D089581E08D
:103BC0000E94F50C82E00E94F50C83E00E94F50C47
:103BD00085E00E94F50C08950E944B0D809305012D
:103BE00082508830C0F4E82FF0E0E550FB4C0C9494
:103BF000AB3388E20E94A71B089582E00E941E0D4D
:103C0000089583E0FBCF85E0F9CF81E00E94F50CB9
:103C100084E00E94F50C0895A8E0B0E0E2E1FEE146
:103C20000C9446337C01DC0113968D919C91149782
:103C3000892B39F08C9111969C9189238F3F09F043
:103C4000BFC52896ECE00C946233C114B4E0DB06E7
:103C500081F1C6010E943A34811101C00150EFEF99
:103C6000CE1ADE0AF0C56501843009F020C602E0F4
:103C700010E06501FFEFCF1ADF0AC5010E943A3458
:103C8000E1E0F0E0EC0FFD1FE00FF11F80838823DF
:103C900081F08C3741F4E2E0F0E0EC0FFD1FE00F23
:103CA000F11F108204C60F5F1F4F56010730110528
:103CB00001F780915F03877021F2D70112968C91F2
:103CC000882309F4BECF8091AC0382FFBACF82E093
:103CD0000E94020DB6CF6801EAC5923029F40E5F4A
:103CE0001F4F0E94A71BF9C5933029F40E5F1F4F89
:103CF0000E94311BF2C5943019F00F5F1F4FEDC5C4
:103D00000E5F1F4F30E020E0B8016F5F7F4FF8017A
:103D100041818053990B8A30910558F02150310927
:103D200008F4DBC58FE99FE00197F1F700C00000C0
:103D3000F5CF929EF001939EF00D11249C012E0F61
:103D40003F1F842F8B01E0CF0E947C1CC6C589EEEB
:103D500091E00E94D91C12C0882381F083EE91E08B
:103D60000E94D91C70E060E08FE491E00E94701D19
:103D700070E060E087E292E00E94701DC8019755F4
:103D80008F3F910511F008F0ABC05801BB24AEE0A5
:103D90000A9FF00111249F01265C3E4F6901D70163
:103DA00012968C91E15CFE4F908180FB90F990839C
:103DB000882309F48DC00E94CC079093B8038093A8
:103DC000B703F60182818F5F828380910B0590910A
:103DD0000C05892B83838091680384830680F78197
:103DE000E02D309731F0D6011C966D917C91C60183
:103DF00009958EE08A9DF0018B9DF00D1124E65C03
:103E0000FE4F858181FF61C090E080E090930D05B9
:103E100080930E0580910705882309F4D6C0C090D1
:103E20000C05D09068030E94CC0788579C4E909355
:103E3000060580930505F7018281882309F4C5C032
:103E40008D2D8C298D7909F0BEC00034F2E51F0755
:103E500008F079C0011522E5120708F083C00115AA
:103E600030E4130708F051C0011580E2180708F08C
:103E70009EC0063E110509F475C0C80153C08823D1
:103E800009F47CCF8EED91E06BCF882309F476CFD7
:103E900070E060E087E391E06FCF882309F46ECF94
:103EA0008FEB91E056CF882309F468CF8EE991E03B
:103EB00050CF882309F462CF8EE691E04ACF882361
:103EC00009F45CCF82E691E044CF902F812F9ECF02
:103ED000F901858181FF9ECFC9010E94D0179ACF39
:103EE0000337FCE71F0709F095CFD70112968C9195
:103EF000882309F4DECE80910705882319F00E94FB
:103F00000C1BD7CE0E940F0CD4CE011590E51907DB
:103F100008F0B3CFD70115968C91807F09F455C076
:103F2000C801992710920B058832910508F05EC0F0
:103F30008E31910508F061C0049708F444C082E016
:103F400080930B055AC0043BA2E51A0759F0C8013B
:103F5000053BB2E51B0728F5805692458034910554
:103F600008F08BCFF7018281882309F4DBC410921B
:103F70000A05C8019057839708F0BEC484E090E01A
:103F80000E9442349093AC038093AB03F801E1505C
:103F9000F047E232F10508F067C0ED5FFA4C0C948F
:103FA000AB33805C9245809708F067CFDBCFF70199
:103FB0008581807F09F0B4CF812F8F71823199F094
:103FC00070F4823081F00E940C1BF801E851FC472C
:103FD000E730F10538F6EB5DFA4C0C94AB338431E5
:103FE000A1F3863181F710920B05EDCF8D3291054B
:103FF00009F4A5CF28F48A9731F70E945E17E5CF20
:104000008C349105D1F38D329240B9F3DCCF06E2C6
:1040100021EE41EE6AE17CE7C7010E94181C49CEFF
:1040200007E225EE45EE6BE17CE7F6CF06E221EEF6
:1040300040EE68E17CE7F0CF07E225EE44EE69E16F
:104040007CE7EACF06E221EE42EE6CE17CE7E4CFCA
:1040500007E225EE46EE6DE17CE7DECF08E221E0E7
:1040600045EE6EE17CE7D8CF8091AB038160809311
:10407000AB0395C08091AC0388608093AC038FC084
:104080008091AB038260F3CF8091AB038460EFCF6C
:104090008091AB038860EBCF8091AC038160EDCF62
:1040A0008091AC038260E9CF8091AB038061DFCF68
:1040B0008091AB038062DBCF8091AB038064D7CF6C
:1040C0000E9415188091AB038068D1CF8091AB031B
:1040D0008C60CDCF8091AC038360CFCF8091AB0358
:1040E0008E7FC5CF8091AC03877FC7CF8091AB0314
:1040F0008D7FBDCF8091AB038B7FB9CF8091AB0318
:10410000877FB5CF8091AC038E7FB7CF8091AC0312
:104110008D7FB3CF8091AB038F7EA9CF8091AB030E
:104120008F7DA5CF8091AB038F7BA1CF0E94151807
:104130008091AB038F779BCF8091AB03837F97CF29
:104140008091AC038C7F99CF8091AB0382FB992740
:1041500090F921E0922790FB82F990FB83F987CFB9
:104160008091AC03982F909591708E7F892B90FB56
:1041700081F983CF9091AB03892F8F7B96FF806469
:1041800076CF0E9415189091AB03892F97FB87F982
:1041900080586DCF61E08EE090E00E9458346091CD
:1041A000AB037091AC0384E090E00E9476340E94EF
:1041B00015187FCD60E0EFCF9091AB03892F8F7EF4
:1041C00094FF806154CF9091AB03892F8E7F90FF35
:1041D00081604DCF9091AC03892F877F93FF8860DA
:1041E0004CCF80910E0381110FC089E2E8E0F3E02B
:1041F0002EE033E09191891303C0DF0111971C92E7
:104200002E173F07B9F78BC385E3F0CF81E00E94FB
:1042100085114FCD4EE651E169E771E10E943C08FE
:1042200048CD49E751E16EE671E1F8CF41E251E155
:104230006CE271E1F3CF4CE251E161E271E1EECF6A
:1042400045E051E163E171E1E9CF43E151E165E02E
:1042500071E1E4CF49EE50E167EF70E1DFCF47EF66
:1042600050E169EE70E1DACF4BE950E167EA70E1C5
:10427000D5CF47EA50E16BE970E1D0CF61E081E052
:104280000E94371116CD61E082E0FACF0737FCE7D4
:104290001F0709F45AC008372CE7120709F45EC05B
:1042A000F701828100811181882309F4A8C0C80127
:1042B0000E94C40FD82E682FC8010E949B0CB80121
:1042C0008D2D0E94B60F0E94EB0A8C01882ED7011B
:1042D0001296DC9012971596BC90B2943FE0B322F0
:1042E00080915F038770F1F0AD2CDD20E1F0812F2C
:1042F000807F803451F080E2800F883098F0B110D8
:1043000004C0812F807E803269F08091AC0382FFEF
:1043100009C082E00E94020D80915F038770AA2489
:10432000A3948111A12C912E92942FE09222BBE0B4
:10433000B91508F4C5C0E92DF0E0E45DFA4C0C9421
:10434000AB3381E00E941E0D03C081E00E94F50C9A
:1043500043E062E081E00E94D50CABCC82E0F6CF76
:1043600003303CE71307B9F1B0F401309CE71907BB
:10437000C1F1F8F401151C4709F092CF0E941518FD
:104380003FEF84E39CE0315080409040E1F700C073
:1043900000000E94360E0B35ECE71E0771F10C355C
:1043A000FCE71F0701F10A351C4709F079CF81E0CE
:1043B00021C090913704892F8E7F90FF8160809378
:1043C000370480FF05C083E292E00E94780571CC3B
:1043D00081E192E0FACF6FEF7FEF90E080E00E9402
:1043E00076340E94EF1A8091AC0382FB882780F913
:1043F00091E089270E94841553CF80E0FBCFC8014C
:104400000E94670CD82E5BCFE12FEF70CE2E107F6D
:1044100019F0C29490EFC922DD20B9F0CC2069F0E8
:1044200080E2800F883010F0811009C080910C0567
:10443000C82AC0920C050E945E17802F3FC0809151
:104440000B05C82AC0920B05F6CF802F0E94311BA6
:10445000CC20B1F1005E8C2D083010F0811003C02B
:104460000E942A0C02C00E94230C0E945E1728C0E2
:10447000F12FFF70CF2E107F103219F0C29480EF11
:10448000C822882059F021E0821609F46BC0DD2093
:1044900009F475C0BB2009F46BC0CFCF2091AC03E9
:1044A00022FD39C0DD2081F1CC2039F080910C054E
:1044B000C82AC0920C050E945E1780E00E94A71BCC
:1044C000E92DE850FF0B349710F40E94A40EAA20A7
:1044D000B1F080915F0380FD12C0D70112961C924B
:1044E0008595859585950E941E0DC7010E940C1E1D
:1044F00080915F038595859585950E94F50C60E018
:10450000C7010E942A109DCB80E00E94311BCC2065
:10451000B9F28C2DA5CFDD2099F090916803892FF9
:104520008C29B11003C00E94271BCACF31E0B312FF
:10453000FACF22FFC5CF891719F280936803C0CF45
:10454000B11006C00E94090C8C2D0E94201BB8CF10
:1045500081E0B81609F4B4CF8C2D0E94201B0E9474
:10456000090CAECFDD2031F095E09B1508F4A8CF03
:104570008C2DD9CFA4E0AB1508F4A2CFE5CFBB209A
:1045800019F3B9E38B1209C0EFEFF7EE23E0E15026
:10459000F0402040E1F700C00000802F0E94311B56
:1045A0008FCF812F86958695837061F0813009F0D9
:1045B00087CFC8019370D11002C080E090E00E94C4
:1045C000F2077ECFC8019370D11002C080E090E066
:1045D0000E94170875CF812F837089F5D11070CF95
:1045E000402F429546954770440F440F802F8F709F
:1045F000042E01C0880F0A94EAF7202F207104FFCF
:1046000007C02FE030E001C0220F4A95EAF720955D
:10461000169516951370123069F050F430916903B5
:10462000113029F0822B83230E942A0D49CF832B3E
:10463000822BFACF282B809169038227F5CF8695AC
:10464000DD2011F0812F8170882309F439CF402FAC
:10465000429546954770440F440F802F8F70042E6B
:1046600001C0880F0A94EAF7202F207104FF07C0C9
:104670002FE030E001C0220F4A95EAF72095169509
:1046800016951370123069F050F43091AA0311306E
:1046900029F0822B83230E94D20C12CF832B822BF2
:1046A000FACF282B8091AA038227F5CF1F70DD2037
:1046B00029F0812F0E941E0D802F35CF802F0E9460
:1046C000201B812F0E94F50CFBCE802F32EF83162A
:1046D000B1F1381570F090EF8916D1F0A1EF8A167C
:1046E00091F0DD2009F45CC0B110A7CE812F8F714D
:1046F0002AC0B3EF8B1651F1E4EF8E12F2CF809106
:10470000AC0382FD2FC0812F8F71DD20D9F21BC039
:10471000DD2081F0F4E0FB1508F4D2CE1F7181E0BA
:1047200090E0012E01C0880F0A94EAF79091AA0345
:104730008927B1CF25E02B1508F4C2CEEFCF812F0A
:104740008F71D110BFCF0E941E0DBACE80E0DD2048
:1047500009F4A1CF1F7181E0012E01C0880F0A94D6
:10476000EAF799CFDD2089F01F71812F0E941E0D7D
:104770008091AC0382FF07C038E0139FC001112471
:10478000836080935F03812FDECF81E00E94020D62
:1047900081E08B1508F094CE82E00E94020D90CE4D
:1047A000BB2059F0893309F0F8CE9FEFA7EEB3E0B4
:1047B0009150A040B040E1F7EECE812F8F7182CFB3
:1047C00061E0C7010E942A108C01F70182818823D1
:1047D00009F180910D0590910E050097D9F0081709
:1047E0001907C1F0BEE08B9FC0011124FC01E15C00
:1047F000FE4F208124602083865C9E4FFC01118344
:1048000000830E94EA1710920B0561E0C7010E9425
:104810002A108C01D70112968C91882309F4AECA14
:10482000980137572038310508F08FC0003108F063
:1048300040CA8FEF93E00E943A3481113ACA56EF92
:10484000C52E52E0D52E011100CAFE01339686E036
:10485000DF011D928A95E9F74AE0942E86010F5FE9
:104860001F4FC6010E943A3489831A82882309F4B3
:1048700020CA813009F02FCA5601B2E0AB0EB11C3C
:10488000C8010E943A348A83882309F412CA9FEF30
:10489000980F933008F0E7C9E3E0CE0ED11CC501B4
:1048A0000E943A348B83882309F403CA1C828E0148
:1048B0000F5F1F4FD8018C91882381F2813009F05E
:1048C00043CA11969C91119712968C91913009F0E0
:1048D00004CA0E5F1F4F0E94FA1B0F5F1F4FEACFE3
:1048E0000737FCE71F0709F42CCD08372CE7120720
:1048F00009F036CD82E026CD06313CE7130781F77B
:1049000080910C058A7A91E009F490E090930E036F
:1049100069E2811165E386E093E00E94D8070E9476
:104920005E17C7C906318CE7180709F45ACC809185
:104930000C058272F801E052F847E531F10508F004
:10494000A5CCE85CFA4C0C94AB33F801E054FE477C
:10495000EE30F10508F012CAE35BFA4C0C94AB336D
:10496000B0E0A0E0E6EBF4E20C944B3380912C0332
:10497000807F09F050C080912903882309F44BC03F
:10498000C0915E0386E0D82E80912D038C1709F428
:1049900042C080912A0390912B03D0E0009709F444
:1049A0003FC02091270330912803422F43234F3FDC
:1049B000B9F1DC9E8001DD9E100D1124F801E25D4D
:1049C000FC4F418143132CC03081321329C0228116
:1049D000211126C0E380F480E81AF90A60E087E23A
:1049E00093E00E942A100E941A06E816F906C0F405
:1049F00080912C038F70806180932C03F801ED5C13
:104A0000FC4F80818F708061808387E293E00E94F9
:104A10000C1E0E945D0CCDB7DEB7E7E00C94673347
:104A20002196C770B1CFA1E1B0E0E9E1F5E20C94C5
:104A300042338C0185E0F801DE011D9601900D9254
:104A40008A95E1F7D8011296EC9087E2A82E83E0D0
:104A5000B82E80902A0390902B03A4016091280324
:104A6000809127030E94510C482E882309F496C197
:104A7000F801C380D480F0902903C60188199909F0
:104A80004C01FF2009F431C15080618060E0C50114
:104A90000E942A100E941A0670902C03881699060C
:104AA00008F0DEC040912A0350912B03B0902703F9
:104AB000A0902803872D807F6A2D09F08AC08B2D56
:104AC0000E94510CFE2C8823E9F0D80111968C919C
:104AD00011978A1117C08C918B1114C0E11012C06C
:104AE000872D8F70806180932C0387E293E00E9472
:104AF0000C1E80912C03F80185838F2D6196E0E1D7
:104B00000C945E33A601662D852D0E94510CD82E83
:104B100081E08E25D11001C080E080FF05C04E2DC0
:104B2000662D852D0E94310C81E08E25D11001C0AB
:104B300080E0F82FF170DF2E80FF36C04E2D662DFD
:104B4000852D0E94310CC82E81112EC05D866E8687
:104B50008D859E850E94F30F292F22952F7024307A
:104B600060F49F70223090F09923A1F0D80115963F
:104B70009C91907F79F4FC2CC0CF2A5F2F7022305B
:104B800068F0C8010E940C1ECD2CF5CF992311F0BE
:104B9000882389F3805E883070F3F3CF803F58F329
:104BA000815F833070F7E7CFEE2009F4A6CF8091C4
:104BB0002C03816080932C0387E293E00E940C1EFB
:104BC00086E0E7E2F3E0DF011D928A95E9F7F12C38
:104BD00094CF8B2D0E94510CF82E8823B1F0F80150
:104BE00081818A1112C080818B110FC0E1100DC02C
:104BF0007582C8010E940C1E86E0F801A7E2B3E0AE
:104C000001900D928A95E1F778CFC8010E940010BB
:104C1000882301F1EE20F1F080912C03803270F0B6
:104C2000209127033091280338872F831986DB864C
:104C3000CA868C87CE0107960E940C1E86E0F8017A
:104C4000A7E2B3E001900D928A95E1F70E94B024AB
:104C5000F42C53CFC8010E940C1EFF24F3944DCFB7
:104C6000872D807F39F487E293E00E940C1E86E056
:104C7000D501AACF909027038090280340912A0362
:104C800050912B03682D892D0E94510CF82E8823FA
:104C900099F0F801818188110FC0808189110CC0C1
:104CA000E1100AC07582C8010E940C1E86E0D50181
:104CB0001D928A95E9F721CFC8010E940010882330
:104CC00049F2EE2039F280912C03803208F4B6CFFD
:104CD00020912703309128033A8329831B82DD82A8
:104CE000CC828E83CE010196A7CF60E087E293E06D
:104CF0000E942A100E941A068816990608F048C0D9
:104D0000EE2009F4A7CF9090270380902803A0906D
:104D10002A03B0902B03A501682D892D0E94510C08
:104D2000F82E882331F1F8018181881122C0808119
:104D300089111FC0CA18DB08FFEACF16D10408F09A
:104D40005BCF90912C0390FD57CF907F09F454CF07
:104D500080912C03D80115968C931597903F09F4F8
:104D600048CF982F907F905F8F70892B15968C93EA
:104D700040CFC8010E940010811160CF80912C03A8
:104D8000816080932C03C8010E940C1EFE2CB5CEBE
:104D900086E0F50111928A95E9F7AFCEEE2009F48D
:104DA00059CFC8010E940010F82E882309F452CF71
:104DB00086E0F801A7E2B3E001900D928A95E1F751
:104DC00080912703909128030E94F30F0E94B02442
:104DD00094CEA7E1B0E0EFEEF6E20C944F334B8BAC
:104DE0005C8B6D8B7E8B8F8B611110920B051A8AF9
:104DF000198A85E0FE017396DE011D9601900D92E1
:104E00008A95E1F786E0FE013D96DE011796019056
:104E10000D928A95E1F7CE0107960E941325811124
:104E200012C086E0FE013796DE01119601900D92C8
:104E30008A95E1F78A859B85892B29F08F81988552
:104E400089238F3F81F516E024C096E0929FD00120
:104E5000939FB00D1124A25DBC4FFE0131960190CD
:104E60000D929A95E1F780932D030E945D0CEBCF94
:104E7000819FC0011124825D9C4F0E9413258823CD
:104E800071F080915E0390E001968770992780937E
:104E90005E0380915E0390912D038913E9CF67969D
:104EA000E3E00C946B3320912D0330E0C9010196AF
:104EB0008770992740915E034817190631F60E94C2
:104EC000151810922D0310925E0386E0E7E2F3E0DE
:104ED000DF011D928A95E9F7B6CFA5E0B0E0E3E7E0
:104EE000F7E20C944E330E94CC078C0180916A0348
:104EF00090916B0380179107A1F08FEF89838A83CC
:104F00001B820E94CC078160782F9D838C8349810E
:104F10005A816B818D810E94E92610936B03009367
:104F20006A032596E4E00C946A33A4E0B0E0EBE970
:104F3000F7E20C944F3340918103509182036091CA
:104F40008303709184032FB7F89480911605909194
:104F50001705A0911805B09119052FBF841B950B5B
:104F6000A60BB70B11E084369105A105B10570F1D0
:104F70000E94B50E6E5F7F4F8F4F9F4F69837A837C
:104F80008B839C8380911701909118018B579C4FC4
:104F90004091160150E04530510510F044E050E0DA
:104FA000BE016F5F7F4F0E94213482E090E00E943B
:104FB000CA32182F882351F00E94C00760938103E2
:104FC000709382038093830390938403812F2496AC
:104FD000E3E00C946B33A7E0B0E0E1EFF7E20C9470
:104FE0004E3386E0EDE5F5E0DE01119601900D927D
:104FF0008A95E1F7809136048F8347E050E06FE8AF
:1050000073E0CE0101960E94143400919603109132
:1050100097032091980330919903EFB7F89440914A
:105020001605509117056091180570911905EFBF8D
:10503000401B510B620B730B443651056105710522
:1050400018F411E0892B21F180911F01909120012A
:105050008B579C4F40911E0150E04830510510F095
:1050600047E050E0BE016F5F7F4F0E94213483E034
:1050700090E00E94CA32182F882351F00E94C00786
:10508000609396037093970380939803909399038A
:10509000812F2796E4E00C946A33EF92FF921F93DE
:1050A000CF93DF9300D000D000D0CDB7DEB77B0127
:1050B00090E080E00E94CA32182F882309F480C053
:1050C0004091090150E04115510511F041E050E0D7
:1050D00060910A0170910B016B577C4FCE010696CF
:1050E0000E94213440917D0350917E0360917F03A3
:1050F000709180032FB7F894809116059091170551
:10510000A0911805B09119052FBF841B950BA60B14
:10511000B70B84369105A105B10540F486E893E00C
:105120000E943C069E81891709F44AC081E090E004
:105130000E94CA32811116C010E085E0E8E7F3E072
:10514000D70101900D928A95E1F7812F26960FB62F
:10515000F894DEBF0FBECDBFDF91CF911F91FF90BE
:10516000EF9008954091110150E04630510510F044
:1051700045E050E060911201709113016B577C4F34
:10518000CE0101960E94213486E893E00E943C06FD
:105190009E818913D1CF0E94C00760937D037093D5
:1051A0007E0380937F039093800385E0FE01319618
:1051B000A8E7B3E001900D928A95E1F711E0BDCF29
:1051C00085E0E6E8F3E0DE01119601900D928A9504
:1051D000E1F71111EACFB1CF67EE7EEF90E080E00A
:1051E0000E94763460E082E090E00E94583460E0F3
:1051F00083E090E00E9458341092690360E074E10B
:1052000084E090E00E94763460E086E090E00E94C6
:1052100058346FEF87E090E00E94583440E050E04F
:10522000BA0188E090E00E946A3460E08DE090E08E
:105230000E94583440E050E0BA0188E190E00E94BA
:105240006A3460E087E190E00E94583440E050E02A
:10525000BA018CE190E00E946A3470E060E080E284
:1052600090E00E94763440E050E0BA0188E190E09E
:105270000E946A3480E00E945E0F0E94770F40E037
:1052800050E0BA018FE090E00E946A3440E050E0C4
:10529000BA0183E190E00E946A3408951F920F9250
:1052A0000FB60F9211242F933F934F935F936F93F9
:1052B0007F938F939F93AF93BF93CF93DF93EF939E
:1052C000FF93D091E900DF708091EC00C82FC1708E
:1052D00080FDC0E81092E9008091F000877F809304
:1052E000F00078940E942B181092E9008091F00051
:1052F00088608093F000CD2BCF70C093E900FF91C0
:10530000EF91DF91CF91BF91AF919F918F917F915D
:105310006F915F914F913F912F910F900FBE0F9022
:105320001F9018951F920F920FB60F9211242F9372
:105330003F934F935F936F937F938F939F93AF931D
:10534000BF93EF93FF938091E10082FF15C080919E
:10535000E20082FF11C08091E1008B7F8093E10029
:1053600020911C052F5F822F62E30E9477339923DF
:1053700009F4C0C020931C058091DA0080FF28C08A
:105380008091D80080FF24C08091DA008E7F8093C6
:10539000DA008091D90080FFE3C080E189BD82E11D
:1053A00089BD09B400FEFDCF81E080932A0580EA23
:1053B00099E00E94780580911D05811109C00E9425
:1053C00053060E94F4068091E20084608093E2001C
:1053D0008091E10080FF1BC08091E20080FF17C038
:1053E0008091E2008E7F8093E2008091E2008061F4
:1053F0008093E2008091D80080628093D80019BC2D
:1054000085E080932A0588EA99E00E9478058091DA
:10541000E10084FF2FC08091E20084FF2BC080E177
:1054200089BD82E189BD89B5982F917080FFFBCF3E
:105430008091D8008F7D8093D8008091E1008F7E8D
:105440008093E1008091E2008F7E8093E200809162
:10545000E20081608093E20080912B05882309F4AB
:1054600089C084E080932A058CEA99E00E9478053F
:1054700080912A058091E10083FF2BC08091E2009A
:1054800083FF27C08091E100877F8093E10082E065
:1054900080932A0510922B058091E1008E7F8093E6
:1054A000E1008091E2008E7F8093E2008091E20033
:1054B00080618093E20042E060E080E00E94C206EA
:1054C0008091F00088608093F00080EB99E00E946A
:1054D0007805FF91EF91BF91AF919F918F917F914F
:1054E0006F915F914F913F912F910F900FBE0F9051
:1054F0001F90189510921C0580911B05882309F4B4
:105500003BCF80912A058430C1F49091E9009F70CF
:105510002091EC00822F817020FD80E8892B95E09E
:105520009093E9009091EB0090FF04C09091EE0001
:1055300097FD08C08F708093E90010921B051CCF67
:105540001092F1009091E80095FDFACF9091E8005B
:1055500090FFF0CF9091E8009E779093E800EACF1B
:1055600019BC10922A0584EA99E00E9478051092ED
:105570001D052ECF8091E30087FD93E090932A05CF
:1055800073CF78941F921FB61F9211248F939F930D
:10559000AF93BF938091160590911705A0911805C0
:1055A000B09119050196A11DB11D80931605909328
:1055B0001705A0931805B0931905BF91AF919F915E
:1055C0008F911F901FBE1F9018951F921FB61F929C
:1055D00011248F939F93AF93BF93809115058111F1
:1055E00013C08091160590911705A0911805B091F0
:1055F00019054196A11DB11D8093160590931705BD
:10560000A0931805B0931905BF91AF919F918F9109
:105610001F901FBE1F901895CDB7DEB7AF970FB67E
:10562000F894DEBF0FBECDBF85B7806885BF85B754
:10563000806885BF84B7877F84BF0FB6F894A8952C
:1056400080916000886180936000109260000FBEBE
:1056500080E890E00FB6F894809361009093610029
:105660000FBE8EE79DE090930503809304030E9494
:1056700053060E94F4068091E20084608093E20069
:10568000789480912A058823A1F01091E9001F7079
:105690009091EC00892F817090FD80E8182B10927A
:1056A000E9008091E80083FD0E942B181F70109381
:1056B000E90082E084BD93E095BD9AEF97BD8093A9
:1056C0006E0010929A0310929B0310929C0310920A
:1056D0009D030E945510811102C00E94770F5598BA
:1056E0005D988FE891E00197F1F700C000000E94FB
:1056F0003609809331010E94810E81110E94DE31B2
:105700008091310181112CC085E0EEE6F1E0DE01EF
:10571000919601900D928A95E1F789A180932C01D1
:105720008AA180932D018BA180932E018CA180935F
:105730002F018DA18093300186E0E3E7F1E0DE01E7
:10574000119601900D928A95E1F7FE013196A6E23D
:10575000B1E0CE01079621912D93E817F907D9F70B
:105760008091310195E0811190E09093A90385E04B
:10577000891B8093A8030CE211E0D8018D918D0163
:105780008F3F11F00E94EF09B1E001331B07A9F729
:1057900006E211E0F80181918F018F3F11F00E9424
:1057A000EF09F1E00C321F07A9F78AE0EAEBF3E01A
:1057B000DF01282F1D922A95E9F7EEE9F3E0DF01DA
:1057C0001D928A95E9F70E94AE15811102C00E94D0
:1057D000EC2882E090E00E943A348093370484E021
:1057E00090E00E9442349093AC038093AB030E94FC
:1057F000BA15EFE3FCE93197F1F700C000000E9411
:10580000BA158091BA0380FF08C06FEF7FEF90E078
:1058100080E00E9476340E94360E83E090E00E9481
:105820003A340E942A0D109234058FEF9FEF909327
:105830004E0580934D059093500580934F059093AE
:10584000520580935105909354058093530590938E
:10585000560580935505909358058093570590936E
:105860005A058093590590935C0580935B051092CF
:10587000050490931F0480931E0490932104809349
:105880002004909323048093220490932504809312
:1058900024049093270480932604909329048093F2
:1058A000280490932B0480932A0490932D048093D2
:1058B0002C040E94AE15811110C08091370480FF26
:1058C00008C083E094E09F938F930E9411060F908D
:1058D0000F900E94EC280E94B21181E0809338045E
:1058E00046E050E06CE170E08DE595E00E942A34DE
:1058F0001092380480915D058C7F71F4809137049B
:1059000080FF08C08EEA93E09F938F930E94110658
:105910000F900F900E94B2118091370480FF89C0D0
:1059200084E993E09F938F930E941106809137043E
:105930000F900F9080FF7DC080915D0583701F9256
:105940008F9385E793E09F938F930E941106809138
:1059500037040F900F900F900F9080FF6AC08091D6
:105960005D05869586951F928F9388E593E09F93BA
:105970008F930E941106809137040F900F900F9023
:105980000F9080FF56C080915E051F928F938AE32F
:1059900093E09F938F930E941106809137040F909C
:1059A0000F900F900F9080FF44C080915F051F9271
:1059B0008F938CE193E09F938F930E9411068091C7
:1059C00037040F900F900F900F9080FF32C080919E
:1059D00060051F928F938EEF92E09F938F930E94AA
:1059E0001106809137040F900F900F900F9080FF59
:1059F00020C0809161051F928F9380EE92E09F936B
:105A00008F930E941106809137040F900F900F9092
:105A10000F9080FF0EC0809162051F928F9382ECE1
:105A200092E09F938F930E9411060F900F900F901A
:105A30000F900E94810E811102C00E94E13182E329
:105A400091E090931205809311058AEB93E0FAE0C0
:105A5000F80FFFA780912A058530A9F485E394E02B
:105A60000E94780520E4F22EEE24E39400E112E196
:105A700080912A05853009F4A4C00E9415180E945F
:105A8000A40E109236040E94BA154DEA53E05FA3AB
:105A90004EA38AEB93E099A788A727EB33E0DC01BC
:105AA000FA0191918D912E173F0709F4CFC09817F5
:105AB000C1F38091370481FD5DC10E94810E782E73
:105AC000F12C512C412CA8A5B9A5BD90B9A7A8A728
:105AD000EEA1FFA18191FFA3EEA38B1509F4EAC10A
