:100000000C94FD040C9410310C9435050C943505BA
:100010000C9435050C9435050C9435050C94350578
:100020000C9435050C9435050C9457280C94132822
:100030000C94AA290C9435050C9435050C943505BF
:100040000C9435050C9435050C9435050C94350548
:100050000C9435050C9486290C9435050C943505C3
:100060000C9435050C9435050C9435050C94350528
:100070000C9435050C9435050C9435050C94350518
:100080000C9435050C9435050C9435050C94350508
:100090000C9435050C9435050C9435050C943505F8
:1000A0000C9435050C9435050C9435050631FF0983
:1000B00074A1010975150026FF00952075088102BD
:1000C0000976150026FF00952075089102C00501EC
:1000D0000980A101850319012AB700150126B7007F
:1000E000950175108100C0050C0901A10185041955
:1000F000012AA002150126A002950175108100C0F9
:100100000660FF0961A1010962150026FF00952024
:10011000750881020963150026FF00952075089176
:1001200002C005010906A101050719E029E715002C
:100130002501950875018102950175088101050762
:10014000190029FF150026FF009506750881000596
:10015000081901290595057501910295017503910D
:1001600001C0010143010432337C010111006874B4
:100170007470733A2F2F716D6B2E666D2F0A0054B9
:10018000657374696E6720312C20322C20332E2E3B
:100190002E20202054657374696E6720312C203224
:1001A0002C20332E2E2E00726762206D61747269CE
:1001B0007820746F67676C65205B25735D3A2072E9
:1001C00067625F6D61747269785F636F6E6669679D
:1001D0002E656E61626C65203D2025750A004445E0
:1001E0004255473A2064697361626C65642E0A0067
:1001F00044454255473A20656E61626C65642E0A3B
:10020000004F6E6573686F743A2061637469766538
:100210003A2025640A000A002530325820006B6518
:1002200079626F6172645F7265706F72743A2000F8
:1002300054617267657420636F6E6E656374656484
:100240000D0A0054617267657420646973636F6E90
:100250006E65637465642C207468726F74746C6965
:100260006E6720636F6E6E656374696F6E20617474
:1002700074656D7074730D0A004661696C65642065
:10028000746F20657865637574652025730A007244
:1002900067625F6D61747269785F636F6E666967CC
:1002A0002E666C616773203D2025640A00726762C8
:1002B0005F6D61747269785F636F6E6669672E73D4
:1002C00070656564203D2025640A007267625F6D79
:1002D00061747269785F636F6E6669672E687376A2
:1002E0002E76203D2025640A007267625F6D61747E
:1002F0007269785F636F6E6669672E6873762E73B6
:10030000203D2025640A007267625F6D6174726926
:10031000785F636F6E6669672E6873762E68203D1E
:100320002025640A007267625F6D61747269785F8C
:10033000636F6E6669672E6D6F6465203D2025646E
:100340000A007267625F6D61747269785F636F6ED5
:100350006669672E656E61626C65203D2025640AC2
:10036000007267625F6D61747269785F636F6E6659
:10037000696720454550524F4D0A007267625F6DB4
:1003800061747269785F696E69745F6472697665B9
:100390007273207267625F6D61747269785F636FF8
:1003A0006E6669672E6D6F6465203D20302E205784
:1003B000726974652064656661756C742076616C21
:1003C00075657320746F20454550524F4D2E0A00BD
:1003D0007267625F6D61747269785F696E69745F7C
:1003E00064726976657273206565636F6E666967AE
:1003F000206973206E6F7420656E61626C65642E77
:100400000A005B735D000A0025303862003A200064
:1004100025303258000A722F6320303132333435A0
:1004200036370A000A0025303258006C65645F7464
:1004300061736B3A2000000101010101010101011A
:100440000202020202020202020303030303030385
:100450000304040404040404050505050506060652
:100460000606070707070708080808090909090A0F
:100470000A0A0B0B0B0C0C0C0D0D0D0E0E0E0F0FB4
:100480000F10101111111212131314141515161642
:100490001717181819191A1A1B1B1C1D1D1E1E1FB1
:1004A0002020212222232424252626272829292A00
:1004B0002B2C2D2D2E2F3031323233343536373828
:1004C000393A3B3C3D3E3F40414243444546474824
:1004D000494A4C4D4E4F50515354555658595A5BFA
:1004E0005D5E5F616264656668696B6C6D6F70729A
:1004F000737577787A7B7D7E8082838587888A8C06
:100500008E8F91939596989A9C9EA0A2A3A5A7A939
:10051000ABADAFB1B3B5B7BABCBEC0C2C4C6C9CB30
:10052000CDCFD1D4D6D8DBDDDFE2E4E7E9EBEEF0E6
:10053000F3F5F8FAFDFF6565636F6E6669675F75D1
:1005400070646174655F7267625F6D61747269780F
:100550005F64656661756C740A00726762206D6124
:1005600074726978206D6F6465205B25735D3A2035
:1005700025750A00726762206D6174726978207354
:10058000657420687376205B25735D3A2025752C91
:1005900025752C25750A00726762206D6174726979
:1005A0007820736574207370656564205B25735DC6
:1005B0003A2025750A00000000000000000000003D
:1005C000000000000000000000000000000000002B
:1005D000000000000000000000007E0F00D4FFFFBC
:1005E000FFC70000007800000000000000002A2B78
:1005F00028000000000000000000000000000000D3
:100600000029000000002C1E34202122243426273B
:10061000252E362D3738271E1F202122232425265C
:100620003333362E37381F0405060708090A0B0C2A
:100630000D0E0F101112131415161718191A1B1C72
:100640001D2F3130232D350405060708090A0B0C30
:100650000D0E0F101112131415161718191A1B1C52
:100660001D2F3130354C29001E001F0020002100B5
:1006700022002E0014001A000900130005002D00AE
:1006800004001500160017000A002F001D001B00B3
:1006900006000700190000000000E200E0002A62E6
:1006A0002B41005727002600250024002300350099
:1006B00033001C0018000F000D00340012000C0065
:1006C00008001100100030003800370036000B0021
:1006D0000E0000000000AC5D01572C414C7245003B
:1006E0003A003B003C003D003E002E0246004B001D
:1006F0005200490028002D022602500051004F00F0
:1007000027022F021E024E004A004D002402000064
:1007100000000100010001002A00440043004200E3
:10072000410040003F0035022E00610060005F0084
:100730003100340233025E005D005C0025023002AD
:1007400038025B005A0059003102000000006200CC
:1007500001002C00010045023A023B023C023D022E
:100760003E02C55C135F145F155F165F175FC65CC2
:10077000185F195F1A5F1B5F1C5F005C1D5F1E5FC7
:100780001F5F205F215F00000000010001000100E9
:100790000100440243024202410240023F02155F4F
:1007A000145FBB00A900BC00135FCB5CC95CAE004A
:1007B000AA00AD00C35CCC5CCA5CAB00A800AC0076
:1007C000C45C0000000001530100C25C0100010094
:1007D0000100010001000100010001000100010011
:1007E0000100010001000100010001000100010001
:1007F00001000100010001000100010001000000F2
:1008000000000100010001000100010001000100E1
:1008100001000100010001000100010001000100D0
:1008200001000100010001000100010001000100C0
:1008300001000100010001000100000000000100B2
:1008400001000100010029001E001F0020002100FE
:1008500022002B0014001A00080015001700E00009
:1008600004001600070009000A00E1001D001B003B
:1008700006001900050000000000E300105F2A6276
:100880004A002A00270026002500240023004C00EF
:10089000130012000C0018001C00340033000F007D
:1008A0000E000D000B00E500380037003600100088
:1008B000110000000000AC5D01002C414D0029003A
:1008C0001E001F002000210022002B0014001A002F
:1008D000080015001700E0000400160007000900DA
:1008E0000A00E1001D001B000600190005000000C1
:1008F0000000E300105F2A624A002A002700260059
:100900002500240023004C00130012000C001800E6
:100910001C00340033000F000E000D000B00E5003A
:100920003800370036001000110000000000AC5DF8
:1009300001002C414D005B435D005B445D005B5357
:100940005D005B575D005B525D0009027B000401A6
:1009500000A0FA09040000010301010009211101AE
:10096000000122400007058103080001090401007D
:1009700002030000000921110100012222000705E5
:10098000820320000107050303200001090402007F
:1009900001030000000921110100012232000705B6
:1009A0008403200001090403000203000000092160
:1009B000110100012222000705850320000107051F
:1009C0000503200001120100020000000810CB56B0
:1009D000631006010200010C0356006900720069F1
:1009E00000730000000E034B0065006500620069A3
:1009F000006F000000040309040011241FBECFEFA4
:100A0000DAE0DEBFCDBF04B603FE18C08091580502
:100A100090915905A0915A05B0915B058730904B94
:100A2000A740B04B59F410925805109259051092F6
:100A30005A0510925B05E0E0F8E3099525E0A6EF82
:100A4000B2E001C01D92A835B207E1F712E0A0E0C4
:100A5000B1E0E0E2F8E602C005900D92A63FB107D2
:100A6000D9F70E94D1290C94CB330C940000FF934A
:100A7000EF93E091F602F091F702309709F00995B3
:100A8000EF91FF910895FC018591803011F0EFDF27
:100A9000FBCF0895FF27E0E230E247FF0CC041950D
:100AA00097FF09C0EDE26095709580959095611D66
:100AB000711D811D911D27FF02C0219530E350E279
:100AC000AA27660F771F881F991FAA1FA41710F067
:100AD000A41B63955A95A9F7AA3008F0A95FA05DF9
:100AE000AF93F395611571058105910541F7ED32DD
:100AF00011F4EF93F395F21718F43F93F395FBCFAE
:100B00008F91B5DFFA95E1F70895E991F991859113
:100B1000803021F0853219F0AADFF9CF089520E066
:100B2000E89455915532C1F3503311F468945591BE
:100B30005A3348F4505390F3220F022E220F220F03
:100B4000200D250FF4CF0EF42195899199915336FC
:100B500019F3533729F1533559F1BC0188279927E7
:100B6000E8945C3621F489919991689455915436B2
:100B700039F446EF7EF077FF0DC08FEF9FEF0AC08C
:100B800055374AE039F0583540E121F0523642E01D
:100B900009F00895FF93EF937DDFEF91FF91B7CFB9
:100BA000FF93EF93FC0181918030B9F360DFFBCFBD
:100BB000FF93EF9368DFF1CFDF93CF93CDB7DEB72D
:100BC0002596A3DFCF91DF910895FC01AC014B5F27
:100BD0005F4F8FEF91E32191822728E030E087FF7C
:100BE00009C0880F892721503109C9F7E417F50793
:100BF00091F70895880FF7CFE8EDF0E080818E7FC0
:100C000080831092E2001092DA001092E100A0EED0
:100C1000B0E08C9181608C9380818F77808319BC48
:100C2000A7EDB0E08C918E7F8C9380818F7E808346
:100C300010920E0508952091E4003091E50095E6AC
:100C4000A9012091EC00822F817020FF06C08091C5
:100C5000E80080FF06C080E008952091E80022FDB2
:100C60001AC080911B05882389F0853089F0809116
:100C7000EB0085FD0FC02091E4003091E5004217A4
:100C80005307F9F29150E1F684E0089582E0089567
:100C900083E0089581E00895EF92FF920F931F93F0
:100CA000CF937C018B010E941B06C82F811117C0B6
:100CB0008091E80085FD0BC08091E8008E778093DD
:100CC000E8000E941B06882399F3C82F08C0F7018B
:100CD00081917F018093F1000150110949F78C2F18
:100CE000CF911F910F91FF90EF90089580911D0576
:100CF00087FF13C08091E80082FF06C08091E80062
:100D00008B778093E80004C080911B058111F2CF9E
:100D1000089580911B058823D9F38091E80080FF16
:100D2000F8CF8091E8008E77ECCF982F9093E90070
:100D3000242F762F50E0891731F07091EC0020912C
:100D4000ED005091F00021FD07C09F5F973071F7D3
:100D50008093E90081E008953091EB003E7F30936D
:100D6000EB003091ED003D7F3093ED003091EB00D2
:100D700031603093EB007093EC002093ED005093C2
:100D8000F0002091EE0027FDE0CF80E00895B0E074
:100D9000A0E0EDECF6E00C943632C8EDD0E08881AE
:100DA0008F7E8883E7EDF0E080818160808384E03E
:100DB00082BF81E080930E0588818E7F888302EE5A
:100DC00010E0F80110821092DA0081EEC82ED12CCA
:100DD000F601108288818F77888388818068888374
:100DE00088818F7D888319BC10921B0510921C0589
:100DF00010921A051092190590EEE92EF12CF701C8
:100E000080818B7F808388818160888342E060E07D
:100E100080E00E949506F60180818E7F8083F80134
:100E2000808181608083808188608083F7018081F8
:100E30008E7F8083888180618883CDB7DEB7E8E0CC
:100E40000C945232FC018091230590912405861761
:100E50009707A0F06115710529F49091E8009E773D
:100E60009093E80090E06115710551F4911108C06C
:100E70008091E80082FF34C080E00895BC01F2CF89
:100E800080911B058823C1F18530C1F18091E80074
:100E900083FD30C08091E80082FDEACF8091E800B8
:100EA00080FFE1CF8091F3002091F200382F61158F
:100EB000710519F02830310558F091E028303105DE
:100EC00009F090E02091E8002E772093E800CBCF46
:100ED00081918093F100615071092F5F3F4FE7CFFF
:100EE00080911B05882341F0853041F08091E80016
:100EF00083FFBECF81E0089582E0089583E00895E6
:100F0000089508958091100508959C014FB7F894B5
:100F10008091040590910505A0910605B091070503
:100F20004FBF821B930B08952FB7F894609104056F
:100F30007091050580910605909107052FBF0895D2
:100F40002FB7F8948091040590910505A0910605AE
:100F5000B09107052FBF08959C01FC0132969FEFC9
:100F600080E04191461751F09F3F19F4411101C0B3
:100F7000982F8F5F8630A9F79F3F09F40895290FB6
:100F8000311D97FD3A95F90162830895209101057D
:100F9000309102052817390771F09093020580936C
:100FA0000105E091FF04F0910005309721F00084E5
:100FB000F185E02D099508952091FD043091FE04FE
:100FC0002817390771F09093FE048093FD04E09197
:100FD000FF04F0910005309721F00680F781E02DA5
:100FE00009950895FA01811101C0FB010995089541
:100FF00080935B0180914E05837080935A010E941B
:10100000330D83E080935C01089522E8241B08F4EB
:1010100020E0620F08954095282F429F412D112412
:10102000842F08950E94F1080895FF920F931F9353
:10103000CF93DF93182F062FF42ED0E0C0E02F2D92
:10104000402F612FCE010E9412082196C434D10591
:10105000B1F7CDB7DEB7E5E00C945532E42FF0E000
:10106000EE0FFF1FE65DFD4F408134EE439F412DA3
:101070001124E82FF0E050E0445E5F4FDA01A21B3C
:10108000B1099D01B7FF03C031952195310993E066
:10109000220F331F9A95E1F7AF01421B530B9A01C0
:1010A00057FD20E0582F259F212D1124822F0895D0
:1010B000AF92BF92CF92DF92FF920F931F93CF9385
:1010C000DF93362F472FE82FF0E0EA5CFB4F7111DA
:1010D0000FC0E4918E2F2E2F6E2F722FDF91CF91A4
:1010E0001F910F91FF90DF90CF90BF90AF90089528
:1010F000C72FD0E02491F22E022F10E056E0659F1A
:10110000C0011124EFEFF0E0BF010E946F32832F86
:1011100090E0880F991F35E5369FD001379FB00DBD
:1011200011248A1B9B0B982F990F980F6F01CC1AD3
:10113000DD0AC09ED001C19EB00DD09EB00D11241D
:101140008B2F499FA0011124452F55276F01C41AE9
:10115000D50AC09EA001C19E500DD09E500D1124F5
:101160005F01A91AB108AC9E6001AD9ED00CBC9E77
:10117000D00C1124CD2CDD24EC19FD09E09FE001F9
:10118000E19FD00DF09FD00D1124ED2F623071053D
:10119000A1F050F46115710509F49ECF613071051D
:1011A00081F0EB2F852F98CF6430710569F080F0C6
:1011B0006630710509F490CFF4CFE22F2B2F8D2FDD
:1011C0008BCFE22F252F88CFEB2F822F2D2F84CF8F
:1011D0002B2F8F2DE52F80CF89B185FB882780F9B4
:1011E0000895FF920F931F93CF93DF93EC01F62E98
:1011F000042F122F0E94EC0881110FC0C232D105BA
:101200007CF0A297FE01EE0FFF1FEC0FFD1FE45DC7
:10121000FB4FF1820083128303C0C232D10594F3E5
:10122000CDB7DEB7E5E00C945532CF93C82F0E94BE
:10123000EC08882329F081E0C23228F080E003C066
:1012400081E0C434D8F7CF910895B0E0A0E0EBE29C
:10125000F9E00C9434327C01C0915E018EE0C89FAD
:10126000C02D11241EE01C0F153408F014E40E9458
:10127000EC08882319F0133208F012E20E94EC08FF
:10128000811103C0C23208F4C2E22091520531E05C
:10129000230F08F42FEF30E050E040E06FEF7FEFD6
:1012A00080E090E00E9468336901D0E001E0B12C59
:1012B000A12C2C2FC11740F0812F0E941509CDB70A
:1012C000DEB7EAE00C945032FE01EE54FD4F80810F
:1012D00090915F01892329F1809125058150082E85
:1012E000000C990B87FF1FC0B60130915205300FDB
:1012F00008F43FEFA501639F412D739F400D511DE1
:10130000112460914F057091500580915105F701AE
:1013100009950E945808462F282F672FCE010E945A
:1013200012082196C6CFFC01EB5DFA4F31893213CA
:101330000AC0FC01EE0FFF1FEB5DFA4F618D728D4D
:101340006C157D0590F20197CDCFF894E82FE295CA
:10135000EF70F0E031A1282F2F7081E090E001C004
:10136000880F2A95EAF7982F9095932391A392A13D
:10137000892B82A37894089590919A0392FF06C0D6
:10138000282F28712830F9F4877F846093FF06C0E6
:10139000282F28712831F1F4877E846120919B03E6
:1013A00020FF06C0382F38713830D9F4877F81602C
:1013B00021FF06C0282F28712831D1F4877E816152
:1013C00094FD877E0895282F24712430F9F68B7FB1
:1013D0008860DCCF282F2471243101F78B7E88614F
:1013E000DDCF382F3171313019F78E7F8860E0CF33
:1013F000282F2171213121F78E7E8861E1CFCF9393
:10140000DF93EC0182389105B1F108F040C08133DF
:10141000910509F49DC048F58932910509F48DC004
:101420008A9709F49CC0C11522E5D20708F0BDC017
:10143000C11531E5D30708F024C1C83ED10508F035
:10144000A3C0C13ED10588F5C83AD10508F08EC0C9
:10145000C53AD10508F0F6C0C130D10531F1209769
:1014600021F1C430D10508F545C08533910509F453
:101470005FC0C997C1F680919A03837009F036C1A5
:1014800080919B0383FF11C0C9E2D0E00EC0833E70
:10149000910599F170F4803E910501F1823E91052C
:1014A00011F680919A0382FD21C0CE01DF91CF9188
:1014B0000895863E910561F1873E910571F1843E64
:1014C000910509F0B0CF80919B0381FFEECF809111
:1014D0009A03C7EED0E084FD0DC0E7CF80919A0358
:1014E00080FD33C090919B0390FFDFCFC3EED0E02F
:1014F00084FFDBCFD0E0C0E0D8CF80919A0382FD9B
:10150000F2C090919B0390FDF1C084FFCECFF2CF4B
:1015100080919A0383FDDDCFC8CF80919A0383FD2C
:10152000E8C090919B0391FFF0CFC4EED0E0BDCF17
:1015300080919A0385FFB9CFA7CF80919A0385FD4B
:10154000DBC080919B0383FFB0CFC9E3D0E0ADCF78
:1015500080919A0386FFA9CFCAE2D0E0A6CF8091FE
:101560009A0386FFA2CFC1E3D0E09FCFCF3BD10546
:1015700008F6C85AD0E0CC0FDD1FC256DE4F0990E6
:10158000D881C02DD46491CFC11540E5D40708F0AF
:1015900064C0C11580E4D80708F05CC0CE019A95FC
:1015A00081159F4108F481CFA5CFC11536E5D3073A
:1015B00018F5C11545E5D40708F07CC0C11584E5D0
:1015C000D80708F072C09E01237033279C2F969590
:1015D0009695C115D34508F459C0C1E0D0E002C0CA
:1015E000CC0FDD1F2A95E2F730E2939FC001112452
:1015F000C82BD92BDA6859CFC1158AE5D80778F4FA
:10160000C11529E5D20708F060C0C11538E5D30738
:1016100008F470CFDC2FCC27C06FD06A46CFCE0144
:1016200090568115904208F065CF8D2F8F710E94E2
:10163000BC0990E0982F882788279F719C012C2B4C
:10164000E90141C0C55AD0E0C556DE4FC881D0E09F
:10165000D0642BCFDF70D06A28CFCE01837099275A
:1016600021E030E002C0220F331F8A95E2F7C695D1
:10167000C69580E2C89FE0011124C22BD32BDD6800
:1016800014CFDC2FCC27C16FD06A0FCFC1E0D0E0E0
:1016900002C0CC0FDD1F2A95E2F720E2929FC00125
:1016A0001124C82BD92BDC6800CFDC2FCC27C46FCA
:1016B000D06AFBCE8C2F0E94BC09C82FD0E0DC2F53
:1016C000CC27CC27DF71D062F0CE8C2F8F700E9498
:1016D000BC0934E0D695C7953A95E1F7CF709C2FB9
:1016E000EC01D069E2CEC2EED0E0DFCEC0EED0E0B9
:1016F000DCCEC6EED0E0D9CEC5E3D0E0D6CE809128
:101700005A03811110925A03089580959091FA041A
:1017100098239093FA0408958091500390911F03A9
:10172000981301C008958F5F8770FACF292F9A30E0
:1017300078F5863068F590E036E0239F800D911DA6
:101740001124682F677023E0969587952A95E1F715
:10175000FC01EE0FFF1FE80FF91FEF5FFC4F50E099
:1017600040E080E0219130E0062E02C036952795BA
:101770000A94E2F721703327042E01C0220F0A9445
:10178000EAF7822B4F5F5F4F4330510559F70895B9
:1017900080E00895292F9A3098F5863088F590E0FA
:1017A00036E0239F800D911D1124282F277041E0E2
:1017B00001C0440F2A95EAF723E0969587952A956C
:1017C000E1F7FC01EE0FFF1FE80FF91FEF5FFC4F81
:1017D00030E020E070E05191DF011197CB01022E43
:1017E00002C0969587950A94E2F7817081958527C6
:1017F000842385278C932F5F3F4F2330310559F782
:101800000895829590E09C01220F331F220F331F11
:101810002C7C95958795959587958373282B30E03B
:10182000C901880F991F8A7A359527952575822BCE
:101830000895FC019281913049F4858182FF02C0B4
:1018400080FF1EC080FF1CC083E00895923049F4E1
:10185000858182FF02C080FF15C080FD15C084E035
:101860000895933049F4858182FF02C080FF0EC045
:1018700080FD0EC087E00895943060F481E0089503
:1018800082E0089586E0089585E0089589E008954E
:1018900088E008958AE008959FB7F89410920C05A7
:1018A0009FBF90911B05943009F048C02091E9003A
:1018B0002F703091EC00932F917030FD90E8922BB7
:1018C00025E02093E9002091EB0020FF34C0209117
:1018D000EE0027FF30C020910B05222321F020913C
:1018E000E80025FF28C010920B0526E03091E800A3
:1018F00035FF14C08093F1008091E80085FD27C07A
:101900008091E80080FFFCCF8091E8008E77809383
:10191000E8009F709093E90080E0089530911B05E6
:10192000343049F43091EB0035FD05C0215041F4CD
:1019300081E080930B059F709093E9008FEF0895ED
:10194000EFE9FFE03197F1F700C00000CFCF8FB78C
:10195000F89421E020930C058FBFDBCF809308051E
:1019600070930A056093090580911B058430F9F492
:101970008093E9008FEF9091E800815095FD06C0BB
:1019800095ED9A95F1F700008111F5CF8091E8006F
:1019900085FF0DC050E040E063E070E088E095E036
:1019A0000E944C068091E8008E778093E8000895AD
:1019B000BC0184E00E94AE0C0895BC0183E00E944B
:1019C000AE0C0895CF93DF93EC0181E08093E900A2
:1019D0008FEF9091E800815095FD06C095ED9A95A6
:1019E000F1F700008111F5CF8091E80085FF14C068
:1019F00050E040E068E070E0CE010E944C0680912B
:101A0000E8008E778093E80088E0FE01A1E1B5E070
:101A100001900D928A95E1F7DF91CF91089581E0D1
:101A20008093E00080E28093D8001092C9008FE19B
:101A30009EE40197F1F700C0000087E090EBDC0125
:101A40008093580590935905A0935A05B0935B0570
:101A500088E19CE00FB6F894A895809360000FBED3
:101A600090936000FFCF6E9A3EB13F7B2EB1206411
:101A70004FB7F8948CE294E0FC015191CF0168E0FB
:101A80002EB9000000C057FF3EB9550F000000C03E
:101A900000C000C03EB900C06A9591F7F4E0883FED
:101AA0009F0751F74FBF8FE594E00197F1F700C012
:101AB0000000089580916603811110C08091D800C4
:101AC00080618093D8008AE18A95F1F700C0809107
:101AD000D90080FF0AC081E08093660381E0909185
:101AE0006603913009F080E0089582E080936603F8
:101AF0000E94FC0510921B05F1CF0E945A0D88230D
:101B000059F0E091FF04F0910005309729F0019021
:101B1000F081E02D0995089580E008950F931F93BB
:101B20000E945A0D882329F00E9494071F910F915B
:101B300008950E94940700918A0310918B032091CD
:101B40008C0330918D03600F711F821F931FEECFA6
:101B5000CF92DF92EF92FF926B017C010E945A0DAF
:101B60008823A1F02FB7F8946091040570910505C2
:101B700080910605909107052FBF6C197D098E098C
:101B80009F09FF90EF90DF90CF9008950E948E0DF7
:101B9000F4CFCF93DF93C7EFD2E060E0CE010E9495
:101BA00044332196C11584E0D807B9F7DF91CF916E
:101BB00008951F93CF93DF93122F8630E0F46A309D
:101BC000D0F44630C0F4C42FD0E0CC0FDD1F9CE031
:101BD000699FC00DD11D112498E7899FC00DD11DAB
:101BE0001124632FCE0187960E944433612FCE01CA
:101BF00088960E944433DF91CF911F910895AF9250
:101C0000BF92CF92DF92EF92FF921F93CF93DF9319
:101C100086E6C82E86E0D82ED0E07601C0E014C05B
:101C2000F50125913491412F6C2F8D2F0E94D90DF4
:101C300082E0A80EB11C1F5F163091F78CE0E80E11
:101C4000F11CCF5FCA3019F0570110E0E9CFDF5F18
:101C500088E7C80ED11CD63001F7DF91CF911F91D4
:101C6000FF90EF90DF90CF90BF90AF900895CF930B
:101C7000C82F6FEF811162E283E290E00E9444334B
:101C80006FEFC11160E184E290E00E9444336FEF96
:101C9000C11162E185E290E00E944433CF91089542
:101CA00080E00E94370E60E086E290E00E944433BC
:101CB0000E94FF0D0E94C90D81E00E94370E089519
:101CC0000F931F93CF93DF93863030F56A3020F562
:101CD000463010F5C42FD0E0CC0FDD1F2CE0629F02
:101CE000C00DD11D112438E7839FC00DD11D1124D3
:101CF000CE0187960E942633082F10E0102F002770
:101D0000CE0188960E9426339801282BC901DF91C5
:101D1000CF911F910F91089590E080E0F8CF462F6A
:101D2000863040F47A3030F4663020F4672F0E9419
:101D3000600E089590E080E00895CF92DF92FF92C8
:101D40000F931F93CF93DF936C0100915705809100
:101D50005B03082BC7E0D0E010E0FC2EC8010C2E7E
:101D600002C0959587950A94E2F780FD0CC02197F3
:101D7000A0F7F12C8F2DDF91CF911F910F91FF9044
:101D8000DF90CF900895B6018C2F0E948F0E0E9495
:101D9000FF09019761F3EECFCF93DF93EC010E942F
:101DA0009D0EBE010E948F0E0E94FF09DF91CF9110
:101DB0000895FC0183819481892B29F08081918190
:101DC00089238F3F51F480E00895843FE1F717C0E5
:101DD000883EA8F0813FB9F712C0808191810E94AE
:101DE000CC0E92959F70963099F358F4925F9F7045
:101DF000923048F7803F19F040F7883E20F781E0A5
:101E000008959A5FF4CFA5E0B0E0E9E0FFE00C941C
:101E10003B3249835A8389819A81662399F0222330
:101E200089F00E949D0E182F682F89819A810E9447
:101E3000CA0B69817A81812F0E948F0E2596E3E07B
:101E40000C9457320E94960B182FF3CF83E290E048
:101E50000E942633823289F484E290E00E94263385
:101E6000803159F485E290E00E94263391E082317E
:101E700009F090E0892F8170089580E0FCCFCF9326
:101E800084E090E00E942633C82F82E290E00E9416
:101E90002633982F8C2FCF91089546E050E06CE1C7
:101EA00070E08EE495E00E94343310922B04089584
:101EB0008093520590912B04962B90932B04909134
:101EC0002A0490FF16C02FE631E0662311F021E7C7
:101ED00031E01F928F933F932F9387E995E09F9373
:101EE0008F930E94DC050F900F900F900F900F9032
:101EF0000F9008958091520520E1382F321B08F48D
:101F000030E0832F61E00E94580F089580915205C0
:101F100020E1382F320F08F43FEF832F61E00E9459
:101F2000580F089530914E05337071F180934F052D
:101F300060935005493708F048E7409351053091C8
:101F40002B04322B30932B0430912A0430FF1CC019
:101F500050E09927211119C02FE631E05F934F938C
:101F60001F926F939F938F933F932F9384E795E0F6
:101F70009F938F930E94DC058DB79EB70A960FB68C
:101F8000F8949EBF0FBE8DBF089521E731E0E6CFE4
:101F9000EEE4F5E0438120E1421B08F440E081815A
:101FA00021E0628190E00E94920F0895EEE4F5E056
:101FB000438120E1420F08F44FEF818121E06281EB
:101FC00090E00E94920F0895EEE4F5E0628120E136
:101FD000621B08F460E0818121E0438190E00E946F
:101FE000920F0895EEE4F5E0628120E1620F08F4BB
:101FF0006FEF818121E0438190E00E94920F08956C
:10200000EEE4F5E0818121E0438162818850990B03
:102010000E94920F0895EEE4F5E0818190E021E0C6
:102020004381628108960E94920F089590914E0517
:10203000937051F1811129C0946090934E051092D4
:102040005C0180912B04862B80932B0480912A04C1
:1020500080FF1AC020914E05269526958FE691E0C7
:10206000662311F081E791E01F922F939F938F9346
:102070008AE595E09F938F930E94DC050F900F9067
:102080000F900F900F900F900895883010F09C6182
:10209000D4CF880F880F982BD0CF80914E0586958E
:1020A0008695815009F487E061E00E94161008953A
:1020B00080914E05869586958F5F883008F081E087
:1020C00061E00E941610089580912A0480FF08C0E4
:1020D00086E395E09F938F930E94DC050F900F900D
:1020E0008DE080934E058091610190916201A091F5
:1020F000630180934F0590935005A093510588E7A5
:10210000809352058FEF809353050E944D0F0895E1
:10211000B0E0A0E0EEE8F0E10C9431327C015B012C
:10212000842E752E69018091670301E010E08A30EA
:1021300010F40AE010E0C1E0D0E0B501C701F601FB
:102140000995982E811114C021960C171D07B4F41F
:1021500080912A0480FF0CC07F928F9289E792E0E1
:102160009F938F930E94DC050F900F900F900F901C
:10217000892DCDB7DEB7EDE00C944D32CC9F9001A8
:10218000CD9F300D300D112490E080E045E34A955D
:10219000F1F70000019628173907C1F7CECFB0E05C
:1021A000A0E0E5EDF0E10C942F32182F80915B0157
:1021B000811323C090914E05937020915A0130E015
:1021C00081E09217130609F480E08170809360012A
:1021D0008091530590915F01981739F080935F01CA
:1021E00040E060E080E00E941508183060F4E12FC4
:1021F000F0E0E353FC4C0C94973281E0E6CF809101
:102200006001811102C080E0A0C040E060E080E099
:102210000E941508F8CFC0915E018EE0C89FC02DC6
:1022200011240EE00C0F053408F004E40E94EC08C1
:10223000882319F0033208F002E20E94EC088111B1
:1022400003C0C23208F4C2E260914F05709150059C
:10225000809151050E945808F62EE72ED82ED0E026
:10226000C01710F0802F6FC0FE01EE54FD4F80812B
:1022700090915F01892331F02D2D4F2D6E2DCE01D0
:102280000E9412082196ECCFE0905E01DEE0ED9E08
:10229000D02D1124CEE0CD0FC53408F0C4E40E9447
:1022A000EC08882319F0C33208F0C2E20E94EC085F
:1022B000811103C0D23208F4D2E260914F057091CF
:1022C000500540915105E0912504F091260480913C
:1022D000520586958695869530E020E0E89F212D71
:1022E000F89F200D311D1124922F96FD2095322F3D
:1022F0003F7096FD3F5F2695269526952670E22F26
:10230000F0E0EE52FE4F8181839F802D312D11240C
:1023100082958F703295307F832B2081820F97FDBD
:10232000819587FD8195880F282F249F212D1124C9
:10233000822F0E945808062FD72EC82EED2EF12C82
:10234000EC16D8F08C2F0E94150990915E019F5FCA
:1023500090935E0181110CC082E080935C018091BA
:102360006001811105C0111103C083E080935C01FD
:10237000CDB7DEB7EFE00C944B32F701EE54FD4FD2
:10238000808190915F01892331F02C2D402F6D2D9C
:10239000C7010E9412084FEFE41AF40AD1CFC0918E
:1023A0005E018EE0C89FC02D11240EE00C0F053495
:1023B00008F004E40E94EC08882319F0033208F0C6
:1023C00002E20E94EC08811103C0C23208F4C2E2AA
:1023D000309152053695369521E0320F08F43FEFE3
:1023E000409125045091260490E080E0439F812D88
:1023F000539F800D911D1124F82ED0E0C01708F0D6
:1024000031CFFE01EE54FD4F808190915F01892311
:1024100091F060914F0570915005809151052F2DDD
:102420004C2F0E942E080E945808462F282F672FF5
:10243000CE010E9412082196E1CFE0905E018EE06D
:10244000E89EE02C11247EE0F72EFE0C94E49F150C
:1024500010F464E4F62E0E94EC08882329F0A2E22E
:10246000AF1510F452E2F52E0E94EC08811105C060
:10247000B2E2EB1610F442E2E42E80916001882370
:1024800061F040E060E080E00E941508ECEBF3E0D2
:102490008CE3DF011D928A95E9F780915E0181113D
:1024A00015C08091B8039091B9030E94850721E07F
:1024B0008931910508F420E02093B703499730F063
:1024C0000E94A0079093B9038093B803A12C912C8C
:1024D000B12C96E0792E25E5622E3AEA832E55241A
:1024E000539405C0ADE0A91508F453C0B12C2B2DB1
:1024F00030E07A9CE0011124FE01E251FE4FE20F30
:10250000F31FC080CE1408F43CC0CF1408F039C0CB
:102510009394D12CF601EE54FD4F808190915F0190
:10252000892309F42EC0C454DC4FC20FD31F088185
:10253000302F262D321B08F430E070915005282DE5
:10254000200F08F42FEF40915105822F880F820F42
:102550008E5F282F249F212D1124822F682D631B2D
:102560000E945808462F282F672FC6010E94120884
:102570008091B703882329F0452D041B08F400E05F
:102580000883B39486E0B812B2CFA3949AE0A9125C
:10259000A9CF8F2DD8CE00915105B3E00B9FE0015C
:1025A0001124D695C795D695C7955C2EA02EB12C33
:1025B0008FEF90E0B5010E948332762E809160010A
:1025C000882371F040E060E080E00E941508ECEBA9
:1025D000F3E08CE3DF011D928A95E9F71092BB03CB
:1025E0008091BA038F5F8093BA03F12CE12CAC1A6F
:1025F000BD0A6701612CD701A454BC4F4D018091E5
:10260000BB03862909F045C00E94F032853595400C
:102610000CF03FC0F4010083F601E251FE4FE0816F
:10262000EF3FD1F0D601A454BC4F2C91F0E05216EC
:1026300008F040C030E02C1B3D0B2C9FC0012D9FAB
:10264000900D3C9F900D1124B5010E946F32262FF2
:10265000402FCF010E9412086394F6E0CF0ED11CE8
:102660002AE06212CCCF4FEFE41AF40A86E0E816B3
:10267000F10409F0BECF8091BA03781202C0109223
:10268000BA038091BB038F5F8D31F0F48093BB035D
:10269000BACDF601E454FC4F8081882309F4BCCF05
:1026A000801708F0B9CF9091BA037912B5CF815055
:1026B0008083B2CF029FC0011124BE010E946F32FD
:1026C000462F20E060E0C5CF1092BB032CEE33E034
:1026D00089E09FEF900FECEBF3E0D901893021F412
:1026E00046A9041301C096AB4D91401730F0ED019F
:1026F0002197988315960C931597319643E0E23C09
:10270000F40761F78150265031098111E4CF7BCD68
:102710008BE098E00E94250918CE85E098E0FACF7A
:102720004F925F926F927F928F929F92AF92BF92E1
:10273000CF92DF92EF92FF92609121047091220478
:1027400080912304909124040E94A80D6B017C01C8
:102750000E948E0D4B015C01809221049092220414
:10276000A0922304B0922404A091F803E8EFF3E0D0
:102770008A2F90E04FEF5FEF60E070E04C195D0949
:102780006E097F09A91328C08093F803809129045A
:10279000811135C090914E05892F837019F0892FD2
:1027A0008695869590915C01913009F441C09923FA
:1027B00041F1923009F43FC0933009F43FC0FF90DB
:1027C000EF90DF90CF90BF90AF909F908F907F90D1
:1027D0006F905F904F900895218D328D2901712C5B
:1027E000612C441555056605770520F481509F5FDF
:1027F0003296C8CF2C0D3D1D328F218FF8CF80E04F
:10280000D1CF10925E018092250490922604A0926E
:102810002704B092280489E2E8EFF3E0A5E2B5E0EE
:1028200001900D928A95E1F781E080935C01C7CF1A
:102830000E94CF10C4CF0E94F807C1CF80912B0413
:1028400081110E944D0F60912504709126048091A2
:102850002704909128040E94A80D6031710581051C
:10286000910508F4ACCF10925C01A9CFAFE0B0E0C5
:10287000ECE3F4E10C9431328E010F5F1F4F8AE0DC
:10288000D8011D928A95E9F78CE2C82E81E0D82EF6
:10289000F12CE12CAA24A394B12C2CE2822E21E06D
:1028A000922EF60181916F018F3F09F442C0F89496
:1028B000E82FE295EF70F0E021A18F70A50102C032
:1028C000440F551F8A95E2F7CA01922F982B91A3C6
:1028D00092A18095892382A3789400C0E6E2F1E07A
:1028E000712C31E021912F3F09F46BC0A22FA295EA
:1028F000AF70B0E090968C9190E02F7002C09595EB
:1029000087952A95E2F780FD5CC0832F782A330FE4
:102910008E169F0639F7F601319780818F3F11F0AF
:102920000E94A50950EA5A95F1F7F801EE0DFF1D36
:1029300070828FEFE81AF80AA5E0EA16F10409F0B0
:10294000B0CF4AE050E0B8018EE893E00E94003337
:10295000009741F02AE0F801AEE8B3E001900D9253
:102960002A95E1F700919903892B69F181E0809321
:102970005E030E94A00790935D0380935C038091A7
:102980005C0390915D030E948507059700F110E0BC
:1029900003551C4F45E050E06EE873E0C8010E940B
:1029A0000033C12C892B51F085E0EEE8F3E0D8012B
:1029B00001900D928A95E1F7CC24C39410925E03A6
:1029C00007C080E0A3CF80915E038111D8CFC12CD6
:1029D0000E945A0DD82EE0919903882309F492C0E1
:1029E0007E01BBE0EB0EF11C85E0D7011D928A95BC
:1029F000E9F70E2F10E003551C4FB0906703B9E0C4
:102A0000BB15E0F12AE33DE148E751E0B701C80119
:102A10000E948810882309F453C022E83CE145E86D
:102A200051E0B701C8010E948810882309F448C00A
:102A300028ED3CE140E951E0B701C8010E9488104F
:102A40008823F1F1F9E0FB1508F453C010926703F5
:102A50008091980390E045E050E0B70183559C4F8A
:102A60000E94003321E020936503892BE1F4D12CEF
:102A70008D2D8C292F96EDE00C944D3280915F03C3
:102A8000909160030E948507843F914008F0BACF7F
:102A900080916503882359F385E0D7011D928A95BB
:102AA000E9F710926503A0919803B0E0A355BC4FDD
:102AB00085E0FE013B9601900D928A95E1F7D8CF13
:102AC000809167038F3F31F08F5F809367038A3077
:102AD00008F4BECF0E94A0079093600380935F0329
:102AE00080912A0480FFD4CF83E492E00E944305C2
:102AF000CFCF80912A0480FFA9CF80E392E00E948B
:102B00004305A4CFF0E0E355FC4F85E0A6E7B3E032
:102B100001900D928A95E1F786E793E00E94E50522
:102B20008093750380907B0390907C03A0907D033D
:102B3000B0907E038091610390916203A091630342
:102B4000B091640388169906AA06BB06D1F080925C
:102B5000610390926203A0926303B09264030E94A7
:102B60005A0D81110EC00E949407861A970AA80A6E
:102B7000B90A80928A0390928B03A0928C03B09240
:102B80008D0386E0EFE7F3E0AEE4B5E001900D924F
:102B90008A95E1F710918503112349F0809129046A
:102BA000811105C00E94CF1080E00E94F8071093A9
:102BB00029045ECF0F931F93CF93DF938091FA0484
:102BC0009091F904892B8093F80290915A039923EC
:102BD00091F0892B8093F80220E08AEF92E0FC01CB
:102BE0003191CF0131112F5FF3E080309F07B9F7AA
:102BF00021110E947F0B48E050E062E573E088EF0E
:102C000092E00E940033892B09F441C088E0E8EF8C
:102C1000F2E0A2E5B3E001900D928A95E1F7E09130
:102C2000FF04F0910005309791F10280F381E02DCF
:102C300088EF92E0099580912A0482FF28C080FFE6
:102C400004C08EE192E00E944305D0E0C0E008E1BC
:102C500012E080912A0480FF0EC0FE01E850FD4F73
:102C600080811F928F931F930F930E94DC050F901A
:102C70000F900F900F902196C830D10551F7809199
:102C80002A0480FF04C086E192E00E944305DF91A0
:102C9000CF911F910F910895CF93DF93EC01EA85B7
:102CA000FB85309719F06C857D8509958B81982F70
:102CB00090958091F90489238093F9048C810E9476
:102CC000850B0E94DA1586E0FE0111928A95E9F7DC
:102CD000DF91CF910895CF93DF93EC018D8181FD3A
:102CE00018C082608D838091F9049B81892B809329
:102CF000F9048091FA049C81892B8093FA040E9444
:102D0000DA15E885F985309721F06C857D85CE014F
:102D100009951092FC041092FB048D8180FD03C084
:102D2000CE010E944C16DF91CF9108958091F80456
:102D3000882349F08091F9048D7D8093F9040E94E5
:102D4000DA151092F804089590E080E00E94DC0704
:102D500090E080E00E94C6071092F9040E94DA1504
:102D60000895809357050E94A416089580915705F1
:102D7000982F9670963021F488600E94B1160895BD
:102D8000877FFBCF21E030E001C0220F8A95EAF770
:102D900020958091570582230E94B1160895909145
:102DA00051038095892380935103282F277091F434
:102DB000282F082E000C330B9217130659F0909110
:102DC0009B0392FF07C08595859585950E94C21645
:102DD000109251030895CF93DF93D82FC0919B0396
:102DE000C2FB882780F98D1711F1D0FBC2F9C0937F
:102DF0009B0360919A0384E090E00E9444336C2F1F
:102E000082E290E00E94443382E00E94CF168091DB
:102E10002A0480FF0CC01F92DF9381E092E09F9311
:102E20008F930E94DC050F900F900F900F90DF9111
:102E3000CF91089521E030E001C0220F8A95EAF792
:102E400080915705822B0E94B116089580935B03F1
:102E50000E94A41608951092FA04EAEFF2E086E0C8
:102E6000DF011D928A95E9F70E94A4160895AAE24F
:102E7000B0E0EDE3F7E10C943B328DE195E0209179
:102E8000F100DC012D93CD01B5E085329B07B9F748
:102E900080911E05833009F472C0B8F4813009F4C2
:102EA00049C0823009F4B3C08091E80083FF91C229
:102EB00080911D0590911E059A3008F08AC2E92F75
:102EC000F0E0EB52FC4C0C9497328A3009F48EC03F
:102ED0008B3009F471C0893039F780911D0581323A
:102EE00019F78091210590912205009711F0029722
:102EF000D9F68091E800877F8093E8008091E80010
:102F000082FF38C09091F3008091F200029731F473
:102F10008091F100813011F0863021F48091F10030
:102F2000809310058091E8008B778093E8000E94E1
:102F30007606BACF80911D05813A09F0B5CF809110
:102F4000E800877F8093E800809121059091220519
:102F5000892B61F468E081E195E070E00E9422072E
:102F60008091E8008B778093E8009ECF60E090E04E
:102F700080E0F3CF80911B058111C0CF95CF809168
:102F80001D05813A09F090CF80912105909122058D
:102F9000892B09F089CF8091E800877F8093E80032
:102FA0008091E80080FFFCCF80915D018093F1006B
:102FB0008091E8008E77B9CF80911D05813209F0AC
:102FC00073CF8091210590912205892B09F06CCF58
:102FD0008091E800877F8093E8000E9476068091C8
:102FE0001F0580935D010E942B175ECF80911D0508
:102FF000813209F059CF8091E800877F8093E80003
:103000000E9476068091200580930F054DCF809118
:103010001D05813A09F048CF8091E800877F8093B1
:10302000E8008091E80080FFFCCF80910F05BECFC3
:10303000803899F0823809F0CCC1809121058F70D9
:10304000873008F0C6C18093E9008091EB0085FBD2
:10305000882780F91092E90006C0809119059091A7
:103060001A05911182609091E800977F9093E80093
:103070008093F1001092F1008091E8008E77A5C155
:10308000882309F493C1823009F0A3C180911F0500
:10309000811196C1809121058F702FEF280F263066
:1030A00008F097C18093E9002091EB0020FF88C1D0
:1030B000933031F48091EB0080628093EB0080C10B
:1030C0009091EB0090619093EB0021E030E001C023
:1030D000220F8A95EAF72093EA001092EA00809185
:1030E000EB008860EACF811174C110911F051F7732
:1030F0008091E3008078812B8093E3008091E80049
:10310000877F8093E8000E9476068091E80080FF28
:10311000FCCF8091E30080688093E30082E011118E
:1031200083E080931B0555C18058823008F051C15F
:1031300020911F05309120052C3DE3E03E07A1F5CD
:1031400083E08A838AE289834FB7F894DE0113967D
:1031500020E03EE051E2E32FF0E050935700E4918D
:1031600020FF03C0E295EF703F5FEF708E2F90E07D
:10317000EA30C0F0C7968D939D932F5F243159F7A5
:103180004FBF8091E800877F8093E8006AE270E09B
:10319000CE0101960E9422078091E8008B778093F0
:1031A000E80017C1C096E7CF8091210590912205D4
:1031B000432F55274330510509F44AC078F5413073
:1031C000510509F47AC08BE790E0EAE4F9E0423077
:1031D000510509F0FEC02091E800277F2093E80008
:1031E00020912305309124058217930708F49C0150
:1031F00040E02115310509F065C0411163C080919F
:10320000E80082FDC9CF80911B05882329F2853013
:1032100019F28091E80083FFF2CFBECF4132510511
:1032200009F43CC04232510509F0D3C08430910505
:1032300008F0CFC0FC01EE0FFF1FE252FE4F0190DD
:10324000F081E02D86529E4FDC018C9190E01AC0F7
:10325000332721303105D1F02115310561F02230BD
:10326000310509F0B6C0E7EDF9E0E4918E2F90E06A
:10327000E7EDF9E007C0E5EFF9E0E4918E2F90E08B
:10328000E5EFF9E0009709F4A4C0A5CFE5EEF9E079
:10329000E4918E2F90E0E5EEF9E0F4CF84309105D3
:1032A00008F097C0880F991FFC01EA51FE4F01906A
:1032B000F081E02D89E090E08ECF82E190E0E5ECB6
:1032C000F9E089CF80911B05882309F465CF85300B
:1032D00009F462CF8091E80083FD5ECF8091E80021
:1032E00082FD8DCF8091E80080FF83CF9091F30025
:1032F0008091F2002115310519F08830910550F0C8
:1033000041E0089709F040E08091E8008E778093D3
:10331000E8006FCF44914093F1003196215031097C
:103320000196E8CF803809F054C08091E800877F8B
:103330008093E80080911C058093F1009DCE81115F
:1033400048C010911F05123008F043C08091E8007A
:10335000877F8093E80010931C050E947606112356
:1033600011F084E005C08091E30087FDFACF81E091
:1033700080931B0542E061EC81E00E94950642E2E9
:1033800061EC84E00E94950642E261EC82E00E94DA
:10339000950642E260EC83E00E94950642E261EC11
:1033A00085E00E94950680911B0513C080911F0542
:1033B000813079F481E0933009F080E080931A0540
:1033C0001092E9008091E800877F8093E8000E94D6
:1033D00076068091E80083FF0AC08091E800877F2D
:1033E0008093E8008091EB0080628093EB00AA96C6
:1033F000E3E00C9457320E942B172FEF84E39CE0FC
:10340000215080409040E1F700C0000088E19CE03E
:103410000FB6F894A895809360000FBE909360005B
:10342000FFCF882321F00E94850B0E94DA150895B2
:10343000882339F09091FA04982B9093FA040E9413
:10344000DA150895882391F19CEF980F913A80F452
:10345000EAEFF2E020E033E09191891303C0DF014D
:1034600011971C922E173F07B9F70E94DA1508959D
:1034700090E2980F983050F4877091E001C0990F56
:103480008A95EAF7892F0E94850BEFCF9BE5980F6D
:10349000933028F490E080E00E94DC070895885A79
:1034A000873120F490E080E00E94C6070895809163
:1034B0000501843061F038F4823059F0833069F0CE
:1034C000109205010895853061F08630C9F789E3CF
:1034D00001C087EE0E94221AF3CF80E80E94111AE1
:1034E000EFCF80E80E94111A81E00E94C216E8CF57
:1034F000CF93C82F8823B1F08CEF8C0F813A00F561
:10350000EAEFF2E080E093E0DF012D91C21761F075
:103510008A179B07D1F76C2F88EF92E00E94AC07C7
:103520000E94DA15CF9108952191C21303C0DF01E3
:1035300011971C928E179F07B9F70E94DA15EBCFEF
:1035400080E28C0F883068F4C77021E030E001C061
:10355000220FCA95EAF78091FA04822B8093FA042D
:10356000DFCFEBE5EC0FE33040F4F0E0E556FE4F43
:10357000808190E00E94DC07D5CFC85AC73190F611
:10358000EC2FF0E0EE0FFF1FE256FE4F808191819D
:103590000E94C607C7CF1F93CF93DF93182FD0E0A9
:1035A000C0E0893311F4C0E5D0E0812F0E94781A81
:1035B000209739F4812F0E94221ADF91CF911F9119
:1035C00008958FE99FE00197F1F700C0000021976F
:1035D000EFCF0F931F93CF93DF93C62FD42F022FDC
:1035E000FC0182818823A9F0609356050E94A00700
:1035F0009093550580935405C77081E001C0880FF2
:10360000CA95EAF70E94181ADF91CF911F910F9186
:10361000089580915605681332C0809154059091A9
:1036200055050E948507883C910548F510E21D0F5D
:10363000CD17B9F080E28C0F883040F4C77081E07C
:1036400001C0880FCA95EAF70E94111A183048F491
:1036500081E09D2F977001C0880F9A95EAF70E942C
:10366000181A802F0E94CB1A183070F6D77081E09C
:1036700001C0880FDA95EAF70E94111AC5CFC7700A
:1036800081E001C0880FCA95EAF7F6CFB0E0A0E06C
:10369000ECE4FBE10C943732E82FF0E0EA51FA4F0A
:1036A000D490282F26952695269530E0F901EA52E8
:1036B000FA4F0491877010E0082E02C01595079507
:1036C0000A94E2F701701127F901EA53FA4FE490E6
:1036D000F12C082E02C0F594E7940A94E2F791E0E9
:1036E000E922FF24F901EA54FA4FC491D0E002C064
:1036F000D595C7958A95E2F7C170DD2701151105AB
:1037000019F081EE0E94781AE114F10419F086EEA6
:103710000E94781A8D2D0E94CB1AE114F10419F041
:1037200086EE0E94221A0115110519F081EE0E9401
:10373000221ACD2B19F08CE20E94CB1ACDB7DEB73E
:10374000E7E00C945332FF920F931F93CF93DF93D4
:103750008C018AE0F82EF8018491882309F44BC08B
:10376000813009F044C0E8012196FE018491813046
:1037700049F42196FE0184910E94CB1A8E010F5FBD
:103780001F4FE9CF823039F4E8012296FE0184917F
:103790000E94781AF3CF833039F4E8012296FE01B3
:1037A00084910E94221AEACF843041F7E8012296E0
:1037B000FE01249190E080E0FE0131962053330B0E
:1037C0002A30310548F00197C8F2EFE9FFE0319760
:1037D000F1F700C00000F7CFF89EA001F99E500D50
:1037E0001124C901840F951F2491EF01E5CF0E9498
:1037F000461BE801C3CFCDB7DEB7E5E00C945532E8
:103800000F931F93CF93DF938C01E0910501E2505A
:10381000E93040F4F0E0E152FC4C0C94973282E045
:103820000E94C21610920501DF91CF911F910F9156
:10383000089583E0F5CF85E0F3CF80E00E941A176A
:10384000F1CF88E20E94CB1A2196F80182818C1771
:103850001D0609F0B4F788E20E94221AE3CFC1E006
:10386000D0E0F3CF0E94190C80930501843099F0C9
:1038700028F4823041F0833051F00895853079F09A
:10388000863049F0089587EE0E94781A089580E8FE
:103890000E94181A08950E94961689E3F5CF80E8D1
:1038A0000E94181A81E00E941A1708950E94190CAC
:1038B000809305018250893020F5E82FF0E0E8512F
:1038C000FC4C0C94973282E00E941A17089588E20B
:1038D0000E94CB1A88E20E94781A089583E0F4CF00
:1038E00085E0F2CF81E00E94C21682E00E94C216FB
:1038F00083E00E94C21684E00E94C21685E00E9406
:10390000C2160895A4E0B0E0E8E8FCE10C943B3274
:10391000409171035091720360917303709174032D
:103920002FB7F8948091040590910505A0910605A4
:10393000B09107052FBF841B950BA60BB70B11E0A9
:1039400084369105A105B10570F10E948E0D6E5F60
:103950007F4F8F4F9F4F69837A838B839C838091A6
:103960001701909118018B589C4F4091160150E01F
:103970004530510510F044E050E0BE016F5F7F4FCD
:103980000E940D3382E090E00E94B631182F882308
:1039900051F00E94940760937103709372038093B7
:1039A000730390937403812F2496E3E00C945732B1
:1039B000A7E0B0E0EEEDFCE10C943A3286E0EEE4F4
:1039C000F5E0DE01119601900D928A95E1F7809164
:1039D00029048F8347E050E06FE773E0CE01019642
:1039E0000E94003300918603109187032091880381
:1039F00030918903EFB7F894409104055091050583
:103A00006091060570910705EFBF401B510B620BDB
:103A1000730B443651056105710518F411E0892BCB
:103A200021F180911F01909120018B589C4F409172
:103A30001E0150E04830510510F047E050E0BE0153
:103A40006F5F7F4F0E940D3383E090E00E94B6319C
:103A5000182F882351F00E94940760938603709377
:103A600087038093880390938903812F2796E4E04E
:103A70000C945632EF92FF921F93CF93DF9300D0B6
:103A800000D000D0CDB7DEB77B0190E080E00E948F
:103A9000B631182F882309F480C04091090150E005
:103AA0004115510511F041E050E060910A0170911B
:103AB0000B016B587C4FCE0106960E940D3340914E
:103AC0006D0350916E0360916F03709170032FB777
:103AD000F8948091040590910505A0910605B09198
:103AE00007052FBF841B950BA60BB70B84369105DA
:103AF000A105B10540F486E793E00E94E5059E81AB
:103B0000891709F44AC081E090E00E94B631811122
:103B100016C010E085E0E8E6F3E0D70101900D92D1
:103B20008A95E1F7812F26960FB6F894DEBF0FBE77
:103B3000CDBFDF91CF911F91FF90EF9008954091FD
:103B4000110150E04630510510F045E050E0609121
:103B50001201709113016B587C4FCE0101960E94A7
:103B60000D3386E793E00E94E5059E818913D1CF4E
:103B70000E94940760936D0370936E0380936F03AC
:103B80009093700385E0FE013196A8E6B3E00190C2
:103B90000D928A95E1F711E0BDCF85E0E6E7F3E00D
:103BA000DE01119601900D928A95E1F71111EACF8D
:103BB000B1CF90E080E00E942E33883E9E4F19F4F2
:103BC0000E94260F089580E0089568EE7EEF90E051
:103BD00080E00E94623360E082E090E00E94443323
:103BE00060E083E090E00E94443310925B0360E069
:103BF00084E090E00E94443364E082E290E00E941E
:103C0000443360E085E090E00E94443360E086E069
:103C100090E00E9444336FEF87E090E00E944433CD
:103C200040E050E0BA0188E090E00E94563360E046
:103C30008DE090E00E94443340E050E0BA0188E11A
:103C400090E00E94563360E087E190E00E944433A8
:103C500040E050E0BA018CE190E00E94563370E001
:103C600060E080E290E00E94623340E050E0BA0100
:103C700088E190E00E94563380E00E94370E0E9457
:103C8000500E40E050E0BA018FE090E00E945633C1
:103C900040E050E0BA0183E190E00E94563308957D
:103CA000A4E0B0E0E6E5FEE10C9432327C01DC01F8
:103CB00013968D919C911497892B49F04C911196F4
:103CC0005C911197842F85238F3F09F002C62496BB
:103CD000ECE00C944E32C114B4E0DB0609F45EC68D
:103CE000C6010E942633811101C00150EFEFCE1AA8
:103CF000DE0A32C668018E010F5F1F4FD8018C911A
:103D0000882309F431C6813009F044C011969C9192
:103D1000119712968C91913039F40E5F1F4F0E94CB
:103D2000CB1A0F5F1F4FEACF923029F40E5F1F4F5F
:103D30000E94781AF6CF933029F40E5F1F4F0E942D
:103D4000221AEFCF943019F00F5F1F4FEACF0E5FAA
:103D50001F4F30E020E0B8016F5F7F4FF8014181D5
:103D60008053990B8A30910550F021503109C8F2E7
:103D70008FE99FE00197F1F700C00000F6CFA29E07
:103D8000F001A39EF00D11249C012E0F3F1F842FE4
:103D90008B01E1CF0E94461BC4CF81E00E941A171D
:103DA0000E94B616FBC581E00E94C216F9CF82E0E0
:103DB000F5CF882309F400C58EE691E0FBC4882383
:103DC00009F4FAC482E691E0F5C4902F812F3CC536
:103DD000F601858181FF3CC5C6010E944C1638C59D
:103DE0000C3AFDE51F0709F033C5D70112968C91F7
:103DF000882309F4D3C58091F804882319F00E9420
:103E00009616CCC51092FA040E947F0B0E94A00760
:103E100088579C4E9093AB038093AA0381E08093D4
:103E2000F804BCC5011592E5190708F044C5D7018F
:103E300012968C91882309F4C3C51092560503305D
:103E4000BDE51B0708F0CDC00A3FECE51E0730F4C6
:103E5000C80182509C45449708F0CEC00E943F0F95
:103E600090939B0380939A0302318CE5180709F421
:103E7000D3C108F01FC10930ACE51A0709F4AAC183
:103E800008F0E9C00530ECE51E0709F497C108F019
:103E9000D0C003302CE5120709F488C108F08AC1AC
:103EA00002308CE5180709F479C160919A031091EA
:103EB0009B0384E090E00E944433612F82E290E013
:103EC0000E9444330E942B1769C50115A9E51A0702
:103ED00058F40115B8E51B0708F0A9CF0431E5E552
:103EE0001E0709F0E8C4A3CFC8019056811590427F
:103EF00008F0E1C4D70115968C91807F71F5812F70
:103F00008F71823119F1F0F4823001F10E9496161E
:103F1000033F2CE5120709F455C008F03EC0083DE8
:103F20008CE5180709F44AC0093D9CE5190709F416
:103F300055C0073DACE51A0709F079CF26E241EEFE
:103F400061EE38C0843121F3863101F71092F90413
:103F5000DDCFF7018581807FD9F2C80199271092C2
:103F6000F9048832910548F48E31910560F4049784
:103F700068F282E08093F90406C08D329105C9F39E
:103F800028F48A9719F60E94DA15C2CF8C3491056D
:103F9000D1F38D329240B9F3B9CF053FBCE51B0791
:103FA000C9F0A0F027E245EE66EE063FFCE51F07EC
:103FB00009F03DCFC7010E94E91AF0C427E245EE9F
:103FC00065EEF8CF26E241EE60EEF4CF27E245EE53
:103FD00064EEF0CF26E241EE62EEECCF28E241E063
:103FE000EFCF053AFDE51F0709F438CFE0F40136BD
:103FF0003DE5130709F432CF06318CE5180709F0C7
:104000006DC58091FA048A7A91E009F490E090936A
:10401000000369E2811165E388EF92E00E94AC073A
:104020000E94DA15BBC4C8018D5A9D45039720F73D
:1040300015CF80919A03806207309CE51907B9F18A
:1040400080919A0380610830ACE51A0780F1809175
:104050009A0380642CC00D30BCE51B0709F4C4C072
:1040600090F480919A038E7F0B30FCE51F07F9F0E6
:1040700080919A038C600C302CE51207C0F080917F
:104080009A038D7F14C00F303CE5130709F4BCC0C0
:1040900008F4AEC000319CE5190709F4B9C080915D
:1040A0009A038F7B0131ACE51A0709F0FECE8093AD
:1040B0009A03FBCE0F3FBCE51B0709F4B7C0A8F578
:1040C0000A3FFCE51F0709F47DC0C0F404313CE55C
:1040D000130709F4B9C008F4A5C005319CE5190718
:1040E00009F0E3CE80919A0382FB992790F921E0B1
:1040F000922790FB82F990FB83F9D9CF0C3FACE576
:104100001A0709F479C008F461C00D3FECE51E07F9
:1041100009F476C080919B0383600E3FFCE51F0786
:1041200009F0C3CE80939B03C0CE01362DE5120764
:1041300009F495C090F401308DE5180709F48DC09D
:1041400008F478C060E00230ADE51A0709F0ADCEA2
:104150008EE090E00E944433A8CE0D3ABDE51B07E7
:1041600009F160F490919A03892F8E7F90FF81600E
:10417000053AFDE51F0709F49ACF97CE0E3A2DE5D3
:10418000120771F10F3A3DE5130709F08ECE9091B9
:104190009B03892F877F93FF8860C4CF80919A0308
:1041A000816085CF80919B038860BCCF80919A030A
:1041B00082607DCF80919A03846079CF80919A0349
:1041C000886075CF80919B038160ACCF80919B0309
:1041D0008260A8CF0E942B1780919A03806867CFD6
:1041E00080919B03877F9ECF80919A038B7F5FCFC7
:1041F00080919A03877F5BCF80919B038E7F92CFC4
:1042000080919B038D7F8ECF80919A038F7E4FCFBD
:1042100080919A038F7D4BCF0E942B1780919A0338
:104220008F7745CF80919A03837F41CF80919B0305
:104230008C7F78CF80919B03982F909591708E7F83
:10424000892B90FB81F96ECF0E942B1790919A03D6
:10425000892F97FB87F980582ACF61E079CF909119
:104260009A03892F8F7E94FF806121CF8091000374
:1042700081110FC089E2EAEFF2E020E033E0919192
:10428000891303C0DF0111971C922E173F07B9F75E
:10429000C7CE85E3F0CF4DE450E168E570E10E94C0
:1042A000F2077CC348E550E16DE470E1F8CF40E0EF
:1042B00050E16BE070E1F3CF48EC5FE066ED7FE04A
:1042C000EECF61E081E00E94161068C390912A044D
:1042D000892F8E7F90FF816080932A0480FF05C024
:1042E00080EF91E00E94430559C38EED91E0FACF33
:1042F0000E94E51D0E94FB1980919B0382FB882789
:1043000080F991E089270E94EB16D70112968C91D3
:1043100012970D911C91882309F445C0C8010E9491
:104320009D0ED82E682FC8010E94CA0BB8018D2D92
:104330000E948F0E0E94FF098C01882EF701D28007
:10434000B580B2943FE0B322809151038770C1F0F1
:10435000AD2CDD20B1F0812F807F803421F080E210
:10436000800F883068F080919B0382FF09C082E053
:104370000E94CF16809151038770AA24A3948111C3
:10438000A12C912E92942FE09222FBE0F91508F4D3
:104390006FC0E92DF0E0EF50FC4C0C94973281E0B7
:1043A000B2CF80E0B0CFC8010E94960BD82EBECF0E
:1043B000212F2F70C22E107F19F0C29490EFC922C6
:1043C000DD20B9F0CC2069F080E2800F883010F059
:1043D000811009C08091FA04C82AC092FA040E9490
:1043E000DA15802F43C08091F904C82AC092F904DD
:1043F000F6CF802F0E94221ACC20D1F1005E083027
:1044000010F0811004C08C2D0E94850B06C0C09452
:104410008091F904C822C092F9040E94DA1528C0DC
:10442000312F3F70C32E107F103219F0C29480EFED
:10443000C822882059F081E0881609F471C0DD2077
:1044400009F47BC0BB2009F471C0CBCF20919B0342
:1044500022FD43C0DD20D9F1CC2039F08091FA044F
:10446000C82AC092FA040E94DA1580E00E94781AE5
:10447000A92DA850BB0B149710F40E947D0DAA2003
:10448000A9F08091510380FD11C0F701128285953A
:10449000859585950E941A17C7010E94501E80912C
:1044A00051038595859585950E94C21620E0D70118
:1044B0004C9111965C91119712966C9112971396EC
:1044C0007C91139714968C910E94030F00CC80E08E
:1044D0000E94221ACC2061F296CFDD20A1F09091AB
:1044E0005A038C2D892BB11003C00E94181AC0CF1B
:1044F000A1E0BA12FACF22FFBBCF981709F4B8CFC8
:1045000080935A03B5CFB11006C00E947F0B8C2D4B
:104510000E94111AADCFB1E0BB1609F4A9CFF5CFB7
:10452000DD2031F0E5E0EB1508F4A2CF8C2DDDCFD6
:10453000F4E0FB1508F49CCFEACFBB2041F329E35C
:10454000821209C03FEF87EE93E0315080409040E7
:10455000E1F700C00000802F0E94221A89CF812F2E
:1045600086958695837061F0813009F081CFC8010E
:104570009370D11002C090E080E00E94C60778CF0F
:10458000C8019370D11002C090E080E00E94DC0767
:104590006FCF812F837089F5D1106ACF402F42955C
:1045A00046954770440F440F802F8F70042E01C032
:1045B000880F0A94EAF7202F207104FF07C02FE02C
:1045C00030E001C0220F4A95EAF72095169516951E
:1045D0001370123069F050F430915B03113029F000
:1045E000822B83230E94261743CF832B822BFACF63
:1045F000282B80915B038227F5CF8695DD2011F073
:10460000812F8170882309F433CF402F429546953E
:104610004770440F440F802F8F70042E01C0880F05
:104620000A94EAF7202F207104FF07C02FE030E042
:1046300001C0220F4A95EAF720951695169513703A
:10464000123069F050F430915705113029F0822B67
:1046500083230E94B1160CCF832B822BFACF282BF9
:10466000809157058227F5CF1F70DD2029F0812F1B
:104670000E941A17802F39CF802F0E94111A812F84
:104680000E94C216F5CE802FA2EF8A16B1F1A815AE
:1046900070F0B0EF8B16D1F0E1EF8E1691F0DD20C7
:1046A00009F45CC0B1109DCE812F8F712AC0F3EF49
:1046B0008F1651F124EF8212F2CF80919B0382FD7D
:1046C0002FC0812F8F71DD20D9F21BC0DD2081F03A
:1046D00034E03B1508F4CCCE1F7181E090E0012E50
:1046E00001C0880F0A94EAF7909157058927B1CF46
:1046F00085E08B1508F4BCCEEFCF812F8F71D110E0
:10470000BFCF0E941A17B4CE80E0DD2009F4A1CFFC
:104710001F7181E0012E01C0880F0A94EAF799CF3A
:10472000DD2089F01F71812F0E941A1780919B0351
:1047300082FF07C0A8E01A9FC00111248360809304
:104740005103812FDECF81E00E94CF16B1E0BB156F
:1047500008F08ECE82E00E94CF168ACEBB2059F0A0
:10476000893309F0F8CEEFEFF7EE23E0E150F040A7
:104770002040E1F7EECE812F8F7182CF0031BFE56F
:104780001B0709F40ACB0131EFE51E0709F40FCB33
:10479000023BADE51A0709F40CCB033BBDE51B0753
:1047A00009F40DCB013BEDE51E0731F4882321F020
:1047B0008FE791E00E94A31BC80197558F3F910599
:1047C00011F008F00DCB5801BB242EE0029FF00140
:1047D0001124CF01825C9E4F6C01D70112968C91FF
:1047E000ED5BFE4F908180FB90F99083882309F464
:1047F000EFCA0E94A0079093A9038093A803F60133
:1048000082818F5F82838091F9049091FA04892BD1
:10481000838380915A0384830680F781E02D30974B
:1048200031F0D6011C966D917C91C60109958EE000
:104830008A9DF0018B9DF00D1124E25CFE4F858175
:1048400081FFC3CA90E080E09093FB048093FC0456
:104850008091F804882309F45BCBC090FA04D090CF
:104860005A030E94A00788579C4E9093AB038093F5
:10487000AA03F7018281882309F44ACB8D2D8C2964
:104880008D7909F043CB0115F5E51F0708F01DCB25
:10489000011523E5120708F0CACA011530E5130710
:1048A00008F0C0CA011580E4180708F052CB063E94
:1048B000110509F4BCCAC80152CB0031FFE51F073E
:1048C00009F471CA01312FE5120709F061CF82E0C6
:1048D0006BCA21E012966C91129713967C911397F4
:1048E00014968C910E94030F8C01F701828188231A
:1048F000E1F08091FB049091FC040097B1F08017E7
:10490000910799F0BEE08B9FC0011124FC01ED5B83
:10491000FE4F208124602083825C9E4FFC01118326
:1049200000830E946B161092F904D70112968C91A5
:10493000882319F2980122513F452031310508F0B2
:104940001DCF8FEF93E00E942633811127C00251C3
:1049500057EFC52E52E0D52E0111BDC91C821B8216
:10496000BB24B3944AE0A42E86010F5F1F4FC601FB
:104970000E94263389831A82882381F09FEF980F43
:10498000933008F0B7C98A83B982F2E0CF0ED11C08
:10499000C8010E9426338B838111ADC980915103D8
:1049A000877009F494C9F7018281882309F48FC9BB
:1049B00080919B0382FF8BC982E00E94CF1687C93A
:1049C0000631FCE51F0709F451CC8091FA0482728C
:1049D000093C2CE5120709F46FCC08F051C0053CE6
:1049E0009CE5190709F463CCA0F5033CBCE51B0763
:1049F00009F451CC08F056CC023CFCE51F0709F045
:104A000084CC80914E05982F937021E092278C7F63
:104A1000892B80934E0510925C0180912B0481605C
:104A200080932B0480912A0480FFB8CF1F929F931C
:104A300081E791E09F938F9387EA91E09F938F9313
:104A40000E94DC050F900F900F900F900F900F9029
:104A5000A5CF44EE5FE062EF7FE0073C2CE5120754
:104A600009F41DCC4BE050E160E070E1083C3CE50E
:104A7000130708F414CC42EF5FE064EE7FE00FCC44
:104A80000D3C9CE5190709F41CCCB8F44AE75FE03B
:104A900066E87FE00B3CBCE51B0709F400CC46ED63
:104AA0005FE068EC7FE00C3CECE51E0708F4F7CB18
:104AB00046E85FE06AE77FE0F2CB063DFCE51F07D2
:104AC00040F461E082E00F3C2CE5120708F4FBCBD8
:104AD00065CF0D35100709F461CF17CC0A358DE588
:104AE000180709F45CCCD8F40130ACE51A0709F4D6
:104AF000EDCB0E3DBCE51B0709F4FACB01151C45B7
:104B000009F003CC0E942B179FEFA4E3BCE0915067
:104B1000A040B040E1F700C000000E940F0D0C352E
:104B2000FDE51F0709F4E8CB08F43BCC073A1D4527
:104B300009F4E0CBEACB1F93CF93DF9380911E0360
:104B4000807F09F049C080911B03882309F444C089
:104B500080915003D0911F036091190370911A0343
:104B6000A0911C03B0911D03C62FC72316E0D817D0
:104B700099F190E0109711F0CF3F19F401968770EA
:104B8000F6CF189F9001199F300D1124F901E05EB6
:104B9000FC4F41814713F2CF40814613EFCF428152
:104BA0004111ECCF438154814A1B5B0B483C5105BA
:104BB00028F780911E038F70806180931E03F90196
:104BC000EB5DFC4F80818F708061808389E193E091
:104BD0000E94501E0E948C0BDF91CF911F9108956F
:104BE000A1E1B0E0E6EFF5E20C9432328C0185E011
:104BF000F801DE011D9601900D928A95E1F7D8012A
:104C0000DC901196CC9011971296EC901297139617
:104C10008D909C9020E04091190350911A0360916F
:104C20001B0370911C0380911D030E94030FAC01B4
:104C300089E1A82E83E0B82E60911C0370911D03BA
:104C40006115710509F44CC19091190320911A0363
:104C5000892F82238F3F09F443C1F0901B03F40195
:104C6000E61BF70BFF2009F4F9C080911E03382FD3
:104C7000307FE83CF10508F0BDC0D80111964C9199
:104C80001197311178C0FE2C421315C02C912913B5
:104C900012C0E11010C08F70806180931E03C501A7
:104CA0000E94501E80911E03F80185838F2D61960E
:104CB000ECE00C944E328114910429F08D2D8C215E
:104CC0008F3F09F028C180E0F82FF170BF2E80FFE0
:104CD0003DC08091500320911F0336E0821316C01F
:104CE000DD86CE868D859E850E94CC0E292F22954D
:104CF0002F702230F8F0243020F59F70F9F0D801A1
:104D000015969C91907FD1F4B12C1EC090E0389FF5
:104D1000F001399FF00D1124E05EFC4F4181C41277
:104D200006C04081D41203C04281E4120FC0019634
:104D30008770D4CF9F7011F0882331F3805E883064
:104D400018F3C8010E94501EFB2CB0CFEE2009F4CE
:104D5000ADCF80911E03816080931E0389E193E0B3
:104D60000E94501E86E0E9E1F3E0DF011D928A9582
:104D7000E9F7F12C9BCF421313C0F80120812913CE
:104D80000FC0E1100DC08583C8010E94501E86E04F
:104D9000F801A9E1B3E001900D928A95E1F786CF81
:104DA000C8010E94D90E882309F1EE20F9F0809104
:104DB0001E03803270F02091190330911A03388756
:104DC0002F8319869B868A868C87CE0107960E9440
:104DD000501E86E0F801A9E1B3E001900D928A959A
:104DE000E1F70E949B25FF24F39460CFC8010E9445
:104DF000501EF9CF311107C089E193E00E94501E87
:104E000086E0D501B3CFF801318132130FC0208184
:104E100029130CC0E1100AC08583C8010E94501EEE
:104E200086E0D5011D928A95E9F740CFC8010E941E
:104E3000D90E8823D9F2EE20C9F280911E03803268
:104E400040F22091190330911A033A8329831B827F
:104E50009D828C828E83CE010196B9CFE83CF1050C
:104E6000C8F5FE2CEE2011F2F8018181821324C0D6
:104E70008081891321C04C32F1E45F0709F487CFA8
:104E80004A32524609F483CF90911E0390FD7FCFA2
:104E9000907F09F47CCF80911E03D80115968C93E6
:104EA0001597903F09F470CF982F907F905F8F7087
:104EB000892B15968C9368CFC8010E94D90E811159
:104EC00088CF80911E03816080931E03C8010E94D9
:104ED000501EECCE86E0F50111928A95E9F7E6CEF8
:104EE000EE2009F483CFC8010E94D90EF82E882342
:104EF00009F47CCF86E0F801A9E1B3E001900D92BE
:104F00008A95E1F78091190390911A030E94CC0EC3
:104F10000E949B25CBCE81E08E25D6CEA7E1B0E0C6
:104F2000E4E9F7E20C943B324B8B5C8B6D8B7E8B10
:104F30008F8B61111092F9041A8A198A85E0FE019B
:104F40007396DE011D9601900D928A95E1F786E039
:104F5000FE013D96DE01179601900D928A95E1F7CC
:104F6000CE0107960E94F025882359F016E0809123
:104F7000500390911F03891343C06796E3E00C949C
:104F8000573286E0FE013796DE01119601900D92B0
:104F90008A95E1F78A859B85892B41F38F819885D6
:104FA00089238F3F19F320911F0330E0C901019637
:104FB00087709927409150034817190671F40E9491
:104FC0002B1710921F031092500386E0E9E1F3E0E3
:104FD000DF011D928A95E9F7C9CF96E0929FD00133
:104FE000939FB00D1124A05EBC4FFE01319601903D
:104FF0000D929A95E1F780931F030E948C0BB6CF18
:10500000819FC0011124805E9C4F0E94F02588235F
:1050100009F4B3CF8091500390E0019687709927EF
:1050200080935003A4CF1F920F920FB60F921124BA
:105030002F933F934F935F936F937F938F939F93A0
:10504000AF93BF93CF93DF93EF93FF93D091E9009A
:10505000DF708091EC00C82FC17080FDC0E8109215
:10506000E9008091F000877F8093F00078940E949F
:1050700037171092E9008091F00088608093F0006B
:10508000CD2BCF70C093E900FF91EF91DF91CF91CD
:10509000BF91AF919F918F917F916F915F914F9150
:1050A0003F912F910F900FBE0F901F9018951F9258
:1050B0000F920FB60F9211242F933F934F935F934C
:1050C0006F937F938F939F93AF93BF93EF93FF93D0
:1050D0008091E10082FF15C08091E20082FF11C043
:1050E0008091E1008B7F8093E10020910D052F5F7F
:1050F000822F62E30E946332992309F4C0C0209397
:105100000D058091DA0080FF28C08091D80080FFD3
:1051100024C08091DA008E7F8093DA008091D900DC
:1051200080FFE3C080E189BD82E189BD09B400FE52
:10513000FDCF81E080931B0586E399E00E94430543
:1051400080910E05811109C00E94FC050E94C706CE
:105150008091E20084608093E2008091E10080FF12
:105160001BC08091E20080FF17C08091E2008E7F1B
:105170008093E2008091E20080618093E200809160
:10518000D80080628093D80019BC85E080931B050D
:105190008EE399E00E9443058091E10084FF2FC0D7
:1051A0008091E20084FF2BC080E189BD82E189BD4E
:1051B00089B5982F917080FFFBCF8091D8008F7DAB
:1051C0008093D8008091E1008F7E8093E1008091F0
:1051D000E2008F7E8093E2008091E2008160809304
:1051E000E20080911C05882309F489C084E0809343
:1051F0001B0582E499E00E94430580911B05809184
:10520000E10083FF2BC08091E20083FF27C08091E3
:10521000E100877F8093E10082E080931B0510927C
:105220001C058091E1008E7F8093E1008091E20077
:105230008E7F8093E2008091E20080618093E200A3
:1052400042E060E080E00E9495068091F000886076
:105250008093F00086E499E00E944305FF91EF916E
:10526000BF91AF919F918F917F916F915F914F917E
:105270003F912F910F900FBE0F901F901895109295
:105280000D0580910C05882309F43BCF80911B0507
:105290008430C1F49091E9009F702091EC00822F3E
:1052A000817020FD80E8892B95E09093E900909132
:1052B000EB0090FF04C09091EE0097FD08C08F7046
:1052C0008093E90010920C051CCF1092F100909190
:1052D000E80095FDFACF9091E80090FFF0CF909113
:1052E000E8009E779093E800EACF19BC10921B0566
:1052F0008AE399E00E94430510920E052ECF80911B
:10530000E30087FD93E090931B0573CF78941F9281
:105310001FB61F9211248F939F93AF93BF938091D9
:10532000040590910505A0910605B0910705019629
:10533000A11DB11D8093040590930505A09306055A
:10534000B0930705BF91AF919F918F911F901FBEA2
:105350001F9018951F921FB61F9211248F939F9331
:10536000AF93BF9380910305811113C08091040511
:1053700090910505A0910605B09107054196A11DE4
:10538000B11D8093040590930505A0930605B09385
:105390000705BF91AF919F918F911F901FBE1F90E6
:1053A0001895CDB7DEB7E6970FB6F894DEBF0FBEFF
:1053B000CDBF85B7806885BF85B7806885BF84B756
:1053C000877F84BF0FB6F894A895809160008861AC
:1053D00080936000109260000FBE80E890E00FB6EE
:1053E000F89480936100909361000FBE8CE49CE080
:1053F0009093F7028093F6020E94FC050E94C70674
:105400008091E20084608093E200789480911B0593
:105410008823A1F01091E9001F709091EC00892F72
:10542000817090FD80E8182B1092E9008091E800CF
:1054300083FD0E9437171F701093E90082E084BD3E
:1054400093E095BD9AEF97BD80936E0010928A030A
:1054500010928B0310928C0310928D030E94260FE2
:10546000811102C00E94500E55985D988FE891E01E
:105470000197F1F700C000000E94EC088093310111
:105480000E945A0D81110E94CA3080913101811110
:105490002CC085E0E4E6F1E0DE01919601900D92EA
:1054A0008A95E1F789A180932C018AA180932D012F
:1054B0008BA180932E018CA180932F018DA18093CD
:1054C000300186E0E9E6F1E0DE01119601900D92EF
:1054D0008A95E1F7FE013196A6E2B1E0CE0107968A
:1054E00021912D93E817F907D9F78091310195E0C3
:1054F000811190E09093990385E0891B8093980334
:105500000CE211E0D8018D918D018F3F11F00E94C6
:10551000A509B1E001331B07A9F706E211E0F80184
:1055200081918F018F3F11F00E94A509F1E00C32AB
:105530001F07A9F78AE0EDEAF3E0DF01282F1D92AB
:105540002A95E9F7EEE8F3E0DF011D928A95E9F785
:105550000E94D91D811102C00E94E51D82E090E0E9
:105560000E94263380932A040E943F0F90939B034E
:1055700080939A030E943614EFE3FCE93197F1F728
:1055800000C000000E9436148091AD0380FF08C067
:105590006FEF7FEF90E080E00E9462330E940F0D7A
:1055A00083E090E00E9426330E9426171092250582
:1055B0008FEF9FEF90933F0580933E0590934105B9
:1055C0008093400590934305809342059093450551
:1055D0008093440590934705809346059093490531
:1055E0008093480590934B0580934A0590934D0511
:1055F00080934C051092F803909312048093110449
:1056000090931404809313049093160480931504CC
:10561000909318048093170490931A0480931904AC
:1056200090931C0480931B0490931E0480931D048C
:105630009093200480931F040E94D91D811110C0F3
:1056400080912A0480FF08C080ED93E09F938F93A0
:105650000E94DC050F900F900E94E51D0E946410CF
:1056600046E050E06CE170E08EE495E00E94163375
:1056700010922B0480914E058C7F71F480912A0446
:1056800080FF08C08BE793E09F938F930E94DC0517
:105690000F900F900E94641080912A0480FF89C0AF
:1056A00081E693E09F938F930E94DC0580912A040A
:1056B0000F900F9080FF7DC080914E0583701F92E8
:1056C0008F9382E493E09F938F930E94DC058091F7
:1056D0002A040F900F900F900F9080FF6AC0809166
:1056E0004E05869586951F928F9385E293E09F9352
:1056F0008F930E94DC0580912A040F900F900F90E9
:105700000F9080FF56C080914F051F928F9387E0C6
:1057100093E09F938F930E94DC0580912A040F9061
:105720000F900F900F9080FF44C0809150051F9202
:105730008F9389EE92E09F938F930E94DC05809176
:105740002A040F900F900F900F9080FF32C080912D
:1057500051051F928F938BEC92E09F938F930E9441
:10576000DC0580912A040F900F900F900F9080FF1E
:1057700020C0809152051F928F938DEA92E09F93F3
:105780008F930E94DC0580912A040F900F900F9058
:105790000F9080FF0EC0809153051F928F938FE86A
:1057A00092E09F938F930E94DC050F900F900F90D3
:1057B0000F900E945A0D811102C00E94CD3082E3E9
:1057C00091E0909300058093FF048DEA93E0FAE066
:1057D000F80FFEAB80911B058530A9F482E094E0C0
:1057E0000E94430520E4F22EEE24E39400E112E14E
:1057F00080911B05853009F4A8C00E942B170E94D8
:105800007D0D109229040E9436144EE953E05CA7E6
:105810004BA78DEA93E09EA78DA728EA33E0DC0131
:10582000FA0191918D912E173F0709F4D3C0981773
:10583000C1F380912A0481FD78C10E945A0D782E0F
:10584000ADEAB3E0B8ABAFA7F12C312C212CAFA55A
:10585000B8A9BD90B8ABAFA7EBA5FCA58191FCA7FB
:10586000EBA78B1509F401C28B2589AB6101E12CF3
:10587000AA24A39489A98A2109F4EBC14A2C4B20BC
:10588000772099F0EEA2FFA281E0411001C080E0F4
:1058900088A70E94A0078160782F9AA789A74EA1A8
:1058A0005FA168A58AA50E948E27442039F0F601E1
:1058B000E251FE4F80818F3F09F06DC1512C052DC3
:1058C00010E08091F803800F912F911D09976CF1E2
:1058D000F8E08F2E912C801A910AB80167507C4F06
:1058E000A40189EF93E00E940D33B8016F5F7B4FF5
:1058F000A40181E094E00E940D33A401440F551FE0
:10590000B801660F771F6F5E7B4F81E194E00E94C4
:105910000D33B801675F7B4FA40189E094E00E94DA
:105920000D3388E085198093F8038091F80390E0A7
:10593000A62DB0E09D01220F331F265D3D4FAA0F1B
:10594000BB1FBD01655D7D4F3EC180911B0584304D
:1059500009F430C00E94901380912904811105C080
:105960000E94CF1080E00E94F807E0922904109274
:10597000030528E130E00FB6F894A8952093600065
:105980000FBEF092600083B7817F846083BF83B7CE
:10599000816083BF7894889583B78E7F83BF0FB66D
:1059A000F894A895809160008861809360001092BF
:1059B00060000FBE80911A05882309F419CF0E9458
:1059C0003614EDEAF3E0819181116DC33EA93E13D7
:1059D000FACF0ECF98132DCF0E94A0078C01809193
:1059E0009C0390919D0308171907A1F08FEF89A3DD
:1059F0008AA31BA20E94A0078160782F9DA38CA37D
:105A000049A15AA16BA18DA10E948E2710939D03DD
:105A100000939C030E945A0D882379F10091FB04A6
:105A20001091FC0401151105B9F08091A803909123
:105A3000A9030E948507893C910570F0AEE00A9F9A
:105A4000C0011124FC01ED5BFE4F208122FD04C04A
:105A5000825C9E4F0E946B168091F804882369F047
:105A60000E94A0072091AA033091AB03821B930BE5
:105A70008F3F9F4710F40E9496160E9490130E9439
:105A80007D0D182F8091AC03181731F11093AC03E2
:105A90000E94940780912A0482FF1EC080FF1CC0D0
:105AA0008BE294E00E94430580912A0480FF14C099
:105AB0001F921F9386E294E09F938F930E94DC05D0
:105AC00080912A040F900F900F900F9080FF04C0D8
:105AD00084E294E00E94430580911B05843009F024
