:100000000C9440050C94F7310C9478050C94780509
:100010000C9478050C9478050C9478050C9478056C
:100020000C9478050C9478050C943A290C94F628D5
:100030000C948D2A0C9478050C9478050C94780512
:100040000C9478050C9478050C9478050C9478053C
:100050000C9478050C94692A0C9478050C94780516
:100060000C9478050C9478050C9478050C9478051C
:100070000C9478050C9478050C9478050C9478050C
:100080000C9478050C9478050C9478050C947805FC
:100090000C9478050C9478050C9478050C947805EC
:1000A0000C9478050C9478050C9478050631FF09BA
:1000B00074A1010975150026FF00952075088102BD
:1000C0000976150026FF00952075089102C00501EC
:1000D0000980A101850319012AB700150126B7007F
:1000E000950175108100C0050C0901A10185041955
:1000F000012AA002150126A002950175108100C0F9
:100100000660FF0961A1010962150026FF00952024
:10011000750881020963150026FF00952075089176
:1001200002C005010906A101050719E029E715002C
:100130002501950875018102950175088101050762
:10014000190029FF150026FF009506750881000596
:10015000081901290595057501910295017503910D
:1001600001C053797374656D2E6F75742E7072694A
:100170006E746C6E282222293B010150010150014E
:1001800001500053797374656D2E6F75742E707203
:10019000696E74282222293B01015001015001019E
:1001A00050007075626C69632073746174696320B8
:1001B000766F6964206D61696E28537472696E6729
:1001C0005B5D206172677329207B7D010150010115
:1001D0002801012801012801015200010143010405
:1001E00032337C0101110053797374656D2E6F7584
:1001F000742E7072696E74282222293B010150010D
:1002000001500101500054657374696E6720312CF0
:1002100020322C20332E2E2E20202054657374691A
:100220006E6720312C20322C20332E2E2E00726748
:1002300062206D617472697820746F67676C6520E5
:100240005B25735D3A207267625F6D6174726978D5
:100250005F636F6E6669672E656E61626C65203DD7
:100260002025750A0044454255473A206469736168
:10027000626C65642E0A0044454255473A20656E1B
:1002800061626C65642E0A004F6E6573686F743A24
:10029000206163746976653A2025640A000A0025A6
:1002A00030325820006B6579626F6172645F7265ED
:1002B000706F72743A200054617267657420636FC6
:1002C0006E6E65637465640D0A00546172676574CF
:1002D00020646973636F6E6E65637465642C20744B
:1002E00068726F74746C696E6720636F6E6E65639D
:1002F00074696F6E20617474656D7074730D0A009B
:100300004661696C656420746F20657865637574F7
:10031000652025730A007267625F6D617472697887
:100320005F636F6E6669672E666C616773203D2040
:1003300025640A007267625F6D61747269785F6339
:100340006F6E6669672E7370656564203D20256455
:100350000A007267625F6D61747269785F636F6EC5
:100360006669672E6873762E76203D2025640A0024
:100370007267625F6D61747269785F636F6E6669E0
:10038000672E6873762E73203D2025640A007267FD
:10039000625F6D61747269785F636F6E6669672E04
:1003A0006873762E68203D2025640A007267625FBC
:1003B0006D61747269785F636F6E6669672E6D6FC9
:1003C0006465203D2025640A007267625F6D617478
:1003D0007269785F636F6E6669672E656E61626CC5
:1003E00065203D2025640A007267625F6D6174724A
:1003F00069785F636F6E66696720454550524F4D5F
:100400000A007267625F6D61747269785F696E6914
:10041000745F64726976657273207267625F6D6182
:10042000747269785F636F6E6669672E6D6F64655D
:10043000203D20302E205772697465206465666106
:10044000756C742076616C75657320746F204545FA
:1004500050524F4D2E0A007267625F6D617472696F
:10046000785F696E69745F6472697665727320651E
:1004700065636F6E666967206973206E6F742065AF
:100480006E61626C65642E0A005B735D000A002574
:10049000303862003A200025303258000A722F634B
:1004A0002030313233343536370A000A00253032F5
:1004B00058006C65645F7461736B3A200000010141
:1004C0000101010101010102020202020202020213
:1004D00003030303030303030404040404040405E3
:1004E00005050505060606060607070707070808A7
:1004F0000808090909090A0A0A0B0B0B0C0C0C0D58
:100500000D0D0E0E0E0F0F0F1010111111121213F0
:10051000131414151516161717181819191A1A1B6B
:100520001B1C1D1D1E1E1F202021222223242425CA
:100530002626272829292A2B2C2D2D2E2F30313203
:1005400032333435363738393A3B3C3D3E3F404113
:1005500042434445464748494A4C4D4E4F505153FB
:1005600054555658595A5B5D5E5F616264656668B2
:10057000696B6C6D6F7072737577787A7B7D7E8036
:1005800082838587888A8C8E8F91939596989A9C82
:100590009EA0A2A3A5A7A9ABADAFB1B3B5B7BABC96
:1005A000BEC0C2C4C6C9CBCDCFD1D4D6D8DBDDDF67
:1005B000E2E4E7E9EBEEF0F3F5F8FAFDFF656563D9
:1005C0006F6E6669675F7570646174655F7267629C
:1005D0005F6D61747269785F64656661756C740AD9
:1005E00000726762206D6174726978206D6F646556
:1005F000205B25735D3A2025750A00726762206DC5
:1006000061747269782073657420687376205B2545
:10061000735D3A2025752C25752C25750A007267A7
:1006200062206D61747269782073657420737065DF
:100630006564205B25735D3A2025750A0000000083
:1006400000000000000000000000000000000000AA
:10065000000000000000000000000000000000009A
:10066000007E0F00D4FFFFFFC700000078000000ED
:1006700000000000002A2B280000000000000000FD
:10068000000000000000000029000000002C1E34C3
:1006900020212224342627252E362D3738271E1FC9
:1006A000202122232425263333362E37381F0405F4
:1006B000060708090A0B0C0D0E0F10111213141562
:1006C000161718191A1B1C1D2F3130232D35040540
:1006D000060708090A0B0C0D0E0F10111213141542
:1006E000161718191A1B1C1D2F3130354C29001EE6
:1006F000001F002000210022002E0014001A000913
:1007000000130005002D0004001500160017000A54
:10071000002F001D001B000600070019000000004C
:1007200000E200E0002A622B410057270026002546
:100730000024002300350033001C0018000F000DBA
:1007400000340012000C00080011001000300038C6
:1007500000370036000B000E000000000001572893
:10076000422C414C7245003A003B003C003D003EAB
:10077000002E0246004B005200490028002D0226A0
:1007800002500051004F0027022F021E024E004A65
:10079000004D002402000000000100010001002AB9
:1007A00000010043004200410040003F0035022E9E
:1007B00000610060005F003100340233025E005DC2
:1007C000005C002502300238025B005A00590031FB
:1007D0000200000000620001002C00010045023A06
:1007E000023B023C023D023E02C55CC45CBC00A967
:1007F00000BB00C35CC65CC95CAD00AA00AE00CB08
:100800005C005CCA5CAC00A800AB00CC5C000000E3
:100810000001000100010001000100430242024109
:100820000240023F02125FBE5DBA5DB95DB85DBBBA
:100830005D135FBF5DB75DB65DB55DBC5DB15DC0AD
:100840005DB45DB35DB25DBD5D00000000015301AC
:1008500000C25C0100010001000100010001000173
:100860000001000100010001000100010001000180
:100870000001000100010001000100010001000170
:100880000001000100000000000100010001000162
:100890000001000100010001000100010001000150
:1008A0000001000100010001000100010001000140
:1008B0000001000100010001000100010001000130
:1008C0000000000000010001000100010029001EDD
:1008D000001F002000210022002B0014001A000835
:1008E0000015001700E00004001600070009000AC8
:1008F00000E1001D001B00060019000500000000BB
:1009000000E300105F01004A0001002700260025D7
:1009100000240023004C00130012000C0018001CDF
:1009200000340033000F000E000D000B00E500380E
:1009300000370036001000110000000000015701D0
:10094000002C414D0029001E001F00200021002224
:10095000002B0014001A00080015001700E0000426
:10096000001600070009000A00E1001D001B000638
:10097000001900050000000000E300105F2A624A31
:10098000000100270026002500240023004C00134E
:100990000012000C0018001C00340033000F000E81
:1009A000000D000B00E50038003700360010001184
:1009B0000000000000015701002C414D005B435D29
:1009C000005B445D005B535D005B575D005B525D07
:1009D0000009027B00040100A0FA090400000103E1
:1009E00001010009211101000122400007058103D6
:1009F000080001090401000203000000092111019F
:100A000000012222000705820320000107050303DD
:100A10002000010904020001030000000921110166
:100A200000012232000705840320000109040300AD
:100A30000203000000092111010001222200070524
:100A400085032000010705050320000112010002B3
:100A50000000000810CB56631006010200010C03D1
:100A60005600690072006900730000000E034B001D
:100A700065006500620069006F000000040309045E
:100A800011241FBECFEFDAE0DEBFCDBF04B603FEF8
:100A900018C08091580590915905A0915A05B091C0
:100AA0005B058730904BA740B04B59F41092580526
:100AB0001092590510925A0510925B05E0E0F8E398
:100AC000099525E0A6EFB2E001C01D92A835B20756
:100AD000E1F712E0A0E0B1E0EAECF9E602C005902F
:100AE0000D92A63FB107D9F70E94B42A0C94B234F4
:100AF0000C940000FF93EF93E091F602F091F7025F
:100B0000309709F00995EF91FF910895FC018591C7
:100B1000803011F0EFDFFBCF0895FF27E0E230E2F5
:100B200047FF0CC0419597FF09C0EDE260957095B5
:100B300080959095611D711D811D911D27FF02C03B
:100B4000219530E350E2AA27660F771F881F991F6F
:100B5000AA1FA41710F0A41B63955A95A9F7AA30F1
:100B600008F0A95FA05DAF93F3956115710581054C
:100B7000910541F7ED3211F4EF93F395F21718F464
:100B80003F93F395FBCF8F91B5DFFA95E1F7089589
:100B9000E991F9918591803021F0853219F0AADF31
:100BA000F9CF089520E0E89455915532C1F35033C0
:100BB00011F4689455915A3348F4505390F3220F2E
:100BC000022E220F220F200D250FF4CF0EF42195B7
:100BD00089919991533619F3533729F1533559F1C6
:100BE000BC0188279927E8945C3621F48991999172
:100BF00068945591543639F446EF7EF077FF0DC076
:100C00008FEF9FEF0AC055374AE039F0583540E181
:100C100021F0523642E009F00895FF93EF937DDF13
:100C2000EF91FF91B7CFFF93EF93FC01819180305B
:100C3000B9F360DFFBCFFF93EF9368DFF1CFDF9372
:100C4000CF93CDB7DEB72596A3DFCF91DF9108957F
:100C5000823027E5920770F4811527E5920780F42A
:100C60008C3221E4920779F08832924479F08FEA4D
:100C700090E008958A329246D1F788E790E008958F
:100C80008CE291E0089586E990E0089588EC90E088
:100C90000895FC01AC014B5F5F4F8FEF91E3219111
:100CA000822728E030E087FF09C0880F892721507C
:100CB0003109C9F7E417F50791F70895880FF7CFC1
:100CC000E8EDF0E080818E7F80831092E200109248
:100CD000DA001092E100A0EEB0E08C9181608C937C
:100CE00080818F77808319BCA7EDB0E08C918E7FD7
:100CF0008C9380818F7E80831092110508952091BE
:100D0000E4003091E50095E6A9012091EC00822FE6
:100D1000817020FF06C08091E80080FF06C080E05F
:100D200008952091E80022FD1AC080911E058823B5
:100D300089F0853089F08091EB0085FD0FC020910E
:100D4000E4003091E50042175307F9F29150E1F6C3
:100D500084E0089582E0089583E0089581E0089595
:100D6000EF92FF920F931F93CF937C018B010E9410
:100D70007F06C82F811117C08091E80085FD0BC048
:100D80008091E8008E778093E8000E947F06882398
:100D900099F3C82F08C0F70181917F018093F1007A
:100DA0000150110949F78C2FCF911F910F91FF909E
:100DB000EF9008958091200587FF13C08091E8008F
:100DC00082FF06C08091E8008B778093E80004C022
:100DD00080911E058111F2CF089580911E05882310
:100DE000D9F38091E80080FFF8CF8091E8008E77FA
:100DF000ECCF982F9093E900242F762F50E089179D
:100E000031F07091EC002091ED005091F00021FD47
:100E100007C09F5F973071F78093E90081E00895E4
:100E20003091EB003E7F3093EB003091ED003D7F41
:100E30003093ED003091EB0031603093EB00709314
:100E4000EC002093ED005093F0002091EE0027FD80
:100E5000E0CF80E00895B0E0A0E0E1E3F7E00C949B
:100E60001D33C8EDD0E088818F7E8883E7EDF0E008
:100E700080818160808384E082BF81E0809311055E
:100E800088818E7F888302EE10E0F8011082109234
:100E9000DA0081EEC82ED12CF601108288818F777E
:100EA000888388818068888388818F7D888319BC46
:100EB00010921E0510921F0510921D0510921C0520
:100EC00090EEE92EF12CF70180818B7F8083888161
:100ED0008160888342E060E080E00E94F906F601CC
:100EE00080818E7F8083F801808181608083808112
:100EF00088608083F70180818E7F80838881806114
:100F00008883CDB7DEB7E8E00C943933FC018091DB
:100F100026059091270586179707A0F061157105A2
:100F200029F49091E8009E779093E80090E0611595
:100F3000710551F4911108C08091E80082FF34C01E
:100F400080E00895BC01F2CF80911E058823C1F195
:100F50008530C1F18091E80083FD30C08091E800C8
:100F600082FDEACF8091E80080FFE1CF8091F3001D
:100F70002091F200382F6115710519F028303105E4
:100F800058F091E02830310509F090E02091E80018
:100F90002E772093E800CBCF81918093F1006150B0
:100FA00071092F5F3F4FE7CF80911E05882341F0E5
:100FB000853041F08091E80083FFBECF81E0089545
:100FC00082E0089583E008950895089580911305BF
:100FD00008959C014FB7F8948091070590910805FA
:100FE000A0910905B0910A054FBF821B930B08958C
:100FF0002FB7F89460910705709108058091090555
:1010000090910A052FBF08952FB7F8948091070596
:1010100090910805A0910905B0910A052FBF089588
:101020009C01FC0132969FEF80E04191461751F000
:101030009F3F19F4411101C0982F8F5F8630A9F7A7
:101040009F3F09F40895290F311D97FD3A95F90145
:10105000628308952091040530910505281739070A
:1010600071F09093050580930405E0910205F091DD
:101070000305309721F00084F185E02D099508954E
:1010800020910005309101052817390771F09093E0
:10109000010580930005E0910205F091030530976A
:1010A00021F00680F781E02D09950895FA0181115C
:1010B00001C0FB010995089580935B018091510562
:1010C000837080935A010E94B60D83E080935C0187
:1010D000089522E8241B08F420E0620F089540954B
:1010E000282F429F412D1124842F08950E945509D5
:1010F0000895FF920F931F93CF93DF93182F062F1E
:10110000F42ED0E0C0E02F2D402F612FCE010E94A1
:1011100076082196C434D105B1F7CDB7DEB7E5E046
:101120000C943C33E42FF0E0EE0FFF1FE65DFD4F23
:10113000408134EE439F412D1124E82FF0E050E030
:10114000445E5F4FDA01A21BB1099D01B7FF03C0E6
:1011500031952195310993E0220F331F9A95E1F7DC
:10116000AF01421B530B9A0157FD20E0582F259FDA
:10117000212D1124822F0895AF92BF92CF92DF923A
:10118000FF920F931F93CF93DF93362F472FE82FB4
:10119000F0E0E354FB4F71110FC0E4918E2F2E2F1E
:1011A0006E2F722FDF91CF911F910F91FF90DF90E3
:1011B000CF90BF90AF900895C72FD0E02491F22E2A
:1011C000022F10E056E0659FC0011124EFEFF0E020
:1011D000BF010E945633832F90E0880F991F35E599
:1011E000369FD001379FB00D11248A1B9B0B982F7F
:1011F000990F980F6F01CC1ADD0AC09ED001C19ED5
:10120000B00DD09EB00D11248B2F499FA001112449
:10121000452F55276F01C41AD50AC09EA001C19E53
:10122000500DD09E500D11245F01A91AB108AC9E3B
:101230006001AD9ED00CBC9ED00C1124CD2CDD24C1
:10124000EC19FD09E09FE001E19FD00DF09FD00D6A
:101250001124ED2F62307105A1F050F46115710574
:1012600009F49ECF6130710581F0EB2F852F98CF67
:101270006430710569F080F06630710509F490CF33
:10128000F4CFE22F2B2F8D2F8BCFE22F252F88CF5E
:10129000EB2F822F2D2F84CF2B2F8F2DE52F80CF5B
:1012A00089B185FB882780F90895FF920F931F93DA
:1012B000CF93DF93EC01F62E042F122F0E945009DA
:1012C00081110FC0C232D1057CF0A297FE01EE0F52
:1012D000FF1FEC0FFD1FE65DFB4FF18200831283C1
:1012E00003C0C232D10594F3CDB7DEB7E5E00C946C
:1012F0003C33CF93C82F0E945009882329F081E006
:10130000C23228F080E003C081E0C434D8F7CF9126
:101310000895B0E0A0E0EFE8F9E00C941B337C0105
:10132000C0915E018EE0C89FC02D11241EE01C0FED
:10133000153408F014E40E945009882319F0133280
:1013400008F012E20E945009811103C0C23208F471
:10135000C2E22091550531E0230F08F42FEF30E071
:1013600050E040E06FEF7FEF80E090E00E944F346C
:101370006901D0E001E0B12CA12C2C2FC11740F065
:10138000812F0E947909CDB7DEB7EAE00C9437339C
:10139000FE01EE54FD4F808190915F01892329F178
:1013A000809128058150082E000C990B87FF1FC0E3
:1013B000B60130915505300F08F43FEFA501639F4A
:1013C000412D739F400D511D112460915205709164
:1013D000530580915405F70109950E94BC08462FDA
:1013E000282F672FCE010E9476082196C6CFFC01D8
:1013F000E85DFA4F318932130AC0FC01EE0FFF1F7E
:10140000E85DFA4F618D728D6C157D0590F2019744
:10141000CDCFF894E82FE295EF70F0E031A1282FBE
:101420002F7081E090E001C0880F2A95EAF7982F8D
:101430009095932391A392A1892B82A378940895E8
:1014400090919A0392FF06C0282F28712830F9F452
:10145000877F846093FF06C0282F28712831F1F41C
:10146000877E846120919B0320FF06C0382F38714E
:101470003830D9F4877F816021FF06C0282F28717A
:101480002831D1F4877E816194FD877E0895282FCD
:1014900024712430F9F68B7F8860DCCF282F2471EB
:1014A000243101F78B7E8861DDCF382F31713130E7
:1014B00019F78E7F8860E0CF282F2171213121F725
:1014C0008E7E8861E1CFCF93DF93EC018238910566
:1014D000B1F108F040C08133910509F49DC048F591
:1014E0008932910509F48DC08A9709F49CC0C11511
:1014F00022E5D20708F0BDC0C11531E5D30708F0D9
:1015000024C1C83ED10508F0A3C0C13ED10588F56D
:10151000C83AD10508F08EC0C53AD10508F0F6C02A
:10152000C130D10531F1209721F1C430D10508F542
:1015300045C08533910509F45FC0C997C1F6809114
:101540009A03837009F036C180919B0383FF11C019
:10155000C9E2D0E00EC0833E910599F170F4803E5F
:10156000910501F1823E910511F680919A0382FD69
:1015700021C0CE01DF91CF910895863E910561F1A2
:10158000873E910571F1843E910509F0B0CF8091BD
:101590009B0381FFEECF80919A03C7EED0E084FDDC
:1015A0000DC0E7CF80919A0380FD33C090919B03DB
:1015B00090FFDFCFC3EED0E084FFDBCFD0E0C0E010
:1015C000D8CF80919A0382FDF2C090919B0390FD49
:1015D000F1C084FFCECFF2CF80919A0383FDDDCF9F
:1015E000C8CF80919A0383FDE8C090919B0391FF3F
:1015F000F0CFC4EED0E0BDCF80919A0385FFB9CF84
:10160000A7CF80919A0385FDDBC080919B0383FF68
:10161000B0CFC9E3D0E0ADCF80919A0386FFA9CFC8
:10162000CAE2D0E0A6CF80919A0386FFA2CFC1E3A1
:10163000D0E09FCFCF3BD10508F6C85AD0E0CC0F01
:10164000DD1FC256DE4F0990D881C02DD46491CFE2
:10165000C11540E5D40708F064C0C11580E4D8077F
:1016600008F05CC0CE019A9581159F4108F481CFA6
:10167000A5CFC11536E5D30718F5C11545E5D40743
:1016800008F07CC0C11584E5D80708F072C09E013F
:10169000237033279C2F96959695C115D34508F452
:1016A00059C0C1E0D0E002C0CC0FDD1F2A95E2F79F
:1016B00030E2939FC0011124C82BD92BDA6859CF8F
:1016C000C1158AE5D80778F4C11529E5D20708F0D5
:1016D00060C0C11538E5D30708F470CFDC2FCC27E4
:1016E000C06FD06A46CFCE0190568115904208F067
:1016F00065CF8D2F8F710E94200A90E0982F882748
:1017000088279F719C012C2BE90141C0C55AD0E06C
:10171000C556DE4FC881D0E0D0642BCFDF70D06AD1
:1017200028CFCE018370992721E030E002C0220F3C
:10173000331F8A95E2F7C695C69580E2C89FE001FF
:101740001124C22BD32BDD6814CFDC2FCC27C16F23
:10175000D06A0FCFC1E0D0E002C0CC0FDD1F2A95C8
:10176000E2F720E2929FC0011124C82BD92BDC683C
:1017700000CFDC2FCC27C46FD06AFBCE8C2F0E9409
:10178000200AC82FD0E0DC2FCC27CC27DF71D06215
:10179000F0CE8C2F8F700E94200A34E0D695C7952A
:1017A0003A95E1F7CF709C2FEC01D069E2CEC2EE02
:1017B000D0E0DFCEC0EED0E0DCCEC6EED0E0D9CEB9
:1017C000C5E3D0E0D6CE80915A03811110925A031E
:1017D00008958091F80481110FC01092FD040E94B9
:1017E000E30B0E94040888579C4E9093F704809363
:1017F000F60481E08093F804089580959091FD04AB
:1018000098239093FD040895452B39F0682381E0D7
:101810006F3F09F080E08170089581E0FCCF8091F6
:10182000500390911F03981301C008958F5F877034
:10183000FACF292F9A3078F5863068F590E036E0B7
:10184000239F800D911D1124682F677023E09695CA
:1018500087952A95E1F7FC01EE0FFF1FE80FF91FAE
:10186000EF5FFC4F50E040E080E0219130E0062E39
:1018700002C0369527950A94E2F721703327042E8B
:1018800001C0220F0A94EAF7822B4F5F5F4F43306B
:10189000510559F7089580E00895292F9A3098F559
:1018A000863088F590E036E0239F800D911D11244D
:1018B000282F277041E001C0440F2A95EAF723E062
:1018C000969587952A95E1F7FC01EE0FFF1FE80F2B
:1018D000F91FEF5FFC4F30E020E070E05191DF0135
:1018E0001197CB01022E02C0969587950A94E2F7D4
:1018F000817081958527842385278C932F5F3F4FA7
:101900002330310559F70895829590E09C01220F0C
:10191000331F220F331F2C7C9595879595958795BE
:101920008373282B30E0C901880F991F8A7A359577
:1019300027952575822B0895FC019281913049F4F9
:10194000858182FF02C080FF1EC080FF1CC083E033
:101950000895923049F4858182FF02C080FF15C04E
:1019600080FD15C084E00895933049F4858182FF9D
:1019700002C080FF0EC080FD0EC087E00895943045
:1019800060F481E0089582E0089586E0089585E09E
:10199000089589E0089588E008958AE008959FB742
:1019A000F89410920F059FBF90911E05943009F096
:1019B00048C02091E9002F703091EC00932F917076
:1019C00030FD90E8922B25E02093E9002091EB0078
:1019D00020FF34C02091EE0027FF30C020910E057B
:1019E000222321F02091E80025FF28C010920E0547
:1019F00026E03091E80035FF14C08093F10080911B
:101A0000E80085FD27C08091E80080FFFCCF809131
:101A1000E8008E778093E8009F709093E90080E063
:101A2000089530911E05343049F43091EB0035FDB6
:101A300005C0215041F481E080930E059F70909382
:101A4000E9008FEF0895EFE9FFE03197F1F700C06B
:101A50000000CFCF8FB7F89421E020930F058FBF00
:101A6000DBCF80930B0570930D0560930C0580917F
:101A70001E058430F9F48093E9008FEF9091E8001F
:101A8000815095FD06C095ED9A95F1F70000811102
:101A9000F5CF8091E80085FF0DC050E040E063E0A5
:101AA00070E08BE095E00E94B0068091E8008E77B0
:101AB0008093E8000895BC0184E00E94310D0895F0
:101AC000BC0183E00E94310D0895CF93DF93EC01B8
:101AD00081E08093E9008FEF9091E800815095FDBF
:101AE00006C095ED9A95F1F700008111F5CF809130
:101AF000E80085FF14C050E040E068E070E0CE01EF
:101B00000E94B0068091E8008E778093E80088E01C
:101B1000FE01A4E1B5E001900D928A95E1F7DF9115
:101B2000CF91089581E08093E00080E28093D80017
:101B30001092C9008FE19EE40197F1F700C0000008
:101B400087E090EBDC018093580590935905A093B2
:101B50005A05B0935B0588E19CE00FB6F894A89510
:101B6000809360000FBE90936000FFCF6E9A3EB1ED
:101B70003F7B2EB120644FB7F8948AE294E0FC01D9
:101B80005191CF0168E02EB9000000C057FF3EB967
:101B9000550F000000C000C000C03EB900C06A95EB
:101BA00091F7F4E0863F9F0751F74FBF8FE594E030
:101BB0000197F1F700C0000008958091660381113C
:101BC00010C08091D80080618093D8008AE18A9506
:101BD000F1F700C08091D90080FF0AC081E08093B6
:101BE000660381E090916603913009F080E00895EA
:101BF00082E0809366030E94600610921E05F1CF7A
:101C00000E94DD0D882359F0E0910205F091030553
:101C1000309729F00190F081E02D0995089580E03A
:101C200008950F931F930E94DD0D882329F00E94D1
:101C3000F8071F910F9108950E94F80700918A03F9
:101C400010918B0320918C0330918D03600F711FD5
:101C5000821F931FEECFCF92DF92EF92FF926B0124
:101C60007C010E94DD0D8823A1F02FB7F8946091CC
:101C70000705709108058091090590910A052FBF0D
:101C80006C197D098E099F09FF90EF90DF90CF902E
:101C900008950E94110EF4CFCF93DF93C7EFD2E0E7
:101CA00060E0CE010E942B342196C11584E0D80754
:101CB000B9F7DF91CF9108951F93CF93DF93122F40
:101CC0008630E0F46A30D0F44630C0F4C42FD0E05F
:101CD000CC0FDD1F9CE0699FC00DD11D112498E73A
:101CE000899FC00DD11D1124632FCE0187960E94BC
:101CF0002B34612FCE0188960E942B34DF91CF9137
:101D00001F910895AF92BF92CF92DF92EF92FF9210
:101D10001F93CF93DF938DEEC82E86E0D82ED0E0B0
:101D20007601C0E014C0F50125913491412F6C2F4C
:101D30008D2F0E945C0E82E0A80EB11C1F5F163032
:101D400091F78CE0E80EF11CCF5FCA3019F0570113
:101D500010E0E9CFDF5F88E7C80ED11CD63001F76D
:101D6000DF91CF911F91FF90EF90DF90CF90BF90C8
:101D7000AF900895CF93C82F6FEF811162E283E295
:101D800090E00E942B346FEFC11160E184E290E09B
:101D90000E942B346FEFC11164E185E290E00E9454
:101DA0002B34CF91089580E00E94BA0E60E086E265
:101DB00090E00E942B340E94820E0E944C0E81E023
:101DC0000E94BA0E08950F931F93CF93DF9386302E
:101DD00030F56A3020F5463010F5C42FD0E0CC0F36
:101DE000DD1F2CE0629FC00DD11D112438E7839FB9
:101DF000C00DD11D1124CE0187960E940D34082FED
:101E000010E0102F0027CE0188960E940D34980113
:101E1000282BC901DF91CF911F910F91089590E078
:101E200080E0F8CF462F863040F47A3030F46630C8
:101E300020F4672F0E94E30E089590E080E008955B
:101E4000CF92DF92FF920F931F93CF93DF936C019A
:101E50000091570580915B03082BC7E0D0E010E0AC
:101E6000FC2EC8010C2E02C0959587950A94E2F7C6
:101E700080FD0CC02197A0F7F12C8F2DDF91CF9121
:101E80001F910F91FF90DF90CF900895B6018C2F96
:101E90000E94120F0E94630A019761F3EECFCF9365
:101EA000DF93EC010E94200FBE010E94120F0E94DE
:101EB000630ADF91CF9108950F931F93CF938C0105
:101EC000FC0143815481618180810E94040CC82FF0
:101ED000811123C0F801808191810E944F0F92955A
:101EE0009F709630A9F058F4925F9F70923058F42A
:101EF000803F19F030F4883E30F4C1E004C09A5FAE
:101F0000F4CF843FD1F38C2FCF911F910F9108957F
:101F1000883E98F3813FB9F7F0CFC0E0F4CFA5E059
:101F2000B0E0E5E9FFE00C94223325E0FC01DE019E
:101F3000119601900D922A95E1F7FC012281898189
:101F40009A81222399F0662389F00E94200F182F8E
:101F5000682F89819A810E944D0C69817A81812F35
:101F60000E94120F2596E3E00C943E330E94190C58
:101F7000182FF3CF83E290E00E940D34823289F46F
:101F800084E290E00E940D34803159F485E290E0C3
:101F90000E940D3491E0843109F090E0892F817026
:101FA000089580E0FCCFCF9384E090E00E940D3450
:101FB000C82F82E290E00E940D34982F8C2FCF9191
:101FC000089546E050E06CE170E081E595E00E9404
:101FD0001B3410922904089580935505909129048B
:101FE000962B909329049091280490FF16C02FE619
:101FF00031E0662311F021E731E01F928F933F9388
:102000002F938EE196E09F938F930E941F060F906F
:102010000F900F900F900F900F900895809155059D
:1020200020E1382F321B08F430E0832F61E00E945A
:10203000EC0F08958091550520E1382F320F08F4F8
:102040003FEF832F61E00E94EC0F0895309151051E
:10205000337071F18093520560935305493708F04E
:1020600048E74093540530912904322B30932904DA
:102070003091280430FF1CC050E09927211119C06D
:102080002FE631E05F934F931F926F939F938F934F
:102090003F932F938BEF95E09F938F930E941F06A2
:1020A0008DB79EB70A960FB6F8949EBF0FBE8DBF30
:1020B000089521E731E0E6CFE1E5F5E0438120E155
:1020C000421B08F440E0818121E0628190E00E949F
:1020D00026100895E1E5F5E0438120E1420F08F480
:1020E0004FEF818121E0628190E00E9426100895E7
:1020F000E1E5F5E0628120E1621B08F460E08181A6
:1021000021E0438190E00E9426100895E1E5F5E08A
:10211000628120E1620F08F46FEF818121E0438149
:1021200090E00E9426100895E1E5F5E0818121E02C
:10213000438162818850990B0E9426100895E1E541
:10214000F5E0818190E021E04381628108960E9460
:102150002610089590915105937051F1811129C075
:1021600094609093510510925C0180912904862B14
:10217000809329048091280480FF1AC02091510582
:10218000269526958FE691E0662311F081E791E090
:102190001F922F939F938F9381EE95E09F938F9340
:1021A0000E941F060F900F900F900F900F900F90AE
:1021B0000895883010F09C61D4CF880F880F982B39
:1021C000D0CF8091510586958695815009F487E09E
:1021D00061E00E94AA100895809151058695869528
:1021E0008F5F883008F081E061E00E94AA100895B6
:1021F0008091280480FF08C08DEB95E09F938F931A
:102200000E941F060F900F908DE0809351058091E2
:10221000610190916201A0916301809352059093B6
:102220005305A093540588E7809355058FEF80935D
:1022300056050E94E10F0895B0E0A0E0E2E2F1E16E
:102240000C9418337C015B01842E752E69018091FA
:10225000670301E010E08A3010F40AE010E0C1E00A
:10226000D0E0B501C701F6010995982E811114C07F
:1022700021960C171D07B4F48091280480FF0CC030
:102280007F928F9280E093E09F938F930E941F062E
:102290000F900F900F900F90892DCDB7DEB7EDE026
:1022A0000C943433CC9F9001CD9F300D300D112410
:1022B00090E080E045E34A95F1F700000196281789
:1022C0003907C1F7CECFB0E0A0E0E9E6F1E10C9428
:1022D0001633182F80915B01811323C09091510513
:1022E000937020915A0130E081E09217130609F4AF
:1022F00080E08170809360018091560590915F012C
:10230000981739F080935F0140E060E080E00E9420
:102310007908183060F4E12FF0E0EC54FB4C0C9499
:102320007E3381E0E6CF80916001811102C080E0C0
:10233000A0C040E060E080E00E947908F8CFC09142
:102340005E018EE0C89FC02D11240EE00C0F0534F5
:1023500008F004E40E945009882319F0033208F0C1
:1023600002E20E945009811103C0C23208F4C2E2A5
:102370006091520570915305809154050E94BC08EC
:10238000F62EE72ED82ED0E0C01710F0802F6FC0A9
:10239000FE01EE54FD4F808190915F01892331F061
:1023A0002D2D4F2D6E2DCE010E9476082196ECCF5B
:1023B000E0905E01DEE0ED9ED02D1124CEE0CD0F49
:1023C000C53408F0C4E40E945009882319F0C332D0
:1023D00008F0C2E20E945009811103C0D23208F411
:1023E000D2E2609152057091530540915405E091FD
:1023F0002304F09124048091550586958695869551
:1024000030E020E0E89F212DF89F200D311D1124A0
:10241000922F96FD2095322F3F7096FD3F5F2695B7
:10242000269526952670E22FF0E0EE52FE4F818130
:10243000839F802D312D112482958F703295307FAE
:10244000832B2081820F97FD819587FD8195880FD1
:10245000282F249F212D1124822F0E94BC08062F93
:10246000D72EC82EED2EF12CEC16D8F08C2F0E9412
:10247000790990915E019F5F90935E0181110CC07C
:1024800082E080935C0180916001811105C011118F
:1024900003C083E080935C01CDB7DEB7EFE00C941E
:1024A0003233F701EE54FD4F808190915F01892313
:1024B00031F02C2D402F6D2DC7010E9476084FEF73
:1024C000E41AF40AD1CFC0915E018EE0C89FC02DFE
:1024D00011240EE00C0F053408F004E40E945009AA
:1024E000882319F0033208F002E20E94500981119A
:1024F00003C0C23208F4C2E23091550536953695D4
:1025000021E0320F08F43FEF40912304509124045E
:1025100090E080E0439F812D539F800D911D1124F9
:10252000F82ED0E0C01708F031CFFE01EE54FD4F79
:10253000808190915F01892391F0609152057091A3
:102540005305809154052F2D4C2F0E9492080E9414
:10255000BC08462F282F672FCE010E9476082196AF
:10256000E1CFE0905E018EE0E89EE02C11247EE059
:10257000F72EFE0C94E49F1510F464E4F62E0E94EE
:102580005009882329F0A2E2AF1510F452E2F52E8B
:102590000E945009811105C0B2E2EB1610F442E22C
:1025A000E42E80916001882361F040E060E080E0EB
:1025B0000E947908EAEBF3E08CE3DF011D928A9533
:1025C000E9F780915E01811115C08091B603909169
:1025D000B7030E94E90721E08931910508F420E062
:1025E0002093B503499730F00E9404089093B703F5
:1025F0008093B603A12C912CB12C96E0792E25E581
:10260000622E3AEA832E5524539405C0ADE0A915F5
:1026100008F453C0B12C2B2D30E07A9CE00111243A
:10262000FE01E251FE4FE20FF31FC080CE1408F40A
:102630003CC0CF1408F039C09394D12CF601EE546D
:10264000FD4F808190915F01892309F42EC0C6540B
:10265000DC4FC20FD31F0881302F262D321B08F408
:1026600030E070915305282D200F08F42FEF409192
:102670005405822F880F820F8E5F282F249F212DD3
:102680001124822F682D631B0E94BC08462F282F1F
:10269000672FC6010E9476088091B503882329F030
:1026A000452D041B08F400E00883B39486E0B812BB
:1026B000B2CFA3949AE0A912A9CF8F2DD8CE0091C2
:1026C0005405B3E00B9FE0011124D695C795D6952C
:1026D000C7955C2EA02EB12C8FEF90E0B5010E9423
:1026E0006A33762E80916001882371F040E060E0CB
:1026F00080E00E947908EAEBF3E08CE3DF011D92B1
:102700008A95E9F71092B9038091B8038F5F80939F
:10271000B803F12CE12CAC1ABD0A6701612CD7017A
:10272000A654BC4F4D018091B903862909F045C0DC
:102730000E94D733853595400CF03FC0F4010083EB
:10274000F601E251FE4FE081EF3FD1F0D601A654F1
:10275000BC4F2C91F0E0521608F040C030E02C1B2A
:102760003D0B2C9FC0012D9F900D3C9F900D11247F
:10277000B5010E945633262F402FCF010E947608C4
:102780006394F6E0CF0ED11C2AE06212CCCF4FEF5B
:10279000E41AF40A86E0E816F10409F0BECF80914D
:1027A000B803781202C01092B8038091B9038F5F0A
:1027B0008D31F0F48093B903BACDF601E654FC4FA5
:1027C0008081882309F4BCCF801708F0B9CF90919D
:1027D000B8037912B5CF81508083B2CF029FC00178
:1027E0001124BE010E945633462F20E060E0C5CF81
:1027F0001092B9032AEE33E089E09FEF900FEAEBE5
:10280000F3E0D901893021F446A9041301C096AB45
:102810004D91401730F0ED012197988315960C9358
:102820001597319643E0E03CF40761F7815026505C
:1028300031098111E4CF7BCD8FE698E00E948909B0
:1028400018CE89E698E0FACF4F925F926F927F920E
:102850008F929F92AF92BF92CF92DF92EF92FF92B0
:1028600060911F04709120048091210490912204B2
:102870000E942B0E6B017C010E94110E4B015C012A
:1028800080921F0490922004A0922104B09222040E
:10289000A091F603E6EFF3E08A2F90E04FEF5FEFB1
:1028A00060E070E04C195D096E097F09A91328C02A
:1028B0008093F60380912704811135C090915105D2
:1028C000892F837019F0892F8695869590915C01E8
:1028D000913009F441C0992341F1923009F43FC08D
:1028E000933009F43FC0FF90EF90DF90CF90BF90FE
:1028F000AF909F908F907F906F905F904F900895D2
:10290000218D328D2901712C612C441555056605E8
:10291000770520F481509F5F3296C8CF2C0D3D1D66
:10292000328F218FF8CF80E0D1CF10925E0180925C
:10293000230490922404A0922504B092260489E2F4
:10294000E6EFF3E0A8E2B5E001900D928A95E1F799
:1029500081E080935C01C7CF0E946311C4CF0E94C5
:102960005C08C1CF8091290481110E94E10F609120
:1029700023047091240480912504909126040E94E0
:102980002B0E603171058105910508F4ACCF1092D2
:102990005C01A9CFAFE0B0E0E0EDF4E10C941833B6
:1029A0008E010F5F1F4F8AE0D8011D928A95E9F7CB
:1029B0008CE2C82E81E0D82EF12CE12CAA24A3941D
:1029C000B12C2CE2822E21E0922EF60181916F0132
:1029D0008F3F09F442C0F894E82FE295EF70F0E0E1
:1029E00021A18F70A50102C0440F551F8A95E2F7FF
:1029F000CA01922F982B91A392A18095892382A33B
:102A0000789400C0E6E2F1E0712C31E021912F3F93
:102A100009F46BC0A22FA295AF70B0E090968C9194
:102A200090E02F7002C0959587952A95E2F780FD7A
:102A30005CC0832F782A330F8E169F0639F7F60174
:102A4000319780818F3F11F00E94090A50EA5A9510
:102A5000F1F7F801EE0DFF1D70828FEFE81AF80A0A
:102A6000A5E0EA16F10409F0B0CF4AE050E0B80161
:102A70008EE893E00E94E733009741F02AE0F801E6
:102A8000AEE8B3E001900D922A95E1F70091990329
:102A9000892B69F181E080935E030E940408909382
:102AA0005D0380935C0380915C0390915D030E94C1
:102AB000E907059700F110E005551C4F45E050E08F
:102AC0006EE873E0C8010E94E733C12C892B51F0F6
:102AD00085E0EEE8F3E0D80101900D928A95E1F7E8
:102AE000CC24C39410925E0307C080E0A3CF8091F2
:102AF0005E038111D8CFC12C0E94DD0DD82EE0914C
:102B00009903882309F492C07E01BBE0EB0EF11C0F
:102B100085E0D7011D928A95E9F70E2F10E0055543
:102B20001C4FB0906703B9E0BB15E0F12AEC3DE122
:102B300048E751E0B701C8010E941C11882309F43D
:102B400053C022E13DE145E851E0B701C8010E94D0
:102B50001C11882309F448C028E63DE140E951E012
:102B6000B701C8010E941C118823F1F1F9E0FB159F
:102B700008F453C0109267038091980390E045E0F9
:102B800050E0B70185559C4F0E94E73321E0209328
:102B90006503892BE1F4D12C8D2D8C292F96EDE046
:102BA0000C94343380915F03909160030E94E90795
:102BB000843F914008F0BACF80916503882359F390
:102BC00085E0D7011D928A95E9F710926503A091DF
:102BD0009803B0E0A555BC4F85E0FE013B960190FF
:102BE0000D928A95E1F7D8CF809167038F3F31F03E
:102BF0008F5F809367038A3008F4BECF0E94040879
:102C00009093600380935F038091280480FFD4CF6A
:102C10008AEC92E00E948605CFCF8091280480FF45
:102C2000A9CF87EB92E00E948605A4CFF0E0E5559E
:102C3000FC4F85E0A6E7B3E001900D928A95E1F79D
:102C400086E793E00E9449068093750380907B039A
:102C500090907C03A0907D03B0907E0380916103EF
:102C600090916203A0916303B09164038816990662
:102C7000AA06BB06D1F08092610390926203A092F3
:102C80006303B09264030E94DD0D81110EC00E94A7
:102C9000F807861A970AA80AB90A80928A039092BE
:102CA0008B03A0928C03B0928D0386E0EFE7F3E0F4
:102CB000A1E5B5E001900D928A95E1F710918503A9
:102CC000112349F080912704811105C00E946311EE
:102CD00080E00E945C08109327045ECF0F931F933F
:102CE000CF93DF938091FD049091FC04892B809316
:102CF000F80290915A03992391F0892B8093F8025E
:102D000020E08AEF92E0FC013191CF0131112F5F79
:102D1000F3E080309F07B9F721110E94E30B48E0F0
:102D200050E062E573E088EF92E00E94E733892B80
:102D300009F441C088E0E8EFF2E0A2E5B3E00190D9
:102D40000D928A95E1F7E0910205F0910305309725
:102D500091F10280F381E02D88EF92E00995809156
:102D6000280482FF28C080FF04C085EA92E00E9408
:102D70008605D0E0C0E00FE912E08091280480FFD2
:102D80000EC0FE01E850FD4F80811F928F931F936C
:102D90000F930E941F060F900F900F900F90219697
:102DA000C830D10551F78091280480FF04C08DE917
:102DB00092E00E948605DF91CF911F910F910895B7
:102DC000CF93DF93EC01EA85FB85309719F06C8592
:102DD0007D8509958B81982F90958091FC0489239E
:102DE0008093FC048C810E94FD0B0E946E1686E08D
:102DF000FE0111928A95E9F7DF91CF910895CF9363
:102E0000DF93EC018D8181FD18C082608D838091FC
:102E1000FC049B81892B8093FC048091FD049C81A0
:102E2000892B8093FD040E946E16E885F985309702
:102E300021F06C857D85CE0109951092FF041092DA
:102E4000FE048D8180FD03C0CE010E94E016DF915B
:102E5000CF9108958091F804882349F08091FC0473
:102E60008D7D8093FC040E946E161092F8040895E4
:102E700090E080E00E94400890E080E00E942A08F4
:102E80001092FC040E946E160895809357050E94CC
:102E90003817089580915705982F9670963021F431
:102EA00088600E9445170895877FFBCF21E030E0BE
:102EB00001C0220F8A95EAF7209580915705822359
:102EC0000E9445170895909151038095892380931E
:102ED0005103282F277091F4282F082E000C330B54
:102EE0009217130659F090919B0392FF07C08595A6
:102EF000859585950E945617109251030895CF939A
:102F0000DF93D82FC0919B03C2FB882780F98D17D0
:102F100011F1D0FBC2F9C0939B0360919A0384E046
:102F200090E00E942B346C2F82E290E00E942B34C0
:102F300082E00E9463178091280480FF0CC01F92DA
:102F4000DF9388E892E09F938F930E941F060F9073
:102F50000F900F900F90DF91CF91089521E030E016
:102F600001C0220F8A95EAF780915705822B0E94B3
:102F70004517089580935B030E94381708951092B7
:102F8000FD04EAEFF2E086E0DF011D928A95E9F7A1
:102F90000E9438170895AAE2B0E0E1EDF7E10C9441
:102FA000223380E295E02091F100DC012D93CD01E8
:102FB000B5E088329B07B9F780912105833009F489
:102FC00072C0B8F4813009F449C0823009F4B3C04A
:102FD0008091E80083FF91C28091200590912105A6
:102FE0009A3008F08AC2E92FF0E0E454FB4C0C94CC
:102FF0007E338A3009F48EC08B3009F471C0893079
:1030000039F780912005813219F78091240590913C
:103010002505009711F00297D9F68091E800877F87
:103020008093E8008091E80082FF38C09091F3001F
:103030008091F200029731F48091F100813011F01B
:10304000863021F48091F100809313058091E8008F
:103050008B778093E8000E94DA06BACF8091200532
:10306000813A09F0B5CF8091E800877F8093E8002E
:103070008091240590912505892B61F468E084E115
:1030800095E070E00E9486078091E8008B7780933E
:10309000E8009ECF60E090E080E0F3CF80911E05D5
:1030A0008111C0CF95CF80912005813A09F090CF52
:1030B0008091240590912505892B09F089CF809175
:1030C000E800877F8093E8008091E80080FFFCCFD4
:1030D00080915D018093F1008091E8008E77B9CFF7
:1030E00080912005813209F073CF80912405909161
:1030F0002505892B09F06CCF8091E800877F8093AC
:10310000E8000E94DA068091220580935D010E940A
:10311000BF175ECF80912005813209F059CF809191
:10312000E800877F8093E8000E94DA0680912305FB
:10313000809312054DCF80912005813A09F048CF48
:103140008091E800877F8093E8008091E80080FF0D
:10315000FCCF80911205BECF803899F0823809F0FB
:10316000CCC1809124058F70873008F0C6C1809350
:10317000E9008091EB0085FB882780F91092E90037
:1031800006C080911C0590911D059111826090915F
:10319000E800977F9093E8008093F1001092F1008F
:1031A0008091E8008E77A5C1882309F493C182300D
:1031B00009F0A3C180912205811196C18091240557
:1031C0008F702FEF280F263008F097C18093E90009
:1031D0002091EB0020FF88C1933031F48091EB0007
:1031E00080628093EB0080C19091EB00906190939E
:1031F000EB0021E030E001C0220F8A95EAF720932E
:10320000EA001092EA008091EB008860EACF811119
:1032100074C1109122051F778091E3008078812B83
:103220008093E3008091E800877F8093E8000E940C
:10323000DA068091E80080FFFCCF8091E30080688F
:103240008093E30082E0111183E080931E0555C155
:103250008058823008F051C1209122053091230519
:103260002C3DE3E03E07A1F583E08A838AE289836F
:103270004FB7F894DE01139620E03EE051E2E32FD1
:10328000F0E050935700E49120FF03C0E295EF7007
:103290003F5FEF708E2F90E0EA30C0F0C7968D93BD
:1032A0009D932F5F243159F74FBF8091E800877FAE
:1032B0008093E8006AE270E0CE0101960E948607E2
:1032C0008091E8008B778093E80017C1C096E7CF24
:1032D0008091240590912505432F552743305105B2
:1032E00009F44AC078F54130510509F47AC08BE7FA
:1032F00090E0E1EDF9E04230510509F0FEC0209187
:10330000E800277F2093E8002091260530912705CB
:103310008217930708F49C0140E02115310509F05C
:1033200065C0411163C08091E80082FDC9CF8091E2
:103330001E05882329F2853019F28091E80083FF69
:10334000F2CFBECF4132510509F43CC042325105A3
:1033500009F0D3C08430910508F0CFC0FC01EE0F16
:10336000FF1FE252FE4F0190F081E02D86529E4FEA
:10337000DC018C9190E01AC0332721303105D1F067
:103380002115310561F02230310509F0B6C0EEE5B6
:10339000FAE0E4918E2F90E0EEE5FAE007C0ECE76A
:1033A000FAE0E4918E2F90E0ECE7FAE0009709F460
:1033B000A4C0A5CFECE6FAE0E4918E2F90E0ECE615
:1033C000FAE0F4CF8430910508F097C0880F991F78
:1033D000FC01EA51FE4F0190F081E02D89E090E080
:1033E0008ECF82E190E0ECE4FAE089CF80911E0577
:1033F000882309F465CF853009F462CF8091E80015
:1034000083FD5ECF8091E80082FD8DCF8091E80042
:1034100080FF83CF9091F3008091F2002115310558
:1034200019F08830910550F041E0089709F040E02C
:103430008091E8008E778093E8006FCF44914093AD
:10344000F1003196215031090196E8CF803809F01A
:1034500054C08091E800877F8093E80080911F0529
:103460008093F1009DCE811148C010912205123049
:1034700008F043C08091E800877F8093E8001093B4
:103480001F050E94DA06112311F084E005C0809127
:10349000E30087FDFACF81E080931E0542E061ECF6
:1034A00081E00E94F90642E261EC84E00E94F906A4
:1034B00042E261EC82E00E94F90642E260EC83E0C5
:1034C0000E94F90642E261EC85E00E94F9068091D3
:1034D0001E0513C080912205813079F481E093307C
:1034E00009F080E080931D051092E9008091E800CA
:1034F000877F8093E8000E94DA068091E80083FFCE
:103500000AC08091E800877F8093E8008091EB00FB
:1035100080628093EB00AA96E3E00C943E330E9415
:10352000BF172FEF84E39CE0215080409040E1F7EB
:1035300000C0000088E19CE00FB6F894A895809345
:1035400060000FBE90936000FFCF882321F00E949F
:10355000FD0B0E946E160895882339F09091FD04AA
:10356000982B9093FD040E946E160895882391F184
:103570009CEF980F913A80F4EAEFF2E020E033E01C
:103580009191891303C0DF0111971C922E173F07F9
:10359000B9F70E946E16089590E2980F983050F493
:1035A000877091E001C0990F8A95EAF7892F0E94F0
:1035B000FD0BEFCF9BE5980F933028F490E080E06F
:1035C0000E9440080895885A873120F490E080E0F6
:1035D0000E942A08089580910501843051F028F452
:1035E000833059F0109205010895853069F08630D6
:1035F000C9F789E30E94B61AF5CF84E00E94A51AA4
:1036000081E00E945617EECF85E0F8CF809105014A
:10361000843061F038F4823069F0833079F01092B0
:1036200005010895853071F08630C9F780E00E9469
:10363000AE17F5CF87EE0E94B61AF1CF80E80E9450
:10364000A51AEDCF80E80E94A51A81E00E945617C6
:10365000E6CFCF93C82F8823B1F08CEF8C0F813A3F
:1036600000F5EAEFF2E080E093E0DF012D91C21770
:1036700061F08A179B07D1F76C2F88EF92E00E94C8
:1036800010080E946E16CF9108952191C21303C0B5
:10369000DF0111971C928E179F07B9F70E946E16D3
:1036A000EBCF80E28C0F883068F4C77021E030E007
:1036B00001C0220FCA95EAF78091FD04822B809306
:1036C000FD04DFCFEBE5EC0FE33040F4F0E0E5562E
:1036D000FE4F808190E00E944008D5CFC85AC73184
:1036E00090F6EC2FF0E0EE0FFF1FE256FE4F8081C8
:1036F00091810E942A08C7CF1F93CF93DF93182F81
:10370000D0E0C0E0893311F4C0E5D0E0812F0E9401
:10371000291B209739F4812F0E94B61ADF91CF918F
:103720001F9108958FE99FE00197F1F700C0000015
:103730002197EFCFB0E0A0E0E0EAFBE10C941D336D
:103740006B01C42FD22FFC0182818823A9F0409302
:10375000FB040E9404089093FA048093F904C77054
:1037600081E001C0880FCA95EAF70E94AC1ACDB774
:10377000DEB7E8E00C9439331091FB04141337C022
:103780008091F9049091FA040E94E9077C01C60136
:103790000E942806E816F90650F5C0E2CD0F1D1765
:1037A000C1F080E2810F883048F4177081E0012E6B
:1037B00001C0880F0A94EAF70E94A51AC83048F49D
:1037C00081E09D2F977001C0880F9A95EAF70E94BB
:1037D000AC1A802F0E947C1BC83048F6D77081E05D
:1037E00001C0880FDA95EAF70E94A51AC0CFC7700A
:1037F00081E001C0880FCA95EAF7F6CFB0E0A0E0FB
:10380000E4E0FCE10C941E33E82FF0E0E359F94FBB
:10381000D490282F26952695269530E0F901E35A75
:10382000F94F0491877010E0082E02C01595079596
:103830000A94E2F701701127F901E35BF94FE49074
:10384000F12C082E02C0F594E7940A94E2F791E077
:10385000E922FF24F901E35CF94FC491D0E002C0F2
:10386000D595C7958A95E2F7C170DD270115110539
:1038700019F081EE0E94291BE114F10419F086EE83
:103880000E94291B8D2D0E947C1BE114F10419F06C
:1038900086EE0E94B61A0115110519F081EE0E94FC
:1038A000B61ACD2B19F08CE20E947C1BCDB7DEB787
:1038B000E7E00C943A33FF920F931F93CF93DF937B
:1038C0008C018AE0F82EF8018491882309F44BC01A
:1038D000813009F044C0E8012196FE0184918130D5
:1038E00049F42196FE0184910E947C1B8E010F5F9A
:1038F0001F4FE9CF823039F4E8012296FE0184910E
:103900000E94291BF3CF833039F4E8012296FE018F
:1039100084910E94B61AEACF843041F7E8012296DA
:10392000FE01249190E080E0FE0131962053330B9C
:103930002A30310548F00197C8F2EFE9FFE03197EE
:10394000F1F700C00000F7CFF89EA001F99E500DDE
:103950001124C901840F951F2491EF01E5CF0E9426
:10396000FE1BE801C3CFCDB7DEB7E5E00C943C33D6
:103970000E949C0C809305018430E1F028F4823091
:1039800041F0833081F008958530D1F0863091F098
:1039900008958091F804882319F00E942A17089549
:1039A0000E94E90B089584E00E94AC1A81E00E9415
:1039B000AE1708950E942A1789E30E94291B0895D3
:1039C00085E0F2CF0E949C0C80930501843099F031
:1039D00028F4823041F0833051F008958530D9F0D9
:1039E000863049F0089587EE0E94291B089580E8EB
:1039F0000E94AC1A089581E00E94561782E00E944E
:103A0000561783E00E94561784E00E94561785E0FF
:103A10000E945617089580E80E94AC1A81E00E9427
:103A2000AE170895A4E0B0E0E8E1FDE10C94223384
:103A3000409171035091720360917303709174030C
:103A40002FB7F8948091070590910805A09109057A
:103A5000B0910A052FBF841B950BA60BB70B11E085
:103A600084369105A105B10570F10E94110E6E5FBB
:103A70007F4F8F4F9F4F69837A838B839C83809185
:103A80001701909118018B589C4F4091160150E0FE
:103A90004530510510F044E050E0BE016F5F7F4FAC
:103AA0000E94F43382E090E00E949D32182F882318
:103AB00051F00E94F8076093710370937203809332
:103AC000730390937403812F2496E3E00C943E33A8
:103AD000A7E0B0E0EEE6FDE10C94213386E0E1E5FD
:103AE000F5E0DE01119601900D928A95E1F7809143
:103AF00027048F8347E050E06FE773E0CE01019623
:103B00000E94E73300918603109187032091880378
:103B100030918903EFB7F89440910705509108055B
:103B20006091090570910A05EFBF401B510B620BB4
:103B3000730B443651056105710518F411E0892BAA
:103B400021F180911F01909120018B589C4F409151
:103B50001E0150E04830510510F047E050E0BE0132
:103B60006F5F7F4F0E94F43383E090E00E949D32AC
:103B7000182F882351F00E94F807609386037093F2
:103B800087038093880390938903812F2796E4E02D
:103B90000C943D33EF92FF921F93CF93DF9300D0AD
:103BA00000D000D0CDB7DEB77B0190E080E00E946E
:103BB0009D32182F882309F480C04091090150E0FC
:103BC0004115510511F041E050E060910A017091FA
:103BD0000B016B587C4FCE0106960E94F433409146
:103BE0006D0350916E0360916F03709170032FB756
:103BF000F8948091070590910805A0910905B0916E
:103C00000A052FBF841B950BA60BB70B84369105B5
:103C1000A105B10540F486E793E00E9449069E8124
:103C2000891709F44AC081E090E00E949D32811119
:103C300016C010E085E0E8E6F3E0D70101900D92B0
:103C40008A95E1F7812F26960FB6F894DEBF0FBE56
:103C5000CDBFDF91CF911F91FF90EF9008954091DC
:103C6000110150E04630510510F045E050E0609100
:103C70001201709113016B587C4FCE0101960E9486
:103C8000F43386E793E00E9449069E818913D1CFE1
:103C90000E94F80760936D0370936E0380936F0327
:103CA0009093700385E0FE013196A8E6B3E00190A1
:103CB0000D928A95E1F711E0BDCF85E0E6E7F3E0EC
:103CC000DE01119601900D928A95E1F71111EACF6C
:103CD000B1CF90E080E00E941534883E9E4F19F4E9
:103CE0000E94BA0F089580E0089568EE7EEF90E09C
:103CF00080E00E94493460E082E090E00E942B3432
:103D000060E083E090E00E942B3410925B0360E05F
:103D100084E090E00E942B3464E082E290E00E9414
:103D20002B3460E085E090E00E942B3460E086E078
:103D300090E00E942B346FEF87E090E00E942B34DC
:103D400040E050E0BA0188E090E00E943D3460E03D
:103D50008DE090E00E942B3440E050E0BA0188E111
:103D600090E00E943D3460E087E190E00E942B34B7
:103D700040E050E0BA018CE190E00E943D3470E0F8
:103D800060E080E290E00E94493440E050E0BA01F7
:103D900088E190E00E943D3480E00E94BA0E0E94CB
:103DA000D30E40E050E0BA018FE090E00E943D3435
:103DB00040E050E0BA0183E190E00E943D34089574
:103DC000A4E0B0E0E6EEFEE10C9419337C01DC01E6
:103DD00013964D915C91149711966C9111978C915B
:103DE0000E94040CA82E81116CC061E0C7010E94E2
:103DF0008F0F8C01F70182818823E1F08091FE040E
:103E00009091FF040097B1F00817190799F0FEE0B0
:103E10008F9FC0011124FC01ED5BFE4F20812460C7
:103E20002083825C9E4FDC010D931C930E94FF1641
:103E30001092FC04F7018281882309F4B1C598012E
:103E400022513F452031310508F046C68FEF93E0FF
:103E50000E940D34811126C0025157EFC52E52E049
:103E6000D52E011132C01C821B82BB24B3944AE0C0
:103E7000A42E86010F5F1F4FC6010E940D34898357
:103E80001A82882379F09FEF980F933060F58A8328
:103E9000B98232E0C30ED11CC8010E940D348B835D
:103EA000811122C080915103877059F0F7018281FE
:103EB000882339F080919B0382FF03C082E00E9437
:103EC00063172496ECE00C943533C114F4E0DF065C
:103ED00049F3C6010E940D34811101C001502FEF3A
:103EE000C21AD20ABECF68018E010F5F1F4FD801E0
:103EF0008C91882309F4BDCF813009F044C011961C
:103F00009C91119712968C91913039F40E5F1F4F4E
:103F10000E947C1B0F5F1F4FEACF923029F40E5F87
:103F20001F4F0E94291BF6CF933029F40E5F1F4FBD
:103F30000E94B61AEFCF943019F00F5F1F4FEACFEF
:103F40000E5F1F4F30E020E0B8016F5F7F4FF80138
:103F500041818053990B8A30910550F021503109ED
:103F6000C8F28FE99FE00197F1F700C00000F6CF9B
:103F7000A29EF001A39EF00D11249C012E0F3F1F65
:103F8000842F8B01E1CF0E94FE1BC4CF81E00E94F1
:103F9000AE170E944A1786CF81E00E945617F9CFCC
:103FA00082E0FBCF053B2DE5120731F1F8F0063B2F
:103FB0009DE5190709F00FC5882309F40CC582E6B1
:103FC00091E005C0882309F406C586E092E00E94CE
:103FD0005B1C01C5882309F4FEC487EE91E0F7CF8E
:103FE000882309F4F8C48BED91E0F1CF882309F41C
:103FF000F2C482EA91E0EBCF882309F4ECC483E8B1
:1040000091E0E5CF902F812F2EC5F901858181FFA9
:104010002EC5C9010E94E0162AC50C3AFDE51F070E
:1040200009F025C5D70112968C91882309F43ACF5F
:104030008091F804882319F00E942A1733CF0E9438
:10404000E90B30CF011592E5190708F043C5D701F8
:1040500012968C91882309F44BC51092FB0403300F
:10406000BDE51B0708F0DDC00A3FECE51E0730F494
:10407000C80182509C45449708F0DEC00E94D30FCF
:1040800090939B0380939A0302318CE5180709F4FF
:10409000E3C108F02FC10930ACE51A0709F4BAC131
:1040A00008F0F9C00530ECE51E0709F4A7C108F0D7
:1040B000E0C003302CE5120709F498C108F09AC15A
:1040C00002308CE5180709F489C160919A031091B8
:1040D0009B0384E090E00E942B34612F82E290E009
:1040E0000E942B340E94BF17DDCE0115A9E51A07E7
:1040F00058F40115B8E51B0708F0A9CF0431E5E530
:104100001E0709F0E7C4A3CFC8019056811590425D
:1041100008F0E0C4D70115968C91807F99F5812F26
:104120008F71823141F118F5823029F10E942A17EE
:10413000033F2CE5120709F45CC008F044C0083DB9
:104140008CE5180709F44FC0093D9CE5190709F4EF
:1041500062C0073DACE51A0709F079CF06E221EE0F
:1041600041EE67ED7CE5C7010E949A1B9BCE84312E
:10417000F9F28631D9F61092FC04D8CFF701858187
:10418000807FB1F2C80199271092FC048832910512
:1041900048F48E31910568F4049740F282E08093F0
:1041A000FC0407C08D329105C9F330F48A9709F0F9
:1041B000BDCF0E946E16BCCF8C349105D1F38D32E9
:1041C0009240B9F3B3CF053FBCE51B07F1F0B8F05F
:1041D000063FFCE51F0709F03ACF07E225EE46EE61
:1041E00066EF7CE5C0CF07E225EE45EE68ED7CE5A5
:1041F000BACF06E221EE40EE63EF7CE5B4CF07E2F2
:1042000025EE44EE64EF7CE5AECF06E221EE42EE11
:1042100065EF7CE5A8CF08E221E045EE69ED7CE59D
:10422000A2CF053AFDE51F0709F428CFE0F40136D7
:104230003DE5130709F422CF06318CE5180709F094
:10424000E5C48091FD048A7A91E009F490E09093AE
:10425000000369E2811165E388EF92E00E94100893
:104260000E946E161FCEC8018D5A9D45039720F7F8
:1042700005CF80919A03806207309CE51907B9F158
:1042800080919A0380610830ACE51A0780F1809133
:104290009A0380642CC00D30BCE51B0709F4C4C030
:1042A00090F480919A038E7F0B30FCE51F07F9F0A4
:1042B00080919A038C600C302CE51207C0F080913D
:1042C0009A038D7F14C00F303CE5130709F4BCC07E
:1042D00008F4AEC000319CE5190709F4B9C080911B
:1042E0009A038F7B0131ACE51A0709F0EECE80937B
:1042F0009A03EBCE0F3FBCE51B0709F4B7C0A8F546
:104300000A3FFCE51F0709F47DC0C0F404313CE519
:10431000130709F4B9C008F4A5C005319CE51907D5
:1043200009F0D3CE80919A0382FB992790F921E07E
:10433000922790FB82F990FB83F9D9CF0C3FACE533
:104340001A0709F479C008F461C00D3FECE51E07B7
:1043500009F476C080919B0383600E3FFCE51F0744
:1043600009F0B3CE80939B03B0CE01362DE5120742
:1043700009F495C090F401308DE5180709F48DC05B
:1043800008F478C060E00230ADE51A0709F09DCE70
:104390008EE090E00E942B3498CE0D3ABDE51B07CD
:1043A00009F160F490919A03892F8E7F90FF8160CC
:1043B000053AFDE51F0709F49ACF87CE0E3A2DE5A1
:1043C000120771F10F3A3DE5130709F07ECE909187
:1043D0009B03892F877F93FF8860C4CF80919A03C6
:1043E000816085CF80919B038860BCCF80919A03C8
:1043F00082607DCF80919A03846079CF80919A0307
:10440000886075CF80919B038160ACCF80919B03C6
:104410008260A8CF0E94BF1780919A03806867CFFF
:1044200080919B03877F9ECF80919A038B7F5FCF84
:1044300080919A03877F5BCF80919B038E7F92CF81
:1044400080919B038D7F8ECF80919A038F7E4FCF7B
:1044500080919A038F7D4BCF0E94BF1780919A0362
:104460008F7745CF80919A03837F41CF80919B03C3
:104470008C7F78CF80919B03982F909591708E7F41
:10448000892B90FB81F96ECF0E94BF1790919A0300
:10449000892F97FB87F980582ACF61E079CF9091D7
:1044A0009A03892F8F7E94FF806121CF8091000332
:1044B00081110FC089E2EAEFF2E020E033E0919150
:1044C000891303C0DF0111971C922E173F07B9F71C
:1044D000C7CE85E3F0CF41EE50E16CEE70E10E9473
:1044E0005608E0CC4CEE50E161EE70E1F8CF44E9C3
:1044F00050E16FE970E1F3CF4CE550E16AE670E11D
:10450000EECF61E081E00E94AA10CCCC909128040B
:10451000892F8E7F90FF81608093280480FF05C0E3
:1045200087E792E00E948605BDCC85E692E0FACF4F
:104530000E94751E0E948F1A80919B0382FB882720
:1045400080F991E089270E947F17D70112968C91FC
:1045500012970D911C91882309F444C0C8010E9450
:10456000200FD82E682FC8010E944D0CB8018D2D48
:104570000E94120F0E94630A8C01882EF701D280DC
:10458000B580B2943FE0B322809151038770C1F0AF
:10459000DD20A9F0812F807F803421F080E2800F20
:1045A000883070F080919B0382FF0AC082E00E94F5
:1045B0006317809151038770AA24A3948111A12CC1
:1045C000912E92942FE09222FBE0F91508F46FC02F
:1045D000E92DF0E0EA53FB4C0C947E3381E0B3CF3D
:1045E00080E0B1CFC8010E94190CD82EBFCF212F77
:1045F0002F70C22E107F19F0C29490EFC922DD20D7
:10460000B9F0CC2069F080E2800F883010F0811082
:1046100009C08091FD04C82AC092FD040E946E1654
:10462000802F43C08091FC04C82AC092FC04F6CFBE
:10463000802F0E94B61ACC20D1F1005E083010F015
:10464000811004C08C2D0E94FD0B06C0C094809187
:10465000FC04C822C092FC040E946E1628C0312FB0
:104660003F70C32E107F103219F0C29480EFC82221
:10467000882059F081E0881609F464C0DD2009F42F
:104680006EC0BB2009F464C0CBCF20919B0322FDF8
:1046900037C0DD2079F1CC2039F08091FD04C82AA3
:1046A000C092FD040E946E1680E00E94291BA92D75
:1046B000A850BB0B149710F40E94000EAA20A9F07A
:1046C0008091510380FD11C0F70112828595859577
:1046D00085950E94AE17C7010E94E01E809151038C
:1046E0008595859585950E94561760E0C7010E94C3
:1046F0008F0FE7CB80E00E94B61ACC20C1F2A2CF88
:10470000DD2099F090915A03892F8C29B11003C0B4
:104710000E94AC1ACCCFA1E0BA12FACF22FFC7CFC9
:10472000981729F280935A03C2CFB11006C00E9495
:10473000E30B8C2D0E94A51ABACFB1E0BB1609F489
:10474000B6CFF5CFDD2031F0E5E0EB1508F4AFCFC3
:104750008C2DDECFF4E0FB1508F4A9CFEACFBB2007
:1047600041F329E3821209C03FEF87EE93E0315015
:1047700080409040E1F700C00000802F0E94B61AF0
:1047800096CF812F86958695837061F0813009F0F0
:104790008ECFC8019370D11002C090E080E00E94DB
:1047A0002A0885CFC8019370D11002C090E080E044
:1047B0000E9440087CCF812F837089F5D11077CF7C
:1047C000402F429546954770440F440F802F8F70BD
:1047D000042E01C0880F0A94EAF7202F207104FFED
:1047E00007C02FE030E001C0220F4A95EAF720957C
:1047F000169516951370123069F050F430915B03E2
:10480000113029F0822B83230E94BA1750CF832BBB
:10481000822BFACF282B80915B038227F5CF8695D8
:10482000DD2011F0812F8170882309F440CF402FC3
:10483000429546954770440F440F802F8F70042E89
:1048400001C0880F0A94EAF7202F207104FF07C0E7
:104850002FE030E001C0220F4A95EAF72095169527
:1048600016951370123069F050F4309157051130DD
:1048700029F0822B83230E94451719CF832B822B8B
:10488000FACF282B809157058227F5CF1F70DD20A6
:1048900029F0812F0E94AE17802F3ACF802F0E94DF
:1048A000A51A812F0E94561702CF802FA2EF8A16D9
:1048B000B1F1A81570F0B0EF8B16D1F0E1EF8E16C4
:1048C00091F0DD2009F45CC0B110AACE812F8F7168
:1048D0002AC0F3EF8F1651F124EF8212F2CF8091AC
:1048E0009B0382FD2FC0812F8F71DD20D9F21BC069
:1048F000DD2081F034E03B1508F4D9CE1F7181E052
:1049000090E0012E01C0880F0A94EAF790915705B4
:104910008927B1CF85E08B1508F4C9CEEFCF812F61
:104920008F71D110BFCF0E94AE17C1CE80E0DD20C5
:1049300009F4A1CF1F7181E0012E01C0880F0A94F4
:10494000EAF799CFDD2089F01F71812F0E94AE1701
:1049500080919B0382FF07C0A8E01A9FC001112429
:10496000836080935103812FDECF81E00E94631723
:10497000B1E0BB1508F09BCE82E00E94631797CE92
:10498000BB2059F0893309F0F8CEEFEFF7EE23E0C2
:10499000E150F0402040E1F7EECE812F8F7182CFC1
:1049A0000031FFE51F0709F4F7CA01312FE51207AF
:1049B00009F4F6CA033BADE51A0709F411CB08F078
:1049C000F1CA013BEDE51E0709F4FCCA023BFDE517
:1049D0001F0709F4FFCAC80197558F3F910511F0D1
:1049E00008F01BCB48019924AEE00A9FF001112486
:1049F0009F01225C3E4F6901D70112968C91ED5BBD
:104A0000FE4F908180FB90F99083882309F4FDCAC2
:104A10000E9404089093A9038093A803F601828161
:104A20008F5F82838091FC049091FD04892B8383A6
:104A300080915A0384830680F781E02D309731F00E
:104A4000D6011C966D917C91C60109958EE0889DDA
:104A5000F001899DF00D1124E25CFE4F858181FFFC
:104A6000D1CA90E080E09093FE048093FF0480918F
:104A7000F804882309F45CCBC090FD04D0905A035D
:104A80000E94040888579C4E9093F7048093F60484
:104A9000F7018281882309F44BCB8D2D8C298D79E8
:104AA00009F044CB0115F5E51F0708F01ECB0115F1
:104AB00023E5120708F0CBCA011530E5130708F00B
:104AC000C1CA011580E4180708F058CB063E11054D
:104AD00009F4BDCAC80158CB00313FE5130709F4FA
:104AE00055CA01319FE5190709F064CF82E04FCA2A
:104AF0000631ACE51A0709F4D9CC8091FD04827225
:104B0000093CBCE51B0709F4F7CC08F051C0053C93
:104B1000FCE51F0709F4EBCCA0F5033C3CE51307CB
:104B200009F4D9CC08F0DECC023CACE51A0709F058
:104B30000CCD80915105982F937021E092278C7FA6
:104B4000892B8093510510925C018091290481602A
:104B5000809329048091280480FFA4C91F929F9309
:104B600081E791E09F938F938EE292E09F938F93E2
:104B70000E941F060F900F900F900F900F900F90B4
:104B800091C948E750E166E870E1073CBCE51B07C6
:104B900009F4A5CC4FE950E164E970E1083CECE58B
:104BA0001E0708F49CCC46E850E168E770E197CC1A
:104BB0000D3CFCE51F0709F4A4CCB8F44EE050E12D
:104BC0006AE170E10B3C3CE5130709F488CC4AE646
:104BD00050E16CE570E10C3C9CE5190708F47FCCD2
:104BE0004AE150E16EE070E17ACC063DACE51A078F
:104BF00040F461E082E00F3CBCE51B0708F483CC85
:104C000051C90D35100709F44DC99FCC0A35FDE592
:104C10001F0709F4E3CCD8F401303CE5130709F48D
:104C200075CC0E3D8CE5180709F482CC01151C45A6
:104C300009F08BCC0E94BF179FEFA4E3BCE091501A
:104C4000A040B040E1F700C000000E94920D0C357A
:104C5000ADE51A0709F470CC08F4C2CC073A1D453B
:104C600009F468CC72CCB0E0A0E0E9E3F6E20C9481
:104C70001C3380911E03807F09F050C080911B037C
:104C8000882309F44BC0C091500386E0B82E809170
:104C90001F038C1709F442C0F0901903E0901A0327
:104CA000C0901C03D0901D03A6016E2D8F2D0E9475
:104CB000040CD0E0811137C0BC9E8001BD9E100D58
:104CC0001124F801E05EFC4F81818E112CC080819F
:104CD0008F1129C08281811126C0E380F480EC18F5
:104CE000FD0860E089E193E00E948F0F0E94280692
:104CF000E816F906C0F480911E038F7080618093DE
:104D00001E03F801EB5DFC4F80818F708061808312
:104D100089E193E00E94E01E0E940F0CCDB7DEB740
:104D2000E9E00C9438332196C770B1CFA1E1B0E02F
:104D3000ECE9F6E20C9414338C0185E0F801DE0115
:104D40001D9601900D928A95E1F7D8014C9011962D
:104D50003C90119712966C9012971396ED90FC90E0
:104D600060E089E193E00E948F0F5C0189E1C82E29
:104D700083E0D82E80901C0390901D03A4016091C5
:104D80001A03809119030E94040C582E811190C1BE
:104D900070901B03F701E819F9094F0160E07720D3
:104DA00009F426C1C6010E948F0F0E942806B09008
:104DB0001E038816990608F0D7C040911C03509135
:104DC0001D03D0901903C0901A038B2D807F6C2D8A
:104DD00009F085C08D2D0E94040C762C81111DC018
:104DE000D80111968C9111978C1117C08C918D114F
:104DF00014C0611012C08B2D8F70806180931E03D0
:104E000089E193E00E94E01E80911E03F8018583F2
:104E1000872D6196E1E10C943033A701632D842D39
:104E20000E94040C811124C081E08625F82FF170C6
:104E3000FF2E80FF3FC08091500320911F0336E07A
:104E4000821318C04D863E868D859E850E944F0F29
:104E5000292F22952F70223008F1243030F59F70D1
:104E600009F1D80115969C91907FE1F4752CD0CF73
:104E700080E0DCCF90E0389FF001399FF00D1124E5
:104E8000E05EFC4F4181431106C04081441103C0E4
:104E9000428164120FC001968770D2CF9F7011F0CB
:104EA000882321F3805E883008F3C8010E94E01E49
:104EB0005F2CDCCF662009F4ABCF80911E038160AC
:104EC00080931E0389E193E00E94E01E86E0E9E101
:104ED000F3E0DF011D928A95E9F7712C99CF8D2DB2
:104EE0000E94040C811116C0F80181818C1112C03E
:104EF00080818D110FC061100DC0B582C8010E9464
:104F0000E01E86E0F801A9E1B3E001900D928A95D8
:104F1000E1F77ECFC8010E945C0F882309F166206B
:104F2000F9F080911E03803270F0209119033091C6
:104F30001A0338872F831986FB86EA868C87CE0171
:104F400007960E94E01E86E0F801A9E1B3E0019017
:104F50000D928A95E1F70E9433267724739458CFF7
:104F6000C8010E94E01EF9CF8B2D807F39F489E1C2
:104F700093E00E94E01E86E0D601ACCFA09019031A
:104F800090901A0340911C0350911D03692D8A2DA6
:104F90000E94040C811113C0F801818189110FC096
:104FA00080818A110CC061100AC0B582C8010E94BC
:104FB000E01E86E0D6011D928A95E9F729CFC80147
:104FC0000E945C0F882361F2662051F280911E03DB
:104FD000803208F4B8CF2091190330911A033A8334
:104FE00029831B82FD82EC828E83CE010196A9CF9C
:104FF00089E193E00E948F0F0E9428068816990687
:1050000008F050C0762C662009F4AACFF09019035E
:10501000E0901A0340911C0350911D036E2D8F2DBB
:105020000E94040C811130C0F80181818E112CC0C6
:1050300080818F1129C0F8E2AF16F2E4BF0609F4AF
:1050400060CF2AE2A21622E6B20609F45ACF8CE219
:10505000A81681E4B80609F454CF80911E0380FDA0
:1050600050CF982F907F09F44CCFD80115968C9390
:105070001597903F09F442CF982F907F905F8F70E3
:10508000892B15968C933ACFC8010E945C0F811131
:105090005ACF80911E03816080931E03C8010E9435
:1050A000E01EB6CE86E0F60111928A95E9F7B0CE01
:1050B000662009F455CFC8010E945C0F782E882322
:1050C00009F44ECF86E0F801A9E1B3E001900D921A
:1050D0008A95E1F78091190390911A030E944F0F6E
:1050E0000E94332695CEA7E1B0E0E9E7F8E20C9400
:1050F00022334B8B5C8B6D8B7E8B8F8B611110926F
:10510000FC041A8A198A85E0FE017396DE011D9659
:1051100001900D928A95E1F786E0FE013D96DE0151
:10512000179601900D928A95E1F7CE0107960E949D
:105130009626811111C086E0FE013796DE01119698
:1051400001900D928A95E1F74A855B8568858F818C
:105150000E94040C882359F016E08091500390912E
:105160001F03891331C06796E3E00C943E3320910E
:105170001F0330E0C90101968770992740915003C1
:105180004817190699F096E0929FD001939FB00DB1
:105190001124A05EBC4FFE01319601900D929A95AC
:1051A000E1F780931F030E940F0CD6CF0E94BF1718
:1051B00010921F031092500386E0E9E1F3E0DF0153
:1051C0001D928A95E9F7C8CF819FC0011124805EA6
:1051D0009C4F0E949626882331F28091500390E0E4
:1051E00001968770992780935003B7CF1F920F9233
:1051F0000FB60F9211242F933F934F935F936F93AA
:105200007F938F939F93AF93BF93CF93DF93EF934E
:10521000FF93D091E900DF708091EC00C82FC1703E
:1052200080FDC0E81092E9008091F000877F8093B4
:10523000F00078940E94CB171092E9008091F00062
:1052400088608093F000CD2BCF70C093E900FF9170
:10525000EF91DF91CF91BF91AF919F918F917F910E
:105260006F915F914F913F912F910F900FBE0F90D3
:105270001F9018951F920F920FB60F9211242F9323
:105280003F934F935F936F937F938F939F93AF93CE
:10529000BF93EF93FF938091E10082FF15C080914F
:1052A000E20082FF11C08091E1008B7F8093E100DA
:1052B000209110052F5F822F62E30E944A339923C9
:1052C00009F4C0C0209310058091DA0080FF28C047
:1052D0008091D80080FF24C08091DA008E7F809377
:1052E000DA008091D90080FFE3C080E189BD82E1CE
:1052F00089BD09B400FEFDCF81E080931E058DEBD2
:1053000099E00E94860580911105811109C00E94D3
:1053100060060E942B078091E20084608093E20087
:105320008091E10080FF1BC08091E20080FF17C0E8
:105330008091E2008E7F8093E2008091E2008061A4
:105340008093E2008091D80080628093D80019BCDD
:1053500085E080931E0585EC99E00E94860580918A
:10536000E10084FF2FC08091E20084FF2BC080E128
:1053700089BD82E189BD89B5982F917080FFFBCFEF
:105380008091D8008F7D8093D8008091E1008F7E3E
:105390008093E1008091E2008F7E8093E200809113
:1053A000E20081608093E20080911F05882309F468
:1053B00089C084E080931E0589EC99E00E948605EF
:1053C00080911E058091E10083FF2BC08091E20057
:1053D00083FF27C08091E100877F8093E10082E016
:1053E00080931E0510921F058091E1008E7F8093AF
:1053F000E1008091E2008E7F8093E2008091E200E4
:1054000080618093E20042E060E080E00E94F90663
:105410008091F00088608093F0008DEC99E00E940C
:105420008605FF91EF91BF91AF919F918F917F91F1
:105430006F915F914F913F912F910F900FBE0F9001
:105440001F9018951092100580910F05882309F47C
:105450003BCF80911E058430C1F49091E9009F708C
:105460002091EC00822F817020FD80E8892B95E04F
:105470009093E9009091EB0090FF04C09091EE00B2
:1054800097FD08C08F708093E90010920F051CCF24
:105490001092F1009091E80095FDFACF9091E8000C
:1054A00090FFF0CF9091E8009E779093E800EACFCC
:1054B00019BC10921E0581EC99E00E94860510929D
:1054C00011052ECF8091E30087FD93E090931E0598
:1054D00073CF78941F921FB61F9211248F939F93BE
:1054E000AF93BF938091070590910805A09109059E
:1054F000B0910A050196A11DB11D809307059093F7
:105500000805A0930905B0930A05BF91AF919F913B
:105510008F911F901FBE1F9018951F921FB61F924C
:1055200011248F939F93AF93BF93809106058111B0
:1055300013C08091070590910805A0910905B091CD
:105540000A054196A11DB11D80930705909308059A
:10555000A0930905B0930A05BF91AF919F918F91D8
:105560001F901FBE1F901895CDB7DEB7E6970FB6F8
:10557000F894DEBF0FBECDBF85B7806885BF85B705
:10558000806885BF84B7877F84BF0FB6F894A895DD
:1055900080916000886180936000109260000FBE6F
:1055A00080E890E00FB6F8948093610090936100DA
:1055B0000FBE8FEC9CE09093F7028093F6020E945E
:1055C00060060E942B078091E20084608093E200D5
:1055D000789480911E058823A1F01091E9001F7036
:1055E0009091EC00892F817090FD80E8182B10922B
:1055F000E9008091E80083FD0E94CB171F70109393
:10560000E90082E084BD93E095BD9AEF97BD809359
:105610006E0010928A0310928B0310928C031092EA
:105620008D030E94BA0F811102C00E94D30E5598BB
:105630005D988FE891E00197F1F700C000000E94AB
:105640005009809331010E94DD0D81110E94B1311A
:105650008091310181112CC085E0E4E6F1E0DE01AA
:10566000919601900D928A95E1F789A180932C0182
:105670008AA180932D018BA180932E018CA1809310
:105680002F018DA18093300186E0E9E6F1E0DE0193
:10569000119601900D928A95E1F7FE013196A6E2EE
:1056A000B1E0CE01079621912D93E817F907D9F7BC
:1056B0008091310195E0811190E09093990385E00C
:1056C000891B809398030CE211E0D8018D918D0124
:1056D0008F3F11F00E94090AB1E001331B07A9F7BF
:1056E00006E211E0F80181918F018F3F11F00E94D5
:1056F000090AF1E00C321F07A9F78AE0EBEAF3E0B0
:10570000DF01282F1D922A95E9F7EEE8F3E0DF018B
:105710001D928A95E9F70E94691E811102C00E94BC
:10572000751E82E090E00E940D34809328040E9450
:10573000D30F90939B0380939A030E94CA14EFE3C4
:10574000FCE93197F1F700C000000E94CA14809173
:10575000AB0380FF08C06FEF7FEF90E080E00E9416
:1057600049340E94920D83E090E00E940D340E9423
:10577000BA17109228058FEF9FEF90934205809300
:10578000410590934405809343059093460580938B
:105790004505909348058093470590934A0580936B
:1057A000490590934C0580934B0590934E0580934B
:1057B0004D059093500580934F051092F6039093FA
:1057C000100480930F04909312048093110490931B
:1057D00014048093130490931604809315049093FB
:1057E00018048093170490931A04809319049093DB
:1057F0001C0480931B0490931E0480931D040E943C
:10580000691E811110C08091280480FF08C087E5BF
:1058100094E09F938F930E941F060F900F900E9419
:10582000751E0E94F81046E050E06CE170E081E5E2
:1058300095E00E94FD3310922904809151058C7FE0
:1058400071F48091280480FF08C082E094E09F9367
:105850008F930E941F060F900F900E94F810809166
:10586000280480FF89C088EE93E09F938F930E9465
:105870001F06809128040F900F9080FF7DC08091BB
:10588000510583701F928F9389EC93E09F938F93C0
:105890000E941F06809128040F900F900F900F9088
:1058A00080FF6AC080915105869586951F928F93DF
:1058B0008CEA93E09F938F930E941F0680912804A7
:1058C0000F900F900F900F9080FF56C0809152055F
:1058D0001F928F938EE893E09F938F930E941F06F1
:1058E000809128040F900F900F900F9080FF44C07C
:1058F000809153051F928F9380E793E09F938F933E
:105900000E941F06809128040F900F900F900F9017
:1059100080FF32C0809154051F928F9382E593E0FF
:105920009F938F930E941F06809128040F900F90E1
:105930000F900F9080FF20C0809155051F928F938C
:1059400084E393E09F938F930E941F068091280425
:105950000F900F900F900F9080FF0EC08091560512
:105960001F928F9386E193E09F938F930E941F066F
:105970000F900F900F900F900E94DD0D811102C0CB
:105980000E94B43182E391E0909303058093020575
:105990008BEA93E0FAE0F80FFEAB80911E058530AC
:1059A000A9F489E894E00E94860520E4F22EEE2412
:1059B000E39400E112E180911E05853009F4A8C04E
:1059C0000E94BF170E94000E109227040E94CA1462
:1059D0004EE953E05CA74BA78BEA93E09EA78DA707
:1059E00028EA33E0DC01FA0191918D912E173F07EF
:1059F00009F4D3C09817C1F38091280481FD7CC1BC
:105A00000E94DD0D782EABEAB3E0B8ABAFA7F12C66
:105A1000312C212CAFA5B8A9BD90B8ABAFA7EBA591
:105A2000FCA58191FCA7EBA78B1509F405C28B257A
:105A300089AB6101E12CAA24A39489A98A2109F4E4
:105A4000EFC14A2C4B20772099F0EEA2FFA281E013
:105A5000411001C080E088A70E9404088160782F6F
:105A60009AA789A74EA15FA168A58AA50E9473285D
:105A7000442039F0F601E251FE4F80818F3F09F05A
:105A800071C1512C052D10E08091F603800F912FEC
:105A9000911D09976CF1F8E08F2E912C801A910AD4
:105AA000B80169507C4FA40187EF93E00E94F43362
:105AB000B80161507C4FA4018FEF93E00E94F43352
:105AC000A401440F551FB801660F771F615F7B4F1C
:105AD0008FE094E00E94F433B801695F7B4FA4012A
