:100000000C940B050C9496310C9443050C94430509
:100010000C9443050C9443050C9443050C94430540
:100020000C9443050C9443050C94E6280C94A228E8
:100030000C94392A0C9443050C9443050C94430505
:100040000C9443050C9443050C9443050C94430510
:100050000C9443050C94152A0C9443050C94430509
:100060000C9443050C9443050C9443050C944305F0
:100070000C9443050C9443050C9443050C944305E0
:100080000C9443050C9443050C9443050C944305D0
:100090000C9443050C9443050C9443050C944305C0
:1000A0000C9443050C9443050C9443050631FF0959
:1000B00074A1010975150026FF00952075088102BD
:1000C0000976150026FF00952075089102C00501EC
:1000D0000980A101850319012AB700150126B7007F
:1000E000950175108100C0050C0901A10185041955
:1000F000012AA002150126A002950175108100C0F9
:100100000660FF0961A1010962150026FF00952024
:10011000750881020963150026FF00952075089176
:1001200002C005010906A101050719E029E715002C
:100130002501950875018102950175088101050762
:10014000190029FF150026FF009506750881000596
:10015000081901290595057501910295017503910D
:1001600001C0010143010432337C010111007072AE
:10017000696E746C6E282222290101500101500021
:100180007072696E74282222290101500101500009
:100190004D454828004859505228005465737469E9
:1001A0006E6720312C20322C20332E2E2E20202042
:1001B00054657374696E6720312C20322C20332EE5
:1001C0002E2E0044454255473A2064697361626CA3
:1001D00065642E0A0044454255473A20656E6162C7
:1001E0006C65642E0A004F6E6573686F743A206107
:1001F00063746976653A2025640A000A0025303266
:100200005820006B6579626F6172645F7265706F10
:1002100072743A200054617267657420636F6E6E69
:1002200065637465640D0A005461726765742064C7
:100230006973636F6E6E65637465642C2074687295
:100240006F74746C696E6720636F6E6E656374693A
:100250006F6E20617474656D7074730D0A00466171
:10026000696C656420746F206578656375746520BA
:1002700025730A007267625F6D61747269785F63EB
:100280006F6E6669672E666C616773203D2025641A
:100290000A007267625F6D61747269785F636F6E86
:1002A0006669672E7370656564203D2025640A00C9
:1002B0007267625F6D61747269785F636F6E6669A1
:1002C000672E6873762E76203D2025640A007267BB
:1002D000625F6D61747269785F636F6E6669672EC5
:1002E0006873762E73203D2025640A007267625F72
:1002F0006D61747269785F636F6E6669672E68738B
:10030000762E68203D2025640A007267625F6D6169
:10031000747269785F636F6E6669672E6D6F64656E
:10032000203D2025640A007267625F6D6174726906
:10033000785F636F6E6669672E656E61626C6520BB
:100340003D2025640A007267625F6D61747269788E
:100350005F636F6E66696720454550524F4D0A00D6
:100360007267625F6D61747269785F696E69745FEC
:1003700064726976657273207267625F6D61747210
:1003800069785F636F6E6669672E6D6F6465203D87
:1003900020302E2057726974652064656661756C23
:1003A000742076616C75657320746F2045455052DA
:1003B0004F4D2E0A007267625F6D61747269785FDB
:1003C000696E69745F6472697665727320656563CE
:1003D0006F6E666967206973206E6F7420656E6149
:1003E000626C65642E0A005B735D000A002530387C
:1003F00062003A200025303258000A722F63203004
:10040000313233343536370A000A0025303258008D
:100410006C65645F7461736B3A2000000101010137
:1004200001010101010202020202020202020303AF
:10043000030303030303040404040404040505057F
:100440000505060606060607070707070808080841
:10045000090909090A0A0A0B0B0B0C0C0C0D0D0DEE
:100460000E0E0E0F0F0F1010111111121213131484
:1004700014151516161717181819191A1A1B1B1CFC
:100480001D1D1E1E1F202021222223242425262656
:10049000272829292A2B2C2D2D2E2F30313232338B
:1004A0003435363738393A3B3C3D3E3F4041424394
:1004B0004445464748494A4C4D4E4F505153545578
:1004C0005658595A5B5D5E5F616264656668696B28
:1004D0006C6D6F7072737577787A7B7D7E808283A6
:1004E0008587888A8C8E8F91939596989A9C9EA0EA
:1004F000A2A3A5A7A9ABADAFB1B3B5B7BABCBEC0F7
:10050000C2C4C6C9CBCDCFD1D4D6D8DBDDDFE2E4BF
:10051000E7E9EBEEF0F3F5F8FAFDFF6565636F6E62
:100520006669675F7570646174655F7267625F6D4D
:1005300061747269785F64656661756C740A0072D3
:100540006762206D617472697820746F67676C658B
:10055000205B25735D3A207267625F6D617472691A
:10056000785F636F6E6669672E656E61626C652089
:100570003D2025750A00726762206D61747269788A
:10058000206D6F6465205B25735D3A2025750A0038
:10059000726762206D617472697820736574206877
:1005A0007376205B25735D3A2025752C25752C25E7
:1005B000750A00726762206D6174726978207365D4
:1005C00074207370656564205B25735D3A20257522
:1005D0000A00000000000000000000000000000011
:1005E000000000000000000000000000000000000B
:1005F0000000000000007E0F00D4FFFFFFC70000D6
:10060000007800000000000000002A2B28000000F5
:1006100000000000000000000000000000290000B1
:1006200000002C1E3420212224342627252E362D8E
:100630003738271E1F202122232425263333362E28
:1006400037381F0405060708090A0B0C0D0E0F109A
:100650001112131415161718191A1B1C1D2F3130DF
:10066000232D350405060708090A0B0C0D0E0F1083
:100670001112131415161718191A1B1C1D2F3130BF
:10068000354C29001E001F002000210022002E00F2
:1006900014001A000900130005002D0004001500C5
:1006A000160017000A002F001D001B00060007009F
:1006B000190000000000E200E0002A224C4100572F
:1006C00027002600250024002300350033001C00ED
:1006D00018000F000D00340012000C00080011007B
:1006E000100030003800370036000B000E0000000C
:1006F0000000015702572C412B3245003A003B00C5
:100700003C003D003E002E0246004B0052004900D6
:1007100028002D022602500051004F0027022F0210
:100720001E024E004A004D0024020000000001009D
:10073000010001002A000100430042004100400086
:100740003F0035022E00610060005F00310034027E
:1007500033025E005D005C002502300262005B0037
:100760005A005900310200000000620001002C0014
:10077000010045023A023B023C023D023E02237860
:100780002278BC00A900BB00217824782778AD002E
:10079000AA00AE002978007C2878AC00A800AB0045
:1007A0002A780000000001000100010001000100A2
:1007B00043024202410240023F0202770D7E097E5F
:1007C000087E077E0A7E03770E7E067E057E047E07
:1007D0000B7E007E0F7E037E027E017E0C7E00007B
:1007E00000006152010020780100290F1E0F1F0F29
:1007F000200F210F220F2E0F140F1A0F090F130FA6
:10080000050F2D0F040F150F160F170F0A0F2F0FBF
:100810001D0F1B0F060F070F190F0000000001002E
:100820000100010001000100270F260F250F240FF2
:10083000230F350F330F1C0F180F0F0F0D0F340F31
:10084000120F0C0F080F110F100F300F380F370F4A
:10085000360F0B0F0E0F0000000062520100010066
:10086000010029001E001F002000210022002B0093
:1008700014001A00080015001700E000040016001C
:10088000070009000A00E1001D001B000600190016
:10089000050000000000E300007701004A000100AD
:1008A000270026002500240023004C00130012001E
:1008B0000C0018001C00340033000F000E000D0067
:1008C0000B00E50038003700360010001100000072
:1008D0000000015701002C414D0029001E001F009F
:1008E0002000210022002B0014001A00080015002F
:1008F0001700E00004001600070009000A00E100EC
:100900001D001B0006001900050000000000E300A8
:1009100000772A224A000100270026002500240033
:1009200023004C00130012000C0018001C003400BF
:1009300033000F000E000D000B00E50038003700FB
:1009400036001000110000000000015701002C418A
:100950004D005B435D005B445D005B535D005B5796
:100960005D005B525D0009027B00040100A0FA09F2
:1009700004000001030101000921110100012240CE
:1009800000070581030800010904010002030000BB
:100990000009211101000122220007058203200025
:1009A0000107050303200001090402000103000000
:1009B00000092111010001223200070584032000F3
:1009C00001090403000203000000092111010001D4
:1009D00022220007058503200001070505032000EA
:1009E00001120100020000000810CB56631006013E
:1009F0000200010C035600690072006900730000D8
:100A0000000E034B0065006500620069006F000086
:100A100000040309040011241FBECFEFDAE0DEBF9B
:100A2000CDBF04B603FE18C080915F0590916005AC
:100A3000A0916105B09162058730904BA740B04B03
:100A400059F410925F0510926005109261051092A2
:100A50006205E0E0F8E3099525E0A0E0B3E001C01D
:100A60001D92AF35B207E1F713E0A0E0B1E0E2E993
:100A7000F9E602C005900D92A030B107D9F70E94A7
:100A8000602A0C9451340C940000FF93EF93E09192
:100A90000003F0910103309709F00995EF91FF9160
:100AA0000895FC018591803011F0EFDFFBCF0895B0
:100AB000FF27E0E230E247FF0CC0419597FF09C0F5
:100AC000EDE26095709580959095611D711D811D79
:100AD000911D27FF02C0219530E350E2AA27660F3F
:100AE000771F881F991FAA1FA41710F0A41B6395D6
:100AF0005A95A9F7AA3008F0A95FA05DAF93F395C6
:100B0000611571058105910541F7ED3211F4EF93FF
:100B1000F395F21718F43F93F395FBCF8F91B5DF60
:100B2000FA95E1F70895E991F9918591803021F0E6
:100B3000853219F0AADFF9CF089520E0E8945591A5
:100B40005532C1F3503311F4689455915A3348F437
:100B5000505390F3220F022E220F220F200D250F4B
:100B6000F4CF0EF4219589919991533619F35337A7
:100B700029F1533559F1BC0188279927E8945C364F
:100B800021F48991999168945591543639F446EF3E
:100B90007EF077FF0DC08FEF9FEF0AC055374AE018
:100BA00039F0583540E121F0523642E009F008951D
:100BB000FF93EF937DDFEF91FF91B7CFFF93EF931B
:100BC000FC0181918030B9F360DFFBCFFF93EF939D
:100BD00068DFF1CFDF93CF93CDB7DEB72596A3DFE4
:100BE000CF91DF910895883222E4920789F050F482
:100BF0008A3222E2920779F08C32914461F08FEAD6
:100C000090E0089597550297D0F78CE291E008950F
:100C100088EC90E0089586E990E00895FC01AC012D
:100C20004B5F5F4F8FEF91E32191822728E030E007
:100C300087FF09C0880F892721503109C9F7E417B8
:100C4000F50791F70895880FF7CFE8EDF0E0808180
:100C50008E7F80831092E2001092DA001092E10001
:100C6000A0EEB0E08C9181608C9380818F7780833F
:100C700019BCA7EDB0E08C918E7F8C9380818F7E24
:100C800080831092180508952091E4003091E500CA
:100C900095E6A9012091EC00822F817020FF06C00B
:100CA0008091E80080FF06C080E008952091E80070
:100CB00022FD1AC080912505882389F0853089F0AE
:100CC0008091EB0085FD0FC02091E4003091E5009C
:100CD00042175307F9F29150E1F684E0089582E05B
:100CE000089583E0089581E008958091270587FFA6
:100CF00013C08091E80082FF06C08091E8008B77E6
:100D00008093E80004C0809125058111F2CF0895F9
:100D1000809125058823D9F38091E80080FFF8CFE2
:100D20008091E8008E77ECCF982F9093E900242FE4
:100D3000762F50E0891731F07091EC002091ED0092
:100D40005091F00021FD07C09F5F973071F78093AD
:100D5000E90081E008953091EB003E7F3093EB0095
:100D60003091ED003D7F3093ED003091EB0031602C
:100D70003093EB007093EC002093ED005093F00063
:100D80002091EE0027FDE0CF80E00895B0E0A0E0E4
:100D9000ECECF6E00C94BC32C8EDD0E088818F7E9C
:100DA0008883E7EDF0E080818160808384E082BF0A
:100DB00081E08093180588818E7F888302EE10E0A1
:100DC000F80110821092DA0081EEC82ED12CF601C3
:100DD000108288818F778883888180688883888162
:100DE0008F7D888319BC10922505109226051092DC
:100DF00024051092230590EEE92EF12CF701808155
:100E00008B7F808388818160888342E060E080E01E
:100E10000E949406F60180818E7F8083F801808194
:100E200081608083808188608083F70180818E7FEC
:100E30008083888180618883CDB7DEB7E8E00C9439
:100E4000D832FC0180912D0590912E0586179707C9
:100E5000A0F06115710529F49091E8009E779093B8
:100E6000E80090E06115710551F4911108C080917E
:100E7000E80082FF34C080E00895BC01F2CF809189
:100E800025058823C1F18530C1F18091E80083FDFB
:100E900030C08091E80082FDEACF8091E80080FFB9
:100EA000E1CF8091F3002091F200382F6115710598
:100EB00019F02830310558F091E02830310509F05B
:100EC00090E02091E8002E772093E800CBCF81912D
:100ED0008093F100615071092F5F3F4FE7CF809100
:100EE0002505882341F0853041F08091E80083FF9B
:100EF000BECF81E0089582E0089583E008950895CB
:100F000080911A0508959C014FB7F89480911105BE
:100F100090911205A0911305B09114054FBF821B4B
:100F2000930B08952FB7F8946091110570911205F5
:100F300080911305909114052FBF08952FB7F89451
:100F40008091110590911205A0911305B09114059F
:100F50002FBF08959C01FC0132969FEF80E04191E4
:100F6000461751F09F3F19F4411101C0982F8F5F30
:100F70008630A9F79F3F09F40895290F311D97FD89
:100F80003A95F90162830895A3E0B0E0EAECF7E056
:100F90000C94C23220910E0530910F0528173907A5
:100FA000A1F090930F0580930E05E0910C05F09150
:100FB0000D05309751F024E029839B838A830680B6
:100FC000F781E02DCE01019609952396E2E00C947D
:100FD000DE32A3E0B0E0EFEEF7E00C94C2322091F5
:100FE0000A0530910B0528173907A1F090930B05DE
:100FF00080930A05E0910C05F0910D05309751F0B2
:1010000023E029839B838A830680F781E02DCE012C
:10101000019609952396E2E00C94DE32FA018111E3
:1010200001C0FB01099508958093650180915805E1
:101030008370809364010E94D60D83E080936601E3
:10104000089522E8241B08F420E0620F08954095DB
:10105000282F429F412D1124842F08950E940D09AD
:101060000895FF920F931F93CF93DF93182F062FAE
:10107000F42ED0E0C0E02F2D402F612FCE010E9432
:101080002E082196C434D105B1F7CDB7DEB7E5E01F
:101090000C94DB32E42FF0E0EE0FFF1FEC5CFD4F11
:1010A000408134EE439F412D1124E82FF0E050E0C1
:1010B000445E5F4FDA01A21BB1099D01B7FF03C077
:1010C00031952195310993E0220F331F9A95E1F76D
:1010D000AF01421B530B9A0157FD20E0582F259F6B
:1010E000212D1124822F0895AF92BF92CF92DF92CB
:1010F000FF920F931F93CF93DF93362F472FE82F45
:10110000F0E0E55EFB4F71110FC0E4918E2F2E2FA2
:101110006E2F722FDF91CF911F910F91FF90DF9073
:10112000CF90BF90AF900895C72FD0E02491F22EBA
:10113000022F10E056E0659FC0011124EFEFF0E0B0
:10114000BF010E94F532832F90E0880F991F35E58B
:10115000369FD001379FB00D11248A1B9B0B982F0F
:10116000990F980F6F01CC1ADD0AC09ED001C19E65
:10117000B00DD09EB00D11248B2F499FA0011124DA
:10118000452F55276F01C41AD50AC09EA001C19EE4
:10119000500DD09E500D11245F01A91AB108AC9ECC
:1011A0006001AD9ED00CBC9ED00C1124CD2CDD2452
:1011B000EC19FD09E09FE001E19FD00DF09FD00DFB
:1011C0001124ED2F62307105A1F050F46115710505
:1011D00009F49ECF6130710581F0EB2F852F98CFF8
:1011E0006430710569F080F06630710509F490CFC4
:1011F000F4CFE22F2B2F8D2F8BCFE22F252F88CFEF
:10120000EB2F822F2D2F84CF2B2F8F2DE52F80CFEB
:1012100089B185FB882780F90895FF920F931F936A
:10122000CF93DF93EC01F62E042F122F0E940809B2
:1012300081110FC0C232D1057CF0A297FE01EE0FE2
:10124000FF1FEC0FFD1FEC5CFB4FF182008312834C
:1012500003C0C232D10594F3CDB7DEB7E5E00C94FC
:10126000DB32CF93C82F0E940809882329F081E040
:10127000C23228F080E003C081E0C434D8F7CF91B7
:101280000895B0E0A0E0E7E4F9E00C94BA327C0104
:10129000C09168018EE0C89FC02D11241EE01C0F74
:1012A000153408F014E40E940809882319F0133259
:1012B00008F012E20E940809811103C0C23208F44A
:1012C000C2E220915C0531E0230F08F42FEF30E0FB
:1012D00050E040E06FEF7FEF80E090E00E94EE335F
:1012E0006901D0E001E0B12CA12C2C2FC11740F0F6
:1012F000812F0E943109CDB7DEB7EAE00C94D632D7
:10130000FE01E454FD4F808190916901892329F108
:1013100080912F058150082E000C990B87FF1FC06C
:10132000B60130915C05300F08F43FEFA501639FD3
:10133000412D739F400D511D1124609159057091ED
:101340005A0580915B05F70109950E947408462FA4
:10135000282F672FCE010E942E082196C6CFFC01B0
:10136000E15DFA4F318932130AC0FC01EE0FFF1F15
:10137000E15DFA4F618D728D6C157D0590F20197DC
:10138000CDCFF894E82FE295EF70F0E031A1282F4F
:101390002F7081E090E001C0880F2A95EAF7982F1E
:1013A0009095932391A392A1892B82A37894089579
:1013B0009091A40392FF06C0282F28712830F9F4D9
:1013C000877F846093FF06C0282F28712831F1F4AD
:1013D000877E84612091A50320FF06C0382F3871D5
:1013E0003830D9F4877F816021FF06C0282F28710B
:1013F0002831D1F4877E816194FD877E0895282F5E
:1014000024712430F9F68B7F8860DCCF282F24717B
:10141000243101F78B7E8861DDCF382F3171313077
:1014200019F78E7F8860E0CF282F2171213121F7B5
:101430008E7E8861E1CFCF93DF93EC0182389105F6
:10144000B9F108F041C08133910509F49FC050F50E
:101450008932910509F48FC08A9709F49EC0C1159D
:1014600020E5D20708F0BDC0C11530E4D30708F06D
:101470000AC1C03ED10508F0A5C0CD3CD10508F099
:1014800000C1C83AD10508F08FC0C53AD10508F0AF
:10149000F0C0C130D10539F1209729F1C430D10510
:1014A00010F546C08533910509F460C0C997B9F6B7
:1014B0008091A403837009F044C18091A50383FF48
:1014C00012C0C9E2D0E00FC0833E9105A1F178F4CB
:1014D000803E910509F1823E910509F0C0CF8091CF
:1014E000A40382FD21C0CE01DF91CF910895863EF5
:1014F000910561F1873E910571F1843E910509F0F6
:10150000AECF8091A50381FFEECF8091A403C7EEFB
:10151000D0E084FD0DC0E7CF8091A40380FD33C0EF
:101520009091A50390FFDFCFC3EED0E084FFDBCF27
:10153000D0E0C0E0D8CF8091A40382FDFFC090919D
:10154000A50390FDFEC084FFCECFF2CF8091A4030F
:1015500083FDDDCFC8CF8091A40383FDF5C09091BA
:10156000A50391FFF0CFC4EED0E0BDCF8091A403DE
:1015700085FFB9CFA6CF8091A40385FDE8C08091F7
:10158000A50383FFB0CFC9E3D0E0ADCF8091A40322
:1015900086FFA9CFCAE2D0E0A6CF8091A40386FF40
:1015A000A2CFC1E3D0E09FCFC13CD10508F6C85A15
:1015B000D0E0CC0FDD1FC855DE4F0990D881C02D7B
:1015C000D46491CFC11540E2D40708F0AAC0C11578
:1015D00081E0D80708F087CFC83ED10508F483CF53
:1015E000A7CFC03622E5D20718F5C03432E5D307BD
:1015F00008F053C0C03242E5D40708F047C0C11517
:1016000082E5D80708F47FC02C2F2695269540E266
:10161000249F900111248C2F8370C1E0D0E002C080
:10162000CC0FDD1F8A95E2F7C22BD32BDD685BCF91
:10163000C03A22E5D20760F4C03832E5D30708F497
:1016400041C0CF71D0E0DC2FCC27C46FD06A4BCF24
:10165000C03C42E5D40708F44AC0C03E82E5D80742
:1016600008F066CFDC2FCC27CC27DF71C06FD06AA3
:101670003ACFC55AD0E0CB55DE4FC881D0E0D06418
:1016800032CFD06530CFDF70D06A2DCFCF71D0E0B0
:10169000DC2FCC27C16FD06A26CF2C2F269526951C
:1016A000277080E2289F900111248C2F8370C1E065
:1016B000D0E002C0CC0FDD1F8A95E2F7C22BD32BFE
:1016C000DC6811CF2C2F26952695277040E2249FA9
:1016D000900111248C2F8370C1E0D0E002C0CC0FA8
:1016E000DD1F8A95E2F7C22BD32BDA68FCCE8C2F54
:1016F0008F710E94D809C82FD0E0DC2FCC27CC27CF
:10170000DF71D062F0CE8C2F8F710E94D80935E046
:10171000D695C7953A95E1F7CF709C2FEC01D0692B
:10172000E2CE8D2F8F710E94D80990E0982F8827E4
:1017300088279F719C012C2BE901E3CFC2EED0E0FA
:10174000D2CEC0EED0E0CFCEC6EED0E0CCCEC5E358
:10175000D0E0C9CE80916403811110926403089592
:101760008091020581110FC0109207050E94AA0BFB
:101770000E949E0788579C4E909301058093000518
:1017800081E0809302050895809590910605982345
:10179000909306050895809590910705982390935E
:1017A00007050895452B39F0682381E06F3F09F064
:1017B00080E08170089581E0FCCF80915A03909180
:1017C0002903981301C008958F5F8770FACF292FDE
:1017D0009A3078F5863068F590E036E0239F800DEA
:1017E000911D1124682F677023E0969587952A959F
:1017F000E1F7FC01EE0FFF1FE80FF91FE55FFC4F5B
:1018000050E040E080E0219130E0062E02C03695A5
:1018100027950A94E2F721703327042E01C0220F86
:101820000A94EAF7822B4F5F5F4F4330510559F717
:10183000089580E00895292F9A3098F5863088F52C
:1018400090E036E0239F800D911D1124282F2770F2
:1018500041E001C0440F2A95EAF723E09695879569
:101860002A95E1F7FC01EE0FFF1FE80FF91FE55F76
:10187000FC4F30E020E070E05191DF011197CB0187
:10188000022E02C0969587950A94E2F781708195A1
:101890008527842385278C932F5F3F4F2330310585
:1018A00059F7089580935E05089580915E05982FFD
:1018B0009670963021F488600E94520C0895877FBC
:1018C000FBCF21E030E001C0220F8A95EAF7209596
:1018D00080915E0582230E94520C089590915B03D3
:1018E0008095892380935B03282F277091F4282FFC
:1018F000082E000C330B9217130659F09091A50394
:1019000092FF07C08595859585950E94610C109280
:101910005B03089521E030E001C0220F8A95EAF7C9
:1019200080915E05822B0E94520C0895809365037E
:101930000895829590E09C01220F331F220F331FE0
:101940002C7C95958795959587958373282B30E00A
:10195000C901880F991F8A7A359527952575822B9D
:1019600008959C01832F817031FD82600895FC01F0
:101970008281823041F0833041F0813019F482E07D
:101980000E948A0C089583E0FBCF85E0F9CFFC012B
:101990009281913049F4858182FF02C080FF1EC090
:1019A00080FF1CC083E00895923049F4858182FF56
:1019B00002C080FF15C080FD15C084E008959330FB
:1019C00049F4858182FF02C080FF0EC080FD0EC0F9
:1019D00087E00895943060F481E0089582E00895EE
:1019E00086E0089585E0089589E0089588E00895E7
:1019F0008AE008959FB7F894109216059FBF9091C2
:101A00002505943009F048C02091E9002F703091ED
:101A1000EC00932F917030FD90E8922B25E02093FD
:101A2000E9002091EB0020FF34C02091EE0027FF59
:101A300030C020911505222321F02091E80025FFD8
:101A400028C01092150526E03091E80035FF14C03B
:101A50008093F1008091E80085FD27C08091E80027
:101A600080FFFCCF8091E8008E778093E8009F7024
:101A70009093E90080E0089530912505343049F4D1
:101A80003091EB0035FD05C0215041F481E0809399
:101A900015059F709093E9008FEF0895EFE9FFE03F
:101AA0003197F1F700C00000CFCF8FB7F89421E055
:101AB000209316058FBFDBCF0F931F93CF93DF9338
:101AC0008B01EA0190912505943061F58093E9003E
:101AD0008FEF9091E800815095FD06C095ED9A95A5
:101AE000F1F700008111F5CF8091E80085FF1AC061
:101AF0000E944406811111C08091E80085FD06C056
:101B00008091E8008E778093E800F2CFF801819110
:101B10008F018093F100219779F78091E8008E770B
:101B20008093E800DF91CF911F910F91089543E0DA
:101B300050E0BC0184E00E945C0D0895CF93DF93D8
:101B4000EC0148E050E0BC0181E00E945C0D88E0BF
:101B5000FE01ABE1B5E001900D928A95E1F7DF91CE
:101B6000CF91089581E08093E00080E28093D800D7
:101B70001092C9008FE19EE40197F1F700C00000C8
:101B800087E090EBDC0180935F0590936005A09364
:101B90006105B093620588E19CE00FB6F894A895C2
:101BA000809360000FBE90936000FFCF6E9A3EB1AD
:101BB0003F7B2EB120644FB7F89484E394E0FC019E
:101BC0005191CF0168E02EB9000000C057FF3EB927
:101BD000550F000000C000C000C03EB900C06A95AB
:101BE00091F7F5E080309F0751F74FBF8FE594E004
:101BF0000197F1F700C000000895809170038111F2
:101C000010C08091D80080618093D8008AE18A95C5
:101C1000F1F700C08091D90080FF0AC081E0809375
:101C2000700381E090917003913009F080E0089595
:101C300082E0809370030E94250610922505F1CF63
:101C40000E94FD0D882359F0E0910C05F0910D05DF
:101C5000309729F00190F081E02D0995089580E0FA
:101C600008950F931F930E94FD0D882329F00E9471
:101C700092071F910F9108950E949207009194037B
:101C8000109195032091960330919703600F711F77
:101C9000821F931FEECFCF92DF92EF92FF926B01E4
:101CA0007C010E94FD0D8823A1F02FB7F89460916C
:101CB00011057091120580911305909114052FBFA5
:101CC0006C197D098E099F09FF90EF90DF90CF90EE
:101CD00008950E94310EF4CFCF93DF93C6EFD2E088
:101CE00060E0CE010E94CA332196C11584E0D80776
:101CF000B9F7DF91CF9108951F93CF93DF93122F00
:101D00008630E0F46A30D0F44630C0F4C42FD0E01E
:101D1000CC0FDD1F9CE0699FC00DD11D112498E7F9
:101D2000899FC00DD11D1124632FCE0186960E947C
:101D3000CA33612FCE0187960E94CA33DF91CF91BB
:101D40001F910895AF92BF92CF92DF92EF92FF92D0
:101D50001F93CF93DF9382E8C82E86E0D82ED0E081
:101D60007601C0E014C0F50125913491412F6C2F0C
:101D70008D2F0E947C0E82E0A80EB11C1F5F1630D2
:101D800091F78CE0E80EF11CCF5FCA3019F05701D3
:101D900010E0E9CFDF5F88E7C80ED11CD63001F72D
:101DA000DF91CF911F91FF90EF90DF90CF90BF9088
:101DB000AF900895CF93C82F6FEF811162E282E256
:101DC00090E00E94CA336FEFC11162E183E290E0BC
:101DD0000E94CA336FEFC11166E184E290E00E9475
:101DE000CA33CF91089580E00E94DA0E60E085E268
:101DF00090E00E94CA330E94A20E0E946C0E81E005
:101E00000E94DA0E08950F931F93CF93DF938630CD
:101E100030F56A3020F5463010F5C42FD0E0CC0FF5
:101E2000DD1F2CE0629FC00DD11D112438E7839F78
:101E3000C00DD11D1124CE0186960E94AC33082F0F
:101E400010E0102F0027CE0187960E94AC33980136
:101E5000282BC901DF91CF911F910F91089590E038
:101E600080E0F8CF462F7A3040F4663030F4863088
:101E700020F4672F0E94030F089590E080E00895FA
:101E8000CF92DF92FF920F931F93CF93DF936C015A
:101E900000915E0580916503082BC7E0D0E010E05B
:101EA000FC2EC8010C2E02C0959587950A94E2F786
:101EB00080FD0CC02197A0F7F12C8F2DDF91CF91E1
:101EC0001F910F91FF90DF90CF900895B6018C2F56
:101ED0000E94320F0E941B0A019761F3EECFCF934D
:101EE000DF93EC010E94400FBE010E94320F0E945E
:101EF0001B0ADF91CF9108950F931F93CF938C010D
:101F0000FC0143815481618180810E94D20BC82FE2
:101F1000811123C0F801808191810E946F0F9295F9
:101F20009F709630A9F058F4925F9F70923058F4E9
:101F3000803F19F030F4883E30F4C1E004C09A5F6D
:101F4000F4CF843FD1F38C2FCF911F910F9108953F
:101F5000883E98F3813FB9F7F0CFC0E0F4CFA5E019
:101F6000B0E0E5EBFFE00C94C13225E0FC01DE01BE
:101F7000119601900D922A95E1F7FC012281898149
:101F80009A81222399F0662389F00E94400F182F2E
:101F9000682F89819A810E941B0C69817A81812F27
:101FA0000E94320F2596E3E00C94DD320E94E70B8D
:101FB000182FF3CF82E290E00E94AC33823289F492
:101FC00083E290E00E94AC33823159F484E290E0E5
:101FD0000E94AC3391E0863109F090E0892F817046
:101FE000089580E0FCCF46E050E06CE170E088E5C9
:101FF00095E00E94BA3310923304089580935C05F3
:1020000090913304962B909333049091320490FF77
:1020100016C029E731E0662311F02BE731E01F926B
:102020008F933F932F9383EB95E09F938F930E9421
:10203000EA050F900F900F900F900F900F9008955A
:1020400080915C0520E1382F321B08F430E0832FAB
:1020500061E00E94FE0F089580915C0520E1382F19
:10206000320F08F43FEF832F61E00E94FE0F0895C6
:1020700030915805337071F18093590560935A057A
:10208000493708F048E740935B0530913304322B21
:10209000309333043091320430FF1CC050E0992754
:1020A000211119C029E731E05F934F931F926F937D
:1020B0009F938F933F932F9380E995E09F938F9306
:1020C0000E94EA058DB79EB70A960FB6F8949EBF98
:1020D0000FBE8DBF08952BE731E0E6CFE8E5F5E0D0
:1020E000438120E1421B08F440E0818121E06281CC
:1020F00090E00E9438100895E8E5F5E0438120E182
:10210000420F08F44FEF818121E0628190E00E944C
:1021100038100895E8E5F5E0628120E1621B08F4DB
:1021200060E0818121E0438190E00E9438100895B1
:10213000E8E5F5E0628120E1620F08F46FEF81814C
:1021400021E0438190E00E9438100895E8E5F5E031
:10215000818121E0438162818850990B0E9438106F
:102160000895E8E5F5E0818190E021E04381628116
:1021700008960E943810089590915805937051F177
:10218000811129C094609093580510926601809146
:102190003304862B809333048091320480FF1AC06D
:1021A000209158052695269589E791E0662311F040
:1021B0008BE791E01F922F939F938F9386E795E093
:1021C0009F938F930E94EA050F900F900F900F90AE
:1021D0000F900F900895883010F09C61D4CF880F35
:1021E000880F982BD0CF8091580586958695815081
:1021F00009F487E061E00E94BC10089580915805C1
:10220000869586958F5F883008F081E061E00E94B6
:10221000BC10089590915805292F237031E0232791
:102220009C7F922B909358051092660190913304F5
:10223000982B909333049091320490FF14C0811135
:1022400013C089E791E01F922F939F938F938FE3A1
:1022500095E09F938F930E94EA050F900F900F9047
:102260000F900F900F9008958BE791E0ECCF809145
:10227000320480FF08C08BE195E09F938F930E940A
:10228000EA050F900F908DE08093580580916B01C7
:1022900090916C01A0916D018093590590935A051E
:1022A000A0935B0588E780935C058FEF80935D05C5
:1022B0000E94F30F0895B0E0A0E0E1E6F1E10C9494
:1022C000B7327C015B01842E752E69018091710308
:1022D00001E010E08A3010F40AE010E0C1E0D0E044
:1022E000B501C701F6010995982E811114C02196F8
:1022F0000C171D07B4F48091320480FF0CC07F924C
:102300008F928EE592E09F938F930E94EA050F9043
:102310000F900F900F90892DCDB7DEB7EDE00C94A4
:10232000D332CC9F9001CD9F300D300D112490E021
:1023300080E045E34A95F1F7000001962817390738
:10234000C1F7CECFB0E0A0E0E8EAF1E10C94B532FD
:10235000182F80916501811323C0909158059370C7
:102360002091640130E081E09217130609F480E0C7
:10237000817080936A0180915D0590916901981741
:1023800039F08093690140E060E080E00E9431080C
:10239000183060F4E12FF0E0ED5AFB4C0C941D3343
:1023A00081E0E6CF80916A01811102C080E0A0C087
:1023B00040E060E080E00E943108F8CFC091680101
:1023C0008EE0C89FC02D11240EE00C0F053408F0DC
:1023D00004E40E940809882319F0033208F002E29D
:1023E0000E940809811103C0C23208F4C2E2609160
:1023F000590570915A0580915B050E947408F62E6C
:10240000E72ED82ED0E0C01710F0802F6FC0FE014D
:10241000E454FD4F808190916901892331F02D2D85
:102420004F2D6E2DCE010E942E082196ECCFE0900C
:102430006801DEE0ED9ED02D1124CEE0CD0FC53435
:1024400008F0C4E40E940809882319F0C33208F098
:10245000C2E20E940809811103C0D23208F4D2E21C
:102460006091590570915A0540915B05E0912D04EA
:10247000F0912E0480915C0586958695869530E0D6
:1024800020E0E89F212DF89F200D311D1124922F6F
:1024900096FD2095322F3F7096FD3F5F269526953D
:1024A00026952670E22FF0E0E452FE4F8181839F53
:1024B000802D312D112482958F703295307F832BA2
:1024C0002081820F97FD819587FD8195880F282FA8
:1024D000249F212D1124822F0E947408062FD72EAD
:1024E000C82EED2EF12CEC16D8F08C2F0E9431095D
:1024F000909168019F5F9093680181110CC082E008
:102500008093660180916A01811105C0111103C099
:1025100083E080936601CDB7DEB7EFE00C94D13253
:10252000F701E454FD4F808190916901892331F0D6
:102530002C2D402F6D2DC7010E942E084FEFE41A5D
:10254000F40AD1CFC09168018EE0C89FC02D11243C
:102550000EE00C0F053408F004E40E9408098823FB
:1025600019F0033208F002E20E940809811103C049
:10257000C23208F4C2E230915C053695369521E00E
:10258000320F08F43FEF40912D0450912E0490E05B
:1025900080E0439F812D539F800D911D1124F82EC3
:1025A000D0E0C01708F031CFFE01E454FD4F808128
:1025B00090916901892391F06091590570915A05B4
:1025C00080915B052F2D4C2F0E944A080E947408B1
:1025D000462F282F672FCE010E942E082196E1CF8B
:1025E000E09068018EE0E89EE02C11247EE0F72E5A
:1025F000FE0C94E49F1510F464E4F62E0E94080982
:10260000882329F0A2E2AF1510F452E2F52E0E94C1
:102610000809811105C0B2E2EB1610F442E2E42E83
:1026200080916A01882361F040E060E080E00E94D0
:102630003108E4ECF3E08CE3DF011D928A95E9F7C1
:1026400080916801811115C08091C0039091C103F0
:102650000E94830721E08931910508F420E020934E
:10266000BF03499730F00E949E079093C103809367
:10267000C003A12C912CB12C96E0792E25E5622E79
:102680003AEA832E5524539405C0ADE0A91508F409
:1026900053C0B12C2B2D30E07A9CE0011124FE01B7
:1026A000E850FE4FE20FF31FC080CE1408F43CC088
:1026B000CF1408F039C09394D12CF601E454FD4FA7
:1026C000808190916901892309F42EC0CC53DC4F9D
:1026D000C20FD31F0881302F262D321B08F430E0A3
:1026E00070915A05282D200F08F42FEF40915B05BB
:1026F000822F880F820F8E5F282F249F212D112477
:10270000822F682D631B0E947408462F282F672F85
:10271000C6010E942E088091BF03882329F0452D11
:10272000041B08F400E00883B39486E0B812B2CF2B
:10273000A3949AE0A912A9CF8F2DD8CE00915B0562
:10274000B3E00B9FE0011124D695C795D695C795A8
:102750005C2EA02EB12C8FEF90E0B5010E940933C2
:10276000762E80916A01882371F040E060E080E07D
:102770000E943108E4ECF3E08CE3DF011D928A95BE
:10278000E9F71092C3038091C2038F5F8093C20365
:10279000F12CE12CAC1ABD0A6701612CD701AC53B6
:1027A000BC4F4D018091C303862909F045C00E94AA
:1027B0007633853595400CF03FC0F4010083F60177
:1027C000E850FE4FE081EF3FD1F0D601AC53BC4F53
:1027D0002C91F0E0521608F040C030E02C1B3D0B6D
:1027E0002C9FC0012D9F900D3C9F900D1124B50191
:1027F0000E94F532262F402FCF010E942E086394AD
:10280000F6E0CF0ED11C2AE06212CCCF4FEFE41AD3
:10281000F40A86E0E816F10409F0BECF8091C20305
:10282000781202C01092C2038091C3038F5F8D3172
:10283000F0F48093C303BACDF601EC53FC4F8081D2
:10284000882309F4BCCF801708F0B9CF9091C20358
:102850007912B5CF81508083B2CF029FC00111247D
:10286000BE010E94F532462F20E060E0C5CF1092F5
:10287000C30324EF33E089E09FEF900FE4ECF3E033
:10288000D901893021F446A9041301C096AB4D91BA
:10289000401730F0ED012197988315960C9315970A
:1028A000319643E0EA3CF40761F781502650310944
:1028B0008111E4CF7BCD87E298E00E94410918CED8
:1028C00081E298E0FACF4F925F926F927F928F925F
:1028D0009F92AF92BF92CF92DF92EF92FF92609160
:1028E000290470912A0480912B0490912C040E9459
:1028F0004B0E6B017C010E94310E4B015C018092FA
:10290000290490922A04A0922B04B0922C04A09146
:102910000004E0E0F4E08A2F90E04FEF5FEF60E02A
:1029200070E04C195D096E097F09A91328C08093D6
:10293000000480913104811135C090915805892F90
:10294000837019F0892F8695869590916601913054
:1029500009F441C0992341F1923009F43FC093300A
:1029600009F43FC0FF90EF90DF90CF90BF90AF9001
:102970009F908F907F906F905F904F900895218DE2
:10298000328D2901712C612C44155505660577059A
:1029900020F481509F5F3296C8CF2C0D3D1D328FA1
:1029A000218FF8CF80E0D1CF1092680180922D0462
:1029B00090922E04A0922F04B092300489E2E0E0BD
:1029C000F4E0AFE2B5E001900D928A95E1F781E085
:1029D00080936601C7CF0E94A211C4CF0E94140841
:1029E000C1CF8091330481110E94F30F60912D04B7
:1029F00070912E0480912F04909130040E944B0E10
:102A0000603171058105910508F4ACCF1092660123
:102A1000A9CFCF93C82F8091A50382FB992790F966
:102A20009C17F9F0C0FB82F98093A5036091A40381
:102A30007091A50384E090E00E94E83382E00E9458
:102A40006E0C8091320480FF0CC01F92CF9386EEF3
:102A500091E09F938F930E94EA050F900F900F9043
:102A60000F90CF91089590E080E00E94B433873EAC
:102A70009E4F19F40E94DA0F089580E00895AFE0A8
:102A8000B0E0E5E4F5E10C94B7328E010F5F1F4F23
:102A90008AE0D8011D928A95E9F78CE2C82E81E080
:102AA000D82EF12CE12CAA24A394B12C2CE2822E56
:102AB00021E0922EF60181916F018F3F09F442C00F
:102AC000F894E82FE295EF70F0E021A18F70A50156
:102AD00002C0440F551F8A95E2F7CA01922F982B26
:102AE00091A392A18095892382A3789400C0E6E205
:102AF000F1E0712C31E021912F3F09F46BC0A22F3E
:102B0000A295AF70B0E090968C9190E02F7002C0CB
:102B1000959587952A95E2F780FD5CC0832F782AEA
:102B2000330F8E169F0639F7F601319780818F3F5C
:102B300011F00E94C10950EA5A95F1F7F801EE0D23
:102B4000FF1D70828FEFE81AF80AA5E0EA16F1047B
:102B500009F0B0CF4AE050E0B80188E993E00E9464
:102B60008633009741F02AE0F801A8E9B3E001902C
:102B70000D922A95E1F70091A303892B69F181E079
:102B8000809368030E949E07909367038093660377
:102B900080916603909167030E948307059700F177
:102BA00010E00B541C4F45E050E068E973E0C801A9
:102BB0000E948633C12C892B51F085E0E8E9F3E0CF
:102BC000D80101900D928A95E1F7CC24C39410921C
:102BD000680307C080E0A3CF809168038111D8CF3C
:102BE000C12C0E94FD0DD82EE091A303882309F487
:102BF00092C07E01BBE0EB0EF11C85E0D7011D9277
:102C00008A95E9F70E2F10E00B541C4FB09071031A
:102C1000B9E0BB15E0F121EA37E242E851E0B70143
:102C2000C8010E945B11882309F453C029EE36E2E3
:102C30004FE851E0B701C8010E945B11882309F4F5
:102C400048C02FE337E24AE951E0B701C8010E94CA
:102C50005B118823F1F1F9E0FB1508F453C01092E1
:102C600071038091A20390E045E050E0B7018B54DE
:102C70009C4F0E94863321E020936F03892BE1F45F
:102C8000D12C8D2D8C292F96EDE00C94D332809190
:102C9000690390916A030E948307843F914008F082
:102CA000BACF80916F03882359F385E0D7011D9235
:102CB0008A95E9F710926F03A091A203B0E0AB549C
:102CC000BC4F85E0FE013B9601900D928A95E1F79D
:102CD000D8CF809171038F3F31F08F5F8093710364
:102CE0008A3008F4BECF0E949E0790936A038093B7
:102CF00069038091320480FFD4CF88E292E00E9481
:102D00005105CFCF8091320480FFA9CF85E192E0B9
:102D10000E945105A4CFF0E0EB54FC4F85E0A0E801
:102D2000B3E001900D928A95E1F780E893E00E946C
:102D30000E0680937F038090850390908603A09079
:102D40008703B090880380916B0390916C03A091EE
:102D50006D03B0916E0388169906AA06BB06D1F0E2
:102D600080926B0390926C03A0926D03B0926E03FD
:102D70000E94FD0D81110EC00E949207861A970ACB
:102D8000A80AB90A8092940390929503A0929603A0
:102D9000B092970386E0E9E8F3E0A8E5B5E001909A
:102DA0000D928A95E1F710918F03112349F08091DC
:102DB0003104811105C00E94A21180E00E94140814
:102DC000109331045ECF0F931F93CF93DF938091C5
:102DD000070590910605892B809302039091640367
:102DE000992391F0892B8093020320E084E093E003
:102DF000FC013191CF0131112F5FF3E08A309F0741
:102E0000B9F721110E94AA0B48E050E06CE573E08D
:102E100082E093E00E948633892B09F441C088E068
:102E2000E2E0F3E0ACE5B3E001900D928A95E1F7C2
:102E3000E0910C05F0910D05309791F10280F3813E
:102E4000E02D82E093E009958091320482FF28C052
:102E500080FF04C083E092E00E945105D0E0C0E012
:102E60000DEF11E08091320480FF0EC0FE01EE5F95
:102E7000FC4F80811F928F931F930F930E94EA054E
:102E80000F900F900F900F902196C830D10551F7F9
:102E90008091320480FF04C08BEF91E00E945105C5
:102EA000DF91CF911F910F910895CF93DF93EC01A4
:102EB000EA85FB85309719F06C857D8509958B81B6
:102EC0000E94C40B8C810E94CB0B0E94E31686E00B
:102ED000FE0111928A95E9F7DF91CF910895CF9382
:102EE000DF93EC018D8181FD18C082608D8380911C
:102EF00006059B81892B80930605809107059C819F
:102F0000892B809307050E94E316E885F9853097A1
:102F100021F06C857D85CE010995109209051092EE
:102F200008058D8180FD03C0CE010E945517DF91F9
:102F3000CF91089510920705E4E0F3E086E0DF0109
:102F40001D928A95E9F790E080E00E94E90790E001
:102F500080E00E94C407109206050E94E3160895BF
:102F6000AAE2B0E0E6EBF7E10C94C13287E295E02B
:102F70002091F100DC012D93CD01B5E08F329B074C
:102F8000B9F780912805833009F472C0B8F4813014
:102F900009F449C0823009F4B3C08091E80083FF8E
:102FA00091C280912705909128059A3008F08AC235
:102FB000E92FF0E0E55AFB4C0C941D338A3009F4FC
:102FC0008EC08B3009F471C0893039F780912705A4
:102FD000813219F780912B0590912C05009711F003
:102FE0000297D9F68091E800877F8093E80080916E
:102FF000E80082FF38C09091F3008091F2000297C0
:1030000031F48091F100813011F0863021F480910B
:10301000F10080931A058091E8008B778093E80097
:103020000E947506BACF80912705813A09F0B5CF85
:103030008091E800877F8093E80080912B05909134
:103040002C05892B61F468E08BE195E070E00E942B
:1030500021078091E8008B778093E8009ECF60E0A5
:1030600090E080E0F3CF809125058111C0CF95CF0E
:1030700080912705813A09F090CF80912B0590919E
:103080002C05892B09F089CF8091E800877F8093F8
:10309000E8008091E80080FFFCCF80916701809379
:1030A000F1008091E8008E77B9CF809127058132B9
:1030B00009F073CF80912B0590912C05892B09F095
:1030C0006CCF8091E800877F8093E8000E947506AE
:1030D00080912905809367010E949A175ECF8091A5
:1030E0002705813209F059CF8091E800877F8093CE
:1030F000E8000E94750680912A05809319054DCF3E
:1031000080912705813A09F048CF8091E800877FB8
:103110008093E8008091E80080FFFCCF8091190542
:10312000BECF803899F0823809F0CCC180912B0550
:103130008F70873008F0C6C18093E9008091EB0062
:1031400085FB882780F91092E90006C0809123054D
:1031500090912405911182609091E800977F90935F
:10316000E8008093F1001092F1008091E8008E77E2
:10317000A5C1882309F493C1823009F0A3C18091CD
:103180002905811196C180912B058F702FEF280F93
:10319000263008F097C18093E9002091EB0020FFD2
:1031A00088C1933031F48091EB0080628093EB0012
:1031B00080C19091EB0090619093EB0021E030E0B2
:1031C00001C0220F8A95EAF72093EA001092EA00E4
:1031D0008091EB008860EACF811174C110912905BC
:1031E0001F778091E3008078812B8093E3008091AA
:1031F000E800877F8093E8000E9475068091E800D0
:1032000080FFFCCF8091E30080688093E30082E040
:10321000111183E08093250555C18058823008F054
:1032200051C12091290530912A052C3DE3E03E074C
:10323000A1F583E08A838AE289834FB7F894DE019F
:10324000139620E03EE051E2E32FF0E05093570068
:10325000E49120FF03C0E295EF703F5FEF708E2F87
:1032600090E0EA30C0F0C7968D939D932F5F243194
:1032700059F74FBF8091E800877F8093E8006AE2AA
:1032800070E0CE0101960E9421078091E8008B77C3
:103290008093E80017C1C096E7CF80912B059091ED
:1032A0002C05432F55274330510509F44AC078F5C2
:1032B0004130510509F47AC08BE790E0E6E6F9E089
:1032C0004230510509F0FEC02091E800277F20938D
:1032D000E80020912D0530912E058217930708F400
:1032E0009C0140E02115310509F065C0411163C022
:1032F0008091E80082FDC9CF80912505882329F2BD
:10330000853019F28091E80083FFF2CFBECF4132C1
:10331000510509F43CC04232510509F0D3C0843054
:10332000910508F0CFC0FC01EE0FFF1FE851FE4FE2
:103330000190F081E02D8C519E4FDC018C9190E04A
:103340001AC0332721303105D1F02115310561F044
:103350002230310509F0B6C0E3EFF9E0E4918E2F99
:1033600090E0E3EFF9E007C0E1E1FAE0E4918E2FAD
:1033700090E0E1E1FAE0009709F4A4C0A5CFE1E014
:10338000FAE0E4918E2F90E0E1E0FAE0F4CF8430AF
:10339000910508F097C0880F991FFC01E051FE4F7E
:1033A0000190F081E02D89E090E08ECF82E190E005
:1033B000E1EEF9E089CF80912505882309F465CFF6
:1033C000853009F462CF8091E80083FD5ECF809163
:1033D000E80082FD8DCF8091E80080FF83CF90913F
:1033E000F3008091F2002115310519F08830910524
:1033F00050F041E0089709F040E08091E8008E77B6
:103400008093E8006FCF44914093F10031962150B2
:1034100031090196E8CF803809F054C08091E80066
:10342000877F8093E800809126058093F1009DCEF0
:10343000811148C010912905123008F043C08091D5
:10344000E800877F8093E800109326050E947506A8
:10345000112311F084E005C08091E30087FDFACFCD
:1034600081E08093250542E061EC81E00E949406B2
:1034700042E261EC84E00E94940642E261EC82E068
:103480000E94940642E260EC83E00E94940642E2CD
:1034900061EC85E00E9494068091250513C080911F
:1034A0002905813079F481E0933009F080E0809340
:1034B00024051092E9008091E800877F8093E8005E
:1034C0000E9475068091E80083FF0AC08091E800A1
:1034D000877F8093E8008091EB0080628093EB000F
:1034E000AA96E3E00C94DD320E949A172FEF84E352
:1034F0009CE0215080409040E1F700C0000088E14E
:103500009CE00FB6F894A895809360000FBE90934E
:103510006000FFCF882321F00E94C40B0E94E316B5
:10352000089580910205882329F082E20E948A1A78
:10353000109202050895882339F090910605982B82
:10354000909306050E94E3160895882321F00E94B7
:10355000CB0B0E94E3160895882339F0909107055C
:10356000982B909307050E94E3160895882391F104
:103570009CEF980F913A80F4E4E0F3E02AE033E026
:103580009191891303C0DF0111971C922E173F07F9
:10359000B9F70E94E316089590E2980F983050F41E
:1035A000877091E001C0990F8A95EAF7892F0E94F0
:1035B000CB0BEFCF9BE5980F933028F490E080E0A1
:1035C0000E94E9070895885A893120F490E080E04C
:1035D0000E94C407089580910501843069F040F489
:1035E000833071F081E00E94610C10920501089512
:1035F000853069F08630B1F789E30E94B61AF2CFC0
:1036000084E00E94A51A81E00E94610CEBCF85E066
:10361000F8CF80910501843061F038F4823069F090
:10362000833079F0109205010895853071F086306D
:10363000C9F780E00E948A0CF5CF87EE0E94B61A87
:10364000F1CF80E80E94A51AEDCF80E80E94A51A6C
:1036500081E00E94610CE6CFCF93C82F8823B1F0A0
:103660008CEF8C0F813A00F5E4E0F3E08AE093E020
:10367000DF012D91C21761F08A179B07D1F76C2FDC
:1036800082E093E00E94AA070E94E316CF9108957A
:103690002191C21303C0DF0111971C928E179F075F
:1036A000B9F70E94E316EBCF80E28C0F883068F404
:1036B000C77021E030E001C0220FCA95EAF780917F
:1036C0000705822B80930705DFCFEBE5EC0FE33096
:1036D00040F4F0E0EB55FE4F808190E00E94E90756
:1036E000D5CFC85AC93190F6EC2FF0E0EE0FFF1F8E
:1036F000E855FE4F808191810E94C407C7CF1F9378
:10370000CF93DF93182FD0E0C0E0893311F4C0E5E8
:10371000D0E0812F0E942C1B209739F4812F0E942A
:10372000B61ADF91CF911F9108958FE99FE001971D
:10373000F1F700C000002197EFCFB0E0A0E0E3EA8E
:10374000FBE10C94BC326B01C42FD22FFC018281AF
:103750008823A9F0409305050E949E0790930405D5
:1037600080930305C77081E001C0880FCA95EAF70E
:103770000E94AC1ACDB7DEB7E8E00C94D8321091B5
:103780000505141337C080910305909104050E942C
:1037900083077C01C6010E94F305E816F90650F57F
:1037A000C0E2CD0F1D17C1F080E2810F883048F4D0
:1037B000177081E0012E01C0880F0A94EAF70E9479
:1037C000A51AC83048F481E09D2F977001C0880F7A
:1037D0009A95EAF70E94AC1A802F0E947F1BC8308E
:1037E00048F6D77081E001C0880FDA95EAF70E94A9
:1037F000A51AC0CFC77081E001C0880FCA95EAF74B
:10380000F6CFB0E0A0E0E7E0FCE10C94BD32E82F99
:10381000F0E0EE5FF94FD490282F26952695269557
:1038200030E0F901EE50FA4F0491877010E0082E55
:1038300002C0159507950A94E2F701701127F90166
:10384000EE51FA4FE490F12C082E02C0F594E79463
:103850000A94E2F791E0E922FF24F901EE52FA4FCF
:10386000C491D0E002C0D595C7958A95E2F7C170A2
:10387000DD270115110519F081EE0E942C1BE114C2
:10388000F10419F086EE0E942C1B8D2D0E947F1BE7
:10389000E114F10419F086EE0E94B61A0115110523
:1038A00019F081EE0E94B61ACD2B19F08CE20E941D
:1038B0007F1BCDB7DEB7E7E00C94D932FF920F93B0
:1038C0001F93CF93DF938C018AE0F82EF801849147
:1038D000882309F44BC0813009F044C0E8012196E7
:1038E000FE018491813049F42196FE0184910E9469
:1038F0007F1B8E010F5F1F4FE9CF823039F4E80143
:103900002296FE0184910E942C1BF3CF833039F460
:10391000E8012296FE0184910E94B61AEACF843013
:1039200041F7E8012296FE01249190E080E0FE013B
:1039300031962053330B2A30310548F00197C8F2F5
:10394000EFE9FFE03197F1F700C00000F7CFF89EF4
:10395000A001F99E500D1124C901840F951F2491D7
:10396000EF01E5CF0E94011CE801C3CFCDB7DEB760
:10397000E5E00C94DB320F931F93CF93DF938C0120
:1039800080910501863021F1B0F4823009F1843054
:10399000F9F082E00E94610C83E00E94610C85E0F6
:1039A0000E94610C1092070510920501DF91CF91E2
:1039B0001F910F910895873079F08950C1E0D0E0D0
:1039C000823038F7F80182818C171D0609F044F423
:1039D00088E20E94B61ADDCF80E00E948A0CD9CF1F
:1039E00088E20E947F1B2196EDCF0F931F93CF9308
:1039F000DF93C82F8B010E94B10CD82F0E949B1A15
:103A00008C2F0E942C1B0115110559F48C2F0E943C
:103A1000B61A8D2F0E948A1ADF91CF911F910F91B4
:103A200008958FE99FE00197F1F700C00000015071
:103A30001109E9CF0E94C70C809305018430E1F0A1
:103A400028F4823041F0833081F008958530D1F040
:103A5000863091F0089580910205882319F00E9424
:103A6000911A08950E94B00B089584E00E94AC1A48
:103A700081E00E948A0C08950E94911A89E30E94B5
:103A80002C1B089585E0F2CF0E94C70C809305019E
:103A9000843099F028F4823041F0833051F0089559
:103AA0008530D9F0863049F0089587EE0E942C1BAE
:103AB000089580E80E94AC1A089581E00E94610C8C
:103AC00082E00E94610C83E00E94610C84E00E940D
:103AD000610C85E00E94610C089580E80E94AC1A98
:103AE00081E00E948A0C08950E94C70C8093050112
:103AF000863079F028F4823041F0843051F0089516
:103B0000873059F08950823070F488E20E942C1B73
:103B1000089588E20E947F1BF8CF81E00E94610C2B
:103B200084E00E94610C0895A8E0B0E0EAE9FDE1BC
:103B30000C94B8327C01DC0113964D915C91149782
:103B400011966C9111978C910E94D20BA82E811125
:103B5000D0C061E0C7010E94AF0F8C01F7018281E4
:103B6000882309F180910805909109050097D9F003
:103B700008171907C1F0FEE08F9FC0011124FC0156
:103B8000E15CFE4F208124602083865C9E4FDC0137
:103B90000D931C930E946F171092060561E0C701F8
:103BA0000E94AF0F8C01F7018281882309F4ECC5D4
:103BB0009801225037472031310508F0D1C58FEFE9
:103BC00093E00E94AC33811184C0025056EFC52EA1
:103BD00052E0D52E01114AC0FE01339686E0DF0186
:103BE0001D928A95E9F74AE0942E86010F5F1F4FD8
:103BF000C6010E94AC3389831A82882309F469C004
:103C0000813009F07AC05601B2E0AB0EB11CC80198
:103C10000E94AC338A83882309F45BC09FEF980F1E
:103C2000933090F5E3E0CE0ED11CC5010E94AC3379
:103C30008B83882309F44DC01C828E010F5F1F4FB8
:103C4000D8018C91882389F2813009F08FC01196B8
:103C50009C91119712968C91913009F050C00E5F93
:103C60001F4F0E947F1B0F5F1F4FEACFC114F4E06C
:103C7000DF0679F1C6010E94AC33811101C0015009
:103C80002FEFC21AD20AA6CF65018430B1F602E046
:103C900010E06501FFEFCF1ADF0AC5010E94AC33C7
:103CA000E1E0F0E0EC0FFD1FE00FF11F80838823BF
:103CB00081F08C3741F4E2E0F0E0EC0FFD1FE00F03
:103CC000F11F1082BACF0F5F1F4F56010730110549
:103CD00001F780915B03877061F0D70112968C9198
:103CE000882339F08091A50382FF03C082E00E94FF
:103CF0006E0C2896ECE00C94D43268019ECF923082
:103D000029F40E5F1F4F0E942C1BADCF933029F476
:103D10000E5F1F4F0E94B61AA6CF943019F00F5FA6
:103D20001F4FA1CF0E5F1F4F30E020E0B8016F5F43
:103D30007F4FF80141818053990B8A30910558F0EB
:103D40002150310908F48FCF8FE99FE00197F1F7F7
:103D500000C00000F5CF929EF001939EF00D11245B
:103D60009C012E0F3F1F842F8B01E0CF0E94011C6E
:103D70007ACF81E00E948A0C0E94550CAACF81E084
:103D80000E94610CF9CF82E0F5CF8823B9F08BE96E
:103D900091E00E945E1C12C0882381F085E991E0C9
:103DA0000E945E1C70E060E08FE491E00E94F51CD0
:103DB00070E060E087E292E00E94F51CC801975530
:103DC0008F3F910511F008F0A5C048019924AEE09D
:103DD0000A9FF00111249F01265C3E4F6901D70123
:103DE00012968C91E15CFE4F908180FB90F990835C
:103DF000882309F487C00E949E079093B3038093A1
:103E0000B203F60182818F5F8283809106059091D3
:103E10000705892B83838091640384830680F7815F
:103E2000E02D309731F0D6011C966D917C91C60142
:103E300009958EE0889DF001899DF00D1124E65CC6
:103E4000FE4F858181FF5BC090E080E09093080584
:103E50008093090580910205882309F4D0C0C090A1
:103E60000705D09064030E949E0788579C4E90934C
:103E7000010580930005F7018281882309F4BFC002
:103E80008D2D8C298D7909F0B8C00034F2E51F071B
:103E900008F073C0011522E5120708F07DC0011576
:103EA00030E4130708F04BC0011580E2180708F052
:103EB00098C0063E110509F46FC0C8014DC08823A3
:103EC00009F47CCF80E991E06BCF882309F476CFA9
:103ED00070E060E087E391E06FCF882309F46ECF54
:103EE00080E891E056CF882309F468CF8EE691E010
:103EF00050CF882309F462CF82E691E04ACF902F19
:103F0000812FA4CFF901858181FFA4CFC9010E942F
:103F10005517A0CF0337FCE71F0709F09BCFD70148
:103F200012968C91882309F4D4CE809102058823BF
:103F300019F00E94911ACDCE0E94B00BCACE011585
:103F400090E5190708F0B9CFD70115968C91807FBD
:103F500009F455C0C80199271092060588329105C9
:103F600008F05EC08E31910508F061C0049708F436
:103F700044C082E0809306055AC0043BA2E51A07BC
:103F800059F0C801053BB2E51B0728F5805692455C
:103F90008034910508F091CFF7018281882309F4DC
:103FA00014C410920505C8019057839708F0F7C311
:103FB00084E090E00E94B4339093A5038093A4031F
:103FC000F801E150F047E232F10508F067C0EB5923
:103FD000FB4C0C941D33805C9245809708F06DCFAC
:103FE000DBCFF7018581807F09F0B4CF812F8F71FE
:103FF000823199F070F4823081F00E94911AF801B8
:10400000E851FC47E730F10538F6E957FB4C0C94D2
:104010001D338431A1F3863181F710920605EDCF6F
:104020008D32910509F4A5CF28F48A9731F70E94C3
:10403000E316E5CF8C349105D1F38D329240B9F37C
:10404000DCCF06E221EE41EE6AE17CE7C7010E9487
:104050009D1B3FCE07E225EE45EE6BE17CE7F6CFF8
:1040600006E221EE40EE68E17CE7F0CF07E225EEC4
:1040700044EE69E17CE7EACF06E221EE42EE6CE134
:104080007CE7E4CF07E225EE46EE6DE17CE7DECF8C
:1040900008E221E045EE6EE17CE7D8CF8091A403F1
:1040A00081608093A40395C08091A503886080936C
:1040B000A5038FC08091A4038260F3CF8091A403F5
:1040C0008460EFCF8091A4038860EBCF8091A5033B
:1040D0008160EDCF8091A5038260E9CF8091A40338
:1040E0008061DFCF8091A4038062DBCF8091A40345
:1040F0008064D7CF0E949A178091A4038068D1CFA3
:104100008091A4038C60CDCF8091A5038360CFCF35
:104110008091A4038E7FC5CF8091A503877FC7CFF1
:104120008091A4038D7FBDCF8091A4038B7FB9CFF5
:104130008091A403877FB5CF8091A5038E7FB7CFF1
:104140008091A5038D7FB3CF8091A4038F7EA9CFEB
:104150008091A4038F7DA5CF8091A4038F7BA1CFF5
:104160000E949A178091A4038F779BCF8091A4031C
:10417000837F97CF8091A5038C7F99CF8091A403F3
:1041800082FB992790F921E0922790FB82F990FB1E
:1041900083F987CF8091A503982F909591708E7F9A
:1041A000892B90FB81F983CF9091A403892F8F7B7A
:1041B00096FF806476CF0E949A179091A403892F6E
:1041C00097FB87F980586DCF61E08EE090E00E9408
:1041D000CA336091A4037091A50384E090E00E942B
:1041E000E8330E949A1775CD60E0EFCF9091A40359
:1041F000892F8F7E94FF806154CF9091A403892FE3
:104200008E7F90FF81604DCF9091A503892F877F8E
:1042100093FF88604CCF80910A0381110FC089E21F
:10422000E4E0F3E02AE033E09191891303C0DF0179
:1042300011971C922E173F07B9F7C4C285E3F0CF40
:1042400081E00E940A1145CD43EF50E16EEF70E12D
:104250000E940E083ECD4EEF50E163EF70E1F8CFC3
:1042600046EA50E161EB70E1F3CF41EB50E166EAE1
:1042700070E1EECF4AE850E168E970E1E9CF48E942
:1042800050E16AE870E1E4CF4EE650E16CE770E19E
:10429000DFCF4CE750E16EE670E1DACF40E250E16B
:1042A0006CE270E1D5CF4CE250E160E270E1D0CF3A
:1042B00061E081E00E94BC100CCD61E082E0FACFA9
:1042C00090913204892F8E7F90FF81608093320419
:1042D00080FF05C085ED91E00E945105FACC83EC8A
:1042E00091E0FACF6FEF7FEF90E080E00E94E8333B
:1042F0000E94741A8091A50382FB882780F991E0BF
:1043000089270E940915F701828100811181882384
:1043100009F445C0C8010E94400FD82E682FC8017B
:104320000E941B0CB8018D2D0E94320F0E941B0AA7
:104330008C01882ED7011296DC9012971596BC90AE
:10434000B2943FE0B32280915B038770C1F0DD201F
:10435000A9F0812F807F803421F080E2800F8830A7
:1043600070F08091A50382FF0AC082E00E946E0C6B
:1043700080915B038770AA24A3948111A12C912EB4
:1043800092942FE09222BBE0B91508F469C0E92DA0
:10439000F0E0E257FB4C0C941D3380E0B2CFC80133
:1043A0000E94E70BD82EBECFE12FEF70CE2E107FEC
:1043B00019F0C29490EFC922DD20B9F0CC2069F049
:1043C00080E2800F883010F0811009C080910705CD
:1043D000C82AC09207050E94E316802F3FC0809133
:1043E0000605C82AC0920605F6CF802F0E94B61A8D
:1043F000CC20B1F1005E8C2D083010F0811003C08C
:104400000E94CB0B02C00E94C40B0E94E31628C07E
:10441000F12FFF70CF2E107F103219F0C29480EF71
:10442000C822882059F021E0821609F46BC0DD20F3
:1044300009F475C0BB2009F46BC0CFCF2091A50350
:1044400022FD39C0DD2081F1CC2039F080910705B3
:10445000C82AC09207050E94E31680E00E942C1B28
:10446000E92DE850FF0B349710F40E94200EAA208B
:10447000B1F080915B0380FD12C0D70112961C92AF
:104480008595859585950E948A0CC7010E94941D8B
:1044900080915B038595859585950E94610C60E010
:1044A000C7010E94AF0F25CC80E00E94B61ACC2035
:1044B000B9F28C2DA5CFDD2099F090916403892F5E
:1044C0008C29B11003C00E94AC1ACACF31E0B312DC
:1044D000FACF22FFC5CF981719F280936403C0CF9B
:1044E000B11006C00E94AA0B8C2D0E94A51AB8CF4D
:1044F00081E0B81609F4B4CF8C2D0E94A51A0E9451
:10450000AA0BAECFDD2031F095E09B1508F4A8CFC3
:104510008C2DD9CFA4E0AB1508F4A2CFE5CFBB20FA
:1045200019F3B9E38B1209C0EFEFF7EE23E0E15086
:10453000F0402040E1F700C00000802F0E94B61A32
:104540008FCF812F86958695837061F0813009F039
:1045500087CFC8019370D11002C080E090E00E9424
:10456000C4077ECFC8019370D11002C080E090E0F4
:104570000E94E90775CF812F837089F5D11070CF24
:10458000402F429546954770440F440F802F8F70FF
:10459000042E01C0880F0A94EAF7202F207104FF2F
:1045A00007C02FE030E001C0220F4A95EAF72095BE
:1045B000169516951370123069F050F4309165031A
:1045C000113029F0822B83230E94960C49CF832B34
:1045D000822BFACF282B809165038227F5CF869511
:1045E000DD2011F0812F8170882309F439CF402F0D
:1045F000429546954770440F440F802F8F70042ECC
:1046000001C0880F0A94EAF7202F207104FF07C029
:104610002FE030E001C0220F4A95EAF72095169569
:1046200016951370123069F050F430915E05113018
:1046300029F0822B83230E94520C12CF832B822BD2
:10464000FACF282B80915E058227F5CF1F70DD20E1
:1046500029F0812F0E948A0C802F35CF802F0E9455
:10466000A51A812F0E94610CFBCE802F32EF83169A
:10467000B1F1381570F090EF8916D1F0A1EF8A16DC
:1046800091F0DD2009F45CC0B110A7CE812F8F71AD
:104690002AC0B3EF8B1651F1E4EF8E12F2CF809166
:1046A000A50382FD2FC0812F8F71DD20D9F21BC0A1
:1046B000DD2081F0F4E0FB1508F4D2CE1F7181E01B
:1046C00090E0012E01C0880F0A94EAF790915E05F0
:1046D0008927B1CF25E02B1508F4C2CEEFCF812F6B
:1046E0008F71D110BFCF0E948A0CBACE80E0DD203E
:1046F00009F4A1CF1F7181E0012E01C0880F0A9437
:10470000EAF799CFDD2089F01F71812F0E948A0C72
:104710008091A50382FF07C038E0139FC0011124D8
:10472000836080935B03812FDECF81E00E946E0C5B
:1047300081E08B1508F094CE82E00E946E0C90CE42
:10474000BB2059F0893309F0F8CE9FEFA7EEB3E014
:104750009150A040B040E1F7EECE812F8F7182CF13
:104760000115B7E71B0709F404CB0130E7E71E0783
:1047700009F409CBF801FE57E730F10508F01ECB2C
:10478000E656FB4C0C941D330115F7E71F0709F49F
:10479000F6CA013027E7120769F782E0F1CA06314D
:1047A0003CE7130729F5809107058A7A91E009F41F
:1047B00090E090930A0369E2811165E382E093E05F
:1047C0000E94AA070E94E31684CA06318CE71807E4
:1047D00009F421CD809107058272F801E052F84773
:1047E000E531F10508F08FCDEF55FB4C0C941D33EE
:1047F00003309CE7190709F475CDC0F40130BCE71C
:104800001B0709F475CD08F05BCD01151C4709F0B5
:104810007ACD0E949A17FFEF24E33CE0F15020404C
:104820003040E1F700C000000E94B20D0B352CE7CC
:10483000120709F4B2CD0C353CE7130709F45ACD41
:104840000A351C4709F05FCD81E05BCDB0E0A0E008
:10485000ECE2F4E20C94BB3280912803807F09F0F3
:1048600050C080912503882309F44BC0C0915A039E
:1048700086E0B82E809129038C1709F442C0F0908D
:104880002303E0902403C0902603D0902703A601C1
:104890006E2D8F2D0E94D20BD0E0811137C0BC9EAF
:1048A0008001BD9E100D1124F801E65DFC4F818151
:1048B0008E112CC080818F1129C08281811126C068
:1048C000E380F480EC18FD0860E083E293E00E944E
:1048D000AF0F0E94F305E816F906C0F48091280393
:1048E0008F70806180932803F801E15DFC4F808127
:1048F0008F708061808383E293E00E94941D0E9408
:10490000DD0BCDB7DEB7E9E00C94D7322196C77046
:10491000B1CFA1E1B0E0EFE8F4E20C94B3328C0146
:1049200085E0F801DE011D9601900D928A95E1F770
:10493000D8014C9011963C90119712966C9012975A
:104940001396ED90FC9060E083E293E00E94AF0F3D
:104950005C0183E2C82E83E0D82E809026039090DD
:104960002703A40160912403809123030E94D20BAA
:10497000582E811190C170902503F701E819F909AB
:104980004F0160E0772009F426C1C6010E94AF0FF5
:104990000E94F305B09028038816990608F0D7C046
:1049A0004091260350912703D0902303C090240305
:1049B0008B2D807F6C2D09F085C08D2D0E94D20B30
:1049C000762C81111DC0D80111968C9111978C11F4
:1049D00017C08C918D1114C0611012C08B2D8F7077
:1049E00080618093280383E293E00E94941D80916C
:1049F0002803F8018583872D6196E1E10C94CF327D
:104A0000A701632D842D0E94D20B811124C081E067
:104A10008625F82FF170FF2E80FF3FC080915A034A
:104A20002091290336E0821318C04D863E868D857D
:104A30009E850E946F0F292F22952F70223008F13A
:104A4000243030F59F7009F1D80115969C91907F24
:104A5000E1F4752CD0CF80E0DCCF90E0389FF001FE
:104A6000399FF00D1124E65DFC4F4181431106C0D2
:104A70004081441103C0428164120FC001968770C7
:104A8000D2CF9F7011F0882321F3805E883008F325
:104A9000C8010E94941D5F2CDCCF662009F4ABCFC7
:104AA0008091280381608093280383E293E00E9431
:104AB000941D86E0E3E2F3E0DF011D928A95E9F7B9
:104AC000712C99CF8D2D0E94D20B811116C0F80147
:104AD00081818C1112C080818D110FC061100DC0B9
:104AE000B582C8010E94941D86E0F801A3E2B3E0FC
:104AF00001900D928A95E1F77ECFC8010E947C0F4C
:104B0000882309F16620F9F080912803803270F043
:104B1000209123033091240338872F831986FB8645
:104B2000EA868C87CE0107960E94941D86E0F801E4
:104B3000A3E2B3E001900D928A95E1F70E9426244A
:104B40007724739458CFC8010E94941DF9CF8B2D00
:104B5000807F39F483E293E00E94941D86E0D601C1
:104B6000ACCFA09023039090240340912603509152
:104B70002703692D8A2D0E94D20B811113C0F801E1
:104B8000818189110FC080818A110CC061100AC017
:104B9000B582C8010E94941D86E0D6011D928A95B7
:104BA000E9F729CFC8010E947C0F882361F26620B3
:104BB00051F280912803803208F4B8CF209123036A
:104BC000309124033A8329831B82FD82EC828E83F9
:104BD000CE010196A9CF83E293E00E94AF0F0E941D
:104BE000F3058816990608F050C0762C662009F463
:104BF000AACFF0902303E090240340912603509124
:104C000027036E2D8F2D0E94D20B811130C0F80129
:104C100081818E112CC080818F1129C0FCE2AF16DA
:104C2000F1E4BF0609F460CF28E2A21622E4B2063E
:104C300009F45ACF8AE2A81682E2B80609F454CFE2
:104C40008091280380FD50CF982F907F09F44CCF9E
:104C5000D80115968C931597903F09F442CF982F61
:104C6000907F905F8F70892B15968C933ACFC801F7
:104C70000E947C0F81115ACF80912803816080931C
:104C80002803C8010E94941DB6CE86E0F601119259
:104C90008A95E9F7B0CE662009F455CFC8010E9485
:104CA0007C0F782E882309F44ECF86E0F801A3E22A
:104CB000B3E001900D928A95E1F7809123039091E2
:104CC00024030E946F0F0E94262495CEA7E1B0E036
:104CD000ECE6F6E20C94C1324B8B5C8B6D8B7E8BD9
:104CE0008F8B6111109206051A8A198A85E0FE01E0
:104CF0007396DE011D9601900D928A95E1F786E08C
:104D0000FE013D96DE01179601900D928A95E1F71E
:104D1000CE0107960E948924811111C086E0FE0110
:104D20003796DE01119601900D928A95E1F74A853A
:104D30005B8568858F810E94D20B882359F016E02D
:104D400080915A0390912903891331C06796E3E05B
:104D50000C94DD322091290330E0C901019687705F
:104D6000992740915A034817190699F096E0929FA7
:104D7000D001939FB00D1124A65DBC4FFE0131966A
:104D800001900D929A95E1F7809329030E94DD0B23
:104D9000D6CF0E949A171092290310925A0386E0E8
:104DA000E3E2F3E0DF011D928A95E9F7C8CF819F26
:104DB000C0011124865D9C4F0E948924882331F212
:104DC00080915A0390E001968770992780935A0347
:104DD000B7CFA4E0B0E0EFEEF6E20C94C132409120
:104DE0007B0350917C0360917D0370917E032FB70C
:104DF000F8948091110590911205A0911305B0913E
:104E000014052FBF841B950BA60BB70B11E084363E
:104E10009105A105B10570F10E94310E6E5F7F4FC3
:104E20008F4F9F4F69837A838B839C838091170177
:104E30009091180181589C4F4091160150E04530E7
:104E4000510510F044E050E0BE016F5F7F4F0E94BB
:104E5000933382E090E00E943C32182F882351F077
:104E60000E94920760937B0370937C0380937D0381
:104E700090937E03812F2496E3E00C94DD32A7E02B
:104E8000B0E0E5E4F7E20C94C03286E0E8E5F5E056
:104E9000DE01119601900D928A95E1F7809131041F
:104EA0008F8347E050E069E873E0CE0101960E94ED
:104EB00086330091900310919103209192033091D9
:104EC0009303EFB7F894409111055091120560914A
:104ED000130570911405EFBF401B510B620B730B50
:104EE000443651056105710518F411E0892B21F153
:104EF00080911F019091200181589C4F40911E018B
:104F000050E04830510510F047E050E0BE016F5FBF
:104F10007F4F0E94933383E090E00E943C32182F31
:104F2000882351F00E94920760939003709391033D
:104F30008093920390939303812F2796E4E00C943F
:104F4000DC32EF92FF921F93CF93DF9300D000D01B
:104F500000D0CDB7DEB77B0190E080E00E943C320C
:104F6000182F882309F480C04091090150E04115B1
:104F7000510511F041E050E060910A0170910B0180
:104F800061587C4FCE0106960E949333409177037F
:104F9000509178036091790370917A032FB7F89458
:104FA0008091110590911205A0911305B0911405FF
:104FB0002FBF841B950BA60BB70B84369105A1055B
:104FC000B10540F480E893E00E940E069E818917A7
:104FD00009F44AC081E090E00E943C32811116C081
:104FE00010E085E0E2E7F3E0D70101900D928A95A9
:104FF000E1F7812F26960FB6F894DEBF0FBECDBF26
:10500000DF91CF911F91FF90EF9008954091110192
:1050100050E04630510510F045E050E0609112013B
:105020007091130161587C4FCE0101960E94933319
:1050300080E893E00E940E069E818913D1CF0E94E2
:10504000920760937703709378038093790390932A
:105050007A0385E0FE013196A2E7B3E001900D925C
:105060008A95E1F711E0BDCF85E0E0E8F3E0DE01ED
:10507000119601900D928A95E1F71111EACFB1CF07
:1050800067EE7EEF90E080E00E94E83360E082E02F
:1050900090E00E94CA3360E083E090E00E94CA334F
:1050A0001092650360E074E184E090E00E94E833D0
:1050B00060E086E090E00E94CA336FEF87E090E006
:1050C0000E94CA3340E050E0BA0188E090E00E94BC
:1050D000DC3360E08DE090E00E94CA3340E050E0B5
:1050E000BA0188E190E00E94DC3360E087E190E063
:1050F0000E94CA3340E050E0BA018CE190E00E9487
:10510000DC3370E060E080E290E00E94E83340E051
:1051100050E0BA0188E190E00E94DC3380E00E9418
:10512000DA0E0E94F30E40E050E0BA018FE090E00A
:105130000E94DC3340E050E0BA0183E190E00E943D
:10514000DC3308951F920F920FB60F9211242F9304
:105150003F934F935F936F937F938F939F93AF93FF
:10516000BF93CF93DF93EF93FF93D091E900DF706C
:105170008091EC00C82FC17080FDC0E81092E9005A
:105180008091F000877F8093F00078940E94B017A0
:105190001092E9008091F00088608093F000CD2BA0
:1051A000CF70C093E900FF91EF91DF91CF91BF9154
:1051B000AF919F918F917F916F915F914F913F91AF
:1051C0002F910F900FBE0F901F9018951F920F9266
:1051D0000FB60F9211242F933F934F935F936F93CA
:1051E0007F938F939F93AF93BF93EF93FF938091A0
:1051F000E10082FF15C08091E20082FF11C0809122
:10520000E1008B7F8093E100209117052F5F822FB3
:1052100062E30E94E932992309F4C0C02093170584
:105220008091DA0080FF28C08091D80080FF24C0E0
:105230008091DA008E7F8093DA008091D90080FF20
:10524000E3C080E189BD82E189BD09B400FEFDCFE4
:1052500081E08093250582E599E00E9451058091C7
:105260001805811109C00E9425060E94C60680917A
:10527000E20084608093E2008091E10080FF1BC027
:105280008091E20080FF17C08091E2008E7F8093C2
:10529000E2008091E20080618093E2008091D8007A
:1052A00080628093D80019BC85E0809325058AE54B
:1052B00099E00E9451058091E10084FF2FC0809108
:1052C000E20084FF2BC080E189BD82E189BD89B500
:1052D000982F917080FFFBCF8091D8008F7D8093B5
:1052E000D8008091E1008F7E8093E1008091E20000
:1052F0008F7E8093E2008091E20081608093E200E3
:1053000080912605882309F489C084E080932505CF
:105310008EE599E00E945105809125058091E1007C
:1053200083FF2BC08091E20083FF27C08091E100C2
:10533000877F8093E10082E0809325051092260507
:105340008091E1008E7F8093E1008091E2008E7F6A
:105350008093E2008091E20080618093E20042E06D
:1053600060E080E00E9494068091F0008860809365
:10537000F00082E699E00E945105FF91EF91BF9104
:10538000AF919F918F917F916F915F914F913F91DD
:105390002F910F900FBE0F901F9018951092170528
:1053A00080911605882309F43BCF80912505843030
:1053B000C1F49091E9009F702091EC00822F8170E0
:1053C00020FD80E8892B95E09093E9009091EB0017
:1053D00090FF04C09091EE0097FD08C08F708093FD
:1053E000E900109216051CCF1092F1009091E80090
:1053F00095FDFACF9091E80090FFF0CF9091E800F2
:105400009E779093E800EACF19BC1092250586E5B7
:1054100099E00E945105109218052ECF8091E3006B
:1054200087FD93E09093250573CF78941F921FB664
:105430001F9211248F939F93AF93BF938091110577
:1054400090911205A0911305B09114050196A11D2C
:10545000B11D8093110590931205A0931305B0938D
:105460001405BF91AF919F918F911F901FBE1F9008
:1054700018951F921FB61F9211248F939F93AF937D
:10548000BF9380911005811113C0809111059091F7
:105490001205A0911305B09114054196A11DB11DEF
:1054A0008093110590931205A0931305B0931405F2
:1054B000BF91AF919F918F911F901FBE1F90189524
:1054C000CDB7DEB7E6970FB6F894DEBF0FBECDBFFF
:1054D00085B7806885BF85B7806885BF84B7877FBB
:1054E00084BF0FB6F894A89580916000886180937E
:1054F0006000109260000FBE80E890E00FB6F89454
:1055000080936100909361000FBE8AEF9CE09093BE
:105510000103809300030E9425060E94C606809125
:10552000E20084608093E2007894809125058823CE
:10553000A1F01091E9001F709091EC00892F81700B
:1055400090FD80E8182B1092E9008091E80083FD1F
:105550000E94B0171F701093E90082E084BD93E0B1
:1055600095BD9AEF97BD80936E00109294031092B0
:10557000950310929603109297030E94DA0F8111FF
:1055800002C00E94F30E55985D988FE891E0019754
:10559000F1F700C000000E940809809331010E94C9
:1055A000FD0D81110E9450318091310181112CC07B
:1055B00085E0EEE6F1E0DE01919601900D928A958C
:1055C000E1F789A180932C018AA180932D018BA101
:1055D00080932E018CA180932F018DA180933001A7
:1055E00086E0E3E7F1E0DE01119601900D928A95E5
:1055F000E1F7FE013196A6E2B1E0CE0107962191D6
:105600002D93E817F907D9F78091310195E08111C1
:1056100090E09093A30385E0891B8093A2030CE2A2
:1056200011E0D8018D918D018F3F11F00E94C109C9
:10563000B1E001331B07A9F706E211E03CE2E32EDB
:1056400031E0F32EF80181918F018F3F11F00E941C
:10565000C109E016F106B1F78AE0E5EBF3E0DF01FE
:10566000282F1D922A95E9F7E8E9F3E0DF011D9262
:105670008A95E9F70E943315811102C00E944028E3
:1056800082E090E00E94AC338093320484E090E0AA
:105690000E94B4339093A5038093A4030E943F1506
:1056A000EFE3FCE93197F1F700C000000E943F15DD
:1056B0008091B50380FF08C06FEF7FEF90E080E03E
:1056C0000E94E8330E94B20D83E090E00E94AC3368
:1056D0000E94960C10922F058FEF9FEF9093490533
:1056E0008093480590934B0580934A0590934D0510
:1056F00080934C0590934F0580934E0590935105F0
:1057000080935005909353058093520590935505CF
:10571000809354059093570580935605109200048A
:1057200090931A048093190490931C0480931B0493
:1057300090931E0480931D049093200480931F0473
:105740009093220480932104909324048093230453
:105750009093260480932504909328048093270433
:105760000E943315811110C08091320480FF08C05F
:1057700085EB93E09F938F930E94EA050F900F9023
:105780000E9440280E94371181E08093330446E054
:1057900050E06CE170E088E595E00E949C33109247
:1057A0003304809158058C7F71F48091320480FF1E
:1057B00008C080E693E09F938F930E94EA050F90C4
:1057C0000F900E9437118091320480FF89C086E4D7
:1057D00093E09F938F930E94EA05809132040F908B
:1057E0000F9080FF7DC08091580583701F928F932A
:1057F00087E293E09F938F930E94EA0580913204A1
:105800000F900F900F900F9080FF6AC08091580505
:10581000869586951F928F938AE093E09F938F934E
:105820000E94EA05809132040F900F900F900F9024
:1058300080FF56C0809159051F928F938CEE92E0A5
:105840009F938F930E94EA05809132040F900F90EE
:105850000F900F9080FF44C080915A051F928F9344
:105860008EEC92E09F938F930E94EA058091320420
:105870000F900F900F900F9080FF32C080915B05CA
:105880001F928F9380EB92E09F938F930E94EA0583
:10589000809132040F900F900F900F9080FF20C0E6
:1058A00080915C051F928F9382E992E09F938F9382
:1058B0000E94EA05809132040F900F900F900F9094
:1058C00080FF0EC080915D051F928F9384E792E068
:1058D0009F938F930E94EA050F900F900F900F9067
:1058E0000E94FD0D811102C00E94533182E391E0BC
:1058F00090930D0580930C0585EB93E0FAE0F80F8B
:10590000FEAB809125058530A9F487EE93E00E94D7
:10591000510520E4F22EEE24E39400E112E180919F
:105920002505853009F4A7C00E949A170E94200E11
:10593000109231040E943F1548EA53E05CA74BA740
:1059400085EB93E09EA78DA7DC01FA0191918D91E3
:1059500023E0E23BF20709F4D3C09817B9F3809132
:10596000320481FD7DC10E94FD0D782E45EB53E090
:1059700058AB4FA7F12C312C212CAFA5B8A9BD9065
:10598000B8ABAFA7EBA5FCA58191FCA7EBA78B1546
:1059900009F406C28B2589AB6101E12CAA24A394EA
:1059A00089A98A2109F4F0C14B2C4A20772099F06B
:1059B000EEA2FFA281E0411001C080E088A70E9412
:1059C0009E078160782F9AA789A74EA15FA168A53D
:1059D0008AA50E946626442039F0F601E850FE4F61
:1059E00080818F3F09F072C1512C052D10E080910C
:1059F0000004800F912F911D09976CF1F8E08F2E14
:105A0000912C801A910AB8016F5F7B4FA40181E04D
:105A100094E00E949333B801675F7B4FA40189E053
:105A200094E00E949333A401440F551FB801660F00
:105A3000771F675E7B4F89E194E00E949333B80142
:105A40006F5E7B4FA40181E194E00E94933388E074
:105A50008519809300048091000490E0A62DB0E0A9
:105A60009D01220F331F2C5C3D4FAA0FBB1FBD01B0
:105A70006B5C7D4F43C180912505843009F430C0B3
:105A80000E94631480913104811105C00E94A2110B
:105A900080E00E941408E09231041092100528E181
:105AA00030E00FB6F894A895209360000FBEF092F6
:105AB000600083B7817F846083BF83B7816083BFC9
:105AC0007894889583B78E7F83BF0FB6F894A89596
:105AD00080916000886180936000109260000FBE2A
