:100000000C94E1040C94CE300C9419050C94190551
:100010000C9419050C9419050C9419050C941905E8
:100020000C9419050C9419050C9415280C94D127DF
:100030000C9468290C9419050C9419050C94190555
:100040000C9419050C9419050C9419050C941905B8
:100050000C9419050C9444290C9419050C94190559
:100060000C9419050C9419050C9419050C94190598
:100070000C9419050C9419050C9419050C94190588
:100080000C9419050C9419050C9419050C94190578
:100090000C9419050C9419050C9419050C94190568
:1000A0000C9419050C9419050C9419050631FF09D7
:1000B00074A1010975150026FF00952075088102BD
:1000C0000976150026FF00952075089102C00501EC
:1000D0000980A101850319012AB700150126B7007F
:1000E000950175108100C0050C0901A10185041955
:1000F000012AA002150126A002950175108100C0F9
:100100000660FF0961A1010962150026FF00952024
:10011000750881020963150026FF00952075089176
:1001200002C005010906A101050719E029E715002C
:100130002501950875018102950175088101050762
:10014000190029FF150026FF009506750881000596
:10015000081901290595057501910295017503910D
:1001600001C00000000000000000000000000000CE
:10017000000000000000000000000000000000007F
:100180000000000000007E0F00D4FFFFFFC700004A
:10019000007800000000000000002A2B280000006A
:1001A0000000000000000000000000000029000026
:1001B00000002C1E3420212224342627252E362D03
:1001C0003738271E1F202122232425263333362E9D
:1001D00037381F0405060708090A0B0C0D0E0F100F
:1001E0001112131415161718191A1B1C1D2F313054
:1001F000232D350405060708090A0B0C0D0E0F10F8
:100200001112131415161718191A1B1C1D2F313033
:10021000354C726762206D617472697820746F6703
:10022000676C65205B25735D3A207267625F6D6164
:10023000747269785F636F6E6669672E656E61625E
:100240006C65203D2025750A0044454255473A20FB
:1002500064697361626C65642E0A004445425547C7
:100260003A20656E61626C65642E0A004F6E65739C
:10027000686F743A206163746976653A2025640A70
:10028000000A002530325820006B6579626F617278
:10029000645F7265706F72743A20005461726765B2
:1002A0007420636F6E6E65637465640D0A0054613B
:1002B0007267657420646973636F6E6E65637465DD
:1002C000642C207468726F74746C696E6720636F3D
:1002D0006E6E656374696F6E20617474656D7074A1
:1002E000730D0A004661696C656420746F2065783F
:1002F00065637574652025730A007267625F6D61BE
:10030000747269785F636F6E6669672E666C616789
:1003100073203D2025640A007267625F6D6174720C
:1003200069785F636F6E6669672E737065656420B8
:100330003D2025640A007267625F6D61747269789E
:100340005F636F6E6669672E6873762E76203D2038
:1003500025640A007267625F6D61747269785F6319
:100360006F6E6669672E6873762E73203D20256454
:100370000A007267625F6D61747269785F636F6EA5
:100380006669672E6873762E68203D2025640A0012
:100390007267625F6D61747269785F636F6E6669C0
:1003A000672E6D6F6465203D2025640A00726762C8
:1003B0005F6D61747269785F636F6E6669672E65E1
:1003C0006E61626C65203D2025640A007267625F81
:1003D0006D61747269785F636F6E66696720454509
:1003E00050524F4D0A007267625F6D617472697896
:1003F0005F696E69745F6472697665727320726793
:10040000625F6D61747269785F636F6E6669672E93
:100410006D6F6465203D20302E2057726974652011
:1004200064656661756C742076616C7565732074A3
:100430006F20454550524F4D2E0A007267625F6D26
:1004400061747269785F696E69745F6472697665F8
:100450007273206565636F6E666967206973206ECD
:100460006F7420656E61626C65642E0A005B735D5B
:10047000000A0025303862003A200025303258004A
:100480000A722F632030313233343536370A000A8E
:100490000025303258006C65645F7461736B3A20DC
:1004A0000000010101010101010101020202020239
:1004B000020202020303030303030303040404040C
:1004C00004040405050505050606060606070707D4
:1004D000070708080808090909090A0A0A0B0B0B8B
:1004E0000C0C0C0D0D0D0E0E0E0F0F0F1010111128
:1004F00011121213131414151516161717181819AC
:10050000191A1A1B1B1C1D1D1E1E1F202021222212
:10051000232424252626272829292A2B2C2D2D2E55
:100520002F30313232333435363738393A3B3C3D6F
:100530003E3F404142434445464748494A4C4D4E60
:100540004F50515354555658595A5B5D5E5F616226
:1005500064656668696B6C6D6F7072737577787AB5
:100560007B7D7E8082838587888A8C8E8F91939510
:1005700096989A9C9EA0A2A3A5A7A9ABADAFB1B334
:10058000B5B7BABCBEC0C2C4C6C9CBCDCFD1D4D614
:10059000D8DBDDDFE2E4E7E9EBEEF0F3F5F8FAFDB6
:1005A000FF6565636F6E6669675F7570646174652A
:1005B0005F7267625F6D61747269785F64656661BE
:1005C000756C740A00726762206D617472697820BC
:1005D0006D6F6465205B25735D3A2025750A007296
:1005E0006762206D61747269782073657420687326
:1005F00076205B25735D3A2025752C25752C257595
:100600000A00726762206D61747269782073657484
:10061000207370656564205B25735D3A2025750A3B
:100620000000571E001F002000210022002E001491
:10063000001A000900130005002D00040015001623
:100640000017000A002F001D001B000600070019FC
:100650000000000000E200E0002A624C4101572740
:10066000002600250024002300350033001C00185C
:10067000000F000D00340012000C000800110010E3
:100680000030003800370036000B000E000000007C
:1006900000AC5D02572C412B7245003A003B003CF8
:1006A000003D003E002E024600490052004B00284B
:1006B000002D022602500051004F002F022F02276A
:1006C000024A004D004E003002000000000100010F
:1006D0000001002A00440043004200410040003F66
:1006E0000035022E00610060005F003100340233EB
:1006F000025E005D005C001F0230022D005B005AAC
:10070000005900310200000000620000502C00017E
:100710000045003A003B003C003D003E00C25C1E2C
:10072000021F02200221022202C35CAC00AB00A91E
:10073000004B002D02005CAD00AE00AA004E002D63
:1007400000000000000100010001002602440043F7
:10075000004200410040003F000100270226022520
:1007600002240223023100C95CC75CC55C4A002E2A
:10077000000100CA5CC85CC65C4D002E020000008F
:100780000001000100010001000100010001000161
:100790000001000100010001000100010001000151
:1007A0000001000100010001000100010001000141
:1007B0000001000100010001000000000001000133
:1007C0000001000100010001000100010001000121
:1007D0000001000100010001000100010001000111
:1007E0000001000100010001000100010001000101
:1007F00000010001000000000001000100010001F3
:100800000000571E001F002000210022002B0014B2
:10081000001A00080015001700E000040016000789
:100820000009000A00E1001D001B00060019000578
:100830000000000000E300105F2A624A002A00273F
:100840000026002500240023004C00130012000C99
:100850000018001C00340033000F000E000D000BC8
:1008600000E50038003700360010001100000000DD
:1008700000AC5D115F2C414D0000571E001F002091
:1008800000210022002B0014001A00080015001798
:1008900000E00004001600070009000A00E1001D46
:1008A000001B0006001900050000000000E3001016
:1008B0005F2A624A002A0027002600250024002320
:1008C000004C00130012000C0018001C0034003310
:1008D000000F000E000D000B00E500380037003659
:1008E000001000110000000000AC5D115F2C414DB4
:1008F000005B435D005B445D005B535D005B575DE7
:10090000005B525D0009027B00040100A0FA0904AB
:100910000000010301010009211101000122400032
:10092000070581030800010904010002030000001B
:100930000921110100012222000705820320000184
:100940000705030320000109040200010300000061
:100950000921110100012232000705840320000152
:100960000904030002030000000921110100012213
:10097000220007058503200001070505032000016B
:10098000120100020000000810CB5664200601028C
:1009900000011A0349007200690073002000520030
:1009A000650076002E0020003600620000000E0375
:1009B0004B0065006500620069006F0000000403E1
:1009C000090411241FBECFEFDAE0DEBFCDBF04B6AD
:1009D00003FE18C080916E0590916F05A09170057F
:1009E000B09171058730904BA740B04B59F41092ED
:1009F0006E0510926F051092700510927105E0E07F
:100A0000F8E3099525E0ACE0B3E001C01D92AE36F5
:100A1000B207E1F713E0A0E0B1E0E8E7F7E602C0D3
:100A200005900D92AC30B107D9F70E948F290C9434
:100A300089330C940000FF93EF93E0910C03F09145
:100A40000D03309709F00995EF91FF910895FC018E
:100A50008591803011F0EFDFFBCF0895FF27E0E2B2
:100A600030E247FF0CC0419597FF09C0EDE2609569
:100A7000709580959095611D711D811D911D27FFB9
:100A800002C0219530E350E2AA27660F771F881F26
:100A9000991FAA1FA41710F0A41B63955A95A9F7D4
:100AA000AA3008F0A95FA05DAF93F39561157105B9
:100AB0008105910541F7ED3211F4EF93F395F217AB
:100AC00018F43F93F395FBCF8F91B5DFFA95E1F7DB
:100AD0000895E991F9918591803021F0853219F0DE
:100AE000AADFF9CF089520E0E89455915532C1F37B
:100AF000503311F4689455915A3348F4505390F39D
:100B0000220F022E220F220F200D250FF4CF0EF4FC
:100B1000219589919991533619F3533729F153351A
:100B200059F1BC0188279927E8945C3621F4899112
:100B3000999168945591543639F446EF7EF077FFD9
:100B40000DC08FEF9FEF0AC055374AE039F0583596
:100B500040E121F0523642E009F00895FF93EF930F
:100B60007DDFEF91FF91B7CFFF93EF93FC01819170
:100B70008030B9F360DFFBCFFF93EF9368DFF1CFF5
:100B8000DF93CF93CDB7DEB72596A3DFCF91DF916B
:100B90000895FC01AC014B5F5F4F8FEF91E3219112
:100BA000822728E030E087FF09C0880F892721507D
:100BB0003109C9F7E417F50791F70895880FF7CFC2
:100BC000E8EDF0E080818E7F80831092E200109249
:100BD000DA001092E100A0EEB0E08C9181608C937D
:100BE00080818F77808319BCA7EDB0E08C918E7FD8
:100BF0008C9380818F7E80831092240508952091AC
:100C0000E4003091E50095E6A9012091EC00822FE7
:100C1000817020FF06C08091E80080FF06C080E060
:100C200008952091E80022FD1AC0809131058823A3
:100C300089F0853089F08091EB0085FD0FC020910F
:100C4000E4003091E50042175307F9F29150E1F6C4
:100C500084E0089582E0089583E0089581E0089596
:100C6000EF92FF920F931F93CF937C018B010E9411
:100C7000FF05C82F811117C08091E80085FD0BC0CA
:100C80008091E8008E778093E8000E94FF0588231A
:100C900099F3C82F08C0F70181917F018093F1007B
:100CA0000150110949F78C2FCF911F910F91FF909F
:100CB000EF9008958091330587FF13C08091E8007D
:100CC00082FF06C08091E8008B778093E80004C023
:100CD000809131058111F2CF0895809131058823EB
:100CE000D9F38091E80080FFF8CF8091E8008E77FB
:100CF000ECCF982F9093E900242F762F50E089179E
:100D000031F07091EC002091ED005091F00021FD48
:100D100007C09F5F973071F78093E90081E00895E5
:100D20003091EB003E7F3093EB003091ED003D7F42
:100D30003093ED003091EB0031603093EB00709315
:100D4000EC002093ED005093F0002091EE0027FD81
:100D5000E0CF80E00895B0E0A0E0E1EBF6E00C9495
:100D6000F431C8EDD0E088818F7E8883E7EDF0E034
:100D700080818160808384E082BF81E0809324054C
:100D800088818E7F888302EE10E0F8011082109235
:100D9000DA0081EEC82ED12CF601108288818F777F
:100DA000888388818068888388818F7D888319BC47
:100DB00010923105109232051092300510922F05D5
:100DC00090EEE92EF12CF70180818B7F8083888162
:100DD0008160888342E060E080E00E947906F6014D
:100DE00080818E7F8083F801808181608083808113
:100DF00088608083F70180818E7F80838881806115
:100E00008883CDB7DEB7E8E00C941032FC01809106
:100E1000390590913A0586179707A0F0611571057D
:100E200029F49091E8009E779093E80090E0611596
:100E3000710551F4911108C08091E80082FF34C01F
:100E400080E00895BC01F2CF809131058823C1F183
:100E50008530C1F18091E80083FD30C08091E800C9
:100E600082FDEACF8091E80080FFE1CF8091F3001E
:100E70002091F200382F6115710519F028303105E5
:100E800058F091E02830310509F090E02091E80019
:100E90002E772093E800CBCF81918093F1006150B1
:100EA00071092F5F3F4FE7CF80913105882341F0D3
:100EB000853041F08091E80083FFBECF81E0089546
:100EC00082E0089583E008950895089580912605AD
:100ED00008959C014FB7F89480911A0590911B05D5
:100EE000A0911C05B0911D054FBF821B930B089567
:100EF0002FB7F89460911A0570911B0580911C051D
:100F000090911D052FBF08952FB7F89480911A0571
:100F100090911B05A0911C05B0911D052FBF089550
:100F20009C01FC0132969FEF80E04191461751F001
:100F30009F3F19F4411101C0982F8F5F8630A9F7A8
:100F40009F3F09F40895290F311D97FD3A95F90146
:100F500062830895209117053091180528173907E5
:100F600071F09093180580931705E0911505F091A5
:100F70001605309721F00084F185E02D099508953C
:100F800020911305309114052817390771F09093BB
:100F9000140580931305E0911505F091160530971F
:100FA00021F00680F781E02D09950895FA0181115D
:100FB00001C0FB010995089580937101809164053A
:100FC0008370809370010E941C0D83E080937201F6
:100FD000089522E8241B08F420E0620F089540954C
:100FE000282F429F412D1124842F08950E94D50857
:100FF0000895FF920F931F93CF93DF93182F062F1F
:10100000F42ED0E0C0E02F2D402F612FCE010E94A2
:10101000F6072196C434D105B1F7CDB7DEB7E5E0C8
:101020000C941332E42FF0E0EE0FFF1FE05CFD4F55
:10103000408134EE439F412D1124E82FF0E050E031
:10104000445E5F4FDA01A21BB1099D01B7FF03C0E7
:1010500031952195310993E0220F331F9A95E1F7DD
:10106000AF01421B530B9A0157FD20E0582F259FDB
:10107000212D1124822F0895AF92BF92CF92DF923B
:10108000FF920F931F93CF93DF93362F472FE82FB5
:10109000F0E0EF55FB4F71110FC0E4918E2F2E2F12
:1010A0006E2F722FDF91CF911F910F91FF90DF90E4
:1010B000CF90BF90AF900895C72FD0E02491F22E2B
:1010C000022F10E056E0659FC0011124EFEFF0E021
:1010D000BF010E942D32832F90E0880F991F35E5C4
:1010E000369FD001379FB00D11248A1B9B0B982F80
:1010F000990F980F6F01CC1ADD0AC09ED001C19ED6
:10110000B00DD09EB00D11248B2F499FA00111244A
:10111000452F55276F01C41AD50AC09EA001C19E54
:10112000500DD09E500D11245F01A91AB108AC9E3C
:101130006001AD9ED00CBC9ED00C1124CD2CDD24C2
:10114000EC19FD09E09FE001E19FD00DF09FD00D6B
:101150001124ED2F62307105A1F050F46115710575
:1011600009F49ECF6130710581F0EB2F852F98CF68
:101170006430710569F080F06630710509F490CF34
:10118000F4CFE22F2B2F8D2F8BCFE22F252F88CF5F
:10119000EB2F822F2D2F84CF2B2F8F2DE52F80CF5C
:1011A00089B185FB882780F90895FF920F931F93DB
:1011B000CF93DF93EC01F62E042F122F0E94D0085C
:1011C00081110FC0C232D1057CF0A297FE01EE0F53
:1011D000FF1FEC0FFD1FEE5BFB4FF18200831283BC
:1011E00003C0C232D10594F3CDB7DEB7E5E00C946D
:1011F0001332CF93C82F0E94D008882329F081E0B2
:10120000C23228F080E003C081E0C434D8F7CF9127
:101210000895B0E0A0E0EFE0F9E00C94F2317C0139
:10122000C09174018EE0C89FC02D11241EE01C0FD8
:10123000153408F014E40E94D008882319F0133202
:1012400008F012E20E94D008811103C0C23208F4F3
:10125000C2E22091680531E0230F08F42FEF30E05F
:1012600050E040E06FEF7FEF80E090E00E94263397
:101270006901D0E001E0B12CA12C2C2FC11740F066
:10128000812F0E94F908CDB7DEB7EAE00C940E3248
:10129000FE01E853FD4F808190917501892329F16A
:1012A00080913B058150082E000C990B87FF1FC0D1
:1012B000B60130916805300F08F43FEFA501639F38
:1012C000412D739F400D511D112460916505709152
:1012D000660580916705F70109950E943C08462F35
:1012E000282F672FCE010E94F6072196C6CFFC015A
:1012F000E55CFA4F318932130AC0FC01EE0FFF1F83
:10130000E55CFA4F618D728D6C157D0590F2019749
:10131000CDCFF894E82FE295EF70F0E031A1282FBF
:101320002F7081E090E001C0880F2A95EAF7982F8E
:101330009095932391A392A1892B82A378940895E9
:101340009091B00392FF06C0282F28712830F9F43D
:10135000877F846093FF06C0282F28712831F1F41D
:10136000877E84612091B10320FF06C0382F387139
:101370003830D9F4877F816021FF06C0282F28717B
:101380002831D1F4877E816194FD877E0895282FCE
:1013900024712430F9F68B7F8860DCCF282F2471EC
:1013A000243101F78B7E8861DDCF382F31713130E8
:1013B00019F78E7F8860E0CF282F2171213121F726
:1013C0008E7E8861E1CFCF93DF93EC018238910567
:1013D000B1F108F040C08133910509F49DC048F592
:1013E0008932910509F48DC08A9709F49CC0C11512
:1013F00022E5D20708F0BDC0C11531E5D30708F0DA
:1014000024C1C83ED10508F0A3C0C13ED10588F56E
:10141000C83AD10508F08EC0C53AD10508F0F6C02B
:10142000C130D10531F1209721F1C430D10508F543
:1014300045C08533910509F45FC0C997C1F6809115
:10144000B003837009F036C18091B10383FF11C0EE
:10145000C9E2D0E00EC0833E910599F170F4803E60
:10146000910501F1823E910511F68091B00382FD54
:1014700021C0CE01DF91CF910895863E910561F1A3
:10148000873E910571F1843E910509F0B0CF8091BE
:10149000B10381FFEECF8091B003C7EED0E084FDB1
:1014A0000DC0E7CF8091B00380FD33C09091B103B0
:1014B00090FFDFCFC3EED0E084FFDBCFD0E0C0E011
:1014C000D8CF8091B00382FDF2C09091B10390FD1E
:1014D000F1C084FFCECFF2CF8091B00383FDDDCF8A
:1014E000C8CF8091B00383FDE8C09091B10391FF14
:1014F000F0CFC4EED0E0BDCF8091B00385FFB9CF6F
:10150000A7CF8091B00385FDDBC08091B10383FF3D
:10151000B0CFC9E3D0E0ADCF8091B00386FFA9CFB3
:10152000CAE2D0E0A6CF8091B00386FFA2CFC1E38C
:10153000D0E09FCFCF3BD10508F6C85AD0E0CC0F02
:10154000DD1FCC54DE4F0990D881C02DD46491CFDB
:10155000C11540E5D40708F064C0C11580E4D80780
:1015600008F05CC0CE019A9581159F4108F481CFA7
:10157000A5CFC11536E5D30718F5C11545E5D40744
:1015800008F07CC0C11584E5D80708F072C09E0140
:10159000237033279C2F96959695C115D34508F453
:1015A00059C0C1E0D0E002C0CC0FDD1F2A95E2F7A0
:1015B00030E2939FC0011124C82BD92BDA6859CF90
:1015C000C1158AE5D80778F4C11529E5D20708F0D6
:1015D00060C0C11538E5D30708F470CFDC2FCC27E5
:1015E000C06FD06A46CFCE0190568115904208F068
:1015F00065CF8D2F8F710E94A00990E0982F8827CA
:1016000088279F719C012C2BE90141C0C55AD0E06D
:10161000CF54DE4FC881D0E0D0642BCFDF70D06ACA
:1016200028CFCE018370992721E030E002C0220F3D
:10163000331F8A95E2F7C695C69580E2C89FE00100
:101640001124C22BD32BDD6814CFDC2FCC27C16F24
:10165000D06A0FCFC1E0D0E002C0CC0FDD1F2A95C9
:10166000E2F720E2929FC0011124C82BD92BDC683D
:1016700000CFDC2FCC27C46FD06AFBCE8C2F0E940A
:10168000A009C82FD0E0DC2FCC27CC27DF71D06297
:10169000F0CE8C2F8F700E94A00934E0D695C795AC
:1016A0003A95E1F7CF709C2FEC01D069E2CEC2EE03
:1016B000D0E0DFCEC0EED0E0DCCEC6EED0E0D9CEBA
:1016C000C5E3D0E0D6CE80917003811110927003F3
:1016D0000895809590910F05982390930F05089594
:1016E000809590911005982390931005089580910E
:1016F000660390913503981301C008958F5F87703A
:10170000FACF292F9A3078F5863068F590E036E0E8
:10171000239F800D911D1124682F677023E09695FB
:1017200087952A95E1F7FC01EE0FFF1FE80FF91FDF
:10173000E95EFC4F50E040E080E0219130E0062E71
:1017400002C0369527950A94E2F721703327042EBC
:1017500001C0220F0A94EAF7822B4F5F5F4F43309C
:10176000510559F7089580E00895292F9A3098F58A
:10177000863088F590E036E0239F800D911D11247E
:10178000282F277041E001C0440F2A95EAF723E093
:10179000969587952A95E1F7FC01EE0FFF1FE80F5C
:1017A000F91FE95EFC4F30E020E070E05191DF016D
:1017B0001197CB01022E02C0969587950A94E2F705
:1017C000817081958527842385278C932F5F3F4FD8
:1017D0002330310559F70895829590E09C01220F3E
:1017E000331F220F331F2C7C9595879595958795F0
:1017F0008373282B30E0C901880F991F8A7A3595A9
:1018000027952575822B08959C013A9521153F4116
:1018100050F5FC01EE27F170BC0166277270AC0137
:10182000442754709C012227387094FF0EC080E139
:10183000EF2B09F480E0672B09F08062452B09F05B
:101840008064232B89F08068089581E0EF2B09F4F0
:1018500080E0672B09F08260452B09F08460232B20
:1018600019F08860089580E008959FB7F894109269
:1018700022059FBF90913105943009F048C0209116
:10188000E9002F703091EC00932F917030FD90E8BB
:10189000922B25E02093E9002091EB0020FF34C03B
:1018A0002091EE0027FF30C020912105222321F056
:1018B0002091E80025FF28C01092210526E03091F4
:1018C000E80035FF14C08093F1008091E80085FDA9
:1018D00027C08091E80080FFFCCF8091E8008E77E0
:1018E0008093E8009F709093E90080E00895309124
:1018F0003105343049F43091EB0035FD05C02150FD
:1019000041F481E0809321059F709093E9008FEF6F
:101910000895EFE9FFE03197F1F700C00000CFCF65
:101920008FB7F89421E0209322058FBFDBCF8093FF
:101930001E057093200560931F058091310584304A
:10194000F9F48093E9008FEF9091E800815095FDC4
:1019500006C095ED9A95F1F700008111F5CF8091C1
:10196000E80085FF0DC050E040E063E070E08EE1EC
:1019700095E00E9430068091E8008E778093E80021
:101980000895BC0184E00E94970C0895BC0183E097
:101990000E94970C0895CF93DF93EC0181E0809330
:1019A000E9008FEF9091E800815095FD06C095ED1C
:1019B0009A95F1F700008111F5CF8091E80085FF3D
:1019C00014C050E040E068E070E0CE010E943006B4
:1019D0008091E8008E778093E80088E0FE01A7E21E
:1019E000B5E001900D928A95E1F7DF91CF910895CE
:1019F00081E08093E00080E28093D8001092C900DB
:101A00008FE19EE40197F1F700C0000087E090EBC2
:101A1000DC0180936E0590936F05A0937005B093E1
:101A2000710588E19CE00FB6F894A895809360005A
:101A30000FBE90936000FFCF6E9A3EB13F7B2EB1F8
:101A400020644FB7F89482E494E0FC015191CF01F7
:101A500068E02EB9000000C057FF3EB9550F0000E6
:101A600000C000C000C03EB900C06A9591F7F5E023
:101A70008E309F0751F74FBF8FE594E00197F1F744
:101A800000C00000089580917C03811110C08091F6
:101A9000D80080618093D8008AE18A95F1F700C070
:101AA0008091D90080FF0AC081E080937C0381E0AF
:101AB00090917C03913009F080E0089582E080935A
:101AC0007C030E94E00510923105F1CF0E94430D86
:101AD000882359F0E0911505F0911605309729F00B
:101AE0000190F081E02D0995089580E008950F930D
:101AF0001F930E94430D882329F00E9478071F91AD
:101B00000F9108950E9478070091A0031091A103FE
:101B10002091A2033091A303600F711F821F931FB6
:101B2000EECFCF92DF92EF92FF926B017C010E9489
:101B3000430D8823A1F02FB7F89460911A05709196
:101B40001B0580911C0590911D052FBF6C197D0907
:101B50008E099F09FF90EF90DF90CF9008950E942B
:101B6000770DF4CFCF93DF93C7EFD2E060E0CE01E3
:101B70000E9402332196C11584E0D807B9F7DF919E
:101B8000CF9108951F93CF93DF93122F8630E0F407
:101B90006A30D0F44630C0F4C42FD0E0CC0FDD1F43
:101BA0009CE0699FC00DD11D112498E7899FC00D4D
:101BB000D11D1124632FCE0187960E940233612F1D
:101BC000CE0188960E940233DF91CF911F91089534
:101BD000AF92BF92CF92DF92EF92FF921F93CF937B
:101BE000DF9381E2C82E86E0D82ED0E07601C0E0F7
:101BF00014C0F50125913491412F6C2F8D2F0E9437
:101C0000C20D82E0A80EB11C1F5F163091F78CE068
:101C1000E80EF11CCF5FCA3019F0570110E0E9CF90
:101C2000DF5F88E7C80ED11CD63001F7DF91CF9176
:101C30001F91FF90EF90DF90CF90BF90AF900895ED
:101C4000CF93C82F6FEF811162E283E290E00E9490
:101C500002336FEFC11160E184E290E00E94023331
:101C60006FEFC11165E085E290E00E940233CF91F1
:101C7000089580E00E94200E60E086E290E00E94DD
:101C800002330E94E80D0E94B20D81E00E94200EF6
:101C900008950F931F93CF93DF93863030F56A300A
:101CA00020F5463010F5C42FD0E0CC0FDD1F2CE01E
:101CB000629FC00DD11D112438E7839FC00DD11D37
:101CC0001124CE0187960E94E432082F10E0102FD5
:101CD0000027CE0188960E94E4329801282BC90182
:101CE000DF91CF911F910F91089590E080E0F8CFA0
:101CF000462F863040F47A3030F4663020F4672F77
:101D00000E94490E089590E080E00895CF92DF92FE
:101D1000FF920F931F93CF93DF936C0100916D059A
:101D200080917103082BC7E0D0E010E0FC2EC801C1
:101D30000C2E02C0959587950A94E2F780FD0CC0A1
:101D40002197A0F7F12C8F2DDF91CF911F910F914B
:101D5000FF90DF90CF900895B6018C2F0E94780EEF
:101D60000E94E309019761F3EECFCF93DF93EC017B
:101D70000E94860EBE010E94780E0E94E309DF9148
:101D8000CF910895FC0183819481892B29F0808172
:101D9000918189238F3F51F480E00895843FE1F7DA
:101DA00017C0883EA8F0813FB9F712C080819181A9
:101DB0000E94B50E92959F70963099F358F4925FF9
:101DC0009F70923048F7803F19F040F7883E20F727
:101DD00081E008959A5FF4CFA5E0B0E0E2EFFEE085
:101DE0000C94F93149835A8389819A81662399F049
:101DF000222389F00E94860E182F682F89819A81EC
:101E00000E94B50B69817A81812F0E94780E2596F8
:101E1000E3E00C9415320E94810B182FF3CF83E27C
:101E200090E00E94E432823289F484E290E00E94E1
:101E3000E432803159F485E290E00E94E43291E08E
:101E4000853009F090E0892F8170089580E0FCCF03
:101E5000CF9384E090E00E94E432C82F82E290E0C9
:101E60000E94E432982F8C2FCF91089546E050E0E5
:101E70006CE170E084E695E00E94F2321092410439
:101E800008958093680590914104962B90934104A6
:101E90009091400490FF16C025E831E0662311F0D0
:101EA00027E831E01F928F933F932F9382E096E0D3
:101EB0009F938F930E94C0050F900F900F900F90EB
:101EC0000F900F9008958091680520E1382F321B04
:101ED00008F430E0832F61E00E94410F0895809163
:101EE000680520E1382F320F08F43FEF832F61E0BF
:101EF0000E94410F089530916405337071F1809311
:101F0000650560936605493708F048E74093670523
:101F100030914104322B309341043091400430FF22
:101F20001CC050E09927211119C025E831E05F93CA
:101F30004F931F926F939F938F933F932F938FEDA8
:101F400095E09F938F930E94C0058DB79EB70A9628
:101F50000FB6F8949EBF0FBE8DBF089527E831E0FD
:101F6000E6CFE4E6F5E0438120E1421B08F440E0DF
:101F7000818121E0628190E00E947B0F0895E4E678
:101F8000F5E0438120E1420F08F44FEF818121E029
:101F9000628190E00E947B0F0895E4E6F5E06281A3
:101FA00020E1621B08F460E0818121E0438190E040
:101FB0000E947B0F0895E4E6F5E0628120E1620F64
:101FC00008F46FEF818121E0438190E00E947B0F54
:101FD0000895E4E6F5E0818121E043816281885043
:101FE000990B0E947B0F0895E4E6F5E0818190E073
:101FF00021E04381628108960E947B0F08959091B1
:102000006405937051F1811129C094609093640527
:102010001092720180914104862B8093410480913B
:10202000400480FF1AC0209164052695269585E816
:1020300091E0662311F087E891E01F922F939F9320
:102040008F9385EC95E09F938F930E94C0050F902E
:102050000F900F900F900F900F900895883010F010
:102060009C61D4CF880F880F982BD0CF80916405C6
:1020700086958695815009F487E061E00E94FF0F04
:10208000089580916405869586958F5F883008F065
:1020900081E061E00E94FF0F08958091400480FF7D
:1020A00008C081EA95E09F938F930E94C0050F902E
:1020B0000F908DE080936405809177019091780175
:1020C000A09179018093650590936605A0936705BB
:1020D00088E7809368058FEF809369050E94360F2B
:1020E0000895B0E0A0E0E7E7F0E10C94EF317C0167
:1020F0005B01842E752E690180917D0301E010E063
:102100008A3010F40AE010E0C1E0D0E0B501C70168
:10211000F6010995982E811114C021960C171D0700
:10212000B4F48091400480FF0CC07F928F9284EEC3
:1021300092E09F938F930E94C0050F900F900F9095
:102140000F90892DCDB7DEB7EDE00C940B32CC9F0C
:102150009001CD9F300D300D112490E080E045E3DB
:102160004A95F1F70000019628173907C1F7CECF3D
:10217000B0E0A0E0EEEBF0E10C94ED31182F80918F
:102180007101811323C090916405937020917001B7
:1021900030E081E09217130609F480E081708093AB
:1021A00076018091690590917501981739F08093B7
:1021B000750140E060E080E00E94F907183060F4AB
:1021C000E12FF0E0E557FC4C0C94553281E0E6CF6E
:1021D00080917601811102C080E0A0C040E060E003
:1021E00080E00E94F907F8CFC09174018EE0C89F8B
:1021F000C02D11240EE00C0F053408F004E40E94F9
:10220000D008882319F0033208F002E20E94D008B7
:10221000811103C0C23208F4C2E260916505709179
:102220006605809167050E943C08F62EE72ED82EA1
:10223000D0E0C01710F0802F6FC0FE01E853FD4FB3
:10224000808190917501892331F02D2D4F2D6E2DB8
:10225000CE010E94F6072196ECCFE0907401DEE0FB
:10226000ED9ED02D1124CEE0CD0FC53408F0C4E48E
:102270000E94D008882319F0C33208F0C2E20E94FD
:10228000D008811103C0D23208F4D2E26091650512
:102290007091660540916705E0913B04F0913C0424
:1022A0008091680586958695869530E020E0E89FC8
:1022B000212DF89F200D311D1124922F96FD209580
:1022C000322F3F7096FD3F5F269526952695267006
:1022D000E22FF0E0E851FE4F8181839F802D312D68
:1022E000112482958F703295307F832B2081820F4D
:1022F00097FD819587FD8195880F282F249F212D9B
:102300001124822F0E943C08062FD72EC82EED2EB6
:10231000F12CEC16D8F08C2F0E94F90890917401E2
:102320009F5F9093740181110CC082E080937201D1
:1023300080917601811105C0111103C083E0809363
:102340007201CDB7DEB7EFE00C940932F701E85324
:10235000FD4F808190917501892331F02C2D402F04
:102360006D2DC7010E94F6074FEFE41AF40AD1CF92
:10237000C09174018EE0C89FC02D11240EE00C0F97
:10238000053408F004E40E94D008882319F00332D1
:1023900008F002E20E94D008811103C0C23208F4A2
:1023A000C2E2309168053695369521E0320F08F487
:1023B0003FEF40913B0450913C0490E080E0439F0C
:1023C000812D539F800D911D1124F82ED0E0C01750
:1023D00008F031CFFE01E853FD4F808190917501E7
:1023E000892391F06091650570916605809167057C
:1023F0002F2D4C2F0E9412080E943C08462F282F98
:10240000672FCE010E94F6072196E1CFE09074017C
:102410008EE0E89EE02C11247EE0F72EFE0C94E482
:102420009F1510F464E4F62E0E94D008882329F04A
:10243000A2E2AF1510F452E2F52E0E94D0088111ED
:1024400005C0B2E2EB1610F442E2E42E8091760170
:10245000882361F040E060E080E00E94F907E2ED4F
:10246000F3E08CE3DF011D928A95E9F78091740116
:10247000811115C08091CE039091CF030E9469070E
:1024800021E08931910508F420E02093CD0349979C
:1024900030F00E9484079093CF038093CE03A12C49
:1024A000912CB12C96E0792E25E5622E3AEA832E06
:1024B0005524539405C0ADE0A91508F453C0B12CC0
:1024C0002B2D30E07A9CE0011124FE01EC5FFD4FE2
:1024D000E20FF31FC080CE1408F43CC0CF1408F004
:1024E00039C09394D12CF601E853FD4F808190912F
:1024F0007501892309F42EC0CE52DC4FC20FD31FC1
:102500000881302F262D321B08F430E070916605CB
:10251000282D200F08F42FEF40916705822F880F98
:10252000820F8E5F282F249F212D1124822F682D4A
:10253000631B0E943C08462F282F672FC6010E946C
:10254000F6078091CD03882329F0452D041B08F45C
:1025500000E00883B39486E0B812B2CFA3949AE067
:10256000A912A9CF8F2DD8CE00916705B3E00B9F9C
:10257000E0011124D695C795D695C7955C2EA02E5F
:10258000B12C8FEF90E0B5010E944132762E809100
:102590007601882371F040E060E080E00E94F90756
:1025A000E2EDF3E08CE3DF011D928A95E9F71092EA
:1025B000D1038091D0038F5F8093D003F12CE12C65
:1025C000AC1ABD0A6701612CD701AE52BC4F4D0158
:1025D0008091D103862909F045C00E94AE3285352D
:1025E00095400CF03FC0F4010083F601EC5FFD4F15
:1025F000E081EF3FD1F0D601AE52BC4F2C91F0E01C
:10260000521608F040C030E02C1B3D0B2C9FC0013F
:102610002D9F900D3C9F900D1124B5010E942D32ED
:10262000262F402FCF010E94F6076394F6E0CF0ECD
:10263000D11C2AE06212CCCF4FEFE41AF40A86E0F4
:10264000E816F10409F0BECF8091D003781202C0E1
:102650001092D0038091D1038F5F8D31F0F480937D
:10266000D103BACDF601EE52FC4F8081882309F4E4
:10267000BCCF801708F0B9CF9091D0037912B5CFB5
:1026800081508083B2CF029FC0011124BE010E94FD
:102690002D32462F20E060E0C5CF1092D10322E01A
:1026A00034E089E09FEF900FE2EDF3E0D90189304B
:1026B00021F446A9041301C096AB4D91401730F0A8
:1026C000ED012197988315960C931597319643E069
:1026D000E83DF40761F78150265031098111E4CFBC
:1026E0007BCD8FEE97E00E94090918CE89EE97E026
:1026F000FACF4F925F926F927F928F929F92AF929A
:10270000BF92CF92DF92EF92FF9260913704709167
:1027100038048091390490913A040E94910D6B0124
:102720007C010E94770D4B015C01809237049092EE
:102730003804A0923904B0923A04A0910E04EEE05D
:10274000F4E08A2F90E04FEF5FEF60E070E04C190B
:102750005D096E097F09A91328C080930E0480913A
:102760003F04811135C090916405892F837019F061
:10277000892F8695869590917201913009F441C018
:10278000992341F1923009F43FC0933009F43FC0DE
:10279000FF90EF90DF90CF90BF90AF909F908F9081
:1027A0007F906F905F904F900895218D328D290119
:1027B000712C612C441555056605770520F4815070
:1027C0009F5F3296C8CF2C0D3D1D328F218FF8CFE1
:1027D00080E0D1CF1092740180923B0490923C042F
:1027E000A0923D04B0923E0489E2EEE0F4E0ABE357
:1027F000B5E001900D928A95E1F781E08093720136
:10280000C7CF0E94B810C4CF0E94DC07C1CF80910F
:10281000410481110E94360F60913B0470913C0489
:1028200080913D0490913E040E94910D60317105AC
:102830008105910508F4ACCF10927201A9CFAFE0E9
:10284000B0E0E5E2F4E10C94EF318E010F5F1F4F31
:102850008AE0D8011D928A95E9F784E3C82E81E0C9
:10286000D82EF12CE12CAA24A394B12C24E3822E9F
:1028700021E0922EF60181916F018F3F09F442C051
:10288000F894E82FE295EF70F0E021A18F70A50198
:1028900002C0440F551F8A95E2F7CA01922F982B68
:1028A00091A392A18095892382A3789400C0EEE23F
:1028B000F1E0712C31E021912F3F09F46BC0A22F80
:1028C000A295AF70B0E090968C9190E02F7002C00E
:1028D000959587952A95E2F780FD5CC0832F782A2D
:1028E000330F8E169F0639F7F601319780818F3F9F
:1028F00011F00E94890950EA5A95F1F7F801EE0D9E
:10290000FF1D70828FEFE81AF80AA5E0EA16F104BD
:1029100009F0B0CF4AE050E0B80184EA93E00E94A9
:10292000BE32009741F02AE0F801A4EAB3E001903A
:102930000D922A95E1F70091AF03892B69F181E0AF
:10294000809374030E9484079093730380937203AF
:1029500080917203909173030E946907059700F1BB
:1029600010E00D531C4F45E050E064EA73E0C801ED
:102970000E94BE32C12C892B51F085E0E4EAF3E0DD
:10298000D80101900D928A95E1F7CC24C39410925E
:10299000740307C080E0A3CF809174038111D8CF66
:1029A000C12C0E94430DD82EE091AF03882309F477
:1029B00092C07E01BBE0EB0EF11C85E0D7011D92B9
:1029C0008A95E9F70E2F10E00D531C4FB0907D0350
:1029D000B9E0BB15E0F12AE73CE14EE851E0B70170
:1029E000C8010E947110882309F453C022EC3BE116
:1029F0004BE951E0B701C8010E947110882309F426
:102A000048C028E13CE146EA51E0B701C8010E9414
:102A100071108823F1F1F9E0FB1508F453C010920E
:102A20007D038091AE0390E045E050E0B7018D5307
:102A30009C4F0E94BE3221E020937B03892BE1F45E
:102A4000D12C8D2D8C292F96EDE00C940B3280919A
:102A50007503909176030E946907843F914008F0C6
:102A6000BACF80917B03882359F385E0D7011D926B
:102A70008A95E9F710927B03A091AE03B0E0AD53C5
:102A8000BC4F85E0FE013B9601900D928A95E1F7DF
:102A9000D8CF80917D038F3F31F08F5F80937D038E
:102AA0008A3008F4BECF0E94840790937603809307
:102AB00075038091400480FFD4CF8EEA92E00E949B
:102AC0002705CFCF8091400480FFA9CF8BE992E00A
:102AD0000E942705A4CFF0E0ED53FC4F85E0ACE861
:102AE000B3E001900D928A95E1F78CE893E00E94A3
:102AF000C90580938B038090910390909203A090DE
:102B00009303B09094038091770390917803A09100
:102B10007903B0917A0388169906AA06BB06D1F00C
:102B20008092770390927803A0927903B0927A030F
:102B30000E94430D81110EC00E947807861A970AE1
:102B4000A80AB90A8092A0039092A103A092A203BE
:102B5000B092A30386E0E5E9F3E0A4E6B5E00190D6
:102B60000D928A95E1F710919B03112349F0809112
:102B70003F04811105C00E94B81080E00E94DC076C
:102B800010933F045ECF0F931F93CF93DF938091F9
:102B9000100590910F05892B80930E03909170037F
:102BA000992391F0892B80930E0320E080E193E03C
:102BB000FC013191CF0131112F5FF3E086319F0786
:102BC000B9F721110E94630B48E050E068E673E01A
:102BD0008EE093E00E94BE32892B09F441C088E068
:102BE000EEE0F3E0A8E6B3E001900D928A95E1F7FC
:102BF000E0911505F0911605309791F10280F3816F
:102C0000E02D8EE093E009958091400482FF28C07A
:102C100080FF04C089E892E00E942705D0E0C0E070
:102C200003E812E08091400480FF0EC0FE01E25FE5
:102C3000FC4F80811F928F931F930F930E94C005BA
:102C40000F900F900F900F902196C830D10551F73B
:102C50008091400480FF04C081E892E00E94270533
:102C6000DF91CF911F910F910895CF93DF93EC01E6
:102C7000EA85FB85309719F06C857D8509958B81F8
:102C80000E94690B8C810E94700B0E94C31586E024
:102C9000FE0111928A95E9F7DF91CF910895CF93C4
:102CA000DF93EC018D8181FD18C082608D8380915E
:102CB0000F059B81892B80930F05809110059C81C6
:102CC000892B809310050E94C315E885F9853097FC
:102CD00021F06C857D85CE01099510921205109228
:102CE00011058D8180FD03C0CE010E943516DF9154
:102CF000CF91089590E080E00E94C00790E080E0CE
:102D00000E94AA0710920F050E94C3150895809390
:102D10006D050E947A16089580916D05982F967022
:102D2000963021F488600E9487160895877FFBCF34
:102D300021E030E001C0220F8A95EAF720958091CA
:102D40006D0582230E9487160895909167038095F0
:102D5000892380936703282F277091F4282F082E4A
:102D6000000C330B9217130659F09091B10392FFA8
:102D700007C08595859585950E94981610926703E2
:102D80000895CF93DF93D82FC091B103C2FB88275A
:102D900080F98D1711F1D0FBC2F9C093B103609196
:102DA000B00384E090E00E9402336C2F82E290E056
:102DB0000E94023382E00E94A5168091400480FFA9
:102DC0000CC01F92DF938CE692E09F938F930E943A
:102DD000C0050F900F900F900F90DF91CF91089545
:102DE00021E030E001C0220F8A95EAF780916D055D
:102DF000822B0E9487160895809371030E947A1691
:102E0000089510921005E0E1F3E086E0DF011D92E5
:102E10008A95E9F70E947A160895AAE2B0E0E3E104
:102E2000F7E10C94F93183E395E02091F100DC01A6
:102E30002D93CD01B5E08B339B07B9F78091340515
:102E4000833009F472C0B8F4813009F449C082308B
:102E500009F4B3C08091E80083FF91C280913305EB
:102E6000909134059A3008F08AC2E92FF0E0ED56CF
:102E7000FC4C0C9455328A3009F48EC08B3009F426
:102E800071C0893039F780913305813219F780910B
:102E9000370590913805009711F00297D9F6809187
:102EA000E800877F8093E8008091E80082FF38C0C7
:102EB0009091F3008091F200029731F48091F1003B
:102EC000813011F0863021F48091F1008093260545
:102ED0008091E8008B778093E8000E945A06BACF71
:102EE00080913305813A09F0B5CF8091E800877F62
:102EF0008093E8008091370590913805892B61F423
:102F000068E087E295E070E00E9406078091E800A3
:102F10008B778093E8009ECF60E090E080E0F3CF75
:102F2000809131058111C0CF95CF80913305813AD1
:102F300009F090CF8091370590913805892B09F0E1
:102F400089CF8091E800877F8093E8008091E80036
:102F500080FFFCCF809173018093F1008091E800A5
:102F60008E77B9CF80913305813209F073CF80918C
:102F7000370590913805892B09F06CCF8091E800D6
:102F8000877F8093E8000E945A06809135058093E0
:102F900073010E9401175ECF80913305813209F0E1
:102FA00059CF8091E800877F8093E8000E945A06FD
:102FB00080913605809325054DCF80913305813A68
:102FC00009F048CF8091E800877F8093E8008091E6
:102FD000E80080FFFCCF80912505BECF803899F0B6
:102FE000823809F0CCC1809137058F70873008F0A6
:102FF000C6C18093E9008091EB0085FB882780F9AA
:103000001092E90006C080912F0590913005911132
:1030100082609091E800977F9093E8008093F100A0
:103020001092F1008091E8008E77A5C1882309F401
:1030300093C1823009F0A3C180913505811196C1F9
:10304000809137058F702FEF280F263008F097C139
:103050008093E9002091EB0020FF88C1933031F488
:103060008091EB0080628093EB0080C19091EB0037
:1030700090619093EB0021E030E001C0220F8A952F
:10308000EAF72093EA001092EA008091EB00886052
:10309000EACF811174C1109135051F778091E3004B
:1030A0008078812B8093E3008091E800877F809374
:1030B000E8000E945A068091E80080FFFCCF8091D2
:1030C000E30080688093E30082E0111183E0809345
:1030D000310555C18058823008F051C12091350525
:1030E000309136052C3DE3E03E07A1F583E08A836D
:1030F0008AE289834FB7F894DE01139620E03EE020
:1031000051E2E32FF0E050935700E49120FF03C019
:10311000E295EF703F5FEF708E2F90E0EA30C0F0E5
:10312000C7968D939D932F5F243159F74FBF8091A0
:10313000E800877F8093E8006AE270E0CE010196A4
:103140000E9406078091E8008B778093E80017C102
:10315000C096E7CF8091370590913805432F5527CA
:103160004330510509F44AC078F54130510509F45E
:103170007AC08BE790E0E5E0F9E04230510509F0D4
:10318000FEC02091E800277F2093E80020913905B8
:1031900030913A058217930708F49C0140E021150D
:1031A000310509F065C0411163C08091E80082FDDE
:1031B000C9CF80913105882329F2853019F2809199
:1031C000E80083FFF2CFBECF4132510509F43CC085
:1031D0004232510509F0D3C08430910508F0CFC0C8
:1031E000FC01EE0FFF1FEC50FE4F0190F081E02D2F
:1031F00080519E4FDC018C9190E01AC03327213022
:103200003105D1F02115310561F02230310509F089
:10321000B6C0E2E9F9E0E4918E2F90E0E2E9F9E04E
:1032200007C0EEEBF9E0E4918E2F90E0EEEBF9E0D1
:10323000009709F4A4C0A5CFEEEAF9E0E4918E2F3F
:1032400090E0EEEAF9E0F4CF8430910508F097C001
:10325000880F991FFC01E450FE4F0190F081E02D92
:1032600089E090E08ECF82E190E0E0E8F9E089CF5C
:1032700080913105882309F465CF853009F462CF48
:103280008091E80083FD5ECF8091E80082FD8DCFC4
:103290008091E80080FF83CF9091F3008091F2004D
:1032A0002115310519F08830910550F041E008975B
:1032B00009F040E08091E8008E778093E8006FCFBE
:1032C00044914093F1003196215031090196E8CFA5
:1032D000803809F054C08091E800877F8093E8002F
:1032E000809132058093F1009DCE811148C01091EC
:1032F0003505123008F043C08091E800877F809345
:10330000E800109332050E945A06112311F084E060
:1033100005C08091E30087FDFACF81E080933105FD
:1033200042E061EC81E00E94790642E261EC84E0D7
:103330000E94790642E261EC82E00E94790642E254
:1033400060EC83E00E94790642E261EC85E00E9435
:1033500079068091310513C080913505813079F46B
:1033600081E0933009F080E0809330051092E9000D
:103370008091E800877F8093E8000E945A06809140
:10338000E80083FF0AC08091E800877F8093E8000F
:103390008091EB0080628093EB00AA96E3E00C94AE
:1033A00015320E9401172FEF84E39CE021508040EA
:1033B0009040E1F700C0000088E19CE00FB6F8946F
:1033C000A895809360000FBE90936000FFCF882384
:1033D00021F00E94690B0E94C315089580910E058B
:1033E000882329F082E20E94E71910920E050895C1
:1033F000882339F090910F05982B90930F050E9428
:10340000C3150895882321F00E94700B0E94C315F4
:103410000895882339F090911005982B909310050A
:103420000E94C3150895882391F19CEF980F913A5B
:1034300080F4E0E1F3E026E133E09191891303C0E9
:10344000DF0111971C922E173F07B9F70E94C31591
:10345000089590E2980F983050F4877091E001C081
:10346000990F8A95EAF7892F0E94700BEFCF9BE5A1
:10347000980F933028F490E080E00E94C0070895F0
:10348000885A873120F490E080E00E94AA070895CE
:10349000CF93DF93EC010E94131ACE010E94040C1B
:1034A0009E01205E31092830310510F0CD2B29F422
:1034B0000E94021ADF91CF9108950E94E719FACF76
:1034C000FC018281813031F4FB01808191810E9475
:1034D000481A08958230E9F7FB0182819381F7CF82
:1034E00080910D01843061F038F4823049F08330EE
:1034F00059F010920D010895853051F08630C9F7CA
:1035000088E20E94131AF5CF82E00E949816F1CF4C
:1035100083E0FBCFCF93C82F8823B1F08CEF8C0FC3
:10352000813A00F5E0E1F3E086E193E0DF012D91DF
:10353000C21761F08A179B07D1F76C2F8EE093E0DA
:103540000E9490070E94C315CF9108952191C21344
:1035500003C0DF0111971C928E179F07B9F70E94D5
:10356000C315EBCF80E28C0F883068F4C77021E080
:1035700030E001C0220FCA95EAF780911005822B36
:1035800080931005DFCFEBE5EC0FE33040F4F0E083
:10359000EF54FE4F808190E00E94C007D5CFC85AFB
:1035A000C73190F6EC2FF0E0EE0FFF1FEC54FE4F0A
:1035B000808191810E94AA07C7CF1F93CF93DF9389
:1035C000182FD0E0C0E0893311F4C0E5D0E0812F9E
:1035D0000E948A1A209739F4812F0E94131ADF91D2
:1035E000CF911F9108958FE99FE00197F1F700C0F7
:1035F00000002197EFCF0F931F93CF93DF93C62F38
:10360000D42F022FFC0182818823A9F060936C05DE
:103610000E94840790936B0580936A05C77081E0D0
:1036200001C0880FCA95EAF70E94091ADF91CF916D
:103630001F910F91089580916C05681332C080919D
:103640006A0590916B050E946907883C910548F5D1
:1036500010E21D0FCD17B9F080E28C0F883040F4D6
:10366000C77081E001C0880FCA95EAF70E94021A6C
:10367000183048F481E09D2F977001C0880F9A950B
:10368000EAF70E94091A802F0E94DD1A183070F69E
:10369000D77081E001C0880FDA95EAF70E94021A1C
:1036A000C5CFC77081E001C0880FCA95EAF7F6CF91
:1036B000CF93DF93EC010E94040C9E01205E310940
:1036C0002830310510F0209741F40E94091A8C2F00
:1036D0000E948A1ADF91CF9108950E94F819F7CFBE
:1036E000FB01808191810E94581B0895CF93DF9345
:1036F000EC018A81823041F4FB01828193810E9436
:10370000581B8D8182608D83DF91CF910895FC01DC
:103710008281813089F4858182FF07C082E08093B5
:103720000D0188E20E948A1A089580FFF7CF83E096
:1037300080930D0182E01CC0823039F4858182FDC6
:103740001AC080FD11C084E0EACF833059F485812E
:1037500082FD06C080FF04C088E080930D010895BB
:1037600087E0FBCF81E0F9CF85E080930D0183E016
:103770000E94F016089586E080930D0188E20E9471
:10378000DD1ACFCFA4E0B0E0E8ECFBE10C94F93116
:1037900040918703509188036091890370918A0357
:1037A0002FB7F89480911A0590911B05A0911C05E4
:1037B000B0911D052FBF841B950BA60BB70B11E015
:1037C00084369105A105B10570F10E94770D6E5FF9
:1037D0007F4F8F4F9F4F69837A838B839C83809128
:1037E0001F019091200185579C4F40911E0150E090
:1037F0004530510510F044E050E0BE016F5F7F4F4F
:103800000E94CB3282E090E00E947431182F88230E
:1038100051F00E9478076093870370938803809328
:10382000890390938A03812F2496E3E00C94153248
:10383000A7E0B0E0EEE1FCE10C94F83186E0E4E6CC
:10384000F5E0DE01119601900D928A95E1F78091E5
:103850003F048F8347E050E065E973E0CE010196B5
:103860000E94BE3200919C0310919D0320919E0303
:1038700030919F03EFB7F89440911A0550911B05C2
:1038800060911C0570911D05EFBF401B510B620B31
:10389000730B443651056105710518F411E0892B4D
:1038A00021F1809127019091280185579C4F4091EB
:1038B000260150E04830510510F047E050E0BE01CD
:1038C0006F5F7F4F0E94CB3283E090E00E947431A3
:1038D000182F882351F00E94780760939C037093FF
:1038E0009D0380939E0390939F03812F2796E4E08E
:1038F0000C941432EF92FF921F93CF93DF9300D07A
:1039000000D000D0CDB7DEB77B0190E080E00E9410
:103910007431182F882309F480C04091110150E0C0
:103920004115510511F041E050E060911201709194
:10393000130165577C4FCE0106960E94CB32409111
:1039400083035091840360918503709186032FB7A0
:10395000F89480911A0590911B05A0911C05B091D7
:103960001D052FBF841B950BA60BB70B8436910545
:10397000A105B10540F48CE893E00E94C9059E8141
:10398000891709F44AC081E090E00E9474318111E6
:1039900016C010E085E0EEE7F3E0D70101900D924C
:1039A0008A95E1F7812F26960FB6F894DEBF0FBEF9
:1039B000CDBFDF91CF911F91FF90EF90089540917F
:1039C000190150E04630510510F045E050E060919B
:1039D0001A0170911B0165577C4FCE0101960E9420
:1039E000CB328CE893E00E94C9059E818913D1CF28
:1039F0000E94780760938303709384038093850308
:103A00009093860385E0FE013196AEE7B3E0019026
:103A10000D928A95E1F711E0BDCF85E0ECE8F3E087
:103A2000DE01119601900D928A95E1F71111EACF0E
:103A3000B1CF90E080E00E94EC32883E9E4F19F4B6
:103A40000E940F0F089580E0089568EE7EEF90E0E9
:103A500080E00E94203360E082E090E00E94023328
:103A600060E083E090E00E9402331092710360E016
:103A700084E090E00E94023364E082E290E00E94E1
:103A8000023360E085E090E00E94023360E086E06F
:103A900090E00E9402336FEF87E090E00E940233D3
:103AA00040E050E0BA0188E090E00E94143360E00A
:103AB0008DE090E00E94023340E050E0BA0188E1DE
:103AC00090E00E94143360E087E190E00E940233AE
:103AD00040E050E0BA018CE190E00E94143370E0C5
:103AE00060E080E290E00E94203340E050E0BA01C4
:103AF00088E190E00E94143380E00E94200E0E9432
:103B0000390E40E050E0BA018FE090E00E9414339B
:103B100040E050E0BA0183E190E00E941433089540
:103B2000A4E0B0E0E6E9FDE10C94EB318C01DC01AE
:103B300013968D919C911497892B49F04C91119675
:103B40005C911197842F85238F3F09F06AC62496D4
:103B5000E1E10C9407328114E4E09E0609F4C8C642
:103B6000C4010E94E432811101C0EA94FFEF8F1A70
:103B70009F0A9BC64701CE0101967C01D7012C917B
:103B8000222309F49AC6213009F04BC011969C916A
:103B9000119712968C91913031F4B2E0EB0EF11C3A
:103BA0000E94DD1A07C0923049F4E2E0EE0EF11CEB
:103BB0000E948A1AEFEFEE1AFE0AE0CF933031F43A
:103BC000F2E0EF0EF11C0E94131AF4CF943021F0B2
:103BD0002FEFE21AF20AEECF32E0E30EF11C30E0F2
:103BE00020E0B7016F5F7F4FD70111964C91805352
:103BF000990B8A30910550F021503109D8F2EFE944
:103C0000FFE03197F1F700C00000F6CF329EF001DF
:103C1000339EF00D11249C012E0F3F1F842F7B013A
:103C2000E0CFE22FF0E0EE56FE4F5490822F8695C3
:103C30008695869590E0FC01EE57FE4F64902770C4
:103C4000712C022E02C0759467940A94E2F731E059
:103C500063227724FC01EE58FE4FA490B12C022E73
:103C600002C0B594A7940A94E2F7A1E0AA22BB246B
:103C7000FC01EE59FE4FC490D12C02C0D594C794DC
:103C80002A95E2F7B1E0CB22DD246114710419F02A
:103C900081EE0E948A1AA114B10419F086EE0E94E6
:103CA0008A1A852D0E94DD1AA114B10419F086EE3E
:103CB0000E94131A6114710419F081EE0E94131A04
:103CC000C114D10409F476CF8CE26ACF81E00E945E
:103CD000F0160E948C160CC681E00E949816F9CF4F
:103CE00082E0F5CF9E2D8F2D53C5FD01858181FF8B
:103CF00053C5CD010E9435164FC5FCEAEF16FDE510
:103D0000FF0609F049C5882309F4F2C580910E0524
:103D1000882319F00E94EE19EBC5109210050E943D
:103D2000630B0E94840788579C4E9093C103809335
:103D3000C00381E080930E05DBC5E11482E5F8063F
:103D400008F05FC5D80112968C91882309F4E2C56A
:103D500010926C05B3E0EB16BDE5FB0608F0DBC086
:103D6000EAEFEE16ECE5FE0630F4C70182509C4502
:103D7000449708F0DDC00E94280F9093B103809310
:103D8000B00382E1E8168CE5F80609F4F8C108F002
:103D900036C1A9E0EA16ACE5FA0609F4CEC108F08E
:103DA000F9C0E5E0EE16ECE5FE0609F4BAC108F04C
:103DB000DDC023E0E2162CE5F20609F4AAC108F002
:103DC000ACC182E0E8168CE5F80609F49AC160916E
:103DD000B003F090B10384E090E00E9402336F2DB5
:103DE00082E290E00E9402330E94011781C5E11433
:103DF00099E5F90660F4E114A8E5FA0608F0A2CF07
:103E0000B4E1EB16B5E5FB0609F0FBC49BCFC70197
:103E100090568115904208F0F4C4D80115968C9103
:103E2000807F91F58F2D8F71823139F110F58230BD
:103E300021F10E94EE1923EFE2162CE5F20609F4B7
:103E40005BC008F042C088EDE8168CE5F80609F47E
:103E50004FC099EDE9169CE5F90609F459C0A7EDA4
:103E6000EA16ACE5FA0609F06DCF26E241EE61EE06
:103E70003BC0843101F38631E1F610920F05D9CFB2
:103E8000F8018581807FB9F2C701992710920F054B
:103E90008832910548F48E31910568F4049748F210
:103EA00082E080930F0507C08D329105C9F330F48D
:103EB0008A9709F0BECF0E94C315BDCF8C349105FF
:103EC000D1F38D329240B9F3B4CFB5EFEB16BCE528
:103ED000FB06D1F0A8F027E245EE66EEF6EFEF160E
:103EE000FCE5FF0609F02ECFC8010E94FB1A00C5B1
:103EF00027E245EE65EEF8CF26E241EE60EEF4CF24
:103F000027E245EE64EEF0CF26E241EE62EEECCF22
:103F100028E241E0EFCFF5EAEF16FDE5FF0609F4F0
:103F20002ACFF0F431E6E3163DE5F30609F423CF9A
:103F300086E1E8168CE5F80609F087C58091100542
:103F40008A7A91E009F490E09093160369E2811176
:103F500065E38EE093E00E9490070E94C315C8C4F9
:103F6000C7018D5A9D45039718F705CF8091B0037F
:103F7000806297E0E9169CE5F906F1F18091B003C3
:103F80008061A8E0EA16ACE5FA06B0F18091B003D2
:103F9000806432C0BDE0EB16BCE5FB0609F4D7C077
:103FA000A0F48091B0038E7FFBE0EF16FCE5FF06E6
:103FB00019F18091B0038C602CE0E2162CE5F2063A
:103FC000D8F08091B0038D7F17C03FE0E3163CE549
:103FD000F30609F4CCC008F4BEC090E1E9169CE5F4
:103FE000F90609F4C8C08091B0038F7BA1E1EA16FD
:103FF000ACE5FA0609F0EBCE8093B003E8CEBFEF54
:10400000EB16BCE5FB0609F4C4C0D8F5FAEFEF16D1
:10401000FCE5FF0609F489C0D0F434E1E3163CE581
:10402000F30609F4C4C008F4B0C095E1E9169CE5B4
:10403000F90609F0CCCE8091B00382FB992790F964
:1040400021E0922790FB82F990FB83F9D5CFACEF6A
:10405000EA16ACE5FA0609F482C008F46AC0EDEF8E
:10406000EE16ECE5FE0609F47EC08091B103836094
:10407000FEEFEF16FCE5FF0609F0A9CE8093B10331
:10408000A6CE21E6E2162DE5F20609F49BC0A0F4C7
:1040900081E0E8168DE5F80609F492C008F47DC0C9
:1040A00060E0A2E0EA16ADE5FA0609F090CE8EE0F7
:1040B00090E00E9402338BCEBDEAEB16BDE5FB0615
:1040C00021F168F49091B003892F8E7F90FF816079
:1040D000F5EAEF16FDE5FF0609F48ECF78CE2EEA5D
:1040E000E2162DE5F20679F13FEAE3163DE5F30627
:1040F00009F06DCE9091B103892F877F93FF88607F
:10410000BDCF8091B003816077CF8091B10388608B
:10411000B5CF8091B00382606FCF8091B00384608F
:104120006BCF8091B003886067CF8091B1038160CD
:10413000A5CF8091B1038260A1CF0E940117809129
:10414000B003806859CF8091B103877F97CF80916A
:10415000B0038B7F51CF8091B003877F4DCF80918B
:10416000B1038E7F8BCF8091B1038D7F87CF8091FC
:10417000B0038F7E41CF8091B0038F7D3DCF0E94F1
:1041800001178091B0038F7737CF8091B003837F81
:1041900033CF8091B1038C7F71CF8091B103982F81
:1041A000909591708E7F892B90FB81F967CF0E944B
:1041B00001179091B003892F97FB87F980581CCF86
:1041C00061E075CF9091B003892F8F7E94FF80615D
:1041D00013CF8091160381110FC089E2E0E1F3E073
:1041E00026E133E09191891303C0DF0111971C92FE
:1041F0002E173F07B9F7B1CE85E3F0CF46E350E184
:1042000061E470E10E94D60773C341E450E166E3C4
:1042100070E1F8CF49EE5FE064EF7FE0F3CF41EB70
:104220005FE06FEB7FE0EECF61E081E00E94FF0F87
:104230005FC390914004892F8E7F90FF81608093AF
:10424000400480FF05C08BE592E00E94270550C323
:1042500089E492E0FACF0E94251D0E94D119809135
:10426000B10382FB882780F991E089270E94C1165B
:10427000D80112968C911297ED90FC90882309F446
:1042800045C0C7010E94860ED82E682FC7010E9424
:10429000B50BB7018D2D0E94780E0E94E3097C01B9
:1042A000882EF801D280B580B2943FE0B32280918D
:1042B00067038770C1F0AD2CDD20B1F08F2D807FBA
:1042C000803421F080E28E0D883068F08091B10357
:1042D00082FF09C082E00E94A51680916703877063
:1042E000AA24A3948111A12C9F2C92942FE09222B6
:1042F000FBE0F91508F46FC0E92DF0E0E356FC4C43
:104300000C94553281E0B2CF80E0B0CFC7010E945B
:10431000810BD82EBECF2F2D2F70C22E8F2D807FD8
:1043200019F0C29490EFC922DD20B9F0CC2069F0D9
:1043300080E28E0D883010F0811009C08091100548
:10434000C82AC09210050E94C3158E2D42C08091CC
:104350000F05C82AC0920F05F6CF8E2D0E94131AA2
:10436000CC20C9F180E28E0D883010F0811004C09D
:104370008C2D0E94700B03C08C2D0E94690B0E9433
:10438000C31529C03F2D3F70C32E8F2D807F8032F3
:1043900019F0C29480EFC822882059F081E0881675
:1043A00009F471C0DD2009F47BC0BB2009F471C0A1
:1043B000CCCF2091B10322FD43C0DD20D9F1CC2028
:1043C00039F080911005C82AC09210050E94C315CB
:1043D00080E00E948A1AA92DA850BB0B149710F4F4
:1043E0000E94660DAA20A9F08091670380FD11C08C
:1043F000F80112828595859585950E94F016C80171
:104400000E94901D809167038595859585950E94F2
:10441000981620E0D8014C9111965C911197129654
:104420006C91129713967C91139714968C910E941D
:10443000EC0E8DCB80E00E94131ACC2061F298CF55
:10444000DD20A1F0909170038C2D892BB11003C059
:104450000E94091AC0CFA1E0BA12FACF22FFBBCF47
:10446000981709F4B8CF80937003B5CFB11006C088
:104470000E94630B8C2D0E94021AADCFB1E0BB16D7
:1044800009F4A9CFF5CFDD2031F0E5E0EB1508F414
:10449000A2CF8C2DDDCFF4E0FB1508F49CCFEACF42
:1044A000BB2041F329E3821209C03FEF87EE93E07E
:1044B000315080409040E1F700C000008E2D0E94F6
:1044C000131A89CF8F2D86958695837061F0813080
:1044D00009F081CFC7019370D11002C090E080E055
:1044E0000E94AA0778CFC7019370D11002C090E054
:1044F00080E00E94C0076FCF8F2D837091F5D1109F
:104500006ACF4E2D429546954770440F440F8E2D2D
:104510008F70042E01C0880F0A94EAF72E2D2071A7
:10452000E4FE07C02FE030E001C0220F4A95EAF711
:1045300020953F2D369536953370323069F050F422
:1045400040917103313029F0822B84230E94FC16A4
:1045500042CF842B822BFACF282B809171038227A4
:10456000F5CF8695DD2011F08F2D8170882309F419
:1045700032CF4E2D429546954770440F440F8E2DF5
:104580008F70042E01C0880F0A94EAF72E2D207137
:10459000E4FE07C02FE030E001C0220F4A95EAF7A1
:1045A00020953F2D369536953370323069F050F4B2
:1045B00040916D05313029F0822B84230E948716AB
:1045C0000ACF842B822BFACF282B80916D0582276E
:1045D000F5CFAF2DAF70FA2EDD2029F08A2F0E9483
:1045E000F0168E2D35CF8E2D0E94021A8F2D0E942F
:1045F0009816F1CE8E2DB2EF8B16B1F1B81570F082
:10460000E0EF8E16D1F0F1EF8F1691F0DD2009F476
:104610005EC0B1109ACE8F2D8F712AC023EF821603
:1046200051F134EF8312F2CF8091B10382FD2FC09C
:104630008F2D8F71DD20D9F21BC0DD2081F084E049
:104640008B1508F4C8CE2F2D2F7181E090E001C0AA
:10465000880F2A95EAF790916D058927AFCF95E0ED
:104660009B1508F4B8CEEFCF8F2D8F71D110BFCF2F
:104670000E94F016B0CE80E0DD2009F49FCF9F2D80
:104680009F7181E001C0880F9A95EAF797CFDD20EE
:1046900099F0AF2DAF71FA2E8A2F0E94F0168091FB
:1046A000B10382FF07C0B8E0FB9EC0011124836004
:1046B000809367038F2DDCCF81E00E94A516E1E097
:1046C000EB1508F088CE82E00E94A51684CEBB20B0
:1046D00059F0893309F0F2CEFFEF27EE33E0F150C5
:1046E00020403040E1F7E8CE8F2D8F7180CFB0E1D0
:1046F000EB16BFE5FB0609F4E9CAE1E1EE16EFE5CA
:10470000FE0609F4EDCA970137552F3F310511F028
:1047100008F0F3CA5701BB242EE0E29EF0011124F9
:10472000DF01AA5BBE4F6D01E55BFE4F908180FB10
:1047300090F99083882309F4D8CA0E948407909343
:10474000BF038093BE03F60182818F5F82838091D5
:104750000F0590911005892B8383809170038483CA
:104760000680F781E02D309731F0D6011C966D91CF
:104770007C91C60109958EE08A9DF0018B9DF00D1C
:104780001124EA5BFE4F858181FFACCA90E080E096
:10479000909311058093120580910E05882309F4EA
:1047A0004ACBC0901005D09070030E9484078857B0
:1047B0009C4E9093C1038093C003D80112968C91B4
:1047C000882309F438CB8D2D8C298D7909F031CBD4
:1047D000E114B5E5FB0608F00ACBE114E3E5FE06BB
:1047E00008F0B0CAE114F0E5FF0608F0A6CAE1142B
:1047F00020E4F20608F044CB36EEE316F10409F4A7
:10480000A1CAC70143CBF0E1EF16FFE5FF0609F4AB
:1048100063CA21E1E2162FE5F20609F074CF82E0C7
:104820005CCA21E012966C91129713967C911397B3
:1048300014968C910E94EC0E7C01F80182818823F1
:10484000E1F080911105909112050097B1F08E155D
:104850009F0599F0BEE08B9FC0011124FC01E55B30
:10486000FE4F2081246020838A5B9E4FFC01F182F1
:10487000E0820E944F1610920F05D80112968C917B
:10488000882309F2970122513F452031310508F074
:104890002ECF8FEF93E00E94E432811129C0BEEE4B
:1048A000EB0E57EF852E52E0952EE11054C91C8275
:1048B0001B82442443944AE0342E74012FEFE21A01
:1048C000F20AC4010E94E43289831A82882381F0AB
:1048D0009FEF980F933008F04DC98A83498232E0E8
:1048E000830E911CC7010E94E4328B83811143C95E
:1048F00080916703877009F42AC9F80182818823AF
:1049000009F425C98091B10382FF21C982E00E9488
:10491000A5161DC9F6E1EF16FCE5FF0609F459CC12
:1049200080911005827229ECE2162CE5F20609F45A
:1049300076CC08F056C095ECE9169CE5F90609F42A
:1049400069CCB0F5B3ECEB16BCE5FB0609F456CC2C
:1049500008F05BCCF2ECEF16FCE5FF0609F088CC22
:1049600080916405982F937021E092278C7F892B8A
:10497000809364051092720180914104816080935C
:1049800041048091400480FFB3CF1F929F9387E83A
:1049900091E09F938F9382E192E09F938F930E9487
:1049A000C0050F900F900F900F900F900F90A0CF19
:1049B0004DEC5FE06BED7FE027ECE2162CE5F206B4
:1049C00009F420CC44EF5FE069EE7FE038ECE316B9
:1049D0003CE5F30608F416CC4BED5FE06DEC7FE0B0
:1049E00011CC9DECE9169CE5F90609F41DCCC8F440
:1049F00043E65FE06FE67FE0BBECEB16BCE5FB0651
:104A000009F400CC4FEB5FE061EB7FE0ECECEE16DD
:104A1000ECE5FE0608F4F6CB4FE65FE063E67FE0E8
:104A2000F1CBF6EDEF16FCE5FF0648F461E082E01D
:104A30002FECE2162CE5F20608F4F8CB59CF3DE551
:104A4000E316F30609F454CF13CC8AE5E8168DE596
:104A5000F80609F457CCF0F4A1E0EA16ACE5FA0642
:104A600009F4E7CBBEEDEB16BCE5FB0609F4F3CB8E
:104A7000E114ECE5FE0609F0FBCB0E9401179FEF65
:104A8000A4E3BCE09150A040B040E1F700C00000BA
:104A90000E94F80CFCE5EF16FDE5FF0609F4DFCBFC
:104AA00008F432CC37EAE3163DE5F30609F4D5CB3A
:104AB000DFCB1F93CF93DF9380913403807F09F086
:104AC00049C080913103882309F444C08091660372
:104AD000D091350360912F0370913003A091320380
:104AE000B0913303C62FC72316E0D81799F190E091
:104AF000109711F0CF3F19F401968770F6CF189FE9
:104B00009001199F300D1124F901EA5CFC4F41819D
:104B10004713F2CF40814613EFCF42814111ECCFD2
:104B2000438154814A1B5B0B483C510528F7809117
:104B300034038F70806180933403F901E55CFC4F8E
:104B400080818F70806180838FE293E00E94901D4E
:104B50000E94770BDF91CF911F910895A1E1B0E002
:104B6000E4EBF5E20C94F0318C0185E0F801DE0114
:104B70001D9601900D928A95E1F7D801DC9011966F
:104B8000CC9011971296EC90129713968D909C9062
:104B900020E040912F0350913003609131037091D8
:104BA0003203809133030E94EC0EAC018FE2A82EF9
:104BB00083E0B82E60913203709133036115710563
:104BC00009F44CC190912F0320913003892F822347
:104BD0008F3F09F443C1F0903103F401E61BF70B5A
:104BE000FF2009F4F9C080913403382F307FE83C6E
:104BF000F10508F0BDC0D80111964C911197311103
:104C000078C0FE2C421315C02C91291312C0E1105C
:104C100010C08F70806180933403C5010E94901D85
:104C200080913403F80185838F2D6196ECE00C941C
:104C30000C328114910429F08D2D8C218F3F09F0C5
:104C400028C180E0F82FF170BF2E80FF3DC0809119
:104C500066032091350336E0821316C0DD86CE86CA
:104C60008D859E850E94B50E292F22952F702230AA
:104C7000F8F0243020F59F70F9F0D80115969C913A
:104C8000907FD1F4B12C1EC090E0389FF001399F85
:104C9000F00D1124EA5CFC4F4181C41206C0408132
:104CA000D41203C04281E4120FC001968770D4CFA2
:104CB0009F7011F0882331F3805E883018F3C801AB
:104CC0000E94901DFB2CB0CFEE2009F4ADCF809157
:104CD00034038160809334038FE293E00E94901D3F
:104CE00086E0EFE2F3E0DF011D928A95E9F7F12C0F
:104CF0009BCF421313C0F801208129130FC0E1108C
:104D00000DC08583C8010E94901D86E0F801AFE2C6
:104D1000B3E001900D928A95E1F786CFC8010E9419
:104D2000C20E882309F1EE20F9F08091340380321D
:104D300070F020912F033091300338872F8319862C
:104D40009B868A868C87CE0107960E94901D86E0FE
:104D5000F801AFE2B3E001900D928A95E1F70E946D
:104D60005925FF24F39460CFC8010E94901DF9CF0C
:104D7000311107C08FE293E00E94901D86E0D501BB
:104D8000B3CFF801318132130FC0208129130CC039
:104D9000E1100AC08583C8010E94901D86E0D501FC
:104DA0001D928A95E9F740CFC8010E94C20E882360
:104DB000D9F2EE20C9F280913403803240F2209182
:104DC0002F03309130033A8329831B829D828C828A
:104DD0008E83CE010196B9CFE83CF105C8F5FE2CD3
:104DE000EE2011F2F8018181821324C080818913A1
:104DF00021C04C32F1E45F0709F487CF4A325246B2
:104E000009F483CF9091340390FD7FCF907F09F414
:104E10007CCF80913403D80115968C931597903FE1
:104E200009F470CF982F907F905F8F70892B159623
:104E30008C9368CFC8010E94C20E811188CF8091E7
:104E40003403816080933403C8010E94901DECCE2E
:104E500086E0F50111928A95E9F7E6CEEE2009F495
:104E600083CFC8010E94C20EF82E882309F47CCF9C
:104E700086E0F801AFE2B3E001900D928A95E1F788
:104E800080912F03909130030E94B50E0E94592506
:104E9000CBCE81E08E25D6CEA7E1B0E0E2E5F7E209
:104EA0000C94F9314B8B5C8B6D8B7E8B8F8B6111EE
:104EB00010920F051A8A198A85E0FE017396DE01A9
:104EC0001D9601900D928A95E1F786E0FE013D96D0
:104ED000DE01179601900D928A95E1F7CE010796B3
:104EE0000E94AE25882359F016E0809166039091C8
:104EF0003503891343C06796E3E00C94153286E0CE
:104F0000FE013796DE01119601900D928A95E1F728
:104F10008A859B85892B41F38F81988589238F3FD3
:104F200019F32091350330E0C90101968770992764
:104F3000409166034817190671F40E9401171092F8
:104F400035031092660386E0EFE2F3E0DF011D9285
:104F50008A95E9F7C9CF96E0929FD001939FB00D53
:104F60001124AA5CBC4FFE01319601900D929A95D6
:104F7000E1F7809335030E94770BB6CF819FC00184
:104F800011248A5C9C4F0E94AE25882309F4B3CF7C
:104F90008091660390E0019687709927809366035D
:104FA000A4CF1F920F920FB60F9211242F933F930D
:104FB0004F935F936F937F938F939F93AF93BF9321
:104FC000CF93DF93EF93FF93D091E900DF7080914F
:104FD000EC00C82FC17080FDC0E81092E9008091FC
:104FE000F000877F8093F00078940E940D17109254
:104FF000E9008091F00088608093F000CD2BCF70A5
:10500000C093E900FF91EF91DF91CF91BF91AF91F4
:105010009F918F917F916F915F914F913F912F91D0
:105020000F900FBE0F901F9018951F920F920FB602
:105030000F9211242F933F934F935F936F937F931E
:105040008F939F93AF93BF93EF93FF938091E10072
:1050500082FF15C08091E20082FF11C08091E100C3
:105060008B7F8093E100209123052F5F822F62E3E5
:105070000E942132992309F4C0C020932305809116
:10508000DA0080FF28C08091D80080FF24C0809182
:10509000DA008E7F8093DA008091D90080FFE3C030
:1050A00080E189BD82E189BD09B400FEFDCF81E0C8
:1050B0008093310581EF98E00E94270580912405B7
:1050C000811109C00E94E0050E94AB068091E200B8
:1050D00084608093E2008091E10080FF1BC080919A
:1050E000E20080FF17C08091E2008E7F8093E20093
:1050F0008091E20080618093E2008091D80080621C
:105100008093D80019BC85E08093310589EF98E041
:105110000E9427058091E10084FF2FC08091E2006A
:1051200084FF2BC080E189BD82E189BD89B5982FBC
:10513000917080FFFBCF8091D8008F7D8093D80045
:105140008091E1008F7E8093E1008091E2008F7E6C
:105150008093E2008091E20081608093E200809180
:105160003205882309F489C084E0809331058DEFEE
:1051700098E00E942705809131058091E10083FF2E
:105180002BC08091E20083FF27C08091E100877FE0
:105190008093E10082E08093310510923205809186
:1051A000E1008E7F8093E1008091E2008E7F80930A
:1051B000E2008091E20080618093E20042E060E0E2
:1051C00080E00E9479068091F00088608093F00072
:1051D00081E099E00E942705FF91EF91BF91AF9187
:1051E0009F918F917F916F915F914F913F912F91FF
:1051F0000F900FBE0F901F9018951092230580916D
:105200002205882309F43BCF809131058430C1F415
:105210009091E9009F702091EC00822F817020FD19
:1052200080E8892B95E09093E9009091EB0090FF46
:1052300004C09091EE0097FD08C08F708093E90044
:10524000109222051CCF1092F1009091E80095FD7C
:10525000FACF9091E80090FFF0CF9091E8009E7710
:105260009093E800EACF19BC1092310585EF98E0E1
:105270000E942705109224052ECF8091E30087FD20
:1052800093E09093310573CF78941F921FB61F92CD
:1052900011248F939F93AF93BF9380911A059091A0
:1052A0001B05A0911C05B0911D050196A11DB11D06
:1052B00080931A0590931B05A0931C05B0931D05C0
:1052C000BF91AF919F918F911F901FBE1F90189516
:1052D0001F921FB61F9211248F939F93AF93BF937A
:1052E00080911905811113C080911A0590911B05B9
:1052F000A0911C05B0911D054196A11DB11D809383
:105300001A0590931B05A0931C05B0931D05BF9132
:10531000AF919F918F911F901FBE1F901895CDB791
:10532000DEB7E6970FB6F894DEBF0FBECDBF85B7E8
:10533000806885BF85B7806885BF84B7877F84BF55
:105340000FB6F894A8958091600088618093600002
:10535000109260000FBE80E890E00FB6F894809342
:105360006100909361000FBE85E39CE090930D0374
:1053700080930C030E94E0050E94AB068091E2003E
:1053800084608093E2007894809131058823A1F0B5
:105390001091E9001F709091EC00892F817090FDB1
:1053A00080E8182B1092E9008091E80083FD0E94AC
:1053B0000D171F701093E90082E084BD93E095BD46
:1053C0009AEF97BD80936E001092A0031092A103F4
:1053D0001092A2031092A3030E940F0F811102C02A
:1053E0000E94390E55985D988FE891E00197F1F78A
:1053F00000C000000E94D008809339010E94430D34
:1054000081110E9488308091390181112CC085E082
:10541000EAE7F1E0DE01919601900D928A95E1F7BD
:1054200089A1809334018AA1809335018BA1809357
:1054300036018CA1809337018DA18093380186E0DD
:10544000EFE7F1E0DE01119601900D928A95E1F708
:10545000FE013196AEE2B1E0CE01079621912D9387
:10546000E817F907D9F78091390195E0811190E0AB
:105470009093AF0385E0891B8093AE0304E311E0B2
:10548000D8018D918D018F3F11F00E948909B1E003
:1054900009331B07A9F70EE211E0F80181918F0192
:1054A0008F3F11F00E948909F1E004331F07A9F72B
:1054B0008AE0E3ECF3E0DF01282F1D922A95E9F75B
:1054C000E4EAF3E0DF011D928A95E9F70E94191DD5
:1054D000811102C00E94251D82E090E00E94E4320A
:1054E000809340040E94280F9093B1038093B003EF
:1054F0000E941F14EFE3FCE93197F1F700C00000B0
:105500000E941F148091C30380FF08C06FEF7FEFDC
:1055100090E080E00E9420330E94F80C83E090E04D
:105520000E94E4320E94FC1610923B058FEF9FEF21
:105530009093550580935405909357058093560595
:10554000909359058093580590935B0580935A0575
:1055500090935D0580935C0590935F0580935E0555
:105560009093610580936005909363058093620535
:1055700010920E04909328048093270490932A0499
:105580008093290490932C0480932B0490932E04F1
:1055900080932D049093300480932F0490933204D1
:1055A00080933104909334048093330490933604B1
:1055B000809335040E94191D811110C08091400410
:1055C00080FF08C08BE394E09F938F930E94C005F7
:1055D0000F900F900E94251D0E944D1046E050E054
:1055E0006CE170E084E695E00E94D43210924104B0
:1055F000809164058C7F71F48091400480FF08C025
:1056000086EE93E09F938F930E94C0050F900F90BA
:105610000E944D108091400480FF89C08CEC93E083
:105620009F938F930E94C005809140040F900F902C
:1056300080FF7DC08091640583701F928F938DEAF7
:1056400093E09F938F930E94C005809140040F9038
:105650000F900F900F9080FF6AC08091640586952F
:1056600086951F928F9380E993E09F938F930E947A
:10567000C005809140040F900F900F900F9080FF15
:1056800056C0809165051F928F9382E793E09F93A8
:105690008F930E94C005809140040F900F900F904F
:1056A0000F9080FF44C0809166051F928F9384E520
:1056B00093E09F938F930E94C005809140040F90C8
:1056C0000F900F900F9080FF32C0809167051F925E
:1056D0008F9386E393E09F938F930E94C005809100
:1056E00040040F900F900F900F9080FF20C080918A
:1056F00068051F928F9388E193E09F938F930E9498
:10570000C005809140040F900F900F900F9080FF84
:105710000EC0809169051F928F938AEF92E09F934C
:105720008F930E94C0050F900F900F900F900E94D2
:10573000430D811102C00E948B308AE391E0909367
:1057400016058093150583EC93E0FAE0F80FFEABA5
:10575000809131058530A9F48DE694E00E942705FB
:1057600020E4F22EEE24E39400E112E18091310571
:10577000853009F4A8C00E9401170E94660D10929E
:105780003F040E941F1444EB53E05CA74BA783EC3B
:1057900093E09EA78DA72EEB33E0DC01FA019191F7
:1057A0008D912E173F0709F4D3C09817C1F380914C
:1057B000400481FD78C10E94430D782EA3ECB3E034
:1057C000B8ABAFA7F12C312C212CAFA5B8A9BD9057
:1057D000B8ABAFA7EBA5FCA58191FCA7EBA78B15F8
:1057E00009F401C28B2589AB6101E12CAA24A394A1
:1057F00089A98A2109F4EBC14A2C4B20772099F022
:10580000EEA2FFA281E0411001C080E088A70E94C3
:1058100084078160782F9AA789A74EA15FA168A508
:105820008AA50E944C27442039F0F601EC5FFD4F19
:1058300080818F3F09F06DC1512C052D10E08091C2
:105840000E04800F912F911D09976CF1F8E08F2EB7
:10585000912C801A910AB801615F7B4FA4018FE0FF
:1058600094E00E94CB32B801695E7B4FA40187E1CE
:1058700094E00E94CB32A401440F551FB801660F7B
:10588000771F695D7B4F87E294E00E94CB32B801BD
:10589000615E7B4FA4018FE194E00E94CB3288E0EF
:1058A000851980930E0480910E0490E0A62DB0E03F
:1058B0009D01220F331F205C3D4FAA0FBB1FBD016E
:1058C0006F5B7D4F3EC180913105843009F430C05B
:1058D0000E94791380913F04811105C00E94B81085
:1058E00080E00E94DC07E0923F041092190528E155
:1058F00030E00FB6F894A895209360000FBEF092A8
:10590000600083B7817F846083BF83B7816083BF7A
:105910007894889583B78E7F83BF0FB6F894A89547
:1059200080916000886180936000109260000FBEDB
:1059300080913005882309F419CF0E941F14E3ECED
:10594000F3E0819181116DC33EA93E13FACF0ECFD2
:1059500098132DCF0E9484078C018091B2039091FF
:10596000B30308171907A1F08FEF89A38AA31BA21D
:105970000E9484078160782F9DA38CA349A15AA11E
:105980006BA18DA10E944C271093B3030093B20327
:105990000E94430D882379F10091110510911205A1
:1059A00001151105B9F08091BE039091BF030E94CB
:1059B0006907893C910570F0AEE00A9FC00111248F
:1059C000FC01E55BFE4F208122FD04C08A5B9E4FF7
:1059D0000E944F1680910E05882369F00E9484076B
:1059E0002091C0033091C103821B930B8F3F9F47CF
:1059F00010F40E94EE190E9479130E94660D182F70
:105A00008091C203181731F11093C2030E947807E6
:105A10008091400482FF1EC080FF1CC086E994E094
:105A20000E9427058091400480FF14C01F921F939D
:105A300081E994E09F938F930E94C0058091400478
:105A40000F900F900F900F9080FF04C08FE894E0AC
:105A50000E94270580913105843009F079CE83E0DA
:105A60008093E9008091E80082FF72CE8091E80087
:105A700090E085FF06C00E94FF05882309F428C135
:105A800091E08091E8008B778093E800992309F4F6
:105A90005FCEE981E150E33108F08EC1F0E0E755D7
:105AA000FC4C0C94553280E894E00E94270513ECDE
:105AB000C12E13E0D12E10E000E08BE7A82E84E089
:105AC000B82E93E7E92E94E0F92E1F930F93BF921F
:105AD000AF920E94C00588E794E00E942705F60176
